{
  "_format": "hh-sol-artifact-1",
  "contractName": "OwnedAuthFacet",
  "sourceName": "contracts/diamond-resolver/facets/auth/OwnedAuthFacet.sol",
  "abi": [
    {
      "inputs": [],
      "name": "Unauthorised",
      "type": "error"
    },
    {
      "anonymous": false,
      "inputs": [
        {
          "indexed": true,
          "internalType": "address",
          "name": "owner",
          "type": "address"
        },
        {
          "indexed": true,
          "internalType": "address",
          "name": "operator",
          "type": "address"
        },
        {
          "indexed": false,
          "internalType": "bool",
          "name": "approved",
          "type": "bool"
        }
      ],
      "name": "ApprovalForAll",
      "type": "event"
    },
    {
      "anonymous": false,
      "inputs": [
        {
          "indexed": false,
          "internalType": "address",
          "name": "owner",
          "type": "address"
        },
        {
          "indexed": true,
          "internalType": "bytes32",
          "name": "node",
          "type": "bytes32"
        },
        {
          "indexed": true,
          "internalType": "address",
          "name": "delegate",
          "type": "address"
        },
        {
          "indexed": true,
          "internalType": "bool",
          "name": "approved",
          "type": "bool"
        }
      ],
      "name": "Approved",
      "type": "event"
    },
    {
      "anonymous": false,
      "inputs": [
        {
          "indexed": true,
          "internalType": "bytes32",
          "name": "node",
          "type": "bytes32"
        },
        {
          "indexed": false,
          "internalType": "uint64",
          "name": "newVersion",
          "type": "uint64"
        }
      ],
      "name": "VersionChanged",
      "type": "event"
    },
    {
      "inputs": [
        {
          "internalType": "address",
          "name": "sender",
          "type": "address"
        },
        {
          "internalType": "bytes32",
          "name": "",
          "type": "bytes32"
        }
      ],
      "name": "isAuthorised",
      "outputs": [
        {
          "internalType": "bool",
          "name": "",
          "type": "bool"
        }
      ],
      "stateMutability": "view",
      "type": "function"
    }
  ],
  "bytecode": "0x608060405234801561001057600080fd5b50610106806100206000396000f3fe6080604052348015600f57600080fd5b506004361060285760003560e01c806325f3670414602d575b600080fd5b60796038366004608d565b507f8a22373512790c48b83a1fe2efdd2888d4a917bcdc24d0adf63e60f6716804605473ffffffffffffffffffffffffffffffffffffffff90811691161490565b604051901515815260200160405180910390f35b60008060408385031215609f57600080fd5b823573ffffffffffffffffffffffffffffffffffffffff8116811460c257600080fd5b94602093909301359350505056fea2646970667358221220697316751a10ae78d3a9a37825e65ba2ac540029dd60a6bfcf683930e8a6369264736f6c63430008130033",
  "linkReferences": {},
  "deployedLinkReferences": {}
}