{"contracts/Multicall3.sol":{"Multicall3":{"abi":[{"inputs":[{"components":[{"internalType":"address","name":"target","type":"address"},{"internalType":"bytes","name":"callData","type":"bytes"}],"internalType":"struct Multicall3.Call[]","name":"calls","type":"tuple[]"}],"name":"aggregate","outputs":[{"internalType":"uint256","name":"blockNumber","type":"uint256"},{"internalType":"bytes[]","name":"returnData","type":"bytes[]"}],"stateMutability":"payable","type":"function"},{"inputs":[{"components":[{"internalType":"address","name":"target","type":"address"},{"internalType":"bool","name":"allowFailure","type":"bool"},{"internalType":"bytes","name":"callData","type":"bytes"}],"internalType":"struct Multicall3.Call3[]","name":"calls","type":"tuple[]"}],"name":"aggregate3","outputs":[{"components":[{"internalType":"bool","name":"success","type":"bool"},{"internalType":"bytes","name":"returnData","type":"bytes"}],"internalType":"struct Multicall3.Result[]","name":"returnData","type":"tuple[]"}],"stateMutability":"payable","type":"function"},{"inputs":[{"components":[{"internalType":"address","name":"target","type":"address"},{"internalType":"bool","name":"allowFailure","type":"bool"},{"internalType":"uint256","name":"value","type":"uint256"},{"internalType":"bytes","name":"callData","type":"bytes"}],"internalType":"struct Multicall3.Call3Value[]","name":"calls","type":"tuple[]"}],"name":"aggregate3Value","outputs":[{"components":[{"internalType":"bool","name":"success","type":"bool"},{"internalType":"bytes","name":"returnData","type":"bytes"}],"internalType":"struct Multicall3.Result[]","name":"returnData","type":"tuple[]"}],"stateMutability":"payable","type":"function"},{"inputs":[{"components":[{"internalType":"address","name":"target","type":"address"},{"internalType":"bytes","name":"callData","type":"bytes"}],"internalType":"struct Multicall3.Call[]","name":"calls","type":"tuple[]"}],"name":"blockAndAggregate","outputs":[{"internalType":"uint256","name":"blockNumber","type":"uint256"},{"internalType":"bytes32","name":"blockHash","type":"bytes32"},{"components":[{"internalType":"bool","name":"success","type":"bool"},{"internalType":"bytes","name":"returnData","type":"bytes"}],"internalType":"struct Multicall3.Result[]","name":"returnData","type":"tuple[]"}],"stateMutability":"payable","type":"function"},{"inputs":[],"name":"getBasefee","outputs":[{"internalType":"uint256","name":"basefee","type":"uint256"}],"stateMutability":"view","type":"function"},{"inputs":[{"internalType":"uint256","name":"blockNumber","type":"uint256"}],"name":"getBlockHash","outputs":[{"internalType":"bytes32","name":"blockHash","type":"bytes32"}],"stateMutability":"view","type":"function"},{"inputs":[],"name":"getBlockNumber","outputs":[{"internalType":"uint256","name":"blockNumber","type":"uint256"}],"stateMutability":"view","type":"function"},{"inputs":[],"name":"getChainId","outputs":[{"internalType":"uint256","name":"chainid","type":"uint256"}],"stateMutability":"view","type":"function"},{"inputs":[],"name":"getCurrentBlockCoinbase","outputs":[{"internalType":"address","name":"coinbase","type":"address"}],"stateMutability":"view","type":"function"},{"inputs":[],"name":"getCurrentBlockDifficulty","outputs":[{"internalType":"uint256","name":"difficulty","type":"uint256"}],"stateMutability":"view","type":"function"},{"inputs":[],"name":"getCurrentBlockGasLimit","outputs":[{"internalType":"uint256","name":"gaslimit","type":"uint256"}],"stateMutability":"view","type":"function"},{"inputs":[],"name":"getCurrentBlockTimestamp","outputs":[{"internalType":"uint256","name":"timestamp","type":"uint256"}],"stateMutability":"view","type":"function"},{"inputs":[{"internalType":"address","name":"addr","type":"address"}],"name":"getEthBalance","outputs":[{"internalType":"uint256","name":"balance","type":"uint256"}],"stateMutability":"view","type":"function"},{"inputs":[],"name":"getLastBlockHash","outputs":[{"internalType":"bytes32","name":"blockHash","type":"bytes32"}],"stateMutability":"view","type":"function"},{"inputs":[{"internalType":"bool","name":"requireSuccess","type":"bool"},{"components":[{"internalType":"address","name":"target","type":"address"},{"internalType":"bytes","name":"callData","type":"bytes"}],"internalType":"struct Multicall3.Call[]","name":"calls","type":"tuple[]"}],"name":"tryAggregate","outputs":[{"components":[{"internalType":"bool","name":"success","type":"bool"},{"internalType":"bytes","name":"returnData","type":"bytes"}],"internalType":"struct Multicall3.Result[]","name":"returnData","type":"tuple[]"}],"stateMutability":"payable","type":"function"},{"inputs":[{"internalType":"bool","name":"requireSuccess","type":"bool"},{"components":[{"internalType":"address","name":"target","type":"address"},{"internalType":"bytes","name":"callData","type":"bytes"}],"internalType":"struct Multicall3.Call[]","name":"calls","type":"tuple[]"}],"name":"tryBlockAndAggregate","outputs":[{"internalType":"uint256","name":"blockNumber","type":"uint256"},{"internalType":"bytes32","name":"blockHash","type":"bytes32"},{"components":[{"internalType":"bool","name":"success","type":"bool"},{"internalType":"bytes","name":"returnData","type":"bytes"}],"internalType":"struct Multicall3.Result[]","name":"returnData","type":"tuple[]"}],"stateMutability":"payable","type":"function"}],"devdoc":{"author":"Michael Elliot <mike@makerdao.com>Joshua Levine <joshua@makerdao.com>Nick Johnson <arachnid@notdot.net>Andreas Bigger <andreas@nascent.xyz>Matt Solomon <matt@mattsolomon.dev>","details":"Multicall & Multicall2 backwards-compatibleAggregate methods are marked `payable` to save 24 gas per call","kind":"dev","methods":{"aggregate((address,bytes)[])":{"params":{"calls":"An array of Call structs"},"returns":{"blockNumber":"The block number where the calls were executed","returnData":"An array of bytes containing the responses"}},"aggregate3((address,bool,bytes)[])":{"params":{"calls":"An array of Call3 structs"},"returns":{"returnData":"An array of Result structs"}},"aggregate3Value((address,bool,uint256,bytes)[])":{"params":{"calls":"An array of Call3Value structs"},"returns":{"returnData":"An array of Result structs"}},"blockAndAggregate((address,bytes)[])":{"params":{"calls":"An array of Call structs"},"returns":{"blockHash":"The hash of the block where the calls were executed","blockNumber":"The block number where the calls were executed","returnData":"An array of Result structs"}},"getBlockHash(uint256)":{"params":{"blockNumber":"The block number"}},"tryAggregate(bool,(address,bytes)[])":{"params":{"calls":"An array of Call structs","requireSuccess":"If true, require all calls to succeed"},"returns":{"returnData":"An array of Result structs"}},"tryBlockAndAggregate(bool,(address,bytes)[])":{"params":{"calls":"An array of Call structs"},"returns":{"blockHash":"The hash of the block where the calls were executed","blockNumber":"The block number where the calls were executed","returnData":"An array of Result structs"}}},"title":"Multicall3","version":1},"evm":{"bytecode":{"linkReferences":{},"object":"608060405234801561001057600080fd5b50610d35806100206000396000f3fe6080604052600436106100f35760003560e01c80634d2301cc1161008a578063a8b0574e11610059578063a8b0574e1461023c578063bce38bd714610257578063c3077fa91461026a578063ee82ac5e1461027d57600080fd5b80634d2301cc146101ce57806372425d9d1461020357806382ad56cb1461021657806386d516e81461022957600080fd5b80633408e470116100c65780633408e47014610173578063399542e9146101865780633e64a696146101a857806342cbb15c146101bb57600080fd5b80630f28c97d146100f8578063174dea711461011a578063252dba421461013a57806327e86d6e1461015b575b600080fd5b34801561010457600080fd5b50425b6040519081526020015b60405180910390f35b61012d6101283660046109e5565b61029c565b6040516101119190610adb565b61014d6101483660046109e5565b61049d565b604051610111929190610af5565b34801561016757600080fd5b50436000190140610107565b34801561017f57600080fd5b5046610107565b610199610194366004610b5f565b610624565b60405161011193929190610bb9565b3480156101b457600080fd5b5048610107565b3480156101c757600080fd5b5043610107565b3480156101da57600080fd5b506101076101e9366004610be1565b73ffffffffffffffffffffffffffffffffffffffff163190565b34801561020f57600080fd5b5044610107565b61012d6102243660046109e5565b61063f565b34801561023557600080fd5b5045610107565b34801561024857600080fd5b50604051418152602001610111565b61012d610265366004610b5f565b6107d4565b6101996102783660046109e5565b61097a565b34801561028957600080fd5b50610107610298366004610c17565b4090565b60606000828067ffffffffffffffff8111156102ba576102ba610c30565b60405190808252806020026020018201604052801561030057816020015b6040805180820190915260008152606060208201528152602001906001900390816102d85790505b5092503660005b8281101561043f57600085828151811061032357610323610c46565b6020026020010151905087878381811061033f5761033f610c46565b90506020028101906103519190610c5c565b60408101359586019590935061036a6020850185610be1565b73ffffffffffffffffffffffffffffffffffffffff168161038e6060870187610c7c565b60405161039c929190610cc3565b60006040518083038185875af1925050503d80600081146103d9576040519150601f19603f3d011682016040523d82523d6000602084013e6103de565b606091505b5060208085019190915290151580845290850135176104355762461bcd60e51b600052602060045260176024527f4d756c746963616c6c333a2063616c6c206661696c656400000000000000000060445260846000fd5b5050600101610307565b508234146104945760405162461bcd60e51b815260206004820152601a60248201527f4d756c746963616c6c333a2076616c7565206d69736d6174636800000000000060448201526064015b60405180910390fd5b50505092915050565b436060828067ffffffffffffffff8111156104ba576104ba610c30565b6040519080825280602002602001820160405280156104ed57816020015b60608152602001906001900390816104d85790505b5091503660005b8281101561061a57600087878381811061051057610510610c46565b90506020028101906105229190610cd3565b92506105316020840184610be1565b73ffffffffffffffffffffffffffffffffffffffff166105546020850185610c7c565b604051610562929190610cc3565b6000604051808303816000865af19150503d806000811461059f576040519150601f19603f3d011682016040523d82523d6000602084013e6105a4565b606091505b508684815181106105b7576105b7610c46565b60209081029190910101529050806106115760405162461bcd60e51b815260206004820152601760248201527f4d756c746963616c6c333a2063616c6c206661696c6564000000000000000000604482015260640161048b565b506001016104f4565b5050509250929050565b43804060606106348686866107d4565b905093509350939050565b6060818067ffffffffffffffff81111561065b5761065b610c30565b6040519080825280602002602001820160405280156106a157816020015b6040805180820190915260008152606060208201528152602001906001900390816106795790505b5091503660005b828110156104945760008482815181106106c4576106c4610c46565b602002602001015190508686838181106106e0576106e0610c46565b90506020028101906106f29190610ce9565b92506107016020840184610be1565b73ffffffffffffffffffffffffffffffffffffffff166107246040850185610c7c565b604051610732929190610cc3565b6000604051808303816000865af19150503d806000811461076f576040519150601f19603f3d011682016040523d82523d6000602084013e610774565b606091505b5060208084019190915290151580835290840135176107cb5762461bcd60e51b600052602060045260176024527f4d756c746963616c6c333a2063616c6c206661696c656400000000000000000060445260646000fd5b506001016106a8565b6060818067ffffffffffffffff8111156107f0576107f0610c30565b60405190808252806020026020018201604052801561083657816020015b60408051808201909152600081526060602082015281526020019060019003908161080e5790505b5091503660005b8281101561097057600084828151811061085957610859610c46565b6020026020010151905086868381811061087557610875610c46565b90506020028101906108879190610cd3565b92506108966020840184610be1565b73ffffffffffffffffffffffffffffffffffffffff166108b96020850185610c7c565b6040516108c7929190610cc3565b6000604051808303816000865af19150503d8060008114610904576040519150601f19603f3d011682016040523d82523d6000602084013e610909565b606091505b5060208301521515815287156109675780516109675760405162461bcd60e51b815260206004820152601760248201527f4d756c746963616c6c333a2063616c6c206661696c6564000000000000000000604482015260640161048b565b5060010161083d565b5050509392505050565b600080606061098b60018686610624565b919790965090945092505050565b60008083601f8401126109ab57600080fd5b50813567ffffffffffffffff8111156109c357600080fd5b6020830191508360208260051b85010111156109de57600080fd5b9250929050565b600080602083850312156109f857600080fd5b823567ffffffffffffffff811115610a0f57600080fd5b610a1b85828601610999565b90969095509350505050565b6000815180845260005b81811015610a4d57602081850181015186830182015201610a31565b506000602082860101526020601f19601f83011685010191505092915050565b600082825180855260208086019550808260051b84010181860160005b84811015610ace57858303601f1901895281518051151584528401516040858501819052610aba81860183610a27565b9a86019a9450505090830190600101610a8a565b5090979650505050505050565b602081526000610aee6020830184610a6d565b9392505050565b600060408201848352602060408185015281855180845260608601915060608160051b870101935082870160005b82811015610b5157605f19888703018452610b3f868351610a27565b95509284019290840190600101610b23565b509398975050505050505050565b600080600060408486031215610b7457600080fd5b83358015158114610b8457600080fd5b9250602084013567ffffffffffffffff811115610ba057600080fd5b610bac86828701610999565b9497909650939450505050565b838152826020820152606060408201526000610bd86060830184610a6d565b95945050505050565b600060208284031215610bf357600080fd5b813573ffffffffffffffffffffffffffffffffffffffff81168114610aee57600080fd5b600060208284031215610c2957600080fd5b5035919050565b634e487b7160e01b600052604160045260246000fd5b634e487b7160e01b600052603260045260246000fd5b60008235607e19833603018112610c7257600080fd5b9190910192915050565b6000808335601e19843603018112610c9357600080fd5b83018035915067ffffffffffffffff821115610cae57600080fd5b6020019150368190038213156109de57600080fd5b8183823760009101908152919050565b60008235603e19833603018112610c7257600080fd5b60008235605e19833603018112610c7257600080fdfea2646970667358221220544451d59d7fedfedcb1655f31ca9215e42f908be971f71d08f34c5b0f218be364736f6c63430008110033","opcodes":"PUSH1 0x80 PUSH1 0x40 MSTORE CALLVALUE DUP1 ISZERO PUSH2 0x10 JUMPI PUSH1 0x0 DUP1 REVERT JUMPDEST POP PUSH2 0xD35 DUP1 PUSH2 0x20 PUSH1 0x0 CODECOPY PUSH1 0x0 RETURN INVALID PUSH1 0x80 PUSH1 0x40 MSTORE PUSH1 0x4 CALLDATASIZE LT PUSH2 0xF3 JUMPI PUSH1 0x0 CALLDATALOAD PUSH1 0xE0 SHR DUP1 PUSH4 0x4D2301CC GT PUSH2 0x8A JUMPI DUP1 PUSH4 0xA8B0574E GT PUSH2 0x59 JUMPI DUP1 PUSH4 0xA8B0574E EQ PUSH2 0x23C JUMPI DUP1 PUSH4 0xBCE38BD7 EQ PUSH2 0x257 JUMPI DUP1 PUSH4 0xC3077FA9 EQ PUSH2 0x26A JUMPI DUP1 PUSH4 0xEE82AC5E EQ PUSH2 0x27D JUMPI PUSH1 0x0 DUP1 REVERT JUMPDEST DUP1 PUSH4 0x4D2301CC EQ PUSH2 0x1CE JUMPI DUP1 PUSH4 0x72425D9D EQ PUSH2 0x203 JUMPI DUP1 PUSH4 0x82AD56CB EQ PUSH2 0x216 JUMPI DUP1 PUSH4 0x86D516E8 EQ PUSH2 0x229 JUMPI PUSH1 0x0 DUP1 REVERT JUMPDEST DUP1 PUSH4 0x3408E470 GT PUSH2 0xC6 JUMPI DUP1 PUSH4 0x3408E470 EQ PUSH2 0x173 JUMPI DUP1 PUSH4 0x399542E9 EQ PUSH2 0x186 JUMPI DUP1 PUSH4 0x3E64A696 EQ PUSH2 0x1A8 JUMPI DUP1 PUSH4 0x42CBB15C EQ PUSH2 0x1BB JUMPI PUSH1 0x0 DUP1 REVERT JUMPDEST DUP1 PUSH4 0xF28C97D EQ PUSH2 0xF8 JUMPI DUP1 PUSH4 0x174DEA71 EQ PUSH2 0x11A JUMPI DUP1 PUSH4 0x252DBA42 EQ PUSH2 0x13A JUMPI DUP1 PUSH4 0x27E86D6E EQ PUSH2 0x15B JUMPI JUMPDEST PUSH1 0x0 DUP1 REVERT JUMPDEST CALLVALUE DUP1 ISZERO PUSH2 0x104 JUMPI PUSH1 0x0 DUP1 REVERT JUMPDEST POP TIMESTAMP JUMPDEST PUSH1 0x40 MLOAD SWAP1 DUP2 MSTORE PUSH1 0x20 ADD JUMPDEST PUSH1 0x40 MLOAD DUP1 SWAP2 SUB SWAP1 RETURN JUMPDEST PUSH2 0x12D PUSH2 0x128 CALLDATASIZE PUSH1 0x4 PUSH2 0x9E5 JUMP JUMPDEST PUSH2 0x29C JUMP JUMPDEST PUSH1 0x40 MLOAD PUSH2 0x111 SWAP2 SWAP1 PUSH2 0xADB JUMP JUMPDEST PUSH2 0x14D PUSH2 0x148 CALLDATASIZE PUSH1 0x4 PUSH2 0x9E5 JUMP JUMPDEST PUSH2 0x49D JUMP JUMPDEST PUSH1 0x40 MLOAD PUSH2 0x111 SWAP3 SWAP2 SWAP1 PUSH2 0xAF5 JUMP JUMPDEST CALLVALUE DUP1 ISZERO PUSH2 0x167 JUMPI PUSH1 0x0 DUP1 REVERT JUMPDEST POP NUMBER PUSH1 0x0 NOT ADD BLOCKHASH PUSH2 0x107 JUMP JUMPDEST CALLVALUE DUP1 ISZERO PUSH2 0x17F JUMPI PUSH1 0x0 DUP1 REVERT JUMPDEST POP CHAINID PUSH2 0x107 JUMP JUMPDEST PUSH2 0x199 PUSH2 0x194 CALLDATASIZE PUSH1 0x4 PUSH2 0xB5F JUMP JUMPDEST PUSH2 0x624 JUMP JUMPDEST PUSH1 0x40 MLOAD PUSH2 0x111 SWAP4 SWAP3 SWAP2 SWAP1 PUSH2 0xBB9 JUMP JUMPDEST CALLVALUE DUP1 ISZERO PUSH2 0x1B4 JUMPI PUSH1 0x0 DUP1 REVERT JUMPDEST POP BASEFEE PUSH2 0x107 JUMP JUMPDEST CALLVALUE DUP1 ISZERO PUSH2 0x1C7 JUMPI PUSH1 0x0 DUP1 REVERT JUMPDEST POP NUMBER PUSH2 0x107 JUMP JUMPDEST CALLVALUE DUP1 ISZERO PUSH2 0x1DA JUMPI PUSH1 0x0 DUP1 REVERT JUMPDEST POP PUSH2 0x107 PUSH2 0x1E9 CALLDATASIZE PUSH1 0x4 PUSH2 0xBE1 JUMP JUMPDEST PUSH20 0xFFFFFFFFFFFFFFFFFFFFFFFFFFFFFFFFFFFFFFFF AND BALANCE SWAP1 JUMP JUMPDEST CALLVALUE DUP1 ISZERO PUSH2 0x20F JUMPI PUSH1 0x0 DUP1 REVERT JUMPDEST POP DIFFICULTY PUSH2 0x107 JUMP JUMPDEST PUSH2 0x12D PUSH2 0x224 CALLDATASIZE PUSH1 0x4 PUSH2 0x9E5 JUMP JUMPDEST PUSH2 0x63F JUMP JUMPDEST CALLVALUE DUP1 ISZERO PUSH2 0x235 JUMPI PUSH1 0x0 DUP1 REVERT JUMPDEST POP GASLIMIT PUSH2 0x107 JUMP JUMPDEST CALLVALUE DUP1 ISZERO PUSH2 0x248 JUMPI PUSH1 0x0 DUP1 REVERT JUMPDEST POP PUSH1 0x40 MLOAD COINBASE DUP2 MSTORE PUSH1 0x20 ADD PUSH2 0x111 JUMP JUMPDEST PUSH2 0x12D PUSH2 0x265 CALLDATASIZE PUSH1 0x4 PUSH2 0xB5F JUMP JUMPDEST PUSH2 0x7D4 JUMP JUMPDEST PUSH2 0x199 PUSH2 0x278 CALLDATASIZE PUSH1 0x4 PUSH2 0x9E5 JUMP JUMPDEST PUSH2 0x97A JUMP JUMPDEST CALLVALUE DUP1 ISZERO PUSH2 0x289 JUMPI PUSH1 0x0 DUP1 REVERT JUMPDEST POP PUSH2 0x107 PUSH2 0x298 CALLDATASIZE PUSH1 0x4 PUSH2 0xC17 JUMP JUMPDEST BLOCKHASH SWAP1 JUMP JUMPDEST PUSH1 0x60 PUSH1 0x0 DUP3 DUP1 PUSH8 0xFFFFFFFFFFFFFFFF DUP2 GT ISZERO PUSH2 0x2BA JUMPI PUSH2 0x2BA PUSH2 0xC30 JUMP JUMPDEST PUSH1 0x40 MLOAD SWAP1 DUP1 DUP3 MSTORE DUP1 PUSH1 0x20 MUL PUSH1 0x20 ADD DUP3 ADD PUSH1 0x40 MSTORE DUP1 ISZERO PUSH2 0x300 JUMPI DUP2 PUSH1 0x20 ADD JUMPDEST PUSH1 0x40 DUP1 MLOAD DUP1 DUP3 ADD SWAP1 SWAP2 MSTORE PUSH1 0x0 DUP2 MSTORE PUSH1 0x60 PUSH1 0x20 DUP3 ADD MSTORE DUP2 MSTORE PUSH1 0x20 ADD SWAP1 PUSH1 0x1 SWAP1 SUB SWAP1 DUP2 PUSH2 0x2D8 JUMPI SWAP1 POP JUMPDEST POP SWAP3 POP CALLDATASIZE PUSH1 0x0 JUMPDEST DUP3 DUP2 LT ISZERO PUSH2 0x43F JUMPI PUSH1 0x0 DUP6 DUP3 DUP2 MLOAD DUP2 LT PUSH2 0x323 JUMPI PUSH2 0x323 PUSH2 0xC46 JUMP JUMPDEST PUSH1 0x20 MUL PUSH1 0x20 ADD ADD MLOAD SWAP1 POP DUP8 DUP8 DUP4 DUP2 DUP2 LT PUSH2 0x33F JUMPI PUSH2 0x33F PUSH2 0xC46 JUMP JUMPDEST SWAP1 POP PUSH1 0x20 MUL DUP2 ADD SWAP1 PUSH2 0x351 SWAP2 SWAP1 PUSH2 0xC5C JUMP JUMPDEST PUSH1 0x40 DUP2 ADD CALLDATALOAD SWAP6 DUP7 ADD SWAP6 SWAP1 SWAP4 POP PUSH2 0x36A PUSH1 0x20 DUP6 ADD DUP6 PUSH2 0xBE1 JUMP JUMPDEST PUSH20 0xFFFFFFFFFFFFFFFFFFFFFFFFFFFFFFFFFFFFFFFF AND DUP2 PUSH2 0x38E PUSH1 0x60 DUP8 ADD DUP8 PUSH2 0xC7C JUMP JUMPDEST PUSH1 0x40 MLOAD PUSH2 0x39C SWAP3 SWAP2 SWAP1 PUSH2 0xCC3 JUMP JUMPDEST PUSH1 0x0 PUSH1 0x40 MLOAD DUP1 DUP4 SUB DUP2 DUP6 DUP8 GAS CALL SWAP3 POP POP POP RETURNDATASIZE DUP1 PUSH1 0x0 DUP2 EQ PUSH2 0x3D9 JUMPI PUSH1 0x40 MLOAD SWAP2 POP PUSH1 0x1F NOT PUSH1 0x3F RETURNDATASIZE ADD AND DUP3 ADD PUSH1 0x40 MSTORE RETURNDATASIZE DUP3 MSTORE RETURNDATASIZE PUSH1 0x0 PUSH1 0x20 DUP5 ADD RETURNDATACOPY PUSH2 0x3DE JUMP JUMPDEST PUSH1 0x60 SWAP2 POP JUMPDEST POP PUSH1 0x20 DUP1 DUP6 ADD SWAP2 SWAP1 SWAP2 MSTORE SWAP1 ISZERO ISZERO DUP1 DUP5 MSTORE SWAP1 DUP6 ADD CALLDATALOAD OR PUSH2 0x435 JUMPI PUSH3 0x461BCD PUSH1 0xE5 SHL PUSH1 0x0 MSTORE PUSH1 0x20 PUSH1 0x4 MSTORE PUSH1 0x17 PUSH1 0x24 MSTORE PUSH32 0x4D756C746963616C6C333A2063616C6C206661696C6564000000000000000000 PUSH1 0x44 MSTORE PUSH1 0x84 PUSH1 0x0 REVERT JUMPDEST POP POP PUSH1 0x1 ADD PUSH2 0x307 JUMP JUMPDEST POP DUP3 CALLVALUE EQ PUSH2 0x494 JUMPI PUSH1 0x40 MLOAD PUSH3 0x461BCD PUSH1 0xE5 SHL DUP2 MSTORE PUSH1 0x20 PUSH1 0x4 DUP3 ADD MSTORE PUSH1 0x1A PUSH1 0x24 DUP3 ADD MSTORE PUSH32 0x4D756C746963616C6C333A2076616C7565206D69736D61746368000000000000 PUSH1 0x44 DUP3 ADD MSTORE PUSH1 0x64 ADD JUMPDEST PUSH1 0x40 MLOAD DUP1 SWAP2 SUB SWAP1 REVERT JUMPDEST POP POP POP SWAP3 SWAP2 POP POP JUMP JUMPDEST NUMBER PUSH1 0x60 DUP3 DUP1 PUSH8 0xFFFFFFFFFFFFFFFF DUP2 GT ISZERO PUSH2 0x4BA JUMPI PUSH2 0x4BA PUSH2 0xC30 JUMP JUMPDEST PUSH1 0x40 MLOAD SWAP1 DUP1 DUP3 MSTORE DUP1 PUSH1 0x20 MUL PUSH1 0x20 ADD DUP3 ADD PUSH1 0x40 MSTORE DUP1 ISZERO PUSH2 0x4ED JUMPI DUP2 PUSH1 0x20 ADD JUMPDEST PUSH1 0x60 DUP2 MSTORE PUSH1 0x20 ADD SWAP1 PUSH1 0x1 SWAP1 SUB SWAP1 DUP2 PUSH2 0x4D8 JUMPI SWAP1 POP JUMPDEST POP SWAP2 POP CALLDATASIZE PUSH1 0x0 JUMPDEST DUP3 DUP2 LT ISZERO PUSH2 0x61A JUMPI PUSH1 0x0 DUP8 DUP8 DUP4 DUP2 DUP2 LT PUSH2 0x510 JUMPI PUSH2 0x510 PUSH2 0xC46 JUMP JUMPDEST SWAP1 POP PUSH1 0x20 MUL DUP2 ADD SWAP1 PUSH2 0x522 SWAP2 SWAP1 PUSH2 0xCD3 JUMP JUMPDEST SWAP3 POP PUSH2 0x531 PUSH1 0x20 DUP5 ADD DUP5 PUSH2 0xBE1 JUMP JUMPDEST PUSH20 0xFFFFFFFFFFFFFFFFFFFFFFFFFFFFFFFFFFFFFFFF AND PUSH2 0x554 PUSH1 0x20 DUP6 ADD DUP6 PUSH2 0xC7C JUMP JUMPDEST PUSH1 0x40 MLOAD PUSH2 0x562 SWAP3 SWAP2 SWAP1 PUSH2 0xCC3 JUMP JUMPDEST PUSH1 0x0 PUSH1 0x40 MLOAD DUP1 DUP4 SUB DUP2 PUSH1 0x0 DUP7 GAS CALL SWAP2 POP POP RETURNDATASIZE DUP1 PUSH1 0x0 DUP2 EQ PUSH2 0x59F JUMPI PUSH1 0x40 MLOAD SWAP2 POP PUSH1 0x1F NOT PUSH1 0x3F RETURNDATASIZE ADD AND DUP3 ADD PUSH1 0x40 MSTORE RETURNDATASIZE DUP3 MSTORE RETURNDATASIZE PUSH1 0x0 PUSH1 0x20 DUP5 ADD RETURNDATACOPY PUSH2 0x5A4 JUMP JUMPDEST PUSH1 0x60 SWAP2 POP JUMPDEST POP DUP7 DUP5 DUP2 MLOAD DUP2 LT PUSH2 0x5B7 JUMPI PUSH2 0x5B7 PUSH2 0xC46 JUMP JUMPDEST PUSH1 0x20 SWAP1 DUP2 MUL SWAP2 SWAP1 SWAP2 ADD ADD MSTORE SWAP1 POP DUP1 PUSH2 0x611 JUMPI PUSH1 0x40 MLOAD PUSH3 0x461BCD PUSH1 0xE5 SHL DUP2 MSTORE PUSH1 0x20 PUSH1 0x4 DUP3 ADD MSTORE PUSH1 0x17 PUSH1 0x24 DUP3 ADD MSTORE PUSH32 0x4D756C746963616C6C333A2063616C6C206661696C6564000000000000000000 PUSH1 0x44 DUP3 ADD MSTORE PUSH1 0x64 ADD PUSH2 0x48B JUMP JUMPDEST POP PUSH1 0x1 ADD PUSH2 0x4F4 JUMP JUMPDEST POP POP POP SWAP3 POP SWAP3 SWAP1 POP JUMP JUMPDEST NUMBER DUP1 BLOCKHASH PUSH1 0x60 PUSH2 0x634 DUP7 DUP7 DUP7 PUSH2 0x7D4 JUMP JUMPDEST SWAP1 POP SWAP4 POP SWAP4 POP SWAP4 SWAP1 POP JUMP JUMPDEST PUSH1 0x60 DUP2 DUP1 PUSH8 0xFFFFFFFFFFFFFFFF DUP2 GT ISZERO PUSH2 0x65B JUMPI PUSH2 0x65B PUSH2 0xC30 JUMP JUMPDEST PUSH1 0x40 MLOAD SWAP1 DUP1 DUP3 MSTORE DUP1 PUSH1 0x20 MUL PUSH1 0x20 ADD DUP3 ADD PUSH1 0x40 MSTORE DUP1 ISZERO PUSH2 0x6A1 JUMPI DUP2 PUSH1 0x20 ADD JUMPDEST PUSH1 0x40 DUP1 MLOAD DUP1 DUP3 ADD SWAP1 SWAP2 MSTORE PUSH1 0x0 DUP2 MSTORE PUSH1 0x60 PUSH1 0x20 DUP3 ADD MSTORE DUP2 MSTORE PUSH1 0x20 ADD SWAP1 PUSH1 0x1 SWAP1 SUB SWAP1 DUP2 PUSH2 0x679 JUMPI SWAP1 POP JUMPDEST POP SWAP2 POP CALLDATASIZE PUSH1 0x0 JUMPDEST DUP3 DUP2 LT ISZERO PUSH2 0x494 JUMPI PUSH1 0x0 DUP5 DUP3 DUP2 MLOAD DUP2 LT PUSH2 0x6C4 JUMPI PUSH2 0x6C4 PUSH2 0xC46 JUMP JUMPDEST PUSH1 0x20 MUL PUSH1 0x20 ADD ADD MLOAD SWAP1 POP DUP7 DUP7 DUP4 DUP2 DUP2 LT PUSH2 0x6E0 JUMPI PUSH2 0x6E0 PUSH2 0xC46 JUMP JUMPDEST SWAP1 POP PUSH1 0x20 MUL DUP2 ADD SWAP1 PUSH2 0x6F2 SWAP2 SWAP1 PUSH2 0xCE9 JUMP JUMPDEST SWAP3 POP PUSH2 0x701 PUSH1 0x20 DUP5 ADD DUP5 PUSH2 0xBE1 JUMP JUMPDEST PUSH20 0xFFFFFFFFFFFFFFFFFFFFFFFFFFFFFFFFFFFFFFFF AND PUSH2 0x724 PUSH1 0x40 DUP6 ADD DUP6 PUSH2 0xC7C JUMP JUMPDEST PUSH1 0x40 MLOAD PUSH2 0x732 SWAP3 SWAP2 SWAP1 PUSH2 0xCC3 JUMP JUMPDEST PUSH1 0x0 PUSH1 0x40 MLOAD DUP1 DUP4 SUB DUP2 PUSH1 0x0 DUP7 GAS CALL SWAP2 POP POP RETURNDATASIZE DUP1 PUSH1 0x0 DUP2 EQ PUSH2 0x76F JUMPI PUSH1 0x40 MLOAD SWAP2 POP PUSH1 0x1F NOT PUSH1 0x3F RETURNDATASIZE ADD AND DUP3 ADD PUSH1 0x40 MSTORE RETURNDATASIZE DUP3 MSTORE RETURNDATASIZE PUSH1 0x0 PUSH1 0x20 DUP5 ADD RETURNDATACOPY PUSH2 0x774 JUMP JUMPDEST PUSH1 0x60 SWAP2 POP JUMPDEST POP PUSH1 0x20 DUP1 DUP5 ADD SWAP2 SWAP1 SWAP2 MSTORE SWAP1 ISZERO ISZERO DUP1 DUP4 MSTORE SWAP1 DUP5 ADD CALLDATALOAD OR PUSH2 0x7CB JUMPI PUSH3 0x461BCD PUSH1 0xE5 SHL PUSH1 0x0 MSTORE PUSH1 0x20 PUSH1 0x4 MSTORE PUSH1 0x17 PUSH1 0x24 MSTORE PUSH32 0x4D756C746963616C6C333A2063616C6C206661696C6564000000000000000000 PUSH1 0x44 MSTORE PUSH1 0x64 PUSH1 0x0 REVERT JUMPDEST POP PUSH1 0x1 ADD PUSH2 0x6A8 JUMP JUMPDEST PUSH1 0x60 DUP2 DUP1 PUSH8 0xFFFFFFFFFFFFFFFF DUP2 GT ISZERO PUSH2 0x7F0 JUMPI PUSH2 0x7F0 PUSH2 0xC30 JUMP JUMPDEST PUSH1 0x40 MLOAD SWAP1 DUP1 DUP3 MSTORE DUP1 PUSH1 0x20 MUL PUSH1 0x20 ADD DUP3 ADD PUSH1 0x40 MSTORE DUP1 ISZERO PUSH2 0x836 JUMPI DUP2 PUSH1 0x20 ADD JUMPDEST PUSH1 0x40 DUP1 MLOAD DUP1 DUP3 ADD SWAP1 SWAP2 MSTORE PUSH1 0x0 DUP2 MSTORE PUSH1 0x60 PUSH1 0x20 DUP3 ADD MSTORE DUP2 MSTORE PUSH1 0x20 ADD SWAP1 PUSH1 0x1 SWAP1 SUB SWAP1 DUP2 PUSH2 0x80E JUMPI SWAP1 POP JUMPDEST POP SWAP2 POP CALLDATASIZE PUSH1 0x0 JUMPDEST DUP3 DUP2 LT ISZERO PUSH2 0x970 JUMPI PUSH1 0x0 DUP5 DUP3 DUP2 MLOAD DUP2 LT PUSH2 0x859 JUMPI PUSH2 0x859 PUSH2 0xC46 JUMP JUMPDEST PUSH1 0x20 MUL PUSH1 0x20 ADD ADD MLOAD SWAP1 POP DUP7 DUP7 DUP4 DUP2 DUP2 LT PUSH2 0x875 JUMPI PUSH2 0x875 PUSH2 0xC46 JUMP JUMPDEST SWAP1 POP PUSH1 0x20 MUL DUP2 ADD SWAP1 PUSH2 0x887 SWAP2 SWAP1 PUSH2 0xCD3 JUMP JUMPDEST SWAP3 POP PUSH2 0x896 PUSH1 0x20 DUP5 ADD DUP5 PUSH2 0xBE1 JUMP JUMPDEST PUSH20 0xFFFFFFFFFFFFFFFFFFFFFFFFFFFFFFFFFFFFFFFF AND PUSH2 0x8B9 PUSH1 0x20 DUP6 ADD DUP6 PUSH2 0xC7C JUMP JUMPDEST PUSH1 0x40 MLOAD PUSH2 0x8C7 SWAP3 SWAP2 SWAP1 PUSH2 0xCC3 JUMP JUMPDEST PUSH1 0x0 PUSH1 0x40 MLOAD DUP1 DUP4 SUB DUP2 PUSH1 0x0 DUP7 GAS CALL SWAP2 POP POP RETURNDATASIZE DUP1 PUSH1 0x0 DUP2 EQ PUSH2 0x904 JUMPI PUSH1 0x40 MLOAD SWAP2 POP PUSH1 0x1F NOT PUSH1 0x3F RETURNDATASIZE ADD AND DUP3 ADD PUSH1 0x40 MSTORE RETURNDATASIZE DUP3 MSTORE RETURNDATASIZE PUSH1 0x0 PUSH1 0x20 DUP5 ADD RETURNDATACOPY PUSH2 0x909 JUMP JUMPDEST PUSH1 0x60 SWAP2 POP JUMPDEST POP PUSH1 0x20 DUP4 ADD MSTORE ISZERO ISZERO DUP2 MSTORE DUP8 ISZERO PUSH2 0x967 JUMPI DUP1 MLOAD PUSH2 0x967 JUMPI PUSH1 0x40 MLOAD PUSH3 0x461BCD PUSH1 0xE5 SHL DUP2 MSTORE PUSH1 0x20 PUSH1 0x4 DUP3 ADD MSTORE PUSH1 0x17 PUSH1 0x24 DUP3 ADD MSTORE PUSH32 0x4D756C746963616C6C333A2063616C6C206661696C6564000000000000000000 PUSH1 0x44 DUP3 ADD MSTORE PUSH1 0x64 ADD PUSH2 0x48B JUMP JUMPDEST POP PUSH1 0x1 ADD PUSH2 0x83D JUMP JUMPDEST POP POP POP SWAP4 SWAP3 POP POP POP JUMP JUMPDEST PUSH1 0x0 DUP1 PUSH1 0x60 PUSH2 0x98B PUSH1 0x1 DUP7 DUP7 PUSH2 0x624 JUMP JUMPDEST SWAP2 SWAP8 SWAP1 SWAP7 POP SWAP1 SWAP5 POP SWAP3 POP POP POP JUMP JUMPDEST PUSH1 0x0 DUP1 DUP4 PUSH1 0x1F DUP5 ADD SLT PUSH2 0x9AB JUMPI PUSH1 0x0 DUP1 REVERT JUMPDEST POP DUP2 CALLDATALOAD PUSH8 0xFFFFFFFFFFFFFFFF DUP2 GT ISZERO PUSH2 0x9C3 JUMPI PUSH1 0x0 DUP1 REVERT JUMPDEST PUSH1 0x20 DUP4 ADD SWAP2 POP DUP4 PUSH1 0x20 DUP3 PUSH1 0x5 SHL DUP6 ADD ADD GT ISZERO PUSH2 0x9DE JUMPI PUSH1 0x0 DUP1 REVERT JUMPDEST SWAP3 POP SWAP3 SWAP1 POP JUMP JUMPDEST PUSH1 0x0 DUP1 PUSH1 0x20 DUP4 DUP6 SUB SLT ISZERO PUSH2 0x9F8 JUMPI PUSH1 0x0 DUP1 REVERT JUMPDEST DUP3 CALLDATALOAD PUSH8 0xFFFFFFFFFFFFFFFF DUP2 GT ISZERO PUSH2 0xA0F JUMPI PUSH1 0x0 DUP1 REVERT JUMPDEST PUSH2 0xA1B DUP6 DUP3 DUP7 ADD PUSH2 0x999 JUMP JUMPDEST SWAP1 SWAP7 SWAP1 SWAP6 POP SWAP4 POP POP POP POP JUMP JUMPDEST PUSH1 0x0 DUP2 MLOAD DUP1 DUP5 MSTORE PUSH1 0x0 JUMPDEST DUP2 DUP2 LT ISZERO PUSH2 0xA4D JUMPI PUSH1 0x20 DUP2 DUP6 ADD DUP2 ADD MLOAD DUP7 DUP4 ADD DUP3 ADD MSTORE ADD PUSH2 0xA31 JUMP JUMPDEST POP PUSH1 0x0 PUSH1 0x20 DUP3 DUP7 ADD ADD MSTORE PUSH1 0x20 PUSH1 0x1F NOT PUSH1 0x1F DUP4 ADD AND DUP6 ADD ADD SWAP2 POP POP SWAP3 SWAP2 POP POP JUMP JUMPDEST PUSH1 0x0 DUP3 DUP3 MLOAD DUP1 DUP6 MSTORE PUSH1 0x20 DUP1 DUP7 ADD SWAP6 POP DUP1 DUP3 PUSH1 0x5 SHL DUP5 ADD ADD DUP2 DUP7 ADD PUSH1 0x0 JUMPDEST DUP5 DUP2 LT ISZERO PUSH2 0xACE JUMPI DUP6 DUP4 SUB PUSH1 0x1F NOT ADD DUP10 MSTORE DUP2 MLOAD DUP1 MLOAD ISZERO ISZERO DUP5 MSTORE DUP5 ADD MLOAD PUSH1 0x40 DUP6 DUP6 ADD DUP2 SWAP1 MSTORE PUSH2 0xABA DUP2 DUP7 ADD DUP4 PUSH2 0xA27 JUMP JUMPDEST SWAP11 DUP7 ADD SWAP11 SWAP5 POP POP POP SWAP1 DUP4 ADD SWAP1 PUSH1 0x1 ADD PUSH2 0xA8A JUMP JUMPDEST POP SWAP1 SWAP8 SWAP7 POP POP POP POP POP POP POP JUMP JUMPDEST PUSH1 0x20 DUP2 MSTORE PUSH1 0x0 PUSH2 0xAEE PUSH1 0x20 DUP4 ADD DUP5 PUSH2 0xA6D JUMP JUMPDEST SWAP4 SWAP3 POP POP POP JUMP JUMPDEST PUSH1 0x0 PUSH1 0x40 DUP3 ADD DUP5 DUP4 MSTORE PUSH1 0x20 PUSH1 0x40 DUP2 DUP6 ADD MSTORE DUP2 DUP6 MLOAD DUP1 DUP5 MSTORE PUSH1 0x60 DUP7 ADD SWAP2 POP PUSH1 0x60 DUP2 PUSH1 0x5 SHL DUP8 ADD ADD SWAP4 POP DUP3 DUP8 ADD PUSH1 0x0 JUMPDEST DUP3 DUP2 LT ISZERO PUSH2 0xB51 JUMPI PUSH1 0x5F NOT DUP9 DUP8 SUB ADD DUP5 MSTORE PUSH2 0xB3F DUP7 DUP4 MLOAD PUSH2 0xA27 JUMP JUMPDEST SWAP6 POP SWAP3 DUP5 ADD SWAP3 SWAP1 DUP5 ADD SWAP1 PUSH1 0x1 ADD PUSH2 0xB23 JUMP JUMPDEST POP SWAP4 SWAP9 SWAP8 POP POP POP POP POP POP POP POP JUMP JUMPDEST PUSH1 0x0 DUP1 PUSH1 0x0 PUSH1 0x40 DUP5 DUP7 SUB SLT ISZERO PUSH2 0xB74 JUMPI PUSH1 0x0 DUP1 REVERT JUMPDEST DUP4 CALLDATALOAD DUP1 ISZERO ISZERO DUP2 EQ PUSH2 0xB84 JUMPI PUSH1 0x0 DUP1 REVERT JUMPDEST SWAP3 POP PUSH1 0x20 DUP5 ADD CALLDATALOAD PUSH8 0xFFFFFFFFFFFFFFFF DUP2 GT ISZERO PUSH2 0xBA0 JUMPI PUSH1 0x0 DUP1 REVERT JUMPDEST PUSH2 0xBAC DUP7 DUP3 DUP8 ADD PUSH2 0x999 JUMP JUMPDEST SWAP5 SWAP8 SWAP1 SWAP7 POP SWAP4 SWAP5 POP POP POP POP JUMP JUMPDEST DUP4 DUP2 MSTORE DUP3 PUSH1 0x20 DUP3 ADD MSTORE PUSH1 0x60 PUSH1 0x40 DUP3 ADD MSTORE PUSH1 0x0 PUSH2 0xBD8 PUSH1 0x60 DUP4 ADD DUP5 PUSH2 0xA6D JUMP JUMPDEST SWAP6 SWAP5 POP POP POP POP POP JUMP JUMPDEST PUSH1 0x0 PUSH1 0x20 DUP3 DUP5 SUB SLT ISZERO PUSH2 0xBF3 JUMPI PUSH1 0x0 DUP1 REVERT JUMPDEST DUP2 CALLDATALOAD PUSH20 0xFFFFFFFFFFFFFFFFFFFFFFFFFFFFFFFFFFFFFFFF DUP2 AND DUP2 EQ PUSH2 0xAEE JUMPI PUSH1 0x0 DUP1 REVERT JUMPDEST PUSH1 0x0 PUSH1 0x20 DUP3 DUP5 SUB SLT ISZERO PUSH2 0xC29 JUMPI PUSH1 0x0 DUP1 REVERT JUMPDEST POP CALLDATALOAD SWAP2 SWAP1 POP JUMP JUMPDEST PUSH4 0x4E487B71 PUSH1 0xE0 SHL PUSH1 0x0 MSTORE PUSH1 0x41 PUSH1 0x4 MSTORE PUSH1 0x24 PUSH1 0x0 REVERT JUMPDEST PUSH4 0x4E487B71 PUSH1 0xE0 SHL PUSH1 0x0 MSTORE PUSH1 0x32 PUSH1 0x4 MSTORE PUSH1 0x24 PUSH1 0x0 REVERT JUMPDEST PUSH1 0x0 DUP3 CALLDATALOAD PUSH1 0x7E NOT DUP4 CALLDATASIZE SUB ADD DUP2 SLT PUSH2 0xC72 JUMPI PUSH1 0x0 DUP1 REVERT JUMPDEST SWAP2 SWAP1 SWAP2 ADD SWAP3 SWAP2 POP POP JUMP JUMPDEST PUSH1 0x0 DUP1 DUP4 CALLDATALOAD PUSH1 0x1E NOT DUP5 CALLDATASIZE SUB ADD DUP2 SLT PUSH2 0xC93 JUMPI PUSH1 0x0 DUP1 REVERT JUMPDEST DUP4 ADD DUP1 CALLDATALOAD SWAP2 POP PUSH8 0xFFFFFFFFFFFFFFFF DUP3 GT ISZERO PUSH2 0xCAE JUMPI PUSH1 0x0 DUP1 REVERT JUMPDEST PUSH1 0x20 ADD SWAP2 POP CALLDATASIZE DUP2 SWAP1 SUB DUP3 SGT ISZERO PUSH2 0x9DE JUMPI PUSH1 0x0 DUP1 REVERT JUMPDEST DUP2 DUP4 DUP3 CALLDATACOPY PUSH1 0x0 SWAP2 ADD SWAP1 DUP2 MSTORE SWAP2 SWAP1 POP JUMP JUMPDEST PUSH1 0x0 DUP3 CALLDATALOAD PUSH1 0x3E NOT DUP4 CALLDATASIZE SUB ADD DUP2 SLT PUSH2 0xC72 JUMPI PUSH1 0x0 DUP1 REVERT JUMPDEST PUSH1 0x0 DUP3 CALLDATALOAD PUSH1 0x5E NOT DUP4 CALLDATASIZE SUB ADD DUP2 SLT PUSH2 0xC72 JUMPI PUSH1 0x0 DUP1 REVERT INVALID LOG2 PUSH5 0x6970667358 0x22 SLT KECCAK256 SLOAD DIFFICULTY MLOAD 0xD5 SWAP14 PUSH32 0xEDFEDCB1655F31CA9215E42F908BE971F71D08F34C5B0F218BE364736F6C6343 STOP ADDMOD GT STOP CALLER "},"gasEstimates":{"creation":{"codeDepositCost":"676200","executionCost":"708","totalCost":"676908"},"external":{"aggregate((address,bytes)[])":"infinite","aggregate3((address,bool,bytes)[])":"infinite","aggregate3Value((address,bool,uint256,bytes)[])":"infinite","blockAndAggregate((address,bytes)[])":"infinite","getBasefee()":"247","getBlockHash(uint256)":"366","getBlockNumber()":"269","getChainId()":"203","getCurrentBlockCoinbase()":"198","getCurrentBlockDifficulty()":"225","getCurrentBlockGasLimit()":"269","getCurrentBlockTimestamp()":"193","getEthBalance(address)":"2921","getLastBlockHash()":"299","tryAggregate(bool,(address,bytes)[])":"infinite","tryBlockAndAggregate(bool,(address,bytes)[])":"infinite"}},"methodIdentifiers":{"aggregate((address,bytes)[])":"252dba42","aggregate3((address,bool,bytes)[])":"82ad56cb","aggregate3Value((address,bool,uint256,bytes)[])":"174dea71","blockAndAggregate((address,bytes)[])":"c3077fa9","getBasefee()":"3e64a696","getBlockHash(uint256)":"ee82ac5e","getBlockNumber()":"42cbb15c","getChainId()":"3408e470","getCurrentBlockCoinbase()":"a8b0574e","getCurrentBlockDifficulty()":"72425d9d","getCurrentBlockGasLimit()":"86d516e8","getCurrentBlockTimestamp()":"0f28c97d","getEthBalance(address)":"4d2301cc","getLastBlockHash()":"27e86d6e","tryAggregate(bool,(address,bytes)[])":"bce38bd7","tryBlockAndAggregate(bool,(address,bytes)[])":"399542e9"}},"storageLayout":{"storage":[],"types":null},"userdoc":{"kind":"user","methods":{"aggregate((address,bytes)[])":{"notice":"Backwards-compatible call aggregation with Multicall"},"aggregate3((address,bool,bytes)[])":{"notice":"Aggregate calls, ensuring each returns success if required"},"aggregate3Value((address,bool,uint256,bytes)[])":{"notice":"Aggregate calls with a msg valueReverts if msg.value is less than the sum of the call values"},"blockAndAggregate((address,bytes)[])":{"notice":"Backwards-compatible with Multicall2Aggregate calls and allow failures using tryAggregate"},"getBasefee()":{"notice":"Gets the base fee of the given blockCan revert if the BASEFEE opcode is not implemented by the given chain"},"getBlockHash(uint256)":{"notice":"Returns the block hash for the given block number"},"getBlockNumber()":{"notice":"Returns the block number"},"getChainId()":{"notice":"Returns the chain id"},"getCurrentBlockCoinbase()":{"notice":"Returns the block coinbase"},"getCurrentBlockDifficulty()":{"notice":"Returns the block difficulty"},"getCurrentBlockGasLimit()":{"notice":"Returns the block gas limit"},"getCurrentBlockTimestamp()":{"notice":"Returns the block timestamp"},"getEthBalance(address)":{"notice":"Returns the (ETH) balance of a given address"},"getLastBlockHash()":{"notice":"Returns the block hash of the last block"},"tryAggregate(bool,(address,bytes)[])":{"notice":"Backwards-compatible with Multicall2Aggregate calls without requiring success"},"tryBlockAndAggregate(bool,(address,bytes)[])":{"notice":"Backwards-compatible with Multicall2Aggregate calls and allow failures using tryAggregate"}},"notice":"Aggregate results from multiple function calls","version":1}}}}