{
  "_format": "hh-sol-artifact-1",
  "contractName": "Ownable",
  "sourceName": "contracts/root/Ownable.sol",
  "abi": [
    {
      "inputs": [
        {
          "internalType": "address",
          "name": "_owner",
          "type": "address"
        }
      ],
      "stateMutability": "nonpayable",
      "type": "constructor"
    },
    {
      "inputs": [],
      "name": "InvalidOperatorSignature",
      "type": "error"
    },
    {
      "anonymous": false,
      "inputs": [
        {
          "indexed": true,
          "internalType": "address",
          "name": "previousOwner",
          "type": "address"
        },
        {
          "indexed": true,
          "internalType": "address",
          "name": "newOwner",
          "type": "address"
        }
      ],
      "name": "OwnershipTransferred",
      "type": "event"
    },
    {
      "inputs": [],
      "name": "currentNonce",
      "outputs": [
        {
          "internalType": "uint256",
          "name": "",
          "type": "uint256"
        }
      ],
      "stateMutability": "view",
      "type": "function"
    },
    {
      "inputs": [
        {
          "internalType": "address",
          "name": "addr",
          "type": "address"
        }
      ],
      "name": "isOwner",
      "outputs": [
        {
          "internalType": "bool",
          "name": "",
          "type": "bool"
        }
      ],
      "stateMutability": "view",
      "type": "function"
    },
    {
      "inputs": [],
      "name": "owner",
      "outputs": [
        {
          "internalType": "address",
          "name": "",
          "type": "address"
        }
      ],
      "stateMutability": "view",
      "type": "function"
    },
    {
      "inputs": [
        {
          "internalType": "address",
          "name": "newOwner",
          "type": "address"
        },
        {
          "internalType": "bytes",
          "name": "signature",
          "type": "bytes"
        }
      ],
      "name": "transferOwnership",
      "outputs": [],
      "stateMutability": "nonpayable",
      "type": "function"
    }
  ],
  "bytecode": "0x608060405234801561001057600080fd5b506040516107fb3803806107fb83398101604081905261002f91610054565b600080546001600160a01b0319166001600160a01b0392909216919091179055610084565b60006020828403121561006657600080fd5b81516001600160a01b038116811461007d57600080fd5b9392505050565b610768806100936000396000f3fe608060405234801561001057600080fd5b506004361061004c5760003560e01c80632f54bf6e146100515780638c90821f146100885780638da5cb5b1461009d578063adb610a3146100c8575b600080fd5b61007361005f36600461056f565b6000546001600160a01b0390811691161490565b60405190151581526020015b60405180910390f35b61009b6100963660046105a0565b6100df565b005b6000546100b0906001600160a01b031681565b6040516001600160a01b03909116815260200161007f565b6100d160015481565b60405190815260200161007f565b6040516bffffffffffffffffffffffff19606084901b166020820152610140907f1d4a390f291e2e1f29874769efdef47ddad94d76f77ff516fad206a385e8995f9060340160405160208183030381529060405280519060200120836101ea565b610176576040517f4c2d491200000000000000000000000000000000000000000000000000000000815260040160405180910390fd5b600080546040516001600160a01b03808616939216917f8be0079c531659141344cd1fd0a4f28419497f9722a3daafe3b4186f6b6457e091a350600080547fffffffffffffffffffffffff0000000000000000000000000000000000000000166001600160a01b0392909216919091179055565b60008054600180546102b8926001600160a01b0316917f190000000000000000000000000000000000000000000000000000000000000091859130918a918461023283610662565b909155506040517fff0000000000000000000000000000000000000000000000000000000000000095861660208201529490931660218501526bffffffffffffffffffffffff1960609290921b919091166022840152603683015260568201526076810186905260960160405160208183030381529060405280519060200120846102c2565b90505b9392505050565b60008060006102d1858561044a565b909250905060008160048111156102ea576102ea610689565b1480156103085750856001600160a01b0316826001600160a01b0316145b15610318576001925050506102bb565b600080876001600160a01b0316631626ba7e60e01b88886040516024016103409291906106c3565b60408051601f198184030181529181526020820180517bffffffffffffffffffffffffffffffffffffffffffffffffffffffff167fffffffff000000000000000000000000000000000000000000000000000000009094169390931790925290516103ab91906106fd565b600060405180830381855afa9150503d80600081146103e6576040519150601f19603f3d011682016040523d82523d6000602084013e6103eb565b606091505b50915091508180156103fe575080516020145b801561043e575080517f1626ba7e000000000000000000000000000000000000000000000000000000009061043c9083016020908101908401610719565b145b98975050505050505050565b60008082516041036104805760208301516040840151606085015160001a6104748782858561048f565b94509450505050610488565b506000905060025b9250929050565b6000807f7fffffffffffffffffffffffffffffff5d576e7357a4501ddfe92f46681b20a08311156104c6575060009050600361054a565b6040805160008082526020820180845289905260ff881692820192909252606081018690526080810185905260019060a0016020604051602081039080840390855afa15801561051a573d6000803e3d6000fd5b5050604051601f1901519150506001600160a01b0381166105435760006001925092505061054a565b9150600090505b94509492505050565b80356001600160a01b038116811461056a57600080fd5b919050565b60006020828403121561058157600080fd5b6102bb82610553565b634e487b7160e01b600052604160045260246000fd5b600080604083850312156105b357600080fd5b6105bc83610553565b9150602083013567ffffffffffffffff808211156105d957600080fd5b818501915085601f8301126105ed57600080fd5b8135818111156105ff576105ff61058a565b604051601f8201601f19908116603f011681019083821181831017156106275761062761058a565b8160405282815288602084870101111561064057600080fd5b8260208601602083013760006020848301015280955050505050509250929050565b60006001820161068257634e487b7160e01b600052601160045260246000fd5b5060010190565b634e487b7160e01b600052602160045260246000fd5b60005b838110156106ba5781810151838201526020016106a2565b50506000910152565b82815260406020820152600082518060408401526106e881606085016020870161069f565b601f01601f1916919091016060019392505050565b6000825161070f81846020870161069f565b9190910192915050565b60006020828403121561072b57600080fd5b505191905056fea26469706673582212202b1adf98c755644b75295d2782bb9b2ed9b3a5258c6e70379c801fcd7130476364736f6c63430008110033",
  "linkReferences": {},
  "deployedLinkReferences": {}
}