{
  "_format": "hh-sol-artifact-1",
  "contractName": "SchemaRegistry",
  "sourceName": "contracts/attestation/eas/SchemaRegistry.sol",
  "abi": [
    {
      "inputs": [],
      "name": "AlreadyExists",
      "type": "error"
    },
    {
      "anonymous": false,
      "inputs": [
        {
          "indexed": true,
          "internalType": "bytes32",
          "name": "uid",
          "type": "bytes32"
        },
        {
          "indexed": false,
          "internalType": "address",
          "name": "registerer",
          "type": "address"
        }
      ],
      "name": "Registered",
      "type": "event"
    },
    {
      "inputs": [],
      "name": "VERSION",
      "outputs": [
        {
          "internalType": "string",
          "name": "",
          "type": "string"
        }
      ],
      "stateMutability": "view",
      "type": "function"
    },
    {
      "inputs": [
        {
          "internalType": "bytes32",
          "name": "uid",
          "type": "bytes32"
        }
      ],
      "name": "getSchema",
      "outputs": [
        {
          "components": [
            {
              "internalType": "bytes32",
              "name": "uid",
              "type": "bytes32"
            },
            {
              "internalType": "contract ISchemaResolver",
              "name": "resolver",
              "type": "address"
            },
            {
              "internalType": "bool",
              "name": "revocable",
              "type": "bool"
            },
            {
              "internalType": "string",
              "name": "schema",
              "type": "string"
            }
          ],
          "internalType": "struct SchemaRecord",
          "name": "",
          "type": "tuple"
        }
      ],
      "stateMutability": "view",
      "type": "function"
    },
    {
      "inputs": [
        {
          "internalType": "string",
          "name": "schema",
          "type": "string"
        },
        {
          "internalType": "contract ISchemaResolver",
          "name": "resolver",
          "type": "address"
        },
        {
          "internalType": "bool",
          "name": "revocable",
          "type": "bool"
        }
      ],
      "name": "register",
      "outputs": [
        {
          "internalType": "bytes32",
          "name": "",
          "type": "bytes32"
        }
      ],
      "stateMutability": "nonpayable",
      "type": "function"
    }
  ],
  "bytecode": "0x608060405234801561001057600080fd5b50610790806100206000396000f3fe608060405234801561001057600080fd5b50600436106100415760003560e01c806360d7a27814610046578063a2ea7c6e1461006c578063ffa1ad741461008c575b600080fd5b6100596100543660046103e6565b6100d5565b6040519081526020015b60405180910390f35b61007f61007a366004610498565b61027e565b6040516100639190610501565b6100c86040518060400160405280600481526020017f302e32370000000000000000000000000000000000000000000000000000000081525081565b604051610063919061055a565b60008060405180608001604052806000801b81526020018573ffffffffffffffffffffffffffffffffffffffff168152602001841515815260200187878080601f0160208091040260200160405190810160405280939291908181526020018383808284376000920182905250939094525092935091506101579050826103a6565b600081815260208190526040902054909150156101a0576040517f23369fa600000000000000000000000000000000000000000000000000000000815260040160405180910390fd5b80825260008181526020818152604091829020845181559084015160018201805493860151151574010000000000000000000000000000000000000000027fffffffffffffffffffffff00000000000000000000000000000000000000000090941673ffffffffffffffffffffffffffffffffffffffff90921691909117929092179091556060830151839190600282019061023c9082610645565b50506040513381528291507f7d917fcbc9a29a9705ff9936ffa599500e4fd902e4486bae317414fe967b307c9060200160405180910390a29695505050505050565b604080516080810182526000808252602082018190529181019190915260608082015260008281526020818152604091829020825160808101845281548152600182015473ffffffffffffffffffffffffffffffffffffffff8116938201939093527401000000000000000000000000000000000000000090920460ff1615159282019290925260028201805491929160608401919061031d906105a3565b80601f0160208091040260200160405190810160405280929190818152602001828054610349906105a3565b80156103965780601f1061036b57610100808354040283529160200191610396565b820191906000526020600020905b81548152906001019060200180831161037957829003601f168201915b5050505050815250509050919050565b60008160600151826020015183604001516040516020016103c993929190610705565b604051602081830303815290604052805190602001209050919050565b600080600080606085870312156103fc57600080fd5b843567ffffffffffffffff8082111561041457600080fd5b818701915087601f83011261042857600080fd5b81358181111561043757600080fd5b88602082850101111561044957600080fd5b6020928301965094505085013573ffffffffffffffffffffffffffffffffffffffff8116811461047857600080fd5b91506040850135801515811461048d57600080fd5b939692955090935050565b6000602082840312156104aa57600080fd5b5035919050565b60005b838110156104cc5781810151838201526020016104b4565b50506000910152565b600081518084526104ed8160208601602086016104b1565b601f01601f19169290920160200192915050565b602081528151602082015273ffffffffffffffffffffffffffffffffffffffff60208301511660408201526040820151151560608201526000606083015160808084015261055260a08401826104d5565b949350505050565b60208152600061056d60208301846104d5565b9392505050565b7f4e487b7100000000000000000000000000000000000000000000000000000000600052604160045260246000fd5b600181811c908216806105b757607f821691505b6020821081036105f0577f4e487b7100000000000000000000000000000000000000000000000000000000600052602260045260246000fd5b50919050565b601f82111561064057600081815260208120601f850160051c8101602086101561061d5750805b601f850160051c820191505b8181101561063c57828155600101610629565b5050505b505050565b815167ffffffffffffffff81111561065f5761065f610574565b6106738161066d84546105a3565b846105f6565b602080601f8311600181146106a857600084156106905750858301515b600019600386901b1c1916600185901b17855561063c565b600085815260208120601f198616915b828110156106d7578886015182559484019460019091019084016106b8565b50858210156106f55787850151600019600388901b60f8161c191681555b5050505050600190811b01905550565b600084516107178184602089016104b1565b60609490941b7fffffffffffffffffffffffffffffffffffffffff000000000000000000000000169190930190815290151560f81b60148201526015019291505056fea26469706673582212201f735fc8708fdbc0157048d7bc47d7dcff71d3e09f109e45c0db4b3866b4b74b64736f6c63430008130033",
  "linkReferences": {},
  "deployedLinkReferences": {}
}