{
  "_format": "hh-sol-artifact-1",
  "contractName": "TestAddrResolver",
  "sourceName": "contracts/diamond-resolver/facets/test/TestAddrResolver.sol",
  "abi": [
    {
      "inputs": [],
      "name": "Unauthorised",
      "type": "error"
    },
    {
      "anonymous": false,
      "inputs": [
        {
          "indexed": true,
          "internalType": "bytes32",
          "name": "node",
          "type": "bytes32"
        },
        {
          "indexed": false,
          "internalType": "uint64",
          "name": "newVersion",
          "type": "uint64"
        }
      ],
      "name": "VersionChanged",
      "type": "event"
    },
    {
      "inputs": [
        {
          "internalType": "bytes32",
          "name": "node",
          "type": "bytes32"
        }
      ],
      "name": "addr",
      "outputs": [
        {
          "internalType": "address payable",
          "name": "",
          "type": "address"
        }
      ],
      "stateMutability": "view",
      "type": "function"
    },
    {
      "inputs": [
        {
          "internalType": "bytes32",
          "name": "node",
          "type": "bytes32"
        },
        {
          "internalType": "uint256",
          "name": "coinType",
          "type": "uint256"
        }
      ],
      "name": "addr",
      "outputs": [
        {
          "internalType": "bytes",
          "name": "",
          "type": "bytes"
        }
      ],
      "stateMutability": "view",
      "type": "function"
    },
    {
      "inputs": [
        {
          "internalType": "bytes32",
          "name": "node",
          "type": "bytes32"
        },
        {
          "internalType": "uint256",
          "name": "coinType",
          "type": "uint256"
        },
        {
          "internalType": "bytes",
          "name": "a",
          "type": "bytes"
        }
      ],
      "name": "setAddr",
      "outputs": [],
      "stateMutability": "nonpayable",
      "type": "function"
    },
    {
      "inputs": [
        {
          "internalType": "bytes32",
          "name": "node",
          "type": "bytes32"
        },
        {
          "internalType": "address",
          "name": "a",
          "type": "address"
        }
      ],
      "name": "setAddr",
      "outputs": [],
      "stateMutability": "nonpayable",
      "type": "function"
    },
    {
      "inputs": [
        {
          "internalType": "bytes4",
          "name": "interfaceID",
          "type": "bytes4"
        }
      ],
      "name": "supportsInterface",
      "outputs": [
        {
          "internalType": "bool",
          "name": "",
          "type": "bool"
        }
      ],
      "stateMutability": "view",
      "type": "function"
    }
  ],
  "bytecode": "0x608060405234801561001057600080fd5b506105d3806100206000396000f3fe608060405234801561001057600080fd5b50600436106100675760003560e01c80638b95dd71116100505780638b95dd71146100ce578063d5fa2b00146100e3578063f1cb7e06146100f657600080fd5b806301ffc9a71461006c5780633b3b57de14610095575b600080fd5b61008061007a366004610348565b50600090565b60405190151581526020015b60405180910390f35b6100a96100a3366004610391565b50600190565b60405173ffffffffffffffffffffffffffffffffffffffff909116815260200161008c565b6100e16100dc3660046103d9565b610125565b005b6100e16100f136600461049d565b6101cb565b6101186101043660046104e6565b505060408051602081019091526000815290565b60405161008c919061052c565b8261012f8161021f565b610165576040517fd7a2ae6a00000000000000000000000000000000000000000000000000000000815260040160405180910390fd5b6040517f08c379a000000000000000000000000000000000000000000000000000000000815260206004820152600b60248201527f556e737570706f72746564000000000000000000000000000000000000000000604482015260640160405180910390fd5b816101d58161021f565b61020b576040517fd7a2ae6a00000000000000000000000000000000000000000000000000000000815260040160405180910390fd5b61021a83603c6100dc8561030f565b505050565b60408051336024820152604480820184905282518083039091018152606490910182526020810180517bffffffffffffffffffffffffffffffffffffffffffffffffffffffff167f25f3670400000000000000000000000000000000000000000000000000000000179052905160009182918291309161029f919061055f565b600060405180830381855afa9150503d80600081146102da576040519150601f19603f3d011682016040523d82523d6000602084013e6102df565b606091505b5091509150816102f3575060009392505050565b80806020019051810190610307919061057b565b949350505050565b6040805160148082528183019092526060916020820181803683375050506c010000000000000000000000009290920260208301525090565b60006020828403121561035a57600080fd5b81357fffffffff000000000000000000000000000000000000000000000000000000008116811461038a57600080fd5b9392505050565b6000602082840312156103a357600080fd5b5035919050565b7f4e487b7100000000000000000000000000000000000000000000000000000000600052604160045260246000fd5b6000806000606084860312156103ee57600080fd5b8335925060208401359150604084013567ffffffffffffffff8082111561041457600080fd5b818601915086601f83011261042857600080fd5b81358181111561043a5761043a6103aa565b604051601f8201601f19908116603f01168101908382118183101715610462576104626103aa565b8160405282815289602084870101111561047b57600080fd5b8260208601602083013760006020848301015280955050505050509250925092565b600080604083850312156104b057600080fd5b82359150602083013573ffffffffffffffffffffffffffffffffffffffff811681146104db57600080fd5b809150509250929050565b600080604083850312156104f957600080fd5b50508035926020909101359150565b60005b8381101561052357818101518382015260200161050b565b50506000910152565b602081526000825180602084015261054b816040850160208701610508565b601f01601f19169190910160400192915050565b60008251610571818460208701610508565b9190910192915050565b60006020828403121561058d57600080fd5b8151801515811461038a57600080fdfea2646970667358221220ba025960e054c37c113e18eca41232d3521b06090d021de0a4975c4cd7fc9d9d64736f6c63430008130033",
  "linkReferences": {},
  "deployedLinkReferences": {}
}