{
  "_format": "hh-sol-artifact-1",
  "contractName": "PermissionedEIP712Proxy",
  "sourceName": "contracts/attestation/eas/eip712/proxy/examples/PermissionedEIP712Proxy.sol",
  "abi": [
    {
      "inputs": [
        {
          "internalType": "contract IEAS",
          "name": "eas",
          "type": "address"
        },
        {
          "internalType": "string",
          "name": "name",
          "type": "string"
        }
      ],
      "stateMutability": "nonpayable",
      "type": "constructor"
    },
    {
      "inputs": [],
      "name": "AccessDenied",
      "type": "error"
    },
    {
      "inputs": [],
      "name": "DeadlineExpired",
      "type": "error"
    },
    {
      "inputs": [],
      "name": "InvalidEAS",
      "type": "error"
    },
    {
      "inputs": [],
      "name": "InvalidLength",
      "type": "error"
    },
    {
      "inputs": [],
      "name": "InvalidSignature",
      "type": "error"
    },
    {
      "inputs": [],
      "name": "NotFound",
      "type": "error"
    },
    {
      "inputs": [],
      "name": "UsedSignature",
      "type": "error"
    },
    {
      "anonymous": false,
      "inputs": [
        {
          "indexed": true,
          "internalType": "address",
          "name": "previousOwner",
          "type": "address"
        },
        {
          "indexed": true,
          "internalType": "address",
          "name": "newOwner",
          "type": "address"
        }
      ],
      "name": "OwnershipTransferred",
      "type": "event"
    },
    {
      "inputs": [],
      "name": "VERSION",
      "outputs": [
        {
          "internalType": "string",
          "name": "",
          "type": "string"
        }
      ],
      "stateMutability": "view",
      "type": "function"
    },
    {
      "inputs": [
        {
          "components": [
            {
              "internalType": "bytes32",
              "name": "schema",
              "type": "bytes32"
            },
            {
              "components": [
                {
                  "internalType": "address",
                  "name": "recipient",
                  "type": "address"
                },
                {
                  "internalType": "uint64",
                  "name": "expirationTime",
                  "type": "uint64"
                },
                {
                  "internalType": "bool",
                  "name": "revocable",
                  "type": "bool"
                },
                {
                  "internalType": "bytes32",
                  "name": "refUID",
                  "type": "bytes32"
                },
                {
                  "internalType": "bytes",
                  "name": "data",
                  "type": "bytes"
                },
                {
                  "internalType": "uint256",
                  "name": "value",
                  "type": "uint256"
                }
              ],
              "internalType": "struct AttestationRequestData",
              "name": "data",
              "type": "tuple"
            },
            {
              "components": [
                {
                  "internalType": "uint8",
                  "name": "v",
                  "type": "uint8"
                },
                {
                  "internalType": "bytes32",
                  "name": "r",
                  "type": "bytes32"
                },
                {
                  "internalType": "bytes32",
                  "name": "s",
                  "type": "bytes32"
                }
              ],
              "internalType": "struct EIP712Signature",
              "name": "signature",
              "type": "tuple"
            },
            {
              "internalType": "address",
              "name": "attester",
              "type": "address"
            },
            {
              "internalType": "uint64",
              "name": "deadline",
              "type": "uint64"
            }
          ],
          "internalType": "struct DelegatedProxyAttestationRequest",
          "name": "delegatedRequest",
          "type": "tuple"
        }
      ],
      "name": "attestByDelegation",
      "outputs": [
        {
          "internalType": "bytes32",
          "name": "",
          "type": "bytes32"
        }
      ],
      "stateMutability": "payable",
      "type": "function"
    },
    {
      "inputs": [],
      "name": "getAttestTypeHash",
      "outputs": [
        {
          "internalType": "bytes32",
          "name": "",
          "type": "bytes32"
        }
      ],
      "stateMutability": "pure",
      "type": "function"
    },
    {
      "inputs": [
        {
          "internalType": "bytes32",
          "name": "uid",
          "type": "bytes32"
        }
      ],
      "name": "getAttester",
      "outputs": [
        {
          "internalType": "address",
          "name": "",
          "type": "address"
        }
      ],
      "stateMutability": "view",
      "type": "function"
    },
    {
      "inputs": [],
      "name": "getDomainSeparator",
      "outputs": [
        {
          "internalType": "bytes32",
          "name": "",
          "type": "bytes32"
        }
      ],
      "stateMutability": "view",
      "type": "function"
    },
    {
      "inputs": [],
      "name": "getEAS",
      "outputs": [
        {
          "internalType": "contract IEAS",
          "name": "",
          "type": "address"
        }
      ],
      "stateMutability": "view",
      "type": "function"
    },
    {
      "inputs": [],
      "name": "getName",
      "outputs": [
        {
          "internalType": "string",
          "name": "",
          "type": "string"
        }
      ],
      "stateMutability": "view",
      "type": "function"
    },
    {
      "inputs": [],
      "name": "getRevokeTypeHash",
      "outputs": [
        {
          "internalType": "bytes32",
          "name": "",
          "type": "bytes32"
        }
      ],
      "stateMutability": "pure",
      "type": "function"
    },
    {
      "inputs": [
        {
          "components": [
            {
              "internalType": "bytes32",
              "name": "schema",
              "type": "bytes32"
            },
            {
              "components": [
                {
                  "internalType": "address",
                  "name": "recipient",
                  "type": "address"
                },
                {
                  "internalType": "uint64",
                  "name": "expirationTime",
                  "type": "uint64"
                },
                {
                  "internalType": "bool",
                  "name": "revocable",
                  "type": "bool"
                },
                {
                  "internalType": "bytes32",
                  "name": "refUID",
                  "type": "bytes32"
                },
                {
                  "internalType": "bytes",
                  "name": "data",
                  "type": "bytes"
                },
                {
                  "internalType": "uint256",
                  "name": "value",
                  "type": "uint256"
                }
              ],
              "internalType": "struct AttestationRequestData[]",
              "name": "data",
              "type": "tuple[]"
            },
            {
              "components": [
                {
                  "internalType": "uint8",
                  "name": "v",
                  "type": "uint8"
                },
                {
                  "internalType": "bytes32",
                  "name": "r",
                  "type": "bytes32"
                },
                {
                  "internalType": "bytes32",
                  "name": "s",
                  "type": "bytes32"
                }
              ],
              "internalType": "struct EIP712Signature[]",
              "name": "signatures",
              "type": "tuple[]"
            },
            {
              "internalType": "address",
              "name": "attester",
              "type": "address"
            },
            {
              "internalType": "uint64",
              "name": "deadline",
              "type": "uint64"
            }
          ],
          "internalType": "struct MultiDelegatedProxyAttestationRequest[]",
          "name": "multiDelegatedRequests",
          "type": "tuple[]"
        }
      ],
      "name": "multiAttestByDelegation",
      "outputs": [
        {
          "internalType": "bytes32[]",
          "name": "",
          "type": "bytes32[]"
        }
      ],
      "stateMutability": "payable",
      "type": "function"
    },
    {
      "inputs": [
        {
          "components": [
            {
              "internalType": "bytes32",
              "name": "schema",
              "type": "bytes32"
            },
            {
              "components": [
                {
                  "internalType": "bytes32",
                  "name": "uid",
                  "type": "bytes32"
                },
                {
                  "internalType": "uint256",
                  "name": "value",
                  "type": "uint256"
                }
              ],
              "internalType": "struct RevocationRequestData[]",
              "name": "data",
              "type": "tuple[]"
            },
            {
              "components": [
                {
                  "internalType": "uint8",
                  "name": "v",
                  "type": "uint8"
                },
                {
                  "internalType": "bytes32",
                  "name": "r",
                  "type": "bytes32"
                },
                {
                  "internalType": "bytes32",
                  "name": "s",
                  "type": "bytes32"
                }
              ],
              "internalType": "struct EIP712Signature[]",
              "name": "signatures",
              "type": "tuple[]"
            },
            {
              "internalType": "address",
              "name": "revoker",
              "type": "address"
            },
            {
              "internalType": "uint64",
              "name": "deadline",
              "type": "uint64"
            }
          ],
          "internalType": "struct MultiDelegatedProxyRevocationRequest[]",
          "name": "multiDelegatedRequests",
          "type": "tuple[]"
        }
      ],
      "name": "multiRevokeByDelegation",
      "outputs": [],
      "stateMutability": "payable",
      "type": "function"
    },
    {
      "inputs": [],
      "name": "owner",
      "outputs": [
        {
          "internalType": "address",
          "name": "",
          "type": "address"
        }
      ],
      "stateMutability": "view",
      "type": "function"
    },
    {
      "inputs": [],
      "name": "renounceOwnership",
      "outputs": [],
      "stateMutability": "nonpayable",
      "type": "function"
    },
    {
      "inputs": [
        {
          "components": [
            {
              "internalType": "bytes32",
              "name": "schema",
              "type": "bytes32"
            },
            {
              "components": [
                {
                  "internalType": "bytes32",
                  "name": "uid",
                  "type": "bytes32"
                },
                {
                  "internalType": "uint256",
                  "name": "value",
                  "type": "uint256"
                }
              ],
              "internalType": "struct RevocationRequestData",
              "name": "data",
              "type": "tuple"
            },
            {
              "components": [
                {
                  "internalType": "uint8",
                  "name": "v",
                  "type": "uint8"
                },
                {
                  "internalType": "bytes32",
                  "name": "r",
                  "type": "bytes32"
                },
                {
                  "internalType": "bytes32",
                  "name": "s",
                  "type": "bytes32"
                }
              ],
              "internalType": "struct EIP712Signature",
              "name": "signature",
              "type": "tuple"
            },
            {
              "internalType": "address",
              "name": "revoker",
              "type": "address"
            },
            {
              "internalType": "uint64",
              "name": "deadline",
              "type": "uint64"
            }
          ],
          "internalType": "struct DelegatedProxyRevocationRequest",
          "name": "delegatedRequest",
          "type": "tuple"
        }
      ],
      "name": "revokeByDelegation",
      "outputs": [],
      "stateMutability": "payable",
      "type": "function"
    },
    {
      "inputs": [
        {
          "internalType": "address",
          "name": "newOwner",
          "type": "address"
        }
      ],
      "name": "transferOwnership",
      "outputs": [],
      "stateMutability": "nonpayable",
      "type": "function"
    }
  ],
  "bytecode": "0x6101606040523480156200001257600080fd5b50604051620026b5380380620026b58339810160408190526200003591620001ca565b6040805180820182526003815262302e3160e81b60209182015282518382012060e08190527f8cd160c72d102a6747abd189ac21d4a1f802e3fcc1bb8fc78cc4d558df0c7c216101008190524660a081815285517f8b73c3c69bb8fe3d512ecc4cf759cc79239f7b179b0ffacaa9a75d522b39400f818701819052818801959095526060810193909352608080840192909252308382018190528651808503909201825260c093840190965280519401939093209092529190526101205281816001600160a01b0382166200011d576040516341bc07ff60e11b815260040160405180910390fd5b6001600160a01b0382166101405260006200013982826200034f565b50505062000156620001506200015e60201b60201c565b62000162565b50506200041b565b3390565b600380546001600160a01b038381166001600160a01b0319831681179093556040519116919082907f8be0079c531659141344cd1fd0a4f28419497f9722a3daafe3b4186f6b6457e090600090a35050565b634e487b7160e01b600052604160045260246000fd5b60008060408385031215620001de57600080fd5b82516001600160a01b0381168114620001f657600080fd5b602084810151919350906001600160401b03808211156200021657600080fd5b818601915086601f8301126200022b57600080fd5b815181811115620002405762000240620001b4565b604051601f8201601f19908116603f011681019083821181831017156200026b576200026b620001b4565b8160405282815289868487010111156200028457600080fd5b600093505b82841015620002a8578484018601518185018701529285019262000289565b60008684830101528096505050505050509250929050565b600181811c90821680620002d557607f821691505b602082108103620002f657634e487b7160e01b600052602260045260246000fd5b50919050565b601f8211156200034a57600081815260208120601f850160051c81016020861015620003255750805b601f850160051c820191505b81811015620003465782815560010162000331565b5050505b505050565b81516001600160401b038111156200036b576200036b620001b4565b62000383816200037c8454620002c0565b84620002fc565b602080601f831160018114620003bb5760008415620003a25750858301515b600019600386901b1c1916600185901b17855562000346565b600085815260208120601f198616915b82811015620003ec57888601518255948401946001909101908401620003cb565b50858210156200040b5787850151600019600388901b60f8161c191681555b5050505050600190811b01905550565b60805160a05160c05160e05161010051610120516101405161222362000492600039600081816101cb015281816107090152818161078e01528181610b350152610cbf01526000610e2301526000610e7201526000610e4d01526000610da601526000610dd001526000610dfa01526122236000f3fe6080604052600436106100dd5760003560e01c80638da5cb5b1161007f578063b83010d311610059578063b83010d314610255578063ed24911d14610288578063f2fde38b1461029d578063ffa1ad74146102bd57600080fd5b80638da5cb5b146102045780639541152514610222578063a6d4dbc71461024257600080fd5b806317d7de7c116100bb57806317d7de7c146101875780633c042715146101a957806365c40b9c146101bc578063715018a6146101ef57600080fd5b80630eabf660146100e257806310d736d5146100f757806312b11a171461014a575b600080fd5b6100f56100f0366004611674565b610306565b005b34801561010357600080fd5b5061012d6101123660046116b6565b6000908152600160205260409020546001600160a01b031690565b6040516001600160a01b0390911681526020015b60405180910390f35b34801561015657600080fd5b507f4120d3b28306666b714826ad7cb70744d9658ad3e6cd873411bedadcf55afda75b604051908152602001610141565b34801561019357600080fd5b5061019c61031c565b604051610141919061171f565b6101796101b7366004611732565b6103ae565b3480156101c857600080fd5b507f000000000000000000000000000000000000000000000000000000000000000061012d565b3480156101fb57600080fd5b506100f56103c9565b34801561021057600080fd5b506003546001600160a01b031661012d565b610235610230366004611674565b6103dd565b604051610141919061176d565b6100f56102503660046117b1565b6103f8565b34801561026157600080fd5b507f96bdbea8fa280f8a0d0835587e1fbb1470e81d05c44514158443340cea40a05d610179565b34801561029457600080fd5b5061017961040c565b3480156102a957600080fd5b506100f56102b83660046117e1565b61041b565b3480156102c957600080fd5b5061019c6040518060400160405280600381526020017f302e31000000000000000000000000000000000000000000000000000000000081525081565b61030e6104ad565b6103188282610507565b5050565b60606000805461032b906117fc565b80601f0160208091040260200160405190810160405280929190818152602001828054610357906117fc565b80156103a45780601f10610379576101008083540402835291602001916103a4565b820191906000526020600020905b81548152906001019060200180831161038757829003601f168201915b5050505050905090565b60006103b86104ad565b6103c182610777565b90505b919050565b6103d16104ad565b6103db60006108a8565b565b60606103e76104ad565b6103f18383610912565b9392505050565b6104006104ad565b61040981610ca6565b50565b6000610416610d99565b905090565b6104236104ad565b6001600160a01b0381166104a45760405162461bcd60e51b815260206004820152602660248201527f4f776e61626c653a206e6577206f776e657220697320746865207a65726f206160448201527f646472657373000000000000000000000000000000000000000000000000000060648201526084015b60405180910390fd5b610409816108a8565b6003546001600160a01b031633146103db5760405162461bcd60e51b815260206004820181905260248201527f4f776e61626c653a2063616c6c6572206973206e6f7420746865206f776e6572604482015260640161049b565b60008167ffffffffffffffff81111561052257610522611830565b60405190808252806020026020018201604052801561056857816020015b6040805180820190915260008152606060208201528152602001906001900390816105405790505b50905060005b828110156106d857600084848381811061058a5761058a611846565b905060200281019061059c919061185c565b6105a590611a82565b602081015180519192509015806105c25750816040015151815114155b156105f9576040517f947d5a8400000000000000000000000000000000000000000000000000000000815260040160405180910390fd5b60005b815181101561069757600082828151811061061957610619611846565b6020026020010151905061068e6040518060a00160405280866000015181526020018381526020018660400151858151811061065757610657611846565b6020026020010151815260200186606001516001600160a01b03168152602001866080015167ffffffffffffffff16815250610ec0565b506001016105fc565b50604051806040016040528083600001518152602001828152508484815181106106c3576106c3611846565b6020908102919091010152505060010161056e565b506040517f4cb7e9e50000000000000000000000000000000000000000000000000000000081526001600160a01b037f00000000000000000000000000000000000000000000000000000000000000001690634cb7e9e5903490610740908590600401611b7d565b6000604051808303818588803b15801561075957600080fd5b505af115801561076d573d6000803e3d6000fd5b5050505050505050565b600061078a61078583611d34565b6110bf565b60007f00000000000000000000000000000000000000000000000000000000000000006001600160a01b031663f17325e7346040518060400160405280876000013581526020018780602001906107e19190611dad565b6107ea90611de1565b8152506040518363ffffffff1660e01b81526004016108099190611e53565b60206040518083038185885af1158015610827573d6000803e3d6000fd5b50505050506040513d601f19601f8201168201806040525081019061084c9190611e80565b905061085e60c0840160a085016117e1565b600082815260016020526040902080547fffffffffffffffffffffffff0000000000000000000000000000000000000000166001600160a01b039290921691909117905592915050565b600380546001600160a01b038381167fffffffffffffffffffffffff0000000000000000000000000000000000000000831681179093556040519116919082907f8be0079c531659141344cd1fd0a4f28419497f9722a3daafe3b4186f6b6457e090600090a35050565b606060008267ffffffffffffffff81111561092f5761092f611830565b60405190808252806020026020018201604052801561097557816020015b60408051808201909152600081526060602082015281526020019060019003908161094d5790505b50905060005b83811015610b30573685858381811061099657610996611846565b90506020028101906109a8919061185c565b90503660006109ba6020840184611e99565b90925090508015806109da57506109d46040840184611ee3565b82141590505b15610a11576040517f947d5a8400000000000000000000000000000000000000000000000000000000815260040160405180910390fd5b60005b81811015610ae557610add6040518060a0016040528086600001358152602001858585818110610a4657610a46611846565b9050602002810190610a589190611dad565b610a6190611de1565b8152602001610a736040880188611ee3565b85818110610a8357610a83611846565b905060600201803603810190610a999190611f2c565b8152602001610aae60808801606089016117e1565b6001600160a01b03168152602001610acc60a0880160808901611f48565b67ffffffffffffffff1690526110bf565b600101610a14565b50604080518082019091528335815260208101610b028385611f63565b815250858581518110610b1757610b17611846565b602002602001018190525083600101935050505061097b565b5060007f00000000000000000000000000000000000000000000000000000000000000006001600160a01b03166344adc90e34846040518363ffffffff1660e01b8152600401610b809190611fd7565b60006040518083038185885af1158015610b9e573d6000803e3d6000fd5b50505050506040513d6000823e601f3d908101601f19168201604052610bc791908101906120ac565b90506000805b85811015610c9b5736878783818110610be857610be8611846565b9050602002810190610bfa919061185c565b9050366000610c0c6020840184611e99565b9150915060005b81811015610c8c57610c2b60808501606086016117e1565b60016000898981518110610c4157610c41611846565b6020026020010151815260200190815260200160002060006101000a8154816001600160a01b0302191690836001600160a01b03160217905550856001019550806001019050610c13565b50836001019350505050610bcd565b509095945050505050565b610cbd610cb83683900383018361213d565b610ec0565b7f00000000000000000000000000000000000000000000000000000000000000006001600160a01b031663469262673460405180604001604052808560000135815260200185602001803603810190610d1691906121a9565b90526040517fffffffff0000000000000000000000000000000000000000000000000000000060e085901b16815281516004820152602091820151805160248301529091015160448201526064016000604051808303818588803b158015610d7d57600080fd5b505af1158015610d91573d6000803e3d6000fd5b505050505050565b6000306001600160a01b037f000000000000000000000000000000000000000000000000000000000000000016148015610df257507f000000000000000000000000000000000000000000000000000000000000000046145b15610e1c57507f000000000000000000000000000000000000000000000000000000000000000090565b50604080517f00000000000000000000000000000000000000000000000000000000000000006020808301919091527f0000000000000000000000000000000000000000000000000000000000000000828401527f000000000000000000000000000000000000000000000000000000000000000060608301524660808301523060a0808401919091528351808403909101815260c0909201909252805191012090565b608081015167ffffffffffffffff1615801590610ef557504267ffffffffffffffff16816080015167ffffffffffffffff1611155b15610f2c576040517f1ab7da6b00000000000000000000000000000000000000000000000000000000815260040160405180910390fd5b6020808201518051600090815260019092526040909120546001600160a01b031680610f84576040517fc5723b5100000000000000000000000000000000000000000000000000000000815260040160405180910390fd5b6001600160a01b0381163314610fc6576040517f4ca8886700000000000000000000000000000000000000000000000000000000815260040160405180910390fd5b6040830151610fd481611260565b83518351608086015160405160009361105093611035937f96bdbea8fa280f8a0d0835587e1fbb1470e81d05c44514158443340cea40a05d936020019384526020840192909252604083015267ffffffffffffffff16606082015260800190565b6040516020818303038152906040528051906020012061136e565b905084606001516001600160a01b0316611078828460000151856020015186604001516113d7565b6001600160a01b0316146110b8576040517f8baa579f00000000000000000000000000000000000000000000000000000000815260040160405180910390fd5b5050505050565b608081015167ffffffffffffffff16158015906110f457504267ffffffffffffffff16816080015167ffffffffffffffff1611155b1561112b576040517f1ab7da6b00000000000000000000000000000000000000000000000000000000815260040160405180910390fd5b6020810151604082015161113e81611260565b60006111f27f4120d3b28306666b714826ad7cb70744d9658ad3e6cd873411bedadcf55afda760001b856000015185600001518660200151876040015188606001518960800151805190602001208b6080015160405160200161103598979695949392919097885260208801969096526001600160a01b0394909416604087015267ffffffffffffffff9283166060870152901515608086015260a085015260c08401919091521660e08201526101000190565b905083606001516001600160a01b031661121a828460000151856020015186604001516113d7565b6001600160a01b03161461125a576040517f8baa579f00000000000000000000000000000000000000000000000000000000815260040160405180910390fd5b50505050565b8051602080830151604080850151905160f89490941b7fff0000000000000000000000000000000000000000000000000000000000000016928401929092526021830152604182015260009060610160405160208183030381529060405290506002816040516112d091906121c5565b9081526040519081900360200190205460ff161561131a576040517fcce9a82400000000000000000000000000000000000000000000000000000000815260040160405180910390fd5b600160028260405161132c91906121c5565b90815260405190819003602001902080549115157fffffffffffffffffffffffffffffffffffffffffffffffffffffffffffffff009092169190911790555050565b60006103c161137b610d99565b836040517f19010000000000000000000000000000000000000000000000000000000000006020820152602281018390526042810182905260009060620160405160208183030381529060405280519060200120905092915050565b60008060006113e8878787876113ff565b915091506113f5816114c3565b5095945050505050565b6000807f7fffffffffffffffffffffffffffffff5d576e7357a4501ddfe92f46681b20a083111561143657506000905060036114ba565b6040805160008082526020820180845289905260ff881692820192909252606081018690526080810185905260019060a0016020604051602081039080840390855afa15801561148a573d6000803e3d6000fd5b5050604051601f1901519150506001600160a01b0381166114b3576000600192509250506114ba565b9150600090505b94509492505050565b60008160048111156114d7576114d76121d7565b036114df5750565b60018160048111156114f3576114f36121d7565b036115405760405162461bcd60e51b815260206004820152601860248201527f45434453413a20696e76616c6964207369676e61747572650000000000000000604482015260640161049b565b6002816004811115611554576115546121d7565b036115a15760405162461bcd60e51b815260206004820152601f60248201527f45434453413a20696e76616c6964207369676e6174757265206c656e67746800604482015260640161049b565b60038160048111156115b5576115b56121d7565b036104095760405162461bcd60e51b815260206004820152602260248201527f45434453413a20696e76616c6964207369676e6174757265202773272076616c60448201527f7565000000000000000000000000000000000000000000000000000000000000606482015260840161049b565b60008083601f84011261163a57600080fd5b50813567ffffffffffffffff81111561165257600080fd5b6020830191508360208260051b850101111561166d57600080fd5b9250929050565b6000806020838503121561168757600080fd5b823567ffffffffffffffff81111561169e57600080fd5b6116aa85828601611628565b90969095509350505050565b6000602082840312156116c857600080fd5b5035919050565b60005b838110156116ea5781810151838201526020016116d2565b50506000910152565b6000815180845261170b8160208601602086016116cf565b601f01601f19169290920160200192915050565b6020815260006103f160208301846116f3565b60006020828403121561174457600080fd5b813567ffffffffffffffff81111561175b57600080fd5b820160e081850312156103f157600080fd5b6020808252825182820181905260009190848201906040850190845b818110156117a557835183529284019291840191600101611789565b50909695505050505050565b600061010082840312156117c457600080fd5b50919050565b80356001600160a01b03811681146103c457600080fd5b6000602082840312156117f357600080fd5b6103f1826117ca565b600181811c9082168061181057607f821691505b6020821081036117c457634e487b7160e01b600052602260045260246000fd5b634e487b7160e01b600052604160045260246000fd5b634e487b7160e01b600052603260045260246000fd5b600082357fffffffffffffffffffffffffffffffffffffffffffffffffffffffffffffff6183360301811261189057600080fd5b9190910192915050565b60405160a0810167ffffffffffffffff811182821017156118bd576118bd611830565b60405290565b60405160c0810167ffffffffffffffff811182821017156118bd576118bd611830565b604051601f8201601f1916810167ffffffffffffffff8111828210171561190f5761190f611830565b604052919050565b600067ffffffffffffffff82111561193157611931611830565b5060051b60200190565b60006040828403121561194d57600080fd5b6040516040810181811067ffffffffffffffff8211171561197057611970611830565b604052823581526020928301359281019290925250919050565b60006060828403121561199c57600080fd5b6040516060810181811067ffffffffffffffff821117156119bf576119bf611830565b604052905080823560ff811681146119d657600080fd5b8082525060208301356020820152604083013560408201525092915050565b600082601f830112611a0657600080fd5b81356020611a1b611a1683611917565b6118e6565b82815260609283028501820192828201919087851115611a3a57600080fd5b8387015b85811015611a5d57611a50898261198a565b8452928401928101611a3e565b5090979650505050505050565b803567ffffffffffffffff811681146103c457600080fd5b600060a08236031215611a9457600080fd5b611a9c61189a565b8235815260208084013567ffffffffffffffff80821115611abc57600080fd5b9085019036601f830112611acf57600080fd5b8135611add611a1682611917565b81815260069190911b83018401908481019036831115611afc57600080fd5b938501935b82851015611b2557611b13368661193b565b82528582019150604085019450611b01565b80868801525050506040860135925080831115611b4157600080fd5b5050611b4f368286016119f5565b604083015250611b61606084016117ca565b6060820152611b7260808401611a6a565b608082015292915050565b60006020808301818452808551808352604092508286019150828160051b8701018488016000805b84811015611c1f57898403603f19018652825180518552880151888501889052805188860181905290890190839060608701905b80831015611c0a57611bf682855180518252602090810151910152565b928b019260019290920191908a0190611bd9565b50978a01979550505091870191600101611ba5565b50919998505050505050505050565b600082601f830112611c3f57600080fd5b813567ffffffffffffffff811115611c5957611c59611830565b611c6c6020601f19601f840116016118e6565b818152846020838601011115611c8157600080fd5b816020850160208301376000918101602001919091529392505050565b600060c08284031215611cb057600080fd5b611cb86118c3565b9050611cc3826117ca565b8152611cd160208301611a6a565b602082015260408201358015158114611ce957600080fd5b604082015260608281013590820152608082013567ffffffffffffffff811115611d1257600080fd5b611d1e84828501611c2e565b60808301525060a082013560a082015292915050565b600060e08236031215611d4657600080fd5b611d4e61189a565b82358152602083013567ffffffffffffffff811115611d6c57600080fd5b611d7836828601611c9e565b602083015250611d8b366040850161198a565b6040820152611d9c60a084016117ca565b6060820152611b7260c08401611a6a565b600082357fffffffffffffffffffffffffffffffffffffffffffffffffffffffffffffff4183360301811261189057600080fd5b60006103c13683611c9e565b6001600160a01b03815116825267ffffffffffffffff6020820151166020830152604081015115156040830152606081015160608301526000608082015160c06080850152611e3f60c08501826116f3565b60a093840151949093019390935250919050565b602081528151602082015260006020830151604080840152611e786060840182611ded565b949350505050565b600060208284031215611e9257600080fd5b5051919050565b6000808335601e19843603018112611eb057600080fd5b83018035915067ffffffffffffffff821115611ecb57600080fd5b6020019150600581901b360382131561166d57600080fd5b6000808335601e19843603018112611efa57600080fd5b83018035915067ffffffffffffffff821115611f1557600080fd5b602001915060608102360382131561166d57600080fd5b600060608284031215611f3e57600080fd5b6103f1838361198a565b600060208284031215611f5a57600080fd5b6103f182611a6a565b6000611f71611a1684611917565b80848252602080830192508560051b850136811115611f8f57600080fd5b855b81811015611fcb57803567ffffffffffffffff811115611fb15760008081fd5b611fbd36828a01611c9e565b865250938201938201611f91565b50919695505050505050565b602080825282518282018190526000919060409081850190600581811b8701840188860187805b8581101561209c57603f198b85030187528251805185528901518985018990528051898601819052908a0190606081881b870181019190870190855b81811015612086577fffffffffffffffffffffffffffffffffffffffffffffffffffffffffffffffa0898503018352612074848651611ded565b948e01949350918d019160010161203a565b505050978a019794505091880191600101611ffe565b50919a9950505050505050505050565b600060208083850312156120bf57600080fd5b825167ffffffffffffffff8111156120d657600080fd5b8301601f810185136120e757600080fd5b80516120f5611a1682611917565b81815260059190911b8201830190838101908783111561211457600080fd5b928401925b8284101561213257835182529284019290840190612119565b979650505050505050565b6000610100828403121561215057600080fd5b61215861189a565b82358152612169846020850161193b565b602082015261217b846060850161198a565b604082015261218c60c084016117ca565b606082015261219d60e08401611a6a565b60808201529392505050565b6000604082840312156121bb57600080fd5b6103f1838361193b565b600082516118908184602087016116cf565b634e487b7160e01b600052602160045260246000fdfea26469706673582212204ebd87c561b68be7bda1171f3baf087f14e2f078a9e6e9c0b0b0f38452cf8c1c64736f6c63430008130033",
  "linkReferences": {},
  "deployedLinkReferences": {}
}