{
  "_format": "hh-sol-artifact-1",
  "contractName": "OptiDomainsSocialOracleResolver",
  "sourceName": "contracts/diamond-resolver/facets/social-oracle/OptiDomainsSocialOracleResolver.sol",
  "abi": [
    {
      "inputs": [],
      "name": "Unauthorised",
      "type": "error"
    },
    {
      "anonymous": false,
      "inputs": [
        {
          "indexed": true,
          "internalType": "bytes32",
          "name": "node",
          "type": "bytes32"
        },
        {
          "indexed": false,
          "internalType": "uint64",
          "name": "newVersion",
          "type": "uint64"
        }
      ],
      "name": "VersionChanged",
      "type": "event"
    },
    {
      "inputs": [
        {
          "internalType": "bytes32",
          "name": "node",
          "type": "bytes32"
        },
        {
          "internalType": "contract IOptiDomainsSocialOracle",
          "name": "oracle",
          "type": "address"
        },
        {
          "internalType": "string",
          "name": "provider",
          "type": "string"
        },
        {
          "internalType": "string",
          "name": "identity",
          "type": "string"
        },
        {
          "internalType": "bytes",
          "name": "proof",
          "type": "bytes"
        },
        {
          "internalType": "bytes",
          "name": "operatorSignature",
          "type": "bytes"
        }
      ],
      "name": "setSocialProfile",
      "outputs": [],
      "stateMutability": "nonpayable",
      "type": "function"
    },
    {
      "inputs": [
        {
          "internalType": "bytes32",
          "name": "node",
          "type": "bytes32"
        },
        {
          "internalType": "contract IOptiDomainsSocialOracle",
          "name": "oracle",
          "type": "address"
        },
        {
          "internalType": "uint256",
          "name": "coinType",
          "type": "uint256"
        },
        {
          "internalType": "bytes",
          "name": "identity",
          "type": "bytes"
        },
        {
          "internalType": "bytes",
          "name": "proof",
          "type": "bytes"
        },
        {
          "internalType": "bytes",
          "name": "operatorSignature",
          "type": "bytes"
        }
      ],
      "name": "setWalletWithVerification",
      "outputs": [],
      "stateMutability": "nonpayable",
      "type": "function"
    },
    {
      "inputs": [
        {
          "internalType": "bytes4",
          "name": "",
          "type": "bytes4"
        }
      ],
      "name": "supportsInterface",
      "outputs": [
        {
          "internalType": "bool",
          "name": "",
          "type": "bool"
        }
      ],
      "stateMutability": "view",
      "type": "function"
    }
  ],
  "bytecode": "0x608060405234801561001057600080fd5b50610a5e806100206000396000f3fe608060405234801561001057600080fd5b50600436106100415760003560e01c806301ffc9a714610046578063d043e7eb1461006e578063fd828c6c14610083575b600080fd5b61005a6100543660046105b8565b50600090565b604051901515815260200160405180910390f35b61008161007c36600461067f565b610096565b005b610081610091366004610760565b6102a3565b604080517f62797465733332206e6f64652c737472696e67206b65792c737472696e67207660208201527f616c7565000000000000000000000000000000000000000000000000000000009181019190915260006044820152600160f81b605882015261029790605901604051602081830303815290604052805190602001208989604051602001610129929190610822565b60408051601f1981840301815282825280516020918201207f62797465733332206e6f64652c737472696e672070726f76696465722c737472918401919091527f696e67206964656e746974792c62797465732070726f6f6600000000000000009183019190915260006058830152600160f81b606c8301529073ffffffffffffffffffffffffffffffffffffffff8d169063e2440ba790606d01604051602081830303815290604052805190602001208f8e8e8e8e8e8e6040516020016101f7979695949392919061085d565b60405160208183030381529060405288886040518563ffffffff1660e01b815260040161022794939291906108f3565b6020604051808303816000875af1158015610246573d6000803e3d6000fd5b505050506040513d601f19601f8201168201806040525081019061026a919061092a565b8d8c8c8c8c604051602001610283959493929190610943565b604051602081830303815290604052610470565b50505050505050505050565b604080517f62797465733332206e6f64652c75696e7432353620636f696e547970652c627960208201527f7465732061646472657373000000000000000000000000000000000000000000918101919091526000604b820152600160f81b605f8201526104659060600160408051601f1981840301815282825280516020918201207f62797465733332206e6f64652c75696e7432353620636f696e547970652c6279918401919091527f746573206964656e746974792c62797465732070726f6f6600000000000000009183019190915260006058830152600160f81b606c83015290899073ffffffffffffffffffffffffffffffffffffffff8c169063e2440ba790606d01604051602081830303815290604052805190602001208e8d8d8d8d8d6040516020016103db9695949392919061097c565b60405160208183030381529060405288886040518563ffffffff1660e01b815260040161040b94939291906108f3565b6020604051808303816000875af115801561042a573d6000803e3d6000fd5b505050506040513d601f19601f8201168201806040525081019061044e919061092a565b8c8b8b8b60405160200161028394939291906109bc565b505050505050505050565b6104786104ee565b73ffffffffffffffffffffffffffffffffffffffff1663f806f52a858585856040518563ffffffff1660e01b81526004016104b694939291906109e6565b600060405180830381600087803b1580156104d057600080fd5b505af11580156104e4573d6000803e3d6000fd5b5050505050505050565b60006104f861056b565b73ffffffffffffffffffffffffffffffffffffffff16635ea1d46a6040518163ffffffff1660e01b8152600401602060405180830381865afa158015610542573d6000803e3d6000fd5b505050506040513d601f19601f820116820180604052508101906105669190610a0b565b905090565b60003073ffffffffffffffffffffffffffffffffffffffff16637b1039996040518163ffffffff1660e01b8152600401602060405180830381865afa158015610542573d6000803e3d6000fd5b6000602082840312156105ca57600080fd5b81357fffffffff00000000000000000000000000000000000000000000000000000000811681146105fa57600080fd5b9392505050565b73ffffffffffffffffffffffffffffffffffffffff8116811461062357600080fd5b50565b803561063181610601565b919050565b60008083601f84011261064857600080fd5b50813567ffffffffffffffff81111561066057600080fd5b60208301915083602082850101111561067857600080fd5b9250929050565b60008060008060008060008060008060c08b8d03121561069e57600080fd5b8a3599506106ae60208c01610626565b985060408b013567ffffffffffffffff808211156106cb57600080fd5b6106d78e838f01610636565b909a50985060608d01359150808211156106f057600080fd5b6106fc8e838f01610636565b909850965060808d013591508082111561071557600080fd5b6107218e838f01610636565b909650945060a08d013591508082111561073a57600080fd5b506107478d828e01610636565b915080935050809150509295989b9194979a5092959850565b600080600080600080600080600060c08a8c03121561077e57600080fd5b8935985060208a013561079081610601565b975060408a0135965060608a013567ffffffffffffffff808211156107b457600080fd5b6107c08d838e01610636565b909850965060808c01359150808211156107d957600080fd5b6107e58d838e01610636565b909650945060a08c01359150808211156107fe57600080fd5b5061080b8c828d01610636565b915080935050809150509295985092959850929598565b8183823760009101908152919050565b818352818160208501375060006020828401015260006020601f19601f840116840101905092915050565b87815260806020820152600061087760808301888a610832565b828103604084015261088a818789610832565b9050828103606084015261089f818587610832565b9a9950505050505050505050565b6000815180845260005b818110156108d3576020818501810151868301820152016108b7565b506000602082860101526020601f19601f83011685010191505092915050565b84815260606020820152600061090c60608301866108ad565b828103604084015261091f818587610832565b979650505050505050565b60006020828403121561093c57600080fd5b5051919050565b85815260606020820152600061095d606083018688610832565b8281036040840152610970818587610832565b98975050505050505050565b86815285602082015260806040820152600061099c608083018688610832565b82810360608401526109af818587610832565b9998505050505050505050565b8481528360208201526060604082015260006109dc606083018486610832565b9695505050505050565b8481528360208201528260408201526080606082015260006109dc60808301846108ad565b600060208284031215610a1d57600080fd5b81516105fa8161060156fea264697066735822122089762cac90a34ac40feffe806455f6f4b550a8546862681278b18e064903415c64736f6c63430008130033",
  "linkReferences": {},
  "deployedLinkReferences": {}
}