{
  "_format": "hh-sol-artifact-1",
  "contractName": "OptiDomains",
  "sourceName": "contracts/wrapper/OptiDomains.sol",
  "abi": [
    {
      "inputs": [
        {
          "internalType": "contract ENS",
          "name": "_ens",
          "type": "address"
        },
        {
          "internalType": "contract IBaseRegistrar",
          "name": "_registrar",
          "type": "address"
        },
        {
          "internalType": "contract IMetadataService",
          "name": "_metadataService",
          "type": "address"
        },
        {
          "internalType": "string",
          "name": "_ethNode",
          "type": "string"
        }
      ],
      "stateMutability": "nonpayable",
      "type": "constructor"
    },
    {
      "inputs": [],
      "name": "CannotUpgrade",
      "type": "error"
    },
    {
      "inputs": [],
      "name": "IncompatibleParent",
      "type": "error"
    },
    {
      "inputs": [
        {
          "internalType": "address",
          "name": "owner",
          "type": "address"
        }
      ],
      "name": "IncorrectTargetOwner",
      "type": "error"
    },
    {
      "inputs": [],
      "name": "IncorrectTokenType",
      "type": "error"
    },
    {
      "inputs": [
        {
          "internalType": "bytes32",
          "name": "labelHash",
          "type": "bytes32"
        },
        {
          "internalType": "bytes32",
          "name": "expectedLabelhash",
          "type": "bytes32"
        }
      ],
      "name": "LabelMismatch",
      "type": "error"
    },
    {
      "inputs": [
        {
          "internalType": "string",
          "name": "label",
          "type": "string"
        }
      ],
      "name": "LabelTooLong",
      "type": "error"
    },
    {
      "inputs": [],
      "name": "LabelTooShort",
      "type": "error"
    },
    {
      "inputs": [],
      "name": "NameIsNotWrapped",
      "type": "error"
    },
    {
      "inputs": [
        {
          "internalType": "bytes32",
          "name": "node",
          "type": "bytes32"
        }
      ],
      "name": "OperationProhibited",
      "type": "error"
    },
    {
      "inputs": [
        {
          "internalType": "bytes32",
          "name": "node",
          "type": "bytes32"
        },
        {
          "internalType": "address",
          "name": "addr",
          "type": "address"
        }
      ],
      "name": "Unauthorised",
      "type": "error"
    },
    {
      "anonymous": false,
      "inputs": [
        {
          "indexed": true,
          "internalType": "address",
          "name": "owner",
          "type": "address"
        },
        {
          "indexed": true,
          "internalType": "address",
          "name": "approved",
          "type": "address"
        },
        {
          "indexed": true,
          "internalType": "uint256",
          "name": "tokenId",
          "type": "uint256"
        }
      ],
      "name": "Approval",
      "type": "event"
    },
    {
      "anonymous": false,
      "inputs": [
        {
          "indexed": true,
          "internalType": "address",
          "name": "account",
          "type": "address"
        },
        {
          "indexed": true,
          "internalType": "address",
          "name": "operator",
          "type": "address"
        },
        {
          "indexed": false,
          "internalType": "bool",
          "name": "approved",
          "type": "bool"
        }
      ],
      "name": "ApprovalForAll",
      "type": "event"
    },
    {
      "anonymous": false,
      "inputs": [
        {
          "indexed": true,
          "internalType": "address",
          "name": "controller",
          "type": "address"
        },
        {
          "indexed": false,
          "internalType": "bool",
          "name": "active",
          "type": "bool"
        }
      ],
      "name": "ControllerChanged",
      "type": "event"
    },
    {
      "anonymous": false,
      "inputs": [
        {
          "indexed": true,
          "internalType": "bytes32",
          "name": "node",
          "type": "bytes32"
        },
        {
          "indexed": false,
          "internalType": "uint64",
          "name": "expiry",
          "type": "uint64"
        }
      ],
      "name": "ExpiryExtended",
      "type": "event"
    },
    {
      "anonymous": false,
      "inputs": [
        {
          "indexed": true,
          "internalType": "bytes32",
          "name": "node",
          "type": "bytes32"
        },
        {
          "indexed": false,
          "internalType": "uint32",
          "name": "fuses",
          "type": "uint32"
        }
      ],
      "name": "FusesSet",
      "type": "event"
    },
    {
      "anonymous": false,
      "inputs": [
        {
          "indexed": true,
          "internalType": "bytes32",
          "name": "node",
          "type": "bytes32"
        },
        {
          "indexed": false,
          "internalType": "address",
          "name": "owner",
          "type": "address"
        }
      ],
      "name": "NameUnwrapped",
      "type": "event"
    },
    {
      "anonymous": false,
      "inputs": [
        {
          "indexed": true,
          "internalType": "bytes32",
          "name": "node",
          "type": "bytes32"
        },
        {
          "indexed": false,
          "internalType": "bytes",
          "name": "name",
          "type": "bytes"
        },
        {
          "indexed": false,
          "internalType": "address",
          "name": "owner",
          "type": "address"
        },
        {
          "indexed": false,
          "internalType": "uint32",
          "name": "fuses",
          "type": "uint32"
        },
        {
          "indexed": false,
          "internalType": "uint64",
          "name": "expiry",
          "type": "uint64"
        }
      ],
      "name": "NameWrapped",
      "type": "event"
    },
    {
      "anonymous": false,
      "inputs": [
        {
          "indexed": true,
          "internalType": "address",
          "name": "previousOwner",
          "type": "address"
        },
        {
          "indexed": true,
          "internalType": "address",
          "name": "newOwner",
          "type": "address"
        }
      ],
      "name": "OwnershipTransferred",
      "type": "event"
    },
    {
      "anonymous": false,
      "inputs": [
        {
          "indexed": true,
          "internalType": "address",
          "name": "from",
          "type": "address"
        },
        {
          "indexed": true,
          "internalType": "address",
          "name": "to",
          "type": "address"
        },
        {
          "indexed": true,
          "internalType": "uint256",
          "name": "tokenId",
          "type": "uint256"
        }
      ],
      "name": "Transfer",
      "type": "event"
    },
    {
      "anonymous": false,
      "inputs": [
        {
          "indexed": true,
          "internalType": "address",
          "name": "operator",
          "type": "address"
        },
        {
          "indexed": true,
          "internalType": "address",
          "name": "from",
          "type": "address"
        },
        {
          "indexed": true,
          "internalType": "address",
          "name": "to",
          "type": "address"
        },
        {
          "indexed": false,
          "internalType": "uint256[]",
          "name": "ids",
          "type": "uint256[]"
        },
        {
          "indexed": false,
          "internalType": "uint256[]",
          "name": "values",
          "type": "uint256[]"
        }
      ],
      "name": "TransferBatch",
      "type": "event"
    },
    {
      "anonymous": false,
      "inputs": [
        {
          "indexed": true,
          "internalType": "address",
          "name": "operator",
          "type": "address"
        },
        {
          "indexed": true,
          "internalType": "address",
          "name": "from",
          "type": "address"
        },
        {
          "indexed": true,
          "internalType": "address",
          "name": "to",
          "type": "address"
        },
        {
          "indexed": false,
          "internalType": "uint256",
          "name": "id",
          "type": "uint256"
        },
        {
          "indexed": false,
          "internalType": "uint256",
          "name": "value",
          "type": "uint256"
        }
      ],
      "name": "TransferSingle",
      "type": "event"
    },
    {
      "anonymous": false,
      "inputs": [
        {
          "indexed": false,
          "internalType": "string",
          "name": "value",
          "type": "string"
        },
        {
          "indexed": true,
          "internalType": "uint256",
          "name": "id",
          "type": "uint256"
        }
      ],
      "name": "URI",
      "type": "event"
    },
    {
      "inputs": [
        {
          "internalType": "uint256",
          "name": "",
          "type": "uint256"
        }
      ],
      "name": "_tokens",
      "outputs": [
        {
          "internalType": "uint256",
          "name": "",
          "type": "uint256"
        }
      ],
      "stateMutability": "view",
      "type": "function"
    },
    {
      "inputs": [
        {
          "internalType": "bytes32",
          "name": "node",
          "type": "bytes32"
        },
        {
          "internalType": "uint32",
          "name": "fuseMask",
          "type": "uint32"
        }
      ],
      "name": "allFusesBurned",
      "outputs": [
        {
          "internalType": "bool",
          "name": "",
          "type": "bool"
        }
      ],
      "stateMutability": "view",
      "type": "function"
    },
    {
      "inputs": [
        {
          "internalType": "address",
          "name": "to",
          "type": "address"
        },
        {
          "internalType": "uint256",
          "name": "tokenId",
          "type": "uint256"
        }
      ],
      "name": "approve",
      "outputs": [],
      "stateMutability": "nonpayable",
      "type": "function"
    },
    {
      "inputs": [
        {
          "internalType": "address",
          "name": "account",
          "type": "address"
        },
        {
          "internalType": "uint256",
          "name": "id",
          "type": "uint256"
        }
      ],
      "name": "balanceOf",
      "outputs": [
        {
          "internalType": "uint256",
          "name": "",
          "type": "uint256"
        }
      ],
      "stateMutability": "view",
      "type": "function"
    },
    {
      "inputs": [
        {
          "internalType": "address",
          "name": "owner",
          "type": "address"
        }
      ],
      "name": "balanceOf",
      "outputs": [
        {
          "internalType": "uint256",
          "name": "",
          "type": "uint256"
        }
      ],
      "stateMutability": "view",
      "type": "function"
    },
    {
      "inputs": [
        {
          "internalType": "address[]",
          "name": "accounts",
          "type": "address[]"
        },
        {
          "internalType": "uint256[]",
          "name": "ids",
          "type": "uint256[]"
        }
      ],
      "name": "balanceOfBatch",
      "outputs": [
        {
          "internalType": "uint256[]",
          "name": "",
          "type": "uint256[]"
        }
      ],
      "stateMutability": "view",
      "type": "function"
    },
    {
      "inputs": [
        {
          "internalType": "bytes32",
          "name": "node",
          "type": "bytes32"
        },
        {
          "internalType": "address",
          "name": "addr",
          "type": "address"
        }
      ],
      "name": "canExtendSubnames",
      "outputs": [
        {
          "internalType": "bool",
          "name": "",
          "type": "bool"
        }
      ],
      "stateMutability": "view",
      "type": "function"
    },
    {
      "inputs": [
        {
          "internalType": "bytes32",
          "name": "node",
          "type": "bytes32"
        },
        {
          "internalType": "address",
          "name": "addr",
          "type": "address"
        }
      ],
      "name": "canModifyName",
      "outputs": [
        {
          "internalType": "bool",
          "name": "",
          "type": "bool"
        }
      ],
      "stateMutability": "view",
      "type": "function"
    },
    {
      "inputs": [],
      "name": "contractURI",
      "outputs": [
        {
          "internalType": "string",
          "name": "",
          "type": "string"
        }
      ],
      "stateMutability": "view",
      "type": "function"
    },
    {
      "inputs": [
        {
          "internalType": "address",
          "name": "",
          "type": "address"
        }
      ],
      "name": "controllers",
      "outputs": [
        {
          "internalType": "bool",
          "name": "",
          "type": "bool"
        }
      ],
      "stateMutability": "view",
      "type": "function"
    },
    {
      "inputs": [],
      "name": "ens",
      "outputs": [
        {
          "internalType": "contract ENS",
          "name": "",
          "type": "address"
        }
      ],
      "stateMutability": "view",
      "type": "function"
    },
    {
      "inputs": [
        {
          "internalType": "bytes32",
          "name": "parentNode",
          "type": "bytes32"
        },
        {
          "internalType": "bytes32",
          "name": "labelhash",
          "type": "bytes32"
        },
        {
          "internalType": "uint64",
          "name": "expiry",
          "type": "uint64"
        }
      ],
      "name": "extendExpiry",
      "outputs": [
        {
          "internalType": "uint64",
          "name": "",
          "type": "uint64"
        }
      ],
      "stateMutability": "nonpayable",
      "type": "function"
    },
    {
      "inputs": [
        {
          "internalType": "uint256",
          "name": "id",
          "type": "uint256"
        }
      ],
      "name": "getApproved",
      "outputs": [
        {
          "internalType": "address",
          "name": "operator",
          "type": "address"
        }
      ],
      "stateMutability": "view",
      "type": "function"
    },
    {
      "inputs": [
        {
          "internalType": "uint256",
          "name": "id",
          "type": "uint256"
        }
      ],
      "name": "getData",
      "outputs": [
        {
          "internalType": "address",
          "name": "owner",
          "type": "address"
        },
        {
          "internalType": "uint32",
          "name": "fuses",
          "type": "uint32"
        },
        {
          "internalType": "uint64",
          "name": "expiry",
          "type": "uint64"
        }
      ],
      "stateMutability": "view",
      "type": "function"
    },
    {
      "inputs": [
        {
          "internalType": "address",
          "name": "account",
          "type": "address"
        },
        {
          "internalType": "address",
          "name": "operator",
          "type": "address"
        }
      ],
      "name": "isApprovedForAll",
      "outputs": [
        {
          "internalType": "bool",
          "name": "",
          "type": "bool"
        }
      ],
      "stateMutability": "view",
      "type": "function"
    },
    {
      "inputs": [
        {
          "internalType": "bytes32",
          "name": "parentNode",
          "type": "bytes32"
        },
        {
          "internalType": "bytes32",
          "name": "labelhash",
          "type": "bytes32"
        }
      ],
      "name": "isWrapped",
      "outputs": [
        {
          "internalType": "bool",
          "name": "",
          "type": "bool"
        }
      ],
      "stateMutability": "view",
      "type": "function"
    },
    {
      "inputs": [
        {
          "internalType": "bytes32",
          "name": "node",
          "type": "bytes32"
        }
      ],
      "name": "isWrapped",
      "outputs": [
        {
          "internalType": "bool",
          "name": "",
          "type": "bool"
        }
      ],
      "stateMutability": "view",
      "type": "function"
    },
    {
      "inputs": [],
      "name": "metadataService",
      "outputs": [
        {
          "internalType": "contract IMetadataService",
          "name": "",
          "type": "address"
        }
      ],
      "stateMutability": "view",
      "type": "function"
    },
    {
      "inputs": [],
      "name": "name",
      "outputs": [
        {
          "internalType": "string",
          "name": "",
          "type": "string"
        }
      ],
      "stateMutability": "view",
      "type": "function"
    },
    {
      "inputs": [
        {
          "internalType": "bytes32",
          "name": "",
          "type": "bytes32"
        }
      ],
      "name": "names",
      "outputs": [
        {
          "internalType": "bytes",
          "name": "",
          "type": "bytes"
        }
      ],
      "stateMutability": "view",
      "type": "function"
    },
    {
      "inputs": [
        {
          "internalType": "address",
          "name": "to",
          "type": "address"
        },
        {
          "internalType": "address",
          "name": "",
          "type": "address"
        },
        {
          "internalType": "uint256",
          "name": "tokenId",
          "type": "uint256"
        },
        {
          "internalType": "bytes",
          "name": "data",
          "type": "bytes"
        }
      ],
      "name": "onERC721Received",
      "outputs": [
        {
          "internalType": "bytes4",
          "name": "",
          "type": "bytes4"
        }
      ],
      "stateMutability": "nonpayable",
      "type": "function"
    },
    {
      "inputs": [],
      "name": "owner",
      "outputs": [
        {
          "internalType": "address",
          "name": "",
          "type": "address"
        }
      ],
      "stateMutability": "view",
      "type": "function"
    },
    {
      "inputs": [
        {
          "internalType": "uint256",
          "name": "id",
          "type": "uint256"
        }
      ],
      "name": "ownerOf",
      "outputs": [
        {
          "internalType": "address",
          "name": "owner",
          "type": "address"
        }
      ],
      "stateMutability": "view",
      "type": "function"
    },
    {
      "inputs": [
        {
          "internalType": "address",
          "name": "_token",
          "type": "address"
        },
        {
          "internalType": "address",
          "name": "_to",
          "type": "address"
        },
        {
          "internalType": "uint256",
          "name": "_amount",
          "type": "uint256"
        }
      ],
      "name": "recoverFunds",
      "outputs": [],
      "stateMutability": "nonpayable",
      "type": "function"
    },
    {
      "inputs": [
        {
          "internalType": "string",
          "name": "label",
          "type": "string"
        },
        {
          "internalType": "address",
          "name": "wrappedOwner",
          "type": "address"
        },
        {
          "internalType": "uint256",
          "name": "duration",
          "type": "uint256"
        },
        {
          "internalType": "address",
          "name": "resolver",
          "type": "address"
        },
        {
          "internalType": "uint16",
          "name": "ownerControlledFuses",
          "type": "uint16"
        }
      ],
      "name": "registerAndWrapETH2LD",
      "outputs": [
        {
          "internalType": "uint256",
          "name": "registrarExpiry",
          "type": "uint256"
        }
      ],
      "stateMutability": "nonpayable",
      "type": "function"
    },
    {
      "inputs": [],
      "name": "registrar",
      "outputs": [
        {
          "internalType": "contract IBaseRegistrar",
          "name": "",
          "type": "address"
        }
      ],
      "stateMutability": "view",
      "type": "function"
    },
    {
      "inputs": [
        {
          "internalType": "uint256",
          "name": "tokenId",
          "type": "uint256"
        },
        {
          "internalType": "uint256",
          "name": "duration",
          "type": "uint256"
        }
      ],
      "name": "renew",
      "outputs": [
        {
          "internalType": "uint256",
          "name": "expires",
          "type": "uint256"
        }
      ],
      "stateMutability": "nonpayable",
      "type": "function"
    },
    {
      "inputs": [],
      "name": "renounceOwnership",
      "outputs": [],
      "stateMutability": "nonpayable",
      "type": "function"
    },
    {
      "inputs": [
        {
          "internalType": "address",
          "name": "from",
          "type": "address"
        },
        {
          "internalType": "address",
          "name": "to",
          "type": "address"
        },
        {
          "internalType": "uint256[]",
          "name": "ids",
          "type": "uint256[]"
        },
        {
          "internalType": "uint256[]",
          "name": "amounts",
          "type": "uint256[]"
        },
        {
          "internalType": "bytes",
          "name": "data",
          "type": "bytes"
        }
      ],
      "name": "safeBatchTransferFrom",
      "outputs": [],
      "stateMutability": "nonpayable",
      "type": "function"
    },
    {
      "inputs": [
        {
          "internalType": "address",
          "name": "from",
          "type": "address"
        },
        {
          "internalType": "address",
          "name": "to",
          "type": "address"
        },
        {
          "internalType": "uint256",
          "name": "tokenId",
          "type": "uint256"
        }
      ],
      "name": "safeTransferFrom",
      "outputs": [],
      "stateMutability": "nonpayable",
      "type": "function"
    },
    {
      "inputs": [
        {
          "internalType": "address",
          "name": "from",
          "type": "address"
        },
        {
          "internalType": "address",
          "name": "to",
          "type": "address"
        },
        {
          "internalType": "uint256",
          "name": "tokenId",
          "type": "uint256"
        },
        {
          "internalType": "bytes",
          "name": "data",
          "type": "bytes"
        }
      ],
      "name": "safeTransferFrom",
      "outputs": [],
      "stateMutability": "nonpayable",
      "type": "function"
    },
    {
      "inputs": [
        {
          "internalType": "address",
          "name": "from",
          "type": "address"
        },
        {
          "internalType": "address",
          "name": "to",
          "type": "address"
        },
        {
          "internalType": "uint256",
          "name": "id",
          "type": "uint256"
        },
        {
          "internalType": "uint256",
          "name": "amount",
          "type": "uint256"
        },
        {
          "internalType": "bytes",
          "name": "data",
          "type": "bytes"
        }
      ],
      "name": "safeTransferFrom",
      "outputs": [],
      "stateMutability": "nonpayable",
      "type": "function"
    },
    {
      "inputs": [
        {
          "internalType": "address",
          "name": "operator",
          "type": "address"
        },
        {
          "internalType": "bool",
          "name": "approved",
          "type": "bool"
        }
      ],
      "name": "setApprovalForAll",
      "outputs": [],
      "stateMutability": "nonpayable",
      "type": "function"
    },
    {
      "inputs": [
        {
          "internalType": "bytes32",
          "name": "parentNode",
          "type": "bytes32"
        },
        {
          "internalType": "bytes32",
          "name": "labelhash",
          "type": "bytes32"
        },
        {
          "internalType": "uint32",
          "name": "fuses",
          "type": "uint32"
        },
        {
          "internalType": "uint64",
          "name": "expiry",
          "type": "uint64"
        }
      ],
      "name": "setChildFuses",
      "outputs": [],
      "stateMutability": "nonpayable",
      "type": "function"
    },
    {
      "inputs": [
        {
          "internalType": "address",
          "name": "controller",
          "type": "address"
        },
        {
          "internalType": "bool",
          "name": "active",
          "type": "bool"
        }
      ],
      "name": "setController",
      "outputs": [],
      "stateMutability": "nonpayable",
      "type": "function"
    },
    {
      "inputs": [
        {
          "internalType": "bytes32",
          "name": "node",
          "type": "bytes32"
        },
        {
          "internalType": "uint16",
          "name": "ownerControlledFuses",
          "type": "uint16"
        }
      ],
      "name": "setFuses",
      "outputs": [
        {
          "internalType": "uint32",
          "name": "",
          "type": "uint32"
        }
      ],
      "stateMutability": "nonpayable",
      "type": "function"
    },
    {
      "inputs": [
        {
          "internalType": "contract IMetadataService",
          "name": "_metadataService",
          "type": "address"
        }
      ],
      "name": "setMetadataService",
      "outputs": [],
      "stateMutability": "nonpayable",
      "type": "function"
    },
    {
      "inputs": [
        {
          "internalType": "bytes32",
          "name": "node",
          "type": "bytes32"
        },
        {
          "internalType": "address",
          "name": "owner",
          "type": "address"
        },
        {
          "internalType": "address",
          "name": "resolver",
          "type": "address"
        },
        {
          "internalType": "uint64",
          "name": "ttl",
          "type": "uint64"
        }
      ],
      "name": "setRecord",
      "outputs": [],
      "stateMutability": "nonpayable",
      "type": "function"
    },
    {
      "inputs": [
        {
          "internalType": "bytes32",
          "name": "node",
          "type": "bytes32"
        },
        {
          "internalType": "address",
          "name": "resolver",
          "type": "address"
        }
      ],
      "name": "setResolver",
      "outputs": [],
      "stateMutability": "nonpayable",
      "type": "function"
    },
    {
      "inputs": [
        {
          "internalType": "bytes32",
          "name": "parentNode",
          "type": "bytes32"
        },
        {
          "internalType": "string",
          "name": "label",
          "type": "string"
        },
        {
          "internalType": "address",
          "name": "owner",
          "type": "address"
        },
        {
          "internalType": "uint32",
          "name": "fuses",
          "type": "uint32"
        },
        {
          "internalType": "uint64",
          "name": "expiry",
          "type": "uint64"
        }
      ],
      "name": "setSubnodeOwner",
      "outputs": [
        {
          "internalType": "bytes32",
          "name": "node",
          "type": "bytes32"
        }
      ],
      "stateMutability": "nonpayable",
      "type": "function"
    },
    {
      "inputs": [
        {
          "internalType": "bytes32",
          "name": "parentNode",
          "type": "bytes32"
        },
        {
          "internalType": "string",
          "name": "label",
          "type": "string"
        },
        {
          "internalType": "address",
          "name": "owner",
          "type": "address"
        },
        {
          "internalType": "address",
          "name": "resolver",
          "type": "address"
        },
        {
          "internalType": "uint64",
          "name": "ttl",
          "type": "uint64"
        },
        {
          "internalType": "uint32",
          "name": "fuses",
          "type": "uint32"
        },
        {
          "internalType": "uint64",
          "name": "expiry",
          "type": "uint64"
        }
      ],
      "name": "setSubnodeRecord",
      "outputs": [
        {
          "internalType": "bytes32",
          "name": "node",
          "type": "bytes32"
        }
      ],
      "stateMutability": "nonpayable",
      "type": "function"
    },
    {
      "inputs": [
        {
          "internalType": "bytes32",
          "name": "node",
          "type": "bytes32"
        },
        {
          "internalType": "uint64",
          "name": "ttl",
          "type": "uint64"
        }
      ],
      "name": "setTTL",
      "outputs": [],
      "stateMutability": "nonpayable",
      "type": "function"
    },
    {
      "inputs": [
        {
          "internalType": "contract INameWrapperUpgrade",
          "name": "_upgradeAddress",
          "type": "address"
        }
      ],
      "name": "setUpgradeContract",
      "outputs": [],
      "stateMutability": "nonpayable",
      "type": "function"
    },
    {
      "inputs": [
        {
          "internalType": "bytes4",
          "name": "interfaceId",
          "type": "bytes4"
        }
      ],
      "name": "supportsInterface",
      "outputs": [
        {
          "internalType": "bool",
          "name": "",
          "type": "bool"
        }
      ],
      "stateMutability": "view",
      "type": "function"
    },
    {
      "inputs": [],
      "name": "symbol",
      "outputs": [
        {
          "internalType": "string",
          "name": "",
          "type": "string"
        }
      ],
      "stateMutability": "view",
      "type": "function"
    },
    {
      "inputs": [
        {
          "internalType": "uint256",
          "name": "_tokenId",
          "type": "uint256"
        }
      ],
      "name": "tokenURI",
      "outputs": [
        {
          "internalType": "string",
          "name": "",
          "type": "string"
        }
      ],
      "stateMutability": "view",
      "type": "function"
    },
    {
      "inputs": [
        {
          "internalType": "address",
          "name": "from",
          "type": "address"
        },
        {
          "internalType": "address",
          "name": "to",
          "type": "address"
        },
        {
          "internalType": "uint256",
          "name": "tokenId",
          "type": "uint256"
        }
      ],
      "name": "transferFrom",
      "outputs": [],
      "stateMutability": "nonpayable",
      "type": "function"
    },
    {
      "inputs": [
        {
          "internalType": "address",
          "name": "newOwner",
          "type": "address"
        }
      ],
      "name": "transferOwnership",
      "outputs": [],
      "stateMutability": "nonpayable",
      "type": "function"
    },
    {
      "inputs": [
        {
          "internalType": "bytes32",
          "name": "parentNode",
          "type": "bytes32"
        },
        {
          "internalType": "bytes32",
          "name": "labelhash",
          "type": "bytes32"
        },
        {
          "internalType": "address",
          "name": "controller",
          "type": "address"
        }
      ],
      "name": "unwrap",
      "outputs": [],
      "stateMutability": "nonpayable",
      "type": "function"
    },
    {
      "inputs": [
        {
          "internalType": "bytes32",
          "name": "labelhash",
          "type": "bytes32"
        },
        {
          "internalType": "address",
          "name": "registrant",
          "type": "address"
        },
        {
          "internalType": "address",
          "name": "controller",
          "type": "address"
        }
      ],
      "name": "unwrapETH2LD",
      "outputs": [],
      "stateMutability": "nonpayable",
      "type": "function"
    },
    {
      "inputs": [
        {
          "internalType": "bytes",
          "name": "name",
          "type": "bytes"
        },
        {
          "internalType": "bytes",
          "name": "extraData",
          "type": "bytes"
        }
      ],
      "name": "upgrade",
      "outputs": [],
      "stateMutability": "nonpayable",
      "type": "function"
    },
    {
      "inputs": [],
      "name": "upgradeContract",
      "outputs": [
        {
          "internalType": "contract INameWrapperUpgrade",
          "name": "",
          "type": "address"
        }
      ],
      "stateMutability": "view",
      "type": "function"
    },
    {
      "inputs": [
        {
          "internalType": "uint256",
          "name": "tokenId",
          "type": "uint256"
        }
      ],
      "name": "uri",
      "outputs": [
        {
          "internalType": "string",
          "name": "",
          "type": "string"
        }
      ],
      "stateMutability": "view",
      "type": "function"
    },
    {
      "inputs": [
        {
          "internalType": "bytes",
          "name": "name",
          "type": "bytes"
        },
        {
          "internalType": "address",
          "name": "wrappedOwner",
          "type": "address"
        },
        {
          "internalType": "address",
          "name": "resolver",
          "type": "address"
        }
      ],
      "name": "wrap",
      "outputs": [],
      "stateMutability": "nonpayable",
      "type": "function"
    },
    {
      "inputs": [
        {
          "internalType": "string",
          "name": "label",
          "type": "string"
        },
        {
          "internalType": "address",
          "name": "wrappedOwner",
          "type": "address"
        },
        {
          "internalType": "uint16",
          "name": "ownerControlledFuses",
          "type": "uint16"
        },
        {
          "internalType": "address",
          "name": "resolver",
          "type": "address"
        }
      ],
      "name": "wrapETH2LD",
      "outputs": [
        {
          "internalType": "uint64",
          "name": "expiry",
          "type": "uint64"
        }
      ],
      "stateMutability": "nonpayable",
      "type": "function"
    }
  ],
  "bytecode": "0x6101006040523480156200001257600080fd5b506040516200689c3803806200689c833981016040819052620000359162000478565b838383838383838383336200005081620003d3565b620003d3565b6040516302571be360e01b81527f91d1777781884d03a6757a803996e38de2a42967fb37eeaca72729271025a9e260048201526000906001600160a01b038416906302571be390602401602060405180830381865afa158015620000b8573d6000803e3d6000fd5b505050506040513d601f19601f82011682018060405250810190620000de919062000571565b604051630f41a04d60e11b81526001600160a01b03848116600483015291925090821690631e83409a906024016020604051808303816000875af11580156200012b573d6000803e3d6000fd5b505050506040513d601f19601f8201168201806040525081019062000151919062000598565b505050506001600160a01b0384811660805283811660a052600580546001600160a01b03191691841691909117905580516020808301919091206040805160009381019390935282015260600160408051808303601f19018152918152815160209283012060c081905283518484012060e052600090815260019092529020600163fffeffff60a01b03199055600080526001602052600163fffeffff60a01b03197fa6eef7e35abe7026729641147f7915573c7e97b47efa546f5f6e3230263bcb4955604080518082019091526001815260006020808301829052908052600690527f54cdd369e4e8a8515e52ca72ec816c2101831ad1f18bf44102ed171459c9b4f89062000262908262000641565b50806040516020016200027691906200070d565b60408051601f1981840301815291815260c051600090815260066020522090620002a1908262000641565b5060c0516000908152600660205260409020805460029190620002c490620005b2565b620002d19291506200073d565b60f81b6006600060c051815260200190815260200160002060008154620002f890620005b2565b811062000309576200030962000765565b815460011615620003295790600052602060002090602091828204019190065b601f036101000a81548160ff02191690600160f81b84040217905550620003c16080516001600160a01b03166302571be36000801b6040518263ffffffff1660e01b81526004016200037d91815260200190565b602060405180830381865afa1580156200039b573d6000803e3d6000fd5b505050506040513d601f19601f820116820180604052508101906200004a919062000571565b5050505050505050505050506200077b565b600080546001600160a01b038381166001600160a01b0319831681178455604051919092169283917f8be0079c531659141344cd1fd0a4f28419497f9722a3daafe3b4186f6b6457e09190a35050565b6001600160a01b03811681146200043957600080fd5b50565b634e487b7160e01b600052604160045260246000fd5b60005b838110156200046f57818101518382015260200162000455565b50506000910152565b600080600080608085870312156200048f57600080fd5b84516200049c8162000423565b6020860151909450620004af8162000423565b6040860151909350620004c28162000423565b60608601519092506001600160401b0380821115620004e057600080fd5b818701915087601f830112620004f557600080fd5b8151818111156200050a576200050a6200043c565b604051601f8201601f19908116603f011681019083821181831017156200053557620005356200043c565b816040528281528a60208487010111156200054f57600080fd5b6200056283602083016020880162000452565b979a9699509497505050505050565b6000602082840312156200058457600080fd5b8151620005918162000423565b9392505050565b600060208284031215620005ab57600080fd5b5051919050565b600181811c90821680620005c757607f821691505b602082108103620005e857634e487b7160e01b600052602260045260246000fd5b50919050565b601f8211156200063c57600081815260208120601f850160051c81016020861015620006175750805b601f850160051c820191505b81811015620006385782815560010162000623565b5050505b505050565b81516001600160401b038111156200065d576200065d6200043c565b62000675816200066e8454620005b2565b84620005ee565b602080601f831160018114620006ad5760008415620006945750858301515b600019600386901b1c1916600185901b17855562000638565b600085815260208120601f198616915b82811015620006de57888601518255948401946001909101908401620006bd565b5085821015620006fd5787850151600019600388901b60f8161c191681555b5050505050600190811b01905550565b60008152600082516200072881600185016020870162000452565b60006001939091019283015250600201919050565b818103818111156200075f57634e487b7160e01b600052601160045260246000fd5b92915050565b634e487b7160e01b600052603260045260246000fd5b60805160a05160c05160e051615fcb620008d1600039600050506000818161196f01528181611a1d01528181611c6d0152818161248701528181612ca401528181612d9401528181612fc8015281816136df015261373901526000818161056601528181610d0101528181610ddb01528181610e6501528181611ab101528181611b4701528181611bf501528181611d1701528181611d8d01528181611e0d01528181612069015281816121a5015281816122e401528181612512015281816125980152612dd80152600081816105b301528181610c8701528181610fd0015281816111a101528181611253015281816113c60152818161222a01528181612369015281816126430152818161283a01528181612b530152818161301f015281816130cd015281816131960152818161320f015281816138570152818161397201528181613b5701526141a80152615fcb6000f3fe608060405234801561001057600080fd5b506004361061036c5760003560e01c80636e5d6ad2116101d3578063c87b56dd11610104578063e8a3d485116100a2578063ed70554d1161007c578063ed70554d14610895578063f242432a146108b5578063f2fde38b146108c8578063fd0cd0d9146108db57600080fd5b8063e8a3d4851461083e578063e985e9c514610846578063eb8ae5301461088257600080fd5b8063d8c9921a116100de578063d8c9921a146107e2578063d9a50c12146107f5578063da8c229e14610808578063e0dba60f1461082b57600080fd5b8063c87b56dd146107a9578063c93ab3fd146107bc578063cf408823146107cf57600080fd5b8063a22cb46511610171578063b6bcad261161014b578063b6bcad261461075d578063b88d4fde14610770578063c475abff14610783578063c658e0861461079657600080fd5b8063a22cb46514610724578063a401498214610737578063adf4960a1461074a57600080fd5b80638b4dfa75116101ad5780638b4dfa75146106b15780638cf8b41e146106c45780638da5cb5b146106d757806395d89b41146106e857600080fd5b80636e5d6ad21461066957806370a0823114610695578063715018a6146106a957600080fd5b806320c38e2b116102ad578063402906fc1161024b5780634e1273f4116102255780634e1273f41461061057806353095467146106305780635d3590d5146106435780636352211e1461065657600080fd5b8063402906fc146105d557806341415eab146105fd57806342842e0e1461053b57600080fd5b80632b20e397116102875780632b20e397146105615780632eb2c2d61461058857806333c69ea91461059b5780633f15457f146105ae57600080fd5b806320c38e2b1461052857806323b872dd1461053b57806324c1af441461054e57600080fd5b80630e4cd7251161031a578063150b7a02116102f4578063150b7a02146104c35780631534e177146104ef5780631896f70a146105025780631f4e15041461051557600080fd5b80630e4cd7251461048a5780630e89341c1461049d57806314ab9038146104b057600080fd5b806306fdde031161034b57806306fdde0314610401578063081812fc1461044a578063095ea7b31461047557600080fd5b8062fdd58e146103715780630178fe3f1461039757806301ffc9a7146103de575b600080fd5b61038461037f366004614dc7565b6108ee565b6040519081526020015b60405180910390f35b6103aa6103a5366004614df3565b610987565b604080516001600160a01b03909416845263ffffffff909216602084015267ffffffffffffffff169082015260600161038e565b6103f16103ec366004614e22565b6109b7565b604051901515815260200161038e565b61043d6040518060400160405280600c81526020017f4f7074692e646f6d61696e73000000000000000000000000000000000000000081525081565b60405161038e9190614e8f565b61045d610458366004614df3565b610a44565b6040516001600160a01b03909116815260200161038e565b610488610483366004614dc7565b610a89565b005b6103f1610498366004614ea2565b610acf565b61043d6104ab366004614df3565b610b69565b6104886104be366004614eef565b610bdb565b6104d66104d1366004614f64565b610cf4565b6040516001600160e01b0319909116815260200161038e565b6104886104fd366004614fd7565b610f06565b610488610510366004614ea2565b610f3d565b60075461045d906001600160a01b031681565b61043d610536366004614df3565b610fff565b610488610549366004614ff4565b611099565b61038461055c366004615110565b6110b6565b61045d7f000000000000000000000000000000000000000000000000000000000000000081565b610488610596366004615238565b6112ca565b6104886105a93660046152e6565b61134f565b61045d7f000000000000000000000000000000000000000000000000000000000000000081565b6105e86105e336600461533e565b611544565b60405163ffffffff909116815260200161038e565b6103f161060b366004614ea2565b6115e6565b61062361061e366004615361565b611643565b60405161038e919061545f565b60055461045d906001600160a01b031681565b610488610651366004614ff4565b61175b565b61045d610664366004614df3565b6117f5565b61067c610677366004615472565b611800565b60405167ffffffffffffffff909116815260200161038e565b6103846106a3366004614fd7565b50600090565b610488611955565b6104886106bf3660046154a7565b611969565b61067c6106d23660046154e9565b611b13565b6000546001600160a01b031661045d565b61043d6040518060400160405280600381526020017f2e6f70000000000000000000000000000000000000000000000000000000000081525081565b610488610732366004615572565b611edf565b6103846107453660046155a0565b611fa3565b6103f1610758366004615621565b61213e565b61048861076b366004614fd7565b612163565b61048861077e366004614f64565b6123cd565b610384610791366004615644565b612411565b6103846107a4366004615666565b612708565b61043d6107b7366004614df3565b612915565b6104886107ca3660046156d9565b612920565b6104886107dd366004615745565b612a91565b6104886107f036600461577d565b612c4a565b6103f1610803366004615644565b612d5a565b6103f1610816366004614fd7565b60046020526000908152604090205460ff1681565b610488610839366004615572565b612e67565b61043d612ecf565b6103f16108543660046157ab565b6001600160a01b03918216600090815260026020908152604080832093909416825291909152205460ff1690565b6104886108903660046157d9565b612eeb565b6103846108a3366004614df3565b60016020526000908152604090205481565b6104886108c3366004615841565b6132b6565b6104886108d6366004614fd7565b613384565b6103f16108e9366004614df3565b613411565b60006001600160a01b03831661094b5760405162461bcd60e51b815260206004820152600260248201527f425100000000000000000000000000000000000000000000000000000000000060448201526064015b60405180910390fd5b6000610956836117f5565b9050836001600160a01b0316816001600160a01b03160361097b576001915050610981565b60009150505b92915050565b60008181526001602052604090205460a081901c60c082901c6109ab8383836134e9565b90959094509092509050565b60006001600160e01b031982167fd82c42d8000000000000000000000000000000000000000000000000000000001480610a0157506001600160e01b03198216630a85bd0160e11b145b80610a3557506001600160e01b031982167f80ac58cd00000000000000000000000000000000000000000000000000000000145b80610981575061098182613520565b600080610a50836117f5565b90506001600160a01b038116610a695750600092915050565b6000838152600360205260409020546001600160a01b03165b9392505050565b6000610a9482610987565b50915050603f196040821601610ac05760405163a2a7201360e01b815260048101839052602401610942565b610aca83836135a2565b505050565b6000808080610add86610987565b925092509250846001600160a01b0316836001600160a01b03161480610b2857506001600160a01b0380841660009081526002602090815260408083209389168352929052205460ff165b80610b4c57506001600160a01b038516610b4187610a44565b6001600160a01b0316145b8015610b5f5750610b5d82826136a0565b155b9695505050505050565b6005546040516303a24d0760e21b8152600481018390526060916001600160a01b031690630e89341c90602401600060405180830381865afa158015610bb3573d6000803e3d6000fd5b505050506040513d6000823e601f3d908101601f1916820160405261098191908101906158aa565b81610be681336115e6565b610c0c5760405163168ab55d60e31b815260048101829052336024820152604401610942565b8260106000610c1a83610987565b5091505063ffffffff8282161615610c485760405163a2a7201360e01b815260048101849052602401610942565b6040517f14ab90380000000000000000000000000000000000000000000000000000000081526004810187905267ffffffffffffffff861660248201527f00000000000000000000000000000000000000000000000000000000000000006001600160a01b0316906314ab9038906044015b600060405180830381600087803b158015610cd457600080fd5b505af1158015610ce8573d6000803e3d6000fd5b50505050505050505050565b6000336001600160a01b037f00000000000000000000000000000000000000000000000000000000000000001614610d58576040517f1931a53800000000000000000000000000000000000000000000000000000000815260040160405180910390fd5b6000808080610d6986880188615922565b83516020850120939750919550935091508890808214610dbf576040517fc65c3ccc0000000000000000000000000000000000000000000000000000000081526004810182905260248101839052604401610942565b604051630a3b53db60e21b8152600481018390523060248201527f00000000000000000000000000000000000000000000000000000000000000006001600160a01b0316906328ed4f6c90604401600060405180830381600087803b158015610e2757600080fd5b505af1158015610e3b573d6000803e3d6000fd5b5050604051636b727d4360e11b8152600481018d9052600092506276a70091506001600160a01b037f0000000000000000000000000000000000000000000000000000000000000000169063d6e4fa8690602401602060405180830381865afa158015610eac573d6000803e3d6000fd5b505050506040513d601f19601f82011682018060405250810190610ed0919061598a565b610eda91906159b9565b9050610eed87878761ffff1684886136d1565b50630a85bd0160e11b9c9b505050505050505050505050565b610f0e6138bd565b6005805473ffffffffffffffffffffffffffffffffffffffff19166001600160a01b0392909216919091179055565b81610f4881336115e6565b610f6e5760405163168ab55d60e31b815260048101829052336024820152604401610942565b8260086000610f7c83610987565b5091505063ffffffff8282161615610faa5760405163a2a7201360e01b815260048101849052602401610942565b604051630c4b7b8560e11b8152600481018790526001600160a01b0386811660248301527f00000000000000000000000000000000000000000000000000000000000000001690631896f70a90604401610cba565b60066020526000908152604090208054611018906159e1565b80601f0160208091040260200160405190810160405280929190818152602001828054611044906159e1565b80156110915780601f1061106657610100808354040283529160200191611091565b820191906000526020600020905b81548152906001019060200180831161107457829003601f168201915b505050505081565b610aca8383836001604051806020016040528060008152506132b6565b6000876110c381336115e6565b6110e95760405163168ab55d60e31b815260048101829052336024820152604401610942565b875160208901206111218a82604080516020808201949094528082019290925280518083038201815260609092019052805191012090565b925061112d8a84613917565b6111378386613a56565b6111428a848b613a89565b5061114f8a848787613ad3565b935061115a83613b19565b611210576040516305ef2c7f60e41b8152600481018b9052602481018290523060448201526001600160a01b03888116606483015267ffffffffffffffff881660848301527f00000000000000000000000000000000000000000000000000000000000000001690635ef2c7f09060a401600060405180830381600087803b1580156111e557600080fd5b505af11580156111f9573d6000803e3d6000fd5b5050505061120b8a848b8b8989613bd2565b6112bd565b6040516305ef2c7f60e41b8152600481018b9052602481018290523060448201526001600160a01b03888116606483015267ffffffffffffffff881660848301527f00000000000000000000000000000000000000000000000000000000000000001690635ef2c7f09060a401600060405180830381600087803b15801561129757600080fd5b505af11580156112ab573d6000803e3d6000fd5b505050506112bd8a848b8b8989613c00565b5050979650505050505050565b6112d78585858585613cc4565b825160005b81811015611346578481815181106112f6576112f6615a1b565b6020026020010151866001600160a01b0316886001600160a01b03167fddf252ad1be2c89b69c2b068fc378daa952ba7f163c4a11628f55a4df523b3ef60405160405180910390a46001016112dc565b50505050505050565b604080516020808201879052818301869052825180830384018152606090920190925280519101206113818184613a56565b6000808061138e84610987565b919450925090506001600160a01b038316158061143d57506040516302571be360e01b81526004810185905230906001600160a01b037f000000000000000000000000000000000000000000000000000000000000000016906302571be390602401602060405180830381865afa15801561140d573d6000803e3d6000fd5b505050506040513d601f19601f820116820180604052508101906114319190615a31565b6001600160a01b031614155b1561145b57604051635374b59960e01b815260040160405180910390fd5b6000806114678a610987565b90935091508a90506114a85761147d86336115e6565b6114a35760405163168ab55d60e31b815260048101879052336024820152604401610942565b6114d8565b6114b28a336115e6565b6114d85760405163168ab55d60e31b8152600481018b9052336024820152604401610942565b6114e3868984613f63565b6114ee878483613f9e565b96506201000084161580159061151257508363ffffffff1688851763ffffffff1614155b156115335760405163a2a7201360e01b815260048101879052602401610942565b96831796610ce886868a868b613fe8565b60008261155181336115e6565b6115775760405163168ab55d60e31b815260048101829052336024820152604401610942565b836002600061158583610987565b5091505063ffffffff82821616156115b35760405163a2a7201360e01b815260048101849052602401610942565b600080806115c08a610987565b9250925092506115d98a84848c61ffff16178485613fe8565b5098975050505050505050565b60008080806115f486610987565b925092509250846001600160a01b0316836001600160a01b03161480610b4c57506001600160a01b0380841660009081526002602090815260408083209389168352929052205460ff16610b4c565b606081518351146116965760405162461bcd60e51b815260206004820152600260248201527f41490000000000000000000000000000000000000000000000000000000000006044820152606401610942565b6000835167ffffffffffffffff8111156116b2576116b2615035565b6040519080825280602002602001820160405280156116db578160200160208202803683370190505b50905060005b8451811015611753576117268582815181106116ff576116ff615a1b565b602002602001015185838151811061171957611719615a1b565b60200260200101516108ee565b82828151811061173857611738615a1b565b602090810291909101015261174c81615a4e565b90506116e1565b509392505050565b6117636138bd565b6040517fa9059cbb0000000000000000000000000000000000000000000000000000000081526001600160a01b0383811660048301526024820183905284169063a9059cbb906044016020604051808303816000875af11580156117cb573d6000803e3d6000fd5b505050506040513d601f19601f820116820180604052508101906117ef9190615a67565b50505050565b600061098182614092565b6040805160208082018690528183018590528251808303840181526060909201909252805191012060009061183481613b19565b61185157604051635374b59960e01b815260040160405180910390fd5b600061185d8633610acf565b905080158015611874575061187282336115e6565b155b1561189b5760405163168ab55d60e31b815260048101839052336024820152604401610942565b600080806118a885610987565b925092509250831580156118bf5750620400008216155b156118e05760405163a2a7201360e01b815260048101869052602401610942565b60006118eb8a610987565b925050506118fa888383613f9e565b97506119088685858b6140a8565b60405167ffffffffffffffff8916815286907ff675815a0817338f93a7da433f6bd5f5542f1029b11b455191ac96c7f6a9b1329060200160405180910390a2509598975050505050505050565b61195d6138bd565b61196760006140f0565b565b604080517f0000000000000000000000000000000000000000000000000000000000000000602080830191909152818301869052825180830384018152606090920190925280519101206119bd81336115e6565b6119e35760405163168ab55d60e31b815260048101829052336024820152604401610942565b306001600160a01b03841603611a1757604051632ca49b0d60e11b81526001600160a01b0384166004820152602401610942565b604080517f000000000000000000000000000000000000000000000000000000000000000060208083019190915281830187905282518083038401815260609092019092528051910120611a6c905b8361414d565b6040517f42842e0e0000000000000000000000000000000000000000000000000000000081523060048201526001600160a01b038481166024830152604482018690527f000000000000000000000000000000000000000000000000000000000000000016906342842e0e90606401600060405180830381600087803b158015611af557600080fd5b505af1158015611b09573d6000803e3d6000fd5b5050505050505050565b6000808686604051611b26929190615a84565b6040519081900381206331a9108f60e11b82526004820181905291506000907f00000000000000000000000000000000000000000000000000000000000000006001600160a01b031690636352211e90602401602060405180830381865afa158015611b96573d6000803e3d6000fd5b505050506040513d601f19601f82011682018060405250810190611bba9190615a31565b90506001600160a01b0381163314801590611c62575060405163e985e9c560e01b81526001600160a01b0382811660048301523360248301527f0000000000000000000000000000000000000000000000000000000000000000169063e985e9c590604401602060405180830381865afa158015611c3c573d6000803e3d6000fd5b505050506040513d601f19601f82011682018060405250810190611c609190615a67565b155b15611cd257604080517f00000000000000000000000000000000000000000000000000000000000000006020808301919091528183018590528251808303840181526060830193849052805191012063168ab55d60e31b909252606481019190915233608482015260a401610942565b6040517f23b872dd0000000000000000000000000000000000000000000000000000000081526001600160a01b038281166004830152306024830152604482018490527f000000000000000000000000000000000000000000000000000000000000000016906323b872dd90606401600060405180830381600087803b158015611d5b57600080fd5b505af1158015611d6f573d6000803e3d6000fd5b5050604051630a3b53db60e21b8152600481018590523060248201527f00000000000000000000000000000000000000000000000000000000000000006001600160a01b031692506328ed4f6c9150604401600060405180830381600087803b158015611ddb57600080fd5b505af1158015611def573d6000803e3d6000fd5b5050604051636b727d4360e11b8152600481018590526276a70092507f00000000000000000000000000000000000000000000000000000000000000006001600160a01b0316915063d6e4fa8690602401602060405180830381865afa158015611e5d573d6000803e3d6000fd5b505050506040513d601f19601f82011682018060405250810190611e81919061598a565b611e8b91906159b9565b9250611ed488888080601f0160208091040260200160405190810160405280939291908181526020018383808284376000920191909152508a9250505061ffff881686886136d1565b505095945050505050565b6001600160a01b0382163303611f375760405162461bcd60e51b815260206004820152600360248201527f53415300000000000000000000000000000000000000000000000000000000006044820152606401610942565b3360008181526002602090815260408083206001600160a01b03871680855290835292819020805460ff191686151590811790915590519081529192917f17307eab39ab6107e8899845ad3d59bd9653f200f220920489ca2b5937696c31910160405180910390a35050565b3360009081526004602052604081205460ff166120135760405162461bcd60e51b815260206004820152602860248201527f436f6e74726f6c6c61626c653a2043616c6c6572206973206e6f74206120636f604482015267373a3937b63632b960c11b6064820152608401610942565b60008787604051612025929190615a84565b6040519081900381207ffca247ac000000000000000000000000000000000000000000000000000000008252600482018190523060248301526044820187905291507f00000000000000000000000000000000000000000000000000000000000000006001600160a01b03169063fca247ac906064016020604051808303816000875af11580156120ba573d6000803e3d6000fd5b505050506040513d601f19601f820116820180604052508101906120de919061598a565b915061213388888080601f0160208091040260200160405190810160405280939291908181526020018383808284376000920191909152508a9250505061ffff861661212d6276a700876159b9565b886136d1565b509695505050505050565b60008061214a84610987565b50841663ffffffff908116908516149250505092915050565b61216b6138bd565b6007546001600160a01b03161561228b5760075460405163a22cb46560e01b81526001600160a01b039182166004820152600060248201527f00000000000000000000000000000000000000000000000000000000000000009091169063a22cb46590604401600060405180830381600087803b1580156121eb57600080fd5b505af11580156121ff573d6000803e3d6000fd5b505060075460405163a22cb46560e01b81526001600160a01b039182166004820152600060248201527f0000000000000000000000000000000000000000000000000000000000000000909116925063a22cb4659150604401600060405180830381600087803b15801561227257600080fd5b505af1158015612286573d6000803e3d6000fd5b505050505b6007805473ffffffffffffffffffffffffffffffffffffffff19166001600160a01b038316908117909155156123ca5760075460405163a22cb46560e01b81526001600160a01b039182166004820152600160248201527f00000000000000000000000000000000000000000000000000000000000000009091169063a22cb46590604401600060405180830381600087803b15801561232a57600080fd5b505af115801561233e573d6000803e3d6000fd5b505060075460405163a22cb46560e01b81526001600160a01b039182166004820152600160248201527f0000000000000000000000000000000000000000000000000000000000000000909116925063a22cb4659150604401600060405180830381600087803b1580156123b157600080fd5b505af11580156123c5573d6000803e3d6000fd5b505050505b50565b6123c5858585600186868080601f0160208091040260200160405190810160405280939291908181526020018383808284376000920191909152506132b692505050565b3360009081526004602052604081205460ff166124815760405162461bcd60e51b815260206004820152602860248201527f436f6e74726f6c6c61626c653a2043616c6c6572206973206e6f74206120636f604482015267373a3937b63632b960c11b6064820152608401610942565b604080517f0000000000000000000000000000000000000000000000000000000000000000602080830191909152818301869052825180830384018152606090920190925280519101206000906040517fc475abff00000000000000000000000000000000000000000000000000000000815260048101869052602481018590529091506000906001600160a01b037f0000000000000000000000000000000000000000000000000000000000000000169063c475abff906044016020604051808303816000875af115801561255b573d6000803e3d6000fd5b505050506040513d601f19601f8201168201806040525081019061257f919061598a565b6040516331a9108f60e11b8152600481018790529091507f00000000000000000000000000000000000000000000000000000000000000006001600160a01b031690636352211e90602401602060405180830381865afa925050508015612603575060408051601f3d908101601f1916820190925261260091810190615a31565b60015b6126105791506109819050565b6001600160a01b038116301415806126ba57506040516302571be360e01b81526004810184905230906001600160a01b037f000000000000000000000000000000000000000000000000000000000000000016906302571be390602401602060405180830381865afa15801561268a573d6000803e3d6000fd5b505050506040513d601f19601f820116820180604052508101906126ae9190615a31565b6001600160a01b031614155b156126c9575091506109819050565b5060006126d96276a700836159b9565b60008481526001602052604090205490915060a081901c6126fc858383866140a8565b50919695505050505050565b60008661271581336115e6565b61273b5760405163168ab55d60e31b815260048101829052336024820152604401610942565b6000878760405161274d929190615a84565b604051809103902090506127888982604080516020808201949094528082019290925280518083038201815260609092019052805191012090565b92506127948984613917565b61279e8386613a56565b60006127e18a858b8b8080601f016020809104026020016040519081016040528093929190818152602001838380828437600092019190915250613a8992505050565b90506127ef8a858888613ad3565b94506127fa84613b19565b6128c2576040517f06ab5923000000000000000000000000000000000000000000000000000000008152600481018b9052602481018390523060448201527f00000000000000000000000000000000000000000000000000000000000000006001600160a01b0316906306ab5923906064016020604051808303816000875af115801561288b573d6000803e3d6000fd5b505050506040513d601f19601f820116820180604052508101906128af919061598a565b506128bd848289898961423f565b612908565b6129088a858b8b8080601f0160208091040260200160405190810160405280939291908181526020018383808284376000920191909152508d92508c91508b9050613c00565b5050509695505050505050565b606061098182610b69565b6000612966600086868080601f01602080910402602001604051908101604052809392919081815260200183838082843760009201919091525092939250506142819050565b6007549091506001600160a01b03166129ab576040517f24c1d6d400000000000000000000000000000000000000000000000000000000815260040160405180910390fd5b6129b581336115e6565b6129db5760405163168ab55d60e31b815260048101829052336024820152604401610942565b600080806129e884610987565b9194509250905060006129fa85610a44565b9050612a0585614340565b600760009054906101000a90046001600160a01b03166001600160a01b0316639198c2768a8a878787878e8e6040518963ffffffff1660e01b8152600401612a54989796959493929190615abd565b600060405180830381600087803b158015612a6e57600080fd5b505af1158015612a82573d6000803e3d6000fd5b50505050505050505050505050565b83612a9c81336115e6565b612ac25760405163168ab55d60e31b815260048101829052336024820152604401610942565b84601c6000612ad083610987565b5091505063ffffffff8282161615612afe5760405163a2a7201360e01b815260048101849052602401610942565b6040517fcf408823000000000000000000000000000000000000000000000000000000008152600481018990523060248201526001600160a01b03878116604483015267ffffffffffffffff871660648301527f0000000000000000000000000000000000000000000000000000000000000000169063cf40882390608401600060405180830381600087803b158015612b9757600080fd5b505af1158015612bab573d6000803e3d6000fd5b5050506001600160a01b0388169050612c12576000612bc989610987565b509150506201ffff1962020000821601612c0157604051632ca49b0d60e11b81526001600160a01b0389166004820152602401610942565b612c0c89600061414d565b50611b09565b6000612c1d896117f5565b9050612c3f81898b60001c600160405180602001604052806000815250614394565b505050505050505050565b60408051602080820186905281830185905282518083038401815260609092019092528051910120612c7c81336115e6565b612ca25760405163168ab55d60e31b815260048101829052336024820152604401610942565b7f00000000000000000000000000000000000000000000000000000000000000008403612ce25760405163615a470360e01b815260040160405180910390fd5b6001600160a01b0382161580612d0057506001600160a01b03821630145b15612d2957604051632ca49b0d60e11b81526001600160a01b0383166004820152602401610942565b604080516020808201879052818301869052825180830384018152606090920190925280519101206117ef90611a66565b604080516020808201859052818301849052825180830384018152606090920190925280519101206000906000612d9082613b19565b90507f00000000000000000000000000000000000000000000000000000000000000008514612dc25791506109819050565b6040516331a9108f60e11b8152600481018590527f00000000000000000000000000000000000000000000000000000000000000006001600160a01b031690636352211e90602401602060405180830381865afa925050508015612e43575060408051601f3d908101601f19168201909252612e4091810190615a31565b60015b612e5257600092505050610981565b6001600160a01b031630149250610981915050565b612e6f6138bd565b6001600160a01b038216600081815260046020908152604091829020805460ff191685151590811790915591519182527f4c97694570a07277810af7e5669ffd5f6a2d6b74b6e9a274b8b870fd5114cf8791015b60405180910390a25050565b604051806060016040528060338152602001615f636033913981565b600080612f32600087878080601f01602080910402602001604051908101604052809392919081815260200183838082843760009201919091525092939250506143e99050565b915091506000612f7b8288888080601f01602080910402602001604051908101604052809392919081815260200183838082843760009201919091525092939250506142819050565b604080516020808201849052818301879052825180830384018152606090920190925280519101209091506000906000818152600660205260409020909150612fc5888a83615b6c565b507f000000000000000000000000000000000000000000000000000000000000000082036130065760405163615a470360e01b815260040160405180910390fd5b6040516302571be360e01b8152600481018290526000907f00000000000000000000000000000000000000000000000000000000000000006001600160a01b0316906302571be390602401602060405180830381865afa15801561306e573d6000803e3d6000fd5b505050506040513d601f19601f820116820180604052508101906130929190615a31565b90506001600160a01b038116331480159061313a575060405163e985e9c560e01b81526001600160a01b0382811660048301523360248301527f0000000000000000000000000000000000000000000000000000000000000000169063e985e9c590604401602060405180830381865afa158015613114573d6000803e3d6000fd5b505050506040513d601f19601f820116820180604052508101906131389190615a67565b155b156131615760405163168ab55d60e31b815260048101839052336024820152604401610942565b6001600160a01b038616156131f357604051630c4b7b8560e11b8152600481018390526001600160a01b0387811660248301527f00000000000000000000000000000000000000000000000000000000000000001690631896f70a90604401600060405180830381600087803b1580156131da57600080fd5b505af11580156131ee573d6000803e3d6000fd5b505050505b604051635b0fc9c360e01b8152600481018390523060248201527f00000000000000000000000000000000000000000000000000000000000000006001600160a01b031690635b0fc9c390604401600060405180830381600087803b15801561325b57600080fd5b505af115801561326f573d6000803e3d6000fd5b50505050612c3f828a8a8080601f01602080910402602001604051908101604052809392919081815260200183838082843760009201829052508d9350915081905061423f565b6001600160a01b0384166132f15760405162461bcd60e51b81526020600482015260026024820152612a2d60f11b6044820152606401610942565b6001600160a01b03851633148061332b57506001600160a01b038516600090815260026020908152604080832033845290915290205460ff165b6133775760405162461bcd60e51b815260206004820152600360248201527f434e4f00000000000000000000000000000000000000000000000000000000006044820152606401610942565b6123c58585858585614394565b61338c6138bd565b6001600160a01b0381166134085760405162461bcd60e51b815260206004820152602660248201527f4f776e61626c653a206e6577206f776e657220697320746865207a65726f206160448201527f64647265737300000000000000000000000000000000000000000000000000006064820152608401610942565b6123ca816140f0565b6000818152600660205260408120805482919061342d906159e1565b80601f0160208091040260200160405190810160405280929190818152602001828054613459906159e1565b80156134a65780601f1061347b576101008083540402835291602001916134a6565b820191906000526020600020905b81548152906001019060200180831161348957829003601f168201915b5050505050905080516000036134bf5750600092915050565b6000806134cc83826143e9565b909250905060006134dd8483614281565b9050610b5f8184612d5a565b600080428367ffffffffffffffff1610156135175761ffff196201000085160161351257600094505b600093505b50929391925050565b60006001600160e01b031982167fd9b67a2600000000000000000000000000000000000000000000000000000000148061356a57506001600160e01b031982166303a24d0760e21b145b8061098157507f01ffc9a7000000000000000000000000000000000000000000000000000000006001600160e01b0319831614610981565b60006135ad826117f5565b9050806001600160a01b0316836001600160a01b0316036136105760405162461bcd60e51b815260206004820152600360248201527f41434f00000000000000000000000000000000000000000000000000000000006044820152606401610942565b336001600160a01b038216148061364a57506001600160a01b038116600090815260026020908152604080832033845290915290205460ff165b6136965760405162461bcd60e51b815260206004820152600260248201527f41430000000000000000000000000000000000000000000000000000000000006044820152606401610942565b610aca83836144a0565b600062020000838116148015610a825750426136bf6276a70084615c2c565b67ffffffffffffffff16109392505050565b84516020860120600061372b7f000000000000000000000000000000000000000000000000000000000000000083604080516020808201949094528082019290925280518083038201815260609092019052805191012090565b905060006137f488600660007f000000000000000000000000000000000000000000000000000000000000000081526020019081526020016000208054613771906159e1565b80601f016020809104026020016040519081016040528092919081815260200182805461379d906159e1565b80156137ea5780601f106137bf576101008083540402835291602001916137ea565b820191906000526020600020905b8154815290600101906020018083116137cd57829003601f168201915b505050505061451b565b600083815260066020526040902090915061380f8282615c4d565b50613822828289620300008a178961423f565b6001600160a01b03841615611b0957604051630c4b7b8560e11b8152600481018390526001600160a01b0385811660248301527f00000000000000000000000000000000000000000000000000000000000000001690631896f70a90604401600060405180830381600087803b15801561389b57600080fd5b505af11580156138af573d6000803e3d6000fd5b505050505050505050505050565b6000546001600160a01b031633146119675760405162461bcd60e51b815260206004820181905260248201527f4f776e61626c653a2063616c6c6572206973206e6f7420746865206f776e65726044820152606401610942565b6000808061392484610987565b919450925090504267ffffffffffffffff8216108080156139e857506001600160a01b03841615806139e857506040516302571be360e01b8152600481018690526000906001600160a01b037f000000000000000000000000000000000000000000000000000000000000000016906302571be390602401602060405180830381865afa1580156139b9573d6000803e3d6000fd5b505050506040513d601f19601f820116820180604052508101906139dd9190615a31565b6001600160a01b0316145b15613a275760006139f887610987565b509150506020811615613a215760405163a2a7201360e01b815260048101879052602401610942565b50613a4e565b62010000831615613a4e5760405163a2a7201360e01b815260048101869052602401610942565b505050505050565b63fffdffff81811763ffffffff1614613a855760405163a2a7201360e01b815260048101839052602401610942565b5050565b60606000613aaf83600660008881526020019081526020016000208054613771906159e1565b6000858152600660205260409020909150613aca8282615c4d565b50949350505050565b600080613adf85610987565b92505050600080613af28860001c610987565b9250925050613b02878784613f63565b613b0d858483613f9e565b98975050505050505050565b600080613b25836117f5565b6001600160a01b03161415801561098157506040516302571be360e01b81526004810183905230906001600160a01b037f000000000000000000000000000000000000000000000000000000000000000016906302571be390602401602060405180830381865afa158015613b9e573d6000803e3d6000fd5b505050506040513d601f19601f82011682018060405250810190613bc29190615a31565b6001600160a01b03161492915050565b60008681526006602052604081208054613bf1918791613771906159e1565b9050611346868286868661423f565b60008080613c0d88610987565b9250925092506000613c3788600660008d81526020019081526020016000208054613771906159e1565b60008a8152600660205260409020805491925090613c54906159e1565b9050600003613c77576000898152600660205260409020613c758282615c4d565b505b613c8689858886178589613fe8565b6001600160a01b038716613ca457613c9f89600061414d565b610ce8565b610ce884888b60001c600160405180602001604052806000815250614394565b8151835114613d175760405162461bcd60e51b81526004016109429060208082526004908201527f49414c4d00000000000000000000000000000000000000000000000000000000604082015260600190565b6001600160a01b038416613d525760405162461bcd60e51b81526020600482015260026024820152612a2d60f11b6044820152606401610942565b6001600160a01b038516331480613d8c57506001600160a01b038516600090815260026020908152604080832033845290915290205460ff165b613dda5760405162461bcd60e51b81526004016109429060208082526004908201527f54434e4f00000000000000000000000000000000000000000000000000000000604082015260600190565b60005b8351811015613efd576000848281518110613dfa57613dfa615a1b565b602002602001015190506000848381518110613e1857613e18615a1b565b602002602001015190506000806000613e3085610987565b925092509250613e418583836145c4565b836001148015613e6257508a6001600160a01b0316836001600160a01b0316145b613eae5760405162461bcd60e51b815260206004820152600360248201527f49425400000000000000000000000000000000000000000000000000000000006044820152606401610942565b60008581526001602052604090206001600160a01b038b1663ffffffff60a01b60a085901b16176001600160c01b031960c084901b16179055505050505080613ef690615a4e565b9050613ddd565b50836001600160a01b0316856001600160a01b0316336001600160a01b03167f4a39dc06d4c0dbc64b70af90fd698a233a518aa5d07e595d983b8c0526c8f7fb8686604051613f4d929190615d0d565b60405180910390a46123c5338686868686614690565b63ffff00008216158015906001831615908290613f7d5750805b156123c55760405163a2a7201360e01b815260048101869052602401610942565b60008167ffffffffffffffff168467ffffffffffffffff161115613fc0578193505b8267ffffffffffffffff168467ffffffffffffffff161015613fe0578293505b509192915050565b613ff4858585846140a8565b60405163ffffffff8416815285907f39873f00c80f4f94b7bd1594aebcf650f003545b74824d57ddf4939e3ff3a34b9060200160405180910390a28167ffffffffffffffff168167ffffffffffffffff1611156123c55760405167ffffffffffffffff8216815285907ff675815a0817338f93a7da433f6bd5f5542f1029b11b455191ac96c7f6a9b132906020015b60405180910390a25050505050565b60008061409e83610987565b5090949350505050565b6140b284836147e3565b60008481526001602052604090206001600160a01b03841663ffffffff60a01b60a085901b16176001600160c01b031960c084901b161790556117ef565b600080546001600160a01b0383811673ffffffffffffffffffffffffffffffffffffffff19831681178455604051919092169283917f8be0079c531659141344cd1fd0a4f28419497f9722a3daafe3b4186f6b6457e09190a35050565b61415882600161213e565b156141795760405163a2a7201360e01b815260048101839052602401610942565b61418282614340565b604051635b0fc9c360e01b8152600481018390526001600160a01b0382811660248301527f00000000000000000000000000000000000000000000000000000000000000001690635b0fc9c390604401600060405180830381600087803b1580156141ec57600080fd5b505af1158015614200573d6000803e3d6000fd5b50506040516001600160a01b03841681528492507fee2ba1195c65bcf218a83d874335c6bf9d9067b4c672f3c3bf16cf40de7586c49150602001612ec3565b61424b8584848461481c565b847f8ce7013e8abebc55c3890a68f5a27c67c3f7efa64e584de5fb22363c606fd340858585856040516140839493929190615d3b565b600080600061429085856143e9565b90925090508161430257600185516142a89190615d83565b84146142f65760405162461bcd60e51b815260206004820152601d60248201527f6e616d65686173683a204a756e6b20617420656e64206f66206e616d650000006044820152606401610942565b50600091506109819050565b61430c8582614281565b6040805160208101929092528101839052606001604051602081830303815290604052805190602001209250505092915050565b60008181526001602052604090205461435882614866565b60405182906000906001600160a01b038416907fddf252ad1be2c89b69c2b068fc378daa952ba7f163c4a11628f55a4df523b3ef908390a45050565b6143a18585858585614935565b82846001600160a01b0316866001600160a01b03167fddf252ad1be2c89b69c2b068fc378daa952ba7f163c4a11628f55a4df523b3ef60405160405180910390a45050505050565b6000808351831061443c5760405162461bcd60e51b815260206004820152601e60248201527f726561644c6162656c3a20496e646578206f7574206f6620626f756e647300006044820152606401610942565b600084848151811061445057614450615a1b565b016020015160f81c9050801561447c576144758561446f866001615d96565b83614a59565b9250614481565b600092505b61448b8185615d96565b614496906001615d96565b9150509250929050565b6000818152600360205260409020805473ffffffffffffffffffffffffffffffffffffffff19166001600160a01b03841690811790915581906144e2826117f5565b6001600160a01b03167f8c5be1e5ebec7d5bd14f71427d1e84f3dd0314c0f7b2291e5b200ac8c7c3b92560405160405180910390a45050565b6060600183511015614559576040517f280dacb600000000000000000000000000000000000000000000000000000000815260040160405180910390fd5b60ff8351111561459757826040517fe3ba295f0000000000000000000000000000000000000000000000000000000081526004016109429190614e8f565b825183836040516020016145ad93929190615da9565b604051602081830303815290604052905092915050565b6201ffff19620200008316016145e4576145e16276a70082615c2c565b90505b428167ffffffffffffffff161015614633576201000082161561462e5760405162461bcd60e51b815260206004820152600260248201526124a160f11b6044820152606401610942565b614658565b60048216156146585760405163a2a7201360e01b815260048101849052602401610942565b60408216600003610aca5750506000908152600360205260409020805473ffffffffffffffffffffffffffffffffffffffff19169055565b6001600160a01b0384163b15613a4e5760405163bc197c8160e01b81526001600160a01b0385169063bc197c81906146d49089908990889088908890600401615e0a565b6020604051808303816000875af192505050801561470f575060408051601f3d908101601f1916820190925261470c91810190615e5c565b60015b61479e5761471b615e79565b806308c379a003614754575061472f615e95565b8061473a5750614756565b8060405162461bcd60e51b81526004016109429190614e8f565b505b60405162461bcd60e51b815260206004820152600360248201527f544e4900000000000000000000000000000000000000000000000000000000006044820152606401610942565b6001600160e01b0319811663bc197c8160e01b146113465760405162461bcd60e51b8152602060048201526002602482015261149560f21b6044820152606401610942565b61ffff8116158015906147fb57506201000181811614155b15613a855760405163a2a7201360e01b815260048101839052602401610942565b61482884848484614a7d565b60405184906001600160a01b038516906000907fddf252ad1be2c89b69c2b068fc378daa952ba7f163c4a11628f55a4df523b3ef908290a450505050565b60008181526001602052604090205460a081901c60c082901c61488a8383836134e9565b6000868152600360209081526040808320805473ffffffffffffffffffffffffffffffffffffffff191690556001909152902063ffffffff60a01b60a083901b166001600160c01b031960c086901b1617905592506148e69050565b60408051858152600160208201526000916001600160a01b0386169133917fc3d58168c5ae7397731d063d5bbf3d657854427343f4c083240f7aacaa2d0f62910160405180910390a450505050565b600080600061494386610987565b9250925092506149548683836145c4565b8460011480156149755750876001600160a01b0316836001600160a01b0316145b6149a65760405162461bcd60e51b815260206004820152600260248201526124a160f11b6044820152606401610942565b866001600160a01b0316836001600160a01b0316036149c7575050506123c5565b60008681526001602052604090206001600160a01b03881663ffffffff60a01b60a085901b16176001600160c01b031960c084901b1617905560408051878152602081018790526001600160a01b03808a1692908b169133917fc3d58168c5ae7397731d063d5bbf3d657854427343f4c083240f7aacaa2d0f62910160405180910390a4611b09338989898989614af1565b8251600090614a688385615d96565b1115614a7357600080fd5b5091016020012090565b614a8784836147e3565b6000848152600160205260409020546001600160a01b03811615614ae557614aae85614340565b6040516000815285907fee2ba1195c65bcf218a83d874335c6bf9d9067b4c672f3c3bf16cf40de7586c49060200160405180910390a25b6123c585858585614bc1565b6001600160a01b0384163b15613a4e5760405163f23a6e6160e01b81526001600160a01b0385169063f23a6e6190614b359089908990889088908890600401615f1f565b6020604051808303816000875af1925050508015614b70575060408051601f3d908101601f19168201909252614b6d91810190615e5c565b60015b614b7c5761471b615e79565b6001600160e01b0319811663f23a6e6160e01b146113465760405162461bcd60e51b8152602060048201526002602482015261149560f21b6044820152606401610942565b8360008080614bcf84610987565b9194509250905063ffff0000821667ffffffffffffffff8087169083161115614bf6578195505b428267ffffffffffffffff1610614c0c57958617955b6001600160a01b03841615614c635760405162461bcd60e51b815260206004820152600360248201527f4d4f4500000000000000000000000000000000000000000000000000000000006044820152606401610942565b6001600160a01b038816614cb95760405162461bcd60e51b815260206004820152600360248201527f4d545a00000000000000000000000000000000000000000000000000000000006044820152606401610942565b306001600160a01b03891603614d115760405162461bcd60e51b815260206004820152600360248201527f4e4f4e00000000000000000000000000000000000000000000000000000000006044820152606401610942565b60008581526001602052604090206001600160a01b03891663ffffffff60a01b60a08a901b16176001600160c01b031960c089901b1617905560408051868152600160208201526001600160a01b038a169160009133917fc3d58168c5ae7397731d063d5bbf3d657854427343f4c083240f7aacaa2d0f62910160405180910390a4612c3f3360008a88600160405180602001604052806000815250614af1565b6001600160a01b03811681146123ca57600080fd5b60008060408385031215614dda57600080fd5b8235614de581614db2565b946020939093013593505050565b600060208284031215614e0557600080fd5b5035919050565b6001600160e01b0319811681146123ca57600080fd5b600060208284031215614e3457600080fd5b8135610a8281614e0c565b60005b83811015614e5a578181015183820152602001614e42565b50506000910152565b60008151808452614e7b816020860160208601614e3f565b601f01601f19169290920160200192915050565b602081526000610a826020830184614e63565b60008060408385031215614eb557600080fd5b823591506020830135614ec781614db2565b809150509250929050565b803567ffffffffffffffff81168114614eea57600080fd5b919050565b60008060408385031215614f0257600080fd5b82359150614f1260208401614ed2565b90509250929050565b60008083601f840112614f2d57600080fd5b50813567ffffffffffffffff811115614f4557600080fd5b602083019150836020828501011115614f5d57600080fd5b9250929050565b600080600080600060808688031215614f7c57600080fd5b8535614f8781614db2565b94506020860135614f9781614db2565b935060408601359250606086013567ffffffffffffffff811115614fba57600080fd5b614fc688828901614f1b565b969995985093965092949392505050565b600060208284031215614fe957600080fd5b8135610a8281614db2565b60008060006060848603121561500957600080fd5b833561501481614db2565b9250602084013561502481614db2565b929592945050506040919091013590565b634e487b7160e01b600052604160045260246000fd5b601f8201601f1916810167ffffffffffffffff8111828210171561507157615071615035565b6040525050565b600067ffffffffffffffff82111561509257615092615035565b50601f01601f191660200190565b600082601f8301126150b157600080fd5b81356150bc81615078565b6040516150c9828261504b565b8281528560208487010111156150de57600080fd5b82602086016020830137600092810160200192909252509392505050565b803563ffffffff81168114614eea57600080fd5b600080600080600080600060e0888a03121561512b57600080fd5b87359650602088013567ffffffffffffffff81111561514957600080fd5b6151558a828b016150a0565b965050604088013561516681614db2565b9450606088013561517681614db2565b935061518460808901614ed2565b925061519260a089016150fc565b91506151a060c08901614ed2565b905092959891949750929550565b600067ffffffffffffffff8211156151c8576151c8615035565b5060051b60200190565b600082601f8301126151e357600080fd5b813560206151f0826151ae565b6040516151fd828261504b565b83815260059390931b850182019282810191508684111561521d57600080fd5b8286015b848110156121335780358352918301918301615221565b600080600080600060a0868803121561525057600080fd5b853561525b81614db2565b9450602086013561526b81614db2565b9350604086013567ffffffffffffffff8082111561528857600080fd5b61529489838a016151d2565b945060608801359150808211156152aa57600080fd5b6152b689838a016151d2565b935060808801359150808211156152cc57600080fd5b506152d9888289016150a0565b9150509295509295909350565b600080600080608085870312156152fc57600080fd5b8435935060208501359250615313604086016150fc565b915061532160608601614ed2565b905092959194509250565b803561ffff81168114614eea57600080fd5b6000806040838503121561535157600080fd5b82359150614f126020840161532c565b6000806040838503121561537457600080fd5b823567ffffffffffffffff8082111561538c57600080fd5b818501915085601f8301126153a057600080fd5b813560206153ad826151ae565b6040516153ba828261504b565b83815260059390931b85018201928281019150898411156153da57600080fd5b948201945b838610156154015785356153f281614db2565b825294820194908201906153df565b9650508601359250508082111561541757600080fd5b50614496858286016151d2565b600081518084526020808501945080840160005b8381101561545457815187529582019590820190600101615438565b509495945050505050565b602081526000610a826020830184615424565b60008060006060848603121561548757600080fd5b833592506020840135915061549e60408501614ed2565b90509250925092565b6000806000606084860312156154bc57600080fd5b8335925060208401356154ce81614db2565b915060408401356154de81614db2565b809150509250925092565b60008060008060006080868803121561550157600080fd5b853567ffffffffffffffff81111561551857600080fd5b61552488828901614f1b565b909650945050602086013561553881614db2565b92506155466040870161532c565b9150606086013561555681614db2565b809150509295509295909350565b80151581146123ca57600080fd5b6000806040838503121561558557600080fd5b823561559081614db2565b91506020830135614ec781615564565b60008060008060008060a087890312156155b957600080fd5b863567ffffffffffffffff8111156155d057600080fd5b6155dc89828a01614f1b565b90975095505060208701356155f081614db2565b935060408701359250606087013561560781614db2565b91506156156080880161532c565b90509295509295509295565b6000806040838503121561563457600080fd5b82359150614f12602084016150fc565b6000806040838503121561565757600080fd5b50508035926020909101359150565b60008060008060008060a0878903121561567f57600080fd5b86359550602087013567ffffffffffffffff81111561569d57600080fd5b6156a989828a01614f1b565b90965094505060408701356156bd81614db2565b92506156cb606088016150fc565b915061561560808801614ed2565b600080600080604085870312156156ef57600080fd5b843567ffffffffffffffff8082111561570757600080fd5b61571388838901614f1b565b9096509450602087013591508082111561572c57600080fd5b5061573987828801614f1b565b95989497509550505050565b6000806000806080858703121561575b57600080fd5b84359350602085013561576d81614db2565b9250604085013561531381614db2565b60008060006060848603121561579257600080fd5b833592506020840135915060408401356154de81614db2565b600080604083850312156157be57600080fd5b82356157c981614db2565b91506020830135614ec781614db2565b600080600080606085870312156157ef57600080fd5b843567ffffffffffffffff81111561580657600080fd5b61581287828801614f1b565b909550935050602085013561582681614db2565b9150604085013561583681614db2565b939692955090935050565b600080600080600060a0868803121561585957600080fd5b853561586481614db2565b9450602086013561587481614db2565b93506040860135925060608601359150608086013567ffffffffffffffff81111561589e57600080fd5b6152d9888289016150a0565b6000602082840312156158bc57600080fd5b815167ffffffffffffffff8111156158d357600080fd5b8201601f810184136158e457600080fd5b80516158ef81615078565b6040516158fc828261504b565b82815286602084860101111561591157600080fd5b610b5f836020830160208701614e3f565b6000806000806080858703121561593857600080fd5b843567ffffffffffffffff81111561594f57600080fd5b61595b878288016150a0565b945050602085013561596c81614db2565b925061597a6040860161532c565b9150606085013561583681614db2565b60006020828403121561599c57600080fd5b5051919050565b634e487b7160e01b600052601160045260246000fd5b67ffffffffffffffff8181168382160190808211156159da576159da6159a3565b5092915050565b600181811c908216806159f557607f821691505b602082108103615a1557634e487b7160e01b600052602260045260246000fd5b50919050565b634e487b7160e01b600052603260045260246000fd5b600060208284031215615a4357600080fd5b8151610a8281614db2565b600060018201615a6057615a606159a3565b5060010190565b600060208284031215615a7957600080fd5b8151610a8281615564565b8183823760009101908152919050565b81835281816020850137506000828201602090810191909152601f909101601f19169091010190565b60c081526000615ad160c083018a8c615a94565b6001600160a01b03898116602085015263ffffffff8916604085015267ffffffffffffffff881660608501528616608084015282810360a0840152615b17818587615a94565b9b9a5050505050505050505050565b601f821115610aca57600081815260208120601f850160051c81016020861015615b4d5750805b601f850160051c820191505b81811015613a4e57828155600101615b59565b67ffffffffffffffff831115615b8457615b84615035565b615b9883615b9283546159e1565b83615b26565b6000601f841160018114615bcc5760008515615bb45750838201355b600019600387901b1c1916600186901b1783556123c5565b600083815260209020601f19861690835b82811015615bfd5786850135825560209485019460019092019101615bdd565b5086821015615c1a5760001960f88860031b161c19848701351681555b505060018560011b0183555050505050565b67ffffffffffffffff8281168282160390808211156159da576159da6159a3565b815167ffffffffffffffff811115615c6757615c67615035565b615c7b81615c7584546159e1565b84615b26565b602080601f831160018114615cb05760008415615c985750858301515b600019600386901b1c1916600185901b178555613a4e565b600085815260208120601f198616915b82811015615cdf57888601518255948401946001909101908401615cc0565b5085821015615cfd5787850151600019600388901b60f8161c191681555b5050505050600190811b01905550565b604081526000615d206040830185615424565b8281036020840152615d328185615424565b95945050505050565b608081526000615d4e6080830187614e63565b6001600160a01b039590951660208301525063ffffffff92909216604083015267ffffffffffffffff16606090910152919050565b81810381811115610981576109816159a3565b80820180821115610981576109816159a3565b7fff000000000000000000000000000000000000000000000000000000000000008460f81b16815260008351615de6816001850160208801614e3f565b835190830190615dfd816001840160208801614e3f565b0160010195945050505050565b60006001600160a01b03808816835280871660208401525060a06040830152615e3660a0830186615424565b8281036060840152615e488186615424565b90508281036080840152613b0d8185614e63565b600060208284031215615e6e57600080fd5b8151610a8281614e0c565b600060033d1115615e925760046000803e5060005160e01c5b90565b600060443d1015615ea35790565b6040516003193d81016004833e81513d67ffffffffffffffff8160248401118184111715615ed357505050505090565b8285019150815181811115615eeb5750505050505090565b843d8701016020828501011115615f055750505050505090565b615f146020828601018761504b565b509095945050505050565b60006001600160a01b03808816835280871660208401525084604083015283606083015260a06080830152615f5760a0830184614e63565b97965050505050505056fe68747470733a2f2f6d657461646174612e6f7074692e646f6d61696e732f636f6c6c656374696f6e2f646f6d61696e732f6f70a26469706673582212209245c83e898e536bf632d69b497255b3f104d67204a80fff07b3256dea81fa9864736f6c63430008110033",
  "linkReferences": {},
  "deployedLinkReferences": {}
}