{
  "_format": "hh-sol-artifact-1",
  "contractName": "Multicall3",
  "sourceName": "contracts/Multicall3.sol",
  "abi": [
    {
      "inputs": [
        {
          "components": [
            {
              "internalType": "address",
              "name": "target",
              "type": "address"
            },
            {
              "internalType": "bytes",
              "name": "callData",
              "type": "bytes"
            }
          ],
          "internalType": "struct Multicall3.Call[]",
          "name": "calls",
          "type": "tuple[]"
        }
      ],
      "name": "aggregate",
      "outputs": [
        {
          "internalType": "uint256",
          "name": "blockNumber",
          "type": "uint256"
        },
        {
          "internalType": "bytes[]",
          "name": "returnData",
          "type": "bytes[]"
        }
      ],
      "stateMutability": "payable",
      "type": "function"
    },
    {
      "inputs": [
        {
          "components": [
            {
              "internalType": "address",
              "name": "target",
              "type": "address"
            },
            {
              "internalType": "bool",
              "name": "allowFailure",
              "type": "bool"
            },
            {
              "internalType": "bytes",
              "name": "callData",
              "type": "bytes"
            }
          ],
          "internalType": "struct Multicall3.Call3[]",
          "name": "calls",
          "type": "tuple[]"
        }
      ],
      "name": "aggregate3",
      "outputs": [
        {
          "components": [
            {
              "internalType": "bool",
              "name": "success",
              "type": "bool"
            },
            {
              "internalType": "bytes",
              "name": "returnData",
              "type": "bytes"
            }
          ],
          "internalType": "struct Multicall3.Result[]",
          "name": "returnData",
          "type": "tuple[]"
        }
      ],
      "stateMutability": "payable",
      "type": "function"
    },
    {
      "inputs": [
        {
          "components": [
            {
              "internalType": "address",
              "name": "target",
              "type": "address"
            },
            {
              "internalType": "bool",
              "name": "allowFailure",
              "type": "bool"
            },
            {
              "internalType": "uint256",
              "name": "value",
              "type": "uint256"
            },
            {
              "internalType": "bytes",
              "name": "callData",
              "type": "bytes"
            }
          ],
          "internalType": "struct Multicall3.Call3Value[]",
          "name": "calls",
          "type": "tuple[]"
        }
      ],
      "name": "aggregate3Value",
      "outputs": [
        {
          "components": [
            {
              "internalType": "bool",
              "name": "success",
              "type": "bool"
            },
            {
              "internalType": "bytes",
              "name": "returnData",
              "type": "bytes"
            }
          ],
          "internalType": "struct Multicall3.Result[]",
          "name": "returnData",
          "type": "tuple[]"
        }
      ],
      "stateMutability": "payable",
      "type": "function"
    },
    {
      "inputs": [
        {
          "components": [
            {
              "internalType": "address",
              "name": "target",
              "type": "address"
            },
            {
              "internalType": "bytes",
              "name": "callData",
              "type": "bytes"
            }
          ],
          "internalType": "struct Multicall3.Call[]",
          "name": "calls",
          "type": "tuple[]"
        }
      ],
      "name": "blockAndAggregate",
      "outputs": [
        {
          "internalType": "uint256",
          "name": "blockNumber",
          "type": "uint256"
        },
        {
          "internalType": "bytes32",
          "name": "blockHash",
          "type": "bytes32"
        },
        {
          "components": [
            {
              "internalType": "bool",
              "name": "success",
              "type": "bool"
            },
            {
              "internalType": "bytes",
              "name": "returnData",
              "type": "bytes"
            }
          ],
          "internalType": "struct Multicall3.Result[]",
          "name": "returnData",
          "type": "tuple[]"
        }
      ],
      "stateMutability": "payable",
      "type": "function"
    },
    {
      "inputs": [],
      "name": "getBasefee",
      "outputs": [
        {
          "internalType": "uint256",
          "name": "basefee",
          "type": "uint256"
        }
      ],
      "stateMutability": "view",
      "type": "function"
    },
    {
      "inputs": [
        {
          "internalType": "uint256",
          "name": "blockNumber",
          "type": "uint256"
        }
      ],
      "name": "getBlockHash",
      "outputs": [
        {
          "internalType": "bytes32",
          "name": "blockHash",
          "type": "bytes32"
        }
      ],
      "stateMutability": "view",
      "type": "function"
    },
    {
      "inputs": [],
      "name": "getBlockNumber",
      "outputs": [
        {
          "internalType": "uint256",
          "name": "blockNumber",
          "type": "uint256"
        }
      ],
      "stateMutability": "view",
      "type": "function"
    },
    {
      "inputs": [],
      "name": "getChainId",
      "outputs": [
        {
          "internalType": "uint256",
          "name": "chainid",
          "type": "uint256"
        }
      ],
      "stateMutability": "view",
      "type": "function"
    },
    {
      "inputs": [],
      "name": "getCurrentBlockCoinbase",
      "outputs": [
        {
          "internalType": "address",
          "name": "coinbase",
          "type": "address"
        }
      ],
      "stateMutability": "view",
      "type": "function"
    },
    {
      "inputs": [],
      "name": "getCurrentBlockDifficulty",
      "outputs": [
        {
          "internalType": "uint256",
          "name": "difficulty",
          "type": "uint256"
        }
      ],
      "stateMutability": "view",
      "type": "function"
    },
    {
      "inputs": [],
      "name": "getCurrentBlockGasLimit",
      "outputs": [
        {
          "internalType": "uint256",
          "name": "gaslimit",
          "type": "uint256"
        }
      ],
      "stateMutability": "view",
      "type": "function"
    },
    {
      "inputs": [],
      "name": "getCurrentBlockTimestamp",
      "outputs": [
        {
          "internalType": "uint256",
          "name": "timestamp",
          "type": "uint256"
        }
      ],
      "stateMutability": "view",
      "type": "function"
    },
    {
      "inputs": [
        {
          "internalType": "address",
          "name": "addr",
          "type": "address"
        }
      ],
      "name": "getEthBalance",
      "outputs": [
        {
          "internalType": "uint256",
          "name": "balance",
          "type": "uint256"
        }
      ],
      "stateMutability": "view",
      "type": "function"
    },
    {
      "inputs": [],
      "name": "getLastBlockHash",
      "outputs": [
        {
          "internalType": "bytes32",
          "name": "blockHash",
          "type": "bytes32"
        }
      ],
      "stateMutability": "view",
      "type": "function"
    },
    {
      "inputs": [
        {
          "internalType": "bool",
          "name": "requireSuccess",
          "type": "bool"
        },
        {
          "components": [
            {
              "internalType": "address",
              "name": "target",
              "type": "address"
            },
            {
              "internalType": "bytes",
              "name": "callData",
              "type": "bytes"
            }
          ],
          "internalType": "struct Multicall3.Call[]",
          "name": "calls",
          "type": "tuple[]"
        }
      ],
      "name": "tryAggregate",
      "outputs": [
        {
          "components": [
            {
              "internalType": "bool",
              "name": "success",
              "type": "bool"
            },
            {
              "internalType": "bytes",
              "name": "returnData",
              "type": "bytes"
            }
          ],
          "internalType": "struct Multicall3.Result[]",
          "name": "returnData",
          "type": "tuple[]"
        }
      ],
      "stateMutability": "payable",
      "type": "function"
    },
    {
      "inputs": [
        {
          "internalType": "bool",
          "name": "requireSuccess",
          "type": "bool"
        },
        {
          "components": [
            {
              "internalType": "address",
              "name": "target",
              "type": "address"
            },
            {
              "internalType": "bytes",
              "name": "callData",
              "type": "bytes"
            }
          ],
          "internalType": "struct Multicall3.Call[]",
          "name": "calls",
          "type": "tuple[]"
        }
      ],
      "name": "tryBlockAndAggregate",
      "outputs": [
        {
          "internalType": "uint256",
          "name": "blockNumber",
          "type": "uint256"
        },
        {
          "internalType": "bytes32",
          "name": "blockHash",
          "type": "bytes32"
        },
        {
          "components": [
            {
              "internalType": "bool",
              "name": "success",
              "type": "bool"
            },
            {
              "internalType": "bytes",
              "name": "returnData",
              "type": "bytes"
            }
          ],
          "internalType": "struct Multicall3.Result[]",
          "name": "returnData",
          "type": "tuple[]"
        }
      ],
      "stateMutability": "payable",
      "type": "function"
    }
  ],
  "bytecode": "0x608060405234801561001057600080fd5b50610d35806100206000396000f3fe6080604052600436106100f35760003560e01c80634d2301cc1161008a578063a8b0574e11610059578063a8b0574e1461023c578063bce38bd714610257578063c3077fa91461026a578063ee82ac5e1461027d57600080fd5b80634d2301cc146101ce57806372425d9d1461020357806382ad56cb1461021657806386d516e81461022957600080fd5b80633408e470116100c65780633408e47014610173578063399542e9146101865780633e64a696146101a857806342cbb15c146101bb57600080fd5b80630f28c97d146100f8578063174dea711461011a578063252dba421461013a57806327e86d6e1461015b575b600080fd5b34801561010457600080fd5b50425b6040519081526020015b60405180910390f35b61012d6101283660046109e5565b61029c565b6040516101119190610adb565b61014d6101483660046109e5565b61049d565b604051610111929190610af5565b34801561016757600080fd5b50436000190140610107565b34801561017f57600080fd5b5046610107565b610199610194366004610b5f565b610624565b60405161011193929190610bb9565b3480156101b457600080fd5b5048610107565b3480156101c757600080fd5b5043610107565b3480156101da57600080fd5b506101076101e9366004610be1565b73ffffffffffffffffffffffffffffffffffffffff163190565b34801561020f57600080fd5b5044610107565b61012d6102243660046109e5565b61063f565b34801561023557600080fd5b5045610107565b34801561024857600080fd5b50604051418152602001610111565b61012d610265366004610b5f565b6107d4565b6101996102783660046109e5565b61097a565b34801561028957600080fd5b50610107610298366004610c17565b4090565b60606000828067ffffffffffffffff8111156102ba576102ba610c30565b60405190808252806020026020018201604052801561030057816020015b6040805180820190915260008152606060208201528152602001906001900390816102d85790505b5092503660005b8281101561043f57600085828151811061032357610323610c46565b6020026020010151905087878381811061033f5761033f610c46565b90506020028101906103519190610c5c565b60408101359586019590935061036a6020850185610be1565b73ffffffffffffffffffffffffffffffffffffffff168161038e6060870187610c7c565b60405161039c929190610cc3565b60006040518083038185875af1925050503d80600081146103d9576040519150601f19603f3d011682016040523d82523d6000602084013e6103de565b606091505b5060208085019190915290151580845290850135176104355762461bcd60e51b600052602060045260176024527f4d756c746963616c6c333a2063616c6c206661696c656400000000000000000060445260846000fd5b5050600101610307565b508234146104945760405162461bcd60e51b815260206004820152601a60248201527f4d756c746963616c6c333a2076616c7565206d69736d6174636800000000000060448201526064015b60405180910390fd5b50505092915050565b436060828067ffffffffffffffff8111156104ba576104ba610c30565b6040519080825280602002602001820160405280156104ed57816020015b60608152602001906001900390816104d85790505b5091503660005b8281101561061a57600087878381811061051057610510610c46565b90506020028101906105229190610cd3565b92506105316020840184610be1565b73ffffffffffffffffffffffffffffffffffffffff166105546020850185610c7c565b604051610562929190610cc3565b6000604051808303816000865af19150503d806000811461059f576040519150601f19603f3d011682016040523d82523d6000602084013e6105a4565b606091505b508684815181106105b7576105b7610c46565b60209081029190910101529050806106115760405162461bcd60e51b815260206004820152601760248201527f4d756c746963616c6c333a2063616c6c206661696c6564000000000000000000604482015260640161048b565b506001016104f4565b5050509250929050565b43804060606106348686866107d4565b905093509350939050565b6060818067ffffffffffffffff81111561065b5761065b610c30565b6040519080825280602002602001820160405280156106a157816020015b6040805180820190915260008152606060208201528152602001906001900390816106795790505b5091503660005b828110156104945760008482815181106106c4576106c4610c46565b602002602001015190508686838181106106e0576106e0610c46565b90506020028101906106f29190610ce9565b92506107016020840184610be1565b73ffffffffffffffffffffffffffffffffffffffff166107246040850185610c7c565b604051610732929190610cc3565b6000604051808303816000865af19150503d806000811461076f576040519150601f19603f3d011682016040523d82523d6000602084013e610774565b606091505b5060208084019190915290151580835290840135176107cb5762461bcd60e51b600052602060045260176024527f4d756c746963616c6c333a2063616c6c206661696c656400000000000000000060445260646000fd5b506001016106a8565b6060818067ffffffffffffffff8111156107f0576107f0610c30565b60405190808252806020026020018201604052801561083657816020015b60408051808201909152600081526060602082015281526020019060019003908161080e5790505b5091503660005b8281101561097057600084828151811061085957610859610c46565b6020026020010151905086868381811061087557610875610c46565b90506020028101906108879190610cd3565b92506108966020840184610be1565b73ffffffffffffffffffffffffffffffffffffffff166108b96020850185610c7c565b6040516108c7929190610cc3565b6000604051808303816000865af19150503d8060008114610904576040519150601f19603f3d011682016040523d82523d6000602084013e610909565b606091505b5060208301521515815287156109675780516109675760405162461bcd60e51b815260206004820152601760248201527f4d756c746963616c6c333a2063616c6c206661696c6564000000000000000000604482015260640161048b565b5060010161083d565b5050509392505050565b600080606061098b60018686610624565b919790965090945092505050565b60008083601f8401126109ab57600080fd5b50813567ffffffffffffffff8111156109c357600080fd5b6020830191508360208260051b85010111156109de57600080fd5b9250929050565b600080602083850312156109f857600080fd5b823567ffffffffffffffff811115610a0f57600080fd5b610a1b85828601610999565b90969095509350505050565b6000815180845260005b81811015610a4d57602081850181015186830182015201610a31565b506000602082860101526020601f19601f83011685010191505092915050565b600082825180855260208086019550808260051b84010181860160005b84811015610ace57858303601f1901895281518051151584528401516040858501819052610aba81860183610a27565b9a86019a9450505090830190600101610a8a565b5090979650505050505050565b602081526000610aee6020830184610a6d565b9392505050565b600060408201848352602060408185015281855180845260608601915060608160051b870101935082870160005b82811015610b5157605f19888703018452610b3f868351610a27565b95509284019290840190600101610b23565b509398975050505050505050565b600080600060408486031215610b7457600080fd5b83358015158114610b8457600080fd5b9250602084013567ffffffffffffffff811115610ba057600080fd5b610bac86828701610999565b9497909650939450505050565b838152826020820152606060408201526000610bd86060830184610a6d565b95945050505050565b600060208284031215610bf357600080fd5b813573ffffffffffffffffffffffffffffffffffffffff81168114610aee57600080fd5b600060208284031215610c2957600080fd5b5035919050565b634e487b7160e01b600052604160045260246000fd5b634e487b7160e01b600052603260045260246000fd5b60008235607e19833603018112610c7257600080fd5b9190910192915050565b6000808335601e19843603018112610c9357600080fd5b83018035915067ffffffffffffffff821115610cae57600080fd5b6020019150368190038213156109de57600080fd5b8183823760009101908152919050565b60008235603e19833603018112610c7257600080fd5b60008235605e19833603018112610c7257600080fdfea2646970667358221220db7aa3e5f5699f61c3e6d9596a23168ba63f8aa5e93412d2756dd51feace83c664736f6c63430008110033",
  "linkReferences": {},
  "deployedLinkReferences": {}
}