{
  "_format": "hh-sol-artifact-1",
  "contractName": "BaseRegistrarImplementation",
  "sourceName": "contracts/ethregistrar/BaseRegistrarImplementation.sol",
  "abi": [
    {
      "inputs": [
        {
          "internalType": "contract ENS",
          "name": "_ens",
          "type": "address"
        },
        {
          "internalType": "bytes32",
          "name": "_baseNode",
          "type": "bytes32"
        }
      ],
      "stateMutability": "nonpayable",
      "type": "constructor"
    },
    {
      "anonymous": false,
      "inputs": [
        {
          "indexed": true,
          "internalType": "address",
          "name": "owner",
          "type": "address"
        },
        {
          "indexed": true,
          "internalType": "address",
          "name": "approved",
          "type": "address"
        },
        {
          "indexed": true,
          "internalType": "uint256",
          "name": "tokenId",
          "type": "uint256"
        }
      ],
      "name": "Approval",
      "type": "event"
    },
    {
      "anonymous": false,
      "inputs": [
        {
          "indexed": true,
          "internalType": "address",
          "name": "owner",
          "type": "address"
        },
        {
          "indexed": true,
          "internalType": "address",
          "name": "operator",
          "type": "address"
        },
        {
          "indexed": false,
          "internalType": "bool",
          "name": "approved",
          "type": "bool"
        }
      ],
      "name": "ApprovalForAll",
      "type": "event"
    },
    {
      "anonymous": false,
      "inputs": [
        {
          "indexed": true,
          "internalType": "address",
          "name": "controller",
          "type": "address"
        }
      ],
      "name": "ControllerAdded",
      "type": "event"
    },
    {
      "anonymous": false,
      "inputs": [
        {
          "indexed": true,
          "internalType": "address",
          "name": "controller",
          "type": "address"
        }
      ],
      "name": "ControllerRemoved",
      "type": "event"
    },
    {
      "anonymous": false,
      "inputs": [
        {
          "indexed": true,
          "internalType": "uint256",
          "name": "id",
          "type": "uint256"
        },
        {
          "indexed": true,
          "internalType": "address",
          "name": "owner",
          "type": "address"
        },
        {
          "indexed": false,
          "internalType": "uint256",
          "name": "expires",
          "type": "uint256"
        }
      ],
      "name": "NameMigrated",
      "type": "event"
    },
    {
      "anonymous": false,
      "inputs": [
        {
          "indexed": true,
          "internalType": "uint256",
          "name": "id",
          "type": "uint256"
        },
        {
          "indexed": true,
          "internalType": "address",
          "name": "owner",
          "type": "address"
        },
        {
          "indexed": false,
          "internalType": "uint256",
          "name": "expires",
          "type": "uint256"
        }
      ],
      "name": "NameRegistered",
      "type": "event"
    },
    {
      "anonymous": false,
      "inputs": [
        {
          "indexed": true,
          "internalType": "uint256",
          "name": "id",
          "type": "uint256"
        },
        {
          "indexed": false,
          "internalType": "uint256",
          "name": "expires",
          "type": "uint256"
        }
      ],
      "name": "NameRenewed",
      "type": "event"
    },
    {
      "anonymous": false,
      "inputs": [
        {
          "indexed": true,
          "internalType": "address",
          "name": "previousOwner",
          "type": "address"
        },
        {
          "indexed": true,
          "internalType": "address",
          "name": "newOwner",
          "type": "address"
        }
      ],
      "name": "OwnershipTransferred",
      "type": "event"
    },
    {
      "anonymous": false,
      "inputs": [
        {
          "indexed": true,
          "internalType": "address",
          "name": "from",
          "type": "address"
        },
        {
          "indexed": true,
          "internalType": "address",
          "name": "to",
          "type": "address"
        },
        {
          "indexed": true,
          "internalType": "uint256",
          "name": "tokenId",
          "type": "uint256"
        }
      ],
      "name": "Transfer",
      "type": "event"
    },
    {
      "inputs": [],
      "name": "GRACE_PERIOD",
      "outputs": [
        {
          "internalType": "uint256",
          "name": "",
          "type": "uint256"
        }
      ],
      "stateMutability": "view",
      "type": "function"
    },
    {
      "inputs": [
        {
          "internalType": "address",
          "name": "controller",
          "type": "address"
        }
      ],
      "name": "addController",
      "outputs": [],
      "stateMutability": "nonpayable",
      "type": "function"
    },
    {
      "inputs": [
        {
          "internalType": "address",
          "name": "to",
          "type": "address"
        },
        {
          "internalType": "uint256",
          "name": "tokenId",
          "type": "uint256"
        }
      ],
      "name": "approve",
      "outputs": [],
      "stateMutability": "nonpayable",
      "type": "function"
    },
    {
      "inputs": [
        {
          "internalType": "uint256",
          "name": "id",
          "type": "uint256"
        }
      ],
      "name": "available",
      "outputs": [
        {
          "internalType": "bool",
          "name": "",
          "type": "bool"
        }
      ],
      "stateMutability": "view",
      "type": "function"
    },
    {
      "inputs": [
        {
          "internalType": "address",
          "name": "owner",
          "type": "address"
        }
      ],
      "name": "balanceOf",
      "outputs": [
        {
          "internalType": "uint256",
          "name": "",
          "type": "uint256"
        }
      ],
      "stateMutability": "view",
      "type": "function"
    },
    {
      "inputs": [],
      "name": "baseNode",
      "outputs": [
        {
          "internalType": "bytes32",
          "name": "",
          "type": "bytes32"
        }
      ],
      "stateMutability": "view",
      "type": "function"
    },
    {
      "inputs": [
        {
          "internalType": "address",
          "name": "",
          "type": "address"
        }
      ],
      "name": "controllers",
      "outputs": [
        {
          "internalType": "bool",
          "name": "",
          "type": "bool"
        }
      ],
      "stateMutability": "view",
      "type": "function"
    },
    {
      "inputs": [],
      "name": "ens",
      "outputs": [
        {
          "internalType": "contract ENS",
          "name": "",
          "type": "address"
        }
      ],
      "stateMutability": "view",
      "type": "function"
    },
    {
      "inputs": [
        {
          "internalType": "uint256",
          "name": "tokenId",
          "type": "uint256"
        }
      ],
      "name": "getApproved",
      "outputs": [
        {
          "internalType": "address",
          "name": "",
          "type": "address"
        }
      ],
      "stateMutability": "view",
      "type": "function"
    },
    {
      "inputs": [
        {
          "internalType": "address",
          "name": "owner",
          "type": "address"
        },
        {
          "internalType": "address",
          "name": "operator",
          "type": "address"
        }
      ],
      "name": "isApprovedForAll",
      "outputs": [
        {
          "internalType": "bool",
          "name": "",
          "type": "bool"
        }
      ],
      "stateMutability": "view",
      "type": "function"
    },
    {
      "inputs": [],
      "name": "name",
      "outputs": [
        {
          "internalType": "string",
          "name": "",
          "type": "string"
        }
      ],
      "stateMutability": "view",
      "type": "function"
    },
    {
      "inputs": [
        {
          "internalType": "uint256",
          "name": "id",
          "type": "uint256"
        }
      ],
      "name": "nameExpires",
      "outputs": [
        {
          "internalType": "uint256",
          "name": "",
          "type": "uint256"
        }
      ],
      "stateMutability": "view",
      "type": "function"
    },
    {
      "inputs": [],
      "name": "owner",
      "outputs": [
        {
          "internalType": "address",
          "name": "",
          "type": "address"
        }
      ],
      "stateMutability": "view",
      "type": "function"
    },
    {
      "inputs": [
        {
          "internalType": "uint256",
          "name": "tokenId",
          "type": "uint256"
        }
      ],
      "name": "ownerOf",
      "outputs": [
        {
          "internalType": "address",
          "name": "",
          "type": "address"
        }
      ],
      "stateMutability": "view",
      "type": "function"
    },
    {
      "inputs": [
        {
          "internalType": "uint256",
          "name": "id",
          "type": "uint256"
        },
        {
          "internalType": "address",
          "name": "owner",
          "type": "address"
        }
      ],
      "name": "reclaim",
      "outputs": [],
      "stateMutability": "nonpayable",
      "type": "function"
    },
    {
      "inputs": [
        {
          "internalType": "uint256",
          "name": "id",
          "type": "uint256"
        },
        {
          "internalType": "address",
          "name": "owner",
          "type": "address"
        },
        {
          "internalType": "uint256",
          "name": "duration",
          "type": "uint256"
        }
      ],
      "name": "register",
      "outputs": [
        {
          "internalType": "uint256",
          "name": "",
          "type": "uint256"
        }
      ],
      "stateMutability": "nonpayable",
      "type": "function"
    },
    {
      "inputs": [
        {
          "internalType": "uint256",
          "name": "id",
          "type": "uint256"
        },
        {
          "internalType": "address",
          "name": "owner",
          "type": "address"
        },
        {
          "internalType": "uint256",
          "name": "duration",
          "type": "uint256"
        }
      ],
      "name": "registerOnly",
      "outputs": [
        {
          "internalType": "uint256",
          "name": "",
          "type": "uint256"
        }
      ],
      "stateMutability": "nonpayable",
      "type": "function"
    },
    {
      "inputs": [
        {
          "internalType": "address",
          "name": "controller",
          "type": "address"
        }
      ],
      "name": "removeController",
      "outputs": [],
      "stateMutability": "nonpayable",
      "type": "function"
    },
    {
      "inputs": [
        {
          "internalType": "uint256",
          "name": "id",
          "type": "uint256"
        },
        {
          "internalType": "uint256",
          "name": "duration",
          "type": "uint256"
        }
      ],
      "name": "renew",
      "outputs": [
        {
          "internalType": "uint256",
          "name": "",
          "type": "uint256"
        }
      ],
      "stateMutability": "nonpayable",
      "type": "function"
    },
    {
      "inputs": [],
      "name": "renounceOwnership",
      "outputs": [],
      "stateMutability": "nonpayable",
      "type": "function"
    },
    {
      "inputs": [
        {
          "internalType": "address",
          "name": "from",
          "type": "address"
        },
        {
          "internalType": "address",
          "name": "to",
          "type": "address"
        },
        {
          "internalType": "uint256",
          "name": "tokenId",
          "type": "uint256"
        }
      ],
      "name": "safeTransferFrom",
      "outputs": [],
      "stateMutability": "nonpayable",
      "type": "function"
    },
    {
      "inputs": [
        {
          "internalType": "address",
          "name": "from",
          "type": "address"
        },
        {
          "internalType": "address",
          "name": "to",
          "type": "address"
        },
        {
          "internalType": "uint256",
          "name": "tokenId",
          "type": "uint256"
        },
        {
          "internalType": "bytes",
          "name": "data",
          "type": "bytes"
        }
      ],
      "name": "safeTransferFrom",
      "outputs": [],
      "stateMutability": "nonpayable",
      "type": "function"
    },
    {
      "inputs": [
        {
          "internalType": "address",
          "name": "operator",
          "type": "address"
        },
        {
          "internalType": "bool",
          "name": "approved",
          "type": "bool"
        }
      ],
      "name": "setApprovalForAll",
      "outputs": [],
      "stateMutability": "nonpayable",
      "type": "function"
    },
    {
      "inputs": [
        {
          "internalType": "uint256",
          "name": "id",
          "type": "uint256"
        },
        {
          "internalType": "uint256",
          "name": "expiry",
          "type": "uint256"
        }
      ],
      "name": "setExpiry",
      "outputs": [],
      "stateMutability": "nonpayable",
      "type": "function"
    },
    {
      "inputs": [
        {
          "internalType": "address",
          "name": "resolver",
          "type": "address"
        }
      ],
      "name": "setResolver",
      "outputs": [],
      "stateMutability": "nonpayable",
      "type": "function"
    },
    {
      "inputs": [
        {
          "internalType": "bytes4",
          "name": "interfaceID",
          "type": "bytes4"
        }
      ],
      "name": "supportsInterface",
      "outputs": [
        {
          "internalType": "bool",
          "name": "",
          "type": "bool"
        }
      ],
      "stateMutability": "view",
      "type": "function"
    },
    {
      "inputs": [],
      "name": "symbol",
      "outputs": [
        {
          "internalType": "string",
          "name": "",
          "type": "string"
        }
      ],
      "stateMutability": "view",
      "type": "function"
    },
    {
      "inputs": [
        {
          "internalType": "uint256",
          "name": "tokenId",
          "type": "uint256"
        }
      ],
      "name": "tokenURI",
      "outputs": [
        {
          "internalType": "string",
          "name": "",
          "type": "string"
        }
      ],
      "stateMutability": "view",
      "type": "function"
    },
    {
      "inputs": [
        {
          "internalType": "address",
          "name": "from",
          "type": "address"
        },
        {
          "internalType": "address",
          "name": "to",
          "type": "address"
        },
        {
          "internalType": "uint256",
          "name": "tokenId",
          "type": "uint256"
        }
      ],
      "name": "transferFrom",
      "outputs": [],
      "stateMutability": "nonpayable",
      "type": "function"
    },
    {
      "inputs": [
        {
          "internalType": "address",
          "name": "newOwner",
          "type": "address"
        }
      ],
      "name": "transferOwnership",
      "outputs": [],
      "stateMutability": "nonpayable",
      "type": "function"
    }
  ],
  "bytecode": "0x60806040523480156200001157600080fd5b50604051620025223803806200252283398101604081905262000034916200018a565b60408051602080820183526000808352835191820190935282815290916200005d838262000260565b5060016200006c828262000260565b50505062000089620000836200011b60201b60201c565b6200011f565b600880546001600160a01b0319166001600160a01b03841690811790915560098290556040516302571be360e01b8152600060048201526200011391906302571be390602401602060405180830381865afa158015620000ed573d6000803e3d6000fd5b505050506040513d601f19601f820116820180604052508101906200008391906200032c565b505062000353565b3390565b600680546001600160a01b038381166001600160a01b0319831681179093556040519116919082907f8be0079c531659141344cd1fd0a4f28419497f9722a3daafe3b4186f6b6457e090600090a35050565b6001600160a01b03811681146200018757600080fd5b50565b600080604083850312156200019e57600080fd5b8251620001ab8162000171565b6020939093015192949293505050565b634e487b7160e01b600052604160045260246000fd5b600181811c90821680620001e657607f821691505b6020821081036200020757634e487b7160e01b600052602260045260246000fd5b50919050565b601f8211156200025b57600081815260208120601f850160051c81016020861015620002365750805b601f850160051c820191505b81811015620002575782815560010162000242565b5050505b505050565b81516001600160401b038111156200027c576200027c620001bb565b62000294816200028d8454620001d1565b846200020d565b602080601f831160018114620002cc5760008415620002b35750858301515b600019600386901b1c1916600185901b17855562000257565b600085815260208120601f198616915b82811015620002fd57888601518255948401946001909101908401620002dc565b50858210156200031c5787850151600019600388901b60f8161c191681555b5050505050600190811b01905550565b6000602082840312156200033f57600080fd5b81516200034c8162000171565b9392505050565b6121bf80620003636000396000f3fe608060405234801561001057600080fd5b50600436106101da5760003560e01c806395d89b4111610104578063c87b56dd116100a2578063e985e9c511610071578063e985e9c5146103fe578063f2fde38b1461043a578063f6a74ed71461044d578063fca247ac1461046057600080fd5b8063c87b56dd1461039f578063d6e4fa86146103b2578063da8c229e146103d2578063ddf7fcb0146103f557600080fd5b8063a7fc7a07116100de578063a7fc7a071461035c578063b88d4fde1461036f578063c1a287e214610382578063c475abff1461038c57600080fd5b806395d89b411461032e57806396e494e814610336578063a22cb4651461034957600080fd5b80632ec54dc31161017c5780636352211e1161014b5780636352211e146102ef57806370a0823114610302578063715018a6146103155780638da5cb5b1461031d57600080fd5b80632ec54dc3146102a35780633f15457f146102b657806342842e0e146102c95780634e543b26146102dc57600080fd5b8063095ea7b3116101b8578063095ea7b3146102475780630e297b451461025c57806323b872dd1461027d57806328ed4f6c1461029057600080fd5b806301ffc9a7146101df57806306fdde0314610207578063081812fc1461021c575b600080fd5b6101f26101ed366004611d4d565b610473565b60405190151581526020015b60405180910390f35b61020f610544565b6040516101fe9190611dba565b61022f61022a366004611dcd565b6105d6565b6040516001600160a01b0390911681526020016101fe565b61025a610255366004611dfb565b6105fd565b005b61026f61026a366004611e27565b610733565b6040519081526020016101fe565b61025a61028b366004611e5f565b61074a565b61025a61029e366004611e8f565b6107d1565b61025a6102b1366004611ebf565b6108ea565b60085461022f906001600160a01b031681565b61025a6102d7366004611e5f565b6109fc565b61025a6102ea366004611ee1565b610a17565b61022f6102fd366004611dcd565b610aa5565b61026f610310366004611ee1565b610ac8565b61025a610b62565b6006546001600160a01b031661022f565b61020f610b76565b6101f2610344366004611dcd565b610b85565b61025a610357366004611efe565b610bab565b61025a61036a366004611ee1565b610bba565b61025a61037d366004611f47565b610c0e565b61026f6276a70081565b61026f61039a366004611ebf565b610c9c565b61020f6103ad366004611dcd565b610e2d565b61026f6103c0366004611dcd565b60009081526007602052604090205490565b6101f26103e0366004611ee1565b600a6020526000908152604090205460ff1681565b61026f60095481565b6101f261040c366004612027565b6001600160a01b03918216600090815260056020908152604080832093909416825291909152205460ff1690565b61025a610448366004611ee1565b610ea1565b61025a61045b366004611ee1565b610f31565b61026f61046e366004611e27565b610f82565b60006001600160e01b031982167f01ffc9a70000000000000000000000000000000000000000000000000000000014806104d657506001600160e01b031982167f80ac58cd00000000000000000000000000000000000000000000000000000000145b8061050a57506001600160e01b031982167f28ed4f6c00000000000000000000000000000000000000000000000000000000145b8061053e57506001600160e01b031982167f2ec54dc300000000000000000000000000000000000000000000000000000000145b92915050565b60606000805461055390612055565b80601f016020809104026020016040519081016040528092919081815260200182805461057f90612055565b80156105cc5780601f106105a1576101008083540402835291602001916105cc565b820191906000526020600020905b8154815290600101906020018083116105af57829003601f168201915b5050505050905090565b60006105e182610f91565b506000908152600460205260409020546001600160a01b031690565b600061060882610ff5565b9050806001600160a01b0316836001600160a01b0316036106965760405162461bcd60e51b815260206004820152602160248201527f4552433732313a20617070726f76616c20746f2063757272656e74206f776e6560448201527f720000000000000000000000000000000000000000000000000000000000000060648201526084015b60405180910390fd5b336001600160a01b03821614806106b257506106b2813361040c565b6107245760405162461bcd60e51b815260206004820152603d60248201527f4552433732313a20617070726f76652063616c6c6572206973206e6f7420746f60448201527f6b656e206f776e6572206f7220617070726f76656420666f7220616c6c000000606482015260840161068d565b61072e838361105a565b505050565b600061074284848460006110d5565b949350505050565b61075433826112e5565b6107c65760405162461bcd60e51b815260206004820152602d60248201527f4552433732313a2063616c6c6572206973206e6f7420746f6b656e206f776e6560448201527f72206f7220617070726f76656400000000000000000000000000000000000000606482015260840161068d565b61072e838383611360565b6008546009546040516302571be360e01b8152600481019190915230916001600160a01b0316906302571be390602401602060405180830381865afa15801561081e573d6000803e3d6000fd5b505050506040513d601f19601f82011682018060405250810190610842919061208f565b6001600160a01b03161461085557600080fd5b61085f33836112e5565b61086857600080fd5b6008546009546040516306ab592360e01b81526004810191909152602481018490526001600160a01b038381166044830152909116906306ab5923906064016020604051808303816000875af11580156108c6573d6000803e3d6000fd5b505050506040513d601f19601f8201168201806040525081019061072e91906120ac565b6008546009546040516302571be360e01b8152600481019190915230916001600160a01b0316906302571be390602401602060405180830381865afa158015610937573d6000803e3d6000fd5b505050506040513d601f19601f8201168201806040525081019061095b919061208f565b6001600160a01b03161461096e57600080fd5b336000908152600a602052604090205460ff1661098a57600080fd5b6000828152600260205260409020546001600160a01b03166109ab57600080fd5b600082815260076020526040908190208290555182907f9b87a00e30f1ac65d898f070f8a3488fe60517182d0a2098e1b4b93a54aa9bd6906109f09084815260200190565b60405180910390a25050565b61072e83838360405180602001604052806000815250610c0e565b610a1f611573565b6008546009546040517f1896f70a00000000000000000000000000000000000000000000000000000000815260048101919091526001600160a01b03838116602483015290911690631896f70a90604401600060405180830381600087803b158015610a8a57600080fd5b505af1158015610a9e573d6000803e3d6000fd5b5050505050565b6000818152600760205260408120544210610abf57600080fd5b61053e82610ff5565b60006001600160a01b038216610b465760405162461bcd60e51b815260206004820152602960248201527f4552433732313a2061646472657373207a65726f206973206e6f74206120766160448201527f6c6964206f776e65720000000000000000000000000000000000000000000000606482015260840161068d565b506001600160a01b031660009081526003602052604090205490565b610b6a611573565b610b7460006115cd565b565b60606001805461055390612055565b6000818152600760205260408120544290610ba4906276a700906120db565b1092915050565b610bb633838361162c565b5050565b610bc2611573565b6001600160a01b0381166000818152600a6020526040808220805460ff19166001179055517f0a8bb31534c0ed46f380cb867bd5c803a189ced9a764e30b3a4991a9901d74749190a250565b610c1833836112e5565b610c8a5760405162461bcd60e51b815260206004820152602d60248201527f4552433732313a2063616c6c6572206973206e6f7420746f6b656e206f776e6560448201527f72206f7220617070726f76656400000000000000000000000000000000000000606482015260840161068d565b610c96848484846116fa565b50505050565b6008546009546040516302571be360e01b8152600481019190915260009130916001600160a01b03909116906302571be390602401602060405180830381865afa158015610cee573d6000803e3d6000fd5b505050506040513d601f19601f82011682018060405250810190610d12919061208f565b6001600160a01b031614610d2557600080fd5b336000908152600a602052604090205460ff16610d4157600080fd5b6000838152600760205260409020544290610d60906276a700906120db565b1015610d6b57600080fd5b610d786276a700836120db565b6000848152600760205260409020546276a70090610d979085906120db565b610da191906120db565b11610dab57600080fd5b60008381526007602052604081208054849290610dc99084906120db565b90915550506000838152600760205260409081902054905184917f9b87a00e30f1ac65d898f070f8a3488fe60517182d0a2098e1b4b93a54aa9bd691610e1191815260200190565b60405180910390a2505060009081526007602052604090205490565b6060610e3882610f91565b6000610e4f60408051602081019091526000815290565b90506000815111610e6f5760405180602001604052806000815250610e9a565b80610e7984611783565b604051602001610e8a9291906120ee565b6040516020818303038152906040525b9392505050565b610ea9611573565b6001600160a01b038116610f255760405162461bcd60e51b815260206004820152602660248201527f4f776e61626c653a206e6577206f776e657220697320746865207a65726f206160448201527f6464726573730000000000000000000000000000000000000000000000000000606482015260840161068d565b610f2e816115cd565b50565b610f39611573565b6001600160a01b0381166000818152600a6020526040808220805460ff19169055517f33d83959be2573f5453b12eb9d43b3499bc57d96bd2f067ba44803c859e811139190a250565b600061074284848460016110d5565b6000818152600260205260409020546001600160a01b0316610f2e5760405162461bcd60e51b815260206004820152601860248201527f4552433732313a20696e76616c696420746f6b656e2049440000000000000000604482015260640161068d565b6000818152600260205260408120546001600160a01b03168061053e5760405162461bcd60e51b815260206004820152601860248201527f4552433732313a20696e76616c696420746f6b656e2049440000000000000000604482015260640161068d565b6000818152600460205260409020805473ffffffffffffffffffffffffffffffffffffffff19166001600160a01b038416908117909155819061109c82610ff5565b6001600160a01b03167f8c5be1e5ebec7d5bd14f71427d1e84f3dd0314c0f7b2291e5b200ac8c7c3b92560405160405180910390a45050565b6008546009546040516302571be360e01b8152600481019190915260009130916001600160a01b03909116906302571be390602401602060405180830381865afa158015611127573d6000803e3d6000fd5b505050506040513d601f19601f8201168201806040525081019061114b919061208f565b6001600160a01b03161461115e57600080fd5b336000908152600a602052604090205460ff1661117a57600080fd5b61118385610b85565b61118c57600080fd5b6111996276a700426120db565b6276a7006111a785426120db565b6111b191906120db565b116111bb57600080fd5b6111c583426120db565b6000868152600760209081526040808320939093556002905220546001600160a01b0316156111f7576111f785611823565b61120184866118d3565b811561128b576008546009546040516306ab592360e01b81526004810191909152602481018790526001600160a01b038681166044830152909116906306ab5923906064016020604051808303816000875af1158015611265573d6000803e3d6000fd5b505050506040513d601f19601f8201168201806040525081019061128991906120ac565b505b6001600160a01b038416857fb3d987963d01b2f68493b4bdb130988f157ea43070d4ad840fee0466ed9370d96112c186426120db565b60405190815260200160405180910390a36112dc83426120db565b95945050505050565b6000806112f183610aa5565b9050806001600160a01b0316846001600160a01b0316148061132c5750836001600160a01b0316611321846105d6565b6001600160a01b0316145b8061074257506001600160a01b0380821660009081526005602090815260408083209388168352929052205460ff16610742565b826001600160a01b031661137382610ff5565b6001600160a01b0316146113d75760405162461bcd60e51b815260206004820152602560248201527f4552433732313a207472616e736665722066726f6d20696e636f72726563742060448201526437bbb732b960d91b606482015260840161068d565b6001600160a01b0382166114525760405162461bcd60e51b8152602060048201526024808201527f4552433732313a207472616e7366657220746f20746865207a65726f2061646460448201527f7265737300000000000000000000000000000000000000000000000000000000606482015260840161068d565b61145f8383836001611a79565b826001600160a01b031661147282610ff5565b6001600160a01b0316146114d65760405162461bcd60e51b815260206004820152602560248201527f4552433732313a207472616e736665722066726f6d20696e636f72726563742060448201526437bbb732b960d91b606482015260840161068d565b6000818152600460209081526040808320805473ffffffffffffffffffffffffffffffffffffffff199081169091556001600160a01b0387811680865260038552838620805460001901905590871680865283862080546001019055868652600290945282852080549092168417909155905184937fddf252ad1be2c89b69c2b068fc378daa952ba7f163c4a11628f55a4df523b3ef91a4505050565b6006546001600160a01b03163314610b745760405162461bcd60e51b815260206004820181905260248201527f4f776e61626c653a2063616c6c6572206973206e6f7420746865206f776e6572604482015260640161068d565b600680546001600160a01b0383811673ffffffffffffffffffffffffffffffffffffffff19831681179093556040519116919082907f8be0079c531659141344cd1fd0a4f28419497f9722a3daafe3b4186f6b6457e090600090a35050565b816001600160a01b0316836001600160a01b03160361168d5760405162461bcd60e51b815260206004820152601960248201527f4552433732313a20617070726f766520746f2063616c6c657200000000000000604482015260640161068d565b6001600160a01b03838116600081815260056020908152604080832094871680845294825291829020805460ff191686151590811790915591519182527f17307eab39ab6107e8899845ad3d59bd9653f200f220920489ca2b5937696c31910160405180910390a3505050565b611705848484611360565b61171184848484611b01565b610c965760405162461bcd60e51b815260206004820152603260248201527f4552433732313a207472616e7366657220746f206e6f6e20455243373231526560448201527f63656976657220696d706c656d656e7465720000000000000000000000000000606482015260840161068d565b6060600061179083611c55565b600101905060008167ffffffffffffffff8111156117b0576117b0611f31565b6040519080825280601f01601f1916602001820160405280156117da576020820181803683370190505b5090508181016020015b600019017f3031323334353637383961626364656600000000000000000000000000000000600a86061a8153600a85049450846117e457509392505050565b600061182e82610ff5565b905061183e816000846001611a79565b61184782610ff5565b6000838152600460209081526040808320805473ffffffffffffffffffffffffffffffffffffffff199081169091556001600160a01b0385168085526003845282852080546000190190558785526002909352818420805490911690555192935084927fddf252ad1be2c89b69c2b068fc378daa952ba7f163c4a11628f55a4df523b3ef908390a45050565b6001600160a01b0382166119295760405162461bcd60e51b815260206004820181905260248201527f4552433732313a206d696e7420746f20746865207a65726f2061646472657373604482015260640161068d565b6000818152600260205260409020546001600160a01b03161561198e5760405162461bcd60e51b815260206004820152601c60248201527f4552433732313a20746f6b656e20616c7265616479206d696e74656400000000604482015260640161068d565b61199c600083836001611a79565b6000818152600260205260409020546001600160a01b031615611a015760405162461bcd60e51b815260206004820152601c60248201527f4552433732313a20746f6b656e20616c7265616479206d696e74656400000000604482015260640161068d565b6001600160a01b0382166000818152600360209081526040808320805460010190558483526002909152808220805473ffffffffffffffffffffffffffffffffffffffff19168417905551839291907fddf252ad1be2c89b69c2b068fc378daa952ba7f163c4a11628f55a4df523b3ef908290a45050565b6001811115610c96576001600160a01b03841615611abf576001600160a01b03841660009081526003602052604081208054839290611ab990849061211d565b90915550505b6001600160a01b03831615610c96576001600160a01b03831660009081526003602052604081208054839290611af69084906120db565b909155505050505050565b60006001600160a01b0384163b15611c4d57604051630a85bd0160e11b81526001600160a01b0385169063150b7a0290611b45903390899088908890600401612130565b6020604051808303816000875af1925050508015611b80575060408051601f3d908101601f19168201909252611b7d9181019061216c565b60015b611c33573d808015611bae576040519150601f19603f3d011682016040523d82523d6000602084013e611bb3565b606091505b508051600003611c2b5760405162461bcd60e51b815260206004820152603260248201527f4552433732313a207472616e7366657220746f206e6f6e20455243373231526560448201527f63656976657220696d706c656d656e7465720000000000000000000000000000606482015260840161068d565b805181602001fd5b6001600160e01b031916630a85bd0160e11b149050610742565b506001610742565b6000807a184f03e93ff9f4daa797ed6e38ed64bf6a1f0100000000000000008310611c9e577a184f03e93ff9f4daa797ed6e38ed64bf6a1f010000000000000000830492506040015b6d04ee2d6d415b85acef81000000008310611cca576d04ee2d6d415b85acef8100000000830492506020015b662386f26fc100008310611ce857662386f26fc10000830492506010015b6305f5e1008310611d00576305f5e100830492506008015b6127108310611d1457612710830492506004015b60648310611d26576064830492506002015b600a831061053e5760010192915050565b6001600160e01b031981168114610f2e57600080fd5b600060208284031215611d5f57600080fd5b8135610e9a81611d37565b60005b83811015611d85578181015183820152602001611d6d565b50506000910152565b60008151808452611da6816020860160208601611d6a565b601f01601f19169290920160200192915050565b602081526000610e9a6020830184611d8e565b600060208284031215611ddf57600080fd5b5035919050565b6001600160a01b0381168114610f2e57600080fd5b60008060408385031215611e0e57600080fd5b8235611e1981611de6565b946020939093013593505050565b600080600060608486031215611e3c57600080fd5b833592506020840135611e4e81611de6565b929592945050506040919091013590565b600080600060608486031215611e7457600080fd5b8335611e7f81611de6565b92506020840135611e4e81611de6565b60008060408385031215611ea257600080fd5b823591506020830135611eb481611de6565b809150509250929050565b60008060408385031215611ed257600080fd5b50508035926020909101359150565b600060208284031215611ef357600080fd5b8135610e9a81611de6565b60008060408385031215611f1157600080fd5b8235611f1c81611de6565b915060208301358015158114611eb457600080fd5b634e487b7160e01b600052604160045260246000fd5b60008060008060808587031215611f5d57600080fd5b8435611f6881611de6565b93506020850135611f7881611de6565b925060408501359150606085013567ffffffffffffffff80821115611f9c57600080fd5b818701915087601f830112611fb057600080fd5b813581811115611fc257611fc2611f31565b604051601f8201601f19908116603f01168101908382118183101715611fea57611fea611f31565b816040528281528a602084870101111561200357600080fd5b82602086016020830137600060208483010152809550505050505092959194509250565b6000806040838503121561203a57600080fd5b823561204581611de6565b91506020830135611eb481611de6565b600181811c9082168061206957607f821691505b60208210810361208957634e487b7160e01b600052602260045260246000fd5b50919050565b6000602082840312156120a157600080fd5b8151610e9a81611de6565b6000602082840312156120be57600080fd5b5051919050565b634e487b7160e01b600052601160045260246000fd5b8082018082111561053e5761053e6120c5565b60008351612100818460208801611d6a565b835190830190612114818360208801611d6a565b01949350505050565b8181038181111561053e5761053e6120c5565b60006001600160a01b038087168352808616602084015250836040830152608060608301526121626080830184611d8e565b9695505050505050565b60006020828403121561217e57600080fd5b8151610e9a81611d3756fea26469706673582212200528bc41b0f058674610fc39cbab0b957920752dc813639e7f9520c7d275553964736f6c63430008110033",
  "linkReferences": {},
  "deployedLinkReferences": {}
}