{
  "_format": "hh-sol-artifact-1",
  "contractName": "EIP712Proxy",
  "sourceName": "contracts/attestation/eas/eip712/proxy/EIP712Proxy.sol",
  "abi": [
    {
      "inputs": [
        {
          "internalType": "contract IEAS",
          "name": "eas",
          "type": "address"
        },
        {
          "internalType": "string",
          "name": "name",
          "type": "string"
        }
      ],
      "stateMutability": "nonpayable",
      "type": "constructor"
    },
    {
      "inputs": [],
      "name": "AccessDenied",
      "type": "error"
    },
    {
      "inputs": [],
      "name": "DeadlineExpired",
      "type": "error"
    },
    {
      "inputs": [],
      "name": "InvalidEAS",
      "type": "error"
    },
    {
      "inputs": [],
      "name": "InvalidLength",
      "type": "error"
    },
    {
      "inputs": [],
      "name": "InvalidSignature",
      "type": "error"
    },
    {
      "inputs": [],
      "name": "NotFound",
      "type": "error"
    },
    {
      "inputs": [],
      "name": "UsedSignature",
      "type": "error"
    },
    {
      "inputs": [],
      "name": "VERSION",
      "outputs": [
        {
          "internalType": "string",
          "name": "",
          "type": "string"
        }
      ],
      "stateMutability": "view",
      "type": "function"
    },
    {
      "inputs": [
        {
          "components": [
            {
              "internalType": "bytes32",
              "name": "schema",
              "type": "bytes32"
            },
            {
              "components": [
                {
                  "internalType": "address",
                  "name": "recipient",
                  "type": "address"
                },
                {
                  "internalType": "uint64",
                  "name": "expirationTime",
                  "type": "uint64"
                },
                {
                  "internalType": "bool",
                  "name": "revocable",
                  "type": "bool"
                },
                {
                  "internalType": "bytes32",
                  "name": "refUID",
                  "type": "bytes32"
                },
                {
                  "internalType": "bytes",
                  "name": "data",
                  "type": "bytes"
                },
                {
                  "internalType": "uint256",
                  "name": "value",
                  "type": "uint256"
                }
              ],
              "internalType": "struct AttestationRequestData",
              "name": "data",
              "type": "tuple"
            },
            {
              "components": [
                {
                  "internalType": "uint8",
                  "name": "v",
                  "type": "uint8"
                },
                {
                  "internalType": "bytes32",
                  "name": "r",
                  "type": "bytes32"
                },
                {
                  "internalType": "bytes32",
                  "name": "s",
                  "type": "bytes32"
                }
              ],
              "internalType": "struct EIP712Signature",
              "name": "signature",
              "type": "tuple"
            },
            {
              "internalType": "address",
              "name": "attester",
              "type": "address"
            },
            {
              "internalType": "uint64",
              "name": "deadline",
              "type": "uint64"
            }
          ],
          "internalType": "struct DelegatedProxyAttestationRequest",
          "name": "delegatedRequest",
          "type": "tuple"
        }
      ],
      "name": "attestByDelegation",
      "outputs": [
        {
          "internalType": "bytes32",
          "name": "",
          "type": "bytes32"
        }
      ],
      "stateMutability": "payable",
      "type": "function"
    },
    {
      "inputs": [],
      "name": "getAttestTypeHash",
      "outputs": [
        {
          "internalType": "bytes32",
          "name": "",
          "type": "bytes32"
        }
      ],
      "stateMutability": "pure",
      "type": "function"
    },
    {
      "inputs": [
        {
          "internalType": "bytes32",
          "name": "uid",
          "type": "bytes32"
        }
      ],
      "name": "getAttester",
      "outputs": [
        {
          "internalType": "address",
          "name": "",
          "type": "address"
        }
      ],
      "stateMutability": "view",
      "type": "function"
    },
    {
      "inputs": [],
      "name": "getDomainSeparator",
      "outputs": [
        {
          "internalType": "bytes32",
          "name": "",
          "type": "bytes32"
        }
      ],
      "stateMutability": "view",
      "type": "function"
    },
    {
      "inputs": [],
      "name": "getEAS",
      "outputs": [
        {
          "internalType": "contract IEAS",
          "name": "",
          "type": "address"
        }
      ],
      "stateMutability": "view",
      "type": "function"
    },
    {
      "inputs": [],
      "name": "getName",
      "outputs": [
        {
          "internalType": "string",
          "name": "",
          "type": "string"
        }
      ],
      "stateMutability": "view",
      "type": "function"
    },
    {
      "inputs": [],
      "name": "getRevokeTypeHash",
      "outputs": [
        {
          "internalType": "bytes32",
          "name": "",
          "type": "bytes32"
        }
      ],
      "stateMutability": "pure",
      "type": "function"
    },
    {
      "inputs": [
        {
          "components": [
            {
              "internalType": "bytes32",
              "name": "schema",
              "type": "bytes32"
            },
            {
              "components": [
                {
                  "internalType": "address",
                  "name": "recipient",
                  "type": "address"
                },
                {
                  "internalType": "uint64",
                  "name": "expirationTime",
                  "type": "uint64"
                },
                {
                  "internalType": "bool",
                  "name": "revocable",
                  "type": "bool"
                },
                {
                  "internalType": "bytes32",
                  "name": "refUID",
                  "type": "bytes32"
                },
                {
                  "internalType": "bytes",
                  "name": "data",
                  "type": "bytes"
                },
                {
                  "internalType": "uint256",
                  "name": "value",
                  "type": "uint256"
                }
              ],
              "internalType": "struct AttestationRequestData[]",
              "name": "data",
              "type": "tuple[]"
            },
            {
              "components": [
                {
                  "internalType": "uint8",
                  "name": "v",
                  "type": "uint8"
                },
                {
                  "internalType": "bytes32",
                  "name": "r",
                  "type": "bytes32"
                },
                {
                  "internalType": "bytes32",
                  "name": "s",
                  "type": "bytes32"
                }
              ],
              "internalType": "struct EIP712Signature[]",
              "name": "signatures",
              "type": "tuple[]"
            },
            {
              "internalType": "address",
              "name": "attester",
              "type": "address"
            },
            {
              "internalType": "uint64",
              "name": "deadline",
              "type": "uint64"
            }
          ],
          "internalType": "struct MultiDelegatedProxyAttestationRequest[]",
          "name": "multiDelegatedRequests",
          "type": "tuple[]"
        }
      ],
      "name": "multiAttestByDelegation",
      "outputs": [
        {
          "internalType": "bytes32[]",
          "name": "",
          "type": "bytes32[]"
        }
      ],
      "stateMutability": "payable",
      "type": "function"
    },
    {
      "inputs": [
        {
          "components": [
            {
              "internalType": "bytes32",
              "name": "schema",
              "type": "bytes32"
            },
            {
              "components": [
                {
                  "internalType": "bytes32",
                  "name": "uid",
                  "type": "bytes32"
                },
                {
                  "internalType": "uint256",
                  "name": "value",
                  "type": "uint256"
                }
              ],
              "internalType": "struct RevocationRequestData[]",
              "name": "data",
              "type": "tuple[]"
            },
            {
              "components": [
                {
                  "internalType": "uint8",
                  "name": "v",
                  "type": "uint8"
                },
                {
                  "internalType": "bytes32",
                  "name": "r",
                  "type": "bytes32"
                },
                {
                  "internalType": "bytes32",
                  "name": "s",
                  "type": "bytes32"
                }
              ],
              "internalType": "struct EIP712Signature[]",
              "name": "signatures",
              "type": "tuple[]"
            },
            {
              "internalType": "address",
              "name": "revoker",
              "type": "address"
            },
            {
              "internalType": "uint64",
              "name": "deadline",
              "type": "uint64"
            }
          ],
          "internalType": "struct MultiDelegatedProxyRevocationRequest[]",
          "name": "multiDelegatedRequests",
          "type": "tuple[]"
        }
      ],
      "name": "multiRevokeByDelegation",
      "outputs": [],
      "stateMutability": "payable",
      "type": "function"
    },
    {
      "inputs": [
        {
          "components": [
            {
              "internalType": "bytes32",
              "name": "schema",
              "type": "bytes32"
            },
            {
              "components": [
                {
                  "internalType": "bytes32",
                  "name": "uid",
                  "type": "bytes32"
                },
                {
                  "internalType": "uint256",
                  "name": "value",
                  "type": "uint256"
                }
              ],
              "internalType": "struct RevocationRequestData",
              "name": "data",
              "type": "tuple"
            },
            {
              "components": [
                {
                  "internalType": "uint8",
                  "name": "v",
                  "type": "uint8"
                },
                {
                  "internalType": "bytes32",
                  "name": "r",
                  "type": "bytes32"
                },
                {
                  "internalType": "bytes32",
                  "name": "s",
                  "type": "bytes32"
                }
              ],
              "internalType": "struct EIP712Signature",
              "name": "signature",
              "type": "tuple"
            },
            {
              "internalType": "address",
              "name": "revoker",
              "type": "address"
            },
            {
              "internalType": "uint64",
              "name": "deadline",
              "type": "uint64"
            }
          ],
          "internalType": "struct DelegatedProxyRevocationRequest",
          "name": "delegatedRequest",
          "type": "tuple"
        }
      ],
      "name": "revokeByDelegation",
      "outputs": [],
      "stateMutability": "payable",
      "type": "function"
    }
  ],
  "bytecode": "0x6101606040523480156200001257600080fd5b506040516200241d3803806200241d833981016040819052620000359162000156565b6040805180820182526003815262302e3160e81b60209182015282518382012060e08190527f8cd160c72d102a6747abd189ac21d4a1f802e3fcc1bb8fc78cc4d558df0c7c216101008190524660a081815285517f8b73c3c69bb8fe3d512ecc4cf759cc79239f7b179b0ffacaa9a75d522b39400f818701819052818801959095526060810193909352608080840192909252308382018190528651808503909201825260c09384019096528051940193909320909252919052610120526001600160a01b0382166200011b576040516341bc07ff60e11b815260040160405180910390fd5b6001600160a01b038216610140526000620001378282620002db565b505050620003a7565b634e487b7160e01b600052604160045260246000fd5b600080604083850312156200016a57600080fd5b82516001600160a01b03811681146200018257600080fd5b602084810151919350906001600160401b0380821115620001a257600080fd5b818601915086601f830112620001b757600080fd5b815181811115620001cc57620001cc62000140565b604051601f8201601f19908116603f01168101908382118183101715620001f757620001f762000140565b8160405282815289868487010111156200021057600080fd5b600093505b8284101562000234578484018601518185018701529285019262000215565b60008684830101528096505050505050509250929050565b600181811c908216806200026157607f821691505b6020821081036200028257634e487b7160e01b600052602260045260246000fd5b50919050565b601f821115620002d657600081815260208120601f850160051c81016020861015620002b15750805b601f850160051c820191505b81811015620002d257828155600101620002bd565b5050505b505050565b81516001600160401b03811115620002f757620002f762000140565b6200030f816200030884546200024c565b8462000288565b602080601f8311600181146200034757600084156200032e5750858301515b600019600386901b1c1916600185901b178555620002d2565b600085815260208120601f198616915b82811015620003785788860151825594840194600190910190840162000357565b5085821015620003975787850151600019600388901b60f8161c191681555b5050505050600190811b01905550565b60805160a05160c05160e051610100516101205161014051611fff6200041e600039600081816101aa01528181610494015281816105ab015281816108e80152610a7201526000610f8501526000610fd401526000610faf01526000610f0801526000610f3201526000610f5c0152611fff6000f3fe6080604052600436106100bc5760003560e01c806365c40b9c11610074578063b83010d31161004e578063b83010d314610201578063ed24911d14610234578063ffa1ad741461024957600080fd5b806365c40b9c1461019b57806395411525146101ce578063a6d4dbc7146101ee57600080fd5b806312b11a17116100a557806312b11a171461012957806317d7de7c146101665780633c0427151461018857600080fd5b80630eabf660146100c157806310d736d5146100d6575b600080fd5b6100d46100cf366004611444565b610292565b005b3480156100e257600080fd5b5061010c6100f1366004611486565b6000908152600160205260409020546001600160a01b031690565b6040516001600160a01b0390911681526020015b60405180910390f35b34801561013557600080fd5b507f4120d3b28306666b714826ad7cb70744d9658ad3e6cd873411bedadcf55afda75b604051908152602001610120565b34801561017257600080fd5b5061017b610502565b60405161012091906114ef565b610158610196366004611509565b610594565b3480156101a757600080fd5b507f000000000000000000000000000000000000000000000000000000000000000061010c565b6101e16101dc366004611444565b6106c5565b6040516101209190611544565b6100d46101fc366004611588565b610a59565b34801561020d57600080fd5b507f96bdbea8fa280f8a0d0835587e1fbb1470e81d05c44514158443340cea40a05d610158565b34801561024057600080fd5b50610158610b4c565b34801561025557600080fd5b5061017b6040518060400160405280600381526020017f302e31000000000000000000000000000000000000000000000000000000000081525081565b60008167ffffffffffffffff8111156102ad576102ad6115a1565b6040519080825280602002602001820160405280156102f357816020015b6040805180820190915260008152606060208201528152602001906001900390816102cb5790505b50905060005b82811015610463576000848483818110610315576103156115b7565b905060200281019061032791906115cd565b6103309061180f565b6020810151805191925090158061034d5750816040015151815114155b15610384576040517f947d5a8400000000000000000000000000000000000000000000000000000000815260040160405180910390fd5b60005b81518110156104225760008282815181106103a4576103a46115b7565b602002602001015190506104196040518060a0016040528086600001518152602001838152602001866040015185815181106103e2576103e26115b7565b6020026020010151815260200186606001516001600160a01b03168152602001866080015167ffffffffffffffff16815250610b5b565b50600101610387565b506040518060400160405280836000015181526020018281525084848151811061044e5761044e6115b7565b602090810291909101015250506001016102f9565b506040517f4cb7e9e50000000000000000000000000000000000000000000000000000000081526001600160a01b037f00000000000000000000000000000000000000000000000000000000000000001690634cb7e9e59034906104cb90859060040161190a565b6000604051808303818588803b1580156104e457600080fd5b505af11580156104f8573d6000803e3d6000fd5b5050505050505050565b606060008054610511906119bb565b80601f016020809104026020016040519081016040528092919081815260200182805461053d906119bb565b801561058a5780601f1061055f5761010080835404028352916020019161058a565b820191906000526020600020905b81548152906001019060200180831161056d57829003601f168201915b5050505050905090565b60006105a76105a283611af5565b610d5a565b60007f00000000000000000000000000000000000000000000000000000000000000006001600160a01b031663f17325e7346040518060400160405280876000013581526020018780602001906105fe9190611b6e565b61060790611ba2565b8152506040518363ffffffff1660e01b81526004016106269190611c14565b60206040518083038185885af1158015610644573d6000803e3d6000fd5b50505050506040513d601f19601f820116820180604052508101906106699190611c41565b905061067b60c0840160a08501611c5a565b600082815260016020526040902080547fffffffffffffffffffffffff0000000000000000000000000000000000000000166001600160a01b039290921691909117905592915050565b606060008267ffffffffffffffff8111156106e2576106e26115a1565b60405190808252806020026020018201604052801561072857816020015b6040805180820190915260008152606060208201528152602001906001900390816107005790505b50905060005b838110156108e35736858583818110610749576107496115b7565b905060200281019061075b91906115cd565b905036600061076d6020840184611c75565b909250905080158061078d57506107876040840184611cbf565b82141590505b156107c4576040517f947d5a8400000000000000000000000000000000000000000000000000000000815260040160405180910390fd5b60005b81811015610898576108906040518060a00160405280866000013581526020018585858181106107f9576107f96115b7565b905060200281019061080b9190611b6e565b61081490611ba2565b81526020016108266040880188611cbf565b85818110610836576108366115b7565b90506060020180360381019061084c9190611d08565b81526020016108616080880160608901611c5a565b6001600160a01b0316815260200161087f60a0880160808901611d24565b67ffffffffffffffff169052610d5a565b6001016107c7565b506040805180820190915283358152602081016108b58385611d3f565b8152508585815181106108ca576108ca6115b7565b602002602001018190525083600101935050505061072e565b5060007f00000000000000000000000000000000000000000000000000000000000000006001600160a01b03166344adc90e34846040518363ffffffff1660e01b81526004016109339190611db3565b60006040518083038185885af1158015610951573d6000803e3d6000fd5b50505050506040513d6000823e601f3d908101601f1916820160405261097a9190810190611e88565b90506000805b85811015610a4e573687878381811061099b5761099b6115b7565b90506020028101906109ad91906115cd565b90503660006109bf6020840184611c75565b9150915060005b81811015610a3f576109de6080850160608601611c5a565b600160008989815181106109f4576109f46115b7565b6020026020010151815260200190815260200160002060006101000a8154816001600160a01b0302191690836001600160a01b031602179055508560010195508060010190506109c6565b50836001019350505050610980565b509095945050505050565b610a70610a6b36839003830183611f19565b610b5b565b7f00000000000000000000000000000000000000000000000000000000000000006001600160a01b031663469262673460405180604001604052808560000135815260200185602001803603810190610ac99190611f85565b90526040517fffffffff0000000000000000000000000000000000000000000000000000000060e085901b16815281516004820152602091820151805160248301529091015160448201526064016000604051808303818588803b158015610b3057600080fd5b505af1158015610b44573d6000803e3d6000fd5b505050505050565b6000610b56610efb565b905090565b608081015167ffffffffffffffff1615801590610b9057504267ffffffffffffffff16816080015167ffffffffffffffff1611155b15610bc7576040517f1ab7da6b00000000000000000000000000000000000000000000000000000000815260040160405180910390fd5b6020808201518051600090815260019092526040909120546001600160a01b031680610c1f576040517fc5723b5100000000000000000000000000000000000000000000000000000000815260040160405180910390fd5b6001600160a01b0381163314610c61576040517f4ca8886700000000000000000000000000000000000000000000000000000000815260040160405180910390fd5b6040830151610c6f81611022565b835183516080860151604051600093610ceb93610cd0937f96bdbea8fa280f8a0d0835587e1fbb1470e81d05c44514158443340cea40a05d936020019384526020840192909252604083015267ffffffffffffffff16606082015260800190565b60405160208183030381529060405280519060200120611130565b905084606001516001600160a01b0316610d138284600001518560200151866040015161119f565b6001600160a01b031614610d53576040517f8baa579f00000000000000000000000000000000000000000000000000000000815260040160405180910390fd5b5050505050565b608081015167ffffffffffffffff1615801590610d8f57504267ffffffffffffffff16816080015167ffffffffffffffff1611155b15610dc6576040517f1ab7da6b00000000000000000000000000000000000000000000000000000000815260040160405180910390fd5b60208101516040820151610dd981611022565b6000610e8d7f4120d3b28306666b714826ad7cb70744d9658ad3e6cd873411bedadcf55afda760001b856000015185600001518660200151876040015188606001518960800151805190602001208b60800151604051602001610cd098979695949392919097885260208801969096526001600160a01b0394909416604087015267ffffffffffffffff9283166060870152901515608086015260a085015260c08401919091521660e08201526101000190565b905083606001516001600160a01b0316610eb58284600001518560200151866040015161119f565b6001600160a01b031614610ef5576040517f8baa579f00000000000000000000000000000000000000000000000000000000815260040160405180910390fd5b50505050565b6000306001600160a01b037f000000000000000000000000000000000000000000000000000000000000000016148015610f5457507f000000000000000000000000000000000000000000000000000000000000000046145b15610f7e57507f000000000000000000000000000000000000000000000000000000000000000090565b50604080517f00000000000000000000000000000000000000000000000000000000000000006020808301919091527f0000000000000000000000000000000000000000000000000000000000000000828401527f000000000000000000000000000000000000000000000000000000000000000060608301524660808301523060a0808401919091528351808403909101815260c0909201909252805191012090565b8051602080830151604080850151905160f89490941b7fff0000000000000000000000000000000000000000000000000000000000000016928401929092526021830152604182015260009060610160405160208183030381529060405290506002816040516110929190611fa1565b9081526040519081900360200190205460ff16156110dc576040517fcce9a82400000000000000000000000000000000000000000000000000000000815260040160405180910390fd5b60016002826040516110ee9190611fa1565b90815260405190819003602001902080549115157fffffffffffffffffffffffffffffffffffffffffffffffffffffffffffffff009092169190911790555050565b600061119961113d610efb565b836040517f19010000000000000000000000000000000000000000000000000000000000006020820152602281018390526042810182905260009060620160405160208183030381529060405280519060200120905092915050565b92915050565b60008060006111b0878787876111c7565b915091506111bd8161128b565b5095945050505050565b6000807f7fffffffffffffffffffffffffffffff5d576e7357a4501ddfe92f46681b20a08311156111fe5750600090506003611282565b6040805160008082526020820180845289905260ff881692820192909252606081018690526080810185905260019060a0016020604051602081039080840390855afa158015611252573d6000803e3d6000fd5b5050604051601f1901519150506001600160a01b03811661127b57600060019250925050611282565b9150600090505b94509492505050565b600081600481111561129f5761129f611fb3565b036112a75750565b60018160048111156112bb576112bb611fb3565b0361130d5760405162461bcd60e51b815260206004820152601860248201527f45434453413a20696e76616c6964207369676e6174757265000000000000000060448201526064015b60405180910390fd5b600281600481111561132157611321611fb3565b0361136e5760405162461bcd60e51b815260206004820152601f60248201527f45434453413a20696e76616c6964207369676e6174757265206c656e677468006044820152606401611304565b600381600481111561138257611382611fb3565b036113f55760405162461bcd60e51b815260206004820152602260248201527f45434453413a20696e76616c6964207369676e6174757265202773272076616c60448201527f75650000000000000000000000000000000000000000000000000000000000006064820152608401611304565b50565b60008083601f84011261140a57600080fd5b50813567ffffffffffffffff81111561142257600080fd5b6020830191508360208260051b850101111561143d57600080fd5b9250929050565b6000806020838503121561145757600080fd5b823567ffffffffffffffff81111561146e57600080fd5b61147a858286016113f8565b90969095509350505050565b60006020828403121561149857600080fd5b5035919050565b60005b838110156114ba5781810151838201526020016114a2565b50506000910152565b600081518084526114db81602086016020860161149f565b601f01601f19169290920160200192915050565b60208152600061150260208301846114c3565b9392505050565b60006020828403121561151b57600080fd5b813567ffffffffffffffff81111561153257600080fd5b820160e0818503121561150257600080fd5b6020808252825182820181905260009190848201906040850190845b8181101561157c57835183529284019291840191600101611560565b50909695505050505050565b6000610100828403121561159b57600080fd5b50919050565b634e487b7160e01b600052604160045260246000fd5b634e487b7160e01b600052603260045260246000fd5b600082357fffffffffffffffffffffffffffffffffffffffffffffffffffffffffffffff6183360301811261160157600080fd5b9190910192915050565b60405160a0810167ffffffffffffffff8111828210171561162e5761162e6115a1565b60405290565b60405160c0810167ffffffffffffffff8111828210171561162e5761162e6115a1565b604051601f8201601f1916810167ffffffffffffffff81118282101715611680576116806115a1565b604052919050565b600067ffffffffffffffff8211156116a2576116a26115a1565b5060051b60200190565b6000604082840312156116be57600080fd5b6040516040810181811067ffffffffffffffff821117156116e1576116e16115a1565b604052823581526020928301359281019290925250919050565b60006060828403121561170d57600080fd5b6040516060810181811067ffffffffffffffff82111715611730576117306115a1565b604052905080823560ff8116811461174757600080fd5b8082525060208301356020820152604083013560408201525092915050565b600082601f83011261177757600080fd5b8135602061178c61178783611688565b611657565b828152606092830285018201928282019190878511156117ab57600080fd5b8387015b858110156117ce576117c189826116fb565b84529284019281016117af565b5090979650505050505050565b80356001600160a01b03811681146117f257600080fd5b919050565b803567ffffffffffffffff811681146117f257600080fd5b600060a0823603121561182157600080fd5b61182961160b565b8235815260208084013567ffffffffffffffff8082111561184957600080fd5b9085019036601f83011261185c57600080fd5b813561186a61178782611688565b81815260069190911b8301840190848101903683111561188957600080fd5b938501935b828510156118b2576118a036866116ac565b8252858201915060408501945061188e565b808688015250505060408601359250808311156118ce57600080fd5b50506118dc36828601611766565b6040830152506118ee606084016117db565b60608201526118ff608084016117f7565b608082015292915050565b60006020808301818452808551808352604092508286019150828160051b8701018488016000805b848110156119ac57898403603f19018652825180518552880151888501889052805188860181905290890190839060608701905b808310156119975761198382855180518252602090810151910152565b928b019260019290920191908a0190611966565b50978a01979550505091870191600101611932565b50919998505050505050505050565b600181811c908216806119cf57607f821691505b60208210810361159b57634e487b7160e01b600052602260045260246000fd5b600082601f830112611a0057600080fd5b813567ffffffffffffffff811115611a1a57611a1a6115a1565b611a2d6020601f19601f84011601611657565b818152846020838601011115611a4257600080fd5b816020850160208301376000918101602001919091529392505050565b600060c08284031215611a7157600080fd5b611a79611634565b9050611a84826117db565b8152611a92602083016117f7565b602082015260408201358015158114611aaa57600080fd5b604082015260608281013590820152608082013567ffffffffffffffff811115611ad357600080fd5b611adf848285016119ef565b60808301525060a082013560a082015292915050565b600060e08236031215611b0757600080fd5b611b0f61160b565b82358152602083013567ffffffffffffffff811115611b2d57600080fd5b611b3936828601611a5f565b602083015250611b4c36604085016116fb565b6040820152611b5d60a084016117db565b60608201526118ff60c084016117f7565b600082357fffffffffffffffffffffffffffffffffffffffffffffffffffffffffffffff4183360301811261160157600080fd5b60006111993683611a5f565b6001600160a01b03815116825267ffffffffffffffff6020820151166020830152604081015115156040830152606081015160608301526000608082015160c06080850152611c0060c08501826114c3565b60a093840151949093019390935250919050565b602081528151602082015260006020830151604080840152611c396060840182611bae565b949350505050565b600060208284031215611c5357600080fd5b5051919050565b600060208284031215611c6c57600080fd5b611502826117db565b6000808335601e19843603018112611c8c57600080fd5b83018035915067ffffffffffffffff821115611ca757600080fd5b6020019150600581901b360382131561143d57600080fd5b6000808335601e19843603018112611cd657600080fd5b83018035915067ffffffffffffffff821115611cf157600080fd5b602001915060608102360382131561143d57600080fd5b600060608284031215611d1a57600080fd5b61150283836116fb565b600060208284031215611d3657600080fd5b611502826117f7565b6000611d4d61178784611688565b80848252602080830192508560051b850136811115611d6b57600080fd5b855b81811015611da757803567ffffffffffffffff811115611d8d5760008081fd5b611d9936828a01611a5f565b865250938201938201611d6d565b50919695505050505050565b602080825282518282018190526000919060409081850190600581811b8701840188860187805b85811015611e7857603f198b85030187528251805185528901518985018990528051898601819052908a0190606081881b870181019190870190855b81811015611e62577fffffffffffffffffffffffffffffffffffffffffffffffffffffffffffffffa0898503018352611e50848651611bae565b948e01949350918d0191600101611e16565b505050978a019794505091880191600101611dda565b50919a9950505050505050505050565b60006020808385031215611e9b57600080fd5b825167ffffffffffffffff811115611eb257600080fd5b8301601f81018513611ec357600080fd5b8051611ed161178782611688565b81815260059190911b82018301908381019087831115611ef057600080fd5b928401925b82841015611f0e57835182529284019290840190611ef5565b979650505050505050565b60006101008284031215611f2c57600080fd5b611f3461160b565b82358152611f4584602085016116ac565b6020820152611f5784606085016116fb565b6040820152611f6860c084016117db565b6060820152611f7960e084016117f7565b60808201529392505050565b600060408284031215611f9757600080fd5b61150283836116ac565b6000825161160181846020870161149f565b634e487b7160e01b600052602160045260246000fdfea26469706673582212201e9d915bbf0afb21477f9ef31d681c4e15a779f5810b6cd79b16c25069fac8bd64736f6c63430008130033",
  "linkReferences": {},
  "deployedLinkReferences": {}
}