{
  "_format": "hh-sol-artifact-1",
  "contractName": "DiamondResolverFactory",
  "sourceName": "contracts/diamond-resolver/facets/base/DiamondResolverFactory.sol",
  "abi": [
    {
      "anonymous": false,
      "inputs": [
        {
          "indexed": true,
          "internalType": "address",
          "name": "cloner",
          "type": "address"
        },
        {
          "indexed": true,
          "internalType": "address",
          "name": "resolver",
          "type": "address"
        }
      ],
      "name": "CloneDiamondResolver",
      "type": "event"
    },
    {
      "inputs": [
        {
          "internalType": "bytes32",
          "name": "salt",
          "type": "bytes32"
        }
      ],
      "name": "clone",
      "outputs": [],
      "stateMutability": "nonpayable",
      "type": "function"
    }
  ],
  "bytecode": "0x608060405234801561001057600080fd5b506102f9806100206000396000f3fe608060405234801561001057600080fd5b506004361061002b5760003560e01c8063a061f09314610030575b600080fd5b61004361003e3660046102aa565b610045565b005b80606081901c3314610104576040517f08c379a000000000000000000000000000000000000000000000000000000000815260206004820152604560248201527f496e76616c69642073616c74202d206669727374203230206279746573206f6660448201527f207468652073616c74206d757374206d617463682063616c6c696e672061646460648201527f726573732e000000000000000000000000000000000000000000000000000000608482015260a4015b60405180910390fd5b600061011030846101e0565b6040517f485cc95500000000000000000000000000000000000000000000000000000000815233600482015230602482015290915073ffffffffffffffffffffffffffffffffffffffff82169063485cc95590604401600060405180830381600087803b15801561018057600080fd5b505af1158015610194573d6000803e3d6000fd5b505060405173ffffffffffffffffffffffffffffffffffffffff841692503391507f40961b548e4af03f13fc20c42826b938367a56f2a4409159d6a597f34592605190600090a3505050565b6000763d602d80600a3d3981f3363d3d373d3d3d363d730000008360601b60e81c176000526e5af43d82803e903d91602b57fd5bf38360781b1760205281603760096000f5905073ffffffffffffffffffffffffffffffffffffffff81166102a4576040517f08c379a000000000000000000000000000000000000000000000000000000000815260206004820152601760248201527f455243313136373a2063726561746532206661696c656400000000000000000060448201526064016100fb565b92915050565b6000602082840312156102bc57600080fd5b503591905056fea2646970667358221220e0e3dc0a5835763796112ba58cb8a713e6e43b56cae0a144d9b448fb6ad2248f64736f6c63430008130033",
  "linkReferences": {},
  "deployedLinkReferences": {}
}