{
  "_format": "hh-sol-artifact-1",
  "contractName": "TestWeirdResolver",
  "sourceName": "contracts/diamond-resolver/facets/test/TestWeirdResolver.sol",
  "abi": [
    {
      "inputs": [
        {
          "internalType": "uint256",
          "name": "_weirdConst",
          "type": "uint256"
        }
      ],
      "stateMutability": "nonpayable",
      "type": "constructor"
    },
    {
      "inputs": [],
      "name": "Unauthorised",
      "type": "error"
    },
    {
      "anonymous": false,
      "inputs": [
        {
          "indexed": true,
          "internalType": "bytes32",
          "name": "node",
          "type": "bytes32"
        },
        {
          "indexed": false,
          "internalType": "uint64",
          "name": "newVersion",
          "type": "uint64"
        }
      ],
      "name": "VersionChanged",
      "type": "event"
    },
    {
      "inputs": [
        {
          "internalType": "bytes4",
          "name": "interfaceID",
          "type": "bytes4"
        }
      ],
      "name": "supportsInterface",
      "outputs": [
        {
          "internalType": "bool",
          "name": "",
          "type": "bool"
        }
      ],
      "stateMutability": "view",
      "type": "function"
    },
    {
      "inputs": [
        {
          "internalType": "bytes32",
          "name": "node",
          "type": "bytes32"
        }
      ],
      "name": "weird",
      "outputs": [
        {
          "internalType": "uint256",
          "name": "",
          "type": "uint256"
        }
      ],
      "stateMutability": "view",
      "type": "function"
    }
  ],
  "bytecode": "0x60a060405234801561001057600080fd5b5060405161019938038061019983398101604081905261002f91610037565b608052610050565b60006020828403121561004957600080fd5b5051919050565b60805161012f61006a6000396000606b015261012f6000f3fe6080604052348015600f57600080fd5b506004361060325760003560e01c806301ffc9a714603757806371dbd8a814605d575b600080fd5b60486042366004609a565b50600090565b60405190151581526020015b60405180910390f35b608d606836600460e1565b507f000000000000000000000000000000000000000000000000000000000000000090565b6040519081526020016054565b60006020828403121560ab57600080fd5b81357fffffffff000000000000000000000000000000000000000000000000000000008116811460da57600080fd5b9392505050565b60006020828403121560f257600080fd5b503591905056fea2646970667358221220decb88d30977f8c1bfb895ed6018f7225b14959da113d41d669466973f276b4164736f6c63430008130033",
  "linkReferences": {},
  "deployedLinkReferences": {}
}