{
  "_format": "hh-sol-artifact-1",
  "contractName": "DiamondResolverOverrider",
  "sourceName": "contracts/diamond-resolver/DiamondResolverOverrider.sol",
  "abi": [
    {
      "inputs": [],
      "name": "NotDiamondOwner",
      "type": "error"
    },
    {
      "inputs": [
        {
          "internalType": "address",
          "name": "implementation",
          "type": "address"
        }
      ],
      "name": "Overrider_ImplementationNotWhitelisted",
      "type": "error"
    },
    {
      "inputs": [
        {
          "internalType": "bytes4",
          "name": "sig",
          "type": "bytes4"
        }
      ],
      "name": "Overrider_SignatureBlacklisted",
      "type": "error"
    },
    {
      "inputs": [],
      "name": "Unauthorised",
      "type": "error"
    },
    {
      "anonymous": false,
      "inputs": [
        {
          "indexed": true,
          "internalType": "bytes32",
          "name": "node",
          "type": "bytes32"
        },
        {
          "indexed": false,
          "internalType": "uint64",
          "name": "newVersion",
          "type": "uint64"
        }
      ],
      "name": "VersionChanged",
      "type": "event"
    },
    {
      "inputs": [
        {
          "internalType": "bytes32",
          "name": "node",
          "type": "bytes32"
        },
        {
          "internalType": "bytes4",
          "name": "sig",
          "type": "bytes4"
        },
        {
          "internalType": "address",
          "name": "implementation",
          "type": "address"
        }
      ],
      "name": "setOverride",
      "outputs": [],
      "stateMutability": "nonpayable",
      "type": "function"
    },
    {
      "inputs": [
        {
          "internalType": "bytes4[]",
          "name": "sig",
          "type": "bytes4[]"
        },
        {
          "internalType": "bool",
          "name": "blacklisted",
          "type": "bool"
        }
      ],
      "name": "setOverrideBlacklist",
      "outputs": [],
      "stateMutability": "nonpayable",
      "type": "function"
    },
    {
      "inputs": [
        {
          "internalType": "address[]",
          "name": "implementations",
          "type": "address[]"
        },
        {
          "internalType": "bool",
          "name": "whitelisted",
          "type": "bool"
        }
      ],
      "name": "setWhitelistedImplementation",
      "outputs": [],
      "stateMutability": "nonpayable",
      "type": "function"
    }
  ],
  "bytecode": "0x608060405234801561001057600080fd5b506108e2806100206000396000f3fe608060405234801561001057600080fd5b50600436106100415760003560e01c80631c6a19e3146100465780636d804e2b1461005b5780638802f8d31461006e575b600080fd5b61005961005436600461068c565b610081565b005b61005961006936600461075f565b610196565b61005961007c3660046107ee565b610297565b7f8a22373512790c48b83a1fe2efdd2888d4a917bcdc24d0adf63e60f6716804605473ffffffffffffffffffffffffffffffffffffffff1633146100f1576040517f3058081000000000000000000000000000000000000000000000000000000000815260040160405180910390fd5b81517f634e499d33ea30a2ce389401e5230ff0cceb12c1a9f41a56e57b0d9db67601c990819060005b8181101561018e578484600101600088848151811061013b5761013b61082a565b6020908102919091018101517fffffffff00000000000000000000000000000000000000000000000000000000168252810191909152604001600020805460ff191691151591909117905560010161011a565b505050505050565b7f8a22373512790c48b83a1fe2efdd2888d4a917bcdc24d0adf63e60f6716804605473ffffffffffffffffffffffffffffffffffffffff163314610206576040517f3058081000000000000000000000000000000000000000000000000000000000815260040160405180910390fd5b81517f634e499d33ea30a2ce389401e5230ff0cceb12c1a9f41a56e57b0d9db67601c990819060005b8181101561018e57848460020160008884815181106102505761025061082a565b60209081029190910181015173ffffffffffffffffffffffffffffffffffffffff168252810191909152604001600020805460ff191691151591909117905560010161022f565b826102a1816104a9565b6102d7576040517fd7a2ae6a00000000000000000000000000000000000000000000000000000000815260040160405180910390fd5b7fffffffff00000000000000000000000000000000000000000000000000000000831660009081527f634e499d33ea30a2ce389401e5230ff0cceb12c1a9f41a56e57b0d9db67601ca60205260409020547f634e499d33ea30a2ce389401e5230ff0cceb12c1a9f41a56e57b0d9db67601c990819060ff16156103af576040517f283c03110000000000000000000000000000000000000000000000000000000081527fffffffff00000000000000000000000000000000000000000000000000000000861660048201526024015b60405180910390fd5b73ffffffffffffffffffffffffffffffffffffffff8416600090815260028301602052604090205460ff16610428576040517f4a00774f00000000000000000000000000000000000000000000000000000000815273ffffffffffffffffffffffffffffffffffffffff851660048201526024016103a6565b506000948552602090815260408086207fffffffff0000000000000000000000000000000000000000000000000000000095909516865293905250912080547fffffffffffffffffffffffff00000000000000000000000000000000000000001673ffffffffffffffffffffffffffffffffffffffff909216919091179055565b60408051336024820152604480820184905282518083039091018152606490910182526020810180517bffffffffffffffffffffffffffffffffffffffffffffffffffffffff167f25f367040000000000000000000000000000000000000000000000000000000017905290516000918291829130916105299190610859565b600060405180830381855afa9150503d8060008114610564576040519150601f19603f3d011682016040523d82523d6000602084013e610569565b606091505b50915091508161057d575060009392505050565b808060200190518101906105919190610888565b949350505050565b7f4e487b7100000000000000000000000000000000000000000000000000000000600052604160045260246000fd5b604051601f82017fffffffffffffffffffffffffffffffffffffffffffffffffffffffffffffffe016810167ffffffffffffffff8111828210171561060f5761060f610599565b604052919050565b600067ffffffffffffffff82111561063157610631610599565b5060051b60200190565b80357fffffffff000000000000000000000000000000000000000000000000000000008116811461066b57600080fd5b919050565b801515811461067e57600080fd5b50565b803561066b81610670565b6000806040838503121561069f57600080fd5b823567ffffffffffffffff8111156106b657600080fd5b8301601f810185136106c757600080fd5b803560206106dc6106d783610617565b6105c8565b82815260059290921b830181019181810190888411156106fb57600080fd5b938201935b83851015610720576107118561063b565b82529382019390820190610700565b955061072f9050868201610681565b93505050509250929050565b803573ffffffffffffffffffffffffffffffffffffffff8116811461066b57600080fd5b6000806040838503121561077257600080fd5b823567ffffffffffffffff81111561078957600080fd5b8301601f8101851361079a57600080fd5b803560206107aa6106d783610617565b82815260059290921b830181019181810190888411156107c957600080fd5b938201935b83851015610720576107df8561073b565b825293820193908201906107ce565b60008060006060848603121561080357600080fd5b833592506108136020850161063b565b91506108216040850161073b565b90509250925092565b7f4e487b7100000000000000000000000000000000000000000000000000000000600052603260045260246000fd5b6000825160005b8181101561087a5760208186018101518583015201610860565b506000920191825250919050565b60006020828403121561089a57600080fd5b81516108a581610670565b939250505056fea2646970667358221220dfca81201b72144471ea524c78912a0837a6ea2445c6386ed671950ea148219d64736f6c63430008130033",
  "linkReferences": {},
  "deployedLinkReferences": {}
}