{
  "_format": "hh-sol-artifact-1",
  "contractName": "WhitelistRegistrarController",
  "sourceName": "contracts/ethregistrar/WhitelistRegistrarController.sol",
  "abi": [
    {
      "inputs": [
        {
          "internalType": "contract BaseRegistrarImplementation",
          "name": "_base",
          "type": "address"
        },
        {
          "internalType": "contract ReverseRegistrar",
          "name": "_reverseRegistrar",
          "type": "address"
        },
        {
          "internalType": "contract INameWrapper",
          "name": "_nameWrapper",
          "type": "address"
        },
        {
          "internalType": "address",
          "name": "_operator",
          "type": "address"
        },
        {
          "internalType": "uint16",
          "name": "_baseFuses",
          "type": "uint16"
        },
        {
          "internalType": "string",
          "name": "_ethNode",
          "type": "string"
        }
      ],
      "stateMutability": "nonpayable",
      "type": "constructor"
    },
    {
      "inputs": [],
      "name": "InsufficientValue",
      "type": "error"
    },
    {
      "inputs": [],
      "name": "InvalidOperatorSignature",
      "type": "error"
    },
    {
      "inputs": [
        {
          "internalType": "string",
          "name": "name",
          "type": "string"
        }
      ],
      "name": "NameNotAvailable",
      "type": "error"
    },
    {
      "inputs": [],
      "name": "NegativeDuration",
      "type": "error"
    },
    {
      "inputs": [],
      "name": "ResolverRequiredWhenDataSupplied",
      "type": "error"
    },
    {
      "anonymous": false,
      "inputs": [
        {
          "indexed": false,
          "internalType": "string",
          "name": "name",
          "type": "string"
        },
        {
          "indexed": true,
          "internalType": "bytes32",
          "name": "label",
          "type": "bytes32"
        },
        {
          "indexed": true,
          "internalType": "address",
          "name": "owner",
          "type": "address"
        },
        {
          "indexed": false,
          "internalType": "uint256",
          "name": "baseCost",
          "type": "uint256"
        },
        {
          "indexed": false,
          "internalType": "uint256",
          "name": "premium",
          "type": "uint256"
        },
        {
          "indexed": false,
          "internalType": "uint256",
          "name": "expires",
          "type": "uint256"
        }
      ],
      "name": "NameRegistered",
      "type": "event"
    },
    {
      "anonymous": false,
      "inputs": [
        {
          "indexed": false,
          "internalType": "string",
          "name": "name",
          "type": "string"
        },
        {
          "indexed": true,
          "internalType": "bytes32",
          "name": "label",
          "type": "bytes32"
        },
        {
          "indexed": false,
          "internalType": "uint256",
          "name": "cost",
          "type": "uint256"
        },
        {
          "indexed": false,
          "internalType": "uint256",
          "name": "expires",
          "type": "uint256"
        }
      ],
      "name": "NameRenewed",
      "type": "event"
    },
    {
      "anonymous": false,
      "inputs": [
        {
          "indexed": true,
          "internalType": "address",
          "name": "previousOwner",
          "type": "address"
        },
        {
          "indexed": true,
          "internalType": "address",
          "name": "newOwner",
          "type": "address"
        }
      ],
      "name": "OwnershipTransferred",
      "type": "event"
    },
    {
      "inputs": [],
      "name": "ETH_NODE",
      "outputs": [
        {
          "internalType": "bytes32",
          "name": "",
          "type": "bytes32"
        }
      ],
      "stateMutability": "view",
      "type": "function"
    },
    {
      "inputs": [],
      "name": "MIN_REGISTRATION_DURATION",
      "outputs": [
        {
          "internalType": "uint256",
          "name": "",
          "type": "uint256"
        }
      ],
      "stateMutability": "view",
      "type": "function"
    },
    {
      "inputs": [
        {
          "internalType": "bool",
          "name": "activated",
          "type": "bool"
        }
      ],
      "name": "activateCost",
      "outputs": [],
      "stateMutability": "nonpayable",
      "type": "function"
    },
    {
      "inputs": [
        {
          "internalType": "string",
          "name": "name",
          "type": "string"
        }
      ],
      "name": "available",
      "outputs": [
        {
          "internalType": "bool",
          "name": "",
          "type": "bool"
        }
      ],
      "stateMutability": "view",
      "type": "function"
    },
    {
      "inputs": [],
      "name": "baseFuses",
      "outputs": [
        {
          "internalType": "uint16",
          "name": "",
          "type": "uint16"
        }
      ],
      "stateMutability": "view",
      "type": "function"
    },
    {
      "inputs": [
        {
          "internalType": "bytes32",
          "name": "",
          "type": "bytes32"
        }
      ],
      "name": "commitments",
      "outputs": [
        {
          "internalType": "uint256",
          "name": "",
          "type": "uint256"
        }
      ],
      "stateMutability": "view",
      "type": "function"
    },
    {
      "inputs": [],
      "name": "costActivated",
      "outputs": [
        {
          "internalType": "bool",
          "name": "",
          "type": "bool"
        }
      ],
      "stateMutability": "view",
      "type": "function"
    },
    {
      "inputs": [
        {
          "internalType": "string",
          "name": "name",
          "type": "string"
        },
        {
          "internalType": "address",
          "name": "owner",
          "type": "address"
        },
        {
          "internalType": "uint256",
          "name": "expiration",
          "type": "uint256"
        },
        {
          "internalType": "bytes32",
          "name": "secret",
          "type": "bytes32"
        },
        {
          "internalType": "address",
          "name": "resolver",
          "type": "address"
        },
        {
          "internalType": "bytes[]",
          "name": "data",
          "type": "bytes[]"
        },
        {
          "internalType": "bool",
          "name": "reverseRecord",
          "type": "bool"
        },
        {
          "internalType": "uint16",
          "name": "ownerControlledFuses",
          "type": "uint16"
        }
      ],
      "name": "makeCommitment",
      "outputs": [
        {
          "internalType": "bytes32",
          "name": "",
          "type": "bytes32"
        }
      ],
      "stateMutability": "pure",
      "type": "function"
    },
    {
      "inputs": [],
      "name": "nameWrapper",
      "outputs": [
        {
          "internalType": "contract INameWrapper",
          "name": "",
          "type": "address"
        }
      ],
      "stateMutability": "view",
      "type": "function"
    },
    {
      "inputs": [],
      "name": "operator",
      "outputs": [
        {
          "internalType": "address",
          "name": "",
          "type": "address"
        }
      ],
      "stateMutability": "view",
      "type": "function"
    },
    {
      "inputs": [],
      "name": "owner",
      "outputs": [
        {
          "internalType": "address",
          "name": "",
          "type": "address"
        }
      ],
      "stateMutability": "view",
      "type": "function"
    },
    {
      "inputs": [
        {
          "internalType": "address",
          "name": "_token",
          "type": "address"
        },
        {
          "internalType": "address",
          "name": "_to",
          "type": "address"
        },
        {
          "internalType": "uint256",
          "name": "_amount",
          "type": "uint256"
        }
      ],
      "name": "recoverFunds",
      "outputs": [],
      "stateMutability": "nonpayable",
      "type": "function"
    },
    {
      "inputs": [
        {
          "internalType": "string",
          "name": "name",
          "type": "string"
        },
        {
          "internalType": "address",
          "name": "owner",
          "type": "address"
        },
        {
          "internalType": "uint256",
          "name": "expiration",
          "type": "uint256"
        },
        {
          "internalType": "bytes32",
          "name": "secret",
          "type": "bytes32"
        },
        {
          "internalType": "address",
          "name": "resolver",
          "type": "address"
        },
        {
          "internalType": "bytes[]",
          "name": "data",
          "type": "bytes[]"
        },
        {
          "internalType": "bool",
          "name": "reverseRecord",
          "type": "bool"
        },
        {
          "internalType": "uint16",
          "name": "ownerControlledFuses",
          "type": "uint16"
        },
        {
          "internalType": "bytes",
          "name": "operatorSignature",
          "type": "bytes"
        }
      ],
      "name": "register",
      "outputs": [],
      "stateMutability": "payable",
      "type": "function"
    },
    {
      "inputs": [
        {
          "internalType": "string",
          "name": "name",
          "type": "string"
        },
        {
          "internalType": "uint256",
          "name": "expiration",
          "type": "uint256"
        },
        {
          "internalType": "bytes",
          "name": "operatorSignature",
          "type": "bytes"
        }
      ],
      "name": "renew",
      "outputs": [],
      "stateMutability": "nonpayable",
      "type": "function"
    },
    {
      "inputs": [],
      "name": "renounceOwnership",
      "outputs": [],
      "stateMutability": "nonpayable",
      "type": "function"
    },
    {
      "inputs": [],
      "name": "reverseRegistrar",
      "outputs": [
        {
          "internalType": "contract ReverseRegistrar",
          "name": "",
          "type": "address"
        }
      ],
      "stateMutability": "view",
      "type": "function"
    },
    {
      "inputs": [
        {
          "internalType": "uint16",
          "name": "_baseFuses",
          "type": "uint16"
        }
      ],
      "name": "setBaseFuses",
      "outputs": [],
      "stateMutability": "nonpayable",
      "type": "function"
    },
    {
      "inputs": [
        {
          "internalType": "contract ISupporterPlan",
          "name": "_supporterPlan",
          "type": "address"
        }
      ],
      "name": "setSupporterPlan",
      "outputs": [],
      "stateMutability": "nonpayable",
      "type": "function"
    },
    {
      "inputs": [],
      "name": "supporterPlan",
      "outputs": [
        {
          "internalType": "contract ISupporterPlan",
          "name": "",
          "type": "address"
        }
      ],
      "stateMutability": "view",
      "type": "function"
    },
    {
      "inputs": [
        {
          "internalType": "bytes4",
          "name": "interfaceID",
          "type": "bytes4"
        }
      ],
      "name": "supportsInterface",
      "outputs": [
        {
          "internalType": "bool",
          "name": "",
          "type": "bool"
        }
      ],
      "stateMutability": "pure",
      "type": "function"
    },
    {
      "inputs": [
        {
          "internalType": "address",
          "name": "newOwner",
          "type": "address"
        }
      ],
      "name": "transferOwnership",
      "outputs": [],
      "stateMutability": "nonpayable",
      "type": "function"
    },
    {
      "inputs": [
        {
          "internalType": "string",
          "name": "name",
          "type": "string"
        }
      ],
      "name": "valid",
      "outputs": [
        {
          "internalType": "bool",
          "name": "",
          "type": "bool"
        }
      ],
      "stateMutability": "pure",
      "type": "function"
    },
    {
      "inputs": [],
      "name": "withdraw",
      "outputs": [],
      "stateMutability": "nonpayable",
      "type": "function"
    }
  ],
  "bytecode": "0x6101006040526005805460ff191690553480156200001c57600080fd5b50604051620027f4380380620027f48339810160408190526200003f9162000243565b6200005033620001c4565b620001c4565b6001600160a01b0380871660a05285811660c052841660e052600162000077828262000418565b50600280546001600160b01b031916600160a01b61ffff8516026001600160a01b031916176001600160a01b03851617905580516020808301919091206040805160009381019390935282015260600160408051601f198184030181528282528051602091820120608052633f15457f60e01b83529051620001b8926001600160a01b038a1692633f15457f926004808401938290030181865afa15801562000124573d6000803e3d6000fd5b505050506040513d601f19601f820116820180604052508101906200014a9190620004e4565b6040516302571be360e01b8152600060048201526001600160a01b0391909116906302571be390602401602060405180830381865afa15801562000192573d6000803e3d6000fd5b505050506040513d601f19601f820116820180604052508101906200004a9190620004e4565b5050505050506200050b565b600080546001600160a01b038381166001600160a01b0319831681178455604051919092169283917f8be0079c531659141344cd1fd0a4f28419497f9722a3daafe3b4186f6b6457e09190a35050565b6001600160a01b03811681146200022a57600080fd5b50565b634e487b7160e01b600052604160045260246000fd5b60008060008060008060c087890312156200025d57600080fd5b86516200026a8162000214565b809650506020808801516200027f8162000214565b6040890151909650620002928162000214565b6060890151909550620002a58162000214565b608089015190945061ffff81168114620002be57600080fd5b60a08901519093506001600160401b0380821115620002dc57600080fd5b818a0191508a601f830112620002f157600080fd5b8151818111156200030657620003066200022d565b604051601f8201601f19908116603f011681019083821181831017156200033157620003316200022d565b816040528281528d868487010111156200034a57600080fd5b600093505b828410156200036e57848401860151818501870152928501926200034f565b60008684830101528096505050505050509295509295509295565b600181811c908216806200039e57607f821691505b602082108103620003bf57634e487b7160e01b600052602260045260246000fd5b50919050565b601f8211156200041357600081815260208120601f850160051c81016020861015620003ee5750805b601f850160051c820191505b818110156200040f57828155600101620003fa565b5050505b505050565b81516001600160401b038111156200043457620004346200022d565b6200044c8162000445845462000389565b84620003c5565b602080601f8311600181146200048457600084156200046b5750858301515b600019600386901b1c1916600185901b1785556200040f565b600085815260208120601f198616915b82811015620004b55788860151825594840194600190910190840162000494565b5085821015620004d45787850151600019600388901b60f8161c191681555b5050505050600190811b01905550565b600060208284031215620004f757600080fd5b8151620005048162000214565b9392505050565b60805160a05160c05160e0516122856200056f600039600081816104070152818161087c0152610eff01526000818161031101526113df01526000818161075c01528181610d53015261102b01526000818161047b015261130001526122856000f3fe6080604052600436106101805760003560e01c8063839df945116100d6578063a8e5fbc01161007f578063cc473be311610059578063cc473be314610469578063f2fde38b1461049d578063ffeb3b9b146104bd57600080fd5b8063a8e5fbc0146103f5578063aeb8ce9b14610429578063c579d58a1461044957600080fd5b8063936dbcfc116100b0578063936dbcfc146103955780639791c097146103b55780639ccaae7a146103d557600080fd5b8063839df945146103335780638a95b09f146103605780638da5cb5b1461037757600080fd5b8063570ca7351161013857806365a69dcf1161011257806365a69dcf146102bc578063715018a6146102ea57806380869853146102ff57600080fd5b8063570ca735146102445780635d3590d51461027c5780636262700a1461029c57600080fd5b806322ed24ac1161016957806322ed24ac146101d45780633ccfd60b146101e95780634160a4d7146101fe57600080fd5b806301ffc9a7146101855780630416a958146101ba575b600080fd5b34801561019157600080fd5b506101a56101a03660046117e3565b6104dd565b60405190151581526020015b60405180910390f35b3480156101c657600080fd5b506005546101a59060ff1681565b6101e76101e23660046118e4565b610546565b005b3480156101f557600080fd5b506101e7610aab565b34801561020a57600080fd5b506002546102319074010000000000000000000000000000000000000000900461ffff1681565b60405161ffff90911681526020016101b1565b34801561025057600080fd5b50600254610264906001600160a01b031681565b6040516001600160a01b0390911681526020016101b1565b34801561028857600080fd5b506101e76102973660046119e6565b610b16565b3480156102a857600080fd5b506101e76102b7366004611a27565b610bb0565b3480156102c857600080fd5b506102dc6102d7366004611b09565b610be7565b6040519081526020016101b1565b3480156102f657600080fd5b506101e7610c85565b34801561030b57600080fd5b506102647f000000000000000000000000000000000000000000000000000000000000000081565b34801561033f57600080fd5b506102dc61034e366004611bd2565b60046020526000908152604090205481565b34801561036c57600080fd5b506102dc6224ea0081565b34801561038357600080fd5b506000546001600160a01b0316610264565b3480156103a157600080fd5b506101e76103b0366004611beb565b610c99565b3480156103c157600080fd5b506101a56103d0366004611c08565b610cf0565b3480156103e157600080fd5b506101e76103f0366004611c45565b610d05565b34801561040157600080fd5b506102647f000000000000000000000000000000000000000000000000000000000000000081565b34801561043557600080fd5b506101a5610444366004611c08565b610fe2565b34801561045557600080fd5b50600354610264906001600160a01b031681565b34801561047557600080fd5b506102dc7f000000000000000000000000000000000000000000000000000000000000000081565b3480156104a957600080fd5b506101e76104b8366004611a27565b6110a5565b3480156104c957600080fd5b506101e76104d8366004611cbf565b611135565b60006001600160e01b031982167f01ffc9a700000000000000000000000000000000000000000000000000000000148061054057506001600160e01b031982167f7539d98200000000000000000000000000000000000000000000000000000000145b92915050565b60055460ff16156105ab5761056185655af3107a4000611cf0565b6105729066016bcc41e90000611d07565b3410156105ab576040517f1101129400000000000000000000000000000000000000000000000000000000815260040160405180910390fd5b60006105f68d8d8080601f0160208091040260200160405190810160405280939291908181526020018383808284376000920191909152508f92508e91508d90508c8c8c8c8c610be7565b600254604051601960f81b6020820152600060218201526bffffffffffffffffffffffff193060601b1660228201524660368201527fdd007bd789f73e08c2714644c55b11c7d202931d717def434e3c9caa12a9f5836056820152607681018390529192506106c1916001600160a01b03909116906096015b6040516020818303038152906040528051906020012085858080601f01602080910402602001604051908101604052809392919081815260200183838082843760009201919091525061118a92505050565b6107f557600254604051601960f81b6020820152600060218201526bffffffffffffffffffffffff193060601b1660228201524660368201527f0548274c4be004976424de9f6f485fbe40a8f13e41524cd574fead54e448415c60568201526076810183905261073d916001600160a01b03169060960161066f565b61075a57604051632616a48960e11b815260040160405180910390fd5b7f00000000000000000000000000000000000000000000000000000000000000006001600160a01b0316632ec54dc38e8e604051610799929190611d1a565b60405190819003812060e083901b6001600160e01b0319168252600482015260016024820152604401600060405180830381600087803b1580156107dc57600080fd5b505af11580156107f0573d6000803e3d6000fd5b505050505b506108358c8c8080601f016020809104026020016040519081016040528093929190818152602001838380828437600092019190915250610fe292505050565b610878578b8b6040517f477707e800000000000000000000000000000000000000000000000000000000815260040161086f929190611d53565b60405180910390fd5b60007f00000000000000000000000000000000000000000000000000000000000000006001600160a01b031663a40149828e8e8e428f6108b89190611d67565b8d600260149054906101000a900461ffff168b176040518763ffffffff1660e01b81526004016108ed96959493929190611d7a565b6020604051808303816000875af115801561090c573d6000803e3d6000fd5b505050506040513d601f19601f820116820180604052508101906109309190611dc4565b9050851561095b5761095b888e8e60405161094c929190611d1a565b604051809103902089896112fa565b84156109a4576109a48d8d8080601f0160208091040260200160405190810160405280939291908181526020018383808284376000920191909152508c92503391506113dd9050565b8a6001600160a01b03168d8d6040516109be929190611d1a565b60405180910390207f69e37f151eb98a09618ddaa80c8cfaf1ce5996867c489f45b555b412271ebf278f8f600034876040516109fe959493929190611ddd565b60405180910390a350600034118015610a2157506003546001600160a01b031615155b15610a9d57600360009054906101000a90046001600160a01b03166001600160a01b031663492cc769348e8e6040518463ffffffff1660e01b8152600401610a6a929190611d53565b6000604051808303818588803b158015610a8357600080fd5b505af1158015610a97573d6000803e3d6000fd5b50505050505b505050505050505050505050565b6002546000906001600160a01b0316818080803031855af1915081610b125760405162461bcd60e51b815260206004820152601360248201527f4554485f5452414e534645525f4641494c454400000000000000000000000000604482015260640161086f565b5050565b610b1e611494565b6040517fa9059cbb0000000000000000000000000000000000000000000000000000000081526001600160a01b0383811660048301526024820183905284169063a9059cbb906044016020604051808303816000875af1158015610b86573d6000803e3d6000fd5b505050506040513d601f19601f82011682018060405250810190610baa9190611e0e565b50505050565b610bb8611494565b6003805473ffffffffffffffffffffffffffffffffffffffff19166001600160a01b0392909216919091179055565b885160208a01206000908415801590610c0757506001600160a01b038716155b15610c3e576040517fd3f605c400000000000000000000000000000000000000000000000000000000815260040160405180910390fd5b808a8a8a8a8a8a8a8a604051602001610c5f99989796959493929190611ebd565b604051602081830303815290604052805190602001209150509998505050505050505050565b610c8d611494565b610c9760006114ee565b565b6002546001600160a01b03163314801590610cbf57506000546001600160a01b03163314155b15610cdd57604051632616a48960e11b815260040160405180910390fd5b6005805460ff1916911515919091179055565b60006003610cfd8361154b565b101592915050565b60008585604051610d17929190611d1a565b6040519081900381207fd6e4fa8600000000000000000000000000000000000000000000000000000000825260048201819052915081906000907f00000000000000000000000000000000000000000000000000000000000000006001600160a01b03169063d6e4fa8690602401602060405180830381865afa158015610da2573d6000803e3d6000fd5b505050506040513d601f19601f82011682018060405250810190610dc69190611dc4565b9050808611610e01576040517f820aca6400000000000000000000000000000000000000000000000000000000815260040160405180910390fd5b600254604051601960f81b60208201526000602182018190526bffffffffffffffffffffffff193060601b1660228301524660368301527fde0eadb8cc1e667dab2d95e011b2f2ae72a64de91e0b652eecb07930f6b2ffaa6056830152607682018690526096820189905291610ed2916001600160a01b039091169060b6016040516020818303038152906040528051906020012088888080601f01602080910402602001604051908101604052809392919081815260200183838082843760009201919091525061118a92505050565b905080610ef257604051632616a48960e11b815260040160405180910390fd5b5060006001600160a01b037f00000000000000000000000000000000000000000000000000000000000000001663c475abff84610f2f858b611d67565b6040516001600160e01b031960e085901b168152600481019290925260248201526044016020604051808303816000875af1158015610f72573d6000803e3d6000fd5b505050506040513d601f19601f82011682018060405250810190610f969190611dc4565b9050837f3da24c024582931cfaf8267d8ed24d13a82a8068d5bd337d30ec45cea4e506ae8a8a600085604051610fcf9493929190611f1f565b60405180910390a2505050505050505050565b80516020820120600090610ff583610cf0565b801561109e57506040517f96e494e8000000000000000000000000000000000000000000000000000000008152600481018290527f00000000000000000000000000000000000000000000000000000000000000006001600160a01b0316906396e494e890602401602060405180830381865afa15801561107a573d6000803e3d6000fd5b505050506040513d601f19601f8201168201806040525081019061109e9190611e0e565b9392505050565b6110ad611494565b6001600160a01b0381166111295760405162461bcd60e51b815260206004820152602660248201527f4f776e61626c653a206e6577206f776e657220697320746865207a65726f206160448201527f6464726573730000000000000000000000000000000000000000000000000000606482015260840161086f565b611132816114ee565b50565b61113d611494565b6002805461ffff90921674010000000000000000000000000000000000000000027fffffffffffffffffffff0000ffffffffffffffffffffffffffffffffffffffff909216919091179055565b600080600061119985856116da565b909250905060008160048111156111b2576111b2611f46565b1480156111d05750856001600160a01b0316826001600160a01b0316145b156111e05760019250505061109e565b600080876001600160a01b0316631626ba7e60e01b8888604051602401611208929190611fac565b60408051601f198184030181529181526020820180517bffffffffffffffffffffffffffffffffffffffffffffffffffffffff166001600160e01b031990941693909317909252905161125b9190611fc5565b600060405180830381855afa9150503d8060008114611296576040519150601f19603f3d011682016040523d82523d6000602084013e61129b565b606091505b50915091508180156112ae575080516020145b80156112ee575080517f1626ba7e00000000000000000000000000000000000000000000000000000000906112ec9083016020908101908401611dc4565b145b98975050505050505050565b604080517f0000000000000000000000000000000000000000000000000000000000000000602080830191909152818301869052825180830384018152606083019384905280519101207fe32954eb0000000000000000000000000000000000000000000000000000000090925285906001600160a01b0382169063e32954eb9061138d90859088908890606401611fe1565b6000604051808303816000875af11580156113ac573d6000803e3d6000fd5b505050506040513d6000823e601f3d908101601f191682016040526113d49190810190612004565b50505050505050565b7f00000000000000000000000000000000000000000000000000000000000000006001600160a01b0316637a806d6b338385876001604051602001611423929190612103565b6040516020818303038152906040526040518563ffffffff1660e01b815260040161145194939291906121e2565b6020604051808303816000875af1158015611470573d6000803e3d6000fd5b505050506040513d601f19601f82011682018060405250810190610baa9190611dc4565b6000546001600160a01b03163314610c975760405162461bcd60e51b815260206004820181905260248201527f4f776e61626c653a2063616c6c6572206973206e6f7420746865206f776e6572604482015260640161086f565b600080546001600160a01b0383811673ffffffffffffffffffffffffffffffffffffffff19831681178455604051919092169283917f8be0079c531659141344cd1fd0a4f28419497f9722a3daafe3b4186f6b6457e09190a35050565b8051600090819081905b808210156116d157600085838151811061157157611571612220565b01602001516001600160f81b03191690507f80000000000000000000000000000000000000000000000000000000000000008110156115bc576115b5600184611d07565b92506116be565b7fe0000000000000000000000000000000000000000000000000000000000000006001600160f81b0319821610156115f9576115b5600284611d07565b7ff0000000000000000000000000000000000000000000000000000000000000006001600160f81b031982161015611636576115b5600384611d07565b7ff8000000000000000000000000000000000000000000000000000000000000006001600160f81b031982161015611673576115b5600484611d07565b7ffc000000000000000000000000000000000000000000000000000000000000006001600160f81b0319821610156116b0576115b5600584611d07565b6116bb600684611d07565b92505b50826116c981612236565b935050611555565b50909392505050565b60008082516041036117105760208301516040840151606085015160001a6117048782858561171f565b94509450505050611718565b506000905060025b9250929050565b6000807f7fffffffffffffffffffffffffffffff5d576e7357a4501ddfe92f46681b20a083111561175657506000905060036117da565b6040805160008082526020820180845289905260ff881692820192909252606081018690526080810185905260019060a0016020604051602081039080840390855afa1580156117aa573d6000803e3d6000fd5b5050604051601f1901519150506001600160a01b0381166117d3576000600192509250506117da565b9150600090505b94509492505050565b6000602082840312156117f557600080fd5b81356001600160e01b03198116811461109e57600080fd5b60008083601f84011261181f57600080fd5b50813567ffffffffffffffff81111561183757600080fd5b60208301915083602082850101111561171857600080fd5b6001600160a01b038116811461113257600080fd5b803561186f8161184f565b919050565b60008083601f84011261188657600080fd5b50813567ffffffffffffffff81111561189e57600080fd5b6020830191508360208260051b850101111561171857600080fd5b801515811461113257600080fd5b803561186f816118b9565b803561ffff8116811461186f57600080fd5b6000806000806000806000806000806000806101208d8f03121561190757600080fd5b67ffffffffffffffff8d35111561191d57600080fd5b61192a8e8e358f0161180d565b909c509a5061193b60208e01611864565b995060408d0135985060608d0135975061195760808e01611864565b965067ffffffffffffffff60a08e0135111561197257600080fd5b6119828e60a08f01358f01611874565b909650945061199360c08e016118c7565b93506119a160e08e016118d2565b925067ffffffffffffffff6101008e013511156119bd57600080fd5b6119ce8e6101008f01358f0161180d565b81935080925050509295989b509295989b509295989b565b6000806000606084860312156119fb57600080fd5b8335611a068161184f565b92506020840135611a168161184f565b929592945050506040919091013590565b600060208284031215611a3957600080fd5b813561109e8161184f565b634e487b7160e01b600052604160045260246000fd5b604051601f8201601f1916810167ffffffffffffffff81118282101715611a8357611a83611a44565b604052919050565b600067ffffffffffffffff821115611aa557611aa5611a44565b50601f01601f191660200190565b600082601f830112611ac457600080fd5b8135611ad7611ad282611a8b565b611a5a565b818152846020838601011115611aec57600080fd5b816020850160208301376000918101602001919091529392505050565b60008060008060008060008060006101008a8c031215611b2857600080fd5b893567ffffffffffffffff80821115611b4057600080fd5b611b4c8d838e01611ab3565b9a5060208c01359150611b5e8261184f565b90985060408b0135975060608b0135965060808b013590611b7e8261184f565b90955060a08b01359080821115611b9457600080fd5b50611ba18c828d01611874565b90955093505060c08a0135611bb5816118b9565b9150611bc360e08b016118d2565b90509295985092959850929598565b600060208284031215611be457600080fd5b5035919050565b600060208284031215611bfd57600080fd5b813561109e816118b9565b600060208284031215611c1a57600080fd5b813567ffffffffffffffff811115611c3157600080fd5b611c3d84828501611ab3565b949350505050565b600080600080600060608688031215611c5d57600080fd5b853567ffffffffffffffff80821115611c7557600080fd5b611c8189838a0161180d565b9097509550602088013594506040880135915080821115611ca157600080fd5b50611cae8882890161180d565b969995985093965092949392505050565b600060208284031215611cd157600080fd5b61109e826118d2565b634e487b7160e01b600052601160045260246000fd5b808202811582820484141761054057610540611cda565b8082018082111561054057610540611cda565b8183823760009101908152919050565b81835281816020850137506000828201602090810191909152601f909101601f19169091010190565b602081526000611c3d602083018486611d2a565b8181038181111561054057610540611cda565b60a081526000611d8e60a08301888a611d2a565b90506001600160a01b03808716602084015285604084015280851660608401525061ffff83166080830152979650505050505050565b600060208284031215611dd657600080fd5b5051919050565b608081526000611df1608083018789611d2a565b602083019590955250604081019290925260609091015292915050565b600060208284031215611e2057600080fd5b815161109e816118b9565b81835260006020808501808196508560051b810191508460005b87811015611eb05782840389528135601e19883603018112611e6657600080fd5b8701858101903567ffffffffffffffff811115611e8257600080fd5b803603821315611e9157600080fd5b611e9c868284611d2a565b9a87019a9550505090840190600101611e45565b5091979650505050505050565b60006101008b83526001600160a01b03808c1660208501528a60408501528960608501528089166080850152508060a0840152611efd8184018789611e2b565b94151560c0840152505061ffff9190911660e090910152979650505050505050565b606081526000611f33606083018688611d2a565b6020830194909452506040015292915050565b634e487b7160e01b600052602160045260246000fd5b60005b83811015611f77578181015183820152602001611f5f565b50506000910152565b60008151808452611f98816020860160208601611f5c565b601f01601f19169290920160200192915050565b828152604060208201526000611c3d6040830184611f80565b60008251611fd7818460208701611f5c565b9190910192915050565b838152604060208201526000611ffb604083018486611e2b565b95945050505050565b6000602080838503121561201757600080fd5b825167ffffffffffffffff8082111561202f57600080fd5b818501915085601f83011261204357600080fd5b81518181111561205557612055611a44565b8060051b612064858201611a5a565b918252838101850191858101908984111561207e57600080fd5b86860192505b838310156120f65782518581111561209c5760008081fd5b8601603f81018b136120ae5760008081fd5b8781015160406120c0611ad283611a8b565b8281528d828486010111156120d55760008081fd5b6120e4838c8301848701611f5c565b85525050509186019190860190612084565b9998505050505050505050565b6000835160206121168285838901611f5c565b7f2e00000000000000000000000000000000000000000000000000000000000000918401918252845460019060009080831c8184168061215757607f821691505b858210810361217457634e487b7160e01b84526022600452602484fd5b80801561218857600181146121a1576121d2565b60ff1984168887015282151583028801860194506121d2565b60008b81526020902060005b848110156121c85781548a82018901529087019088016121ad565b5050858389010194505b50929a9950505050505050505050565b60006001600160a01b0380871683528086166020840152808516604084015250608060608301526122166080830184611f80565b9695505050505050565b634e487b7160e01b600052603260045260246000fd5b60006001820161224857612248611cda565b506001019056fea2646970667358221220ba150e2e24007288eeca5ac48f74ad9a010e003bc62a2e2b66fb160aa5c50de764736f6c63430008110033",
  "linkReferences": {},
  "deployedLinkReferences": {}
}