{
  "_format": "hh-sol-artifact-1",
  "contractName": "TownSupporterPlan",
  "sourceName": "contracts/boredtown/TownSupporterPlan.sol",
  "abi": [
    {
      "inputs": [
        {
          "internalType": "contract IEAS",
          "name": "_eas",
          "type": "address"
        },
        {
          "internalType": "contract OptiTownRetroToken",
          "name": "_opti",
          "type": "address"
        }
      ],
      "stateMutability": "nonpayable",
      "type": "constructor"
    },
    {
      "inputs": [],
      "name": "AccessDenied",
      "type": "error"
    },
    {
      "inputs": [],
      "name": "InsufficientValue",
      "type": "error"
    },
    {
      "inputs": [],
      "name": "InvalidEAS",
      "type": "error"
    },
    {
      "inputs": [],
      "name": "NotPayable",
      "type": "error"
    },
    {
      "anonymous": false,
      "inputs": [
        {
          "indexed": true,
          "internalType": "address",
          "name": "previousOwner",
          "type": "address"
        },
        {
          "indexed": true,
          "internalType": "address",
          "name": "newOwner",
          "type": "address"
        }
      ],
      "name": "OwnershipTransferred",
      "type": "event"
    },
    {
      "inputs": [],
      "name": "MINT_FIRST_10000_SCHEMA",
      "outputs": [
        {
          "internalType": "bytes32",
          "name": "",
          "type": "bytes32"
        }
      ],
      "stateMutability": "view",
      "type": "function"
    },
    {
      "inputs": [],
      "name": "MINT_FIRST_2500_SCHEMA",
      "outputs": [
        {
          "internalType": "bytes32",
          "name": "",
          "type": "bytes32"
        }
      ],
      "stateMutability": "view",
      "type": "function"
    },
    {
      "inputs": [],
      "name": "MINT_SCHEMA",
      "outputs": [
        {
          "internalType": "bytes32",
          "name": "",
          "type": "bytes32"
        }
      ],
      "stateMutability": "view",
      "type": "function"
    },
    {
      "inputs": [
        {
          "components": [
            {
              "internalType": "bytes32",
              "name": "uid",
              "type": "bytes32"
            },
            {
              "internalType": "bytes32",
              "name": "schema",
              "type": "bytes32"
            },
            {
              "internalType": "uint64",
              "name": "time",
              "type": "uint64"
            },
            {
              "internalType": "uint64",
              "name": "expirationTime",
              "type": "uint64"
            },
            {
              "internalType": "uint64",
              "name": "revocationTime",
              "type": "uint64"
            },
            {
              "internalType": "bytes32",
              "name": "refUID",
              "type": "bytes32"
            },
            {
              "internalType": "address",
              "name": "recipient",
              "type": "address"
            },
            {
              "internalType": "address",
              "name": "attester",
              "type": "address"
            },
            {
              "internalType": "bool",
              "name": "revocable",
              "type": "bool"
            },
            {
              "internalType": "bytes",
              "name": "data",
              "type": "bytes"
            }
          ],
          "internalType": "struct Attestation",
          "name": "attestation",
          "type": "tuple"
        }
      ],
      "name": "attest",
      "outputs": [
        {
          "internalType": "bool",
          "name": "",
          "type": "bool"
        }
      ],
      "stateMutability": "payable",
      "type": "function"
    },
    {
      "inputs": [
        {
          "internalType": "string",
          "name": "name",
          "type": "string"
        }
      ],
      "name": "buy",
      "outputs": [],
      "stateMutability": "payable",
      "type": "function"
    },
    {
      "inputs": [],
      "name": "isPayable",
      "outputs": [
        {
          "internalType": "bool",
          "name": "",
          "type": "bool"
        }
      ],
      "stateMutability": "pure",
      "type": "function"
    },
    {
      "inputs": [],
      "name": "mintIndex",
      "outputs": [
        {
          "internalType": "uint256",
          "name": "",
          "type": "uint256"
        }
      ],
      "stateMutability": "view",
      "type": "function"
    },
    {
      "inputs": [
        {
          "components": [
            {
              "internalType": "bytes32",
              "name": "uid",
              "type": "bytes32"
            },
            {
              "internalType": "bytes32",
              "name": "schema",
              "type": "bytes32"
            },
            {
              "internalType": "uint64",
              "name": "time",
              "type": "uint64"
            },
            {
              "internalType": "uint64",
              "name": "expirationTime",
              "type": "uint64"
            },
            {
              "internalType": "uint64",
              "name": "revocationTime",
              "type": "uint64"
            },
            {
              "internalType": "bytes32",
              "name": "refUID",
              "type": "bytes32"
            },
            {
              "internalType": "address",
              "name": "recipient",
              "type": "address"
            },
            {
              "internalType": "address",
              "name": "attester",
              "type": "address"
            },
            {
              "internalType": "bool",
              "name": "revocable",
              "type": "bool"
            },
            {
              "internalType": "bytes",
              "name": "data",
              "type": "bytes"
            }
          ],
          "internalType": "struct Attestation[]",
          "name": "attestations",
          "type": "tuple[]"
        },
        {
          "internalType": "uint256[]",
          "name": "values",
          "type": "uint256[]"
        }
      ],
      "name": "multiAttest",
      "outputs": [
        {
          "internalType": "bool",
          "name": "",
          "type": "bool"
        }
      ],
      "stateMutability": "payable",
      "type": "function"
    },
    {
      "inputs": [
        {
          "components": [
            {
              "internalType": "bytes32",
              "name": "uid",
              "type": "bytes32"
            },
            {
              "internalType": "bytes32",
              "name": "schema",
              "type": "bytes32"
            },
            {
              "internalType": "uint64",
              "name": "time",
              "type": "uint64"
            },
            {
              "internalType": "uint64",
              "name": "expirationTime",
              "type": "uint64"
            },
            {
              "internalType": "uint64",
              "name": "revocationTime",
              "type": "uint64"
            },
            {
              "internalType": "bytes32",
              "name": "refUID",
              "type": "bytes32"
            },
            {
              "internalType": "address",
              "name": "recipient",
              "type": "address"
            },
            {
              "internalType": "address",
              "name": "attester",
              "type": "address"
            },
            {
              "internalType": "bool",
              "name": "revocable",
              "type": "bool"
            },
            {
              "internalType": "bytes",
              "name": "data",
              "type": "bytes"
            }
          ],
          "internalType": "struct Attestation[]",
          "name": "attestations",
          "type": "tuple[]"
        },
        {
          "internalType": "uint256[]",
          "name": "values",
          "type": "uint256[]"
        }
      ],
      "name": "multiRevoke",
      "outputs": [
        {
          "internalType": "bool",
          "name": "",
          "type": "bool"
        }
      ],
      "stateMutability": "payable",
      "type": "function"
    },
    {
      "inputs": [
        {
          "internalType": "bytes32",
          "name": "",
          "type": "bytes32"
        }
      ],
      "name": "nodeRegistered",
      "outputs": [
        {
          "internalType": "uint256",
          "name": "",
          "type": "uint256"
        }
      ],
      "stateMutability": "view",
      "type": "function"
    },
    {
      "inputs": [],
      "name": "opti",
      "outputs": [
        {
          "internalType": "contract OptiTownRetroToken",
          "name": "",
          "type": "address"
        }
      ],
      "stateMutability": "view",
      "type": "function"
    },
    {
      "inputs": [],
      "name": "owner",
      "outputs": [
        {
          "internalType": "address",
          "name": "",
          "type": "address"
        }
      ],
      "stateMutability": "view",
      "type": "function"
    },
    {
      "inputs": [],
      "name": "renounceOwnership",
      "outputs": [],
      "stateMutability": "nonpayable",
      "type": "function"
    },
    {
      "inputs": [
        {
          "components": [
            {
              "internalType": "bytes32",
              "name": "uid",
              "type": "bytes32"
            },
            {
              "internalType": "bytes32",
              "name": "schema",
              "type": "bytes32"
            },
            {
              "internalType": "uint64",
              "name": "time",
              "type": "uint64"
            },
            {
              "internalType": "uint64",
              "name": "expirationTime",
              "type": "uint64"
            },
            {
              "internalType": "uint64",
              "name": "revocationTime",
              "type": "uint64"
            },
            {
              "internalType": "bytes32",
              "name": "refUID",
              "type": "bytes32"
            },
            {
              "internalType": "address",
              "name": "recipient",
              "type": "address"
            },
            {
              "internalType": "address",
              "name": "attester",
              "type": "address"
            },
            {
              "internalType": "bool",
              "name": "revocable",
              "type": "bool"
            },
            {
              "internalType": "bytes",
              "name": "data",
              "type": "bytes"
            }
          ],
          "internalType": "struct Attestation",
          "name": "attestation",
          "type": "tuple"
        }
      ],
      "name": "revoke",
      "outputs": [
        {
          "internalType": "bool",
          "name": "",
          "type": "bool"
        }
      ],
      "stateMutability": "payable",
      "type": "function"
    },
    {
      "inputs": [
        {
          "internalType": "bytes32",
          "name": "mintSchema",
          "type": "bytes32"
        },
        {
          "internalType": "bytes32",
          "name": "first10000",
          "type": "bytes32"
        },
        {
          "internalType": "bytes32",
          "name": "first2500",
          "type": "bytes32"
        }
      ],
      "name": "setSchema",
      "outputs": [],
      "stateMutability": "nonpayable",
      "type": "function"
    },
    {
      "inputs": [
        {
          "internalType": "address",
          "name": "newOwner",
          "type": "address"
        }
      ],
      "name": "transferOwnership",
      "outputs": [],
      "stateMutability": "nonpayable",
      "type": "function"
    },
    {
      "inputs": [],
      "name": "version",
      "outputs": [
        {
          "internalType": "string",
          "name": "",
          "type": "string"
        }
      ],
      "stateMutability": "view",
      "type": "function"
    },
    {
      "inputs": [
        {
          "internalType": "address",
          "name": "",
          "type": "address"
        }
      ],
      "name": "walletRegistered",
      "outputs": [
        {
          "internalType": "uint256",
          "name": "",
          "type": "uint256"
        }
      ],
      "stateMutability": "view",
      "type": "function"
    },
    {
      "inputs": [
        {
          "internalType": "contract IERC20",
          "name": "token",
          "type": "address"
        }
      ],
      "name": "withdrawERC20",
      "outputs": [],
      "stateMutability": "nonpayable",
      "type": "function"
    },
    {
      "inputs": [],
      "name": "withdrawETH",
      "outputs": [],
      "stateMutability": "nonpayable",
      "type": "function"
    },
    {
      "stateMutability": "payable",
      "type": "receive"
    }
  ],
  "bytecode": "0x61012060405260006003553480156200001757600080fd5b50604051620019e7380380620019e78339810160408190526200003a9162000127565b6001608052600060a081905260c052816001600160a01b03811662000072576040516341bc07ff60e11b815260040160405180910390fd5b6001600160a01b031660e0526200008933620000be565b6001600160a01b03811661010052620000b6738b6c27ec466923fad66ada94c78aa320ea876969620000be565b505062000166565b600080546001600160a01b038381166001600160a01b0319831681178455604051919092169283917f8be0079c531659141344cd1fd0a4f28419497f9722a3daafe3b4186f6b6457e09190a35050565b6001600160a01b03811681146200012457600080fd5b50565b600080604083850312156200013b57600080fd5b825162000148816200010e565b60208401519092506200015b816200010e565b809150509250929050565b60805160a05160c05160e05161010051611820620001c7600039600081816101d301526106510152600081816106c5015281816107e9015281816109020152610fa101526000610a7001526000610a4701526000610a1e01526118206000f3fe6080604052600436106101635760003560e01c806391db0b7e116100c0578063e60c350511610074578063f4f3b20011610059578063f4f3b200146103b3578063f6ade433146103d3578063f74f9bfd146103e957600080fd5b8063e60c350514610380578063f2fde38b1461039357600080fd5b8063ce46e046116100a5578063ce46e04614610344578063e086e5ec14610358578063e49617e11461036d57600080fd5b806391db0b7e14610304578063ac2c9c0f1461031757600080fd5b806354fd4d5011610117578063715018a6116100fc578063715018a6146102ae57806388e5b2d9146102c35780638da5cb5b146102e657600080fd5b806354fd4d501461027657806360cce6e71461029857600080fd5b80631d5142eb116101485780631d5142eb14610212578063492cc7691461024d5780634aadf98f1461026057600080fd5b80630700b61b146101a1578063076e9f19146101c157600080fd5b3661019c576040517f1574f9f300000000000000000000000000000000000000000000000000000000815260040160405180910390fd5b005b600080fd5b3480156101ad57600080fd5b5061019a6101bc36600461138c565b6103ff565b3480156101cd57600080fd5b506101f57f000000000000000000000000000000000000000000000000000000000000000081565b6040516001600160a01b0390911681526020015b60405180910390f35b34801561021e57600080fd5b5061023f61022d3660046113b8565b60016020526000908152604090205481565b604051908152602001610209565b61019a61025b3660046113e7565b610415565b34801561026c57600080fd5b5061023f60065481565b34801561028257600080fd5b5061028b610a17565b60405161020991906114e8565b3480156102a457600080fd5b5061023f60055481565b3480156102ba57600080fd5b5061019a610aba565b6102d66102d136600461154e565b610ace565b6040519015158152602001610209565b3480156102f257600080fd5b506000546001600160a01b03166101f5565b6102d661031236600461154e565b610b7d565b34801561032357600080fd5b5061023f6103323660046115cf565b60026020526000908152604090205481565b34801561035057600080fd5b5060006102d6565b34801561036457600080fd5b5061019a610c1c565b6102d661037b3660046115ec565b610cce565b6102d661038e3660046115ec565b610ce1565b34801561039f57600080fd5b5061019a6103ae3660046115cf565b610cf5565b3480156103bf57600080fd5b5061019a6103ce3660046115cf565b610d85565b3480156103df57600080fd5b5061023f60045481565b3480156103f557600080fd5b5061023f60035481565b610407610e34565b600492909255600555600655565b3373b02edc247246acd78294c62f403b3e64d59170311461047d5760405162461bcd60e51b815260206004820152600960248201527f466f7262696464656e000000000000000000000000000000000000000000000060448201526064015b60405180910390fd5b8051602080830191909120604080517f4e64474f406bfb88babba9d48fc501844ea2246343195cdcfe2fb6b54571b71b9381019390935282018190529060009060600160408051808303601f190181529082905280516020909101207f6352211e00000000000000000000000000000000000000000000000000000000825260048201819052915060009073b02ed980693e14e082f0a3a33060046ae8495eb290636352211e90602401602060405180830381865afa158015610544573d6000803e3d6000fd5b505050506040513d601f19601f820116820180604052508101906105689190611628565b90506001600160a01b0381161580159061058e5750600082815260016020526040902054155b80156105b057506001600160a01b038116600090815260026020526040902054155b15610a11576003600081546105c490611645565b91829055506000838152600160209081526040808320939093556003546001600160a01b038516835260029091529190208190556109c4106106b0576003546040517f156e29f60000000000000000000000000000000000000000000000000000000081526001600160a01b038381166004830152673782dace9d900000602483015260448201929092527f00000000000000000000000000000000000000000000000000000000000000009091169063156e29f690606401600060405180830381600087803b15801561069757600080fd5b505af11580156106ab573d6000803e3d6000fd5b505050505b600654156107d4576109c4600354116107d4577f00000000000000000000000000000000000000000000000000000000000000006001600160a01b031663f17325e7604051806040016040528060065481526020016040518060c00160405280866001600160a01b03168152602001600067ffffffffffffffff1681526020016000151581526020016000801b815260200160035460405160200161075791815260200190565b604051602081830303815290604052815260200160008152508152506040518263ffffffff1660e01b815260040161078f919061166c565b6020604051808303816000875af11580156107ae573d6000803e3d6000fd5b505050506040513d601f19601f820116820180604052508101906107d291906116f0565b505b600554156108f857612710600354116108f8577f00000000000000000000000000000000000000000000000000000000000000006001600160a01b031663f17325e7604051806040016040528060055481526020016040518060c00160405280866001600160a01b03168152602001600067ffffffffffffffff1681526020016000151581526020016000801b815260200160035460405160200161087b91815260200190565b604051602081830303815290604052815260200160008152508152506040518263ffffffff1660e01b81526004016108b3919061166c565b6020604051808303816000875af11580156108d2573d6000803e3d6000fd5b505050506040513d601f19601f820116820180604052508101906108f691906116f0565b505b60045415610a11577f00000000000000000000000000000000000000000000000000000000000000006001600160a01b031663f17325e7604051806040016040528060045481526020016040518060c00160405280866001600160a01b03168152602001600067ffffffffffffffff1681526020016000151581526020016000801b815260200160035460405160200161099491815260200190565b604051602081830303815290604052815260200160008152508152506040518263ffffffff1660e01b81526004016109cc919061166c565b6020604051808303816000875af11580156109eb573d6000803e3d6000fd5b505050506040513d601f19601f82011682018060405250810190610a0f91906116f0565b505b50505050565b6060610a427f0000000000000000000000000000000000000000000000000000000000000000610e8e565b610a6b7f0000000000000000000000000000000000000000000000000000000000000000610e8e565b610a947f0000000000000000000000000000000000000000000000000000000000000000610e8e565b604051602001610aa693929190611709565b604051602081830303815290604052905090565b610ac2610e34565b610acc6000610f2e565b565b6000610ad8610f96565b833460005b82811015610b6d576000868683818110610af957610af961177f565b90506020020135905082811115610b235760405163044044a560e21b815260040160405180910390fd5b610b50898984818110610b3857610b3861177f565b9050602002810190610b4a9190611795565b50600090565b610b61576000945050505050610b75565b90910390600101610add565b506001925050505b949350505050565b6000610b87610f96565b833460005b82811015610b6d576000868683818110610ba857610ba861177f565b90506020020135905082811115610bd25760405163044044a560e21b815260040160405180910390fd5b610bff898984818110610be757610be761177f565b9050602002810190610bf99190611795565b82610ff8565b610c10576000945050505050610b75565b90910390600101610b8c565b610c24610e34565b600080546040516001600160a01b039091169190829047908381818185875af1925050503d8060008114610c74576040519150601f19603f3d011682016040523d82523d6000602084013e610c79565b606091505b5050905080610cca5760405162461bcd60e51b815260206004820152600f60248201527f5769746864726177206661696c656400000000000000000000000000000000006044820152606401610474565b5050565b6000610cd8610f96565b60005b92915050565b6000610ceb610f96565b610cdb8234610ff8565b610cfd610e34565b6001600160a01b038116610d795760405162461bcd60e51b815260206004820152602660248201527f4f776e61626c653a206e6577206f776e657220697320746865207a65726f206160448201527f64647265737300000000000000000000000000000000000000000000000000006064820152608401610474565b610d8281610f2e565b50565b610d8d610e34565b610d82610da26000546001600160a01b031690565b6040517f70a082310000000000000000000000000000000000000000000000000000000081523060048201526001600160a01b038416906370a0823190602401602060405180830381865afa158015610dff573d6000803e3d6000fd5b505050506040513d601f19601f82011682018060405250810190610e2391906116f0565b6001600160a01b038416919061101d565b6000546001600160a01b03163314610acc5760405162461bcd60e51b815260206004820181905260248201527f4f776e61626c653a2063616c6c6572206973206e6f7420746865206f776e65726044820152606401610474565b60606000610e9b836110a2565b600101905060008167ffffffffffffffff811115610ebb57610ebb6113d1565b6040519080825280601f01601f191660200182016040528015610ee5576020820181803683370190505b5090508181016020015b600019017f3031323334353637383961626364656600000000000000000000000000000000600a86061a8153600a8504945084610eef57509392505050565b600080546001600160a01b038381167fffffffffffffffffffffffff0000000000000000000000000000000000000000831681178455604051919092169283917f8be0079c531659141344cd1fd0a4f28419497f9722a3daafe3b4186f6b6457e09190a35050565b336001600160a01b037f00000000000000000000000000000000000000000000000000000000000000001614610acc576040517f4ca8886700000000000000000000000000000000000000000000000000000000815260040160405180910390fd5b60003061100c610100850160e086016115cf565b6001600160a01b0316149392505050565b604080516001600160a01b038416602482015260448082018490528251808303909101815260649091019091526020810180517bffffffffffffffffffffffffffffffffffffffffffffffffffffffff167fa9059cbb0000000000000000000000000000000000000000000000000000000017905261109d908490611184565b505050565b6000807a184f03e93ff9f4daa797ed6e38ed64bf6a1f01000000000000000083106110eb577a184f03e93ff9f4daa797ed6e38ed64bf6a1f010000000000000000830492506040015b6d04ee2d6d415b85acef81000000008310611117576d04ee2d6d415b85acef8100000000830492506020015b662386f26fc10000831061113557662386f26fc10000830492506010015b6305f5e100831061114d576305f5e100830492506008015b612710831061116157612710830492506004015b60648310611173576064830492506002015b600a8310610cdb5760010192915050565b60006111d9826040518060400160405280602081526020017f5361666545524332303a206c6f772d6c6576656c2063616c6c206661696c6564815250856001600160a01b03166112699092919063ffffffff16565b80519091501561109d57808060200190518101906111f791906117b6565b61109d5760405162461bcd60e51b815260206004820152602a60248201527f5361666545524332303a204552433230206f7065726174696f6e20646964206e60448201527f6f742073756363656564000000000000000000000000000000000000000000006064820152608401610474565b6060610b75848460008585600080866001600160a01b0316858760405161129091906117d8565b60006040518083038185875af1925050503d80600081146112cd576040519150601f19603f3d011682016040523d82523d6000602084013e6112d2565b606091505b50915091506112e3878383876112ee565b979650505050505050565b6060831561135d578251600003611356576001600160a01b0385163b6113565760405162461bcd60e51b815260206004820152601d60248201527f416464726573733a2063616c6c20746f206e6f6e2d636f6e74726163740000006044820152606401610474565b5081610b75565b610b7583838151156113725781518083602001fd5b8060405162461bcd60e51b815260040161047491906114e8565b6000806000606084860312156113a157600080fd5b505081359360208301359350604090920135919050565b6000602082840312156113ca57600080fd5b5035919050565b634e487b7160e01b600052604160045260246000fd5b6000602082840312156113f957600080fd5b813567ffffffffffffffff8082111561141157600080fd5b818401915084601f83011261142557600080fd5b813581811115611437576114376113d1565b604051601f8201601f19908116603f0116810190838211818310171561145f5761145f6113d1565b8160405282815287602084870101111561147857600080fd5b826020860160208301376000928101602001929092525095945050505050565b60005b838110156114b357818101518382015260200161149b565b50506000910152565b600081518084526114d4816020860160208601611498565b601f01601f19169290920160200192915050565b6020815260006114fb60208301846114bc565b9392505050565b60008083601f84011261151457600080fd5b50813567ffffffffffffffff81111561152c57600080fd5b6020830191508360208260051b850101111561154757600080fd5b9250929050565b6000806000806040858703121561156457600080fd5b843567ffffffffffffffff8082111561157c57600080fd5b61158888838901611502565b909650945060208701359150808211156115a157600080fd5b506115ae87828801611502565b95989497509550505050565b6001600160a01b0381168114610d8257600080fd5b6000602082840312156115e157600080fd5b81356114fb816115ba565b6000602082840312156115fe57600080fd5b813567ffffffffffffffff81111561161557600080fd5b820161014081850312156114fb57600080fd5b60006020828403121561163a57600080fd5b81516114fb816115ba565b60006001820161166557634e487b7160e01b600052601160045260246000fd5b5060010190565b6020815281516020820152600060208301516040808401526001600160a01b03815116606084015267ffffffffffffffff60208201511660808401526040810151151560a0840152606081015160c0840152608081015160c060e08501526116d86101208501826114bc565b905060a0820151610100850152809250505092915050565b60006020828403121561170257600080fd5b5051919050565b6000845161171b818460208901611498565b80830190507f2e000000000000000000000000000000000000000000000000000000000000008082528551611757816001850160208a01611498565b60019201918201528351611772816002840160208801611498565b0160020195945050505050565b634e487b7160e01b600052603260045260246000fd5b6000823561013e198336030181126117ac57600080fd5b9190910192915050565b6000602082840312156117c857600080fd5b815180151581146114fb57600080fd5b600082516117ac81846020870161149856fea264697066735822122056251254d51b9a62e93775bfdfec924decf3eb96aea8960723b4d547524dd81364736f6c63430008110033",
  "linkReferences": {},
  "deployedLinkReferences": {}
}