{
  "_format": "hh-sol-artifact-1",
  "contractName": "TownSupporterPlan",
  "sourceName": "contracts/boredtown/TownSupporterPlan.sol",
  "abi": [
    {
      "inputs": [
        {
          "internalType": "contract IEAS",
          "name": "_eas",
          "type": "address"
        },
        {
          "internalType": "contract OptiTownRetroToken",
          "name": "_opti",
          "type": "address"
        }
      ],
      "stateMutability": "nonpayable",
      "type": "constructor"
    },
    {
      "inputs": [],
      "name": "AccessDenied",
      "type": "error"
    },
    {
      "inputs": [],
      "name": "InsufficientValue",
      "type": "error"
    },
    {
      "inputs": [],
      "name": "InvalidEAS",
      "type": "error"
    },
    {
      "inputs": [],
      "name": "NotPayable",
      "type": "error"
    },
    {
      "anonymous": false,
      "inputs": [
        {
          "indexed": true,
          "internalType": "address",
          "name": "previousOwner",
          "type": "address"
        },
        {
          "indexed": true,
          "internalType": "address",
          "name": "newOwner",
          "type": "address"
        }
      ],
      "name": "OwnershipTransferred",
      "type": "event"
    },
    {
      "inputs": [],
      "name": "MINT_FIRST_10000_SCHEMA",
      "outputs": [
        {
          "internalType": "bytes32",
          "name": "",
          "type": "bytes32"
        }
      ],
      "stateMutability": "view",
      "type": "function"
    },
    {
      "inputs": [],
      "name": "MINT_FIRST_2500_SCHEMA",
      "outputs": [
        {
          "internalType": "bytes32",
          "name": "",
          "type": "bytes32"
        }
      ],
      "stateMutability": "view",
      "type": "function"
    },
    {
      "inputs": [],
      "name": "MINT_SCHEMA",
      "outputs": [
        {
          "internalType": "bytes32",
          "name": "",
          "type": "bytes32"
        }
      ],
      "stateMutability": "view",
      "type": "function"
    },
    {
      "inputs": [
        {
          "components": [
            {
              "internalType": "bytes32",
              "name": "uid",
              "type": "bytes32"
            },
            {
              "internalType": "bytes32",
              "name": "schema",
              "type": "bytes32"
            },
            {
              "internalType": "uint64",
              "name": "time",
              "type": "uint64"
            },
            {
              "internalType": "uint64",
              "name": "expirationTime",
              "type": "uint64"
            },
            {
              "internalType": "uint64",
              "name": "revocationTime",
              "type": "uint64"
            },
            {
              "internalType": "bytes32",
              "name": "refUID",
              "type": "bytes32"
            },
            {
              "internalType": "address",
              "name": "recipient",
              "type": "address"
            },
            {
              "internalType": "address",
              "name": "attester",
              "type": "address"
            },
            {
              "internalType": "bool",
              "name": "revocable",
              "type": "bool"
            },
            {
              "internalType": "bytes",
              "name": "data",
              "type": "bytes"
            }
          ],
          "internalType": "struct Attestation",
          "name": "attestation",
          "type": "tuple"
        }
      ],
      "name": "attest",
      "outputs": [
        {
          "internalType": "bool",
          "name": "",
          "type": "bool"
        }
      ],
      "stateMutability": "payable",
      "type": "function"
    },
    {
      "inputs": [
        {
          "internalType": "string",
          "name": "name",
          "type": "string"
        }
      ],
      "name": "buy",
      "outputs": [],
      "stateMutability": "payable",
      "type": "function"
    },
    {
      "inputs": [],
      "name": "isPayable",
      "outputs": [
        {
          "internalType": "bool",
          "name": "",
          "type": "bool"
        }
      ],
      "stateMutability": "pure",
      "type": "function"
    },
    {
      "inputs": [],
      "name": "mintIndex",
      "outputs": [
        {
          "internalType": "uint256",
          "name": "",
          "type": "uint256"
        }
      ],
      "stateMutability": "view",
      "type": "function"
    },
    {
      "inputs": [
        {
          "components": [
            {
              "internalType": "bytes32",
              "name": "uid",
              "type": "bytes32"
            },
            {
              "internalType": "bytes32",
              "name": "schema",
              "type": "bytes32"
            },
            {
              "internalType": "uint64",
              "name": "time",
              "type": "uint64"
            },
            {
              "internalType": "uint64",
              "name": "expirationTime",
              "type": "uint64"
            },
            {
              "internalType": "uint64",
              "name": "revocationTime",
              "type": "uint64"
            },
            {
              "internalType": "bytes32",
              "name": "refUID",
              "type": "bytes32"
            },
            {
              "internalType": "address",
              "name": "recipient",
              "type": "address"
            },
            {
              "internalType": "address",
              "name": "attester",
              "type": "address"
            },
            {
              "internalType": "bool",
              "name": "revocable",
              "type": "bool"
            },
            {
              "internalType": "bytes",
              "name": "data",
              "type": "bytes"
            }
          ],
          "internalType": "struct Attestation[]",
          "name": "attestations",
          "type": "tuple[]"
        },
        {
          "internalType": "uint256[]",
          "name": "values",
          "type": "uint256[]"
        }
      ],
      "name": "multiAttest",
      "outputs": [
        {
          "internalType": "bool",
          "name": "",
          "type": "bool"
        }
      ],
      "stateMutability": "payable",
      "type": "function"
    },
    {
      "inputs": [
        {
          "components": [
            {
              "internalType": "bytes32",
              "name": "uid",
              "type": "bytes32"
            },
            {
              "internalType": "bytes32",
              "name": "schema",
              "type": "bytes32"
            },
            {
              "internalType": "uint64",
              "name": "time",
              "type": "uint64"
            },
            {
              "internalType": "uint64",
              "name": "expirationTime",
              "type": "uint64"
            },
            {
              "internalType": "uint64",
              "name": "revocationTime",
              "type": "uint64"
            },
            {
              "internalType": "bytes32",
              "name": "refUID",
              "type": "bytes32"
            },
            {
              "internalType": "address",
              "name": "recipient",
              "type": "address"
            },
            {
              "internalType": "address",
              "name": "attester",
              "type": "address"
            },
            {
              "internalType": "bool",
              "name": "revocable",
              "type": "bool"
            },
            {
              "internalType": "bytes",
              "name": "data",
              "type": "bytes"
            }
          ],
          "internalType": "struct Attestation[]",
          "name": "attestations",
          "type": "tuple[]"
        },
        {
          "internalType": "uint256[]",
          "name": "values",
          "type": "uint256[]"
        }
      ],
      "name": "multiRevoke",
      "outputs": [
        {
          "internalType": "bool",
          "name": "",
          "type": "bool"
        }
      ],
      "stateMutability": "payable",
      "type": "function"
    },
    {
      "inputs": [
        {
          "internalType": "bytes32",
          "name": "",
          "type": "bytes32"
        }
      ],
      "name": "nodeRegistered",
      "outputs": [
        {
          "internalType": "uint256",
          "name": "",
          "type": "uint256"
        }
      ],
      "stateMutability": "view",
      "type": "function"
    },
    {
      "inputs": [],
      "name": "opti",
      "outputs": [
        {
          "internalType": "contract OptiTownRetroToken",
          "name": "",
          "type": "address"
        }
      ],
      "stateMutability": "view",
      "type": "function"
    },
    {
      "inputs": [],
      "name": "owner",
      "outputs": [
        {
          "internalType": "address",
          "name": "",
          "type": "address"
        }
      ],
      "stateMutability": "view",
      "type": "function"
    },
    {
      "inputs": [],
      "name": "renounceOwnership",
      "outputs": [],
      "stateMutability": "nonpayable",
      "type": "function"
    },
    {
      "inputs": [
        {
          "components": [
            {
              "internalType": "bytes32",
              "name": "uid",
              "type": "bytes32"
            },
            {
              "internalType": "bytes32",
              "name": "schema",
              "type": "bytes32"
            },
            {
              "internalType": "uint64",
              "name": "time",
              "type": "uint64"
            },
            {
              "internalType": "uint64",
              "name": "expirationTime",
              "type": "uint64"
            },
            {
              "internalType": "uint64",
              "name": "revocationTime",
              "type": "uint64"
            },
            {
              "internalType": "bytes32",
              "name": "refUID",
              "type": "bytes32"
            },
            {
              "internalType": "address",
              "name": "recipient",
              "type": "address"
            },
            {
              "internalType": "address",
              "name": "attester",
              "type": "address"
            },
            {
              "internalType": "bool",
              "name": "revocable",
              "type": "bool"
            },
            {
              "internalType": "bytes",
              "name": "data",
              "type": "bytes"
            }
          ],
          "internalType": "struct Attestation",
          "name": "attestation",
          "type": "tuple"
        }
      ],
      "name": "revoke",
      "outputs": [
        {
          "internalType": "bool",
          "name": "",
          "type": "bool"
        }
      ],
      "stateMutability": "payable",
      "type": "function"
    },
    {
      "inputs": [
        {
          "internalType": "bytes32",
          "name": "mintSchema",
          "type": "bytes32"
        },
        {
          "internalType": "bytes32",
          "name": "first10000",
          "type": "bytes32"
        },
        {
          "internalType": "bytes32",
          "name": "first2500",
          "type": "bytes32"
        }
      ],
      "name": "setSchema",
      "outputs": [],
      "stateMutability": "nonpayable",
      "type": "function"
    },
    {
      "inputs": [
        {
          "internalType": "address",
          "name": "newOwner",
          "type": "address"
        }
      ],
      "name": "transferOwnership",
      "outputs": [],
      "stateMutability": "nonpayable",
      "type": "function"
    },
    {
      "inputs": [],
      "name": "version",
      "outputs": [
        {
          "internalType": "string",
          "name": "",
          "type": "string"
        }
      ],
      "stateMutability": "view",
      "type": "function"
    },
    {
      "inputs": [
        {
          "internalType": "address",
          "name": "",
          "type": "address"
        }
      ],
      "name": "walletRegistered",
      "outputs": [
        {
          "internalType": "uint256",
          "name": "",
          "type": "uint256"
        }
      ],
      "stateMutability": "view",
      "type": "function"
    },
    {
      "inputs": [
        {
          "internalType": "contract IERC20",
          "name": "token",
          "type": "address"
        }
      ],
      "name": "withdrawERC20",
      "outputs": [],
      "stateMutability": "nonpayable",
      "type": "function"
    },
    {
      "inputs": [],
      "name": "withdrawETH",
      "outputs": [],
      "stateMutability": "nonpayable",
      "type": "function"
    },
    {
      "stateMutability": "payable",
      "type": "receive"
    }
  ],
  "bytecode": "0x61012060405260006003553480156200001757600080fd5b506040516200199a3803806200199a8339810160408190526200003a9162000127565b6001608052600060a081905260c052816001600160a01b03811662000072576040516341bc07ff60e11b815260040160405180910390fd5b6001600160a01b031660e0526200008933620000be565b6001600160a01b03811661010052620000b6738b6c27ec466923fad66ada94c78aa320ea876969620000be565b505062000166565b600080546001600160a01b038381166001600160a01b0319831681178455604051919092169283917f8be0079c531659141344cd1fd0a4f28419497f9722a3daafe3b4186f6b6457e09190a35050565b6001600160a01b03811681146200012457600080fd5b50565b600080604083850312156200013b57600080fd5b825162000148816200010e565b60208401519092506200015b816200010e565b809150509250929050565b60805160a05160c05160e051610100516117d3620001c7600039600081816101d3015261060701526000818161067b0152818161079f015281816108b00152610f5401526000610a1e015260006109f5015260006109cc01526117d36000f3fe6080604052600436106101635760003560e01c806391db0b7e116100c0578063e60c350511610074578063f4f3b20011610059578063f4f3b200146103b3578063f6ade433146103d3578063f74f9bfd146103e957600080fd5b8063e60c350514610380578063f2fde38b1461039357600080fd5b8063ce46e046116100a5578063ce46e04614610344578063e086e5ec14610358578063e49617e11461036d57600080fd5b806391db0b7e14610304578063ac2c9c0f1461031757600080fd5b806354fd4d5011610117578063715018a6116100fc578063715018a6146102ae57806388e5b2d9146102c35780638da5cb5b146102e657600080fd5b806354fd4d501461027657806360cce6e71461029857600080fd5b80631d5142eb116101485780631d5142eb14610212578063492cc7691461024d5780634aadf98f1461026057600080fd5b80630700b61b146101a1578063076e9f19146101c157600080fd5b3661019c576040517f1574f9f300000000000000000000000000000000000000000000000000000000815260040160405180910390fd5b005b600080fd5b3480156101ad57600080fd5b5061019a6101bc36600461133f565b6103ff565b3480156101cd57600080fd5b506101f57f000000000000000000000000000000000000000000000000000000000000000081565b6040516001600160a01b0390911681526020015b60405180910390f35b34801561021e57600080fd5b5061023f61022d36600461136b565b60016020526000908152604090205481565b604051908152602001610209565b61019a61025b36600461139a565b610415565b34801561026c57600080fd5b5061023f60065481565b34801561028257600080fd5b5061028b6109c5565b604051610209919061149b565b3480156102a457600080fd5b5061023f60055481565b3480156102ba57600080fd5b5061019a610a68565b6102d66102d1366004611501565b610a7c565b6040519015158152602001610209565b3480156102f257600080fd5b506000546001600160a01b03166101f5565b6102d6610312366004611501565b610b2b565b34801561032357600080fd5b5061023f610332366004611582565b60026020526000908152604090205481565b34801561035057600080fd5b5060006102d6565b34801561036457600080fd5b5061019a610bca565b6102d661037b36600461159f565b610c81565b6102d661038e36600461159f565b610c94565b34801561039f57600080fd5b5061019a6103ae366004611582565b610ca8565b3480156103bf57600080fd5b5061019a6103ce366004611582565b610d38565b3480156103df57600080fd5b5061023f60045481565b3480156103f557600080fd5b5061023f60035481565b610407610de7565b600492909255600555600655565b600081604051602001610428919061149b565b60408051808303601f1901815282825280516020918201207f4e64474f406bfb88babba9d48fc501844ea2246343195cdcfe2fb6b54571b71b91840191909152908201819052915060009060600160408051808303601f190181529082905280516020909101207f6352211e00000000000000000000000000000000000000000000000000000000825260048201819052915060009073b02ed980693e14e082f0a3a33060046ae8495eb290636352211e90602401602060405180830381865afa1580156104fa573d6000803e3d6000fd5b505050506040513d601f19601f8201168201806040525081019061051e91906115db565b90506001600160a01b038116158015906105445750600082815260016020526040902054155b801561056657506001600160a01b038116600090815260026020526040902054155b156109bf5760036000815461057a906115f8565b91829055506000838152600160209081526040808320939093556003546001600160a01b038516835260029091529190208190556109c410610666576003546040517f156e29f60000000000000000000000000000000000000000000000000000000081526001600160a01b038381166004830152673782dace9d900000602483015260448201929092527f00000000000000000000000000000000000000000000000000000000000000009091169063156e29f690606401600060405180830381600087803b15801561064d57600080fd5b505af1158015610661573d6000803e3d6000fd5b505050505b6006541561078a576109c46003541161078a577f00000000000000000000000000000000000000000000000000000000000000006001600160a01b031663f17325e7604051806040016040528060065481526020016040518060c00160405280866001600160a01b03168152602001600067ffffffffffffffff1681526020016000151581526020016000801b815260200160035460405160200161070d91815260200190565b604051602081830303815290604052815260200160008152508152506040518263ffffffff1660e01b8152600401610745919061161f565b6020604051808303816000875af1158015610764573d6000803e3d6000fd5b505050506040513d601f19601f8201168201806040525081019061078891906116a3565b505b600554156108ae57612710600354116108ae577f00000000000000000000000000000000000000000000000000000000000000006001600160a01b031663f17325e7604051806040016040528060055481526020016040518060c00160405280866001600160a01b03168152602001600067ffffffffffffffff1681526020016000151581526020016000801b815260200160035460405160200161083191815260200190565b604051602081830303815290604052815260200160008152508152506040518263ffffffff1660e01b8152600401610869919061161f565b6020604051808303816000875af1158015610888573d6000803e3d6000fd5b505050506040513d601f19601f820116820180604052508101906108ac91906116a3565b505b7f00000000000000000000000000000000000000000000000000000000000000006001600160a01b031663f17325e7604051806040016040528060045481526020016040518060c00160405280866001600160a01b03168152602001600067ffffffffffffffff1681526020016000151581526020016000801b815260200160035460405160200161094291815260200190565b604051602081830303815290604052815260200160008152508152506040518263ffffffff1660e01b815260040161097a919061161f565b6020604051808303816000875af1158015610999573d6000803e3d6000fd5b505050506040513d601f19601f820116820180604052508101906109bd91906116a3565b505b50505050565b60606109f07f0000000000000000000000000000000000000000000000000000000000000000610e41565b610a197f0000000000000000000000000000000000000000000000000000000000000000610e41565b610a427f0000000000000000000000000000000000000000000000000000000000000000610e41565b604051602001610a54939291906116bc565b604051602081830303815290604052905090565b610a70610de7565b610a7a6000610ee1565b565b6000610a86610f49565b833460005b82811015610b1b576000868683818110610aa757610aa7611732565b90506020020135905082811115610ad15760405163044044a560e21b815260040160405180910390fd5b610afe898984818110610ae657610ae6611732565b9050602002810190610af89190611748565b50600090565b610b0f576000945050505050610b23565b90910390600101610a8b565b506001925050505b949350505050565b6000610b35610f49565b833460005b82811015610b1b576000868683818110610b5657610b56611732565b90506020020135905082811115610b805760405163044044a560e21b815260040160405180910390fd5b610bad898984818110610b9557610b95611732565b9050602002810190610ba79190611748565b82610fab565b610bbe576000945050505050610b23565b90910390600101610b3a565b610bd2610de7565b600080546040516001600160a01b039091169190829047908381818185875af1925050503d8060008114610c22576040519150601f19603f3d011682016040523d82523d6000602084013e610c27565b606091505b5050905080610c7d5760405162461bcd60e51b815260206004820152600f60248201527f5769746864726177206661696c6564000000000000000000000000000000000060448201526064015b60405180910390fd5b5050565b6000610c8b610f49565b60005b92915050565b6000610c9e610f49565b610c8e8234610fab565b610cb0610de7565b6001600160a01b038116610d2c5760405162461bcd60e51b815260206004820152602660248201527f4f776e61626c653a206e6577206f776e657220697320746865207a65726f206160448201527f64647265737300000000000000000000000000000000000000000000000000006064820152608401610c74565b610d3581610ee1565b50565b610d40610de7565b610d35610d556000546001600160a01b031690565b6040517f70a082310000000000000000000000000000000000000000000000000000000081523060048201526001600160a01b038416906370a0823190602401602060405180830381865afa158015610db2573d6000803e3d6000fd5b505050506040513d601f19601f82011682018060405250810190610dd691906116a3565b6001600160a01b0384169190610fd0565b6000546001600160a01b03163314610a7a5760405162461bcd60e51b815260206004820181905260248201527f4f776e61626c653a2063616c6c6572206973206e6f7420746865206f776e65726044820152606401610c74565b60606000610e4e83611055565b600101905060008167ffffffffffffffff811115610e6e57610e6e611384565b6040519080825280601f01601f191660200182016040528015610e98576020820181803683370190505b5090508181016020015b600019017f3031323334353637383961626364656600000000000000000000000000000000600a86061a8153600a8504945084610ea257509392505050565b600080546001600160a01b038381167fffffffffffffffffffffffff0000000000000000000000000000000000000000831681178455604051919092169283917f8be0079c531659141344cd1fd0a4f28419497f9722a3daafe3b4186f6b6457e09190a35050565b336001600160a01b037f00000000000000000000000000000000000000000000000000000000000000001614610a7a576040517f4ca8886700000000000000000000000000000000000000000000000000000000815260040160405180910390fd5b600030610fbf610100850160e08601611582565b6001600160a01b0316149392505050565b604080516001600160a01b038416602482015260448082018490528251808303909101815260649091019091526020810180517bffffffffffffffffffffffffffffffffffffffffffffffffffffffff167fa9059cbb00000000000000000000000000000000000000000000000000000000179052611050908490611137565b505050565b6000807a184f03e93ff9f4daa797ed6e38ed64bf6a1f010000000000000000831061109e577a184f03e93ff9f4daa797ed6e38ed64bf6a1f010000000000000000830492506040015b6d04ee2d6d415b85acef810000000083106110ca576d04ee2d6d415b85acef8100000000830492506020015b662386f26fc1000083106110e857662386f26fc10000830492506010015b6305f5e1008310611100576305f5e100830492506008015b612710831061111457612710830492506004015b60648310611126576064830492506002015b600a8310610c8e5760010192915050565b600061118c826040518060400160405280602081526020017f5361666545524332303a206c6f772d6c6576656c2063616c6c206661696c6564815250856001600160a01b031661121c9092919063ffffffff16565b80519091501561105057808060200190518101906111aa9190611769565b6110505760405162461bcd60e51b815260206004820152602a60248201527f5361666545524332303a204552433230206f7065726174696f6e20646964206e60448201527f6f742073756363656564000000000000000000000000000000000000000000006064820152608401610c74565b6060610b23848460008585600080866001600160a01b03168587604051611243919061178b565b60006040518083038185875af1925050503d8060008114611280576040519150601f19603f3d011682016040523d82523d6000602084013e611285565b606091505b5091509150611296878383876112a1565b979650505050505050565b60608315611310578251600003611309576001600160a01b0385163b6113095760405162461bcd60e51b815260206004820152601d60248201527f416464726573733a2063616c6c20746f206e6f6e2d636f6e74726163740000006044820152606401610c74565b5081610b23565b610b2383838151156113255781518083602001fd5b8060405162461bcd60e51b8152600401610c74919061149b565b60008060006060848603121561135457600080fd5b505081359360208301359350604090920135919050565b60006020828403121561137d57600080fd5b5035919050565b634e487b7160e01b600052604160045260246000fd5b6000602082840312156113ac57600080fd5b813567ffffffffffffffff808211156113c457600080fd5b818401915084601f8301126113d857600080fd5b8135818111156113ea576113ea611384565b604051601f8201601f19908116603f0116810190838211818310171561141257611412611384565b8160405282815287602084870101111561142b57600080fd5b826020860160208301376000928101602001929092525095945050505050565b60005b8381101561146657818101518382015260200161144e565b50506000910152565b6000815180845261148781602086016020860161144b565b601f01601f19169290920160200192915050565b6020815260006114ae602083018461146f565b9392505050565b60008083601f8401126114c757600080fd5b50813567ffffffffffffffff8111156114df57600080fd5b6020830191508360208260051b85010111156114fa57600080fd5b9250929050565b6000806000806040858703121561151757600080fd5b843567ffffffffffffffff8082111561152f57600080fd5b61153b888389016114b5565b9096509450602087013591508082111561155457600080fd5b50611561878288016114b5565b95989497509550505050565b6001600160a01b0381168114610d3557600080fd5b60006020828403121561159457600080fd5b81356114ae8161156d565b6000602082840312156115b157600080fd5b813567ffffffffffffffff8111156115c857600080fd5b820161014081850312156114ae57600080fd5b6000602082840312156115ed57600080fd5b81516114ae8161156d565b60006001820161161857634e487b7160e01b600052601160045260246000fd5b5060010190565b6020815281516020820152600060208301516040808401526001600160a01b03815116606084015267ffffffffffffffff60208201511660808401526040810151151560a0840152606081015160c0840152608081015160c060e085015261168b61012085018261146f565b905060a0820151610100850152809250505092915050565b6000602082840312156116b557600080fd5b5051919050565b600084516116ce81846020890161144b565b80830190507f2e00000000000000000000000000000000000000000000000000000000000000808252855161170a816001850160208a0161144b565b6001920191820152835161172581600284016020880161144b565b0160020195945050505050565b634e487b7160e01b600052603260045260246000fd5b6000823561013e1983360301811261175f57600080fd5b9190910192915050565b60006020828403121561177b57600080fd5b815180151581146114ae57600080fd5b6000825161175f81846020870161144b56fea26469706673582212202d027caff5cdae0e3a3b2702681b223875bb6b86f1d771d3b0a3adadca933ff264736f6c63430008110033",
  "linkReferences": {},
  "deployedLinkReferences": {}
}