{
  "_format": "hh-sol-artifact-1",
  "contractName": "AxelarProposalController",
  "sourceName": "contracts/ethregistrar/AxelarProposalController.sol",
  "abi": [
    {
      "inputs": [
        {
          "internalType": "contract ENS",
          "name": "_ens",
          "type": "address"
        }
      ],
      "stateMutability": "nonpayable",
      "type": "constructor"
    },
    {
      "inputs": [
        {
          "internalType": "string",
          "name": "key",
          "type": "string"
        },
        {
          "internalType": "string",
          "name": "value",
          "type": "string"
        }
      ],
      "name": "InvalidRecord",
      "type": "error"
    },
    {
      "anonymous": false,
      "inputs": [
        {
          "indexed": true,
          "internalType": "bytes32",
          "name": "proposalId",
          "type": "bytes32"
        },
        {
          "indexed": true,
          "internalType": "address",
          "name": "executor",
          "type": "address"
        },
        {
          "indexed": false,
          "internalType": "uint256",
          "name": "value",
          "type": "uint256"
        }
      ],
      "name": "ExecuteProposal",
      "type": "event"
    },
    {
      "inputs": [],
      "name": "ens",
      "outputs": [
        {
          "internalType": "contract ENS",
          "name": "",
          "type": "address"
        }
      ],
      "stateMutability": "view",
      "type": "function"
    },
    {
      "inputs": [
        {
          "components": [
            {
              "components": [
                {
                  "internalType": "bytes32",
                  "name": "node",
                  "type": "bytes32"
                },
                {
                  "internalType": "string",
                  "name": "key",
                  "type": "string"
                },
                {
                  "internalType": "string",
                  "name": "value",
                  "type": "string"
                }
              ],
              "internalType": "struct AxelarProposalController.ProposalCondition[]",
              "name": "conditions",
              "type": "tuple[]"
            },
            {
              "components": [
                {
                  "internalType": "contract IProposalExecutable",
                  "name": "target",
                  "type": "address"
                },
                {
                  "internalType": "uint256",
                  "name": "value",
                  "type": "uint256"
                },
                {
                  "internalType": "bytes",
                  "name": "data",
                  "type": "bytes"
                }
              ],
              "internalType": "struct AxelarProposalController.ProposalAction[]",
              "name": "actions",
              "type": "tuple[]"
            }
          ],
          "internalType": "struct AxelarProposalController.ProposalDetail",
          "name": "proposal",
          "type": "tuple"
        }
      ],
      "name": "executeProposal",
      "outputs": [],
      "stateMutability": "payable",
      "type": "function"
    }
  ],
  "bytecode": "0x60a060405234801561001057600080fd5b50604051610b8b380380610b8b83398101604081905261002f91610040565b6001600160a01b0316608052610070565b60006020828403121561005257600080fd5b81516001600160a01b038116811461006957600080fd5b9392505050565b608051610afa61009160003960008181604001526101250152610afa6000f3fe6080604052600436106100295760003560e01c80633f15457f1461002e578063c5f399211461008b575b600080fd5b34801561003a57600080fd5b506100627f000000000000000000000000000000000000000000000000000000000000000081565b60405173ffffffffffffffffffffffffffffffffffffffff909116815260200160405180910390f35b61009e610099366004610427565b6100a0565b005b60005b6100ad8280610469565b90508110156102b35760006100c28380610469565b838181106100d2576100d26104ba565b90506020028101906100e491906104d0565b6100ed906105e6565b80516040517f0178b8bf00000000000000000000000000000000000000000000000000000000815260048101919091529091506000907f000000000000000000000000000000000000000000000000000000000000000073ffffffffffffffffffffffffffffffffffffffff1690630178b8bf90602401602060405180830381865afa158015610181573d6000803e3d6000fd5b505050506040513d601f19601f820116820180604052508101906101a59190610682565b825160208401516040517f59d1d43c00000000000000000000000000000000000000000000000000000000815292935060009273ffffffffffffffffffffffffffffffffffffffff8516926359d1d43c92610202926004016106ef565b600060405180830381865afa15801561021f573d6000803e3d6000fd5b505050506040513d6000823e601f3d908101601f191682016040526102479190810190610710565b90508260400151805190602001208180519060200120146102a5578260200151816040517f39e41ca000000000000000000000000000000000000000000000000000000000815260040161029c929190610787565b60405180910390fd5b5050508060010190506100a3565b5060003046836040516020016102c99190610926565b60408051601f19818403018152908290526102e8939291602001610a07565b60405160208183030381529060405280519060200120905060005b6103106020840184610469565b90508110156103eb5760006103286020850185610469565b83818110610338576103386104ba565b905060200281019061034a91906104d0565b61035390610a59565b805160208201516040517fe751f2710000000000000000000000000000000000000000000000000000000081526004810187905292935073ffffffffffffffffffffffffffffffffffffffff9091169163e751f27191906024016000604051808303818588803b1580156103c657600080fd5b505af11580156103da573d6000803e3d6000fd5b505050505050806001019050610303565b50604051348152339082907f4f571a1b25c6f5b8c0ae8d73c3866ea70d7f6cb0b81074d3d2525e8639adb69c9060200160405180910390a35050565b60006020828403121561043957600080fd5b813567ffffffffffffffff81111561045057600080fd5b82016040818503121561046257600080fd5b9392505050565b6000808335601e1984360301811261048057600080fd5b83018035915067ffffffffffffffff82111561049b57600080fd5b6020019150600581901b36038213156104b357600080fd5b9250929050565b634e487b7160e01b600052603260045260246000fd5b60008235605e198336030181126104e657600080fd5b9190910192915050565b634e487b7160e01b600052604160045260246000fd5b6040516060810167ffffffffffffffff81118282101715610529576105296104f0565b60405290565b604051601f8201601f1916810167ffffffffffffffff81118282101715610558576105586104f0565b604052919050565b600067ffffffffffffffff82111561057a5761057a6104f0565b50601f01601f191660200190565b600061059b61059684610560565b61052f565b90508281528383830111156105af57600080fd5b828260208301376000602084830101529392505050565b600082601f8301126105d757600080fd5b61046283833560208501610588565b6000606082360312156105f857600080fd5b610600610506565b82358152602083013567ffffffffffffffff8082111561061f57600080fd5b61062b368387016105c6565b6020840152604085013591508082111561064457600080fd5b50610651368286016105c6565b60408301525092915050565b73ffffffffffffffffffffffffffffffffffffffff8116811461067f57600080fd5b50565b60006020828403121561069457600080fd5b81516104628161065d565b60005b838110156106ba5781810151838201526020016106a2565b50506000910152565b600081518084526106db81602086016020860161069f565b601f01601f19169290920160200192915050565b82815260406020820152600061070860408301846106c3565b949350505050565b60006020828403121561072257600080fd5b815167ffffffffffffffff81111561073957600080fd5b8201601f8101841361074a57600080fd5b805161075861059682610560565b81815285602083850101111561076d57600080fd5b61077e82602083016020860161069f565b95945050505050565b60408152600061079a60408301856106c3565b828103602084015261077e81856106c3565b6000808335601e198436030181126107c357600080fd5b830160208101925035905067ffffffffffffffff8111156107e357600080fd5b8060051b36038213156104b357600080fd5b6000808335601e1984360301811261080c57600080fd5b830160208101925035905067ffffffffffffffff81111561082c57600080fd5b8036038213156104b357600080fd5b81835281816020850137506000828201602090810191909152601f909101601f19169091010190565b60008235605e1983360301811261087a57600080fd5b90910192915050565b81835260006020808501808196508560051b810191508460005b878110156109195782840389526108b48288610864565b606081356108c18161065d565b73ffffffffffffffffffffffffffffffffffffffff168652818701358787015260406108ef818401846107f5565b93508282890152610903838901858361083b565b9c89019c9750505092860192505060010161089d565b5091979650505050505050565b60006020808352606080840161093c86876107ac565b604080868901528382855260808901905060808360051b8a010194508360005b848110156109d1578a8703607f190183526109778287610864565b803588526109878a8201826107f5565b8a8c8b01526109998b8b01828461083b565b9150506109a8868301836107f5565b9250898203878b01526109bc82848361083b565b9950505092890192509088019060010161095c565b5050506109e0868a018a6107ac565b96509450601f1988850301818901525050506109fd818484610883565b9695505050505050565b7fffffffffffffffffffffffffffffffffffffffff0000000000000000000000008460601b16815282601482015260008251610a4a81603485016020870161069f565b91909101603401949350505050565b600060608236031215610a6b57600080fd5b610a73610506565b8235610a7e8161065d565b815260208381013590820152604083013567ffffffffffffffff811115610aa457600080fd5b830136601f820112610ab557600080fd5b6106513682356020840161058856fea26469706673582212200dec5d532ee74e1942944568ff069b55f15cb0dddeb4d028894d2eeb12aa03ea64736f6c63430008110033",
  "linkReferences": {},
  "deployedLinkReferences": {}
}