{
  "_format": "hh-sol-artifact-1",
  "contractName": "AxelarProposalController",
  "sourceName": "contracts/ethregistrar/AxelarProposalController.sol",
  "abi": [
    {
      "inputs": [
        {
          "internalType": "contract ENS",
          "name": "_ens",
          "type": "address"
        }
      ],
      "stateMutability": "nonpayable",
      "type": "constructor"
    },
    {
      "inputs": [
        {
          "internalType": "string",
          "name": "key",
          "type": "string"
        },
        {
          "internalType": "string",
          "name": "value",
          "type": "string"
        }
      ],
      "name": "InvalidRecord",
      "type": "error"
    },
    {
      "inputs": [],
      "name": "ProposalExecuted",
      "type": "error"
    },
    {
      "inputs": [],
      "name": "ProposalExpired",
      "type": "error"
    },
    {
      "anonymous": false,
      "inputs": [
        {
          "indexed": true,
          "internalType": "bytes32",
          "name": "proposalId",
          "type": "bytes32"
        },
        {
          "indexed": true,
          "internalType": "address",
          "name": "executor",
          "type": "address"
        },
        {
          "indexed": false,
          "internalType": "uint256",
          "name": "value",
          "type": "uint256"
        }
      ],
      "name": "ExecuteProposal",
      "type": "event"
    },
    {
      "inputs": [
        {
          "components": [
            {
              "internalType": "uint256",
              "name": "expiration",
              "type": "uint256"
            },
            {
              "components": [
                {
                  "internalType": "bytes32",
                  "name": "node",
                  "type": "bytes32"
                },
                {
                  "internalType": "string",
                  "name": "key",
                  "type": "string"
                },
                {
                  "internalType": "string",
                  "name": "value",
                  "type": "string"
                }
              ],
              "internalType": "struct AxelarProposalController.ProposalCondition[]",
              "name": "conditions",
              "type": "tuple[]"
            },
            {
              "components": [
                {
                  "internalType": "contract IProposalExecutable",
                  "name": "target",
                  "type": "address"
                },
                {
                  "internalType": "uint256",
                  "name": "value",
                  "type": "uint256"
                },
                {
                  "internalType": "bytes",
                  "name": "data",
                  "type": "bytes"
                }
              ],
              "internalType": "struct AxelarProposalController.ProposalAction[]",
              "name": "actions",
              "type": "tuple[]"
            }
          ],
          "internalType": "struct AxelarProposalController.ProposalDetail",
          "name": "proposal",
          "type": "tuple"
        }
      ],
      "name": "calculateConditionHash",
      "outputs": [
        {
          "internalType": "bytes32",
          "name": "",
          "type": "bytes32"
        }
      ],
      "stateMutability": "pure",
      "type": "function"
    },
    {
      "inputs": [
        {
          "components": [
            {
              "internalType": "uint256",
              "name": "expiration",
              "type": "uint256"
            },
            {
              "components": [
                {
                  "internalType": "bytes32",
                  "name": "node",
                  "type": "bytes32"
                },
                {
                  "internalType": "string",
                  "name": "key",
                  "type": "string"
                },
                {
                  "internalType": "string",
                  "name": "value",
                  "type": "string"
                }
              ],
              "internalType": "struct AxelarProposalController.ProposalCondition[]",
              "name": "conditions",
              "type": "tuple[]"
            },
            {
              "components": [
                {
                  "internalType": "contract IProposalExecutable",
                  "name": "target",
                  "type": "address"
                },
                {
                  "internalType": "uint256",
                  "name": "value",
                  "type": "uint256"
                },
                {
                  "internalType": "bytes",
                  "name": "data",
                  "type": "bytes"
                }
              ],
              "internalType": "struct AxelarProposalController.ProposalAction[]",
              "name": "actions",
              "type": "tuple[]"
            }
          ],
          "internalType": "struct AxelarProposalController.ProposalDetail",
          "name": "proposal",
          "type": "tuple"
        }
      ],
      "name": "calculateProposalId",
      "outputs": [
        {
          "internalType": "bytes32",
          "name": "",
          "type": "bytes32"
        }
      ],
      "stateMutability": "view",
      "type": "function"
    },
    {
      "inputs": [],
      "name": "ens",
      "outputs": [
        {
          "internalType": "contract ENS",
          "name": "",
          "type": "address"
        }
      ],
      "stateMutability": "view",
      "type": "function"
    },
    {
      "inputs": [
        {
          "components": [
            {
              "internalType": "uint256",
              "name": "expiration",
              "type": "uint256"
            },
            {
              "components": [
                {
                  "internalType": "bytes32",
                  "name": "node",
                  "type": "bytes32"
                },
                {
                  "internalType": "string",
                  "name": "key",
                  "type": "string"
                },
                {
                  "internalType": "string",
                  "name": "value",
                  "type": "string"
                }
              ],
              "internalType": "struct AxelarProposalController.ProposalCondition[]",
              "name": "conditions",
              "type": "tuple[]"
            },
            {
              "components": [
                {
                  "internalType": "contract IProposalExecutable",
                  "name": "target",
                  "type": "address"
                },
                {
                  "internalType": "uint256",
                  "name": "value",
                  "type": "uint256"
                },
                {
                  "internalType": "bytes",
                  "name": "data",
                  "type": "bytes"
                }
              ],
              "internalType": "struct AxelarProposalController.ProposalAction[]",
              "name": "actions",
              "type": "tuple[]"
            }
          ],
          "internalType": "struct AxelarProposalController.ProposalDetail",
          "name": "proposal",
          "type": "tuple"
        }
      ],
      "name": "executeProposal",
      "outputs": [],
      "stateMutability": "payable",
      "type": "function"
    },
    {
      "inputs": [
        {
          "internalType": "bytes32",
          "name": "",
          "type": "bytes32"
        }
      ],
      "name": "executedTimestamp",
      "outputs": [
        {
          "internalType": "uint256",
          "name": "",
          "type": "uint256"
        }
      ],
      "stateMutability": "view",
      "type": "function"
    }
  ],
  "bytecode": "0x60a060405234801561001057600080fd5b50604051610d6a380380610d6a83398101604081905261002f91610040565b6001600160a01b0316608052610070565b60006020828403121561005257600080fd5b81516001600160a01b038116811461006957600080fd5b9392505050565b608051610cd961009160003960008181608601526102130152610cd96000f3fe60806040526004361061005a5760003560e01c80637736f938116100435780637736f938146100d2578063afd0318d14610100578063e780ebd81461012057600080fd5b80632b2fe77c1461005f5780633f15457f14610074575b600080fd5b61007261006d3660046105b6565b61014d565b005b34801561008057600080fd5b506100a87f000000000000000000000000000000000000000000000000000000000000000081565b60405173ffffffffffffffffffffffffffffffffffffffff90911681526020015b60405180910390f35b3480156100de57600080fd5b506100f26100ed3660046105b6565b610545565b6040519081526020016100c9565b34801561010c57600080fd5b506100f261011b3660046105b6565b610596565b34801561012c57600080fd5b506100f261013b3660046105f8565b60006020819052908152604090205481565b8035421115610188576040517f28a7237900000000000000000000000000000000000000000000000000000000815260040160405180910390fd5b60005b6101986020830183610611565b90508110156103a15760006101b06020840184610611565b838181106101c0576101c0610662565b90506020028101906101d29190610678565b6101db9061078e565b80516040517f0178b8bf00000000000000000000000000000000000000000000000000000000815260048101919091529091506000907f000000000000000000000000000000000000000000000000000000000000000073ffffffffffffffffffffffffffffffffffffffff1690630178b8bf90602401602060405180830381865afa15801561026f573d6000803e3d6000fd5b505050506040513d601f19601f82011682018060405250810190610293919061082a565b825160208401516040517f59d1d43c00000000000000000000000000000000000000000000000000000000815292935060009273ffffffffffffffffffffffffffffffffffffffff8516926359d1d43c926102f092600401610897565b600060405180830381865afa15801561030d573d6000803e3d6000fd5b505050506040513d6000823e601f3d908101601f1916820160405261033591908101906108b8565b9050826040015180519060200120818051906020012014610393578260200151816040517f39e41ca000000000000000000000000000000000000000000000000000000000815260040161038a92919061092f565b60405180910390fd5b50505080600101905061018b565b5060006103ad82610545565b905060006103ba83610596565b60008381526020819052604090205490915015610403576040517fcf88c65700000000000000000000000000000000000000000000000000000000815260040160405180910390fd5b60005b6104136040850185610611565b90508110156104f857600061042b6040860186610611565b8381811061043b5761043b610662565b905060200281019061044d9190610678565b61045690610954565b8051602082015160408084015190517f5076a83900000000000000000000000000000000000000000000000000000000815293945073ffffffffffffffffffffffffffffffffffffffff90921692635076a839926104ba91899189916004016109bf565b6000604051808303818588803b1580156104d357600080fd5b505af11580156104e7573d6000803e3d6000fd5b505050505050806001019050610406565b50600082815260208181526040918290204290559051348152339184917f4f571a1b25c6f5b8c0ae8d73c3866ea70d7f6cb0b81074d3d2525e8639adb69c910160405180910390a3505050565b600030468360405160200161055a9190610b53565b60408051601f1981840301815290829052610579939291602001610c3d565b604051602081830303815290604052805190602001209050919050565b60006105a56020830183610611565b604051602001610579929190610c8f565b6000602082840312156105c857600080fd5b813567ffffffffffffffff8111156105df57600080fd5b8201606081850312156105f157600080fd5b9392505050565b60006020828403121561060a57600080fd5b5035919050565b6000808335601e1984360301811261062857600080fd5b83018035915067ffffffffffffffff82111561064357600080fd5b6020019150600581901b360382131561065b57600080fd5b9250929050565b634e487b7160e01b600052603260045260246000fd5b60008235605e1983360301811261068e57600080fd5b9190910192915050565b634e487b7160e01b600052604160045260246000fd5b6040516060810167ffffffffffffffff811182821017156106d1576106d1610698565b60405290565b604051601f8201601f1916810167ffffffffffffffff8111828210171561070057610700610698565b604052919050565b600067ffffffffffffffff82111561072257610722610698565b50601f01601f191660200190565b600061074361073e84610708565b6106d7565b905082815283838301111561075757600080fd5b828260208301376000602084830101529392505050565b600082601f83011261077f57600080fd5b6105f183833560208501610730565b6000606082360312156107a057600080fd5b6107a86106ae565b82358152602083013567ffffffffffffffff808211156107c757600080fd5b6107d33683870161076e565b602084015260408501359150808211156107ec57600080fd5b506107f93682860161076e565b60408301525092915050565b73ffffffffffffffffffffffffffffffffffffffff8116811461082757600080fd5b50565b60006020828403121561083c57600080fd5b81516105f181610805565b60005b8381101561086257818101518382015260200161084a565b50506000910152565b60008151808452610883816020860160208601610847565b601f01601f19169290920160200192915050565b8281526040602082015260006108b0604083018461086b565b949350505050565b6000602082840312156108ca57600080fd5b815167ffffffffffffffff8111156108e157600080fd5b8201601f810184136108f257600080fd5b805161090061073e82610708565b81815285602083850101111561091557600080fd5b610926826020830160208601610847565b95945050505050565b604081526000610942604083018561086b565b8281036020840152610926818561086b565b60006060823603121561096657600080fd5b61096e6106ae565b823561097981610805565b815260208381013590820152604083013567ffffffffffffffff81111561099f57600080fd5b830136601f8201126109b057600080fd5b6107f936823560208401610730565b838152826020820152606060408201526000610926606083018461086b565b6000808335601e198436030181126109f557600080fd5b830160208101925035905067ffffffffffffffff811115610a1557600080fd5b8060051b360382131561065b57600080fd5b6000808335601e19843603018112610a3e57600080fd5b830160208101925035905067ffffffffffffffff811115610a5e57600080fd5b80360382131561065b57600080fd5b81835281816020850137506000828201602090810191909152601f909101601f19169091010190565b60008235605e19833603018112610aac57600080fd5b90910192915050565b81835260006020808501808196508560051b810191508460005b87811015610b46578284038952610ae68288610a96565b606081358652610af887830183610a27565b8289890152610b0a8389018284610a6d565b925050506040610b1c81840184610a27565b935087830382890152610b30838583610a6d565b9c89019c97505050928601925050600101610acf565b5091979650505050505050565b60006020808352833581840152610b6c818501856109de565b606060408181880152610b83608088018486610ab5565b9350610b91818901896109de565b601f198987038101858b0152818752909450868601600586901b870188018360005b88811015610c2b57848a8403018452610bcc8287610a96565b8035610bd781610805565b73ffffffffffffffffffffffffffffffffffffffff168452808c01358c850152610c0388820182610a27565b91508989860152610c178a86018383610a6d565b958d019594505050908a0190600101610bb3565b50909c9b505050505050505050505050565b7fffffffffffffffffffffffffffffffffffffffff0000000000000000000000008460601b16815282601482015260008251610c80816034850160208701610847565b91909101603401949350505050565b6020815260006108b0602083018486610ab556fea26469706673582212203b6722983cbe62381fdeef18324cca438c84586595b61b070758fcafba7881d664736f6c63430008110033",
  "linkReferences": {},
  "deployedLinkReferences": {}
}