{
  "_format": "hh-sol-artifact-1",
  "contractName": "ExtendedResolver",
  "sourceName": "contracts/diamond-resolver/facets/public-resolver/extended-resolver/ExtendedResolver.sol",
  "abi": [
    {
      "inputs": [
        {
          "internalType": "bytes",
          "name": "",
          "type": "bytes"
        },
        {
          "internalType": "bytes",
          "name": "data",
          "type": "bytes"
        }
      ],
      "name": "resolve",
      "outputs": [
        {
          "internalType": "bytes",
          "name": "",
          "type": "bytes"
        }
      ],
      "stateMutability": "view",
      "type": "function"
    },
    {
      "inputs": [
        {
          "internalType": "bytes4",
          "name": "interfaceID",
          "type": "bytes4"
        }
      ],
      "name": "supportsInterface",
      "outputs": [
        {
          "internalType": "bool",
          "name": "",
          "type": "bool"
        }
      ],
      "stateMutability": "view",
      "type": "function"
    }
  ],
  "bytecode": "0x608060405234801561001057600080fd5b50610363806100206000396000f3fe608060405234801561001057600080fd5b50600436106100365760003560e01c806301ffc9a71461003b5780639061b923146100a5575b600080fd5b610090610049366004610151565b7fffffffff00000000000000000000000000000000000000000000000000000000167f9061b923000000000000000000000000000000000000000000000000000000001490565b60405190151581526020015b60405180910390f35b6100b86100b3366004610256565b6100c5565b60405161009c91906102de565b60606000803073ffffffffffffffffffffffffffffffffffffffff16846040516100ef9190610311565b600060405180830381855afa9150503d806000811461012a576040519150601f19603f3d011682016040523d82523d6000602084013e61012f565b606091505b5091509150811561014357915061014b9050565b805160208201fd5b92915050565b60006020828403121561016357600080fd5b81357fffffffff000000000000000000000000000000000000000000000000000000008116811461019357600080fd5b9392505050565b7f4e487b7100000000000000000000000000000000000000000000000000000000600052604160045260246000fd5b600082601f8301126101da57600080fd5b813567ffffffffffffffff808211156101f5576101f561019a565b604051601f8301601f19908116603f0116810190828211818310171561021d5761021d61019a565b8160405283815286602085880101111561023657600080fd5b836020870160208301376000602085830101528094505050505092915050565b6000806040838503121561026957600080fd5b823567ffffffffffffffff8082111561028157600080fd5b61028d868387016101c9565b935060208501359150808211156102a357600080fd5b506102b0858286016101c9565b9150509250929050565b60005b838110156102d55781810151838201526020016102bd565b50506000910152565b60208152600082518060208401526102fd8160408501602087016102ba565b601f01601f19169190910160400192915050565b600082516103238184602087016102ba565b919091019291505056fea264697066735822122095f4174427e97deff5a88161813c2625e3df7dcfb8cc24d54035a620ec08f8d064736f6c63430008130033",
  "linkReferences": {},
  "deployedLinkReferences": {}
}