{
  "_format": "hh-sol-artifact-1",
  "contractName": "AxelarWhitelistRegistrarController",
  "sourceName": "contracts/ethregistrar/AxelarWhitelistRegistrarController.sol",
  "abi": [
    {
      "inputs": [
        {
          "internalType": "contract INameWrapper",
          "name": "_nameWrapper",
          "type": "address"
        },
        {
          "internalType": "address",
          "name": "_operator",
          "type": "address"
        }
      ],
      "stateMutability": "nonpayable",
      "type": "constructor"
    },
    {
      "inputs": [],
      "name": "InvalidOperatorSignature",
      "type": "error"
    },
    {
      "inputs": [],
      "name": "NotApprovedByGateway",
      "type": "error"
    },
    {
      "inputs": [],
      "name": "NotMainChain",
      "type": "error"
    },
    {
      "anonymous": false,
      "inputs": [
        {
          "indexed": true,
          "internalType": "bytes32",
          "name": "node",
          "type": "bytes32"
        },
        {
          "indexed": false,
          "internalType": "string",
          "name": "name",
          "type": "string"
        },
        {
          "indexed": false,
          "internalType": "string",
          "name": "key",
          "type": "string"
        },
        {
          "indexed": false,
          "internalType": "string",
          "name": "value",
          "type": "string"
        }
      ],
      "name": "BridgeSetText",
      "type": "event"
    },
    {
      "anonymous": false,
      "inputs": [
        {
          "indexed": true,
          "internalType": "bytes32",
          "name": "node",
          "type": "bytes32"
        },
        {
          "indexed": true,
          "internalType": "address",
          "name": "owner",
          "type": "address"
        },
        {
          "indexed": true,
          "internalType": "uint256",
          "name": "mainChain",
          "type": "uint256"
        },
        {
          "indexed": false,
          "internalType": "string",
          "name": "name",
          "type": "string"
        }
      ],
      "name": "Register",
      "type": "event"
    },
    {
      "inputs": [
        {
          "internalType": "string",
          "name": "name",
          "type": "string"
        },
        {
          "internalType": "string",
          "name": "destinationChain",
          "type": "string"
        }
      ],
      "name": "bridge",
      "outputs": [],
      "stateMutability": "payable",
      "type": "function"
    },
    {
      "inputs": [
        {
          "internalType": "string",
          "name": "name",
          "type": "string"
        },
        {
          "internalType": "string",
          "name": "key",
          "type": "string"
        },
        {
          "internalType": "string",
          "name": "destinationChain",
          "type": "string"
        }
      ],
      "name": "bridgeText",
      "outputs": [],
      "stateMutability": "payable",
      "type": "function"
    },
    {
      "inputs": [],
      "name": "defaultResolver",
      "outputs": [
        {
          "internalType": "address",
          "name": "",
          "type": "address"
        }
      ],
      "stateMutability": "view",
      "type": "function"
    },
    {
      "inputs": [],
      "name": "ens",
      "outputs": [
        {
          "internalType": "contract ENS",
          "name": "",
          "type": "address"
        }
      ],
      "stateMutability": "view",
      "type": "function"
    },
    {
      "inputs": [
        {
          "internalType": "bytes32",
          "name": "commandId",
          "type": "bytes32"
        },
        {
          "internalType": "string",
          "name": "sourceChain",
          "type": "string"
        },
        {
          "internalType": "string",
          "name": "sourceAddress",
          "type": "string"
        },
        {
          "internalType": "bytes",
          "name": "payload",
          "type": "bytes"
        }
      ],
      "name": "execute",
      "outputs": [],
      "stateMutability": "nonpayable",
      "type": "function"
    },
    {
      "inputs": [],
      "name": "gasService",
      "outputs": [
        {
          "internalType": "contract IAxelarGasService",
          "name": "",
          "type": "address"
        }
      ],
      "stateMutability": "view",
      "type": "function"
    },
    {
      "inputs": [],
      "name": "gateway",
      "outputs": [
        {
          "internalType": "contract IAxelarGateway",
          "name": "",
          "type": "address"
        }
      ],
      "stateMutability": "view",
      "type": "function"
    },
    {
      "inputs": [
        {
          "internalType": "bytes32",
          "name": "",
          "type": "bytes32"
        }
      ],
      "name": "mainChainMapping",
      "outputs": [
        {
          "internalType": "uint256",
          "name": "",
          "type": "uint256"
        }
      ],
      "stateMutability": "view",
      "type": "function"
    },
    {
      "inputs": [],
      "name": "nameWrapper",
      "outputs": [
        {
          "internalType": "contract INameWrapper",
          "name": "",
          "type": "address"
        }
      ],
      "stateMutability": "view",
      "type": "function"
    },
    {
      "inputs": [],
      "name": "operator",
      "outputs": [
        {
          "internalType": "address",
          "name": "",
          "type": "address"
        }
      ],
      "stateMutability": "view",
      "type": "function"
    },
    {
      "inputs": [
        {
          "internalType": "string",
          "name": "name",
          "type": "string"
        },
        {
          "internalType": "address",
          "name": "owner",
          "type": "address"
        },
        {
          "internalType": "bytes[]",
          "name": "data",
          "type": "bytes[]"
        },
        {
          "internalType": "bytes",
          "name": "operatorSignature",
          "type": "bytes"
        }
      ],
      "name": "register",
      "outputs": [],
      "stateMutability": "nonpayable",
      "type": "function"
    },
    {
      "inputs": [],
      "name": "rootNode",
      "outputs": [
        {
          "internalType": "bytes32",
          "name": "",
          "type": "bytes32"
        }
      ],
      "stateMutability": "view",
      "type": "function"
    },
    {
      "inputs": [],
      "name": "updateAxelarContract",
      "outputs": [],
      "stateMutability": "nonpayable",
      "type": "function"
    }
  ],
  "bytecode": "0x60e06040523480156200001157600080fd5b506040516200320f3803806200320f833981016040819052620000349162000664565b62000055306001600160a01b031660146200012b60201b62000dff1760201c565b60029062000064908262000748565b50816001600160a01b0316633f15457f6040518163ffffffff1660e01b8152600401602060405180830381865afa158015620000a4573d6000803e3d6000fd5b505050506040513d601f19601f82011682018060405250810190620000ca919062000814565b6001600160a01b0390811660805282811660a0527f060f8fe03b5af1f50ede263fae5ba358bb2a34fcf734f4443444878e23386f7e60c052600080546001600160a01b03191691831691909117905562000123620002f0565b5050620008aa565b606060006200013c8360026200084a565b6200014990600262000864565b6001600160401b03811115620001635762000163620006a3565b6040519080825280601f01601f1916602001820160405280156200018e576020820181803683370190505b509050600360fc1b81600081518110620001ac57620001ac6200087a565b60200101906001600160f81b031916908160001a905350600f60fb1b81600181518110620001de57620001de6200087a565b60200101906001600160f81b031916908160001a9053506000620002048460026200084a565b6200021190600162000864565b90505b600181111562000293576f181899199a1a9b1b9c1cb0b131b232b360811b85600f16601081106200024957620002496200087a565b1a60f81b8282815181106200026257620002626200087a565b60200101906001600160f81b031916908160001a90535060049490941c936200028b8162000890565b905062000214565b508315620002e75760405162461bcd60e51b815260206004820181905260248201527f537472696e67733a20686578206c656e67746820696e73756666696369656e74604482015260640160405180910390fd5b90505b92915050565b608051604051630178b8bf60e01b8152600080516020620031cf83398151915260048201526001600160a01b0390911690630178b8bf90602401602060405180830381865afa15801562000348573d6000803e3d6000fd5b505050506040513d601f19601f820116820180604052508101906200036e919062000814565b604051631d9dabef60e11b8152600080516020620031cf83398151915260048201526001600160a01b039190911690633b3b57de90602401602060405180830381865afa158015620003c4573d6000803e3d6000fd5b505050506040513d601f19601f82011682018060405250810190620003ea919062000814565b600380546001600160a01b0319166001600160a01b03928316179055608051604051630178b8bf60e01b81527fb0a0bca92b007f6cb95f1e2d3a7998525aab6b250892d4b46aada869eb80a3216004820152911690630178b8bf90602401602060405180830381865afa15801562000466573d6000803e3d6000fd5b505050506040513d601f19601f820116820180604052508101906200048c919062000814565b604051631d9dabef60e11b81527fb0a0bca92b007f6cb95f1e2d3a7998525aab6b250892d4b46aada869eb80a32160048201526001600160a01b039190911690633b3b57de90602401602060405180830381865afa158015620004f3573d6000803e3d6000fd5b505050506040513d601f19601f8201168201806040525081019062000519919062000814565b600480546001600160a01b0319166001600160a01b03928316178155608051604051630178b8bf60e01b8152600080516020620031ef8339815191529281019290925290911690630178b8bf90602401602060405180830381865afa15801562000587573d6000803e3d6000fd5b505050506040513d601f19601f82011682018060405250810190620005ad919062000814565b604051631d9dabef60e11b8152600080516020620031ef83398151915260048201526001600160a01b039190911690633b3b57de90602401602060405180830381865afa15801562000603573d6000803e3d6000fd5b505050506040513d601f19601f8201168201806040525081019062000629919062000814565b600180546001600160a01b0319166001600160a01b0392909216919091179055565b6001600160a01b03811681146200066157600080fd5b50565b600080604083850312156200067857600080fd5b825162000685816200064b565b602084015190925062000698816200064b565b809150509250929050565b634e487b7160e01b600052604160045260246000fd5b600181811c90821680620006ce57607f821691505b602082108103620006ef57634e487b7160e01b600052602260045260246000fd5b50919050565b601f8211156200074357600081815260208120601f850160051c810160208610156200071e5750805b601f850160051c820191505b818110156200073f578281556001016200072a565b5050505b505050565b81516001600160401b03811115620007645762000764620006a3565b6200077c81620007758454620006b9565b84620006f5565b602080601f831160018114620007b457600084156200079b5750858301515b600019600386901b1c1916600185901b1785556200073f565b600085815260208120601f198616915b82811015620007e557888601518255948401946001909101908401620007c4565b5085821015620008045787850151600019600388901b60f8161c191681555b5050505050600190811b01905550565b6000602082840312156200082757600080fd5b8151620002e7816200064b565b634e487b7160e01b600052601160045260246000fd5b8082028115828204841417620002ea57620002ea62000834565b80820180821115620002ea57620002ea62000834565b634e487b7160e01b600052603260045260246000fd5b600081620008a257620008a262000834565b506000190190565b60805160a05160c0516128706200095f600039600081816102a60152818161096a01528181610b12015281816111dd0152818161127a0152818161146a015281816116c20152818161180701526119ce0152600081816102720152818161124d015281816113350152818161143d0152818161174d015281816117da015261199f015260008181610198015281816104b40152818161060f0152818161076601528181610bcc015261189901526128706000f3fe6080604052600436106100d25760003560e01c8063570ca7351161007f578063828eab0e11610059578063828eab0e1461022d578063897218691461024d578063a8e5fbc014610260578063faff50a81461029457600080fd5b8063570ca735146101da5780636a22d8cc146101fa5780637158212a1461021a57600080fd5b80631dde4a5a116100b05780631dde4a5a146101715780633f15457f1461018657806349160658146101ba57600080fd5b8063079e3f71146100d7578063116191b6146101175780631944a0cf1461014f575b600080fd5b3480156100e357600080fd5b506101046100f2366004611b4f565b60056020526000908152604090205481565b6040519081526020015b60405180910390f35b34801561012357600080fd5b50600354610137906001600160a01b031681565b6040516001600160a01b03909116815260200161010e565b34801561015b57600080fd5b5061016f61016a366004611bc2565b6102c8565b005b34801561017d57600080fd5b5061016f61047f565b34801561019257600080fd5b506101377f000000000000000000000000000000000000000000000000000000000000000081565b3480156101c657600080fd5b5061016f6101d5366004611ca2565b61088c565b3480156101e657600080fd5b50600054610137906001600160a01b031681565b34801561020657600080fd5b50600454610137906001600160a01b031681565b61016f610228366004611d26565b610966565b34801561023957600080fd5b50600154610137906001600160a01b031681565b61016f61025b366004611e5f565b610b0e565b34801561026c57600080fd5b506101377f000000000000000000000000000000000000000000000000000000000000000081565b3480156102a057600080fd5b506101047f000000000000000000000000000000000000000000000000000000000000000081565b600087878787876040516020016102e3959493929190611f1d565b60408051808303601f19018152908290528051602091820120600080547f19000000000000000000000000000000000000000000000000000000000000009385019390935260218401527fffffffffffffffffffffffffffffffffffffffff0000000000000000000000003060601b1660228401524660368401527fdd007bd789f73e08c2714644c55b11c7d202931d717def434e3c9caa12a9f58360568401526076830181905292506103f2916001600160a01b03909116906096016040516020818303038152906040528051906020012085858080601f01602080910402602001604051908101604052809392919081815260200183838082843760009201919091525061104f92505050565b610428576040517f4c2d491200000000000000000000000000000000000000000000000000000000815260040160405180910390fd5b61047588888080601f0160208091040260200160405190810160405280939291908181526020018383808284376000920191909152508a92504691506104709050888a612003565b6111d9565b5050505050505050565b604051630178b8bf60e01b81527ffa09792c7e511e28c04759f07bfa13349dfe86b3521af57d4d0779bc50f94b2f60048201527f00000000000000000000000000000000000000000000000000000000000000006001600160a01b031690630178b8bf90602401602060405180830381865afa158015610503573d6000803e3d6000fd5b505050506040513d601f19601f82011682018060405250810190610527919061208b565b604051631d9dabef60e11b81527ffa09792c7e511e28c04759f07bfa13349dfe86b3521af57d4d0779bc50f94b2f60048201526001600160a01b039190911690633b3b57de90602401602060405180830381865afa15801561058d573d6000803e3d6000fd5b505050506040513d601f19601f820116820180604052508101906105b1919061208b565b6003805473ffffffffffffffffffffffffffffffffffffffff19166001600160a01b03928316179055604051630178b8bf60e01b81527fb0a0bca92b007f6cb95f1e2d3a7998525aab6b250892d4b46aada869eb80a32160048201527f000000000000000000000000000000000000000000000000000000000000000090911690630178b8bf90602401602060405180830381865afa158015610658573d6000803e3d6000fd5b505050506040513d601f19601f8201168201806040525081019061067c919061208b565b604051631d9dabef60e11b81527fb0a0bca92b007f6cb95f1e2d3a7998525aab6b250892d4b46aada869eb80a32160048201526001600160a01b039190911690633b3b57de90602401602060405180830381865afa1580156106e2573d6000803e3d6000fd5b505050506040513d601f19601f82011682018060405250810190610706919061208b565b6004805473ffffffffffffffffffffffffffffffffffffffff19166001600160a01b03928316178155604051630178b8bf60e01b81527fb0c33aaf22bba888eba653ddb29ef152a115d46cc338e4a2e54db6fcc0ee6562918101919091527f000000000000000000000000000000000000000000000000000000000000000090911690630178b8bf90602401602060405180830381865afa1580156107af573d6000803e3d6000fd5b505050506040513d601f19601f820116820180604052508101906107d3919061208b565b604051631d9dabef60e11b81527fb0c33aaf22bba888eba653ddb29ef152a115d46cc338e4a2e54db6fcc0ee656260048201526001600160a01b039190911690633b3b57de90602401602060405180830381865afa158015610839573d6000803e3d6000fd5b505050506040513d601f19601f8201168201806040525081019061085d919061208b565b6001805473ffffffffffffffffffffffffffffffffffffffff19166001600160a01b0392909216919091179055565b6000828260405161089e9291906120a8565b6040519081900381206003547f5f6970c30000000000000000000000000000000000000000000000000000000083529092506001600160a01b031690635f6970c3906108f8908b908b908b908b908b9089906004016120b8565b6020604051808303816000875af1158015610917573d6000803e3d6000fd5b505050506040513d601f19601f8201168201806040525081019061093b91906120f9565b61095857604051631403112d60e21b815260040160405180910390fd5b610475878787878787611542565b60007f000000000000000000000000000000000000000000000000000000000000000085856040516109999291906120a8565b6040519081900381206109b89291602001918252602082015260400190565b60408051601f198184030181528282528051602091820120600081815260058352928320549094509192610a16927fdd007bd789f73e08c2714644c55b11c7d202931d717def434e3c9caa12a9f583928a928a92309290910161211b565b60408051601f1981840301815291905290503415610a9d5760048054604051630c93e3bb60e01b81526001600160a01b0390911691630c93e3bb913491610a6a9130918a918a916002918a91339101612259565b6000604051808303818588803b158015610a8357600080fd5b505af1158015610a97573d6000803e3d6000fd5b50505050505b600354604051631c92115f60e01b81526001600160a01b0390911690631c92115f90610ad4908790879060029087906004016122ba565b600060405180830381600087803b158015610aee57600080fd5b505af1158015610b02573d6000803e3d6000fd5b50505050505050505050565b60007f00000000000000000000000000000000000000000000000000000000000000008680519060200120604051602001610b53929190918252602082015260400190565b60408051601f198184030181529181528151602092830120600081815260059093529120549091504614610bb3576040517f60dee01500000000000000000000000000000000000000000000000000000000815260040160405180910390fd5b604051630178b8bf60e01b8152600481018290526000907f00000000000000000000000000000000000000000000000000000000000000006001600160a01b031690630178b8bf90602401602060405180830381865afa158015610c1b573d6000803e3d6000fd5b505050506040513d601f19601f82011682018060405250810190610c3f919061208b565b905060007f9599d5e4e43121196cadfeaea326e46f58d9db74299decfd64bd3b700350ccd96005600085815260200190815260200160002054898989866001600160a01b03166359d1d43c898e8e6040518463ffffffff1660e01b8152600401610cab939291906122ff565b600060405180830381865afa158015610cc8573d6000803e3d6000fd5b505050506040513d6000823e601f3d908101601f19168201604052610cf09190810190612352565b604051602001610d05969594939291906123a3565b60408051601f1981840301815291905290503415610d8c5760048054604051630c93e3bb60e01b81526001600160a01b0390911691630c93e3bb913491610d599130918b918b916002918a91339101612259565b6000604051808303818588803b158015610d7257600080fd5b505af1158015610d86573d6000803e3d6000fd5b50505050505b600354604051631c92115f60e01b81526001600160a01b0390911690631c92115f90610dc3908890889060029087906004016122ba565b600060405180830381600087803b158015610ddd57600080fd5b505af1158015610df1573d6000803e3d6000fd5b505050505050505050505050565b60606000610e0e83600261240c565b610e19906002612423565b67ffffffffffffffff811115610e3157610e31611d92565b6040519080825280601f01601f191660200182016040528015610e5b576020820181803683370190505b5090507f300000000000000000000000000000000000000000000000000000000000000081600081518110610e9257610e92612436565b60200101907effffffffffffffffffffffffffffffffffffffffffffffffffffffffffffff1916908160001a9053507f780000000000000000000000000000000000000000000000000000000000000081600181518110610ef557610ef5612436565b60200101907effffffffffffffffffffffffffffffffffffffffffffffffffffffffffffff1916908160001a9053506000610f3184600261240c565b610f3c906001612423565b90505b6001811115610fd9577f303132333435363738396162636465660000000000000000000000000000000085600f1660108110610f7d57610f7d612436565b1a60f81b828281518110610f9357610f93612436565b60200101907effffffffffffffffffffffffffffffffffffffffffffffffffffffffffffff1916908160001a90535060049490941c93610fd28161244c565b9050610f3f565b508315611046576040517f08c379a000000000000000000000000000000000000000000000000000000000815260206004820181905260248201527f537472696e67733a20686578206c656e67746820696e73756666696369656e74604482015260640160405180910390fd5b90505b92915050565b600080600061105e8585611679565b9092509050600081600481111561107757611077612463565b1480156110955750856001600160a01b0316826001600160a01b0316145b156110a5576001925050506111d2565b600080876001600160a01b0316631626ba7e60e01b88886040516024016110cd929190612479565b60408051601f198184030181529181526020820180517bffffffffffffffffffffffffffffffffffffffffffffffffffffffff167fffffffff000000000000000000000000000000000000000000000000000000009094169390931790925290516111389190612492565b600060405180830381855afa9150503d8060008114611173576040519150601f19603f3d011682016040523d82523d6000602084013e611178565b606091505b509150915081801561118b575080516020145b80156111cb575080517f1626ba7e00000000000000000000000000000000000000000000000000000000906111c990830160209081019084016124ae565b145b9450505050505b9392505050565b60007f0000000000000000000000000000000000000000000000000000000000000000858051906020012060405160200161121e929190918252602082015260400190565b60408051601f1981840301815290829052805160209091012063632c704360e11b825291506001600160a01b037f0000000000000000000000000000000000000000000000000000000000000000169063c658e086906112af907f000000000000000000000000000000000000000000000000000000000000000090899030906000906367748580906004016124c7565b6020604051808303816000875af11580156112ce573d6000803e3d6000fd5b505050506040513d601f19601f820116820180604052508101906112f291906124ae565b506001546040517f1896f70a000000000000000000000000000000000000000000000000000000008152600481018390526001600160a01b0391821660248201527f000000000000000000000000000000000000000000000000000000000000000090911690631896f70a90604401600060405180830381600087803b15801561137b57600080fd5b505af115801561138f573d6000803e3d6000fd5b50506001546040517fe32954eb0000000000000000000000000000000000000000000000000000000081526001600160a01b03909116925063e32954eb91506113de9084908690600401612516565b6000604051808303816000875af11580156113fd573d6000803e3d6000fd5b505050506040513d6000823e601f3d908101601f191682016040526114259190810190612580565b5060405163632c704360e11b81526001600160a01b037f0000000000000000000000000000000000000000000000000000000000000000169063c658e0869061149f907f000000000000000000000000000000000000000000000000000000000000000090899089906000906367748580906004016124c7565b6020604051808303816000875af11580156114be573d6000803e3d6000fd5b505050506040513d601f19601f820116820180604052508101906114e291906124ae565b50600081815260056020526040908190208490555183906001600160a01b0386169083907f16e47d91af12d22c208b00439a2d1c80064353b5c41a5b3a21ab37b939c6334c90611533908a90612646565b60405180910390a45050505050565b60026040516115519190612659565b604051809103902084846040516115699291906120a8565b60405180910390201461158f57604051631403112d60e21b815260040160405180910390fd5b600061159d82840184611b4f565b6040805160008082526020820190925291925090816115cc565b60608152602001906001900390816115b75790505b5090507fdd007bd789f73e08c2714644c55b11c7d202931d717def434e3c9caa12a9f58382036116215760008080611606868801886126cf565b93509350935050611619838383876111d9565b505050610475565b7f9599d5e4e43121196cadfeaea326e46f58d9db74299decfd64bd3b700350ccd9820361047557600080808061165987890189612730565b94509450945094505061166e833086886111d9565b610df18383836116be565b60008082516041036116af5760208301516040840151606085015160001a6116a387828585611a8b565b945094505050506116b7565b506000905060025b9250929050565b60007f00000000000000000000000000000000000000000000000000000000000000008480519060200120604051602001611703929190918252602082015260400190565b60408051808303601f190181529082905280516020909101207f6352211e0000000000000000000000000000000000000000000000000000000082526004820181905291506000907f00000000000000000000000000000000000000000000000000000000000000006001600160a01b031690636352211e90602401602060405180830381865afa15801561179c573d6000803e3d6000fd5b505050506040513d601f19601f820116820180604052508101906117c0919061208b565b60405163632c704360e11b81529091506001600160a01b037f0000000000000000000000000000000000000000000000000000000000000000169063c658e0869061183c907f000000000000000000000000000000000000000000000000000000000000000090899030906000906367748580906004016124c7565b6020604051808303816000875af115801561185b573d6000803e3d6000fd5b505050506040513d601f19601f8201168201806040525081019061187f91906124ae565b50604051630178b8bf60e01b8152600481018390526000907f00000000000000000000000000000000000000000000000000000000000000006001600160a01b031690630178b8bf90602401602060405180830381865afa1580156118e8573d6000803e3d6000fd5b505050506040513d601f19601f8201168201806040525081019061190c919061208b565b6040517f10f13a8c0000000000000000000000000000000000000000000000000000000081529091506001600160a01b038216906310f13a8c90611958908690899089906004016127cc565b600060405180830381600087803b15801561197257600080fd5b505af1158015611986573d6000803e3d6000fd5b505060405163632c704360e11b81526001600160a01b037f000000000000000000000000000000000000000000000000000000000000000016925063c658e0869150611a03907f0000000000000000000000000000000000000000000000000000000000000000908a9087906000906367748580906004016124c7565b6020604051808303816000875af1158015611a22573d6000803e3d6000fd5b505050506040513d601f19601f82011682018060405250810190611a4691906124ae565b50827ffad92409521bea1624b5499ab6e0c540abe18b2650b61b297c332686374f8e6c878787604051611a7b93929190612801565b60405180910390a2505050505050565b6000807f7fffffffffffffffffffffffffffffff5d576e7357a4501ddfe92f46681b20a0831115611ac25750600090506003611b46565b6040805160008082526020820180845289905260ff881692820192909252606081018690526080810185905260019060a0016020604051602081039080840390855afa158015611b16573d6000803e3d6000fd5b5050604051601f1901519150506001600160a01b038116611b3f57600060019250925050611b46565b9150600090505b94509492505050565b600060208284031215611b6157600080fd5b5035919050565b60008083601f840112611b7a57600080fd5b50813567ffffffffffffffff811115611b9257600080fd5b6020830191508360208285010111156116b757600080fd5b6001600160a01b0381168114611bbf57600080fd5b50565b60008060008060008060006080888a031215611bdd57600080fd5b873567ffffffffffffffff80821115611bf557600080fd5b611c018b838c01611b68565b909950975060208a01359150611c1682611baa565b90955060408901359080821115611c2c57600080fd5b818a0191508a601f830112611c4057600080fd5b813581811115611c4f57600080fd5b8b60208260051b8501011115611c6457600080fd5b6020830196508095505060608a0135915080821115611c8257600080fd5b50611c8f8a828b01611b68565b989b979a50959850939692959293505050565b60008060008060008060006080888a031215611cbd57600080fd5b87359650602088013567ffffffffffffffff80821115611cdc57600080fd5b611ce88b838c01611b68565b909850965060408a0135915080821115611d0157600080fd5b611d0d8b838c01611b68565b909650945060608a0135915080821115611c8257600080fd5b60008060008060408587031215611d3c57600080fd5b843567ffffffffffffffff80821115611d5457600080fd5b611d6088838901611b68565b90965094506020870135915080821115611d7957600080fd5b50611d8687828801611b68565b95989497509550505050565b634e487b7160e01b600052604160045260246000fd5b604051601f8201601f1916810167ffffffffffffffff81118282101715611dd157611dd1611d92565b604052919050565b600067ffffffffffffffff821115611df357611df3611d92565b50601f01601f191660200190565b6000611e14611e0f84611dd9565b611da8565b9050828152838383011115611e2857600080fd5b828260208301376000602084830101529392505050565b600082601f830112611e5057600080fd5b6111d283833560208501611e01565b600080600080600060608688031215611e7757600080fd5b853567ffffffffffffffff80821115611e8f57600080fd5b611e9b89838a01611e3f565b96506020880135915080821115611eb157600080fd5b611ebd89838a01611b68565b90965094506040880135915080821115611ed657600080fd5b50611ee388828901611b68565b969995985093965092949392505050565b81835281816020850137506000828201602090810191909152601f909101601f19169091010190565b606081526000611f31606083018789611ef4565b60206001600160a01b038716818501528382036040850152818583528183019050818660051b8401018760005b88811015611fce57858303601f190184528135368b9003601e19018112611f8457600080fd5b8a01858101903567ffffffffffffffff811115611fa057600080fd5b803603821315611faf57600080fd5b611fba858284611ef4565b958701959450505090840190600101611f5e565b50909b9a5050505050505050505050565b600067ffffffffffffffff821115611ff957611ff9611d92565b5060051b60200190565b6000612011611e0f84611fdf565b80848252602080830192508560051b85013681111561202f57600080fd5b855b8181101561207f57803567ffffffffffffffff8111156120515760008081fd5b870136601f8201126120635760008081fd5b612071368235868401611e01565b865250938201938201612031565b50919695505050505050565b60006020828403121561209d57600080fd5b815161104681611baa565b8183823760009101908152919050565b8681526080602082015260006120d2608083018789611ef4565b82810360408401526120e5818688611ef4565b915050826060830152979650505050505050565b60006020828403121561210b57600080fd5b8151801515811461104657600080fd5b858152608060208201526000612135608083018688611ef4565b6001600160a01b0394909416604083015250606001529392505050565b600181811c9082168061216657607f821691505b60208210810361218657634e487b7160e01b600052602260045260246000fd5b50919050565b6000815461219981612152565b8085526020600183811680156121b657600181146121d0576121fe565b60ff1985168884015283151560051b8801830195506121fe565b866000528260002060005b858110156121f65781548a82018601529083019084016121db565b890184019650505b505050505092915050565b60005b8381101561222457818101518382015260200161220c565b50506000910152565b60008151808452612245816020860160208601612209565b601f01601f19169290920160200192915050565b60006001600160a01b03808916835260a0602084015261227d60a08401888a611ef4565b838103604085015261228f818861218c565b905083810360608501526122a3818761222d565b925050808416608084015250979650505050505050565b6060815260006122ce606083018688611ef4565b82810360208401526122e0818661218c565b905082810360408401526122f4818561222d565b979650505050505050565b838152604060208201526000612319604083018486611ef4565b95945050505050565b6000612330611e0f84611dd9565b905082815283838301111561234457600080fd5b6111d2836020830184612209565b60006020828403121561236457600080fd5b815167ffffffffffffffff81111561237b57600080fd5b8201601f8101841361238c57600080fd5b61239b84825160208401612322565b949350505050565b86815285602082015260a0604082015260006123c260a083018761222d565b82810360608401526123d5818688611ef4565b905082810360808401526123e9818561222d565b9998505050505050505050565b634e487b7160e01b600052601160045260246000fd5b8082028115828204841417611049576110496123f6565b80820180821115611049576110496123f6565b634e487b7160e01b600052603260045260246000fd5b60008161245b5761245b6123f6565b506000190190565b634e487b7160e01b600052602160045260246000fd5b82815260406020820152600061239b604083018461222d565b600082516124a4818460208701612209565b9190910192915050565b6000602082840312156124c057600080fd5b5051919050565b85815260a0602082015260006124e060a083018761222d565b6001600160a01b039590951660408301525063ffffffff92909216606083015267ffffffffffffffff1660809091015292915050565b600060408201848352602060408185015281855180845260608601915060608160051b870101935082870160005b8281101561257257605f1988870301845261256086835161222d565b95509284019290840190600101612544565b509398975050505050505050565b6000602080838503121561259357600080fd5b825167ffffffffffffffff808211156125ab57600080fd5b818501915085601f8301126125bf57600080fd5b81516125cd611e0f82611fdf565b81815260059190911b830184019084810190888311156125ec57600080fd5b8585015b83811015612639578051858111156126085760008081fd5b8601603f81018b1361261a5760008081fd5b61262b8b8983015160408401612322565b8452509186019186016125f0565b5098975050505050505050565b6020815260006111d2602083018461222d565b600080835461266781612152565b6001828116801561267f5760018114612694576126c3565b60ff19841687528215158302870194506126c3565b8760005260208060002060005b858110156126ba5781548a8201529084019082016126a1565b50505082870194505b50929695505050505050565b600080600080608085870312156126e557600080fd5b84359350602085013567ffffffffffffffff81111561270357600080fd5b61270f87828801611e3f565b935050604085013561272081611baa565b9396929550929360600135925050565b600080600080600060a0868803121561274857600080fd5b8535945060208601359350604086013567ffffffffffffffff8082111561276e57600080fd5b61277a89838a01611e3f565b9450606088013591508082111561279057600080fd5b61279c89838a01611e3f565b935060808801359150808211156127b257600080fd5b506127bf88828901611e3f565b9150509295509295909350565b8381526060602082015260006127e5606083018561222d565b82810360408401526127f7818561222d565b9695505050505050565b606081526000612814606083018661222d565b8281036020840152612826818661222d565b905082810360408401526127f7818561222d56fea2646970667358221220b8c37993dece85082643ca5d55bf6a00acac68cb0745ed1113550db1394c1b9564736f6c63430008110033fa09792c7e511e28c04759f07bfa13349dfe86b3521af57d4d0779bc50f94b2fb0c33aaf22bba888eba653ddb29ef152a115d46cc338e4a2e54db6fcc0ee6562",
  "linkReferences": {},
  "deployedLinkReferences": {}
}