{
  "_format": "hh-sol-artifact-1",
  "contractName": "AxelarWhitelistRegistrarController",
  "sourceName": "contracts/ethregistrar/AxelarWhitelistRegistrarController.sol",
  "abi": [
    {
      "inputs": [
        {
          "internalType": "contract INameWrapper",
          "name": "_nameWrapper",
          "type": "address"
        },
        {
          "internalType": "address",
          "name": "_operator",
          "type": "address"
        }
      ],
      "stateMutability": "nonpayable",
      "type": "constructor"
    },
    {
      "inputs": [],
      "name": "InvalidOperatorSignature",
      "type": "error"
    },
    {
      "inputs": [],
      "name": "NotApprovedByGateway",
      "type": "error"
    },
    {
      "inputs": [],
      "name": "NotMainChain",
      "type": "error"
    },
    {
      "anonymous": false,
      "inputs": [
        {
          "indexed": true,
          "internalType": "bytes32",
          "name": "node",
          "type": "bytes32"
        },
        {
          "indexed": false,
          "internalType": "string",
          "name": "name",
          "type": "string"
        },
        {
          "indexed": false,
          "internalType": "string",
          "name": "key",
          "type": "string"
        },
        {
          "indexed": false,
          "internalType": "string",
          "name": "value",
          "type": "string"
        }
      ],
      "name": "BridgeSetText",
      "type": "event"
    },
    {
      "anonymous": false,
      "inputs": [
        {
          "indexed": true,
          "internalType": "bytes32",
          "name": "node",
          "type": "bytes32"
        },
        {
          "indexed": true,
          "internalType": "address",
          "name": "owner",
          "type": "address"
        },
        {
          "indexed": true,
          "internalType": "uint256",
          "name": "mainChain",
          "type": "uint256"
        },
        {
          "indexed": false,
          "internalType": "string",
          "name": "name",
          "type": "string"
        }
      ],
      "name": "Register",
      "type": "event"
    },
    {
      "inputs": [
        {
          "internalType": "string",
          "name": "name",
          "type": "string"
        },
        {
          "internalType": "string",
          "name": "destinationChain",
          "type": "string"
        }
      ],
      "name": "bridge",
      "outputs": [],
      "stateMutability": "payable",
      "type": "function"
    },
    {
      "inputs": [
        {
          "internalType": "string",
          "name": "name",
          "type": "string"
        },
        {
          "internalType": "string",
          "name": "key",
          "type": "string"
        },
        {
          "internalType": "string",
          "name": "destinationChain",
          "type": "string"
        }
      ],
      "name": "bridgeText",
      "outputs": [],
      "stateMutability": "payable",
      "type": "function"
    },
    {
      "inputs": [],
      "name": "defaultResolver",
      "outputs": [
        {
          "internalType": "address",
          "name": "",
          "type": "address"
        }
      ],
      "stateMutability": "view",
      "type": "function"
    },
    {
      "inputs": [],
      "name": "ens",
      "outputs": [
        {
          "internalType": "contract ENS",
          "name": "",
          "type": "address"
        }
      ],
      "stateMutability": "view",
      "type": "function"
    },
    {
      "inputs": [
        {
          "internalType": "bytes32",
          "name": "commandId",
          "type": "bytes32"
        },
        {
          "internalType": "string",
          "name": "sourceChain",
          "type": "string"
        },
        {
          "internalType": "string",
          "name": "sourceAddress",
          "type": "string"
        },
        {
          "internalType": "bytes",
          "name": "payload",
          "type": "bytes"
        }
      ],
      "name": "execute",
      "outputs": [],
      "stateMutability": "nonpayable",
      "type": "function"
    },
    {
      "inputs": [],
      "name": "gasService",
      "outputs": [
        {
          "internalType": "contract IAxelarGasService",
          "name": "",
          "type": "address"
        }
      ],
      "stateMutability": "view",
      "type": "function"
    },
    {
      "inputs": [],
      "name": "gateway",
      "outputs": [
        {
          "internalType": "contract IAxelarGateway",
          "name": "",
          "type": "address"
        }
      ],
      "stateMutability": "view",
      "type": "function"
    },
    {
      "inputs": [
        {
          "internalType": "bytes32",
          "name": "",
          "type": "bytes32"
        }
      ],
      "name": "mainChainMapping",
      "outputs": [
        {
          "internalType": "uint256",
          "name": "",
          "type": "uint256"
        }
      ],
      "stateMutability": "view",
      "type": "function"
    },
    {
      "inputs": [],
      "name": "nameWrapper",
      "outputs": [
        {
          "internalType": "contract INameWrapper",
          "name": "",
          "type": "address"
        }
      ],
      "stateMutability": "view",
      "type": "function"
    },
    {
      "inputs": [
        {
          "internalType": "address",
          "name": "",
          "type": "address"
        },
        {
          "internalType": "address",
          "name": "",
          "type": "address"
        },
        {
          "internalType": "uint256[]",
          "name": "",
          "type": "uint256[]"
        },
        {
          "internalType": "uint256[]",
          "name": "",
          "type": "uint256[]"
        },
        {
          "internalType": "bytes",
          "name": "",
          "type": "bytes"
        }
      ],
      "name": "onERC1155BatchReceived",
      "outputs": [
        {
          "internalType": "bytes4",
          "name": "",
          "type": "bytes4"
        }
      ],
      "stateMutability": "nonpayable",
      "type": "function"
    },
    {
      "inputs": [
        {
          "internalType": "address",
          "name": "",
          "type": "address"
        },
        {
          "internalType": "address",
          "name": "",
          "type": "address"
        },
        {
          "internalType": "uint256",
          "name": "",
          "type": "uint256"
        },
        {
          "internalType": "uint256",
          "name": "",
          "type": "uint256"
        },
        {
          "internalType": "bytes",
          "name": "",
          "type": "bytes"
        }
      ],
      "name": "onERC1155Received",
      "outputs": [
        {
          "internalType": "bytes4",
          "name": "",
          "type": "bytes4"
        }
      ],
      "stateMutability": "nonpayable",
      "type": "function"
    },
    {
      "inputs": [
        {
          "internalType": "address",
          "name": "",
          "type": "address"
        },
        {
          "internalType": "address",
          "name": "",
          "type": "address"
        },
        {
          "internalType": "uint256",
          "name": "",
          "type": "uint256"
        },
        {
          "internalType": "bytes",
          "name": "",
          "type": "bytes"
        }
      ],
      "name": "onERC721Received",
      "outputs": [
        {
          "internalType": "bytes4",
          "name": "",
          "type": "bytes4"
        }
      ],
      "stateMutability": "nonpayable",
      "type": "function"
    },
    {
      "inputs": [],
      "name": "operator",
      "outputs": [
        {
          "internalType": "address",
          "name": "",
          "type": "address"
        }
      ],
      "stateMutability": "view",
      "type": "function"
    },
    {
      "inputs": [
        {
          "internalType": "string",
          "name": "name",
          "type": "string"
        },
        {
          "internalType": "address",
          "name": "owner",
          "type": "address"
        },
        {
          "internalType": "bytes[]",
          "name": "data",
          "type": "bytes[]"
        },
        {
          "internalType": "bytes",
          "name": "operatorSignature",
          "type": "bytes"
        }
      ],
      "name": "register",
      "outputs": [],
      "stateMutability": "nonpayable",
      "type": "function"
    },
    {
      "inputs": [],
      "name": "rootNode",
      "outputs": [
        {
          "internalType": "bytes32",
          "name": "",
          "type": "bytes32"
        }
      ],
      "stateMutability": "view",
      "type": "function"
    },
    {
      "inputs": [
        {
          "internalType": "bytes4",
          "name": "interfaceId",
          "type": "bytes4"
        }
      ],
      "name": "supportsInterface",
      "outputs": [
        {
          "internalType": "bool",
          "name": "",
          "type": "bool"
        }
      ],
      "stateMutability": "view",
      "type": "function"
    },
    {
      "inputs": [],
      "name": "updateAxelarContract",
      "outputs": [],
      "stateMutability": "nonpayable",
      "type": "function"
    }
  ],
  "bytecode": "0x60e06040523480156200001157600080fd5b506040516200357638038062003576833981016040819052620000349162000664565b62000055306001600160a01b031660146200012b60201b62000fbb1760201c565b60029062000064908262000748565b50816001600160a01b0316633f15457f6040518163ffffffff1660e01b8152600401602060405180830381865afa158015620000a4573d6000803e3d6000fd5b505050506040513d601f19601f82011682018060405250810190620000ca919062000814565b6001600160a01b0390811660805282811660a0527f060f8fe03b5af1f50ede263fae5ba358bb2a34fcf734f4443444878e23386f7e60c052600080546001600160a01b03191691831691909117905562000123620002f0565b5050620008aa565b606060006200013c8360026200084a565b6200014990600262000864565b6001600160401b03811115620001635762000163620006a3565b6040519080825280601f01601f1916602001820160405280156200018e576020820181803683370190505b509050600360fc1b81600081518110620001ac57620001ac6200087a565b60200101906001600160f81b031916908160001a905350600f60fb1b81600181518110620001de57620001de6200087a565b60200101906001600160f81b031916908160001a9053506000620002048460026200084a565b6200021190600162000864565b90505b600181111562000293576f181899199a1a9b1b9c1cb0b131b232b360811b85600f16601081106200024957620002496200087a565b1a60f81b8282815181106200026257620002626200087a565b60200101906001600160f81b031916908160001a90535060049490941c936200028b8162000890565b905062000214565b508315620002e75760405162461bcd60e51b815260206004820181905260248201527f537472696e67733a20686578206c656e67746820696e73756666696369656e74604482015260640160405180910390fd5b90505b92915050565b608051604051630178b8bf60e01b81526000805160206200353683398151915260048201526001600160a01b0390911690630178b8bf90602401602060405180830381865afa15801562000348573d6000803e3d6000fd5b505050506040513d601f19601f820116820180604052508101906200036e919062000814565b604051631d9dabef60e11b81526000805160206200353683398151915260048201526001600160a01b039190911690633b3b57de90602401602060405180830381865afa158015620003c4573d6000803e3d6000fd5b505050506040513d601f19601f82011682018060405250810190620003ea919062000814565b600380546001600160a01b0319166001600160a01b03928316179055608051604051630178b8bf60e01b81527fb0a0bca92b007f6cb95f1e2d3a7998525aab6b250892d4b46aada869eb80a3216004820152911690630178b8bf90602401602060405180830381865afa15801562000466573d6000803e3d6000fd5b505050506040513d601f19601f820116820180604052508101906200048c919062000814565b604051631d9dabef60e11b81527fb0a0bca92b007f6cb95f1e2d3a7998525aab6b250892d4b46aada869eb80a32160048201526001600160a01b039190911690633b3b57de90602401602060405180830381865afa158015620004f3573d6000803e3d6000fd5b505050506040513d601f19601f8201168201806040525081019062000519919062000814565b600480546001600160a01b0319166001600160a01b03928316178155608051604051630178b8bf60e01b8152600080516020620035568339815191529281019290925290911690630178b8bf90602401602060405180830381865afa15801562000587573d6000803e3d6000fd5b505050506040513d601f19601f82011682018060405250810190620005ad919062000814565b604051631d9dabef60e11b81526000805160206200355683398151915260048201526001600160a01b039190911690633b3b57de90602401602060405180830381865afa15801562000603573d6000803e3d6000fd5b505050506040513d601f19601f8201168201806040525081019062000629919062000814565b600180546001600160a01b0319166001600160a01b0392909216919091179055565b6001600160a01b03811681146200066157600080fd5b50565b600080604083850312156200067857600080fd5b825162000685816200064b565b602084015190925062000698816200064b565b809150509250929050565b634e487b7160e01b600052604160045260246000fd5b600181811c90821680620006ce57607f821691505b602082108103620006ef57634e487b7160e01b600052602260045260246000fd5b50919050565b601f8211156200074357600081815260208120601f850160051c810160208610156200071e5750805b601f850160051c820191505b818110156200073f578281556001016200072a565b5050505b505050565b81516001600160401b03811115620007645762000764620006a3565b6200077c81620007758454620006b9565b84620006f5565b602080601f831160018114620007b457600084156200079b5750858301515b600019600386901b1c1916600185901b1785556200073f565b600085815260208120601f198616915b82811015620007e557888601518255948401946001909101908401620007c4565b5085821015620008045787850151600019600388901b60f8161c191681555b5050505050600190811b01905550565b6000602082840312156200082757600080fd5b8151620002e7816200064b565b634e487b7160e01b600052601160045260246000fd5b8082028115828204841417620002ea57620002ea62000834565b80820180821115620002ea57620002ea62000834565b634e487b7160e01b600052603260045260246000fd5b600081620008a257620008a262000834565b506000190190565b60805160a05160c051612bd76200095f600039600081816103f901528181610b2601528181610cce0152818161137d0152818161141a0152818161160a01528181611862015281816119a70152611b6e01526000818161033b015281816113ed015281816114d5015281816115dd015281816118ed0152818161197a0152611b3f01526000818161026101528181610670015281816107cb0152818161092201528181610d880152611a390152612bd76000f3fe60806040526004361061010e5760003560e01c8063570ca735116100a55780638972186911610074578063bc197c8111610059578063bc197c811461035d578063f23a6e61146103a2578063faff50a8146103e757600080fd5b80638972186914610316578063a8e5fbc01461032957600080fd5b8063570ca735146102a35780636a22d8cc146102c35780637158212a146102e3578063828eab0e146102f657600080fd5b80631944a0cf116100e15780631944a0cf146102185780631dde4a5a1461023a5780633f15457f1461024f578063491606581461028357600080fd5b806301ffc9a714610113578063079e3f7114610148578063116191b614610183578063150b7a02146101bb575b600080fd5b34801561011f57600080fd5b5061013361012e366004611cef565b61041b565b60405190151581526020015b60405180910390f35b34801561015457600080fd5b50610175610163366004611d19565b60056020526000908152604090205481565b60405190815260200161013f565b34801561018f57600080fd5b506003546101a3906001600160a01b031681565b6040516001600160a01b03909116815260200161013f565b3480156101c757600080fd5b506101ff6101d6366004611e0f565b7f150b7a0200000000000000000000000000000000000000000000000000000000949350505050565b6040516001600160e01b0319909116815260200161013f565b34801561022457600080fd5b50610238610233366004611ebd565b610484565b005b34801561024657600080fd5b5061023861063b565b34801561025b57600080fd5b506101a37f000000000000000000000000000000000000000000000000000000000000000081565b34801561028f57600080fd5b5061023861029e366004611f9d565b610a48565b3480156102af57600080fd5b506000546101a3906001600160a01b031681565b3480156102cf57600080fd5b506004546101a3906001600160a01b031681565b6102386102f1366004612021565b610b22565b34801561030257600080fd5b506001546101a3906001600160a01b031681565b61023861032436600461208d565b610cca565b34801561033557600080fd5b506101a37f000000000000000000000000000000000000000000000000000000000000000081565b34801561036957600080fd5b506101ff6103783660046121ac565b7fbc197c810000000000000000000000000000000000000000000000000000000095945050505050565b3480156103ae57600080fd5b506101ff6103bd36600461225a565b7ff23a6e610000000000000000000000000000000000000000000000000000000095945050505050565b3480156103f357600080fd5b506101757f000000000000000000000000000000000000000000000000000000000000000081565b60006001600160e01b031982167f4e2312e000000000000000000000000000000000000000000000000000000000148061047e57507f01ffc9a7000000000000000000000000000000000000000000000000000000006001600160e01b03198316145b92915050565b6000878787878760405160200161049f9594939291906122ec565b60408051808303601f19018152908290528051602091820120600080547f19000000000000000000000000000000000000000000000000000000000000009385019390935260218401527fffffffffffffffffffffffffffffffffffffffff0000000000000000000000003060601b1660228401524660368401527fdd007bd789f73e08c2714644c55b11c7d202931d717def434e3c9caa12a9f58360568401526076830181905292506105ae916001600160a01b03909116906096016040516020818303038152906040528051906020012085858080601f01602080910402602001604051908101604052809392919081815260200183838082843760009201919091525061120992505050565b6105e4576040517f4c2d491200000000000000000000000000000000000000000000000000000000815260040160405180910390fd5b61063188888080601f0160208091040260200160405190810160405280939291908181526020018383808284376000920191909152508a925046915061062c9050888a6123ae565b611379565b5050505050505050565b604051630178b8bf60e01b81527ffa09792c7e511e28c04759f07bfa13349dfe86b3521af57d4d0779bc50f94b2f60048201527f00000000000000000000000000000000000000000000000000000000000000006001600160a01b031690630178b8bf90602401602060405180830381865afa1580156106bf573d6000803e3d6000fd5b505050506040513d601f19601f820116820180604052508101906106e39190612422565b604051631d9dabef60e11b81527ffa09792c7e511e28c04759f07bfa13349dfe86b3521af57d4d0779bc50f94b2f60048201526001600160a01b039190911690633b3b57de90602401602060405180830381865afa158015610749573d6000803e3d6000fd5b505050506040513d601f19601f8201168201806040525081019061076d9190612422565b6003805473ffffffffffffffffffffffffffffffffffffffff19166001600160a01b03928316179055604051630178b8bf60e01b81527fb0a0bca92b007f6cb95f1e2d3a7998525aab6b250892d4b46aada869eb80a32160048201527f000000000000000000000000000000000000000000000000000000000000000090911690630178b8bf90602401602060405180830381865afa158015610814573d6000803e3d6000fd5b505050506040513d601f19601f820116820180604052508101906108389190612422565b604051631d9dabef60e11b81527fb0a0bca92b007f6cb95f1e2d3a7998525aab6b250892d4b46aada869eb80a32160048201526001600160a01b039190911690633b3b57de90602401602060405180830381865afa15801561089e573d6000803e3d6000fd5b505050506040513d601f19601f820116820180604052508101906108c29190612422565b6004805473ffffffffffffffffffffffffffffffffffffffff19166001600160a01b03928316178155604051630178b8bf60e01b81527fb0c33aaf22bba888eba653ddb29ef152a115d46cc338e4a2e54db6fcc0ee6562918101919091527f000000000000000000000000000000000000000000000000000000000000000090911690630178b8bf90602401602060405180830381865afa15801561096b573d6000803e3d6000fd5b505050506040513d601f19601f8201168201806040525081019061098f9190612422565b604051631d9dabef60e11b81527fb0c33aaf22bba888eba653ddb29ef152a115d46cc338e4a2e54db6fcc0ee656260048201526001600160a01b039190911690633b3b57de90602401602060405180830381865afa1580156109f5573d6000803e3d6000fd5b505050506040513d601f19601f82011682018060405250810190610a199190612422565b6001805473ffffffffffffffffffffffffffffffffffffffff19166001600160a01b0392909216919091179055565b60008282604051610a5a92919061243f565b6040519081900381206003547f5f6970c30000000000000000000000000000000000000000000000000000000083529092506001600160a01b031690635f6970c390610ab4908b908b908b908b908b90899060040161244f565b6020604051808303816000875af1158015610ad3573d6000803e3d6000fd5b505050506040513d601f19601f82011682018060405250810190610af79190612490565b610b1457604051631403112d60e21b815260040160405180910390fd5b6106318787878787876116e2565b60007f00000000000000000000000000000000000000000000000000000000000000008585604051610b5592919061243f565b604051908190038120610b749291602001918252602082015260400190565b60408051601f198184030181528282528051602091820120600081815260058352928320549094509192610bd2927fdd007bd789f73e08c2714644c55b11c7d202931d717def434e3c9caa12a9f583928a928a9230929091016124b2565b60408051601f1981840301815291905290503415610c595760048054604051630c93e3bb60e01b81526001600160a01b0390911691630c93e3bb913491610c269130918a918a916002918a913391016125f0565b6000604051808303818588803b158015610c3f57600080fd5b505af1158015610c53573d6000803e3d6000fd5b50505050505b600354604051631c92115f60e01b81526001600160a01b0390911690631c92115f90610c9090879087906002908790600401612651565b600060405180830381600087803b158015610caa57600080fd5b505af1158015610cbe573d6000803e3d6000fd5b50505050505050505050565b60007f00000000000000000000000000000000000000000000000000000000000000008680519060200120604051602001610d0f929190918252602082015260400190565b60408051601f198184030181529181528151602092830120600081815260059093529120549091504614610d6f576040517f60dee01500000000000000000000000000000000000000000000000000000000815260040160405180910390fd5b604051630178b8bf60e01b8152600481018290526000907f00000000000000000000000000000000000000000000000000000000000000006001600160a01b031690630178b8bf90602401602060405180830381865afa158015610dd7573d6000803e3d6000fd5b505050506040513d601f19601f82011682018060405250810190610dfb9190612422565b905060007f9599d5e4e43121196cadfeaea326e46f58d9db74299decfd64bd3b700350ccd96005600085815260200190815260200160002054898989866001600160a01b03166359d1d43c898e8e6040518463ffffffff1660e01b8152600401610e6793929190612696565b600060405180830381865afa158015610e84573d6000803e3d6000fd5b505050506040513d6000823e601f3d908101601f19168201604052610eac91908101906126e9565b604051602001610ec19695949392919061273a565b60408051601f1981840301815291905290503415610f485760048054604051630c93e3bb60e01b81526001600160a01b0390911691630c93e3bb913491610f159130918b918b916002918a913391016125f0565b6000604051808303818588803b158015610f2e57600080fd5b505af1158015610f42573d6000803e3d6000fd5b50505050505b600354604051631c92115f60e01b81526001600160a01b0390911690631c92115f90610f7f90889088906002908790600401612651565b600060405180830381600087803b158015610f9957600080fd5b505af1158015610fad573d6000803e3d6000fd5b505050505050505050505050565b60606000610fca8360026127a3565b610fd59060026127ba565b67ffffffffffffffff811115610fed57610fed611d4a565b6040519080825280601f01601f191660200182016040528015611017576020820181803683370190505b5090507f30000000000000000000000000000000000000000000000000000000000000008160008151811061104e5761104e6127cd565b60200101907effffffffffffffffffffffffffffffffffffffffffffffffffffffffffffff1916908160001a9053507f7800000000000000000000000000000000000000000000000000000000000000816001815181106110b1576110b16127cd565b60200101907effffffffffffffffffffffffffffffffffffffffffffffffffffffffffffff1916908160001a90535060006110ed8460026127a3565b6110f89060016127ba565b90505b6001811115611195577f303132333435363738396162636465660000000000000000000000000000000085600f1660108110611139576111396127cd565b1a60f81b82828151811061114f5761114f6127cd565b60200101907effffffffffffffffffffffffffffffffffffffffffffffffffffffffffffff1916908160001a90535060049490941c9361118e816127e3565b90506110fb565b508315611202576040517f08c379a000000000000000000000000000000000000000000000000000000000815260206004820181905260248201527f537472696e67733a20686578206c656e67746820696e73756666696369656e74604482015260640160405180910390fd5b9392505050565b60008060006112188585611819565b90925090506000816004811115611231576112316127fa565b14801561124f5750856001600160a01b0316826001600160a01b0316145b1561125f57600192505050611202565b600080876001600160a01b0316631626ba7e60e01b8888604051602401611287929190612810565b60408051601f198184030181529181526020820180517bffffffffffffffffffffffffffffffffffffffffffffffffffffffff166001600160e01b03199094169390931790925290516112da9190612829565b600060405180830381855afa9150503d8060008114611315576040519150601f19603f3d011682016040523d82523d6000602084013e61131a565b606091505b509150915081801561132d575080516020145b801561136d575080517f1626ba7e000000000000000000000000000000000000000000000000000000009061136b9083016020908101908401612845565b145b98975050505050505050565b60007f000000000000000000000000000000000000000000000000000000000000000085805190602001206040516020016113be929190918252602082015260400190565b60408051601f1981840301815290829052805160209091012063632c704360e11b825291506001600160a01b037f0000000000000000000000000000000000000000000000000000000000000000169063c658e0869061144f907f0000000000000000000000000000000000000000000000000000000000000000908990309060009063677485809060040161285e565b6020604051808303816000875af115801561146e573d6000803e3d6000fd5b505050506040513d601f19601f820116820180604052508101906114929190612845565b506001546040517f1896f70a000000000000000000000000000000000000000000000000000000008152600481018390526001600160a01b0391821660248201527f000000000000000000000000000000000000000000000000000000000000000090911690631896f70a90604401600060405180830381600087803b15801561151b57600080fd5b505af115801561152f573d6000803e3d6000fd5b50506001546040517fe32954eb0000000000000000000000000000000000000000000000000000000081526001600160a01b03909116925063e32954eb915061157e90849086906004016128ad565b6000604051808303816000875af115801561159d573d6000803e3d6000fd5b505050506040513d6000823e601f3d908101601f191682016040526115c59190810190612917565b5060405163632c704360e11b81526001600160a01b037f0000000000000000000000000000000000000000000000000000000000000000169063c658e0869061163f907f0000000000000000000000000000000000000000000000000000000000000000908990899060009063677485809060040161285e565b6020604051808303816000875af115801561165e573d6000803e3d6000fd5b505050506040513d601f19601f820116820180604052508101906116829190612845565b50600081815260056020526040908190208490555183906001600160a01b0386169083907f16e47d91af12d22c208b00439a2d1c80064353b5c41a5b3a21ab37b939c6334c906116d3908a906129dd565b60405180910390a45050505050565b60026040516116f191906129f0565b6040518091039020848460405161170992919061243f565b60405180910390201461172f57604051631403112d60e21b815260040160405180910390fd5b600061173d82840184611d19565b60408051600080825260208201909252919250908161176c565b60608152602001906001900390816117575790505b5090507fdd007bd789f73e08c2714644c55b11c7d202931d717def434e3c9caa12a9f58382036117c157600080806117a686880188612a66565b935093509350506117b983838387611379565b505050610631565b7f9599d5e4e43121196cadfeaea326e46f58d9db74299decfd64bd3b700350ccd982036106315760008080806117f987890189612ac7565b94509450945094505061180e83308688611379565b610fad83838361185e565b600080825160410361184f5760208301516040840151606085015160001a61184387828585611c2b565b94509450505050611857565b506000905060025b9250929050565b60007f000000000000000000000000000000000000000000000000000000000000000084805190602001206040516020016118a3929190918252602082015260400190565b60408051808303601f190181529082905280516020909101207f6352211e0000000000000000000000000000000000000000000000000000000082526004820181905291506000907f00000000000000000000000000000000000000000000000000000000000000006001600160a01b031690636352211e90602401602060405180830381865afa15801561193c573d6000803e3d6000fd5b505050506040513d601f19601f820116820180604052508101906119609190612422565b60405163632c704360e11b81529091506001600160a01b037f0000000000000000000000000000000000000000000000000000000000000000169063c658e086906119dc907f0000000000000000000000000000000000000000000000000000000000000000908990309060009063677485809060040161285e565b6020604051808303816000875af11580156119fb573d6000803e3d6000fd5b505050506040513d601f19601f82011682018060405250810190611a1f9190612845565b50604051630178b8bf60e01b8152600481018390526000907f00000000000000000000000000000000000000000000000000000000000000006001600160a01b031690630178b8bf90602401602060405180830381865afa158015611a88573d6000803e3d6000fd5b505050506040513d601f19601f82011682018060405250810190611aac9190612422565b6040517f10f13a8c0000000000000000000000000000000000000000000000000000000081529091506001600160a01b038216906310f13a8c90611af890869089908990600401612b33565b600060405180830381600087803b158015611b1257600080fd5b505af1158015611b26573d6000803e3d6000fd5b505060405163632c704360e11b81526001600160a01b037f000000000000000000000000000000000000000000000000000000000000000016925063c658e0869150611ba3907f0000000000000000000000000000000000000000000000000000000000000000908a90879060009063677485809060040161285e565b6020604051808303816000875af1158015611bc2573d6000803e3d6000fd5b505050506040513d601f19601f82011682018060405250810190611be69190612845565b50827ffad92409521bea1624b5499ab6e0c540abe18b2650b61b297c332686374f8e6c878787604051611c1b93929190612b68565b60405180910390a2505050505050565b6000807f7fffffffffffffffffffffffffffffff5d576e7357a4501ddfe92f46681b20a0831115611c625750600090506003611ce6565b6040805160008082526020820180845289905260ff881692820192909252606081018690526080810185905260019060a0016020604051602081039080840390855afa158015611cb6573d6000803e3d6000fd5b5050604051601f1901519150506001600160a01b038116611cdf57600060019250925050611ce6565b9150600090505b94509492505050565b600060208284031215611d0157600080fd5b81356001600160e01b03198116811461120257600080fd5b600060208284031215611d2b57600080fd5b5035919050565b6001600160a01b0381168114611d4757600080fd5b50565b634e487b7160e01b600052604160045260246000fd5b604051601f8201601f1916810167ffffffffffffffff81118282101715611d8957611d89611d4a565b604052919050565b600067ffffffffffffffff821115611dab57611dab611d4a565b50601f01601f191660200190565b600082601f830112611dca57600080fd5b8135611ddd611dd882611d91565b611d60565b818152846020838601011115611df257600080fd5b816020850160208301376000918101602001919091529392505050565b60008060008060808587031215611e2557600080fd5b8435611e3081611d32565b93506020850135611e4081611d32565b925060408501359150606085013567ffffffffffffffff811115611e6357600080fd5b611e6f87828801611db9565b91505092959194509250565b60008083601f840112611e8d57600080fd5b50813567ffffffffffffffff811115611ea557600080fd5b60208301915083602082850101111561185757600080fd5b60008060008060008060006080888a031215611ed857600080fd5b873567ffffffffffffffff80821115611ef057600080fd5b611efc8b838c01611e7b565b909950975060208a01359150611f1182611d32565b90955060408901359080821115611f2757600080fd5b818a0191508a601f830112611f3b57600080fd5b813581811115611f4a57600080fd5b8b60208260051b8501011115611f5f57600080fd5b6020830196508095505060608a0135915080821115611f7d57600080fd5b50611f8a8a828b01611e7b565b989b979a50959850939692959293505050565b60008060008060008060006080888a031215611fb857600080fd5b87359650602088013567ffffffffffffffff80821115611fd757600080fd5b611fe38b838c01611e7b565b909850965060408a0135915080821115611ffc57600080fd5b6120088b838c01611e7b565b909650945060608a0135915080821115611f7d57600080fd5b6000806000806040858703121561203757600080fd5b843567ffffffffffffffff8082111561204f57600080fd5b61205b88838901611e7b565b9096509450602087013591508082111561207457600080fd5b5061208187828801611e7b565b95989497509550505050565b6000806000806000606086880312156120a557600080fd5b853567ffffffffffffffff808211156120bd57600080fd5b6120c989838a01611db9565b965060208801359150808211156120df57600080fd5b6120eb89838a01611e7b565b9096509450604088013591508082111561210457600080fd5b5061211188828901611e7b565b969995985093965092949392505050565b600067ffffffffffffffff82111561213c5761213c611d4a565b5060051b60200190565b600082601f83011261215757600080fd5b81356020612167611dd883612122565b82815260059290921b8401810191818101908684111561218657600080fd5b8286015b848110156121a1578035835291830191830161218a565b509695505050505050565b600080600080600060a086880312156121c457600080fd5b85356121cf81611d32565b945060208601356121df81611d32565b9350604086013567ffffffffffffffff808211156121fc57600080fd5b61220889838a01612146565b9450606088013591508082111561221e57600080fd5b61222a89838a01612146565b9350608088013591508082111561224057600080fd5b5061224d88828901611db9565b9150509295509295909350565b600080600080600060a0868803121561227257600080fd5b853561227d81611d32565b9450602086013561228d81611d32565b93506040860135925060608601359150608086013567ffffffffffffffff8111156122b757600080fd5b61224d88828901611db9565b81835281816020850137506000828201602090810191909152601f909101601f19169091010190565b6060815260006123006060830187896122c3565b60206001600160a01b038716818501528382036040850152818583528183019050818660051b8401018760005b8881101561239d57858303601f190184528135368b9003601e1901811261235357600080fd5b8a01858101903567ffffffffffffffff81111561236f57600080fd5b80360382131561237e57600080fd5b6123898582846122c3565b95870195945050509084019060010161232d565b50909b9a5050505050505050505050565b60006123bc611dd884612122565b80848252602080830192508560051b8501368111156123da57600080fd5b855b8181101561241657803567ffffffffffffffff8111156123fc5760008081fd5b61240836828a01611db9565b8652509382019382016123dc565b50919695505050505050565b60006020828403121561243457600080fd5b815161120281611d32565b8183823760009101908152919050565b8681526080602082015260006124696080830187896122c3565b828103604084015261247c8186886122c3565b915050826060830152979650505050505050565b6000602082840312156124a257600080fd5b8151801515811461120257600080fd5b8581526080602082015260006124cc6080830186886122c3565b6001600160a01b0394909416604083015250606001529392505050565b600181811c908216806124fd57607f821691505b60208210810361251d57634e487b7160e01b600052602260045260246000fd5b50919050565b60008154612530816124e9565b80855260206001838116801561254d576001811461256757612595565b60ff1985168884015283151560051b880183019550612595565b866000528260002060005b8581101561258d5781548a8201860152908301908401612572565b890184019650505b505050505092915050565b60005b838110156125bb5781810151838201526020016125a3565b50506000910152565b600081518084526125dc8160208601602086016125a0565b601f01601f19169290920160200192915050565b60006001600160a01b03808916835260a0602084015261261460a08401888a6122c3565b83810360408501526126268188612523565b9050838103606085015261263a81876125c4565b925050808416608084015250979650505050505050565b6060815260006126656060830186886122c3565b82810360208401526126778186612523565b9050828103604084015261268b81856125c4565b979650505050505050565b8381526040602082015260006126b06040830184866122c3565b95945050505050565b60006126c7611dd884611d91565b90508281528383830111156126db57600080fd5b6112028360208301846125a0565b6000602082840312156126fb57600080fd5b815167ffffffffffffffff81111561271257600080fd5b8201601f8101841361272357600080fd5b612732848251602084016126b9565b949350505050565b86815285602082015260a06040820152600061275960a08301876125c4565b828103606084015261276c8186886122c3565b9050828103608084015261278081856125c4565b9998505050505050505050565b634e487b7160e01b600052601160045260246000fd5b808202811582820484141761047e5761047e61278d565b8082018082111561047e5761047e61278d565b634e487b7160e01b600052603260045260246000fd5b6000816127f2576127f261278d565b506000190190565b634e487b7160e01b600052602160045260246000fd5b82815260406020820152600061273260408301846125c4565b6000825161283b8184602087016125a0565b9190910192915050565b60006020828403121561285757600080fd5b5051919050565b85815260a06020820152600061287760a08301876125c4565b6001600160a01b039590951660408301525063ffffffff92909216606083015267ffffffffffffffff1660809091015292915050565b600060408201848352602060408185015281855180845260608601915060608160051b870101935082870160005b8281101561290957605f198887030184526128f78683516125c4565b955092840192908401906001016128db565b509398975050505050505050565b6000602080838503121561292a57600080fd5b825167ffffffffffffffff8082111561294257600080fd5b818501915085601f83011261295657600080fd5b8151612964611dd882612122565b81815260059190911b8301840190848101908883111561298357600080fd5b8585015b838110156129d05780518581111561299f5760008081fd5b8601603f81018b136129b15760008081fd5b6129c28b89830151604084016126b9565b845250918601918601612987565b5098975050505050505050565b60208152600061120260208301846125c4565b60008083546129fe816124e9565b60018281168015612a165760018114612a2b57612a5a565b60ff1984168752821515830287019450612a5a565b8760005260208060002060005b85811015612a515781548a820152908401908201612a38565b50505082870194505b50929695505050505050565b60008060008060808587031215612a7c57600080fd5b84359350602085013567ffffffffffffffff811115612a9a57600080fd5b612aa687828801611db9565b9350506040850135612ab781611d32565b9396929550929360600135925050565b600080600080600060a08688031215612adf57600080fd5b8535945060208601359350604086013567ffffffffffffffff80821115612b0557600080fd5b612b1189838a01611db9565b94506060880135915080821115612b2757600080fd5b61222a89838a01611db9565b838152606060208201526000612b4c60608301856125c4565b8281036040840152612b5e81856125c4565b9695505050505050565b606081526000612b7b60608301866125c4565b8281036020840152612b8d81866125c4565b90508281036040840152612b5e81856125c456fea26469706673582212208485f40f38bdfba455009ea61001e4c033a04747467019941c6799b99a1ebb2364736f6c63430008110033fa09792c7e511e28c04759f07bfa13349dfe86b3521af57d4d0779bc50f94b2fb0c33aaf22bba888eba653ddb29ef152a115d46cc338e4a2e54db6fcc0ee6562",
  "linkReferences": {},
  "deployedLinkReferences": {}
}