{
  "_format": "hh-sol-artifact-1",
  "contractName": "AxelarWhitelistRegistrarController",
  "sourceName": "contracts/ethregistrar/AxelarWhitelistRegistrarController.sol",
  "abi": [
    {
      "inputs": [
        {
          "internalType": "contract INameWrapper",
          "name": "_nameWrapper",
          "type": "address"
        },
        {
          "internalType": "address",
          "name": "_operator",
          "type": "address"
        }
      ],
      "stateMutability": "nonpayable",
      "type": "constructor"
    },
    {
      "inputs": [],
      "name": "InvalidAddressString",
      "type": "error"
    },
    {
      "inputs": [],
      "name": "InvalidOperatorSignature",
      "type": "error"
    },
    {
      "inputs": [],
      "name": "NotApprovedByGateway",
      "type": "error"
    },
    {
      "inputs": [],
      "name": "NotMainChain",
      "type": "error"
    },
    {
      "anonymous": false,
      "inputs": [
        {
          "indexed": true,
          "internalType": "bytes32",
          "name": "node",
          "type": "bytes32"
        },
        {
          "indexed": false,
          "internalType": "string",
          "name": "name",
          "type": "string"
        },
        {
          "indexed": false,
          "internalType": "string",
          "name": "key",
          "type": "string"
        },
        {
          "indexed": false,
          "internalType": "string",
          "name": "value",
          "type": "string"
        }
      ],
      "name": "BridgeSetText",
      "type": "event"
    },
    {
      "anonymous": false,
      "inputs": [
        {
          "indexed": true,
          "internalType": "bytes32",
          "name": "node",
          "type": "bytes32"
        },
        {
          "indexed": true,
          "internalType": "address",
          "name": "owner",
          "type": "address"
        },
        {
          "indexed": true,
          "internalType": "uint256",
          "name": "mainChain",
          "type": "uint256"
        },
        {
          "indexed": false,
          "internalType": "string",
          "name": "name",
          "type": "string"
        }
      ],
      "name": "Register",
      "type": "event"
    },
    {
      "inputs": [
        {
          "internalType": "string",
          "name": "name",
          "type": "string"
        },
        {
          "internalType": "string",
          "name": "destinationChain",
          "type": "string"
        }
      ],
      "name": "bridge",
      "outputs": [],
      "stateMutability": "payable",
      "type": "function"
    },
    {
      "inputs": [
        {
          "internalType": "string",
          "name": "name",
          "type": "string"
        },
        {
          "internalType": "string",
          "name": "key",
          "type": "string"
        },
        {
          "internalType": "string",
          "name": "destinationChain",
          "type": "string"
        }
      ],
      "name": "bridgeText",
      "outputs": [],
      "stateMutability": "payable",
      "type": "function"
    },
    {
      "inputs": [],
      "name": "defaultResolver",
      "outputs": [
        {
          "internalType": "address",
          "name": "",
          "type": "address"
        }
      ],
      "stateMutability": "view",
      "type": "function"
    },
    {
      "inputs": [],
      "name": "ens",
      "outputs": [
        {
          "internalType": "contract ENS",
          "name": "",
          "type": "address"
        }
      ],
      "stateMutability": "view",
      "type": "function"
    },
    {
      "inputs": [
        {
          "internalType": "bytes32",
          "name": "commandId",
          "type": "bytes32"
        },
        {
          "internalType": "string",
          "name": "sourceChain",
          "type": "string"
        },
        {
          "internalType": "string",
          "name": "sourceAddress",
          "type": "string"
        },
        {
          "internalType": "bytes",
          "name": "payload",
          "type": "bytes"
        }
      ],
      "name": "execute",
      "outputs": [],
      "stateMutability": "nonpayable",
      "type": "function"
    },
    {
      "inputs": [],
      "name": "gasService",
      "outputs": [
        {
          "internalType": "contract IAxelarGasService",
          "name": "",
          "type": "address"
        }
      ],
      "stateMutability": "view",
      "type": "function"
    },
    {
      "inputs": [],
      "name": "gateway",
      "outputs": [
        {
          "internalType": "contract IAxelarGateway",
          "name": "",
          "type": "address"
        }
      ],
      "stateMutability": "view",
      "type": "function"
    },
    {
      "inputs": [
        {
          "internalType": "bytes32",
          "name": "",
          "type": "bytes32"
        }
      ],
      "name": "mainChainMapping",
      "outputs": [
        {
          "internalType": "uint256",
          "name": "",
          "type": "uint256"
        }
      ],
      "stateMutability": "view",
      "type": "function"
    },
    {
      "inputs": [],
      "name": "nameWrapper",
      "outputs": [
        {
          "internalType": "contract INameWrapper",
          "name": "",
          "type": "address"
        }
      ],
      "stateMutability": "view",
      "type": "function"
    },
    {
      "inputs": [
        {
          "internalType": "address",
          "name": "",
          "type": "address"
        },
        {
          "internalType": "address",
          "name": "",
          "type": "address"
        },
        {
          "internalType": "uint256[]",
          "name": "",
          "type": "uint256[]"
        },
        {
          "internalType": "uint256[]",
          "name": "",
          "type": "uint256[]"
        },
        {
          "internalType": "bytes",
          "name": "",
          "type": "bytes"
        }
      ],
      "name": "onERC1155BatchReceived",
      "outputs": [
        {
          "internalType": "bytes4",
          "name": "",
          "type": "bytes4"
        }
      ],
      "stateMutability": "nonpayable",
      "type": "function"
    },
    {
      "inputs": [
        {
          "internalType": "address",
          "name": "",
          "type": "address"
        },
        {
          "internalType": "address",
          "name": "",
          "type": "address"
        },
        {
          "internalType": "uint256",
          "name": "",
          "type": "uint256"
        },
        {
          "internalType": "uint256",
          "name": "",
          "type": "uint256"
        },
        {
          "internalType": "bytes",
          "name": "",
          "type": "bytes"
        }
      ],
      "name": "onERC1155Received",
      "outputs": [
        {
          "internalType": "bytes4",
          "name": "",
          "type": "bytes4"
        }
      ],
      "stateMutability": "nonpayable",
      "type": "function"
    },
    {
      "inputs": [
        {
          "internalType": "address",
          "name": "",
          "type": "address"
        },
        {
          "internalType": "address",
          "name": "",
          "type": "address"
        },
        {
          "internalType": "uint256",
          "name": "",
          "type": "uint256"
        },
        {
          "internalType": "bytes",
          "name": "",
          "type": "bytes"
        }
      ],
      "name": "onERC721Received",
      "outputs": [
        {
          "internalType": "bytes4",
          "name": "",
          "type": "bytes4"
        }
      ],
      "stateMutability": "nonpayable",
      "type": "function"
    },
    {
      "inputs": [],
      "name": "operator",
      "outputs": [
        {
          "internalType": "address",
          "name": "",
          "type": "address"
        }
      ],
      "stateMutability": "view",
      "type": "function"
    },
    {
      "inputs": [
        {
          "internalType": "string",
          "name": "name",
          "type": "string"
        },
        {
          "internalType": "address",
          "name": "owner",
          "type": "address"
        },
        {
          "internalType": "bytes[]",
          "name": "data",
          "type": "bytes[]"
        },
        {
          "internalType": "bytes",
          "name": "operatorSignature",
          "type": "bytes"
        }
      ],
      "name": "register",
      "outputs": [],
      "stateMutability": "nonpayable",
      "type": "function"
    },
    {
      "inputs": [],
      "name": "rootNode",
      "outputs": [
        {
          "internalType": "bytes32",
          "name": "",
          "type": "bytes32"
        }
      ],
      "stateMutability": "view",
      "type": "function"
    },
    {
      "inputs": [
        {
          "internalType": "bytes4",
          "name": "interfaceId",
          "type": "bytes4"
        }
      ],
      "name": "supportsInterface",
      "outputs": [
        {
          "internalType": "bool",
          "name": "",
          "type": "bool"
        }
      ],
      "stateMutability": "view",
      "type": "function"
    },
    {
      "inputs": [],
      "name": "updateAxelarContract",
      "outputs": [],
      "stateMutability": "nonpayable",
      "type": "function"
    }
  ],
  "bytecode": "0x60e06040523480156200001157600080fd5b506040516200376f3803806200376f83398101604081905262000034916200070e565b62000053306001600160a01b03166200012960201b62000fa81760201c565b600290620000629082620007f2565b50816001600160a01b0316633f15457f6040518163ffffffff1660e01b8152600401602060405180830381865afa158015620000a2573d6000803e3d6000fd5b505050506040513d601f19601f82011682018060405250810190620000c89190620008be565b6001600160a01b0390811660805282811660a0527f060f8fe03b5af1f50ede263fae5ba358bb2a34fcf734f4443444878e23386f7e60c052600080546001600160a01b031916918316919091179055620001216200039a565b505062000963565b604051606082811b6001600160601b03191660208301529060009060340160408051601f198184030181528282528051838301909252601083526f181899199a1a9b1b9c1cb0b131b232b360811b6020840152805190935090919060009062000194906002620008fb565b620001a19060026200091b565b6001600160401b03811115620001bb57620001bb6200074d565b6040519080825280601f01601f191660200182016040528015620001e6576020820181803683370190505b509050600360fc1b8160008151811062000204576200020462000931565b60200101906001600160f81b031916908160001a905350600f60fb1b8160018151811062000236576200023662000931565b60200101906001600160f81b031916908160001a90535060005b83811015620003905782600486838151811062000271576200027162000931565b016020015182516001600160f81b031990911690911c60f81c9081106200029c576200029c62000931565b01602001516001600160f81b03191682620002b9836002620008fb565b620002c69060026200091b565b81518110620002d957620002d962000931565b60200101906001600160f81b031916908160001a9053508285828151811062000306576200030662000931565b602091010151815160f89190911c600f1690811062000329576200032962000931565b01602001516001600160f81b0319168262000346836002620008fb565b620003539060036200091b565b8151811062000366576200036662000931565b60200101906001600160f81b031916908160001a905350620003888162000947565b905062000250565b5095945050505050565b608051604051630178b8bf60e01b81526000805160206200372f83398151915260048201526001600160a01b0390911690630178b8bf90602401602060405180830381865afa158015620003f2573d6000803e3d6000fd5b505050506040513d601f19601f82011682018060405250810190620004189190620008be565b604051631d9dabef60e11b81526000805160206200372f83398151915260048201526001600160a01b039190911690633b3b57de90602401602060405180830381865afa1580156200046e573d6000803e3d6000fd5b505050506040513d601f19601f82011682018060405250810190620004949190620008be565b600380546001600160a01b0319166001600160a01b03928316179055608051604051630178b8bf60e01b81527fb0a0bca92b007f6cb95f1e2d3a7998525aab6b250892d4b46aada869eb80a3216004820152911690630178b8bf90602401602060405180830381865afa15801562000510573d6000803e3d6000fd5b505050506040513d601f19601f82011682018060405250810190620005369190620008be565b604051631d9dabef60e11b81527fb0a0bca92b007f6cb95f1e2d3a7998525aab6b250892d4b46aada869eb80a32160048201526001600160a01b039190911690633b3b57de90602401602060405180830381865afa1580156200059d573d6000803e3d6000fd5b505050506040513d601f19601f82011682018060405250810190620005c39190620008be565b600480546001600160a01b0319166001600160a01b03928316178155608051604051630178b8bf60e01b81526000805160206200374f8339815191529281019290925290911690630178b8bf90602401602060405180830381865afa15801562000631573d6000803e3d6000fd5b505050506040513d601f19601f82011682018060405250810190620006579190620008be565b604051631d9dabef60e11b81526000805160206200374f83398151915260048201526001600160a01b039190911690633b3b57de90602401602060405180830381865afa158015620006ad573d6000803e3d6000fd5b505050506040513d601f19601f82011682018060405250810190620006d39190620008be565b600180546001600160a01b0319166001600160a01b0392909216919091179055565b6001600160a01b03811681146200070b57600080fd5b50565b600080604083850312156200072257600080fd5b82516200072f81620006f5565b60208401519092506200074281620006f5565b809150509250929050565b634e487b7160e01b600052604160045260246000fd5b600181811c908216806200077857607f821691505b6020821081036200079957634e487b7160e01b600052602260045260246000fd5b50919050565b601f821115620007ed57600081815260208120601f850160051c81016020861015620007c85750805b601f850160051c820191505b81811015620007e957828155600101620007d4565b5050505b505050565b81516001600160401b038111156200080e576200080e6200074d565b62000826816200081f845462000763565b846200079f565b602080601f8311600181146200085e5760008415620008455750858301515b600019600386901b1c1916600185901b178555620007e9565b600085815260208120601f198616915b828110156200088f578886015182559484019460019091019084016200086e565b5085821015620008ae5787850151600019600388901b60f8161c191681555b5050505050600190811b01905550565b600060208284031215620008d157600080fd5b8151620008de81620006f5565b9392505050565b634e487b7160e01b600052601160045260246000fd5b8082028115828204841417620009155762000915620008e5565b92915050565b80820180821115620009155762000915620008e5565b634e487b7160e01b600052603260045260246000fd5b6000600182016200095c576200095c620008e5565b5060010190565b60805160a05160c051612d1762000a18600039600081816103f901528181610b1301528181610cbb015281816113760152818161141301528181611603015281816119fd01528181611b420152611d0901526000818161033b015281816113e6015281816114ce015281816115d601528181611a8801528181611b150152611cda0152600081816102610152818161065d015281816107b80152818161090f01528181610d750152611bd40152612d176000f3fe60806040526004361061010e5760003560e01c8063570ca735116100a55780638972186911610074578063bc197c8111610059578063bc197c811461035d578063f23a6e61146103a2578063faff50a8146103e757600080fd5b80638972186914610316578063a8e5fbc01461032957600080fd5b8063570ca735146102a35780636a22d8cc146102c35780637158212a146102e3578063828eab0e146102f657600080fd5b80631944a0cf116100e15780631944a0cf146102185780631dde4a5a1461023a5780633f15457f1461024f578063491606581461028357600080fd5b806301ffc9a714610113578063079e3f7114610148578063116191b614610183578063150b7a02146101bb575b600080fd5b34801561011f57600080fd5b5061013361012e366004611e8a565b61041b565b60405190151581526020015b60405180910390f35b34801561015457600080fd5b50610175610163366004611eb4565b60056020526000908152604090205481565b60405190815260200161013f565b34801561018f57600080fd5b506003546101a3906001600160a01b031681565b6040516001600160a01b03909116815260200161013f565b3480156101c757600080fd5b506101ff6101d6366004611faa565b7f150b7a0200000000000000000000000000000000000000000000000000000000949350505050565b6040516001600160e01b0319909116815260200161013f565b34801561022457600080fd5b50610238610233366004612058565b610484565b005b34801561024657600080fd5b50610238610628565b34801561025b57600080fd5b506101a37f000000000000000000000000000000000000000000000000000000000000000081565b34801561028f57600080fd5b5061023861029e366004612138565b610a35565b3480156102af57600080fd5b506000546101a3906001600160a01b031681565b3480156102cf57600080fd5b506004546101a3906001600160a01b031681565b6102386102f13660046121bc565b610b0f565b34801561030257600080fd5b506001546101a3906001600160a01b031681565b610238610324366004612228565b610cb7565b34801561033557600080fd5b506101a37f000000000000000000000000000000000000000000000000000000000000000081565b34801561036957600080fd5b506101ff610378366004612347565b7fbc197c810000000000000000000000000000000000000000000000000000000095945050505050565b3480156103ae57600080fd5b506101ff6103bd3660046123f5565b7ff23a6e610000000000000000000000000000000000000000000000000000000095945050505050565b3480156103f357600080fd5b506101757f000000000000000000000000000000000000000000000000000000000000000081565b60006001600160e01b031982167f4e2312e000000000000000000000000000000000000000000000000000000000148061047e57507f01ffc9a7000000000000000000000000000000000000000000000000000000006001600160e01b03198316145b92915050565b6000878787878760405160200161049f959493929190612487565b60408051808303601f19018152908290528051602091820120600080547f19000000000000000000000000000000000000000000000000000000000000009385019390935260218401526bffffffffffffffffffffffff193060601b1660228401524660368401527fdd007bd789f73e08c2714644c55b11c7d202931d717def434e3c9caa12a9f583605684015260768301819052925061059b916001600160a01b03909116906096016040516020818303038152906040528051906020012085858080601f01602080910402602001604051908101604052809392919081815260200183838082843760009201919091525061120092505050565b6105d1576040517f4c2d491200000000000000000000000000000000000000000000000000000000815260040160405180910390fd5b61061e88888080601f0160208091040260200160405190810160405280939291908181526020018383808284376000920191909152508a92504691506106199050888a612549565b611372565b5050505050505050565b604051630178b8bf60e01b81527ffa09792c7e511e28c04759f07bfa13349dfe86b3521af57d4d0779bc50f94b2f60048201527f00000000000000000000000000000000000000000000000000000000000000006001600160a01b031690630178b8bf90602401602060405180830381865afa1580156106ac573d6000803e3d6000fd5b505050506040513d601f19601f820116820180604052508101906106d091906125bd565b604051631d9dabef60e11b81527ffa09792c7e511e28c04759f07bfa13349dfe86b3521af57d4d0779bc50f94b2f60048201526001600160a01b039190911690633b3b57de90602401602060405180830381865afa158015610736573d6000803e3d6000fd5b505050506040513d601f19601f8201168201806040525081019061075a91906125bd565b6003805473ffffffffffffffffffffffffffffffffffffffff19166001600160a01b03928316179055604051630178b8bf60e01b81527fb0a0bca92b007f6cb95f1e2d3a7998525aab6b250892d4b46aada869eb80a32160048201527f000000000000000000000000000000000000000000000000000000000000000090911690630178b8bf90602401602060405180830381865afa158015610801573d6000803e3d6000fd5b505050506040513d601f19601f8201168201806040525081019061082591906125bd565b604051631d9dabef60e11b81527fb0a0bca92b007f6cb95f1e2d3a7998525aab6b250892d4b46aada869eb80a32160048201526001600160a01b039190911690633b3b57de90602401602060405180830381865afa15801561088b573d6000803e3d6000fd5b505050506040513d601f19601f820116820180604052508101906108af91906125bd565b6004805473ffffffffffffffffffffffffffffffffffffffff19166001600160a01b03928316178155604051630178b8bf60e01b81527fb0c33aaf22bba888eba653ddb29ef152a115d46cc338e4a2e54db6fcc0ee6562918101919091527f000000000000000000000000000000000000000000000000000000000000000090911690630178b8bf90602401602060405180830381865afa158015610958573d6000803e3d6000fd5b505050506040513d601f19601f8201168201806040525081019061097c91906125bd565b604051631d9dabef60e11b81527fb0c33aaf22bba888eba653ddb29ef152a115d46cc338e4a2e54db6fcc0ee656260048201526001600160a01b039190911690633b3b57de90602401602060405180830381865afa1580156109e2573d6000803e3d6000fd5b505050506040513d601f19601f82011682018060405250810190610a0691906125bd565b6001805473ffffffffffffffffffffffffffffffffffffffff19166001600160a01b0392909216919091179055565b60008282604051610a479291906125da565b6040519081900381206003547f5f6970c30000000000000000000000000000000000000000000000000000000083529092506001600160a01b031690635f6970c390610aa1908b908b908b908b908b9089906004016125ea565b6020604051808303816000875af1158015610ac0573d6000803e3d6000fd5b505050506040513d601f19601f82011682018060405250810190610ae4919061262b565b610b0157604051631403112d60e21b815260040160405180910390fd5b61061e8787878787876116db565b60007f00000000000000000000000000000000000000000000000000000000000000008585604051610b429291906125da565b604051908190038120610b619291602001918252602082015260400190565b60408051601f198184030181528282528051602091820120600081815260058352928320549094509192610bbf927fdd007bd789f73e08c2714644c55b11c7d202931d717def434e3c9caa12a9f583928a928a92309290910161264d565b60408051601f1981840301815291905290503415610c465760048054604051630c93e3bb60e01b81526001600160a01b0390911691630c93e3bb913491610c139130918a918a916002918a91339101612778565b6000604051808303818588803b158015610c2c57600080fd5b505af1158015610c40573d6000803e3d6000fd5b50505050505b600354604051631c92115f60e01b81526001600160a01b0390911690631c92115f90610c7d908790879060029087906004016127d9565b600060405180830381600087803b158015610c9757600080fd5b505af1158015610cab573d6000803e3d6000fd5b50505050505050505050565b60007f00000000000000000000000000000000000000000000000000000000000000008680519060200120604051602001610cfc929190918252602082015260400190565b60408051601f198184030181529181528151602092830120600081815260059093529120549091504614610d5c576040517f60dee01500000000000000000000000000000000000000000000000000000000815260040160405180910390fd5b604051630178b8bf60e01b8152600481018290526000907f00000000000000000000000000000000000000000000000000000000000000006001600160a01b031690630178b8bf90602401602060405180830381865afa158015610dc4573d6000803e3d6000fd5b505050506040513d601f19601f82011682018060405250810190610de891906125bd565b905060007f9599d5e4e43121196cadfeaea326e46f58d9db74299decfd64bd3b700350ccd96005600085815260200190815260200160002054898989866001600160a01b03166359d1d43c898e8e6040518463ffffffff1660e01b8152600401610e549392919061281e565b600060405180830381865afa158015610e71573d6000803e3d6000fd5b505050506040513d6000823e601f3d908101601f19168201604052610e999190810190612871565b604051602001610eae969594939291906128c2565b60408051601f1981840301815291905290503415610f355760048054604051630c93e3bb60e01b81526001600160a01b0390911691630c93e3bb913491610f029130918b918b916002918a91339101612778565b6000604051808303818588803b158015610f1b57600080fd5b505af1158015610f2f573d6000803e3d6000fd5b50505050505b600354604051631c92115f60e01b81526001600160a01b0390911690631c92115f90610f6c908890889060029087906004016127d9565b600060405180830381600087803b158015610f8657600080fd5b505af1158015610f9a573d6000803e3d6000fd5b505050505050505050505050565b604051606082811b6bffffffffffffffffffffffff191660208301529060009060340160408051601f198184030181528282528051838301909252601083527f30313233343536373839616263646566000000000000000000000000000000006020840152805190935090919060009061102390600261292b565b61102e906002612942565b67ffffffffffffffff81111561104657611046611ee5565b6040519080825280601f01601f191660200182016040528015611070576020820181803683370190505b509050600360fc1b8160008151811061108b5761108b612955565b60200101906001600160f81b031916908160001a905350600f60fb1b816001815181106110ba576110ba612955565b60200101906001600160f81b031916908160001a90535060005b838110156111f6578260048683815181106110f1576110f1612955565b016020015182516001600160f81b031990911690911c60f81c90811061111957611119612955565b01602001516001600160f81b0319168261113483600261292b565b61113f906002612942565b8151811061114f5761114f612955565b60200101906001600160f81b031916908160001a9053508285828151811061117957611179612955565b602091010151815160f89190911c600f1690811061119957611199612955565b01602001516001600160f81b031916826111b483600261292b565b6111bf906003612942565b815181106111cf576111cf612955565b60200101906001600160f81b031916908160001a9053506111ef8161296b565b90506110d4565b5095945050505050565b600080600061120f8585611835565b9092509050600081600481111561122857611228612984565b1480156112465750856001600160a01b0316826001600160a01b0316145b156112565760019250505061136b565b600080876001600160a01b0316631626ba7e60e01b888860405160240161127e92919061299a565b60408051601f198184030181529181526020820180517bffffffffffffffffffffffffffffffffffffffffffffffffffffffff166001600160e01b03199094169390931790925290516112d191906129b3565b600060405180830381855afa9150503d806000811461130c576040519150601f19603f3d011682016040523d82523d6000602084013e611311565b606091505b5091509150818015611324575080516020145b8015611364575080517f1626ba7e000000000000000000000000000000000000000000000000000000009061136290830160209081019084016129cf565b145b9450505050505b9392505050565b60007f000000000000000000000000000000000000000000000000000000000000000085805190602001206040516020016113b7929190918252602082015260400190565b60408051601f1981840301815290829052805160209091012063632c704360e11b825291506001600160a01b037f0000000000000000000000000000000000000000000000000000000000000000169063c658e08690611448907f000000000000000000000000000000000000000000000000000000000000000090899030906000906367748580906004016129e8565b6020604051808303816000875af1158015611467573d6000803e3d6000fd5b505050506040513d601f19601f8201168201806040525081019061148b91906129cf565b506001546040517f1896f70a000000000000000000000000000000000000000000000000000000008152600481018390526001600160a01b0391821660248201527f000000000000000000000000000000000000000000000000000000000000000090911690631896f70a90604401600060405180830381600087803b15801561151457600080fd5b505af1158015611528573d6000803e3d6000fd5b50506001546040517fe32954eb0000000000000000000000000000000000000000000000000000000081526001600160a01b03909116925063e32954eb91506115779084908690600401612a37565b6000604051808303816000875af1158015611596573d6000803e3d6000fd5b505050506040513d6000823e601f3d908101601f191682016040526115be9190810190612aa1565b5060405163632c704360e11b81526001600160a01b037f0000000000000000000000000000000000000000000000000000000000000000169063c658e08690611638907f000000000000000000000000000000000000000000000000000000000000000090899089906000906367748580906004016129e8565b6020604051808303816000875af1158015611657573d6000803e3d6000fd5b505050506040513d601f19601f8201168201806040525081019061167b91906129cf565b50600081815260056020526040908190208490555183906001600160a01b0386169083907f16e47d91af12d22c208b00439a2d1c80064353b5c41a5b3a21ab37b939c6334c906116cc908a90612b67565b60405180910390a45050505050565b306001600160a01b031661172485858080601f01602080910402602001604051908101604052809392919081815260200183838082843760009201919091525061187a92505050565b6001600160a01b03161461174b57604051631403112d60e21b815260040160405180910390fd5b600061175982840184611eb4565b604080516000808252602082019092529192509081611788565b60608152602001906001900390816117735790505b5090507fdd007bd789f73e08c2714644c55b11c7d202931d717def434e3c9caa12a9f58382036117dd57600080806117c286880188612b7a565b935093509350506117d583838387611372565b50505061061e565b7f9599d5e4e43121196cadfeaea326e46f58d9db74299decfd64bd3b700350ccd9820361061e57600080808061181587890189612bdb565b94509450945094505061182a83308688611372565b610f9a8383836119f9565b600080825160410361186b5760208301516040840151606085015160001a61185f87828585611dc6565b94509450505050611873565b506000905060025b9250929050565b6000808290506000808251602a1415806118ba5750826000815181106118a2576118a2612955565b6020910101516001600160f81b031916600360fc1b14155b806118eb5750826001815181106118d3576118d3612955565b6020910101516001600160f81b031916600f60fb1b14155b1561190957604051636fa478cf60e11b815260040160405180910390fd5b60025b602a8110156119ef5783818151811061192757611927612955565b016020015160f81c915060618210801590611946575060668260ff1611155b1561195d57611956605783612c47565b91506119c6565b60418260ff1610158015611975575060468260ff1611155b1561198557611956603783612c47565b60308260ff161015801561199d575060398260ff1611155b156119ad57611956603083612c47565b604051636fa478cf60e11b815260040160405180910390fd5b60026119d3826029612c60565b60ff8416911b1b92909217916119e88161296b565b905061190c565b5090949350505050565b60007f00000000000000000000000000000000000000000000000000000000000000008480519060200120604051602001611a3e929190918252602082015260400190565b60408051808303601f190181529082905280516020909101207f6352211e0000000000000000000000000000000000000000000000000000000082526004820181905291506000907f00000000000000000000000000000000000000000000000000000000000000006001600160a01b031690636352211e90602401602060405180830381865afa158015611ad7573d6000803e3d6000fd5b505050506040513d601f19601f82011682018060405250810190611afb91906125bd565b60405163632c704360e11b81529091506001600160a01b037f0000000000000000000000000000000000000000000000000000000000000000169063c658e08690611b77907f000000000000000000000000000000000000000000000000000000000000000090899030906000906367748580906004016129e8565b6020604051808303816000875af1158015611b96573d6000803e3d6000fd5b505050506040513d601f19601f82011682018060405250810190611bba91906129cf565b50604051630178b8bf60e01b8152600481018390526000907f00000000000000000000000000000000000000000000000000000000000000006001600160a01b031690630178b8bf90602401602060405180830381865afa158015611c23573d6000803e3d6000fd5b505050506040513d601f19601f82011682018060405250810190611c4791906125bd565b6040517f10f13a8c0000000000000000000000000000000000000000000000000000000081529091506001600160a01b038216906310f13a8c90611c9390869089908990600401612c73565b600060405180830381600087803b158015611cad57600080fd5b505af1158015611cc1573d6000803e3d6000fd5b505060405163632c704360e11b81526001600160a01b037f000000000000000000000000000000000000000000000000000000000000000016925063c658e0869150611d3e907f0000000000000000000000000000000000000000000000000000000000000000908a9087906000906367748580906004016129e8565b6020604051808303816000875af1158015611d5d573d6000803e3d6000fd5b505050506040513d601f19601f82011682018060405250810190611d8191906129cf565b50827ffad92409521bea1624b5499ab6e0c540abe18b2650b61b297c332686374f8e6c878787604051611db693929190612ca8565b60405180910390a2505050505050565b6000807f7fffffffffffffffffffffffffffffff5d576e7357a4501ddfe92f46681b20a0831115611dfd5750600090506003611e81565b6040805160008082526020820180845289905260ff881692820192909252606081018690526080810185905260019060a0016020604051602081039080840390855afa158015611e51573d6000803e3d6000fd5b5050604051601f1901519150506001600160a01b038116611e7a57600060019250925050611e81565b9150600090505b94509492505050565b600060208284031215611e9c57600080fd5b81356001600160e01b03198116811461136b57600080fd5b600060208284031215611ec657600080fd5b5035919050565b6001600160a01b0381168114611ee257600080fd5b50565b634e487b7160e01b600052604160045260246000fd5b604051601f8201601f1916810167ffffffffffffffff81118282101715611f2457611f24611ee5565b604052919050565b600067ffffffffffffffff821115611f4657611f46611ee5565b50601f01601f191660200190565b600082601f830112611f6557600080fd5b8135611f78611f7382611f2c565b611efb565b818152846020838601011115611f8d57600080fd5b816020850160208301376000918101602001919091529392505050565b60008060008060808587031215611fc057600080fd5b8435611fcb81611ecd565b93506020850135611fdb81611ecd565b925060408501359150606085013567ffffffffffffffff811115611ffe57600080fd5b61200a87828801611f54565b91505092959194509250565b60008083601f84011261202857600080fd5b50813567ffffffffffffffff81111561204057600080fd5b60208301915083602082850101111561187357600080fd5b60008060008060008060006080888a03121561207357600080fd5b873567ffffffffffffffff8082111561208b57600080fd5b6120978b838c01612016565b909950975060208a013591506120ac82611ecd565b909550604089013590808211156120c257600080fd5b818a0191508a601f8301126120d657600080fd5b8135818111156120e557600080fd5b8b60208260051b85010111156120fa57600080fd5b6020830196508095505060608a013591508082111561211857600080fd5b506121258a828b01612016565b989b979a50959850939692959293505050565b60008060008060008060006080888a03121561215357600080fd5b87359650602088013567ffffffffffffffff8082111561217257600080fd5b61217e8b838c01612016565b909850965060408a013591508082111561219757600080fd5b6121a38b838c01612016565b909650945060608a013591508082111561211857600080fd5b600080600080604085870312156121d257600080fd5b843567ffffffffffffffff808211156121ea57600080fd5b6121f688838901612016565b9096509450602087013591508082111561220f57600080fd5b5061221c87828801612016565b95989497509550505050565b60008060008060006060868803121561224057600080fd5b853567ffffffffffffffff8082111561225857600080fd5b61226489838a01611f54565b9650602088013591508082111561227a57600080fd5b61228689838a01612016565b9096509450604088013591508082111561229f57600080fd5b506122ac88828901612016565b969995985093965092949392505050565b600067ffffffffffffffff8211156122d7576122d7611ee5565b5060051b60200190565b600082601f8301126122f257600080fd5b81356020612302611f73836122bd565b82815260059290921b8401810191818101908684111561232157600080fd5b8286015b8481101561233c5780358352918301918301612325565b509695505050505050565b600080600080600060a0868803121561235f57600080fd5b853561236a81611ecd565b9450602086013561237a81611ecd565b9350604086013567ffffffffffffffff8082111561239757600080fd5b6123a389838a016122e1565b945060608801359150808211156123b957600080fd5b6123c589838a016122e1565b935060808801359150808211156123db57600080fd5b506123e888828901611f54565b9150509295509295909350565b600080600080600060a0868803121561240d57600080fd5b853561241881611ecd565b9450602086013561242881611ecd565b93506040860135925060608601359150608086013567ffffffffffffffff81111561245257600080fd5b6123e888828901611f54565b81835281816020850137506000828201602090810191909152601f909101601f19169091010190565b60608152600061249b60608301878961245e565b60206001600160a01b038716818501528382036040850152818583528183019050818660051b8401018760005b8881101561253857858303601f190184528135368b9003601e190181126124ee57600080fd5b8a01858101903567ffffffffffffffff81111561250a57600080fd5b80360382131561251957600080fd5b61252485828461245e565b9587019594505050908401906001016124c8565b50909b9a5050505050505050505050565b6000612557611f73846122bd565b80848252602080830192508560051b85013681111561257557600080fd5b855b818110156125b157803567ffffffffffffffff8111156125975760008081fd5b6125a336828a01611f54565b865250938201938201612577565b50919695505050505050565b6000602082840312156125cf57600080fd5b815161136b81611ecd565b8183823760009101908152919050565b86815260806020820152600061260460808301878961245e565b828103604084015261261781868861245e565b915050826060830152979650505050505050565b60006020828403121561263d57600080fd5b8151801515811461136b57600080fd5b85815260806020820152600061266760808301868861245e565b6001600160a01b0394909416604083015250606001529392505050565b8054600090600181811c908083168061269e57607f831692505b602080841082036126bf57634e487b7160e01b600052602260045260246000fd5b838852602088018280156126da57600181146126f05761271b565b60ff198716825285151560051b8201975061271b565b60008981526020902060005b87811015612715578154848201529086019084016126fc565b83019850505b5050505050505092915050565b60005b8381101561274357818101518382015260200161272b565b50506000910152565b60008151808452612764816020860160208601612728565b601f01601f19169290920160200192915050565b60006001600160a01b03808916835260a0602084015261279c60a08401888a61245e565b83810360408501526127ae8188612684565b905083810360608501526127c2818761274c565b925050808416608084015250979650505050505050565b6060815260006127ed60608301868861245e565b82810360208401526127ff8186612684565b90508281036040840152612813818561274c565b979650505050505050565b83815260406020820152600061283860408301848661245e565b95945050505050565b600061284f611f7384611f2c565b905082815283838301111561286357600080fd5b61136b836020830184612728565b60006020828403121561288357600080fd5b815167ffffffffffffffff81111561289a57600080fd5b8201601f810184136128ab57600080fd5b6128ba84825160208401612841565b949350505050565b86815285602082015260a0604082015260006128e160a083018761274c565b82810360608401526128f481868861245e565b90508281036080840152612908818561274c565b9998505050505050505050565b634e487b7160e01b600052601160045260246000fd5b808202811582820484141761047e5761047e612915565b8082018082111561047e5761047e612915565b634e487b7160e01b600052603260045260246000fd5b60006001820161297d5761297d612915565b5060010190565b634e487b7160e01b600052602160045260246000fd5b8281526040602082015260006128ba604083018461274c565b600082516129c5818460208701612728565b9190910192915050565b6000602082840312156129e157600080fd5b5051919050565b85815260a060208201526000612a0160a083018761274c565b6001600160a01b039590951660408301525063ffffffff92909216606083015267ffffffffffffffff1660809091015292915050565b600060408201848352602060408185015281855180845260608601915060608160051b870101935082870160005b82811015612a9357605f19888703018452612a8186835161274c565b95509284019290840190600101612a65565b509398975050505050505050565b60006020808385031215612ab457600080fd5b825167ffffffffffffffff80821115612acc57600080fd5b818501915085601f830112612ae057600080fd5b8151612aee611f73826122bd565b81815260059190911b83018401908481019088831115612b0d57600080fd5b8585015b83811015612b5a57805185811115612b295760008081fd5b8601603f81018b13612b3b5760008081fd5b612b4c8b8983015160408401612841565b845250918601918601612b11565b5098975050505050505050565b60208152600061136b602083018461274c565b60008060008060808587031215612b9057600080fd5b84359350602085013567ffffffffffffffff811115612bae57600080fd5b612bba87828801611f54565b9350506040850135612bcb81611ecd565b9396929550929360600135925050565b600080600080600060a08688031215612bf357600080fd5b8535945060208601359350604086013567ffffffffffffffff80821115612c1957600080fd5b612c2589838a01611f54565b94506060880135915080821115612c3b57600080fd5b6123c589838a01611f54565b60ff828116828216039081111561047e5761047e612915565b8181038181111561047e5761047e612915565b838152606060208201526000612c8c606083018561274c565b8281036040840152612c9e818561274c565b9695505050505050565b606081526000612cbb606083018661274c565b8281036020840152612ccd818661274c565b90508281036040840152612c9e818561274c56fea2646970667358221220cd49e8669441aba883e12ee8008dc6f3bdb19a3b0f35dd5a7c6ba46da16405ee64736f6c63430008110033fa09792c7e511e28c04759f07bfa13349dfe86b3521af57d4d0779bc50f94b2fb0c33aaf22bba888eba653ddb29ef152a115d46cc338e4a2e54db6fcc0ee6562",
  "linkReferences": {},
  "deployedLinkReferences": {}
}