{
  "_format": "hh-sol-artifact-1",
  "contractName": "TokenResolver",
  "sourceName": "contracts/attestation/eas/resolver/examples/TokenResolver.sol",
  "abi": [
    {
      "inputs": [
        {
          "internalType": "contract IEAS",
          "name": "eas",
          "type": "address"
        },
        {
          "internalType": "contract IERC20",
          "name": "targetToken",
          "type": "address"
        },
        {
          "internalType": "uint256",
          "name": "targetAmount",
          "type": "uint256"
        }
      ],
      "stateMutability": "nonpayable",
      "type": "constructor"
    },
    {
      "inputs": [],
      "name": "AccessDenied",
      "type": "error"
    },
    {
      "inputs": [],
      "name": "InsufficientValue",
      "type": "error"
    },
    {
      "inputs": [],
      "name": "InvalidEAS",
      "type": "error"
    },
    {
      "inputs": [],
      "name": "NotPayable",
      "type": "error"
    },
    {
      "inputs": [],
      "name": "VERSION",
      "outputs": [
        {
          "internalType": "string",
          "name": "",
          "type": "string"
        }
      ],
      "stateMutability": "view",
      "type": "function"
    },
    {
      "inputs": [
        {
          "components": [
            {
              "internalType": "bytes32",
              "name": "uid",
              "type": "bytes32"
            },
            {
              "internalType": "bytes32",
              "name": "schema",
              "type": "bytes32"
            },
            {
              "internalType": "uint64",
              "name": "time",
              "type": "uint64"
            },
            {
              "internalType": "uint64",
              "name": "expirationTime",
              "type": "uint64"
            },
            {
              "internalType": "uint64",
              "name": "revocationTime",
              "type": "uint64"
            },
            {
              "internalType": "bytes32",
              "name": "refUID",
              "type": "bytes32"
            },
            {
              "internalType": "address",
              "name": "recipient",
              "type": "address"
            },
            {
              "internalType": "address",
              "name": "attester",
              "type": "address"
            },
            {
              "internalType": "bool",
              "name": "revocable",
              "type": "bool"
            },
            {
              "internalType": "bytes",
              "name": "data",
              "type": "bytes"
            }
          ],
          "internalType": "struct Attestation",
          "name": "attestation",
          "type": "tuple"
        }
      ],
      "name": "attest",
      "outputs": [
        {
          "internalType": "bool",
          "name": "",
          "type": "bool"
        }
      ],
      "stateMutability": "payable",
      "type": "function"
    },
    {
      "inputs": [],
      "name": "isPayable",
      "outputs": [
        {
          "internalType": "bool",
          "name": "",
          "type": "bool"
        }
      ],
      "stateMutability": "pure",
      "type": "function"
    },
    {
      "inputs": [
        {
          "components": [
            {
              "internalType": "bytes32",
              "name": "uid",
              "type": "bytes32"
            },
            {
              "internalType": "bytes32",
              "name": "schema",
              "type": "bytes32"
            },
            {
              "internalType": "uint64",
              "name": "time",
              "type": "uint64"
            },
            {
              "internalType": "uint64",
              "name": "expirationTime",
              "type": "uint64"
            },
            {
              "internalType": "uint64",
              "name": "revocationTime",
              "type": "uint64"
            },
            {
              "internalType": "bytes32",
              "name": "refUID",
              "type": "bytes32"
            },
            {
              "internalType": "address",
              "name": "recipient",
              "type": "address"
            },
            {
              "internalType": "address",
              "name": "attester",
              "type": "address"
            },
            {
              "internalType": "bool",
              "name": "revocable",
              "type": "bool"
            },
            {
              "internalType": "bytes",
              "name": "data",
              "type": "bytes"
            }
          ],
          "internalType": "struct Attestation[]",
          "name": "attestations",
          "type": "tuple[]"
        },
        {
          "internalType": "uint256[]",
          "name": "values",
          "type": "uint256[]"
        }
      ],
      "name": "multiAttest",
      "outputs": [
        {
          "internalType": "bool",
          "name": "",
          "type": "bool"
        }
      ],
      "stateMutability": "payable",
      "type": "function"
    },
    {
      "inputs": [
        {
          "components": [
            {
              "internalType": "bytes32",
              "name": "uid",
              "type": "bytes32"
            },
            {
              "internalType": "bytes32",
              "name": "schema",
              "type": "bytes32"
            },
            {
              "internalType": "uint64",
              "name": "time",
              "type": "uint64"
            },
            {
              "internalType": "uint64",
              "name": "expirationTime",
              "type": "uint64"
            },
            {
              "internalType": "uint64",
              "name": "revocationTime",
              "type": "uint64"
            },
            {
              "internalType": "bytes32",
              "name": "refUID",
              "type": "bytes32"
            },
            {
              "internalType": "address",
              "name": "recipient",
              "type": "address"
            },
            {
              "internalType": "address",
              "name": "attester",
              "type": "address"
            },
            {
              "internalType": "bool",
              "name": "revocable",
              "type": "bool"
            },
            {
              "internalType": "bytes",
              "name": "data",
              "type": "bytes"
            }
          ],
          "internalType": "struct Attestation[]",
          "name": "attestations",
          "type": "tuple[]"
        },
        {
          "internalType": "uint256[]",
          "name": "values",
          "type": "uint256[]"
        }
      ],
      "name": "multiRevoke",
      "outputs": [
        {
          "internalType": "bool",
          "name": "",
          "type": "bool"
        }
      ],
      "stateMutability": "payable",
      "type": "function"
    },
    {
      "inputs": [
        {
          "components": [
            {
              "internalType": "bytes32",
              "name": "uid",
              "type": "bytes32"
            },
            {
              "internalType": "bytes32",
              "name": "schema",
              "type": "bytes32"
            },
            {
              "internalType": "uint64",
              "name": "time",
              "type": "uint64"
            },
            {
              "internalType": "uint64",
              "name": "expirationTime",
              "type": "uint64"
            },
            {
              "internalType": "uint64",
              "name": "revocationTime",
              "type": "uint64"
            },
            {
              "internalType": "bytes32",
              "name": "refUID",
              "type": "bytes32"
            },
            {
              "internalType": "address",
              "name": "recipient",
              "type": "address"
            },
            {
              "internalType": "address",
              "name": "attester",
              "type": "address"
            },
            {
              "internalType": "bool",
              "name": "revocable",
              "type": "bool"
            },
            {
              "internalType": "bytes",
              "name": "data",
              "type": "bytes"
            }
          ],
          "internalType": "struct Attestation",
          "name": "attestation",
          "type": "tuple"
        }
      ],
      "name": "revoke",
      "outputs": [
        {
          "internalType": "bool",
          "name": "",
          "type": "bool"
        }
      ],
      "stateMutability": "payable",
      "type": "function"
    },
    {
      "stateMutability": "payable",
      "type": "receive"
    }
  ],
  "bytecode": "0x60e060405234801561001057600080fd5b50604051610a56380380610a5683398101604081905261002f9161008d565b826001600160a01b038116610057576040516341bc07ff60e11b815260040160405180910390fd5b6001600160a01b039081166080529190911660a05260c052506100d0565b6001600160a01b038116811461008a57600080fd5b50565b6000806000606084860312156100a257600080fd5b83516100ad81610075565b60208501519093506100be81610075565b80925050604084015190509250925092565b60805160a05160c0516109576100ff60003960006103d9015260006103b50152600061032f01526109576000f3fe6080604052600436106100695760003560e01c8063e49617e111610043578063e49617e1146100f4578063e60c350514610107578063ffa1ad741461011a57600080fd5b806388e5b2d9146100a557806391db0b7e146100cd578063ce46e046146100e057600080fd5b366100a0576040517f1574f9f300000000000000000000000000000000000000000000000000000000815260040160405180910390fd5b600080fd5b6100b86100b3366004610726565b610170565b60405190151581526020015b60405180910390f35b6100b86100db366004610726565b610238565b3480156100ec57600080fd5b5060006100b8565b6100b8610102366004610792565b6102f0565b6100b8610115366004610792565b610303565b34801561012657600080fd5b506101636040518060400160405280600481526020017f302e32370000000000000000000000000000000000000000000000000000000081525081565b6040516100c491906107f9565b600061017a610317565b833460005b8281101561022857600086868381811061019b5761019b61084a565b905060200201359050828111156101de576040517f1101129400000000000000000000000000000000000000000000000000000000815260040160405180910390fd5b61020b8989848181106101f3576101f361084a565b90506020028101906102059190610879565b50600190565b61021c576000945050505050610230565b9091039060010161017f565b506001925050505b949350505050565b6000610242610317565b833460005b828110156102285760008686838181106102635761026361084a565b905060200201359050828111156102a6576040517f1101129400000000000000000000000000000000000000000000000000000000815260040160405180910390fd5b6102d38989848181106102bb576102bb61084a565b90506020028101906102cd9190610879565b82610388565b6102e4576000945050505050610230565b90910390600101610247565b60006102fa610317565b60015b92915050565b600061030d610317565b6102fd8234610388565b3373ffffffffffffffffffffffffffffffffffffffff7f00000000000000000000000000000000000000000000000000000000000000001614610386576040517f4ca8886700000000000000000000000000000000000000000000000000000000815260040160405180910390fd5b565b60006103fd61039e610100850160e086016108b7565b73ffffffffffffffffffffffffffffffffffffffff7f00000000000000000000000000000000000000000000000000000000000000001690307f0000000000000000000000000000000000000000000000000000000000000000610406565b50600192915050565b6040805173ffffffffffffffffffffffffffffffffffffffff85811660248301528416604482015260648082018490528251808303909101815260849091019091526020810180517bffffffffffffffffffffffffffffffffffffffffffffffffffffffff167f23b872dd0000000000000000000000000000000000000000000000000000000017905261049b9085906104a1565b50505050565b6000610503826040518060400160405280602081526020017f5361666545524332303a206c6f772d6c6576656c2063616c6c206661696c65648152508573ffffffffffffffffffffffffffffffffffffffff1661059d9092919063ffffffff16565b805190915015610598578080602001905181019061052191906108ed565b6105985760405162461bcd60e51b815260206004820152602a60248201527f5361666545524332303a204552433230206f7065726174696f6e20646964206e60448201527f6f7420737563636565640000000000000000000000000000000000000000000060648201526084015b60405180910390fd5b505050565b60606102308484600085856000808673ffffffffffffffffffffffffffffffffffffffff1685876040516105d1919061090f565b60006040518083038185875af1925050503d806000811461060e576040519150601f19603f3d011682016040523d82523d6000602084013e610613565b606091505b50915091506106248783838761062f565b979650505050505050565b606083156106ab5782516000036106a45773ffffffffffffffffffffffffffffffffffffffff85163b6106a45760405162461bcd60e51b815260206004820152601d60248201527f416464726573733a2063616c6c20746f206e6f6e2d636f6e7472616374000000604482015260640161058f565b5081610230565b61023083838151156106c05781518083602001fd5b8060405162461bcd60e51b815260040161058f91906107f9565b60008083601f8401126106ec57600080fd5b50813567ffffffffffffffff81111561070457600080fd5b6020830191508360208260051b850101111561071f57600080fd5b9250929050565b6000806000806040858703121561073c57600080fd5b843567ffffffffffffffff8082111561075457600080fd5b610760888389016106da565b9096509450602087013591508082111561077957600080fd5b50610786878288016106da565b95989497509550505050565b6000602082840312156107a457600080fd5b813567ffffffffffffffff8111156107bb57600080fd5b820161014081850312156107ce57600080fd5b9392505050565b60005b838110156107f05781810151838201526020016107d8565b50506000910152565b60208152600082518060208401526108188160408501602087016107d5565b601f017fffffffffffffffffffffffffffffffffffffffffffffffffffffffffffffffe0169190910160400192915050565b7f4e487b7100000000000000000000000000000000000000000000000000000000600052603260045260246000fd5b600082357ffffffffffffffffffffffffffffffffffffffffffffffffffffffffffffffec18336030181126108ad57600080fd5b9190910192915050565b6000602082840312156108c957600080fd5b813573ffffffffffffffffffffffffffffffffffffffff811681146107ce57600080fd5b6000602082840312156108ff57600080fd5b815180151581146107ce57600080fd5b600082516108ad8184602087016107d556fea2646970667358221220489a322c581cc13cfcbea1551be965598364c6bb1a0ff209ed6f614f5543c68a64736f6c63430008130033",
  "linkReferences": {},
  "deployedLinkReferences": {}
}