{
  "_format": "hh-sol-artifact-1",
  "contractName": "NameWrapperRegistry",
  "sourceName": "contracts/diamond-resolver/NameWrapperRegistry.sol",
  "abi": [
    {
      "inputs": [
        {
          "internalType": "contract ENS",
          "name": "_ens",
          "type": "address"
        }
      ],
      "stateMutability": "nonpayable",
      "type": "constructor"
    },
    {
      "anonymous": false,
      "inputs": [
        {
          "indexed": true,
          "internalType": "address",
          "name": "oldNameWrapper",
          "type": "address"
        },
        {
          "indexed": true,
          "internalType": "address",
          "name": "newNameWrapper",
          "type": "address"
        }
      ],
      "name": "NameWrapperUpgraded",
      "type": "event"
    },
    {
      "anonymous": false,
      "inputs": [
        {
          "indexed": true,
          "internalType": "address",
          "name": "previousOwner",
          "type": "address"
        },
        {
          "indexed": true,
          "internalType": "address",
          "name": "newOwner",
          "type": "address"
        }
      ],
      "name": "OwnershipTransferred",
      "type": "event"
    },
    {
      "anonymous": false,
      "inputs": [
        {
          "indexed": true,
          "internalType": "address",
          "name": "attestation",
          "type": "address"
        }
      ],
      "name": "SetAttestation",
      "type": "event"
    },
    {
      "inputs": [],
      "name": "attestation",
      "outputs": [
        {
          "internalType": "address",
          "name": "",
          "type": "address"
        }
      ],
      "stateMutability": "view",
      "type": "function"
    },
    {
      "inputs": [
        {
          "internalType": "contract INameWrapper",
          "name": "",
          "type": "address"
        }
      ],
      "name": "backward",
      "outputs": [
        {
          "internalType": "contract INameWrapper",
          "name": "",
          "type": "address"
        }
      ],
      "stateMutability": "view",
      "type": "function"
    },
    {
      "inputs": [],
      "name": "ens",
      "outputs": [
        {
          "internalType": "contract ENS",
          "name": "",
          "type": "address"
        }
      ],
      "stateMutability": "view",
      "type": "function"
    },
    {
      "inputs": [
        {
          "internalType": "contract INameWrapper",
          "name": "",
          "type": "address"
        }
      ],
      "name": "forward",
      "outputs": [
        {
          "internalType": "contract INameWrapper",
          "name": "",
          "type": "address"
        }
      ],
      "stateMutability": "view",
      "type": "function"
    },
    {
      "inputs": [
        {
          "internalType": "address",
          "name": "",
          "type": "address"
        }
      ],
      "name": "isNameWrapper",
      "outputs": [
        {
          "internalType": "bool",
          "name": "",
          "type": "bool"
        }
      ],
      "stateMutability": "view",
      "type": "function"
    },
    {
      "inputs": [],
      "name": "owner",
      "outputs": [
        {
          "internalType": "address",
          "name": "",
          "type": "address"
        }
      ],
      "stateMutability": "view",
      "type": "function"
    },
    {
      "inputs": [
        {
          "internalType": "bytes32",
          "name": "node",
          "type": "bytes32"
        }
      ],
      "name": "ownerOf",
      "outputs": [
        {
          "internalType": "address",
          "name": "owner",
          "type": "address"
        }
      ],
      "stateMutability": "view",
      "type": "function"
    },
    {
      "inputs": [],
      "name": "renounceOwnership",
      "outputs": [],
      "stateMutability": "nonpayable",
      "type": "function"
    },
    {
      "inputs": [
        {
          "internalType": "address",
          "name": "_attestation",
          "type": "address"
        }
      ],
      "name": "setAttestation",
      "outputs": [],
      "stateMutability": "nonpayable",
      "type": "function"
    },
    {
      "inputs": [
        {
          "internalType": "bytes4",
          "name": "interfaceID",
          "type": "bytes4"
        }
      ],
      "name": "supportsInterface",
      "outputs": [
        {
          "internalType": "bool",
          "name": "",
          "type": "bool"
        }
      ],
      "stateMutability": "view",
      "type": "function"
    },
    {
      "inputs": [
        {
          "internalType": "address",
          "name": "newOwner",
          "type": "address"
        }
      ],
      "name": "transferOwnership",
      "outputs": [],
      "stateMutability": "nonpayable",
      "type": "function"
    },
    {
      "inputs": [
        {
          "internalType": "contract INameWrapper",
          "name": "_old",
          "type": "address"
        },
        {
          "internalType": "contract INameWrapper",
          "name": "_new",
          "type": "address"
        }
      ],
      "name": "upgrade",
      "outputs": [],
      "stateMutability": "nonpayable",
      "type": "function"
    }
  ],
  "bytecode": "0x60a060405234801561001057600080fd5b50604051610ade380380610ade83398101604081905261002f9161011d565b61003d336100b5565b6100b5565b6001600160a01b03811660808190526040516302571be360e01b8152600060048201526100af91906302571be390602401602060405180830381865afa15801561008b573d6000803e3d6000fd5b505050506040513d601f19601f82011682018060405250810190610038919061011d565b50610141565b600080546001600160a01b038381166001600160a01b0319831681178455604051919092169283917f8be0079c531659141344cd1fd0a4f28419497f9722a3daafe3b4186f6b6457e09190a35050565b6001600160a01b038116811461011a57600080fd5b50565b60006020828403121561012f57600080fd5b815161013a81610105565b9392505050565b60805161097b610163600039600081816101b201526102b7015261097b6000f3fe608060405234801561001057600080fd5b50600436106100d45760003560e01c80637dd56411116100815780639a5090b91161005b5780639a5090b914610228578063c161146e1461023b578063f2fde38b1461025e57600080fd5b80637dd56411146101f15780638da5cb5b1461020457806399a88ec41461021557600080fd5b80633f15457f116100b25780633f15457f146101ad5780635ea1d46a146101d4578063715018a6146101e757600080fd5b806301ffc9a7146100d9578063101e89521461014357806339c26d7214610184575b600080fd5b61012e6100e7366004610839565b7fffffffff00000000000000000000000000000000000000000000000000000000167ff7241b37000000000000000000000000000000000000000000000000000000001490565b60405190151581526020015b60405180910390f35b61016c610151366004610897565b6003602052600090815260409020546001600160a01b031681565b6040516001600160a01b03909116815260200161013a565b61016c610192366004610897565b6004602052600090815260409020546001600160a01b031681565b61016c7f000000000000000000000000000000000000000000000000000000000000000081565b60015461016c906001600160a01b031681565b6101ef610271565b005b61016c6101ff3660046108b4565b610285565b6000546001600160a01b031661016c565b6101ef6102233660046108cd565b6103d8565b6101ef610236366004610897565b610693565b61012e610249366004610897565b60026020526000908152604090205460ff1681565b6101ef61026c366004610897565b6106f2565b610279610782565b61028360006107dc565b565b6040517f02571be3000000000000000000000000000000000000000000000000000000008152600481018290526000907f00000000000000000000000000000000000000000000000000000000000000006001600160a01b0316906302571be390602401602060405180830381865afa158015610306573d6000803e3d6000fd5b505050506040513d601f19601f8201168201806040525081019061032a9190610906565b6001600160a01b03811660009081526002602052604090205490915060ff16156103d3576040517f6352211e000000000000000000000000000000000000000000000000000000008152600481018390526001600160a01b03821690636352211e90602401602060405180830381865afa1580156103ac573d6000803e3d6000fd5b505050506040513d601f19601f820116820180604052508101906103d09190610906565b90505b919050565b6103e0610782565b6040517f01ffc9a70000000000000000000000000000000000000000000000000000000081527fd82c42d80000000000000000000000000000000000000000000000000000000060048201526001600160a01b038216906301ffc9a790602401602060405180830381865afa15801561045d573d6000803e3d6000fd5b505050506040513d601f19601f820116820180604052508101906104819190610923565b6104d25760405162461bcd60e51b815260206004820152601360248201527f4e6577204e6f74204e616d65577261707065720000000000000000000000000060448201526064015b60405180910390fd5b6001600160a01b038216610508576001600160a01b0381166000908152600260205260409020805460ff1916600117905561064f565b6001600160a01b03821660009081526002602052604090205460ff166105705760405162461bcd60e51b815260206004820152601360248201527f4f6c64204e6f74204e616d65577261707065720000000000000000000000000060448201526064016104c9565b6001600160a01b0382811660009081526003602052604090205416156105e9576001600160a01b038083166000908152600360209081526040808320805485168452818420805473ffffffffffffffffffffffffffffffffffffffff199081169091559054909416835260049091529020805490911690555b6001600160a01b038083166000818152600360209081526040808320805495871673ffffffffffffffffffffffffffffffffffffffff199687168117909155835260048252808320805490951690931790935560029092529020805460ff191660011790555b806001600160a01b0316826001600160a01b03167fbd29ed12dd05f066b6f3bdc3a4d89ab685d2894f4ec27dbb37323404c4749c7f60405160405180910390a35050565b61069b610782565b6001805473ffffffffffffffffffffffffffffffffffffffff19166001600160a01b0383169081179091556040517f89f79d9d1403a445c8b0f283234fdda90461a5c777805334b727b024f640f60490600090a250565b6106fa610782565b6001600160a01b0381166107765760405162461bcd60e51b815260206004820152602660248201527f4f776e61626c653a206e6577206f776e657220697320746865207a65726f206160448201527f646472657373000000000000000000000000000000000000000000000000000060648201526084016104c9565b61077f816107dc565b50565b6000546001600160a01b031633146102835760405162461bcd60e51b815260206004820181905260248201527f4f776e61626c653a2063616c6c6572206973206e6f7420746865206f776e657260448201526064016104c9565b600080546001600160a01b0383811673ffffffffffffffffffffffffffffffffffffffff19831681178455604051919092169283917f8be0079c531659141344cd1fd0a4f28419497f9722a3daafe3b4186f6b6457e09190a35050565b60006020828403121561084b57600080fd5b81357fffffffff000000000000000000000000000000000000000000000000000000008116811461087b57600080fd5b9392505050565b6001600160a01b038116811461077f57600080fd5b6000602082840312156108a957600080fd5b813561087b81610882565b6000602082840312156108c657600080fd5b5035919050565b600080604083850312156108e057600080fd5b82356108eb81610882565b915060208301356108fb81610882565b809150509250929050565b60006020828403121561091857600080fd5b815161087b81610882565b60006020828403121561093557600080fd5b8151801515811461087b57600080fdfea26469706673582212200625f47fe1e030f52bca652ac711ba9ac5c960381dce7690b0218730a0ed046164736f6c63430008130033",
  "linkReferences": {},
  "deployedLinkReferences": {}
}