{
  "_format": "hh-sol-artifact-1",
  "contractName": "PublicResolverFacet",
  "sourceName": "contracts/diamond-resolver/facets/public-resolver/PublicResolverFacet.sol",
  "abi": [
    {
      "inputs": [],
      "name": "Unauthorised",
      "type": "error"
    },
    {
      "anonymous": false,
      "inputs": [
        {
          "indexed": true,
          "internalType": "bytes32",
          "name": "node",
          "type": "bytes32"
        },
        {
          "indexed": true,
          "internalType": "uint256",
          "name": "contentType",
          "type": "uint256"
        }
      ],
      "name": "ABIChanged",
      "type": "event"
    },
    {
      "anonymous": false,
      "inputs": [
        {
          "indexed": true,
          "internalType": "bytes32",
          "name": "node",
          "type": "bytes32"
        },
        {
          "indexed": false,
          "internalType": "address",
          "name": "a",
          "type": "address"
        }
      ],
      "name": "AddrChanged",
      "type": "event"
    },
    {
      "anonymous": false,
      "inputs": [
        {
          "indexed": true,
          "internalType": "bytes32",
          "name": "node",
          "type": "bytes32"
        },
        {
          "indexed": false,
          "internalType": "uint256",
          "name": "coinType",
          "type": "uint256"
        },
        {
          "indexed": false,
          "internalType": "bytes",
          "name": "newAddress",
          "type": "bytes"
        }
      ],
      "name": "AddressChanged",
      "type": "event"
    },
    {
      "anonymous": false,
      "inputs": [
        {
          "indexed": true,
          "internalType": "bytes32",
          "name": "node",
          "type": "bytes32"
        },
        {
          "indexed": false,
          "internalType": "bytes",
          "name": "hash",
          "type": "bytes"
        }
      ],
      "name": "ContenthashChanged",
      "type": "event"
    },
    {
      "anonymous": false,
      "inputs": [
        {
          "indexed": true,
          "internalType": "bytes32",
          "name": "node",
          "type": "bytes32"
        },
        {
          "indexed": false,
          "internalType": "bytes",
          "name": "name",
          "type": "bytes"
        },
        {
          "indexed": false,
          "internalType": "uint16",
          "name": "resource",
          "type": "uint16"
        },
        {
          "indexed": false,
          "internalType": "bytes",
          "name": "record",
          "type": "bytes"
        }
      ],
      "name": "DNSRecordChanged",
      "type": "event"
    },
    {
      "anonymous": false,
      "inputs": [
        {
          "indexed": true,
          "internalType": "bytes32",
          "name": "node",
          "type": "bytes32"
        },
        {
          "indexed": false,
          "internalType": "bytes",
          "name": "name",
          "type": "bytes"
        },
        {
          "indexed": false,
          "internalType": "uint16",
          "name": "resource",
          "type": "uint16"
        }
      ],
      "name": "DNSRecordDeleted",
      "type": "event"
    },
    {
      "anonymous": false,
      "inputs": [
        {
          "indexed": true,
          "internalType": "bytes32",
          "name": "node",
          "type": "bytes32"
        },
        {
          "indexed": false,
          "internalType": "bytes",
          "name": "lastzonehash",
          "type": "bytes"
        },
        {
          "indexed": false,
          "internalType": "bytes",
          "name": "zonehash",
          "type": "bytes"
        }
      ],
      "name": "DNSZonehashChanged",
      "type": "event"
    },
    {
      "anonymous": false,
      "inputs": [
        {
          "indexed": true,
          "internalType": "bytes32",
          "name": "node",
          "type": "bytes32"
        },
        {
          "indexed": true,
          "internalType": "bytes4",
          "name": "interfaceID",
          "type": "bytes4"
        },
        {
          "indexed": false,
          "internalType": "address",
          "name": "implementer",
          "type": "address"
        }
      ],
      "name": "InterfaceChanged",
      "type": "event"
    },
    {
      "anonymous": false,
      "inputs": [
        {
          "indexed": true,
          "internalType": "bytes32",
          "name": "node",
          "type": "bytes32"
        },
        {
          "indexed": false,
          "internalType": "string",
          "name": "name",
          "type": "string"
        }
      ],
      "name": "NameChanged",
      "type": "event"
    },
    {
      "anonymous": false,
      "inputs": [
        {
          "indexed": true,
          "internalType": "bytes32",
          "name": "node",
          "type": "bytes32"
        },
        {
          "indexed": false,
          "internalType": "bytes32",
          "name": "x",
          "type": "bytes32"
        },
        {
          "indexed": false,
          "internalType": "bytes32",
          "name": "y",
          "type": "bytes32"
        }
      ],
      "name": "PubkeyChanged",
      "type": "event"
    },
    {
      "anonymous": false,
      "inputs": [
        {
          "indexed": true,
          "internalType": "bytes32",
          "name": "node",
          "type": "bytes32"
        },
        {
          "indexed": true,
          "internalType": "string",
          "name": "indexedKey",
          "type": "string"
        },
        {
          "indexed": false,
          "internalType": "string",
          "name": "key",
          "type": "string"
        },
        {
          "indexed": false,
          "internalType": "string",
          "name": "value",
          "type": "string"
        }
      ],
      "name": "TextChanged",
      "type": "event"
    },
    {
      "anonymous": false,
      "inputs": [
        {
          "indexed": true,
          "internalType": "bytes32",
          "name": "node",
          "type": "bytes32"
        },
        {
          "indexed": false,
          "internalType": "uint64",
          "name": "newVersion",
          "type": "uint64"
        }
      ],
      "name": "VersionChanged",
      "type": "event"
    },
    {
      "inputs": [
        {
          "internalType": "bytes32",
          "name": "node",
          "type": "bytes32"
        },
        {
          "internalType": "uint256",
          "name": "contentTypes",
          "type": "uint256"
        }
      ],
      "name": "ABI",
      "outputs": [
        {
          "internalType": "uint256",
          "name": "",
          "type": "uint256"
        },
        {
          "internalType": "bytes",
          "name": "",
          "type": "bytes"
        }
      ],
      "stateMutability": "view",
      "type": "function"
    },
    {
      "inputs": [
        {
          "internalType": "bytes32",
          "name": "node",
          "type": "bytes32"
        }
      ],
      "name": "addr",
      "outputs": [
        {
          "internalType": "address payable",
          "name": "",
          "type": "address"
        }
      ],
      "stateMutability": "view",
      "type": "function"
    },
    {
      "inputs": [
        {
          "internalType": "bytes32",
          "name": "node",
          "type": "bytes32"
        },
        {
          "internalType": "uint256",
          "name": "coinType",
          "type": "uint256"
        }
      ],
      "name": "addr",
      "outputs": [
        {
          "internalType": "bytes",
          "name": "",
          "type": "bytes"
        }
      ],
      "stateMutability": "view",
      "type": "function"
    },
    {
      "inputs": [
        {
          "internalType": "bytes32",
          "name": "node",
          "type": "bytes32"
        }
      ],
      "name": "contenthash",
      "outputs": [
        {
          "internalType": "bytes",
          "name": "",
          "type": "bytes"
        }
      ],
      "stateMutability": "view",
      "type": "function"
    },
    {
      "inputs": [
        {
          "internalType": "bytes32",
          "name": "node",
          "type": "bytes32"
        },
        {
          "internalType": "bytes32",
          "name": "name",
          "type": "bytes32"
        },
        {
          "internalType": "uint16",
          "name": "resource",
          "type": "uint16"
        }
      ],
      "name": "dnsRecord",
      "outputs": [
        {
          "internalType": "bytes",
          "name": "",
          "type": "bytes"
        }
      ],
      "stateMutability": "view",
      "type": "function"
    },
    {
      "inputs": [
        {
          "internalType": "bytes32",
          "name": "node",
          "type": "bytes32"
        },
        {
          "internalType": "bytes32",
          "name": "name",
          "type": "bytes32"
        }
      ],
      "name": "dnsRecordsCount",
      "outputs": [
        {
          "internalType": "uint16",
          "name": "",
          "type": "uint16"
        }
      ],
      "stateMutability": "view",
      "type": "function"
    },
    {
      "inputs": [
        {
          "internalType": "bytes32",
          "name": "node",
          "type": "bytes32"
        },
        {
          "internalType": "bytes32",
          "name": "name",
          "type": "bytes32"
        }
      ],
      "name": "hasDNSRecords",
      "outputs": [
        {
          "internalType": "bool",
          "name": "",
          "type": "bool"
        }
      ],
      "stateMutability": "view",
      "type": "function"
    },
    {
      "inputs": [
        {
          "internalType": "bytes32",
          "name": "node",
          "type": "bytes32"
        },
        {
          "internalType": "bytes4",
          "name": "interfaceID",
          "type": "bytes4"
        }
      ],
      "name": "interfaceImplementer",
      "outputs": [
        {
          "internalType": "address",
          "name": "",
          "type": "address"
        }
      ],
      "stateMutability": "view",
      "type": "function"
    },
    {
      "inputs": [
        {
          "internalType": "bytes32",
          "name": "node",
          "type": "bytes32"
        }
      ],
      "name": "name",
      "outputs": [
        {
          "internalType": "string",
          "name": "result",
          "type": "string"
        }
      ],
      "stateMutability": "view",
      "type": "function"
    },
    {
      "inputs": [
        {
          "internalType": "bytes32",
          "name": "node",
          "type": "bytes32"
        }
      ],
      "name": "pubkey",
      "outputs": [
        {
          "internalType": "bytes32",
          "name": "x",
          "type": "bytes32"
        },
        {
          "internalType": "bytes32",
          "name": "y",
          "type": "bytes32"
        }
      ],
      "stateMutability": "view",
      "type": "function"
    },
    {
      "inputs": [
        {
          "internalType": "bytes",
          "name": "",
          "type": "bytes"
        },
        {
          "internalType": "bytes",
          "name": "data",
          "type": "bytes"
        }
      ],
      "name": "resolve",
      "outputs": [
        {
          "internalType": "bytes",
          "name": "",
          "type": "bytes"
        }
      ],
      "stateMutability": "view",
      "type": "function"
    },
    {
      "inputs": [
        {
          "internalType": "bytes32",
          "name": "node",
          "type": "bytes32"
        },
        {
          "internalType": "uint256",
          "name": "contentType",
          "type": "uint256"
        },
        {
          "internalType": "bytes",
          "name": "data",
          "type": "bytes"
        }
      ],
      "name": "setABI",
      "outputs": [],
      "stateMutability": "nonpayable",
      "type": "function"
    },
    {
      "inputs": [
        {
          "internalType": "bytes32",
          "name": "node",
          "type": "bytes32"
        },
        {
          "internalType": "uint256",
          "name": "coinType",
          "type": "uint256"
        },
        {
          "internalType": "bytes",
          "name": "a",
          "type": "bytes"
        }
      ],
      "name": "setAddr",
      "outputs": [],
      "stateMutability": "nonpayable",
      "type": "function"
    },
    {
      "inputs": [
        {
          "internalType": "bytes32",
          "name": "node",
          "type": "bytes32"
        },
        {
          "internalType": "address",
          "name": "a",
          "type": "address"
        }
      ],
      "name": "setAddr",
      "outputs": [],
      "stateMutability": "nonpayable",
      "type": "function"
    },
    {
      "inputs": [
        {
          "internalType": "bytes32",
          "name": "node",
          "type": "bytes32"
        },
        {
          "internalType": "uint256",
          "name": "coinType",
          "type": "uint256"
        },
        {
          "internalType": "bytes32",
          "name": "ref",
          "type": "bytes32"
        },
        {
          "internalType": "bytes",
          "name": "a",
          "type": "bytes"
        }
      ],
      "name": "setAddrWithRef",
      "outputs": [],
      "stateMutability": "nonpayable",
      "type": "function"
    },
    {
      "inputs": [
        {
          "internalType": "bytes32",
          "name": "node",
          "type": "bytes32"
        },
        {
          "internalType": "bytes",
          "name": "hash",
          "type": "bytes"
        }
      ],
      "name": "setContenthash",
      "outputs": [],
      "stateMutability": "nonpayable",
      "type": "function"
    },
    {
      "inputs": [
        {
          "internalType": "bytes32",
          "name": "node",
          "type": "bytes32"
        },
        {
          "internalType": "bytes",
          "name": "data",
          "type": "bytes"
        }
      ],
      "name": "setDNSRecords",
      "outputs": [],
      "stateMutability": "nonpayable",
      "type": "function"
    },
    {
      "inputs": [
        {
          "internalType": "bytes32",
          "name": "node",
          "type": "bytes32"
        },
        {
          "internalType": "bytes4",
          "name": "interfaceID",
          "type": "bytes4"
        },
        {
          "internalType": "address",
          "name": "implementer",
          "type": "address"
        }
      ],
      "name": "setInterface",
      "outputs": [],
      "stateMutability": "nonpayable",
      "type": "function"
    },
    {
      "inputs": [
        {
          "internalType": "bytes32",
          "name": "node",
          "type": "bytes32"
        },
        {
          "internalType": "string",
          "name": "newName",
          "type": "string"
        }
      ],
      "name": "setName",
      "outputs": [],
      "stateMutability": "nonpayable",
      "type": "function"
    },
    {
      "inputs": [
        {
          "internalType": "bytes32",
          "name": "node",
          "type": "bytes32"
        },
        {
          "internalType": "bytes32",
          "name": "x",
          "type": "bytes32"
        },
        {
          "internalType": "bytes32",
          "name": "y",
          "type": "bytes32"
        }
      ],
      "name": "setPubkey",
      "outputs": [],
      "stateMutability": "nonpayable",
      "type": "function"
    },
    {
      "inputs": [
        {
          "internalType": "bytes32",
          "name": "node",
          "type": "bytes32"
        },
        {
          "internalType": "string",
          "name": "key",
          "type": "string"
        },
        {
          "internalType": "string",
          "name": "value",
          "type": "string"
        }
      ],
      "name": "setText",
      "outputs": [],
      "stateMutability": "nonpayable",
      "type": "function"
    },
    {
      "inputs": [
        {
          "internalType": "bytes32",
          "name": "node",
          "type": "bytes32"
        },
        {
          "internalType": "bytes32",
          "name": "ref",
          "type": "bytes32"
        },
        {
          "internalType": "string",
          "name": "key",
          "type": "string"
        },
        {
          "internalType": "string",
          "name": "value",
          "type": "string"
        }
      ],
      "name": "setTextWithRef",
      "outputs": [],
      "stateMutability": "nonpayable",
      "type": "function"
    },
    {
      "inputs": [
        {
          "internalType": "bytes32",
          "name": "node",
          "type": "bytes32"
        },
        {
          "internalType": "bytes",
          "name": "hash",
          "type": "bytes"
        }
      ],
      "name": "setZonehash",
      "outputs": [],
      "stateMutability": "nonpayable",
      "type": "function"
    },
    {
      "inputs": [
        {
          "internalType": "bytes4",
          "name": "interfaceID",
          "type": "bytes4"
        }
      ],
      "name": "supportsInterface",
      "outputs": [
        {
          "internalType": "bool",
          "name": "",
          "type": "bool"
        }
      ],
      "stateMutability": "view",
      "type": "function"
    },
    {
      "inputs": [
        {
          "internalType": "bytes32",
          "name": "node",
          "type": "bytes32"
        },
        {
          "internalType": "string",
          "name": "key",
          "type": "string"
        }
      ],
      "name": "text",
      "outputs": [
        {
          "internalType": "string",
          "name": "result",
          "type": "string"
        }
      ],
      "stateMutability": "view",
      "type": "function"
    },
    {
      "inputs": [
        {
          "internalType": "bytes32",
          "name": "node",
          "type": "bytes32"
        }
      ],
      "name": "zonehash",
      "outputs": [
        {
          "internalType": "bytes",
          "name": "result",
          "type": "bytes"
        }
      ],
      "stateMutability": "view",
      "type": "function"
    }
  ],
  "bytecode": "0x608060405234801561001057600080fd5b50613136806100206000396000f3fe608060405234801561001057600080fd5b50600436106101ae5760003560e01c8063623195b0116100ee578063a8fa568211610097578063ce3decdc11610071578063ce3decdc146103c7578063d5fa2b00146103da578063e59d895d146103ed578063f1cb7e061461040057600080fd5b8063a8fa568214610379578063bc1c58d11461038c578063c86902331461039f57600080fd5b80638b95dd71116100c85780638b95dd71146103405780639061b92314610353578063966bf6d61461036657600080fd5b8063623195b014610307578063691f34311461031a578063773722131461032d57600080fd5b806329cd62ea1161015b5780634cbf6ba4116101355780634cbf6ba41461029b5780634da21884146102ae57806359d1d43c146102d45780635c98042b146102f457600080fd5b806329cd62ea14610262578063304e6ade146102755780633b3b57de1461028857600080fd5b806310f13a8c1161018c57806310f13a8c14610203578063124a319c146102165780632203ab561461024157600080fd5b806301ffc9a7146101b35780630988c55d146101db5780630af179d7146101f0575b600080fd5b6101c66101c136600461263e565b610413565b60405190151581526020015b60405180910390f35b6101ee6101e9366004612720565b610461565b005b6101ee6101fe3660046127bc565b6105c6565b6101ee610211366004612808565b6107c8565b610229610224366004612882565b6107d7565b6040516001600160a01b0390911681526020016101d2565b61025461024f3660046128b2565b610b35565b6040516101d2929190612924565b6101ee61027036600461293d565b610c30565b6101ee6102833660046127bc565b610d24565b610229610296366004612969565b610dee565b6101c66102a93660046128b2565b610e20565b6102c16102bc3660046128b2565b610e39565b60405161ffff90911681526020016101d2565b6102e76102e23660046127bc565b610efc565b6040516101d29190612982565b6102e7610302366004612969565b610fe6565b6101ee610315366004612995565b61108b565b6102e7610328366004612969565b611233565b6101ee61033b3660046127bc565b611280565b6101ee61034e3660046129e8565b61131f565b6102e7610361366004612a38565b611331565b6101ee610374366004612a9c565b6113aa565b6102e7610387366004612b2f565b6114f3565b6102e761039a366004612969565b6115ff565b6103b26103ad366004612969565b61168c565b604080519283526020830191909152016101d2565b6101ee6103d53660046127bc565b611705565b6101ee6103e8366004612b7d565b611851565b6101ee6103fb366004612ba2565b611887565b6102e761040e3660046128b2565b6119df565b60007f9061b923000000000000000000000000000000000000000000000000000000007fffffffff000000000000000000000000000000000000000000000000000000008316145b92915050565b8361046b81611aa5565b61048857604051636bd1573560e11b815260040160405180910390fd5b847f65412581168e88a1e60c6459d7f44ae83ad0832e670826c05a4e2476b57af75285846040516104ba929190612924565b60405180910390a2603c840361051157847f52d7d861f09ab3d26239d492e8968629f95e9e318cf0b73bfddc441522a15fd26104f584611b8d565b6040516001600160a01b03909116815260200160405180910390a25b604080517f62797465733332206e6f64652c75696e7432353620636f696e547970652c627960208201527f7465732061646472657373000000000000000000000000000000000000000000918101919091526000604b820152600160f81b605f8201526105bf90606001604051602081830303815290604052805190602001208560001b858888876040516020016105ab93929190612bd9565b604051602081830303815290604052611bb5565b5050505050565b826105d081611aa5565b6105ed57604051636bd1573560e11b815260040160405180910390fd5b60008060608060008061063a60008a8a8080601f0160208091040260200160405190810160405280939291908181526020018383808284376000920191909152509293925050611c269050565b90505b80515160208201511015610763578561ffff166000036106a2578060400151955061066781611c87565b93508360405160200161067a9190612bf8565b60405160208183030381529060405280519060200120915061069b81611ca8565b9250610755565b60006106ad82611c87565b9050816040015161ffff168761ffff161415806106d157506106cf8582611cc4565b155b156107535761072c8b86898d8d8080601f016020809104026020016040519081016040528093929190818152602001838380828437600092019190915250505060208801518c9150610724908290612c2a565b8a5115611ce2565b81604001519650816020015195508094508480519060200120925061075082611ca8565b93505b505b61075e816120bb565b61063d565b508251156107bd576107bd8984878b8b8080601f0160208091040260200160405190810160405280939291908181526020018383808284376000920191909152508b92506107b591508290508e612c2a565b885115611ce2565b505050505050505050565b6105bf856000868686866113aa565b604080517f62797465733332206e6f64652c62797465733420696e7465726661636549442c60208201527f6164647265737320696d706c656d656e7465720000000000000000000000000091810191909152600060538201819052600160f81b606783015290819061088390859060680160405160208183030381529060405280519060200120857bffffffffffffffffffffffffffffffffffffffffffffffffffffffff19166121a3565b9050600080825111156108a957818060200190518101906108a49190612c3d565b925050505b6001600160a01b038116156108c157915061045b9050565b60006108cc86610dee565b90506001600160a01b0381166108e8576000935050505061045b565b6040516301ffc9a760e01b602482015260009081906001600160a01b0384169060440160408051601f198184030181529181526020820180517bffffffffffffffffffffffffffffffffffffffffffffffffffffffff166301ffc9a760e01b179052516109559190612bf8565b600060405180830381855afa9150503d8060008114610990576040519150601f19603f3d011682016040523d82523d6000602084013e610995565b606091505b50915091508115806109a8575060208151105b806109ea575080601f815181106109c1576109c1612c75565b01602001517fff0000000000000000000000000000000000000000000000000000000000000016155b156109fd5760009550505050505061045b565b6040517fffffffff00000000000000000000000000000000000000000000000000000000881660248201526001600160a01b0384169060440160408051601f198184030181529181526020820180517bffffffffffffffffffffffffffffffffffffffffffffffffffffffff166301ffc9a760e01b17905251610a809190612bf8565b600060405180830381855afa9150503d8060008114610abb576040519150601f19603f3d011682016040523d82523d6000602084013e610ac0565b606091505b509092509050811580610ad4575060208151105b80610b16575080601f81518110610aed57610aed612c75565b01602001517fff0000000000000000000000000000000000000000000000000000000000000016155b15610b295760009550505050505061045b565b50909695505050505050565b6000606060015b838111610c1457604080517f62797465733332206e6f64652c75696e7432353620636f6e74656e74547970656020808301919091527f2c62797465732061626900000000000000000000000000000000000000000000828401526000604a8301819052600160f81b605e8401528351603f818503018152605f9093019093528151910120610bcc908790846121a3565b905081851615801590610be0575060008151115b15610c0b57600081806020019051810190610bfb9190612cd0565b949650939450610c299350505050565b5060011b610b3c565b50506040805160208101909152600080825291505b9250929050565b82610c3a81611aa5565b610c5757604051636bd1573560e11b815260040160405180910390fd5b604080517f62797465733332206e6f64652c6279746573333220782c6279746573333220796020820152600091810191909152600160f81b6054820152610ce29060550160408051601f19818403018152828252805160209182012090830188905290820186905260608201859052906000906080015b604051602081830303815290604052612243565b604080518481526020810184905285917f1d6f5e03d3f63eb58751986629a5439baee5079ff04f345becb66e23eb154e4691015b60405180910390a250505050565b82610d2e81611aa5565b610d4b57604051636bd1573560e11b815260040160405180910390fd5b6040517f62797465733332206e6f64652c62797465732068617368000000000000000000602082015260006037820152600160f81b604b820152610dbc90604c015b604051602081830303815290604052805190602001206000801b868686604051602001610cce93929190612d41565b837fe379c1624ed7e714cc0937528a32359d69d5281337765313dba4e081b72d75788484604051610d16929190612d5b565b600080610dfc83603c6119df565b90508051600003610e105750600092915050565b610e1981611b8d565b9392505050565b6000610e2c8383610e39565b61ffff1615159392505050565b604080517f62797465733332206e6f64652c62797465733332206e616d65486173682c756960208201527f6e74313620636f756e7400000000000000000000000000000000000000000000918101919091526000604a8201819052600160f81b605e830152908190610ec6908590605f0160405160208183030381529060405280519060200120856121a3565b90508051600003610edb57600091505061045b565b600081806020019051810190610ef19190612d6f565b979650505050505050565b604080517f62797465733332206e6f64652c737472696e67206b65792c737472696e67207660208201527f616c75650000000000000000000000000000000000000000000000000000000091810191909152600060448201819052600160f81b6058830152606091610fb1908690605901604051602081830303815290604052805190602001208686604051602001610f96929190612d9d565b604051602081830303815290604052805190602001206121a3565b90508051600003610fd2575050604080516020810190915260008152610e19565b80806020019051810190610ef19190612dad565b6040517f62797465733332206e6f64652c6279746573207a6f6e6568617368657300000060208201526000603d8201819052600160f81b605183015260609161104e9084906052015b604051602081830303815290604052805190602001206000801b6121a3565b9050805160000361106f575050604080516020810190915260008152919050565b808060200190518101906110839190612e10565b949350505050565b8361109581611aa5565b6110b257604051636bd1573560e11b815260040160405180910390fd5b836110be600182612c2a565b16156110c957600080fd5b600082900361116457604080517f62797465733332206e6f64652c75696e7432353620636f6e74656e745479706560208201527f2c62797465732061626900000000000000000000000000000000000000000000918101919091526000604a820152600160f81b605e82015261115f908690605f01604051602081830303815290604052805190602001208660001b60006122b1565b6111ff565b604080517f62797465733332206e6f64652c75696e7432353620636f6e74656e745479706560208201527f2c62797465732061626900000000000000000000000000000000000000000000918101919091526000604a820152600160f81b605e8201526111ff90605f01604051602081830303815290604052805190602001208560001b87878787604051602001610cce9493929190612e4d565b604051849086907faa121bbeef5f32f5961a2a28966e769023910fc9479059ee3495d4c1a696efe390600090a35050505050565b6040517f62797465733332206e6f64652c737472696e67206e616d6500000000000000006020820152600060388201819052600160f81b604c83015260609161104e908490604d0161102f565b8261128a81611aa5565b6112a757604051636bd1573560e11b815260040160405180910390fd5b6040517f62797465733332206e6f64652c737472696e67206e616d650000000000000000602082015260006038820152600160f81b604c8201526112ed90604d01610d8d565b837fb7d29e911041e8d9b843369e890bcb72c9388692ba48b65ac54e7214c4c348f78484604051610d16929190612d5b565b61132c8383600084610461565b505050565b6060600080306001600160a01b03168460405161134e9190612bf8565b600060405180830381855afa9150503d8060008114611389576040519150601f19603f3d011682016040523d82523d6000602084013e61138e565b606091505b509150915081156113a257915061045b9050565b805160208201fd5b856113b481611aa5565b6113d157604051636bd1573560e11b815260040160405180910390fd5b604080517f62797465733332206e6f64652c737472696e67206b65792c737472696e67207660208201527f616c7565000000000000000000000000000000000000000000000000000000009181019190915260006044820152600160f81b605882015261149490605901604051602081830303815290604052805190602001208686604051602001611464929190612d9d565b60405160208183030381529060405280519060200120888a898989896040516020016105ab959493929190612e77565b84846040516114a4929190612d9d565b6040518091039020877f448bc014f1536726cf8d54ff3d6481ed3cbc683c2591ca204274009afa09b1a1878787876040516114e29493929190612eb0565b60405180910390a350505050505050565b604080517f62797465733332206e6f64652c62797465733332206e616d65486173682c756960208201527f6e743136207265736f757263652c62797465732064617461000000000000000091810191909152600060588201819052600160f81b606c8301526060916115bb908690606d01604051602081830303815290604052805190602001208686604051602001610f9692919091825260f01b7fffff00000000000000000000000000000000000000000000000000000000000016602082015260220190565b905080516000036115dc575050604080516020810190915260008152610e19565b6000818060200190518101906115f29190612ed7565b9998505050505050505050565b6040517f62797465733332206e6f64652c627974657320686173680000000000000000006020820152600060378201819052600160f81b604b83015260609161164c908490604c0161102f565b9050805160000361166d575050604080516020810190915260008152919050565b6000818060200190518101906116839190612e10565b95945050505050565b604080517f62797465733332206e6f64652c6279746573333220782c62797465733332207960208201526000918101829052600160f81b6054820152819081906116da90859060550161102f565b8051909150156116ff57808060200190518101906116f89190612f2f565b9094509250505b50915091565b8261170f81611aa5565b61172c57604051636bd1573560e11b815260040160405180910390fd5b6040517f62797465733332206e6f64652c6279746573207a6f6e6568617368657300000060208201526000603d8201819052600160f81b60518301529061177790869060520161102f565b9050606060008251111561179d57818060200190518101906117999190612e10565b9150505b6040517f62797465733332206e6f64652c6279746573207a6f6e6568617368657300000060208201526000603d820152600160f81b605182015261180d90605201604051602081830303815290604052805190602001206000801b888888604051602001610cce93929190612d41565b857f8f15ed4b723ef428f250961da8315675b507046737e19319fc1a4d81bfe87f8582878760405161184193929190612f5d565b60405180910390a2505050505050565b8161185b81611aa5565b61187857604051636bd1573560e11b815260040160405180910390fd5b61132c83603c61034e85612317565b8261189181611aa5565b6118ae57604051636bd1573560e11b815260040160405180910390fd5b604080517f62797465733332206e6f64652c62797465733420696e7465726661636549442c60208201527f6164647265737320696d706c656d656e746572000000000000000000000000009181019190915260006053820152600160f81b60678201526119779060680160408051601f1981840301815282825280516020918201209083018890527fffffffff0000000000000000000000000000000000000000000000000000000087169183018290526001600160a01b038616606084015291608001610cce565b6040516001600160a01b03831681527fffffffff0000000000000000000000000000000000000000000000000000000084169085907f7c69f06bea0bdef565b709e93a147836b0063ba2dd89f02d0b7e8d931e6a6daa9060200160405180910390a350505050565b604080517f62797465733332206e6f64652c75696e7432353620636f696e547970652c627960208201527f7465732061646472657373000000000000000000000000000000000000000000918101919091526000604b8201819052600160f81b605f830152606091611a6e9085908401604051602081830303815290604052805190602001208560001b6121a3565b90508051600003611a8f57505060408051602081019091526000815261045b565b600081806020019051810190610ef19190612cd0565b60408051336024820152604480820184905282518083039091018152606490910182526020810180517bffffffffffffffffffffffffffffffffffffffffffffffffffffffff167f25f36704000000000000000000000000000000000000000000000000000000001790529051600091829182913091611b259190612bf8565b600060405180830381855afa9150503d8060008114611b60576040519150601f19603f3d011682016040523d82523d6000602084013e611b65565b606091505b509150915081611b79575060009392505050565b808060200190518101906110839190612f83565b60008151601414611b9d57600080fd5b50602001516c01000000000000000000000000900490565b611bbd612350565b6001600160a01b031663f806f52a858585856040518563ffffffff1660e01b8152600401611bee9493929190612fa5565b600060405180830381600087803b158015611c0857600080fd5b505af1158015611c1c573d6000803e3d6000fd5b5050505050505050565b611c746040518060e001604052806060815260200160008152602001600061ffff168152602001600061ffff168152602001600063ffffffff16815260200160008152602001600081525090565b82815260c0810182905261045b816120bb565b6020810151815160609161045b91611c9f90826123c0565b8451919061241a565b60a081015160c082015160609161045b91611c9f908290612c2a565b600081518351148015610e195750610e19836000846000875161249c565b855160208701206000611cf686868661241a565b90506000611d058a848a6114f3565b90506000611d138b85610e39565b90508415611ef457815115611dd557604080517f62797465733332206e6f64652c62797465733332206e616d65486173682c756960208201527f6e74313620636f756e7400000000000000000000000000000000000000000000918101919091526000604a820152600160f81b605e820152611dd590605f0160405160208183030381529060405280519060200120858d87600186611db29190612fca565b60408051602081019490945283019190915261ffff166060820152608001610cce565b604080517f62797465733332206e6f64652c62797465733332206e616d65486173682c756960208201527f6e743136207265736f757263652c6279746573206461746100000000000000009181019190915260006058820152600160f81b606c820152611eb5908c90606d0160405160208183030381529060405280519060200120868c604051602001611e9892919091825260f01b7fffff00000000000000000000000000000000000000000000000000000000000016602082015260220190565b6040516020818303038152906040528051906020012060006122b1565b8a7f03528ed0c2a3ebc993b12ce3c16bb382f9c7d88ef7d8a1bf290eaf35955a12078b8b604051611ee7929190612fec565b60405180910390a26120ae565b8151600003611f8d57604080517f62797465733332206e6f64652c62797465733332206e616d65486173682c756960208201527f6e74313620636f756e7400000000000000000000000000000000000000000000918101919091526000604a820152600160f81b605e820152611f8d90605f0160405160208183030381529060405280519060200120858d87856001611db29190613012565b604080517f62797465733332206e6f64652c62797465733332206e616d65486173682c75696020808301919091527f6e743136207265736f757263652c6279746573206461746100000000000000008284015260006058830152600160f81b606c8301528251604d818403018152606d83019093528251920191909120608d82018690527fffff00000000000000000000000000000000000000000000000000000000000060f08c901b1660ad8301526120719160af01604051602081830303815290604052805190602001208d878d88604051602001610cce949392919061302d565b8a7f52a608b3303a48862d07a73d82fa221318c0027fbbcfb1b2329bface3f19ff2b8b8b866040516120a593929190613056565b60405180910390a25b5050505050505050505050565b60c081015160208201819052815151116120d25750565b60006120e6826000015183602001516123c0565b82602001516120f59190613085565b825190915061210490826124bf565b61ffff166040830152612118600282613085565b825190915061212790826124bf565b61ffff16606083015261213b600282613085565b825190915061214a90826124e7565b63ffffffff166080830152612160600482613085565b825190915060009061217290836124bf565b61ffff169050612183600283613085565b60a0840181905291506121968183613085565b60c0909301929092525050565b60606121ad612350565b6040517f4a91b8820000000000000000000000000000000000000000000000000000000081526004810186905260248101859052604481018490526001600160a01b039190911690634a91b88290606401600060405180830381865afa15801561221b573d6000803e3d6000fd5b505050506040513d6000823e601f3d908101601f191682016040526110839190810190613098565b61224b612350565b6001600160a01b0316633e57d2698484846040518463ffffffff1660e01b815260040161227a93929190612bd9565b600060405180830381600087803b15801561229457600080fd5b505af11580156122a8573d6000803e3d6000fd5b50505050505050565b6122b9612350565b6040517fcb81facd00000000000000000000000000000000000000000000000000000000815260048101869052602481018590526044810184905282151560648201526001600160a01b03919091169063cb81facd90608401611bee565b6040805160148082528183019092526060916020820181803683375050506c010000000000000000000000009290920260208301525090565b600061235a612511565b6001600160a01b0316635ea1d46a6040518163ffffffff1660e01b8152600401602060405180830381865afa158015612397573d6000803e3d6000fd5b505050506040513d601f19601f820116820180604052508101906123bb91906130cd565b905090565b6000815b835181106123d4576123d46130ea565b60006123e08583612551565b60ff1690506123f0816001613085565b6123fa9083613085565b91508060000361240a5750612410565b506123c4565b6110838382612c2a565b82516060906124298385613085565b111561243457600080fd5b60008267ffffffffffffffff81111561244f5761244f61265b565b6040519080825280601f01601f191660200182016040528015612479576020820181803683370190505b50905060208082019086860101612491828287612575565b509095945050505050565b60006124a98484846125e9565b6124b48787856125e9565b149695505050505050565b81516000906124cf836002613085565b11156124da57600080fd5b50016002015161ffff1690565b81516000906124f7836004613085565b111561250257600080fd5b50016004015163ffffffff1690565b6000306001600160a01b0316637b1039996040518163ffffffff1660e01b8152600401602060405180830381865afa158015612397573d6000803e3d6000fd5b600082828151811061256557612565612c75565b016020015160f81c905092915050565b602081106125ad578151835261258c602084613085565b9250612599602083613085565b91506125a6602082612c2a565b9050612575565b905182516020929092036101000a7fffffffffffffffffffffffffffffffffffffffffffffffffffffffffffffffff0180199091169116179052565b82516000906125f88385613085565b111561260357600080fd5b5091016020012090565b7fffffffff000000000000000000000000000000000000000000000000000000008116811461263b57600080fd5b50565b60006020828403121561265057600080fd5b8135610e198161260d565b634e487b7160e01b600052604160045260246000fd5b604051601f8201601f1916810167ffffffffffffffff8111828210171561269a5761269a61265b565b604052919050565b600067ffffffffffffffff8211156126bc576126bc61265b565b50601f01601f191660200190565b600082601f8301126126db57600080fd5b81356126ee6126e9826126a2565b612671565b81815284602083860101111561270357600080fd5b816020850160208301376000918101602001919091529392505050565b6000806000806080858703121561273657600080fd5b843593506020850135925060408501359150606085013567ffffffffffffffff81111561276257600080fd5b61276e878288016126ca565b91505092959194509250565b60008083601f84011261278c57600080fd5b50813567ffffffffffffffff8111156127a457600080fd5b602083019150836020828501011115610c2957600080fd5b6000806000604084860312156127d157600080fd5b83359250602084013567ffffffffffffffff8111156127ef57600080fd5b6127fb8682870161277a565b9497909650939450505050565b60008060008060006060868803121561282057600080fd5b85359450602086013567ffffffffffffffff8082111561283f57600080fd5b61284b89838a0161277a565b9096509450604088013591508082111561286457600080fd5b506128718882890161277a565b969995985093965092949392505050565b6000806040838503121561289557600080fd5b8235915060208301356128a78161260d565b809150509250929050565b600080604083850312156128c557600080fd5b50508035926020909101359150565b60005b838110156128ef5781810151838201526020016128d7565b50506000910152565b600081518084526129108160208601602086016128d4565b601f01601f19169290920160200192915050565b82815260406020820152600061108360408301846128f8565b60008060006060848603121561295257600080fd5b505081359360208301359350604090920135919050565b60006020828403121561297b57600080fd5b5035919050565b602081526000610e1960208301846128f8565b600080600080606085870312156129ab57600080fd5b8435935060208501359250604085013567ffffffffffffffff8111156129d057600080fd5b6129dc8782880161277a565b95989497509550505050565b6000806000606084860312156129fd57600080fd5b8335925060208401359150604084013567ffffffffffffffff811115612a2257600080fd5b612a2e868287016126ca565b9150509250925092565b60008060408385031215612a4b57600080fd5b823567ffffffffffffffff80821115612a6357600080fd5b612a6f868387016126ca565b93506020850135915080821115612a8557600080fd5b50612a92858286016126ca565b9150509250929050565b60008060008060008060808789031215612ab557600080fd5b8635955060208701359450604087013567ffffffffffffffff80821115612adb57600080fd5b612ae78a838b0161277a565b90965094506060890135915080821115612b0057600080fd5b50612b0d89828a0161277a565b979a9699509497509295939492505050565b61ffff8116811461263b57600080fd5b600080600060608486031215612b4457600080fd5b83359250602084013591506040840135612b5d81612b1f565b809150509250925092565b6001600160a01b038116811461263b57600080fd5b60008060408385031215612b9057600080fd5b8235915060208301356128a781612b68565b600080600060608486031215612bb757600080fd5b833592506020840135612bc98161260d565b91506040840135612b5d81612b68565b83815282602082015260606040820152600061168360608301846128f8565b60008251612c0a8184602087016128d4565b9190910192915050565b634e487b7160e01b600052601160045260246000fd5b8181038181111561045b5761045b612c14565b600080600060608486031215612c5257600080fd5b835192506020840151612c648161260d565b6040850151909250612b5d81612b68565b634e487b7160e01b600052603260045260246000fd5b600082601f830112612c9c57600080fd5b8151612caa6126e9826126a2565b818152846020838601011115612cbf57600080fd5b6110838260208301602087016128d4565b600080600060608486031215612ce557600080fd5b8351925060208401519150604084015167ffffffffffffffff811115612d0a57600080fd5b612a2e86828701612c8b565b818352818160208501375060006020828401015260006020601f19601f840116840101905092915050565b838152604060208201526000611683604083018486612d16565b602081526000611083602083018486612d16565b600080600060608486031215612d8457600080fd5b83519250602084015191506040840151612b5d81612b1f565b8183823760009101908152919050565b600080600060608486031215612dc257600080fd5b83519250602084015167ffffffffffffffff80821115612de157600080fd5b612ded87838801612c8b565b93506040860151915080821115612e0357600080fd5b50612a2e86828701612c8b565b60008060408385031215612e2357600080fd5b82519150602083015167ffffffffffffffff811115612e4157600080fd5b612a9285828601612c8b565b848152836020820152606060408201526000612e6d606083018486612d16565b9695505050505050565b858152606060208201526000612e91606083018688612d16565b8281036040840152612ea4818587612d16565b98975050505050505050565b604081526000612ec4604083018688612d16565b8281036020840152610ef1818587612d16565b60008060008060808587031215612eed57600080fd5b84519350602085015192506040850151612f0681612b1f565b606086015190925067ffffffffffffffff811115612f2357600080fd5b61276e87828801612c8b565b600080600060608486031215612f4457600080fd5b8351925060208401519150604084015190509250925092565b604081526000612f7060408301866128f8565b8281036020840152612e6d818587612d16565b600060208284031215612f9557600080fd5b81518015158114610e1957600080fd5b848152836020820152826040820152608060608201526000612e6d60808301846128f8565b61ffff828116828216039080821115612fe557612fe5612c14565b5092915050565b604081526000612fff60408301856128f8565b905061ffff831660208301529392505050565b61ffff818116838216019080821115612fe557612fe5612c14565b84815283602082015261ffff83166040820152608060608201526000612e6d60808301846128f8565b60608152600061306960608301866128f8565b61ffff851660208401528281036040840152612e6d81856128f8565b8082018082111561045b5761045b612c14565b6000602082840312156130aa57600080fd5b815167ffffffffffffffff8111156130c157600080fd5b61108384828501612c8b565b6000602082840312156130df57600080fd5b8151610e1981612b68565b634e487b7160e01b600052600160045260246000fdfea264697066735822122012855869271b368b7e7f0a762855802e750a0e53080389eafdec009b8bfe5b5764736f6c63430008130033",
  "linkReferences": {},
  "deployedLinkReferences": {}
}