{
  "_format": "hh-sol-artifact-1",
  "contractName": "AttestationStation",
  "sourceName": "contracts/attestation/AttestationStation.sol",
  "abi": [
    {
      "inputs": [],
      "stateMutability": "nonpayable",
      "type": "constructor"
    },
    {
      "anonymous": false,
      "inputs": [
        {
          "indexed": true,
          "internalType": "address",
          "name": "creator",
          "type": "address"
        },
        {
          "indexed": true,
          "internalType": "address",
          "name": "about",
          "type": "address"
        },
        {
          "indexed": true,
          "internalType": "bytes32",
          "name": "key",
          "type": "bytes32"
        },
        {
          "indexed": false,
          "internalType": "bytes",
          "name": "val",
          "type": "bytes"
        }
      ],
      "name": "AttestationCreated",
      "type": "event"
    },
    {
      "inputs": [
        {
          "components": [
            {
              "internalType": "address",
              "name": "about",
              "type": "address"
            },
            {
              "internalType": "bytes32",
              "name": "key",
              "type": "bytes32"
            },
            {
              "internalType": "bytes",
              "name": "val",
              "type": "bytes"
            }
          ],
          "internalType": "struct AttestationStation.AttestationData[]",
          "name": "_attestations",
          "type": "tuple[]"
        }
      ],
      "name": "attest",
      "outputs": [],
      "stateMutability": "nonpayable",
      "type": "function"
    },
    {
      "inputs": [
        {
          "internalType": "address",
          "name": "_about",
          "type": "address"
        },
        {
          "internalType": "bytes32",
          "name": "_key",
          "type": "bytes32"
        },
        {
          "internalType": "bytes",
          "name": "_val",
          "type": "bytes"
        }
      ],
      "name": "attest",
      "outputs": [],
      "stateMutability": "nonpayable",
      "type": "function"
    },
    {
      "inputs": [
        {
          "internalType": "address",
          "name": "",
          "type": "address"
        },
        {
          "internalType": "address",
          "name": "",
          "type": "address"
        },
        {
          "internalType": "bytes32",
          "name": "",
          "type": "bytes32"
        }
      ],
      "name": "attestations",
      "outputs": [
        {
          "internalType": "bytes",
          "name": "",
          "type": "bytes"
        }
      ],
      "stateMutability": "view",
      "type": "function"
    },
    {
      "inputs": [],
      "name": "version",
      "outputs": [
        {
          "internalType": "string",
          "name": "",
          "type": "string"
        }
      ],
      "stateMutability": "view",
      "type": "function"
    }
  ],
  "bytecode": "0x60e060405234801561001057600080fd5b506001608081905260a052600060c05260805160a05160c05161098c61004f60003960006101ad015260006101840152600061015b015261098c6000f3fe608060405234801561001057600080fd5b506004361061004c5760003560e01c806329b42cb51461005157806354fd4d501461007a5780635eb5ea1014610082578063702b9dee14610097575b600080fd5b61006461005f3660046104b2565b6100aa565b604051610071919061053e565b60405180910390f35b610064610154565b610095610090366004610558565b6101f7565b005b6100956100a5366004610670565b61025a565b60006020818152938152604080822085529281528281209093528252902080546100d3906106c7565b80601f01602080910402602001604051908101604052809291908181526020018280546100ff906106c7565b801561014c5780601f106101215761010080835404028352916020019161014c565b820191906000526020600020905b81548152906001019060200180831161012f57829003601f168201915b505050505081565b606061017f7f0000000000000000000000000000000000000000000000000000000000000000610306565b6101a87f0000000000000000000000000000000000000000000000000000000000000000610306565b6101d17f0000000000000000000000000000000000000000000000000000000000000000610306565b6040516020016101e393929190610701565b604051602081830303815290604052905090565b8060005b8181101561025457600084848381811061021757610217610777565b9050602002810190610229919061078d565b610232906107cb565b905061024b81600001518260200151836040015161025a565b506001016101fb565b50505050565b3360009081526020818152604080832073ffffffffffffffffffffffffffffffffffffffff871684528252808320858452909152902061029a8282610896565b50818373ffffffffffffffffffffffffffffffffffffffff163373ffffffffffffffffffffffffffffffffffffffff167f28710dfecab43d1e29e02aa56b2e1e610c0bae19135c9cf7a83a1adb6df96d85846040516102f9919061053e565b60405180910390a4505050565b60606000610313836103a6565b600101905060008167ffffffffffffffff811115610333576103336105cd565b6040519080825280601f01601f19166020018201604052801561035d576020820181803683370190505b5090508181016020015b600019017f3031323334353637383961626364656600000000000000000000000000000000600a86061a8153600a850494508461036757509392505050565b6000807a184f03e93ff9f4daa797ed6e38ed64bf6a1f01000000000000000083106103ef577a184f03e93ff9f4daa797ed6e38ed64bf6a1f010000000000000000830492506040015b6d04ee2d6d415b85acef8100000000831061041b576d04ee2d6d415b85acef8100000000830492506020015b662386f26fc10000831061043957662386f26fc10000830492506010015b6305f5e1008310610451576305f5e100830492506008015b612710831061046557612710830492506004015b60648310610477576064830492506002015b600a8310610483576001015b92915050565b803573ffffffffffffffffffffffffffffffffffffffff811681146104ad57600080fd5b919050565b6000806000606084860312156104c757600080fd5b6104d084610489565b92506104de60208501610489565b9150604084013590509250925092565b60005b838110156105095781810151838201526020016104f1565b50506000910152565b6000815180845261052a8160208601602086016104ee565b601f01601f19169290920160200192915050565b6020815260006105516020830184610512565b9392505050565b6000806020838503121561056b57600080fd5b823567ffffffffffffffff8082111561058357600080fd5b818501915085601f83011261059757600080fd5b8135818111156105a657600080fd5b8660208260051b85010111156105bb57600080fd5b60209290920196919550909350505050565b634e487b7160e01b600052604160045260246000fd5b600082601f8301126105f457600080fd5b813567ffffffffffffffff8082111561060f5761060f6105cd565b604051601f8301601f19908116603f01168101908282118183101715610637576106376105cd565b8160405283815286602085880101111561065057600080fd5b836020870160208301376000602085830101528094505050505092915050565b60008060006060848603121561068557600080fd5b61068e84610489565b925060208401359150604084013567ffffffffffffffff8111156106b157600080fd5b6106bd868287016105e3565b9150509250925092565b600181811c908216806106db57607f821691505b6020821081036106fb57634e487b7160e01b600052602260045260246000fd5b50919050565b600084516107138184602089016104ee565b80830190507f2e00000000000000000000000000000000000000000000000000000000000000808252855161074f816001850160208a016104ee565b6001920191820152835161076a8160028401602088016104ee565b0160020195945050505050565b634e487b7160e01b600052603260045260246000fd5b600082357fffffffffffffffffffffffffffffffffffffffffffffffffffffffffffffffa18336030181126107c157600080fd5b9190910192915050565b6000606082360312156107dd57600080fd5b6040516060810167ffffffffffffffff8282108183111715610801576108016105cd565b8160405261080e85610489565b835260208501356020840152604085013591508082111561082e57600080fd5b5061083b368286016105e3565b60408301525092915050565b601f82111561089157600081815260208120601f850160051c8101602086101561086e5750805b601f850160051c820191505b8181101561088d5782815560010161087a565b5050505b505050565b815167ffffffffffffffff8111156108b0576108b06105cd565b6108c4816108be84546106c7565b84610847565b602080601f8311600181146108f957600084156108e15750858301515b600019600386901b1c1916600185901b17855561088d565b600085815260208120601f198616915b8281101561092857888601518255948401946001909101908401610909565b50858210156109465787850151600019600388901b60f8161c191681555b5050505050600190811b0190555056fea2646970667358221220dd6bae4b176efeef7794fadbdc674383ec325a263a7e2891aa8d7d3390306ca864736f6c63430008130033",
  "linkReferences": {},
  "deployedLinkReferences": {}
}