{
  "_format": "hh-sol-artifact-1",
  "contractName": "OptiDomainsAttestation",
  "sourceName": "contracts/attestation/OptiDomainsAttestation.sol",
  "abi": [
    {
      "inputs": [
        {
          "internalType": "contract INameWrapperRegistry",
          "name": "_registry",
          "type": "address"
        },
        {
          "internalType": "address",
          "name": "_activationController",
          "type": "address"
        }
      ],
      "stateMutability": "nonpayable",
      "type": "constructor"
    },
    {
      "inputs": [
        {
          "internalType": "address",
          "name": "caller",
          "type": "address"
        },
        {
          "internalType": "address",
          "name": "resolver",
          "type": "address"
        }
      ],
      "name": "NotResolver",
      "type": "error"
    },
    {
      "anonymous": false,
      "inputs": [
        {
          "indexed": true,
          "internalType": "bytes32",
          "name": "node",
          "type": "bytes32"
        },
        {
          "indexed": true,
          "internalType": "bytes32",
          "name": "schema",
          "type": "bytes32"
        },
        {
          "indexed": true,
          "internalType": "bytes32",
          "name": "key",
          "type": "bytes32"
        },
        {
          "indexed": false,
          "internalType": "bytes32",
          "name": "ref",
          "type": "bytes32"
        },
        {
          "indexed": false,
          "internalType": "address",
          "name": "owner",
          "type": "address"
        },
        {
          "indexed": false,
          "internalType": "address",
          "name": "resolver",
          "type": "address"
        },
        {
          "indexed": false,
          "internalType": "bool",
          "name": "toDomain",
          "type": "bool"
        },
        {
          "indexed": false,
          "internalType": "bytes",
          "name": "data",
          "type": "bytes"
        }
      ],
      "name": "Attest",
      "type": "event"
    },
    {
      "anonymous": false,
      "inputs": [
        {
          "indexed": true,
          "internalType": "bytes32",
          "name": "node",
          "type": "bytes32"
        },
        {
          "indexed": true,
          "internalType": "address",
          "name": "owner",
          "type": "address"
        },
        {
          "indexed": false,
          "internalType": "uint256",
          "name": "version",
          "type": "uint256"
        }
      ],
      "name": "IncreaseVersion",
      "type": "event"
    },
    {
      "anonymous": false,
      "inputs": [
        {
          "indexed": true,
          "internalType": "bytes32",
          "name": "node",
          "type": "bytes32"
        },
        {
          "indexed": true,
          "internalType": "bytes32",
          "name": "schema",
          "type": "bytes32"
        },
        {
          "indexed": true,
          "internalType": "bytes32",
          "name": "key",
          "type": "bytes32"
        },
        {
          "indexed": false,
          "internalType": "bool",
          "name": "toDomain",
          "type": "bool"
        },
        {
          "indexed": false,
          "internalType": "bytes32",
          "name": "uid",
          "type": "bytes32"
        }
      ],
      "name": "Revoke",
      "type": "event"
    },
    {
      "inputs": [
        {
          "internalType": "contract EAS",
          "name": "_eas",
          "type": "address"
        },
        {
          "internalType": "uint256",
          "name": "priority",
          "type": "uint256"
        }
      ],
      "name": "activate",
      "outputs": [],
      "stateMutability": "nonpayable",
      "type": "function"
    },
    {
      "inputs": [],
      "name": "activationController",
      "outputs": [
        {
          "internalType": "address",
          "name": "",
          "type": "address"
        }
      ],
      "stateMutability": "view",
      "type": "function"
    },
    {
      "inputs": [
        {
          "internalType": "contract EAS",
          "name": "",
          "type": "address"
        }
      ],
      "name": "activationPriority",
      "outputs": [
        {
          "internalType": "uint256",
          "name": "",
          "type": "uint256"
        }
      ],
      "stateMutability": "view",
      "type": "function"
    },
    {
      "inputs": [
        {
          "internalType": "bytes32",
          "name": "schema",
          "type": "bytes32"
        },
        {
          "internalType": "bytes32",
          "name": "key",
          "type": "bytes32"
        },
        {
          "internalType": "bytes",
          "name": "data",
          "type": "bytes"
        }
      ],
      "name": "attest",
      "outputs": [],
      "stateMutability": "nonpayable",
      "type": "function"
    },
    {
      "inputs": [
        {
          "internalType": "bytes32",
          "name": "schema",
          "type": "bytes32"
        },
        {
          "internalType": "bytes32",
          "name": "key",
          "type": "bytes32"
        },
        {
          "internalType": "bytes32",
          "name": "ref",
          "type": "bytes32"
        },
        {
          "internalType": "bool",
          "name": "toDomain",
          "type": "bool"
        },
        {
          "internalType": "bytes",
          "name": "data",
          "type": "bytes"
        }
      ],
      "name": "attest",
      "outputs": [],
      "stateMutability": "nonpayable",
      "type": "function"
    },
    {
      "inputs": [
        {
          "internalType": "bytes32",
          "name": "schema",
          "type": "bytes32"
        },
        {
          "internalType": "bytes32",
          "name": "key",
          "type": "bytes32"
        },
        {
          "internalType": "bytes32",
          "name": "ref",
          "type": "bytes32"
        },
        {
          "internalType": "bytes",
          "name": "data",
          "type": "bytes"
        }
      ],
      "name": "attest",
      "outputs": [],
      "stateMutability": "nonpayable",
      "type": "function"
    },
    {
      "inputs": [
        {
          "internalType": "bytes32",
          "name": "node",
          "type": "bytes32"
        },
        {
          "internalType": "bytes32",
          "name": "schema",
          "type": "bytes32"
        },
        {
          "internalType": "bytes32",
          "name": "key",
          "type": "bytes32"
        },
        {
          "internalType": "bytes32",
          "name": "ref",
          "type": "bytes32"
        },
        {
          "internalType": "bool",
          "name": "toDomain",
          "type": "bool"
        },
        {
          "internalType": "bytes",
          "name": "data",
          "type": "bytes"
        }
      ],
      "name": "buildAttestation",
      "outputs": [
        {
          "components": [
            {
              "internalType": "bytes32",
              "name": "schema",
              "type": "bytes32"
            },
            {
              "components": [
                {
                  "internalType": "address",
                  "name": "recipient",
                  "type": "address"
                },
                {
                  "internalType": "uint64",
                  "name": "expirationTime",
                  "type": "uint64"
                },
                {
                  "internalType": "bool",
                  "name": "revocable",
                  "type": "bool"
                },
                {
                  "internalType": "bytes32",
                  "name": "refUID",
                  "type": "bytes32"
                },
                {
                  "internalType": "bytes",
                  "name": "data",
                  "type": "bytes"
                },
                {
                  "internalType": "uint256",
                  "name": "value",
                  "type": "uint256"
                }
              ],
              "internalType": "struct AttestationRequestData",
              "name": "data",
              "type": "tuple"
            }
          ],
          "internalType": "struct AttestationRequest",
          "name": "",
          "type": "tuple"
        }
      ],
      "stateMutability": "view",
      "type": "function"
    },
    {
      "inputs": [],
      "name": "eas",
      "outputs": [
        {
          "internalType": "contract EAS",
          "name": "",
          "type": "address"
        }
      ],
      "stateMutability": "view",
      "type": "function"
    },
    {
      "inputs": [
        {
          "internalType": "bytes32",
          "name": "node",
          "type": "bytes32"
        }
      ],
      "name": "increaseVersion",
      "outputs": [],
      "stateMutability": "nonpayable",
      "type": "function"
    },
    {
      "inputs": [
        {
          "internalType": "bytes32",
          "name": "node",
          "type": "bytes32"
        },
        {
          "internalType": "bytes32",
          "name": "schema",
          "type": "bytes32"
        },
        {
          "internalType": "bytes32",
          "name": "key",
          "type": "bytes32"
        },
        {
          "internalType": "bool",
          "name": "toDomain",
          "type": "bool"
        }
      ],
      "name": "read",
      "outputs": [
        {
          "internalType": "bytes",
          "name": "result",
          "type": "bytes"
        }
      ],
      "stateMutability": "view",
      "type": "function"
    },
    {
      "inputs": [
        {
          "internalType": "bytes32",
          "name": "node",
          "type": "bytes32"
        },
        {
          "internalType": "bytes32",
          "name": "schema",
          "type": "bytes32"
        },
        {
          "internalType": "bytes32",
          "name": "key",
          "type": "bytes32"
        }
      ],
      "name": "read",
      "outputs": [
        {
          "internalType": "bytes",
          "name": "",
          "type": "bytes"
        }
      ],
      "stateMutability": "view",
      "type": "function"
    },
    {
      "inputs": [
        {
          "internalType": "bytes32",
          "name": "node",
          "type": "bytes32"
        },
        {
          "internalType": "bytes32",
          "name": "schema",
          "type": "bytes32"
        },
        {
          "internalType": "bytes32",
          "name": "key",
          "type": "bytes32"
        },
        {
          "internalType": "bool",
          "name": "toDomain",
          "type": "bool"
        }
      ],
      "name": "readRaw",
      "outputs": [
        {
          "components": [
            {
              "internalType": "bytes32",
              "name": "uid",
              "type": "bytes32"
            },
            {
              "internalType": "bytes32",
              "name": "schema",
              "type": "bytes32"
            },
            {
              "internalType": "uint64",
              "name": "time",
              "type": "uint64"
            },
            {
              "internalType": "uint64",
              "name": "expirationTime",
              "type": "uint64"
            },
            {
              "internalType": "uint64",
              "name": "revocationTime",
              "type": "uint64"
            },
            {
              "internalType": "bytes32",
              "name": "refUID",
              "type": "bytes32"
            },
            {
              "internalType": "address",
              "name": "recipient",
              "type": "address"
            },
            {
              "internalType": "address",
              "name": "attester",
              "type": "address"
            },
            {
              "internalType": "bool",
              "name": "revocable",
              "type": "bool"
            },
            {
              "internalType": "bytes",
              "name": "data",
              "type": "bytes"
            }
          ],
          "internalType": "struct Attestation",
          "name": "",
          "type": "tuple"
        }
      ],
      "stateMutability": "view",
      "type": "function"
    },
    {
      "inputs": [
        {
          "internalType": "bytes32",
          "name": "node",
          "type": "bytes32"
        },
        {
          "internalType": "bytes32",
          "name": "schema",
          "type": "bytes32"
        },
        {
          "internalType": "bytes32",
          "name": "key",
          "type": "bytes32"
        },
        {
          "internalType": "bool",
          "name": "toDomain",
          "type": "bool"
        }
      ],
      "name": "readRef",
      "outputs": [
        {
          "components": [
            {
              "internalType": "bytes32",
              "name": "uid",
              "type": "bytes32"
            },
            {
              "internalType": "bytes32",
              "name": "schema",
              "type": "bytes32"
            },
            {
              "internalType": "uint64",
              "name": "time",
              "type": "uint64"
            },
            {
              "internalType": "uint64",
              "name": "expirationTime",
              "type": "uint64"
            },
            {
              "internalType": "uint64",
              "name": "revocationTime",
              "type": "uint64"
            },
            {
              "internalType": "bytes32",
              "name": "refUID",
              "type": "bytes32"
            },
            {
              "internalType": "address",
              "name": "recipient",
              "type": "address"
            },
            {
              "internalType": "address",
              "name": "attester",
              "type": "address"
            },
            {
              "internalType": "bool",
              "name": "revocable",
              "type": "bool"
            },
            {
              "internalType": "bytes",
              "name": "data",
              "type": "bytes"
            }
          ],
          "internalType": "struct Attestation",
          "name": "",
          "type": "tuple"
        }
      ],
      "stateMutability": "view",
      "type": "function"
    },
    {
      "inputs": [
        {
          "internalType": "bytes32",
          "name": "node",
          "type": "bytes32"
        }
      ],
      "name": "readVersion",
      "outputs": [
        {
          "internalType": "uint64",
          "name": "",
          "type": "uint64"
        }
      ],
      "stateMutability": "view",
      "type": "function"
    },
    {
      "inputs": [
        {
          "internalType": "bytes32",
          "name": "",
          "type": "bytes32"
        }
      ],
      "name": "records",
      "outputs": [
        {
          "internalType": "bytes32",
          "name": "",
          "type": "bytes32"
        }
      ],
      "stateMutability": "view",
      "type": "function"
    },
    {
      "inputs": [],
      "name": "registry",
      "outputs": [
        {
          "internalType": "contract INameWrapperRegistry",
          "name": "",
          "type": "address"
        }
      ],
      "stateMutability": "view",
      "type": "function"
    },
    {
      "inputs": [
        {
          "internalType": "bytes32",
          "name": "node",
          "type": "bytes32"
        },
        {
          "internalType": "bytes32",
          "name": "schema",
          "type": "bytes32"
        },
        {
          "internalType": "bytes32",
          "name": "key",
          "type": "bytes32"
        },
        {
          "internalType": "bool",
          "name": "toDomain",
          "type": "bool"
        }
      ],
      "name": "revoke",
      "outputs": [],
      "stateMutability": "nonpayable",
      "type": "function"
    },
    {
      "inputs": [
        {
          "internalType": "bytes32",
          "name": "",
          "type": "bytes32"
        },
        {
          "internalType": "address",
          "name": "",
          "type": "address"
        }
      ],
      "name": "versions",
      "outputs": [
        {
          "internalType": "uint64",
          "name": "",
          "type": "uint64"
        }
      ],
      "stateMutability": "view",
      "type": "function"
    }
  ],
  "bytecode": "0x60c06040523480156200001157600080fd5b506040516200204838038062002048833981016040819052620000349162000065565b6001600160a01b039182166080521660a052620000a4565b6001600160a01b03811681146200006257600080fd5b50565b600080604083850312156200007957600080fd5b825162000086816200004c565b602084015190925062000099816200004c565b809150509250929050565b60805160a051611f31620001176000396000818161020e01526110f2015260008181610280015281816103c60152818161047b015281816106f101528181610839015281816109fb01528181610c9c01528181610de30152818161122b0152818161137201526115b80152611f316000f3fe608060405234801561001057600080fd5b50600436106101365760003560e01c80637607823b116100b2578063ca11be6911610081578063cf9dbeb711610066578063cf9dbeb7146102ee578063eff94ac71461033c578063f806f52a1461034f57600080fd5b8063ca11be69146102c8578063cb81facd146102db57600080fd5b80637607823b1461025b5780637b1039991461027b5780638150864d146102a25780638a6f7fe6146102b557600080fd5b80633e57d269116101095780634ac4f681116100ee5780634ac4f681146101e95780636912e70e146102095780636aec62161461024857600080fd5b80633e57d269146101c35780634a91b882146101d657600080fd5b806301e647251461013b57806321af68b71461016e578063274ac54a1461018e5780632d4d6ccf146101ae575b600080fd5b61015b61014936600461174a565b60036020526000908152604090205481565b6040519081526020015b60405180910390f35b61018161017c3660046117bd565b610362565b604051610165919061188a565b6101a161019c36600461190e565b61045c565b604051610165919061194f565b6101c16101bc36600461174a565b6106ed565b005b6101c16101d1366004611969565b61096c565b6101a16101e43660046119bc565b610981565b6101fc6101f736600461190e565b610990565b60405161016591906119e8565b6102307f000000000000000000000000000000000000000000000000000000000000000081565b6040516001600160a01b039091168152602001610165565b6101fc61025636600461190e565b610ba8565b61015b610269366004611acc565b60006020819052908152604090205481565b6102307f000000000000000000000000000000000000000000000000000000000000000081565b600154610230906001600160a01b031681565b6101c16102c3366004611ae9565b610c88565b6101c16102d6366004611b5c565b6110e7565b6101c16102e936600461190e565b611227565b6103236102fc366004611b88565b600260209081526000928352604080842090915290825290205467ffffffffffffffff1681565b60405167ffffffffffffffff9091168152602001610165565b61032361034a36600461174a565b611595565b6101c161035d366004611bb8565b611658565b6103a96040805180820182526000808252825160c08101845281815260208181018390529381018290526060808201839052608082015260a0810191909152909182015290565b60008461043e57604051637dd5641160e01b8152600481018a90527f00000000000000000000000000000000000000000000000000000000000000006001600160a01b031690637dd5641190602401602060405180830381865afa158015610415573d6000803e3d6000fd5b505050506040513d601f19601f820116820180604052508101906104399190611c29565b610440565b885b905061044f818988878761166e565b9998505050505050505050565b60606000826104f357604051637dd5641160e01b8152600481018790527f00000000000000000000000000000000000000000000000000000000000000006001600160a01b031690637dd5641190602401602060405180830381865afa1580156104ca573d6000803e3d6000fd5b505050506040513d601f19601f820116820180604052508101906104ee9190611c29565b6104f5565b855b60015460008881526002602090815260408083206001600160a01b0386811685529083528184205482517fffffffffffffffff00000000000000000000000000000000000000000000000060c092831b1681860152602881018e90526bffffffffffffffffffffffff19606089901b166048820152605c81018d9052607c8082018d905284518083039091018152609c820180865281519187019190912087526003909552928520547fa3112a640000000000000000000000000000000000000000000000000000000090945260a083019390935294955091939092169163a3112a649101600060405180830381865afa1580156105f7573d6000803e3d6000fd5b505050506040513d6000823e601f3d908101601f1916820160405261061f9190810190611d40565b60e08101519091506001600160a01b0316301415806106545750816001600160a01b03168160c001516001600160a01b031614155b80610663575085816020015114155b8061069457506000816060015167ffffffffffffffff16118015610694575042816060015167ffffffffffffffff16105b806106ac5750608081015167ffffffffffffffff1615155b806106be575060208161012001515111155b156106dc5760405180602001604052806000815250925050506106e5565b61012001519150505b949350505050565b60007f00000000000000000000000000000000000000000000000000000000000000006001600160a01b0316633f15457f6040518163ffffffff1660e01b8152600401602060405180830381865afa15801561074d573d6000803e3d6000fd5b505050506040513d601f19601f820116820180604052508101906107719190611c29565b6001600160a01b0316630178b8bf836040518263ffffffff1660e01b815260040161079e91815260200190565b602060405180830381865afa1580156107bb573d6000803e3d6000fd5b505050506040513d601f19601f820116820180604052508101906107df9190611c29565b9050336001600160a01b03821614610820576040516305616a3960e41b81523360048201526001600160a01b03821660248201526044015b60405180910390fd5b604051637dd5641160e01b8152600481018390526000907f00000000000000000000000000000000000000000000000000000000000000006001600160a01b031690637dd5641190602401602060405180830381865afa158015610888573d6000803e3d6000fd5b505050506040513d601f19601f820116820180604052508101906108ac9190611c29565b60008481526002602090815260408083206001600160a01b03851684529091528120805492935067ffffffffffffffff90921691906108ea83611e37565b82546101009290920a67ffffffffffffffff81810219909316918316021790915560008581526002602090815260408083206001600160a01b038716808552908352928190205490519316835290925085917fad223ad5ece7f0f4bf7f6d0cb29d8fe55362076b13b904ec59b2a50cb2b32e49910160405180910390a3505050565b61097b84846000808686610c88565b50505050565b60606106e5848484600061045c565b604080516101408101825260008082526020820181905291810182905260608082018390526080820183905260a0820183905260c0820183905260e0820183905261010082018390526101208201529082610a7357604051637dd5641160e01b8152600481018790527f00000000000000000000000000000000000000000000000000000000000000006001600160a01b031690637dd5641190602401602060405180830381865afa158015610a4a573d6000803e3d6000fd5b505050506040513d601f19601f82011682018060405250810190610a6e9190611c29565b610a75565b855b60015460008881526002602090815260408083206001600160a01b0386811685529083528184205482517fffffffffffffffff00000000000000000000000000000000000000000000000060c092831b1681860152602881018e90526bffffffffffffffffffffffff19606089901b166048820152605c81018d9052607c8082018d905284518083039091018152609c82018086528151918701919091208752600390955292909420547fa3112a640000000000000000000000000000000000000000000000000000000090935260a08201929092529394509091169163a3112a649101600060405180830381865afa158015610b76573d6000803e3d6000fd5b505050506040513d6000823e601f3d908101601f19168201604052610b9e9190810190611d40565b9695505050505050565b604080516101408101825260008082526020820181905291810182905260608082018390526080820183905260a0820183905260c0820183905260e082018390526101008201929092526101208101919091526001546001600160a01b031663a3112a64610c1887878787610990565b60a001516040518263ffffffff1660e01b8152600401610c3a91815260200190565b600060405180830381865afa158015610c57573d6000803e3d6000fd5b505050506040513d6000823e601f3d908101601f19168201604052610c7f9190810190611d40565b95945050505050565b6000610c968284018461174a565b905060007f00000000000000000000000000000000000000000000000000000000000000006001600160a01b0316633f15457f6040518163ffffffff1660e01b8152600401602060405180830381865afa158015610cf8573d6000803e3d6000fd5b505050506040513d601f19601f82011682018060405250810190610d1c9190611c29565b6001600160a01b0316630178b8bf836040518263ffffffff1660e01b8152600401610d4991815260200190565b602060405180830381865afa158015610d66573d6000803e3d6000fd5b505050506040513d601f19601f82011682018060405250810190610d8a9190611c29565b9050336001600160a01b03821614610dc6576040516305616a3960e41b81523360048201526001600160a01b0382166024820152604401610817565b600085610e5b57604051637dd5641160e01b8152600481018490527f00000000000000000000000000000000000000000000000000000000000000006001600160a01b031690637dd5641190602401602060405180830381865afa158015610e32573d6000803e3d6000fd5b505050506040513d601f19601f82011682018060405250810190610e569190611c29565b610e5d565b825b60008481526002602090815260408083206001600160a01b0385168452825280832054815160c09190911b7fffffffffffffffff000000000000000000000000000000000000000000000000168184015260288101889052606085901b6bffffffffffffffffffffffff19166048820152605c81018e9052607c8082018e905282518083039091018152609c9091018252805190830120808452600390925290912054919250908015611000576001546040805180820182528d815281518083018352848152600060208083019190915280830191825292517f469262670000000000000000000000000000000000000000000000000000000081529151600483015251805160248301529091015160448201526001600160a01b0390911690634692626790606401600060405180830381600087803b158015610fa057600080fd5b505af1158015610fb4573d6000803e3d6000fd5b50505050898b867f0ec5301a58e7bde18fda1e4c80da72771baab6c06dee02e6761074aa8fa611098b85604051610ff79291909115158252602082015260400190565b60405180910390a45b506001546000906001600160a01b031663f17325e7611022858e8d8c8c61166e565b6040518263ffffffff1660e01b815260040161103e919061188a565b6020604051808303816000875af115801561105d573d6000803e3d6000fd5b505050506040513d601f19601f820116820180604052508101906110819190611e85565b6000838152600360205260408082209290925590518b92508c9187917f2c70793990cd218759ebeebe6f7f8a216e084c0f7f622241189e39507a86323c916110d3918e9189918b91908f908f90611e9e565b60405180910390a450505050505050505050565b336001600160a01b037f000000000000000000000000000000000000000000000000000000000000000016148061113557506001600160a01b03821660009081526020819052604090205415155b61119b576040517f08c379a000000000000000000000000000000000000000000000000000000000815260206004820152600960248201527f466f7262696464656e00000000000000000000000000000000000000000000006044820152606401610817565b6001600160a01b0382166000908152602081905260409020819055813b63ffffffff1615611223576001546001600160a01b03908116600090815260208190526040808220549285168252902054111561122357600180547fffffffffffffffffffffffff0000000000000000000000000000000000000000166001600160a01b0384161790555b5050565b60007f00000000000000000000000000000000000000000000000000000000000000006001600160a01b0316633f15457f6040518163ffffffff1660e01b8152600401602060405180830381865afa158015611287573d6000803e3d6000fd5b505050506040513d601f19601f820116820180604052508101906112ab9190611c29565b6001600160a01b0316630178b8bf866040518263ffffffff1660e01b81526004016112d891815260200190565b602060405180830381865afa1580156112f5573d6000803e3d6000fd5b505050506040513d601f19601f820116820180604052508101906113199190611c29565b9050336001600160a01b03821614611355576040516305616a3960e41b81523360048201526001600160a01b0382166024820152604401610817565b6000826113ea57604051637dd5641160e01b8152600481018790527f00000000000000000000000000000000000000000000000000000000000000006001600160a01b031690637dd5641190602401602060405180830381865afa1580156113c1573d6000803e3d6000fd5b505050506040513d601f19601f820116820180604052508101906113e59190611c29565b6113ec565b855b60008781526002602090815260408083206001600160a01b0385168452825280832054815160c09190911b7fffffffffffffffff0000000000000000000000000000000000000000000000001681840152602881018b9052606085901b6bffffffffffffffffffffffff19166048820152605c81018a9052607c8082018a905282518083039091018152609c909101825280519083012083526003909152902054909150801561158c5760015460408051808201825288815281518083018352848152600060208083019190915280830191825292517f469262670000000000000000000000000000000000000000000000000000000081529151600483015251805160248301529091015160448201526001600160a01b0390911690634692626790606401600060405180830381600087803b15801561152c57600080fd5b505af1158015611540573d6000803e3d6000fd5b505050508486887f0ec5301a58e7bde18fda1e4c80da72771baab6c06dee02e6761074aa8fa6110987856040516115839291909115158252602082015260400190565b60405180910390a45b50505050505050565b604051637dd5641160e01b81526004810182905260009081906001600160a01b037f00000000000000000000000000000000000000000000000000000000000000001690637dd5641190602401602060405180830381865afa1580156115ff573d6000803e3d6000fd5b505050506040513d601f19601f820116820180604052508101906116239190611c29565b60009384526002602090815260408086206001600160a01b0390931686529190529092205467ffffffffffffffff1692915050565b61166785858560008686610c88565b5050505050565b6116b56040805180820182526000808252825160c08101845281815260208181018390529381018290526060808201839052608082015260a0810191909152909182015290565b60405180604001604052808681526020016040518060c00160405280896001600160a01b03168152602001600067ffffffffffffffff16815260200160011515815260200187815260200186868080601f016020809104026020016040519081016040528093929190818152602001838380828437600092018290525093855250505060209091015290529695505050505050565b60006020828403121561175c57600080fd5b5035919050565b801515811461177157600080fd5b50565b60008083601f84011261178657600080fd5b50813567ffffffffffffffff81111561179e57600080fd5b6020830191508360208285010111156117b657600080fd5b9250929050565b600080600080600080600060c0888a0312156117d857600080fd5b8735965060208801359550604088013594506060880135935060808801356117ff81611763565b925060a088013567ffffffffffffffff81111561181b57600080fd5b6118278a828b01611774565b989b979a50959850939692959293505050565b60005b8381101561185557818101518382015260200161183d565b50506000910152565b6000815180845261187681602086016020860161183a565b601f01601f19169290920160200192915050565b6020815281516020820152600060208301516040808401526001600160a01b03815116606084015267ffffffffffffffff60208201511660808401526040810151151560a0840152606081015160c0840152608081015160c060e08501526118f661012085018261185e565b905060a0820151610100850152809250505092915050565b6000806000806080858703121561192457600080fd5b843593506020850135925060408501359150606085013561194481611763565b939692955090935050565b602081526000611962602083018461185e565b9392505050565b6000806000806060858703121561197f57600080fd5b8435935060208501359250604085013567ffffffffffffffff8111156119a457600080fd5b6119b087828801611774565b95989497509550505050565b6000806000606084860312156119d157600080fd5b505081359360208301359350604090920135919050565b60208152815160208201526020820151604082015260006040830151611a1a606084018267ffffffffffffffff169052565b50606083015167ffffffffffffffff8116608084015250608083015167ffffffffffffffff811660a08401525060a083015160c083015260c0830151611a6b60e08401826001600160a01b03169052565b5060e0830151610100611a88818501836001600160a01b03169052565b8401519050610120611a9d8482018315159052565b8401516101408481015290506106e561016084018261185e565b6001600160a01b038116811461177157600080fd5b600060208284031215611ade57600080fd5b813561196281611ab7565b60008060008060008060a08789031215611b0257600080fd5b8635955060208701359450604087013593506060870135611b2281611763565b9250608087013567ffffffffffffffff811115611b3e57600080fd5b611b4a89828a01611774565b979a9699509497509295939492505050565b60008060408385031215611b6f57600080fd5b8235611b7a81611ab7565b946020939093013593505050565b60008060408385031215611b9b57600080fd5b823591506020830135611bad81611ab7565b809150509250929050565b600080600080600060808688031215611bd057600080fd5b853594506020860135935060408601359250606086013567ffffffffffffffff811115611bfc57600080fd5b611c0888828901611774565b969995985093965092949392505050565b8051611c2481611ab7565b919050565b600060208284031215611c3b57600080fd5b815161196281611ab7565b7f4e487b7100000000000000000000000000000000000000000000000000000000600052604160045260246000fd5b604051610140810167ffffffffffffffff81118282101715611c9957611c99611c46565b60405290565b805167ffffffffffffffff81168114611c2457600080fd5b8051611c2481611763565b600082601f830112611cd357600080fd5b815167ffffffffffffffff80821115611cee57611cee611c46565b604051601f8301601f19908116603f01168101908282118183101715611d1657611d16611c46565b81604052838152866020858801011115611d2f57600080fd5b610b9e84602083016020890161183a565b600060208284031215611d5257600080fd5b815167ffffffffffffffff80821115611d6a57600080fd5b908301906101408286031215611d7f57600080fd5b611d87611c75565b8251815260208301516020820152611da160408401611c9f565b6040820152611db260608401611c9f565b6060820152611dc360808401611c9f565b608082015260a083015160a0820152611dde60c08401611c19565b60c0820152611def60e08401611c19565b60e0820152610100611e02818501611cb7565b908201526101208381015183811115611e1a57600080fd5b611e2688828701611cc2565b918301919091525095945050505050565b600067ffffffffffffffff808316818103611e7b577f4e487b7100000000000000000000000000000000000000000000000000000000600052601160045260246000fd5b6001019392505050565b600060208284031215611e9757600080fd5b5051919050565b86815260006001600160a01b038088166020840152808716604084015250841515606083015260a060808301528260a0830152828460c0840137600060c0848401015260c0601f19601f850116830101905097965050505050505056fea2646970667358221220c906ea4b6efe228a670e00ffc3e05d306729be60bd54acd21561c0e49822cc7864736f6c63430008130033",
  "linkReferences": {},
  "deployedLinkReferences": {}
}