{
  "_format": "hh-sol-artifact-1",
  "contractName": "OptiDomainsAttestation",
  "sourceName": "contracts/attestation/OptiDomainsAttestation.sol",
  "abi": [
    {
      "inputs": [
        {
          "internalType": "contract INameWrapperRegistry",
          "name": "_registry",
          "type": "address"
        },
        {
          "internalType": "address",
          "name": "_activationController",
          "type": "address"
        }
      ],
      "stateMutability": "nonpayable",
      "type": "constructor"
    },
    {
      "inputs": [
        {
          "internalType": "address",
          "name": "caller",
          "type": "address"
        },
        {
          "internalType": "address",
          "name": "resolver",
          "type": "address"
        }
      ],
      "name": "NotResolver",
      "type": "error"
    },
    {
      "anonymous": false,
      "inputs": [
        {
          "indexed": true,
          "internalType": "bytes32",
          "name": "node",
          "type": "bytes32"
        },
        {
          "indexed": true,
          "internalType": "bytes32",
          "name": "schema",
          "type": "bytes32"
        },
        {
          "indexed": true,
          "internalType": "bytes32",
          "name": "key",
          "type": "bytes32"
        },
        {
          "indexed": false,
          "internalType": "bytes32",
          "name": "ref",
          "type": "bytes32"
        },
        {
          "indexed": false,
          "internalType": "address",
          "name": "owner",
          "type": "address"
        },
        {
          "indexed": false,
          "internalType": "address",
          "name": "resolver",
          "type": "address"
        },
        {
          "indexed": false,
          "internalType": "bool",
          "name": "toDomain",
          "type": "bool"
        },
        {
          "indexed": false,
          "internalType": "bytes",
          "name": "data",
          "type": "bytes"
        }
      ],
      "name": "Attest",
      "type": "event"
    },
    {
      "anonymous": false,
      "inputs": [
        {
          "indexed": true,
          "internalType": "bytes32",
          "name": "node",
          "type": "bytes32"
        },
        {
          "indexed": true,
          "internalType": "address",
          "name": "owner",
          "type": "address"
        },
        {
          "indexed": false,
          "internalType": "uint256",
          "name": "version",
          "type": "uint256"
        }
      ],
      "name": "IncreaseVersion",
      "type": "event"
    },
    {
      "anonymous": false,
      "inputs": [
        {
          "indexed": true,
          "internalType": "bytes32",
          "name": "node",
          "type": "bytes32"
        },
        {
          "indexed": true,
          "internalType": "bytes32",
          "name": "schema",
          "type": "bytes32"
        },
        {
          "indexed": true,
          "internalType": "bytes32",
          "name": "key",
          "type": "bytes32"
        },
        {
          "indexed": false,
          "internalType": "bool",
          "name": "toDomain",
          "type": "bool"
        },
        {
          "indexed": false,
          "internalType": "bytes32",
          "name": "uid",
          "type": "bytes32"
        }
      ],
      "name": "Revoke",
      "type": "event"
    },
    {
      "inputs": [
        {
          "internalType": "contract EAS",
          "name": "_eas",
          "type": "address"
        }
      ],
      "name": "activate",
      "outputs": [],
      "stateMutability": "nonpayable",
      "type": "function"
    },
    {
      "inputs": [],
      "name": "activationController",
      "outputs": [
        {
          "internalType": "address",
          "name": "",
          "type": "address"
        }
      ],
      "stateMutability": "view",
      "type": "function"
    },
    {
      "inputs": [
        {
          "internalType": "bytes32",
          "name": "schema",
          "type": "bytes32"
        },
        {
          "internalType": "bytes32",
          "name": "key",
          "type": "bytes32"
        },
        {
          "internalType": "bytes",
          "name": "data",
          "type": "bytes"
        }
      ],
      "name": "attest",
      "outputs": [],
      "stateMutability": "nonpayable",
      "type": "function"
    },
    {
      "inputs": [
        {
          "internalType": "bytes32",
          "name": "schema",
          "type": "bytes32"
        },
        {
          "internalType": "bytes32",
          "name": "key",
          "type": "bytes32"
        },
        {
          "internalType": "bytes32",
          "name": "ref",
          "type": "bytes32"
        },
        {
          "internalType": "bool",
          "name": "toDomain",
          "type": "bool"
        },
        {
          "internalType": "bytes",
          "name": "data",
          "type": "bytes"
        }
      ],
      "name": "attest",
      "outputs": [],
      "stateMutability": "nonpayable",
      "type": "function"
    },
    {
      "inputs": [
        {
          "internalType": "bytes32",
          "name": "schema",
          "type": "bytes32"
        },
        {
          "internalType": "bytes32",
          "name": "key",
          "type": "bytes32"
        },
        {
          "internalType": "bytes32",
          "name": "ref",
          "type": "bytes32"
        },
        {
          "internalType": "bytes",
          "name": "data",
          "type": "bytes"
        }
      ],
      "name": "attest",
      "outputs": [],
      "stateMutability": "nonpayable",
      "type": "function"
    },
    {
      "inputs": [
        {
          "internalType": "bytes32",
          "name": "node",
          "type": "bytes32"
        },
        {
          "internalType": "bytes32",
          "name": "schema",
          "type": "bytes32"
        },
        {
          "internalType": "bytes32",
          "name": "key",
          "type": "bytes32"
        },
        {
          "internalType": "bytes32",
          "name": "ref",
          "type": "bytes32"
        },
        {
          "internalType": "bool",
          "name": "toDomain",
          "type": "bool"
        },
        {
          "internalType": "bytes",
          "name": "data",
          "type": "bytes"
        }
      ],
      "name": "buildAttestation",
      "outputs": [
        {
          "components": [
            {
              "internalType": "bytes32",
              "name": "schema",
              "type": "bytes32"
            },
            {
              "components": [
                {
                  "internalType": "address",
                  "name": "recipient",
                  "type": "address"
                },
                {
                  "internalType": "uint64",
                  "name": "expirationTime",
                  "type": "uint64"
                },
                {
                  "internalType": "bool",
                  "name": "revocable",
                  "type": "bool"
                },
                {
                  "internalType": "bytes32",
                  "name": "refUID",
                  "type": "bytes32"
                },
                {
                  "internalType": "bytes",
                  "name": "data",
                  "type": "bytes"
                },
                {
                  "internalType": "uint256",
                  "name": "value",
                  "type": "uint256"
                }
              ],
              "internalType": "struct AttestationRequestData",
              "name": "data",
              "type": "tuple"
            }
          ],
          "internalType": "struct AttestationRequest",
          "name": "",
          "type": "tuple"
        }
      ],
      "stateMutability": "view",
      "type": "function"
    },
    {
      "inputs": [],
      "name": "eas",
      "outputs": [
        {
          "internalType": "contract EAS",
          "name": "",
          "type": "address"
        }
      ],
      "stateMutability": "view",
      "type": "function"
    },
    {
      "inputs": [
        {
          "internalType": "bytes32",
          "name": "node",
          "type": "bytes32"
        }
      ],
      "name": "increaseVersion",
      "outputs": [],
      "stateMutability": "nonpayable",
      "type": "function"
    },
    {
      "inputs": [
        {
          "internalType": "bytes32",
          "name": "node",
          "type": "bytes32"
        },
        {
          "internalType": "bytes32",
          "name": "schema",
          "type": "bytes32"
        },
        {
          "internalType": "bytes32",
          "name": "key",
          "type": "bytes32"
        },
        {
          "internalType": "bool",
          "name": "toDomain",
          "type": "bool"
        }
      ],
      "name": "read",
      "outputs": [
        {
          "internalType": "bytes",
          "name": "result",
          "type": "bytes"
        }
      ],
      "stateMutability": "view",
      "type": "function"
    },
    {
      "inputs": [
        {
          "internalType": "bytes32",
          "name": "node",
          "type": "bytes32"
        },
        {
          "internalType": "bytes32",
          "name": "schema",
          "type": "bytes32"
        },
        {
          "internalType": "bytes32",
          "name": "key",
          "type": "bytes32"
        }
      ],
      "name": "read",
      "outputs": [
        {
          "internalType": "bytes",
          "name": "",
          "type": "bytes"
        }
      ],
      "stateMutability": "view",
      "type": "function"
    },
    {
      "inputs": [
        {
          "internalType": "bytes32",
          "name": "node",
          "type": "bytes32"
        },
        {
          "internalType": "bytes32",
          "name": "schema",
          "type": "bytes32"
        },
        {
          "internalType": "bytes32",
          "name": "key",
          "type": "bytes32"
        },
        {
          "internalType": "bool",
          "name": "toDomain",
          "type": "bool"
        }
      ],
      "name": "readRaw",
      "outputs": [
        {
          "components": [
            {
              "internalType": "bytes32",
              "name": "uid",
              "type": "bytes32"
            },
            {
              "internalType": "bytes32",
              "name": "schema",
              "type": "bytes32"
            },
            {
              "internalType": "uint64",
              "name": "time",
              "type": "uint64"
            },
            {
              "internalType": "uint64",
              "name": "expirationTime",
              "type": "uint64"
            },
            {
              "internalType": "uint64",
              "name": "revocationTime",
              "type": "uint64"
            },
            {
              "internalType": "bytes32",
              "name": "refUID",
              "type": "bytes32"
            },
            {
              "internalType": "address",
              "name": "recipient",
              "type": "address"
            },
            {
              "internalType": "address",
              "name": "attester",
              "type": "address"
            },
            {
              "internalType": "bool",
              "name": "revocable",
              "type": "bool"
            },
            {
              "internalType": "bytes",
              "name": "data",
              "type": "bytes"
            }
          ],
          "internalType": "struct Attestation",
          "name": "",
          "type": "tuple"
        }
      ],
      "stateMutability": "view",
      "type": "function"
    },
    {
      "inputs": [
        {
          "internalType": "bytes32",
          "name": "node",
          "type": "bytes32"
        },
        {
          "internalType": "bytes32",
          "name": "schema",
          "type": "bytes32"
        },
        {
          "internalType": "bytes32",
          "name": "key",
          "type": "bytes32"
        },
        {
          "internalType": "bool",
          "name": "toDomain",
          "type": "bool"
        }
      ],
      "name": "readRef",
      "outputs": [
        {
          "components": [
            {
              "internalType": "bytes32",
              "name": "uid",
              "type": "bytes32"
            },
            {
              "internalType": "bytes32",
              "name": "schema",
              "type": "bytes32"
            },
            {
              "internalType": "uint64",
              "name": "time",
              "type": "uint64"
            },
            {
              "internalType": "uint64",
              "name": "expirationTime",
              "type": "uint64"
            },
            {
              "internalType": "uint64",
              "name": "revocationTime",
              "type": "uint64"
            },
            {
              "internalType": "bytes32",
              "name": "refUID",
              "type": "bytes32"
            },
            {
              "internalType": "address",
              "name": "recipient",
              "type": "address"
            },
            {
              "internalType": "address",
              "name": "attester",
              "type": "address"
            },
            {
              "internalType": "bool",
              "name": "revocable",
              "type": "bool"
            },
            {
              "internalType": "bytes",
              "name": "data",
              "type": "bytes"
            }
          ],
          "internalType": "struct Attestation",
          "name": "",
          "type": "tuple"
        }
      ],
      "stateMutability": "view",
      "type": "function"
    },
    {
      "inputs": [
        {
          "internalType": "bytes32",
          "name": "node",
          "type": "bytes32"
        }
      ],
      "name": "readVersion",
      "outputs": [
        {
          "internalType": "uint64",
          "name": "",
          "type": "uint64"
        }
      ],
      "stateMutability": "view",
      "type": "function"
    },
    {
      "inputs": [
        {
          "internalType": "bytes32",
          "name": "",
          "type": "bytes32"
        }
      ],
      "name": "records",
      "outputs": [
        {
          "internalType": "bytes32",
          "name": "",
          "type": "bytes32"
        }
      ],
      "stateMutability": "view",
      "type": "function"
    },
    {
      "inputs": [],
      "name": "registry",
      "outputs": [
        {
          "internalType": "contract INameWrapperRegistry",
          "name": "",
          "type": "address"
        }
      ],
      "stateMutability": "view",
      "type": "function"
    },
    {
      "inputs": [
        {
          "internalType": "bytes32",
          "name": "node",
          "type": "bytes32"
        },
        {
          "internalType": "bytes32",
          "name": "schema",
          "type": "bytes32"
        },
        {
          "internalType": "bytes32",
          "name": "key",
          "type": "bytes32"
        },
        {
          "internalType": "bool",
          "name": "toDomain",
          "type": "bool"
        }
      ],
      "name": "revoke",
      "outputs": [],
      "stateMutability": "nonpayable",
      "type": "function"
    },
    {
      "inputs": [
        {
          "internalType": "bytes32",
          "name": "",
          "type": "bytes32"
        },
        {
          "internalType": "address",
          "name": "",
          "type": "address"
        }
      ],
      "name": "versions",
      "outputs": [
        {
          "internalType": "uint64",
          "name": "",
          "type": "uint64"
        }
      ],
      "stateMutability": "view",
      "type": "function"
    }
  ],
  "bytecode": "0x60c06040523480156200001157600080fd5b5060405162001f6538038062001f65833981016040819052620000349162000065565b6001600160a01b039182166080521660a052620000a4565b6001600160a01b03811681146200006257600080fd5b50565b600080604083850312156200007957600080fd5b825162000086816200004c565b602084015190925062000099816200004c565b809150509250929050565b60805160a051611e4e62000117600039600081816102060152610332015260008181610258015281816104660152818161051b01528181610790015281816108d301528181610a9501528181610d2e01528181610e7501528181611179015281816112c001526115040152611e4e6000f3fe608060405234801561001057600080fd5b506004361061011b5760003560e01c80636912e70e116100b25780638a6f7fe611610081578063cf9dbeb711610066578063cf9dbeb7146102b3578063eff94ac714610301578063f806f52a1461031457600080fd5b80638a6f7fe61461028d578063cb81facd146102a057600080fd5b80636912e70e146102015780636aec6216146102405780637b103999146102535780638150864d1461027a57600080fd5b80632d4d6ccf116100ee5780632d4d6ccf146101a85780633e57d269146101bb5780634a91b882146101ce5780634ac4f681146101e157600080fd5b806301e64725146101205780631c5a9d9c1461015357806321af68b714610168578063274ac54a14610188575b600080fd5b61014061012e366004611696565b60026020526000908152604090205481565b6040519081526020015b60405180910390f35b6101666101613660046116c4565b610327565b005b61017b61017636600461173f565b610402565b60405161014a919061180c565b61019b610196366004611890565b6104fc565b60405161014a91906118d1565b6101666101b6366004611696565b61078c565b6101666101c93660046118e4565b610a06565b61019b6101dc366004611937565b610a1b565b6101f46101ef366004611890565b610a2a565b60405161014a9190611963565b6102287f000000000000000000000000000000000000000000000000000000000000000081565b6040516001600160a01b03909116815260200161014a565b6101f461024e366004611890565b610c3f565b6102287f000000000000000000000000000000000000000000000000000000000000000081565b600054610228906001600160a01b031681565b61016661029b366004611a32565b610d1a565b6101666102ae366004611890565b611175565b6102e86102c1366004611aa5565b600160209081526000928352604080842090915290825290205467ffffffffffffffff1681565b60405167ffffffffffffffff909116815260200161014a565b6102e861030f366004611696565b6114e1565b610166610322366004611ad5565b6115a4565b336001600160a01b037f000000000000000000000000000000000000000000000000000000000000000016146103be576040517f08c379a000000000000000000000000000000000000000000000000000000000815260206004820152600960248201527f466f7262696464656e000000000000000000000000000000000000000000000060448201526064015b60405180910390fd5b803b63ffffffff16156103ff57600080547fffffffffffffffffffffffff0000000000000000000000000000000000000000166001600160a01b0383161790555b50565b6104496040805180820182526000808252825160c08101845281815260208181018390529381018290526060808201839052608082015260a0810191909152909182015290565b6000846104de57604051637dd5641160e01b8152600481018a90527f00000000000000000000000000000000000000000000000000000000000000006001600160a01b031690637dd5641190602401602060405180830381865afa1580156104b5573d6000803e3d6000fd5b505050506040513d601f19601f820116820180604052508101906104d99190611b46565b6104e0565b885b90506104ef81898887876115ba565b9998505050505050505050565b606060008261059357604051637dd5641160e01b8152600481018790527f00000000000000000000000000000000000000000000000000000000000000006001600160a01b031690637dd5641190602401602060405180830381865afa15801561056a573d6000803e3d6000fd5b505050506040513d601f19601f8201168201806040525081019061058e9190611b46565b610595565b855b600080548882526001602090815260408084206001600160a01b0386811686529083528185205482517fffffffffffffffff00000000000000000000000000000000000000000000000060c092831b1681860152602881018e90526bffffffffffffffffffffffff19606089901b166048820152605c81018d9052607c8082018d905284518083039091018152609c820180865281519187019190912088526002909552928620547fa3112a640000000000000000000000000000000000000000000000000000000090945260a083019390935294955092939091169163a3112a649101600060405180830381865afa158015610696573d6000803e3d6000fd5b505050506040513d6000823e601f3d908101601f191682016040526106be9190810190611c5d565b60e08101519091506001600160a01b0316301415806106f35750816001600160a01b03168160c001516001600160a01b031614155b80610702575085816020015114155b8061073357506000816060015167ffffffffffffffff16118015610733575042816060015167ffffffffffffffff16105b8061074b5750608081015167ffffffffffffffff1615155b8061075d575060208161012001515111155b1561077b576040518060200160405280600081525092505050610784565b61012001519150505b949350505050565b60007f00000000000000000000000000000000000000000000000000000000000000006001600160a01b0316633f15457f6040518163ffffffff1660e01b8152600401602060405180830381865afa1580156107ec573d6000803e3d6000fd5b505050506040513d601f19601f820116820180604052508101906108109190611b46565b6001600160a01b0316630178b8bf836040518263ffffffff1660e01b815260040161083d91815260200190565b602060405180830381865afa15801561085a573d6000803e3d6000fd5b505050506040513d601f19601f8201168201806040525081019061087e9190611b46565b9050336001600160a01b038216146108ba576040516305616a3960e41b81523360048201526001600160a01b03821660248201526044016103b5565b604051637dd5641160e01b8152600481018390526000907f00000000000000000000000000000000000000000000000000000000000000006001600160a01b031690637dd5641190602401602060405180830381865afa158015610922573d6000803e3d6000fd5b505050506040513d601f19601f820116820180604052508101906109469190611b46565b60008481526001602090815260408083206001600160a01b03851684529091528120805492935067ffffffffffffffff909216919061098483611d54565b82546101009290920a67ffffffffffffffff81810219909316918316021790915560008581526001602090815260408083206001600160a01b038716808552908352928190205490519316835290925085917fad223ad5ece7f0f4bf7f6d0cb29d8fe55362076b13b904ec59b2a50cb2b32e49910160405180910390a3505050565b610a1584846000808686610d1a565b50505050565b606061078484848460006104fc565b604080516101408101825260008082526020820181905291810182905260608082018390526080820183905260a0820183905260c0820183905260e0820183905261010082018390526101208201529082610b0d57604051637dd5641160e01b8152600481018790527f00000000000000000000000000000000000000000000000000000000000000006001600160a01b031690637dd5641190602401602060405180830381865afa158015610ae4573d6000803e3d6000fd5b505050506040513d601f19601f82011682018060405250810190610b089190611b46565b610b0f565b855b600080548882526001602090815260408084206001600160a01b0386811686529083528185205482517fffffffffffffffff00000000000000000000000000000000000000000000000060c092831b1681860152602881018e90526bffffffffffffffffffffffff19606089901b166048820152605c81018d9052607c8082018d905284518083039091018152609c82018086528151918701919091208852600290955292909520547fa3112a640000000000000000000000000000000000000000000000000000000090935260a0820192909252939450169163a3112a649101600060405180830381865afa158015610c0d573d6000803e3d6000fd5b505050506040513d6000823e601f3d908101601f19168201604052610c359190810190611c5d565b9695505050505050565b604080516101408101825260008082526020820181905291810182905260608082018390526080820183905260a0820183905260c0820183905260e08201839052610100820183905261012082015290546001600160a01b031663a3112a64610caa87878787610a2a565b60a001516040518263ffffffff1660e01b8152600401610ccc91815260200190565b600060405180830381865afa158015610ce9573d6000803e3d6000fd5b505050506040513d6000823e601f3d908101601f19168201604052610d119190810190611c5d565b95945050505050565b6000610d2882840184611696565b905060007f00000000000000000000000000000000000000000000000000000000000000006001600160a01b0316633f15457f6040518163ffffffff1660e01b8152600401602060405180830381865afa158015610d8a573d6000803e3d6000fd5b505050506040513d601f19601f82011682018060405250810190610dae9190611b46565b6001600160a01b0316630178b8bf836040518263ffffffff1660e01b8152600401610ddb91815260200190565b602060405180830381865afa158015610df8573d6000803e3d6000fd5b505050506040513d601f19601f82011682018060405250810190610e1c9190611b46565b9050336001600160a01b03821614610e58576040516305616a3960e41b81523360048201526001600160a01b03821660248201526044016103b5565b600085610eed57604051637dd5641160e01b8152600481018490527f00000000000000000000000000000000000000000000000000000000000000006001600160a01b031690637dd5641190602401602060405180830381865afa158015610ec4573d6000803e3d6000fd5b505050506040513d601f19601f82011682018060405250810190610ee89190611b46565b610eef565b825b60008481526001602090815260408083206001600160a01b0385168452825280832054815160c09190911b7fffffffffffffffff000000000000000000000000000000000000000000000000168184015260288101889052606085901b6bffffffffffffffffffffffff19166048820152605c81018e9052607c8082018e905282518083039091018152609c909101825280519083012080845260029092529091205491925090801561109057600080546040805180820182528e81528151808301835285815260208082019590955284820190815291517f46926267000000000000000000000000000000000000000000000000000000008152905160048201529051805160248301529092015160448301526001600160a01b031690634692626790606401600060405180830381600087803b15801561103057600080fd5b505af1158015611044573d6000803e3d6000fd5b50505050898b867f0ec5301a58e7bde18fda1e4c80da72771baab6c06dee02e6761074aa8fa611098b856040516110879291909115158252602082015260400190565b60405180910390a45b50600080546001600160a01b031663f17325e76110b0858e8d8c8c6115ba565b6040518263ffffffff1660e01b81526004016110cc919061180c565b6020604051808303816000875af11580156110eb573d6000803e3d6000fd5b505050506040513d601f19601f8201168201806040525081019061110f9190611da2565b6000838152600260205260408082209290925590518b92508c9187917f2c70793990cd218759ebeebe6f7f8a216e084c0f7f622241189e39507a86323c91611161918e9189918b91908f908f90611dbb565b60405180910390a450505050505050505050565b60007f00000000000000000000000000000000000000000000000000000000000000006001600160a01b0316633f15457f6040518163ffffffff1660e01b8152600401602060405180830381865afa1580156111d5573d6000803e3d6000fd5b505050506040513d601f19601f820116820180604052508101906111f99190611b46565b6001600160a01b0316630178b8bf866040518263ffffffff1660e01b815260040161122691815260200190565b602060405180830381865afa158015611243573d6000803e3d6000fd5b505050506040513d601f19601f820116820180604052508101906112679190611b46565b9050336001600160a01b038216146112a3576040516305616a3960e41b81523360048201526001600160a01b03821660248201526044016103b5565b60008261133857604051637dd5641160e01b8152600481018790527f00000000000000000000000000000000000000000000000000000000000000006001600160a01b031690637dd5641190602401602060405180830381865afa15801561130f573d6000803e3d6000fd5b505050506040513d601f19601f820116820180604052508101906113339190611b46565b61133a565b855b60008781526001602090815260408083206001600160a01b0385168452825280832054815160c09190911b7fffffffffffffffff0000000000000000000000000000000000000000000000001681840152602881018b9052606085901b6bffffffffffffffffffffffff19166048820152605c81018a9052607c8082018a905282518083039091018152609c90910182528051908301208352600290915290205490915080156114d857600080546040805180820182528981528151808301835285815260208082019590955284820190815291517f46926267000000000000000000000000000000000000000000000000000000008152905160048201529051805160248301529092015160448301526001600160a01b031690634692626790606401600060405180830381600087803b15801561147857600080fd5b505af115801561148c573d6000803e3d6000fd5b505050508486887f0ec5301a58e7bde18fda1e4c80da72771baab6c06dee02e6761074aa8fa6110987856040516114cf9291909115158252602082015260400190565b60405180910390a45b50505050505050565b604051637dd5641160e01b81526004810182905260009081906001600160a01b037f00000000000000000000000000000000000000000000000000000000000000001690637dd5641190602401602060405180830381865afa15801561154b573d6000803e3d6000fd5b505050506040513d601f19601f8201168201806040525081019061156f9190611b46565b60009384526001602090815260408086206001600160a01b0390931686529190529092205467ffffffffffffffff1692915050565b6115b385858560008686610d1a565b5050505050565b6116016040805180820182526000808252825160c08101845281815260208181018390529381018290526060808201839052608082015260a0810191909152909182015290565b60405180604001604052808681526020016040518060c00160405280896001600160a01b03168152602001600067ffffffffffffffff16815260200160011515815260200187815260200186868080601f016020809104026020016040519081016040528093929190818152602001838380828437600092018290525093855250505060209091015290529695505050505050565b6000602082840312156116a857600080fd5b5035919050565b6001600160a01b03811681146103ff57600080fd5b6000602082840312156116d657600080fd5b81356116e1816116af565b9392505050565b80151581146103ff57600080fd5b60008083601f84011261170857600080fd5b50813567ffffffffffffffff81111561172057600080fd5b60208301915083602082850101111561173857600080fd5b9250929050565b600080600080600080600060c0888a03121561175a57600080fd5b873596506020880135955060408801359450606088013593506080880135611781816116e8565b925060a088013567ffffffffffffffff81111561179d57600080fd5b6117a98a828b016116f6565b989b979a50959850939692959293505050565b60005b838110156117d75781810151838201526020016117bf565b50506000910152565b600081518084526117f88160208601602086016117bc565b601f01601f19169290920160200192915050565b6020815281516020820152600060208301516040808401526001600160a01b03815116606084015267ffffffffffffffff60208201511660808401526040810151151560a0840152606081015160c0840152608081015160c060e08501526118786101208501826117e0565b905060a0820151610100850152809250505092915050565b600080600080608085870312156118a657600080fd5b84359350602085013592506040850135915060608501356118c6816116e8565b939692955090935050565b6020815260006116e160208301846117e0565b600080600080606085870312156118fa57600080fd5b8435935060208501359250604085013567ffffffffffffffff81111561191f57600080fd5b61192b878288016116f6565b95989497509550505050565b60008060006060848603121561194c57600080fd5b505081359360208301359350604090920135919050565b60208152815160208201526020820151604082015260006040830151611995606084018267ffffffffffffffff169052565b50606083015167ffffffffffffffff8116608084015250608083015167ffffffffffffffff811660a08401525060a083015160c083015260c08301516119e660e08401826001600160a01b03169052565b5060e0830151610100611a03818501836001600160a01b03169052565b8401519050610120611a188482018315159052565b8401516101408481015290506107846101608401826117e0565b60008060008060008060a08789031215611a4b57600080fd5b8635955060208701359450604087013593506060870135611a6b816116e8565b9250608087013567ffffffffffffffff811115611a8757600080fd5b611a9389828a016116f6565b979a9699509497509295939492505050565b60008060408385031215611ab857600080fd5b823591506020830135611aca816116af565b809150509250929050565b600080600080600060808688031215611aed57600080fd5b853594506020860135935060408601359250606086013567ffffffffffffffff811115611b1957600080fd5b611b25888289016116f6565b969995985093965092949392505050565b8051611b41816116af565b919050565b600060208284031215611b5857600080fd5b81516116e1816116af565b7f4e487b7100000000000000000000000000000000000000000000000000000000600052604160045260246000fd5b604051610140810167ffffffffffffffff81118282101715611bb657611bb6611b63565b60405290565b805167ffffffffffffffff81168114611b4157600080fd5b8051611b41816116e8565b600082601f830112611bf057600080fd5b815167ffffffffffffffff80821115611c0b57611c0b611b63565b604051601f8301601f19908116603f01168101908282118183101715611c3357611c33611b63565b81604052838152866020858801011115611c4c57600080fd5b610c358460208301602089016117bc565b600060208284031215611c6f57600080fd5b815167ffffffffffffffff80821115611c8757600080fd5b908301906101408286031215611c9c57600080fd5b611ca4611b92565b8251815260208301516020820152611cbe60408401611bbc565b6040820152611ccf60608401611bbc565b6060820152611ce060808401611bbc565b608082015260a083015160a0820152611cfb60c08401611b36565b60c0820152611d0c60e08401611b36565b60e0820152610100611d1f818501611bd4565b908201526101208381015183811115611d3757600080fd5b611d4388828701611bdf565b918301919091525095945050505050565b600067ffffffffffffffff808316818103611d98577f4e487b7100000000000000000000000000000000000000000000000000000000600052601160045260246000fd5b6001019392505050565b600060208284031215611db457600080fd5b5051919050565b86815260006001600160a01b038088166020840152808716604084015250841515606083015260a060808301528260a0830152828460c0840137600060c0848401015260c0601f19601f850116830101905097965050505050505056fea26469706673582212200e2e6384b9c0573696af19bdf9be6de9d43a43098b6219dfea7d93f40a45322b64736f6c63430008130033",
  "linkReferences": {},
  "deployedLinkReferences": {}
}