{
  "_format": "hh-sol-artifact-1",
  "contractName": "UniversalResolverTemplate",
  "sourceName": "contracts/universal-registry/UniversalResolverTemplate.sol",
  "abi": [
    {
      "inputs": [
        {
          "internalType": "address",
          "name": "sender",
          "type": "address"
        },
        {
          "internalType": "string[]",
          "name": "urls",
          "type": "string[]"
        },
        {
          "internalType": "bytes",
          "name": "callData",
          "type": "bytes"
        },
        {
          "internalType": "bytes4",
          "name": "callbackFunction",
          "type": "bytes4"
        },
        {
          "internalType": "bytes",
          "name": "extraData",
          "type": "bytes"
        }
      ],
      "name": "OffchainLookup",
      "type": "error"
    },
    {
      "inputs": [],
      "name": "ResolverNotFound",
      "type": "error"
    },
    {
      "inputs": [],
      "name": "ResolverWildcardNotSupported",
      "type": "error"
    },
    {
      "inputs": [
        {
          "internalType": "bytes",
          "name": "name",
          "type": "bytes"
        },
        {
          "internalType": "bytes",
          "name": "data",
          "type": "bytes"
        },
        {
          "internalType": "string[]",
          "name": "gateways",
          "type": "string[]"
        },
        {
          "internalType": "bytes4",
          "name": "callbackFunction",
          "type": "bytes4"
        },
        {
          "internalType": "bytes",
          "name": "metaData",
          "type": "bytes"
        }
      ],
      "name": "_resolveSingle",
      "outputs": [
        {
          "internalType": "bytes",
          "name": "",
          "type": "bytes"
        },
        {
          "internalType": "address",
          "name": "",
          "type": "address"
        }
      ],
      "stateMutability": "view",
      "type": "function"
    },
    {
      "inputs": [],
      "name": "batchGatewayURLs",
      "outputs": [
        {
          "internalType": "string[]",
          "name": "",
          "type": "string[]"
        }
      ],
      "stateMutability": "view",
      "type": "function"
    },
    {
      "inputs": [
        {
          "internalType": "bytes",
          "name": "name",
          "type": "bytes"
        }
      ],
      "name": "findResolver",
      "outputs": [
        {
          "internalType": "contract Resolver",
          "name": "",
          "type": "address"
        },
        {
          "internalType": "bytes32",
          "name": "",
          "type": "bytes32"
        },
        {
          "internalType": "uint256",
          "name": "",
          "type": "uint256"
        }
      ],
      "stateMutability": "view",
      "type": "function"
    },
    {
      "inputs": [
        {
          "internalType": "contract ENS",
          "name": "_registry",
          "type": "address"
        }
      ],
      "name": "initialize",
      "outputs": [],
      "stateMutability": "nonpayable",
      "type": "function"
    },
    {
      "inputs": [],
      "name": "registry",
      "outputs": [
        {
          "internalType": "contract ENS",
          "name": "",
          "type": "address"
        }
      ],
      "stateMutability": "view",
      "type": "function"
    },
    {
      "inputs": [
        {
          "internalType": "bytes",
          "name": "name",
          "type": "bytes"
        },
        {
          "internalType": "bytes",
          "name": "data",
          "type": "bytes"
        },
        {
          "internalType": "string[]",
          "name": "gateways",
          "type": "string[]"
        }
      ],
      "name": "resolve",
      "outputs": [
        {
          "internalType": "bytes",
          "name": "",
          "type": "bytes"
        },
        {
          "internalType": "address",
          "name": "",
          "type": "address"
        }
      ],
      "stateMutability": "view",
      "type": "function"
    },
    {
      "inputs": [
        {
          "internalType": "bytes",
          "name": "name",
          "type": "bytes"
        },
        {
          "internalType": "bytes[]",
          "name": "data",
          "type": "bytes[]"
        }
      ],
      "name": "resolve",
      "outputs": [
        {
          "internalType": "bytes[]",
          "name": "",
          "type": "bytes[]"
        },
        {
          "internalType": "address",
          "name": "",
          "type": "address"
        }
      ],
      "stateMutability": "view",
      "type": "function"
    },
    {
      "inputs": [
        {
          "internalType": "bytes",
          "name": "name",
          "type": "bytes"
        },
        {
          "internalType": "bytes[]",
          "name": "data",
          "type": "bytes[]"
        },
        {
          "internalType": "string[]",
          "name": "gateways",
          "type": "string[]"
        }
      ],
      "name": "resolve",
      "outputs": [
        {
          "internalType": "bytes[]",
          "name": "",
          "type": "bytes[]"
        },
        {
          "internalType": "address",
          "name": "",
          "type": "address"
        }
      ],
      "stateMutability": "view",
      "type": "function"
    },
    {
      "inputs": [
        {
          "internalType": "bytes",
          "name": "name",
          "type": "bytes"
        },
        {
          "internalType": "bytes",
          "name": "data",
          "type": "bytes"
        }
      ],
      "name": "resolve",
      "outputs": [
        {
          "internalType": "bytes",
          "name": "",
          "type": "bytes"
        },
        {
          "internalType": "address",
          "name": "",
          "type": "address"
        }
      ],
      "stateMutability": "view",
      "type": "function"
    },
    {
      "inputs": [
        {
          "internalType": "bytes",
          "name": "response",
          "type": "bytes"
        },
        {
          "internalType": "bytes",
          "name": "extraData",
          "type": "bytes"
        }
      ],
      "name": "resolveCallback",
      "outputs": [
        {
          "internalType": "bytes[]",
          "name": "",
          "type": "bytes[]"
        },
        {
          "internalType": "address",
          "name": "",
          "type": "address"
        }
      ],
      "stateMutability": "view",
      "type": "function"
    },
    {
      "inputs": [
        {
          "internalType": "bytes",
          "name": "response",
          "type": "bytes"
        },
        {
          "internalType": "bytes",
          "name": "extraData",
          "type": "bytes"
        }
      ],
      "name": "resolveSingleCallback",
      "outputs": [
        {
          "internalType": "bytes",
          "name": "",
          "type": "bytes"
        },
        {
          "internalType": "address",
          "name": "",
          "type": "address"
        }
      ],
      "stateMutability": "view",
      "type": "function"
    },
    {
      "inputs": [
        {
          "internalType": "bytes",
          "name": "reverseName",
          "type": "bytes"
        },
        {
          "internalType": "string[]",
          "name": "gateways",
          "type": "string[]"
        }
      ],
      "name": "reverse",
      "outputs": [
        {
          "internalType": "string",
          "name": "",
          "type": "string"
        },
        {
          "internalType": "address",
          "name": "",
          "type": "address"
        },
        {
          "internalType": "address",
          "name": "",
          "type": "address"
        },
        {
          "internalType": "address",
          "name": "",
          "type": "address"
        }
      ],
      "stateMutability": "view",
      "type": "function"
    },
    {
      "inputs": [
        {
          "internalType": "bytes",
          "name": "reverseName",
          "type": "bytes"
        }
      ],
      "name": "reverse",
      "outputs": [
        {
          "internalType": "string",
          "name": "",
          "type": "string"
        },
        {
          "internalType": "address",
          "name": "",
          "type": "address"
        },
        {
          "internalType": "address",
          "name": "",
          "type": "address"
        },
        {
          "internalType": "address",
          "name": "",
          "type": "address"
        }
      ],
      "stateMutability": "view",
      "type": "function"
    },
    {
      "inputs": [
        {
          "internalType": "bytes",
          "name": "response",
          "type": "bytes"
        },
        {
          "internalType": "bytes",
          "name": "extraData",
          "type": "bytes"
        }
      ],
      "name": "reverseCallback",
      "outputs": [
        {
          "internalType": "string",
          "name": "",
          "type": "string"
        },
        {
          "internalType": "address",
          "name": "",
          "type": "address"
        },
        {
          "internalType": "address",
          "name": "",
          "type": "address"
        },
        {
          "internalType": "address",
          "name": "",
          "type": "address"
        }
      ],
      "stateMutability": "view",
      "type": "function"
    },
    {
      "inputs": [
        {
          "internalType": "bytes4",
          "name": "interfaceId",
          "type": "bytes4"
        }
      ],
      "name": "supportsInterface",
      "outputs": [
        {
          "internalType": "bool",
          "name": "",
          "type": "bool"
        }
      ],
      "stateMutability": "view",
      "type": "function"
    },
    {
      "inputs": [],
      "name": "universalRegistry",
      "outputs": [
        {
          "internalType": "address",
          "name": "",
          "type": "address"
        }
      ],
      "stateMutability": "view",
      "type": "function"
    }
  ],
  "bytecode": "0x608060405234801561001057600080fd5b50612d9f806100206000396000f3fe608060405234801561001057600080fd5b50600436106101005760003560e01c80639061b92311610097578063b82ae1f011610066578063b82ae1f014610267578063c4d66de81461027c578063e0a8541214610291578063ec11c823146102a457600080fd5b80639061b923146101f6578063a1cbcbaf14610209578063b241d0d314610241578063b4a858011461025457600080fd5b80636dc4fb73116100d35780636dc4fb731461019a57806376286c00146101bd5780637b103999146101d05780638e25a0f3146101e357600080fd5b806301ffc9a7146101055780630667cfea1461012d578063206c74c91461014e57806325ebe7eb1461016f575b600080fd5b610118610113366004611cb3565b6102b7565b60405190151581526020015b60405180910390f35b61014061013b366004611eda565b6102ee565b604051610124929190611fb8565b61016161015c366004612063565b610323565b6040516101249291906120cc565b600054610182906001600160a01b031681565b6040516001600160a01b039091168152602001610124565b6101ad6101a8366004612141565b610341565b60405161012494939291906121ad565b6101616101cb3660046121e9565b61040e565b600154610182906001600160a01b031681565b6101406101f1366004612248565b610436565b61014061020436600461230e565b6104cb565b61021c61021736600461236d565b6104fa565b604080516001600160a01b039094168452602084019290925290820152606001610124565b6101ad61024f3660046123af565b610520565b610161610262366004612141565b610611565b61026f610655565b6040516101249190612463565b61028f61028a36600461248b565b6106ec565b005b61014061029f366004612141565b610792565b6101ad6102b236600461236d565b6107dd565b60006001600160e01b03198216639061b92360e01b14806102e857506301ffc9a760e01b6001600160e01b03198316145b92915050565b606060006103168686868663e0a8541260e01b60405180602001604052806000815250610436565b9150915094509492505050565b606060006103358585856101cb610655565b91509150935093915050565b6060600080808080808061035f8c8c8c8c636dc4fb7360e01b610803565b93509350935093506000815111156103d1576000808280602001905181019061038891906124f5565b915091506000866000815181106103a1576103a1612547565b60200260200101518060200190518101906103bc919061255d565b929a5091985096509294506104039350505050565b6103f6846000815181106103e7576103e7612547565b60200260200101518484610b89565b9750975097509750505050505b945094509450949050565b606060006103168686868663b4a8580160e01b60405180602001604052806000815250610cea565b6040805160018082528183019092526060916000918291816020015b6060815260200190600190039081610452579050509050868160008151811061047d5761047d612547565b60200260200101819052506000806104998b8b858b8b8b610cea565b91509150816000815181106104b0576104b0612547565b60200260200101518194509450505050965096945050505050565b606060006103358585856104dd610655565b6040805160208101909152600081526370542a0960e11b90610436565b60008060008060008061050f88886000610e2a565b919750955093505050509250925092565b606060008060008061056c600089898080601f01602080910402602001604051908101604052809392919081815260200183838082843760009201919091525092939250506110bd9050565b60405160240161057e91815260200190565b60408051601f19818403018152918152602080830180516001600160e01b03167f691f3431000000000000000000000000000000000000000000000000000000001790528151908101909152600080825291925081906105ee908b908b9086908c90636dc4fb7360e01b90610436565b915091506105fd82828a610b89565b965096509650965050505093509350935093565b606060008080610644888888887fb4a8580100000000000000000000000000000000000000000000000000000000610803565b50919a909950975050505050505050565b6000546001546040517fdd6ba0960000000000000000000000000000000000000000000000000000000081526001600160a01b039182166004820152606092919091169063dd6ba09690602401600060405180830381865afa1580156106bf573d6000803e3d6000fd5b505050506040513d6000823e601f3d908101601f191682016040526106e791908101906125fa565b905090565b6000546001600160a01b03161561074a5760405162461bcd60e51b815260206004820152600b60248201527f496e697469616c697a656400000000000000000000000000000000000000000060448201526064015b60405180910390fd5b60008054337fffffffffffffffffffffffff000000000000000000000000000000000000000091821617909155600180549091166001600160a01b0392909216919091179055565b6060600080806107ac888888886370542a0960e11b610803565b505091509150816000815181106107c5576107c5612547565b60200260200101518193509350505094509492505050565b606060008060006107f1868661024f610655565b93509350935093505b92959194509250565b6060600060608061086760405180610100016040528060608152602001606081526020016060815260200160006001600160e01b031916815260200160001515815260200160006001600160a01b0316815260200160608152602001606081525090565b6001600160e01b0319861660608201526000806108868b8d018d61263d565b909250905060606108998a8c018c6126f5565b60c089019190915260408801919091526001600160a01b0390911660a087015290151560808601528051835191925010156108d357600080fd5b805167ffffffffffffffff8111156108ed576108ed611d20565b60405190808252806020026020018201604052801561092057816020015b606081526020019060019003908161090b5790505b506020850152805167ffffffffffffffff81111561094057610940611d20565b604051908082528060200260200182016040528015610969578160200160208202803683370190505b5060e08501526000805b8251811015610b5757825160009084908390811061099357610993612547565b6020026020010151600001516001600160e01b031916036109f2578281815181106109c0576109c0612547565b602002602001015160200151866020015182815181106109e2576109e2612547565b6020026020010181905250610b45565b848281518110610a0457610a04612547565b602002602001015115610a7b5760018660e001518281518110610a2957610a29612547565b602002602001019015159081151581525050838281518110610a4d57610a4d612547565b602002602001015186602001518281518110610a6b57610a6b612547565b6020026020010181905250610b37565b828181518110610a8d57610a8d612547565b602002602001015160000151848381518110610aab57610aab612547565b6020026020010151848381518110610ac557610ac5612547565b602002602001015160200151604051602401610ae2929190612879565b604051602081830303815290604052906001600160e01b0319166020820180516001600160e01b03838183161783525050505086602001518281518110610b2b57610b2b612547565b60200260200101819052505b610b428260016128bd565b91505b80610b4f816128d0565b915050610973565b50610b618561117c565b8560a0015186604001518760c001519850985098509850505050505095509550955095915050565b606060008060008087806020019051810190610ba591906128e9565b9050600080610bb3836115c6565b91509150600081604051602401610bcc91815260200190565b60408051601f19818403018152918152602080830180516001600160e01b03167f3b3b57de000000000000000000000000000000000000000000000000000000001790529051919250600091610c269187918e9101611fb8565b6040516020818303038152906040529050600080306001600160a01b0316638e25a0f387868f636dc4fb7360e01b886040518663ffffffff1660e01b8152600401610c7595949392919061291e565b600060405180830381865afa158015610c92573d6000803e3d6000fd5b505050506040513d6000823e601f3d908101601f19168201604052610cba91908101906124f5565b91509150600082806020019051810190610cd4919061255d565b979f979e50909b50959950505050505050505050565b60606000806000610cfb8a8a6104fa565b919450849350909150506001600160a01b038216610d45576040517f7199966d00000000000000000000000000000000000000000000000000000000815260040160405180910390fd5b604080516101206020601f8d01819004028201810190925261010081018b815283151592610e1a929182918f908f9081908501838280828437600092019190915250505090825250602081018c9052604081018b90526001600160e01b03198a16606082015283151560808201526001600160a01b03871660a082015260c081018990528b5160e09091019067ffffffffffffffff811115610de957610de9611d20565b604051908082528060200260200182016040528015610e12578160200160208202803683370190505b50905261117c565b9450505050965096945050505050565b600080600080868686818110610e4257610e42612547565b919091013560f81c9150506000819003610e665750600092508291508390506110b4565b6000610e7282876128bd565b610e7d9060016128bd565b90506000826042148015610ec357508888610e998960016128bd565b818110610ea857610ea8612547565b9050013560f81c60f81b6001600160f81b031916605b60f81b145b8015610f0157508888610ed7600185612987565b818110610ee657610ee6612547565b9050013560f81c60f81b6001600160f81b031916605d60f81b145b15610f7957610f71600060408b8b610f1a8c60026128bd565b90610f26600189612987565b92610f339392919061299a565b8080601f0160208091040260200160405190810160405280939291908181526020018383808284376000920191909152509294939250506117ef9050565b509050610fab565b8888610f868960016128bd565b610f929285929061299a565b604051610fa09291906129c4565b604051809103902090505b6000806000610fbb8c8c87610e2a565b92509250925060008285604051602001610fdf929190918252602082015260400190565b60408051808303601f190181529082905280516020909101206001547f0178b8bf000000000000000000000000000000000000000000000000000000008352600483018290529092506000916001600160a01b0390911690630178b8bf90602401602060405180830381865afa15801561105d573d6000803e3d6000fd5b505050506040513d601f19601f82011682018060405250810190611081919061255d565b90506001600160a01b038116156110a557995097508996506110b495505050505050565b50929850919650909450505050505b93509350939050565b60008060006110cc85856118c0565b90925090508161113e57600185516110e49190612987565b84146111325760405162461bcd60e51b815260206004820152601d60248201527f6e616d65686173683a204a756e6b20617420656e64206f66206e616d650000006044820152606401610741565b50600091506102e89050565b61114885826110bd565b6040805160208101929092528101839052606001604051602081830303815290604052805190602001209250505092915050565b6020810151516060906000808267ffffffffffffffff8111156111a1576111a1611d20565b6040519080825280602002602001820160405280156111ff57816020015b6111ec604051806060016040528060006001600160a01b0316815260200160608152602001606081525090565b8152602001906001900390816111bf5790505b50905060008367ffffffffffffffff81111561121d5761121d611d20565b60405190808252806020026020018201604052801561126357816020015b60408051808201909152600081526060602082015281526020019060019003908161123b5790505b5090508367ffffffffffffffff81111561127f5761127f611d20565b6040519080825280602002602001820160405280156112b257816020015b606081526020019060019003908161129d5790505b5086515160a088015191965015906000906112cc90611977565b9050876080015180156112dd575080155b15611314576040517f82c2c72800000000000000000000000000000000000000000000000000000000815260040160405180910390fd5b60005b868110156115045760008960200151828151811061133757611337612547565b6020026020010151905060008a60e00151838151811061135957611359612547565b60200260200101519050801561138e57818a848151811061137c5761137c612547565b602002602001018190525050506114f2565b841580156113995750835b156113df578a516040516113b291908490602401612879565b60408051601f198184030181529190526020810180516001600160e01b0316639061b92360e01b17905291505b6000806000806113f38f60a00151876119f2565b93509350935093508315611468578280602001905181019061141591906129d4565b8b8d8151811061142757611427612547565b6020026020010181905250818a888151811061144557611445612547565b602090810291909101015261145b60018d6128bd565b9b505050505050506114f2565b8080156114725750875b1561148e578280602001905181019061148b91906128e9565b92505b828e88815181106114a1576114a1612547565b60200260200101819052508e6020015187815181106114c2576114c2612547565b60200260200101518a88815181106114dc576114dc612547565b6020026020010151602001819052505050505050505b806114fc816128d0565b915050611317565b508460000361151857505050505050919050565b84845230886040015163a780bab660e01b8660405160240161153a9190612acf565b604051602081830303815290604052906001600160e01b0319166020820180516001600160e01b0383818316178352505050508a606001518b608001518c60a001518d604001518e60c001518a60405160200161159b959493929190612b31565b60408051601f1981840301815290829052630556f18360e41b82526107419594939291600401612bee565b8051606090600090819084906115dd8160026128bd565b67ffffffffffffffff8111156115f5576115f5611d20565b6040519080825280601f01601f19166020018201604052801561161f576020820181803683370190505b5094506000935080840361166457600060f81b8560008151811061164557611645612547565b60200101906001600160f81b031916908160001a905350505050915091565b60001981015b82818151811061167c5761167c612547565b01602001517fff00000000000000000000000000000000000000000000000000000000000000167f2e000000000000000000000000000000000000000000000000000000000000000361173e578360f81b8682600101815181106116e2576116e2612547565b60200101906001600160f81b031916908160001a9053508461170b846001840160ff8816611b8f565b6040805160208101939093528201526060016040516020818303038152906040528051906020012094506000935061178e565b60018401935082818151811061175657611756612547565b602001015160f81c60f81b86826001018151811061177657611776612547565b60200101906001600160f81b031916908160001a9053505b801561179d576000190161166a565b50836117ae83600060ff8716611b8f565b6040805160208101939093528201526060016040516020818303038152906040528051906020012093508260f81b8560008151811061164557611645612547565b825160009060019083111561180357600080fd5b611854565b6000603a8210602f831116156118205750602f190190565b6047821060408311161561183657506036190190565b6067821060608311161561184c57506056190190565b5060ff919050565b60208501845b848110156118b6576118718183015160001a611808565b6118836001830184015160001a611808565b60ff811460ff8314171561189c576000945050506118b6565b60049190911b1760089490941b939093179260020161185a565b5050935093915050565b600080835183106119135760405162461bcd60e51b815260206004820152601e60248201527f726561644c6162656c3a20496e646578206f7574206f6620626f756e647300006044820152606401610741565b600084848151811061192757611927612547565b016020015160f81c905080156119535761194c856119468660016128bd565b83611b8f565b9250611958565b600092505b61196281856128bd565b61196d9060016128bd565b9150509250929050565b6040516301ffc9a760e01b8152639061b92360e01b60048201526000906001600160a01b038316906301ffc9a79061c350906024016020604051808303818786fa935050505080156119e6575060408051601f3d908101601f191682019092526119e391810190612c22565b60015b6102e857506000919050565b60408051808201909152600080825260606020830181905290916000611a188686611bb3565b90503d8115611a3e576000611a2e600083611c45565b9095509350600191506107fa9050565b60048110611b85576000611a5460006004611c45565b90506000611a6c6004611a678186612987565b611c45565b9050630556f18360e41b611a7f83612c3f565b6001600160e01b03191603611b4d57600080600080600085806020019051810190611aaa9190612c77565b945094509450945094508d6001600160a01b0316856001600160a01b031603611b43576040518060600160405280866001600160a01b0316815260200185815260200184815250604051602001611b019190612d27565b60408051601f198184030181528282019091526001600160e01b03199093168152602081019190915260019b509099509750600096506107fa95505050505050565b5050505050611b82565b8181604051602001611b60929190612d3a565b60408051601f198184030181529190526000975095508693506107fa92505050565b50505b5092959194509250565b8251600090611b9e83856128bd565b1115611ba957600080fd5b5091016020012090565b60006001600160a01b0383163b611c325760405162461bcd60e51b815260206004820152602e60248201527f4c6f774c6576656c43616c6c5574696c733a207374617469632063616c6c207460448201527f6f206e6f6e2d636f6e74726163740000000000000000000000000000000000006064820152608401610741565b600080835160208501865afa9392505050565b60608167ffffffffffffffff811115611c6057611c60611d20565b6040519080825280601f01601f191660200182016040528015611c8a576020820181803683370190505b5090508183602083013e92915050565b6001600160e01b031981168114611cb057600080fd5b50565b600060208284031215611cc557600080fd5b8135611cd081611c9a565b9392505050565b60008083601f840112611ce957600080fd5b50813567ffffffffffffffff811115611d0157600080fd5b602083019150836020828501011115611d1957600080fd5b9250929050565b634e487b7160e01b600052604160045260246000fd5b6040805190810167ffffffffffffffff81118282101715611d5957611d59611d20565b60405290565b604051601f8201601f1916810167ffffffffffffffff81118282101715611d8857611d88611d20565b604052919050565b600067ffffffffffffffff821115611daa57611daa611d20565b50601f01601f191660200190565b6000611dcb611dc684611d90565b611d5f565b9050828152838383011115611ddf57600080fd5b828260208301376000602084830101529392505050565b600082601f830112611e0757600080fd5b611cd083833560208501611db8565b600067ffffffffffffffff821115611e3057611e30611d20565b5060051b60200190565b600082601f830112611e4b57600080fd5b81356020611e5b611dc683611e16565b82815260059290921b84018101918181019086841115611e7a57600080fd5b8286015b84811015611ecf57803567ffffffffffffffff811115611e9e5760008081fd5b8701603f81018913611eb05760008081fd5b611ec1898683013560408401611db8565b845250918301918301611e7e565b509695505050505050565b60008060008060608587031215611ef057600080fd5b843567ffffffffffffffff80821115611f0857600080fd5b611f1488838901611cd7565b90965094506020870135915080821115611f2d57600080fd5b611f3988838901611df6565b93506040870135915080821115611f4f57600080fd5b50611f5c87828801611e3a565b91505092959194509250565b60005b83811015611f83578181015183820152602001611f6b565b50506000910152565b60008151808452611fa4816020860160208601611f68565b601f01601f19169290920160200192915050565b604081526000611fcb6040830185611f8c565b90506001600160a01b03831660208301529392505050565b600082601f830112611ff457600080fd5b81356020612004611dc683611e16565b82815260059290921b8401810191818101908684111561202357600080fd5b8286015b84811015611ecf57803567ffffffffffffffff8111156120475760008081fd5b6120558986838b0101611df6565b845250918301918301612027565b60008060006040848603121561207857600080fd5b833567ffffffffffffffff8082111561209057600080fd5b61209c87838801611cd7565b909550935060208601359150808211156120b557600080fd5b506120c286828701611fe3565b9150509250925092565b6000604082016040835280855180835260608501915060608160051b8601019250602080880160005b8381101561212357605f19888703018552612111868351611f8c565b955093820193908201906001016120f5565b50508394506001600160a01b03871681870152505050509392505050565b6000806000806040858703121561215757600080fd5b843567ffffffffffffffff8082111561216f57600080fd5b61217b88838901611cd7565b9096509450602087013591508082111561219457600080fd5b506121a187828801611cd7565b95989497509550505050565b6080815260006121c06080830187611f8c565b6001600160a01b0395861660208401529385166040830152509216606090920191909152919050565b600080600080606085870312156121ff57600080fd5b843567ffffffffffffffff8082111561221757600080fd5b61222388838901611cd7565b9096509450602087013591508082111561223c57600080fd5b611f3988838901611fe3565b60008060008060008060a0878903121561226157600080fd5b863567ffffffffffffffff8082111561227957600080fd5b6122858a838b01611cd7565b9098509650602089013591508082111561229e57600080fd5b6122aa8a838b01611df6565b955060408901359150808211156122c057600080fd5b6122cc8a838b01611e3a565b9450606089013591506122de82611c9a565b909250608088013590808211156122f457600080fd5b5061230189828a01611df6565b9150509295509295509295565b60008060006040848603121561232357600080fd5b833567ffffffffffffffff8082111561233b57600080fd5b61234787838801611cd7565b9095509350602086013591508082111561236057600080fd5b506120c286828701611df6565b6000806020838503121561238057600080fd5b823567ffffffffffffffff81111561239757600080fd5b6123a385828601611cd7565b90969095509350505050565b6000806000604084860312156123c457600080fd5b833567ffffffffffffffff808211156123dc57600080fd5b6123e887838801611cd7565b9095509350602086013591508082111561240157600080fd5b506120c286828701611e3a565b600081518084526020808501808196508360051b8101915082860160005b85811015612456578284038952612444848351611f8c565b9885019893509084019060010161242c565b5091979650505050505050565b602081526000611cd0602083018461240e565b6001600160a01b0381168114611cb057600080fd5b60006020828403121561249d57600080fd5b8135611cd081612476565b600082601f8301126124b957600080fd5b81516124c7611dc682611d90565b8181528460208386010111156124dc57600080fd5b6124ed826020830160208701611f68565b949350505050565b6000806040838503121561250857600080fd5b825167ffffffffffffffff81111561251f57600080fd5b61252b858286016124a8565b925050602083015161253c81612476565b809150509250929050565b634e487b7160e01b600052603260045260246000fd5b60006020828403121561256f57600080fd5b8151611cd081612476565b600082601f83011261258b57600080fd5b8151602061259b611dc683611e16565b82815260059290921b840181019181810190868411156125ba57600080fd5b8286015b84811015611ecf57805167ffffffffffffffff8111156125de5760008081fd5b6125ec8986838b01016124a8565b8452509183019183016125be565b60006020828403121561260c57600080fd5b815167ffffffffffffffff81111561262357600080fd5b6124ed8482850161257a565b8015158114611cb057600080fd5b6000806040838503121561265057600080fd5b823567ffffffffffffffff8082111561266857600080fd5b818501915085601f83011261267c57600080fd5b8135602061268c611dc683611e16565b82815260059290921b840181019181810190898411156126ab57600080fd5b948201945b838610156126d25785356126c38161262f565b825294820194908201906126b0565b965050860135925050808211156126e857600080fd5b5061196d85828601611fe3565b600080600080600060a0868803121561270d57600080fd5b612717863561262f565b853594506127286020870135612476565b6020860135935067ffffffffffffffff806040880135111561274957600080fd5b6127598860408901358901611e3a565b9350806060880135111561276c57600080fd5b61277c8860608901358901611df6565b9250806080880135111561278f57600080fd5b6080870135870188601f8201126127a557600080fd5b6127b2611dc68235611e16565b81358082526020808301929160051b8401018b10156127d057600080fd5b602083015b6020843560051b8501018110156128675784813511156127f457600080fd5b803584016040818e03601f1901121561280c57600080fd5b612814611d36565b6128216020830135611c9a565b60208201358152866040830135111561283957600080fd5b61284c8e60206040850135850101611df6565b602082015280855250506020830192506020810190506127d5565b50809450505050509295509295909350565b60408152600061288c6040830185611f8c565b828103602084015261289e8185611f8c565b95945050505050565b634e487b7160e01b600052601160045260246000fd5b808201808211156102e8576102e86128a7565b6000600182016128e2576128e26128a7565b5060010190565b6000602082840312156128fb57600080fd5b815167ffffffffffffffff81111561291257600080fd5b6124ed848285016124a8565b60a08152600061293160a0830188611f8c565b82810360208401526129438188611f8c565b90508281036040840152612957818761240e565b90506001600160e01b031985166060840152828103608084015261297b8185611f8c565b98975050505050505050565b818103818111156102e8576102e86128a7565b600080858511156129aa57600080fd5b838611156129b757600080fd5b5050820193919092039150565b8183823760009101908152919050565b6000602082840312156129e657600080fd5b815167ffffffffffffffff808211156129fe57600080fd5b9083019060608286031215612a1257600080fd5b604051606081018181108382111715612a2d57612a2d611d20565b6040528251612a3b81612476565b8152602083015182811115612a4f57600080fd5b612a5b8782860161257a565b602083015250604083015182811115612a7357600080fd5b612a7f878286016124a8565b60408301525095945050505050565b6001600160a01b0381511682526000602082015160606020850152612ab6606085018261240e565b90506040830151848203604086015261289e8282611f8c565b6000602080830181845280855180835260408601915060408160051b870101925083870160005b82811015612b2457603f19888603018452612b12858351612a8e565b94509285019290850190600101612af6565b5092979650505050505050565b8515158152600060206001600160a01b03871681840152604060a081850152612b5d60a085018861240e565b8481036060860152612b6f8188611f8c565b905084810360808601528086518083528483019150848160051b84010185890160005b83811015612bdb57858303601f19018552815180516001600160e01b0319168452880151888401889052612bc888850182611f8c565b9589019593505090870190600101612b92565b50909d9c50505050505050505050505050565b6001600160a01b038616815260a060208201526000612c1060a083018761240e565b82810360408401526129578187611f8c565b600060208284031215612c3457600080fd5b8151611cd08161262f565b6000815160208301516001600160e01b031980821693506004831015612c6f5780818460040360031b1b83161693505b505050919050565b600080600080600060a08688031215612c8f57600080fd5b8551612c9a81612476565b602087015190955067ffffffffffffffff80821115612cb857600080fd5b612cc489838a0161257a565b95506040880151915080821115612cda57600080fd5b612ce689838a016124a8565b945060608801519150612cf882611c9a565b608088015191935080821115612d0d57600080fd5b50612d1a888289016124a8565b9150509295509295909350565b602081526000611cd06020830184612a8e565b60008351612d4c818460208801611f68565b835190830190612d60818360208801611f68565b0194935050505056fea264697066735822122042463949d56763de36094f1a7d1192eda471cc0246eac093b69f82a03f78382e64736f6c63430008110033",
  "linkReferences": {},
  "deployedLinkReferences": {}
}