{
  "_format": "hh-sol-artifact-1",
  "contractName": "UniversalENSRegistry",
  "sourceName": "contracts/universal-registry/UniversalENSRegistry.sol",
  "abi": [
    {
      "inputs": [
        {
          "internalType": "address",
          "name": "_universalResolverTemplate",
          "type": "address"
        }
      ],
      "stateMutability": "nonpayable",
      "type": "constructor"
    },
    {
      "inputs": [
        {
          "internalType": "address",
          "name": "registry",
          "type": "address"
        }
      ],
      "name": "InvalidReverseRegistry",
      "type": "error"
    },
    {
      "inputs": [],
      "name": "InvalidSignature",
      "type": "error"
    },
    {
      "inputs": [
        {
          "internalType": "uint256",
          "name": "nonce",
          "type": "uint256"
        }
      ],
      "name": "NonceTooLow",
      "type": "error"
    },
    {
      "inputs": [],
      "name": "NotRegistryOwner",
      "type": "error"
    },
    {
      "inputs": [
        {
          "internalType": "address",
          "name": "addr",
          "type": "address"
        },
        {
          "internalType": "address",
          "name": "operator",
          "type": "address"
        }
      ],
      "name": "ReverseRecordNotFound",
      "type": "error"
    },
    {
      "inputs": [],
      "name": "SignatureExpired",
      "type": "error"
    },
    {
      "anonymous": false,
      "inputs": [
        {
          "indexed": true,
          "internalType": "address",
          "name": "deployer",
          "type": "address"
        },
        {
          "indexed": true,
          "internalType": "address",
          "name": "registry",
          "type": "address"
        },
        {
          "indexed": true,
          "internalType": "address",
          "name": "resolver",
          "type": "address"
        }
      ],
      "name": "DeployUniversalResolver",
      "type": "event"
    },
    {
      "anonymous": false,
      "inputs": [
        {
          "indexed": true,
          "internalType": "address",
          "name": "registry",
          "type": "address"
        },
        {
          "indexed": true,
          "internalType": "address",
          "name": "setter",
          "type": "address"
        },
        {
          "indexed": false,
          "internalType": "string[]",
          "name": "urls",
          "type": "string[]"
        }
      ],
      "name": "SetGatewayUrls",
      "type": "event"
    },
    {
      "anonymous": false,
      "inputs": [
        {
          "indexed": true,
          "internalType": "address",
          "name": "operator",
          "type": "address"
        },
        {
          "indexed": true,
          "internalType": "uint256",
          "name": "nonce",
          "type": "uint256"
        },
        {
          "indexed": false,
          "internalType": "address[]",
          "name": "registries",
          "type": "address[]"
        }
      ],
      "name": "SetRegistryMapping",
      "type": "event"
    },
    {
      "anonymous": false,
      "inputs": [
        {
          "indexed": true,
          "internalType": "address",
          "name": "addr",
          "type": "address"
        },
        {
          "indexed": true,
          "internalType": "address",
          "name": "registry",
          "type": "address"
        }
      ],
      "name": "SetReverseRegistry",
      "type": "event"
    },
    {
      "inputs": [
        {
          "internalType": "address",
          "name": "",
          "type": "address"
        }
      ],
      "name": "currentNonce",
      "outputs": [
        {
          "internalType": "uint256",
          "name": "",
          "type": "uint256"
        }
      ],
      "stateMutability": "view",
      "type": "function"
    },
    {
      "inputs": [
        {
          "internalType": "address",
          "name": "registry",
          "type": "address"
        }
      ],
      "name": "deployUniversalResolver",
      "outputs": [],
      "stateMutability": "nonpayable",
      "type": "function"
    },
    {
      "inputs": [
        {
          "internalType": "address",
          "name": "operator",
          "type": "address"
        },
        {
          "internalType": "bytes32",
          "name": "node",
          "type": "bytes32"
        }
      ],
      "name": "getAddr",
      "outputs": [
        {
          "internalType": "address",
          "name": "",
          "type": "address"
        }
      ],
      "stateMutability": "view",
      "type": "function"
    },
    {
      "inputs": [
        {
          "internalType": "address",
          "name": "registry",
          "type": "address"
        }
      ],
      "name": "getGatewayUrls",
      "outputs": [
        {
          "internalType": "string[]",
          "name": "",
          "type": "string[]"
        }
      ],
      "stateMutability": "view",
      "type": "function"
    },
    {
      "inputs": [
        {
          "internalType": "address",
          "name": "addr",
          "type": "address"
        },
        {
          "internalType": "address",
          "name": "operator",
          "type": "address"
        }
      ],
      "name": "getName",
      "outputs": [
        {
          "internalType": "string",
          "name": "",
          "type": "string"
        }
      ],
      "stateMutability": "view",
      "type": "function"
    },
    {
      "inputs": [
        {
          "internalType": "address",
          "name": "operator",
          "type": "address"
        },
        {
          "internalType": "bytes32",
          "name": "node",
          "type": "bytes32"
        }
      ],
      "name": "getRegistry",
      "outputs": [
        {
          "internalType": "contract ENS",
          "name": "registry",
          "type": "address"
        }
      ],
      "stateMutability": "view",
      "type": "function"
    },
    {
      "inputs": [
        {
          "internalType": "address",
          "name": "operator",
          "type": "address"
        },
        {
          "internalType": "bytes",
          "name": "name",
          "type": "bytes"
        }
      ],
      "name": "getRegistryByName",
      "outputs": [
        {
          "internalType": "contract ENS",
          "name": "registry",
          "type": "address"
        },
        {
          "internalType": "contract UniversalResolverTemplate",
          "name": "universalResolver",
          "type": "address"
        },
        {
          "internalType": "contract Resolver",
          "name": "resolver",
          "type": "address"
        },
        {
          "internalType": "bytes32",
          "name": "node",
          "type": "bytes32"
        },
        {
          "internalType": "uint256",
          "name": "finalOffset",
          "type": "uint256"
        }
      ],
      "stateMutability": "view",
      "type": "function"
    },
    {
      "inputs": [
        {
          "internalType": "address",
          "name": "operator",
          "type": "address"
        },
        {
          "internalType": "bytes32",
          "name": "node",
          "type": "bytes32"
        }
      ],
      "name": "getResolver",
      "outputs": [
        {
          "internalType": "address",
          "name": "",
          "type": "address"
        }
      ],
      "stateMutability": "view",
      "type": "function"
    },
    {
      "inputs": [
        {
          "internalType": "address",
          "name": "addr",
          "type": "address"
        },
        {
          "internalType": "address",
          "name": "operator",
          "type": "address"
        }
      ],
      "name": "getReverseUniversalResolver",
      "outputs": [
        {
          "internalType": "contract UniversalResolverTemplate",
          "name": "",
          "type": "address"
        }
      ],
      "stateMutability": "view",
      "type": "function"
    },
    {
      "inputs": [
        {
          "internalType": "address",
          "name": "operator",
          "type": "address"
        },
        {
          "internalType": "bytes32",
          "name": "node",
          "type": "bytes32"
        }
      ],
      "name": "getUniversalResolver",
      "outputs": [
        {
          "internalType": "contract UniversalResolverTemplate",
          "name": "",
          "type": "address"
        }
      ],
      "stateMutability": "view",
      "type": "function"
    },
    {
      "inputs": [
        {
          "internalType": "address",
          "name": "",
          "type": "address"
        },
        {
          "internalType": "uint256",
          "name": "",
          "type": "uint256"
        }
      ],
      "name": "registryMapping",
      "outputs": [
        {
          "internalType": "address",
          "name": "",
          "type": "address"
        }
      ],
      "stateMutability": "view",
      "type": "function"
    },
    {
      "inputs": [
        {
          "internalType": "address",
          "name": "",
          "type": "address"
        }
      ],
      "name": "reverseNonce",
      "outputs": [
        {
          "internalType": "uint256",
          "name": "",
          "type": "uint256"
        }
      ],
      "stateMutability": "view",
      "type": "function"
    },
    {
      "inputs": [
        {
          "internalType": "address",
          "name": "",
          "type": "address"
        }
      ],
      "name": "reverseRegistryMapping",
      "outputs": [
        {
          "internalType": "contract ENS",
          "name": "",
          "type": "address"
        }
      ],
      "stateMutability": "view",
      "type": "function"
    },
    {
      "inputs": [
        {
          "internalType": "contract ENS",
          "name": "registry",
          "type": "address"
        },
        {
          "internalType": "string[]",
          "name": "urls",
          "type": "string[]"
        }
      ],
      "name": "setGatewayUrls",
      "outputs": [],
      "stateMutability": "nonpayable",
      "type": "function"
    },
    {
      "inputs": [
        {
          "internalType": "address",
          "name": "operator",
          "type": "address"
        },
        {
          "internalType": "uint256",
          "name": "nonce",
          "type": "uint256"
        },
        {
          "internalType": "address[]",
          "name": "registries",
          "type": "address[]"
        },
        {
          "internalType": "bytes",
          "name": "signature",
          "type": "bytes"
        }
      ],
      "name": "setRegistryMapping",
      "outputs": [],
      "stateMutability": "nonpayable",
      "type": "function"
    },
    {
      "inputs": [
        {
          "internalType": "contract ENS",
          "name": "registry",
          "type": "address"
        }
      ],
      "name": "setReverseRegistry",
      "outputs": [],
      "stateMutability": "nonpayable",
      "type": "function"
    },
    {
      "inputs": [
        {
          "internalType": "address",
          "name": "addr",
          "type": "address"
        },
        {
          "internalType": "contract ENS",
          "name": "registry",
          "type": "address"
        }
      ],
      "name": "setReverseRegistryForAddr",
      "outputs": [],
      "stateMutability": "nonpayable",
      "type": "function"
    },
    {
      "inputs": [
        {
          "internalType": "address",
          "name": "addr",
          "type": "address"
        },
        {
          "internalType": "contract ENS",
          "name": "registry",
          "type": "address"
        },
        {
          "internalType": "uint256",
          "name": "nonce",
          "type": "uint256"
        },
        {
          "internalType": "uint256",
          "name": "deadline",
          "type": "uint256"
        },
        {
          "internalType": "bytes",
          "name": "signature",
          "type": "bytes"
        }
      ],
      "name": "setReverseRegistryWithSignature",
      "outputs": [],
      "stateMutability": "nonpayable",
      "type": "function"
    },
    {
      "inputs": [
        {
          "internalType": "address",
          "name": "",
          "type": "address"
        }
      ],
      "name": "universalResolverMapping",
      "outputs": [
        {
          "internalType": "address",
          "name": "",
          "type": "address"
        }
      ],
      "stateMutability": "view",
      "type": "function"
    },
    {
      "inputs": [],
      "name": "universalResolverTemplate",
      "outputs": [
        {
          "internalType": "address",
          "name": "",
          "type": "address"
        }
      ],
      "stateMutability": "view",
      "type": "function"
    },
    {
      "inputs": [
        {
          "internalType": "address",
          "name": "template",
          "type": "address"
        },
        {
          "internalType": "address",
          "name": "registry",
          "type": "address"
        }
      ],
      "name": "upgradeUniversalResolver",
      "outputs": [],
      "stateMutability": "nonpayable",
      "type": "function"
    }
  ],
  "bytecode": "0x6101606040523480156200001257600080fd5b506040516200261e3803806200261e83398101604081905262000035916200014a565b604080518082018252601481527f556e6976657273616c454e5352656769737472790000000000000000000000006020808301918252835180850190945260018452603160f81b908401528151902060e08190527fc89efdaa54c0f20c7adf612882df0950f5a951637e0307cdcb4c672f298b8bc66101008190524660a0529192917f8b73c3c69bb8fe3d512ecc4cf759cc79239f7b179b0ffacaa9a75d522b39400f620001288184846040805160208101859052908101839052606081018290524660808201523060a082015260009060c0016040516020818303038152906040528051906020012090509392505050565b6080523060c05261012052505050506001600160a01b0316610140526200017c565b6000602082840312156200015d57600080fd5b81516001600160a01b03811681146200017557600080fd5b9392505050565b60805160a05160c05160e051610100516101205161014051612440620001de600039600081816103310152610f95015260006118d801526000611927015260006119020152600061185b01526000611885015260006118af01526124406000f3fe608060405234801561001057600080fd5b50600436106101775760003560e01c8063630d4469116100d8578063b8ee0e2d1161008c578063f6c266ec11610066578063f6c266ec146103ac578063fa7b2bfd146103bf578063ff6c436d146103d257600080fd5b8063b8ee0e2d14610366578063dd6ba09614610379578063e373f3921461039957600080fd5b8063678dd4be116100bd578063678dd4be14610303578063719a4e8e1461032c5780638f4477601461035357600080fd5b8063630d4469146102d05780636437ecfc146102e357600080fd5b8063332506521161012f5780633fa99c59116101145780633fa99c591461027c578063520096eb1461028f57806358b8d664146102a257600080fd5b806333250652146102405780633edff5c31461026957600080fd5b80630beac158116101605780630beac158146101bf5780630dce93af146101d4578063166542681461022057600080fd5b80630136f44e1461017c578063072ebb4a146101ac575b600080fd5b61018f61018a366004611b7e565b6103e5565b6040516001600160a01b0390911681526020015b60405180910390f35b61018f6101ba366004611baa565b61041d565b6101d26101cd366004611baa565b6104c3565b005b6101e76101e2366004611c25565b61052e565b604080516001600160a01b039687168152948616602086015292909416918301919091526060820152608081019190915260a0016101a3565b61023361022e366004611baa565b6106b0565b6040516101a39190611cca565b61018f61024e366004611cdd565b6004602052600090815260409020546001600160a01b031681565b61018f610277366004611b7e565b610886565b6101d261028a366004611cdd565b6109aa565b6101d261029d366004611d65565b6109b7565b6102c26102b0366004611cdd565b60036020526000908152604090205481565b6040519081526020016101a3565b6101d26102de366004611e51565b610c14565b6102c26102f1366004611cdd565b60026020526000908152604090205481565b61018f610311366004611cdd565b6005602052600090815260409020546001600160a01b031681565b61018f7f000000000000000000000000000000000000000000000000000000000000000081565b61018f610361366004611b7e565b610d35565b6101d2610374366004611ef5565b610d69565b61038c610387366004611cdd565b610e7c565b6040516101a39190611ff9565b6101d26103a7366004611cdd565b610f6b565b6101d26103ba366004611baa565b611087565b61018f6103cd366004611b7e565b6111fb565b61018f6103e0366004611b7e565b61127c565b6000602052816000526040600020818154811061040157600080fd5b6000918252602090912001546001600160a01b03169150829050565b600080610429846112b5565b6001600160a01b0380861660009081526004602052604090205491925016801580159061045f57506001600160a01b0381163b15155b15610488576001600160a01b039081166000908152600560205260409020541691506104bd9050565b600560006104968685610886565b6001600160a01b0390811682526020820192909252604001600020541692506104bd915050565b92915050565b336001600160a01b038316146104f9576104dc82611311565b6104f957604051638baa579f60e01b815260040160405180910390fd5b6001600160a01b03821660009081526003602052604090205461052a908390839061052590600161205b565b61138a565b5050565b6000806000806000805b6001600160a01b038916600090815260208190526040902054811015610693576001600160a01b03891660009081526020819052604090208054829081106105825761058261207c565b6000918252602090912001546001600160a01b03169550853b1561065f576001600160a01b03808716600090815260056020526040908190205490517fa1cbcbaf00000000000000000000000000000000000000000000000000000000815291169550859063a1cbcbaf906105fd908b908b90600401612092565b606060405180830381865afa15801561061a573d6000803e3d6000fd5b505050506040513d601f19601f8201168201806040525081019061063e91906120c1565b919550935091506001600160a01b0384161561065a57506106a5565b61068b565b61066a86898961052e565b9399509197509550935091506001600160a01b0386161561068b57506106a5565b600101610538565b50600094508493508392508291508190505b939792965093509350565b606060006106bd846112b5565b6001600160a01b0380861660009081526004602052604081205492935091169081158015906106f557506001600160a01b0382163b15155b1561076a57604051630178b8bf60e01b8152600481018490526001600160a01b03831690630178b8bf90602401602060405180830381865afa15801561073f573d6000803e3d6000fd5b505050506040513d601f19601f8201168201806040525081019061076391906120f8565b9050610786565b6001600160a01b0385161561078657610783858461127c565b90505b6001600160a01b038116158015906107a757506001600160a01b0381163b15155b1561083c576040517f691f3431000000000000000000000000000000000000000000000000000000008152600481018490526001600160a01b0382169063691f343190602401600060405180830381865afa15801561080a573d6000803e3d6000fd5b505050506040513d6000823e601f3d908101601f191682016040526108329190810190612115565b93505050506104bd565b6040517fe97e90160000000000000000000000000000000000000000000000000000000081526001600160a01b038088166004830152861660248201526044015b60405180910390fd5b6000805b6001600160a01b0384166000908152602081905260409020548110156109a0576001600160a01b03841660009081526020819052604090208054829081106108d4576108d461207c565b6000918252602090912001546001600160a01b03169150813b1561097757604051630178b8bf60e01b8152600481018490526000906001600160a01b03841690630178b8bf90602401602060405180830381865afa15801561093a573d6000803e3d6000fd5b505050506040513d601f19601f8201168201806040525081019061095e91906120f8565b6001600160a01b03161461097257506104bd565b610998565b6109818284610886565b91506001600160a01b0382161561099857506104bd565b60010161088a565b5060009392505050565b6109b433826104c3565b50565b6000610a0c7f4bc6003ce1463ba5ab4668e4fd5086a104f679db4c81a893c01bfe032851fda786866040516020016109f1939291906121c8565b604051602081830303815290604052805190602001206114a6565b6001600160a01b0387166000908152600260205260409020549091508511610a4a576040516309dfc35560e01b81526004810186905260240161087d565b610a8b868285858080601f0160208091040260200160405190810160405280939291908181526020018383808284376000920191909152506114e192505050565b610b2d576000610acb7f4bc6003ce1463ba5ab4668e4fd5086a104f679db4c81a893c01bfe032851fda74688886040516020016109f194939291906121e0565b9050610b0e878286868080601f0160208091040260200160405190810160405280939291908181526020018383808284376000920191909152506114e192505050565b610b2b57604051638baa579f60e01b815260040160405180910390fd5b505b6001600160a01b03861660009081526002602090815260408083208890558282529091208551610b5f92870190611a39565b50835160005b81811015610bc857610b99868281518110610b8257610b8261207c565b60200260200101516001600160a01b03163b151590565b15610bc057610bc0868281518110610bb357610bb361207c565b6020026020010151610f6b565b600101610b65565b505084866001600160a01b03167f6ffd9887a74ccd5d767ca17c622bcc06be873e801253ec27c3b77108b358f21f86604051610c049190612208565b60405180910390a3505050505050565b42831015610c4e576040517f0819bdcd00000000000000000000000000000000000000000000000000000000815260040160405180910390fd5b604080517ffa02fe8ca7895501a2114705cf0579adf5b0e5edd07f77f241baf0d82266dbeb60208201526001600160a01b03871691810191909152606081018590526080810184905260009060a0016040516020818303038152906040528051906020012090506000610cc082611669565b9050610d03888286868080601f0160208091040260200160405190810160405280939291908181526020018383808284376000920191909152506114e192505050565b610d2057604051638baa579f60e01b815260040160405180910390fd5b610d2b88888861138a565b5050505050505050565b600060056000610d458585610886565b6001600160a01b039081168252602082019290925260400160002054169392505050565b6040516302571be360e01b8152600060048201526001600160a01b038316906302571be390602401602060405180830381865afa158015610dae573d6000803e3d6000fd5b505050506040513d601f19601f82011682018060405250810190610dd291906120f8565b6001600160a01b0316336001600160a01b031614610e035760405163778d468d60e11b815260040160405180910390fd5b6001600160a01b03821660009081526001602090815260409091208251610e2c92840190611aab565b50336001600160a01b0316826001600160a01b03167f73dc6aebbe720c99634a83c24f954edbe49e56391c62bffefaa176fa09c9404883604051610e709190611ff9565b60405180910390a35050565b6001600160a01b0381166000908152600160209081526040808320805482518185028101850190935280835260609492939192909184015b82821015610f60578382906000526020600020018054610ed390612255565b80601f0160208091040260200160405190810160405280929190818152602001828054610eff90612255565b8015610f4c5780601f10610f2157610100808354040283529160200191610f4c565b820191906000526020600020905b815481529060010190602001808311610f2f57829003601f168201915b505050505081526020019060010190610eb4565b505050509050919050565b6001600160a01b038181166000908152600560205260409020541615610f8e5750565b6000610fc37f00000000000000000000000000000000000000000000000000000000000000006001600160a01b0384166116d2565b60405163189acdbd60e31b81526001600160a01b0384811660048301529192509082169063c4d66de890602401600060405180830381600087803b15801561100a57600080fd5b505af115801561101e573d6000803e3d6000fd5b505050506001600160a01b03828116600081815260056020526040808220805473ffffffffffffffffffffffffffffffffffffffff191694861694851790555133917f791c0d197d1ba082fff527e5931b182dfc03539ce7311b6a81aced9a4860fe0d91a45050565b6040516302571be360e01b8152600060048201526001600160a01b038216906302571be390602401602060405180830381865afa1580156110cc573d6000803e3d6000fd5b505050506040513d601f19601f820116820180604052508101906110f091906120f8565b6001600160a01b0316336001600160a01b0316146111215760405163778d468d60e11b815260040160405180910390fd5b6000611136836001600160a01b0384166116d2565b60405163189acdbd60e31b81526001600160a01b0384811660048301529192509082169063c4d66de890602401600060405180830381600087803b15801561117d57600080fd5b505af1158015611191573d6000803e3d6000fd5b505050506001600160a01b03828116600081815260056020526040808220805473ffffffffffffffffffffffffffffffffffffffff191694861694851790555133917f791c0d197d1ba082fff527e5931b182dfc03539ce7311b6a81aced9a4860fe0d91a4505050565b6000611207838361127c565b6001600160a01b0316633b3b57de836040518263ffffffff1660e01b815260040161123491815260200190565b602060405180830381865afa158015611251573d6000803e3d6000fd5b505050506040513d601f19601f8201168201806040525081019061127591906120f8565b9392505050565b60006112888383610886565b6001600160a01b0316630178b8bf836040518263ffffffff1660e01b815260040161123491815260200190565b60007f91d1777781884d03a6757a803996e38de2a42967fb37eeaca72729271025a9e26112e183611789565b6040805160208101939093528201526060015b604051602081830303815290604052805190602001209050919050565b6000816001600160a01b0316638da5cb5b6040518163ffffffff1660e01b8152600401602060405180830381865afa92505050801561136d575060408051601f3d908101601f1916820190925261136a918101906120f8565b60015b61137957506000919050565b6001600160a01b0316331492915050565b6001600160a01b03831660009081526003602052604090205481116113c5576040516309dfc35560e01b81526004810182905260240161087d565b6001600160a01b0382163b611411576040517fc9a19a570000000000000000000000000000000000000000000000000000000081526001600160a01b038316600482015260240161087d565b6001600160a01b038381166000908152600460209081526040808320805473ffffffffffffffffffffffffffffffffffffffff191694871694909417909355600390522081905561146182610f6b565b816001600160a01b0316836001600160a01b03167f399f20a1ec93d6b25e737771ae05438e72951f633adfa966f45a26eaf650a12a60405160405180910390a3505050565b6040517f19457468657265756d205369676e6564204d6573736167653a0a3332000000006020820152603c8101829052600090605c016112f4565b60008060006114f08585611809565b909250905060008160048111156115095761150961228f565b1480156115275750856001600160a01b0316826001600160a01b0316145b1561153757600192505050611275565b600080876001600160a01b0316631626ba7e60e01b888860405160240161155f9291906122a5565b60408051601f198184030181529181526020820180517bffffffffffffffffffffffffffffffffffffffffffffffffffffffff167fffffffff000000000000000000000000000000000000000000000000000000009094169390931790925290516115ca91906122c6565b600060405180830381855afa9150503d8060008114611605576040519150601f19603f3d011682016040523d82523d6000602084013e61160a565b606091505b509150915081801561161d575080516020145b801561165d575080517f1626ba7e000000000000000000000000000000000000000000000000000000009061165b90830160209081019084016122e2565b145b98975050505050505050565b60006104bd61167661184e565b836040517f19010000000000000000000000000000000000000000000000000000000000006020820152602281018390526042810182905260009060620160405160208183030381529060405280519060200120905092915050565b6000763d602d80600a3d3981f3363d3d373d3d3d363d730000008360601b60e81c176000526e5af43d82803e903d91602b57fd5bf38360781b1760205281603760096000f590506001600160a01b0381166104bd576040517f08c379a000000000000000000000000000000000000000000000000000000000815260206004820152601760248201527f455243313136373a2063726561746532206661696c6564000000000000000000604482015260640161087d565b600060285b80156117fd57600019017f3031323334353637383961626364656600000000000000000000000000000000600f84161a8153601090920491600019017f3031323334353637383961626364656600000000000000000000000000000000600f84161a815360108304925061178e565b50506028600020919050565b600080825160410361183f5760208301516040840151606085015160001a61183387828585611975565b94509450505050611847565b506000905060025b9250929050565b6000306001600160a01b037f0000000000000000000000000000000000000000000000000000000000000000161480156118a757507f000000000000000000000000000000000000000000000000000000000000000046145b156118d157507f000000000000000000000000000000000000000000000000000000000000000090565b50604080517f00000000000000000000000000000000000000000000000000000000000000006020808301919091527f0000000000000000000000000000000000000000000000000000000000000000828401527f000000000000000000000000000000000000000000000000000000000000000060608301524660808301523060a0808401919091528351808403909101815260c0909201909252805191012090565b6000807f7fffffffffffffffffffffffffffffff5d576e7357a4501ddfe92f46681b20a08311156119ac5750600090506003611a30565b6040805160008082526020820180845289905260ff881692820192909252606081018690526080810185905260019060a0016020604051602081039080840390855afa158015611a00573d6000803e3d6000fd5b5050604051601f1901519150506001600160a01b038116611a2957600060019250925050611a30565b9150600090505b94509492505050565b828054828255906000526020600020908101928215611a9b579160200282015b82811115611a9b578251825473ffffffffffffffffffffffffffffffffffffffff19166001600160a01b03909116178255602090920191600190910190611a59565b50611aa7929150611afd565b5090565b828054828255906000526020600020908101928215611af1579160200282015b82811115611af15782518290611ae1908261234a565b5091602001919060010190611acb565b50611aa7929150611b12565b5b80821115611aa75760008155600101611afe565b80821115611aa7576000611b268282611b2f565b50600101611b12565b508054611b3b90612255565b6000825580601f10611b4b575050565b601f0160209004906000526020600020908101906109b49190611afd565b6001600160a01b03811681146109b457600080fd5b60008060408385031215611b9157600080fd5b8235611b9c81611b69565b946020939093013593505050565b60008060408385031215611bbd57600080fd5b8235611bc881611b69565b91506020830135611bd881611b69565b809150509250929050565b60008083601f840112611bf557600080fd5b50813567ffffffffffffffff811115611c0d57600080fd5b60208301915083602082850101111561184757600080fd5b600080600060408486031215611c3a57600080fd5b8335611c4581611b69565b9250602084013567ffffffffffffffff811115611c6157600080fd5b611c6d86828701611be3565b9497909650939450505050565b60005b83811015611c95578181015183820152602001611c7d565b50506000910152565b60008151808452611cb6816020860160208601611c7a565b601f01601f19169290920160200192915050565b6020815260006112756020830184611c9e565b600060208284031215611cef57600080fd5b813561127581611b69565b634e487b7160e01b600052604160045260246000fd5b604051601f8201601f1916810167ffffffffffffffff81118282101715611d3957611d39611cfa565b604052919050565b600067ffffffffffffffff821115611d5b57611d5b611cfa565b5060051b60200190565b600080600080600060808688031215611d7d57600080fd5b8535611d8881611b69565b94506020868101359450604087013567ffffffffffffffff80821115611dad57600080fd5b818901915089601f830112611dc157600080fd5b8135611dd4611dcf82611d41565b611d10565b81815260059190911b8301840190848101908c831115611df357600080fd5b938501935b82851015611e1a578435611e0b81611b69565b82529385019390850190611df8565b975050506060890135925080831115611e3257600080fd5b5050611e4088828901611be3565b969995985093965092949392505050565b60008060008060008060a08789031215611e6a57600080fd5b8635611e7581611b69565b95506020870135611e8581611b69565b94506040870135935060608701359250608087013567ffffffffffffffff811115611eaf57600080fd5b611ebb89828a01611be3565b979a9699509497509295939492505050565b600067ffffffffffffffff821115611ee757611ee7611cfa565b50601f01601f191660200190565b6000806040808486031215611f0957600080fd5b8335611f1481611b69565b925060208481013567ffffffffffffffff80821115611f3257600080fd5b818701915087601f830112611f4657600080fd5b8135611f54611dcf82611d41565b81815260059190911b8301840190848101908a831115611f7357600080fd5b8585015b83811015611fe757803585811115611f8f5760008081fd5b8601603f81018d13611fa15760008081fd5b87810135611fb1611dcf82611ecd565b8181528e8b838501011115611fc65760008081fd5b818b84018b83013760009181018a0191909152845250918601918601611f77565b50809750505050505050509250929050565b6000602080830181845280855180835260408601915060408160051b870101925083870160005b8281101561204e57603f1988860301845261203c858351611c9e565b94509285019290850190600101612020565b5092979650505050505050565b808201808211156104bd57634e487b7160e01b600052601160045260246000fd5b634e487b7160e01b600052603260045260246000fd5b60208152816020820152818360408301376000818301604090810191909152601f909201601f19160101919050565b6000806000606084860312156120d657600080fd5b83516120e181611b69565b602085015160409095015190969495509392505050565b60006020828403121561210a57600080fd5b815161127581611b69565b60006020828403121561212757600080fd5b815167ffffffffffffffff81111561213e57600080fd5b8201601f8101841361214f57600080fd5b805161215d611dcf82611ecd565b81815285602083850101111561217257600080fd5b612183826020830160208601611c7a565b95945050505050565b60008151602080840160005b838110156121bd5781516001600160a01b031687529582019590820190600101612198565b509495945050505050565b8381528260208201526000612183604083018461218c565b84815283602082015282604082015260006121fe606083018461218c565b9695505050505050565b6020808252825182820181905260009190848201906040850190845b818110156122495783516001600160a01b031683529284019291840191600101612224565b50909695505050505050565b600181811c9082168061226957607f821691505b60208210810361228957634e487b7160e01b600052602260045260246000fd5b50919050565b634e487b7160e01b600052602160045260246000fd5b8281526040602082015260006122be6040830184611c9e565b949350505050565b600082516122d8818460208701611c7a565b9190910192915050565b6000602082840312156122f457600080fd5b5051919050565b601f82111561234557600081815260208120601f850160051c810160208610156123225750805b601f850160051c820191505b818110156123415782815560010161232e565b5050505b505050565b815167ffffffffffffffff81111561236457612364611cfa565b612378816123728454612255565b846122fb565b602080601f8311600181146123ad57600084156123955750858301515b600019600386901b1c1916600185901b178555612341565b600085815260208120601f198616915b828110156123dc578886015182559484019460019091019084016123bd565b50858210156123fa5787850151600019600388901b60f8161c191681555b5050505050600190811b0190555056fea264697066735822122075ac5effd0c0da0a6e0292e8c28d5753746a2b083486eb34b81bf218bfe2ef5664736f6c63430008110033",
  "linkReferences": {},
  "deployedLinkReferences": {}
}