{
  "_format": "hh-sol-artifact-1",
  "contractName": "DiamondResolver",
  "sourceName": "contracts/diamond-resolver/DiamondResolver.sol",
  "abi": [
    {
      "inputs": [
        {
          "internalType": "address",
          "name": "_owner",
          "type": "address"
        },
        {
          "internalType": "contract INameWrapperRegistry",
          "name": "_registry",
          "type": "address"
        }
      ],
      "stateMutability": "nonpayable",
      "type": "constructor"
    },
    {
      "inputs": [],
      "name": "DiamondWritable__InvalidInitializationParameters",
      "type": "error"
    },
    {
      "inputs": [],
      "name": "DiamondWritable__RemoveTargetNotZeroAddress",
      "type": "error"
    },
    {
      "inputs": [],
      "name": "DiamondWritable__ReplaceTargetIsIdentical",
      "type": "error"
    },
    {
      "inputs": [],
      "name": "DiamondWritable__SelectorAlreadyAdded",
      "type": "error"
    },
    {
      "inputs": [],
      "name": "DiamondWritable__SelectorIsImmutable",
      "type": "error"
    },
    {
      "inputs": [],
      "name": "DiamondWritable__SelectorNotFound",
      "type": "error"
    },
    {
      "inputs": [],
      "name": "DiamondWritable__SelectorNotSpecified",
      "type": "error"
    },
    {
      "inputs": [],
      "name": "DiamondWritable__TargetHasNoCode",
      "type": "error"
    },
    {
      "inputs": [],
      "name": "ERC165Base__InvalidInterfaceId",
      "type": "error"
    },
    {
      "inputs": [],
      "name": "NotDiamondOwner",
      "type": "error"
    },
    {
      "inputs": [],
      "name": "Ownable__NotOwner",
      "type": "error"
    },
    {
      "inputs": [],
      "name": "Ownable__NotTransitiveOwner",
      "type": "error"
    },
    {
      "inputs": [],
      "name": "Proxy__ImplementationIsNotContract",
      "type": "error"
    },
    {
      "inputs": [],
      "name": "SafeOwnable__NotNomineeOwner",
      "type": "error"
    },
    {
      "inputs": [],
      "name": "Unauthorised",
      "type": "error"
    },
    {
      "anonymous": false,
      "inputs": [
        {
          "indexed": true,
          "internalType": "address",
          "name": "owner",
          "type": "address"
        },
        {
          "indexed": true,
          "internalType": "address",
          "name": "operator",
          "type": "address"
        },
        {
          "indexed": false,
          "internalType": "bool",
          "name": "approved",
          "type": "bool"
        }
      ],
      "name": "ApprovalForAll",
      "type": "event"
    },
    {
      "anonymous": false,
      "inputs": [
        {
          "indexed": false,
          "internalType": "address",
          "name": "owner",
          "type": "address"
        },
        {
          "indexed": true,
          "internalType": "bytes32",
          "name": "node",
          "type": "bytes32"
        },
        {
          "indexed": true,
          "internalType": "address",
          "name": "delegate",
          "type": "address"
        },
        {
          "indexed": true,
          "internalType": "bool",
          "name": "approved",
          "type": "bool"
        }
      ],
      "name": "Approved",
      "type": "event"
    },
    {
      "anonymous": false,
      "inputs": [
        {
          "indexed": true,
          "internalType": "address",
          "name": "cloner",
          "type": "address"
        },
        {
          "indexed": true,
          "internalType": "address",
          "name": "resolver",
          "type": "address"
        }
      ],
      "name": "CloneDiamondResolver",
      "type": "event"
    },
    {
      "anonymous": false,
      "inputs": [
        {
          "components": [
            {
              "internalType": "address",
              "name": "target",
              "type": "address"
            },
            {
              "internalType": "enum IDiamondWritableInternal.FacetCutAction",
              "name": "action",
              "type": "uint8"
            },
            {
              "internalType": "bytes4[]",
              "name": "selectors",
              "type": "bytes4[]"
            }
          ],
          "indexed": false,
          "internalType": "struct IDiamondWritableInternal.FacetCut[]",
          "name": "facetCuts",
          "type": "tuple[]"
        },
        {
          "indexed": false,
          "internalType": "address",
          "name": "target",
          "type": "address"
        },
        {
          "indexed": false,
          "internalType": "bytes",
          "name": "data",
          "type": "bytes"
        }
      ],
      "name": "DiamondCut",
      "type": "event"
    },
    {
      "anonymous": false,
      "inputs": [
        {
          "indexed": true,
          "internalType": "address",
          "name": "previousOwner",
          "type": "address"
        },
        {
          "indexed": true,
          "internalType": "address",
          "name": "newOwner",
          "type": "address"
        }
      ],
      "name": "OwnershipTransferred",
      "type": "event"
    },
    {
      "anonymous": false,
      "inputs": [
        {
          "indexed": true,
          "internalType": "bytes32",
          "name": "node",
          "type": "bytes32"
        },
        {
          "indexed": false,
          "internalType": "uint64",
          "name": "newVersion",
          "type": "uint64"
        }
      ],
      "name": "VersionChanged",
      "type": "event"
    },
    {
      "stateMutability": "payable",
      "type": "fallback"
    },
    {
      "inputs": [],
      "name": "acceptOwnership",
      "outputs": [],
      "stateMutability": "nonpayable",
      "type": "function"
    },
    {
      "inputs": [
        {
          "internalType": "bytes32",
          "name": "node",
          "type": "bytes32"
        },
        {
          "internalType": "address",
          "name": "delegate",
          "type": "address"
        },
        {
          "internalType": "bool",
          "name": "approved",
          "type": "bool"
        }
      ],
      "name": "approve",
      "outputs": [],
      "stateMutability": "nonpayable",
      "type": "function"
    },
    {
      "inputs": [
        {
          "internalType": "bytes32",
          "name": "node",
          "type": "bytes32"
        }
      ],
      "name": "clearRecords",
      "outputs": [],
      "stateMutability": "nonpayable",
      "type": "function"
    },
    {
      "inputs": [
        {
          "internalType": "bytes32",
          "name": "salt",
          "type": "bytes32"
        }
      ],
      "name": "clone",
      "outputs": [],
      "stateMutability": "nonpayable",
      "type": "function"
    },
    {
      "inputs": [
        {
          "components": [
            {
              "internalType": "address",
              "name": "target",
              "type": "address"
            },
            {
              "internalType": "enum IDiamondWritableInternal.FacetCutAction",
              "name": "action",
              "type": "uint8"
            },
            {
              "internalType": "bytes4[]",
              "name": "selectors",
              "type": "bytes4[]"
            }
          ],
          "internalType": "struct IDiamondWritableInternal.FacetCut[]",
          "name": "facetCuts",
          "type": "tuple[]"
        },
        {
          "internalType": "address",
          "name": "target",
          "type": "address"
        },
        {
          "internalType": "bytes",
          "name": "data",
          "type": "bytes"
        }
      ],
      "name": "diamondCut",
      "outputs": [],
      "stateMutability": "nonpayable",
      "type": "function"
    },
    {
      "inputs": [
        {
          "internalType": "bytes4",
          "name": "selector",
          "type": "bytes4"
        }
      ],
      "name": "facetAddress",
      "outputs": [
        {
          "internalType": "address",
          "name": "facet",
          "type": "address"
        }
      ],
      "stateMutability": "view",
      "type": "function"
    },
    {
      "inputs": [],
      "name": "facetAddresses",
      "outputs": [
        {
          "internalType": "address[]",
          "name": "addresses",
          "type": "address[]"
        }
      ],
      "stateMutability": "view",
      "type": "function"
    },
    {
      "inputs": [
        {
          "internalType": "address",
          "name": "facet",
          "type": "address"
        }
      ],
      "name": "facetFunctionSelectors",
      "outputs": [
        {
          "internalType": "bytes4[]",
          "name": "selectors",
          "type": "bytes4[]"
        }
      ],
      "stateMutability": "view",
      "type": "function"
    },
    {
      "inputs": [],
      "name": "facets",
      "outputs": [
        {
          "components": [
            {
              "internalType": "address",
              "name": "target",
              "type": "address"
            },
            {
              "internalType": "bytes4[]",
              "name": "selectors",
              "type": "bytes4[]"
            }
          ],
          "internalType": "struct IDiamondReadable.Facet[]",
          "name": "diamondFacets",
          "type": "tuple[]"
        }
      ],
      "stateMutability": "view",
      "type": "function"
    },
    {
      "inputs": [],
      "name": "getFallbackAddress",
      "outputs": [
        {
          "internalType": "address",
          "name": "fallbackAddress",
          "type": "address"
        }
      ],
      "stateMutability": "view",
      "type": "function"
    },
    {
      "inputs": [
        {
          "internalType": "bytes4",
          "name": "sig",
          "type": "bytes4"
        }
      ],
      "name": "getImplementation",
      "outputs": [
        {
          "internalType": "address",
          "name": "implementation",
          "type": "address"
        }
      ],
      "stateMutability": "view",
      "type": "function"
    },
    {
      "inputs": [
        {
          "internalType": "address",
          "name": "_owner",
          "type": "address"
        },
        {
          "internalType": "address",
          "name": "_fallback",
          "type": "address"
        }
      ],
      "name": "initialize",
      "outputs": [],
      "stateMutability": "nonpayable",
      "type": "function"
    },
    {
      "inputs": [
        {
          "internalType": "address",
          "name": "owner",
          "type": "address"
        },
        {
          "internalType": "bytes32",
          "name": "node",
          "type": "bytes32"
        },
        {
          "internalType": "address",
          "name": "delegate",
          "type": "address"
        }
      ],
      "name": "isApprovedFor",
      "outputs": [
        {
          "internalType": "bool",
          "name": "",
          "type": "bool"
        }
      ],
      "stateMutability": "view",
      "type": "function"
    },
    {
      "inputs": [
        {
          "internalType": "address",
          "name": "account",
          "type": "address"
        },
        {
          "internalType": "address",
          "name": "operator",
          "type": "address"
        }
      ],
      "name": "isApprovedForAll",
      "outputs": [
        {
          "internalType": "bool",
          "name": "",
          "type": "bool"
        }
      ],
      "stateMutability": "view",
      "type": "function"
    },
    {
      "inputs": [
        {
          "internalType": "bytes[]",
          "name": "data",
          "type": "bytes[]"
        }
      ],
      "name": "multicall",
      "outputs": [
        {
          "internalType": "bytes[]",
          "name": "results",
          "type": "bytes[]"
        }
      ],
      "stateMutability": "nonpayable",
      "type": "function"
    },
    {
      "inputs": [
        {
          "internalType": "bytes32",
          "name": "nodehash",
          "type": "bytes32"
        },
        {
          "internalType": "bytes[]",
          "name": "data",
          "type": "bytes[]"
        }
      ],
      "name": "multicallWithNodeCheck",
      "outputs": [
        {
          "internalType": "bytes[]",
          "name": "results",
          "type": "bytes[]"
        }
      ],
      "stateMutability": "nonpayable",
      "type": "function"
    },
    {
      "inputs": [],
      "name": "nomineeOwner",
      "outputs": [
        {
          "internalType": "address",
          "name": "",
          "type": "address"
        }
      ],
      "stateMutability": "view",
      "type": "function"
    },
    {
      "inputs": [],
      "name": "owner",
      "outputs": [
        {
          "internalType": "address",
          "name": "",
          "type": "address"
        }
      ],
      "stateMutability": "view",
      "type": "function"
    },
    {
      "inputs": [
        {
          "internalType": "bytes32",
          "name": "node",
          "type": "bytes32"
        }
      ],
      "name": "recordVersions",
      "outputs": [
        {
          "internalType": "uint64",
          "name": "",
          "type": "uint64"
        }
      ],
      "stateMutability": "view",
      "type": "function"
    },
    {
      "inputs": [],
      "name": "registry",
      "outputs": [
        {
          "internalType": "contract INameWrapperRegistry",
          "name": "",
          "type": "address"
        }
      ],
      "stateMutability": "view",
      "type": "function"
    },
    {
      "inputs": [
        {
          "internalType": "address",
          "name": "operator",
          "type": "address"
        },
        {
          "internalType": "bool",
          "name": "approved",
          "type": "bool"
        }
      ],
      "name": "setApprovalForAll",
      "outputs": [],
      "stateMutability": "nonpayable",
      "type": "function"
    },
    {
      "inputs": [
        {
          "internalType": "address",
          "name": "fallbackAddress",
          "type": "address"
        }
      ],
      "name": "setFallbackAddress",
      "outputs": [],
      "stateMutability": "nonpayable",
      "type": "function"
    },
    {
      "inputs": [
        {
          "internalType": "bytes4[]",
          "name": "interfaceId",
          "type": "bytes4[]"
        },
        {
          "internalType": "bool",
          "name": "status",
          "type": "bool"
        }
      ],
      "name": "setMultiSupportsInterface",
      "outputs": [],
      "stateMutability": "nonpayable",
      "type": "function"
    },
    {
      "inputs": [
        {
          "internalType": "bytes4",
          "name": "interfaceId",
          "type": "bytes4"
        },
        {
          "internalType": "bool",
          "name": "status",
          "type": "bool"
        }
      ],
      "name": "setSupportsInterface",
      "outputs": [],
      "stateMutability": "nonpayable",
      "type": "function"
    },
    {
      "inputs": [
        {
          "internalType": "bytes4",
          "name": "interfaceID",
          "type": "bytes4"
        }
      ],
      "name": "supportsInterface",
      "outputs": [
        {
          "internalType": "bool",
          "name": "",
          "type": "bool"
        }
      ],
      "stateMutability": "view",
      "type": "function"
    },
    {
      "inputs": [
        {
          "internalType": "address",
          "name": "account",
          "type": "address"
        }
      ],
      "name": "transferOwnership",
      "outputs": [],
      "stateMutability": "nonpayable",
      "type": "function"
    },
    {
      "stateMutability": "payable",
      "type": "receive"
    }
  ],
  "bytecode": "0x60a06040523480156200001157600080fd5b5060405162005048380380620050488339810160408190526200003491620011e9565b816200004281600062000056565b506001600160a01b031660805250620013f5565b620000628282620003b4565b6001600160a01b0381166200036057604080516008808252610120820190925260009160208201610100803683370190505090506000637b10399960e01b8282620000ad8162001228565b935081518110620000c257620000c262001250565b6001600160e01b03199092166020928302919091019091015263a22cb46560e01b8282620000f08162001228565b93508151811062000105576200010562001250565b6001600160e01b03199092166020928302919091019091015263e985e9c560e01b8282620001338162001228565b93508151811062000148576200014862001250565b6001600160e01b03199092166020928302919091019091015263a4b91a0160e01b8282620001768162001228565b9350815181106200018b576200018b62001250565b6001600160e01b0319909216602092830291909101909101526354bc259f60e11b8282620001b98162001228565b935081518110620001ce57620001ce62001250565b6001600160e01b03199092166020928302919091019091015263d700ff3360e01b8282620001fc8162001228565b93508151811062000211576200021162001250565b6001600160e01b0319909216602092830291909101909101526306c07aeb60e31b82826200023f8162001228565b93508151811062000254576200025462001250565b6001600160e01b03199092166020928302919091019091015263a061f09360e01b8282620002828162001228565b93508151811062000297576200029762001250565b6001600160e01b03199290921660209283029190910190910152604080516001808252818301909252600091816020015b60408051606080820183526000808352602083015291810191909152815260200190600190039081620002c8579050506040805160608101909152308152909150602081016000815260200184815250816000815181106200032e576200032e62001250565b60200260200101819052506200035c816000604051806020016040528060008152506200093260201b60201c565b5050505b62000374637b10399960e01b600162000b33565b6200038863e103286b60e01b600162000b33565b6200039c637b10399960e01b600162000b33565b620003b063a061f09360e01b600162000b33565b5050565b7fb40d49f5a32ade8065d600aab18d96945a09d7fbb3e248099e22f7c4c10e01898054819060ff16156200041c5760405162461bcd60e51b815260206004820152600b60248201526a125b9a5d1a585b1a5e995960aa1b604482015260640160405180910390fd5b6001600160a01b0383166200086e5760408051600d8082526101c08201909252600091602082016101a0803683370190505090506000632c40805960e01b8282620004678162001228565b9350815181106200047c576200047c62001250565b6001600160e01b031990921660209283029190910190910152639142376560e01b8282620004aa8162001228565b935081518110620004bf57620004bf62001250565b6001600160e01b03199092166020928302919091019091015263dc9cc64560e01b8282620004ed8162001228565b93508151811062000502576200050262001250565b6001600160e01b0319909216602092830291909101909101526307e4c70760e21b8282620005308162001228565b93508151811062000545576200054562001250565b6001600160e01b031990921660209283029190910190910152637a0ed62760e01b8282620005738162001228565b93508151811062000588576200058862001250565b6001600160e01b0319909216602092830291909101909101526356fe50af60e11b8282620005b68162001228565b935081518110620005cb57620005cb62001250565b6001600160e01b0319909216602092830291909101909101526314bbdacb60e21b8282620005f98162001228565b9350815181106200060e576200060e62001250565b6001600160e01b0319909216602092830291909101909101526366ffd66360e11b82826200063c8162001228565b93508151811062000651576200065162001250565b6001600160e01b0319909216602092830291909101909101526301ffc9a760e01b82826200067f8162001228565b93508151811062000694576200069462001250565b6001600160e01b031990921660209283029190910190910152638da5cb5b60e01b8282620006c28162001228565b935081518110620006d757620006d762001250565b6001600160e01b03199092166020928302919091019091015263455a8a8560e11b8282620007058162001228565b9350815181106200071a576200071a62001250565b6001600160e01b03199092166020928302919091019091015263f2fde38b60e01b8282620007488162001228565b9350815181106200075d576200075d62001250565b6001600160e01b0319909216602092830291909101909101526379ba509760e01b82826200078b8162001228565b935081518110620007a057620007a062001250565b6001600160e01b03199290921660209283029190910190910152604080516001808252818301909252600091816020015b60408051606080820183526000808352602083015291810191909152815260200190600190039081620007d15790505060408051606081019091523081529091506020810160008152602001848152508160008151811062000837576200083762001250565b602002602001018190525062000865816000604051806020016040528060008152506200093260201b60201c565b505050620008a9565b7f177481ac65e4292921c69f62d1cc7f57541261e5d61c8175cf4e36a01c9bfc9680546001600160a01b0319166001600160a01b0385161790555b620008bd63dc9cc64560e01b600162000b33565b620008d1632f40adcf60e21b600162000b33565b620008e56307e4c70760e21b600162000b33565b620008f96348e2b09360e01b600162000b33565b6200090d6301ffc9a760e01b600162000b33565b620009216307f5828d60e41b600162000b33565b6200092c8462000baa565b50505050565b7f177481ac65e4292921c69f62d1cc7f57541261e5d61c8175cf4e36a01c9bfc94547f177481ac65e4292921c69f62d1cc7f57541261e5d61c8175cf4e36a01c9bfc939061ffff811690819060009060071615620009a25750600381901c60009081526002840160205260409020545b60005b875181101562000aa1576000888281518110620009c657620009c662001250565b6020026020010151905060008160200151905081604001515160000362000a005760405163eb6c3aeb60e01b815260040160405180910390fd5b600081600281111562000a175762000a1762001266565b0362000a365762000a2b8786868562000c24565b909550935062000a96565b600181600281111562000a4d5762000a4d62001266565b0362000a655762000a5f878362000d6c565b62000a96565b600281600281111562000a7c5762000a7c62001266565b0362000a965762000a908786868562000ebb565b90955093505b5050600101620009a5565b5082821462000abe5760018401805461ffff191661ffff84161790555b600782161562000ae157600382901c600090815260028501602052604090208190555b7f8faa70878671ccd212d20771b795c50af8fd3ff6cf27f4bde57e5d4de0aeb67387878760405162000b1693929190620012d0565b60405180910390a162000b2a8686620010e7565b50505050505050565b6001600160e01b0319808316900362000b5f5760405163b0a19dd560e01b815260040160405180910390fd5b6001600160e01b03199190911660009081527ffc606c433378e3a7e0a6a531deac289b66caa1b4aa8554fd4ab2c6f1570f92d860205260409020805460ff1916911515919091179055565b7f8a22373512790c48b83a1fe2efdd2888d4a917bcdc24d0adf63e60f67168046080546040516001600160a01b038481169216907f8be0079c531659141344cd1fd0a4f28419497f9722a3daafe3b4186f6b6457e090600090a380546001600160a01b0319166001600160a01b0392909216919091179055565b805160009081906001600160a01b0316301480159062000c4d575082516001600160a01b03163b155b1562000c6c57604051633ddc5cab60e21b815260040160405180910390fd5b60005b83604001515181101562000d5f5760008460400151828151811062000c985762000c9862001250565b6020908102919091018101516001600160e01b031981166000908152918a9052604090912054909150606081901c1562000ce557604051634923a77160e11b815260040160405180910390fd5b85516001600160e01b0319838116600081815260208d90526040902060609390931b6001600160601b0319168b1790925560058a901b60e090811692831c91831c1999909916179781900362000d4f57600389901c600090815260028b0160205260408120989098555b5050506001958601950162000c6f565b5093959294509192505050565b80516001600160a01b03163b62000d9657604051633ddc5cab60e21b815260040160405180910390fd5b60005b81604001515181101562000eb65760008260400151828151811062000dc25762000dc262001250565b6020908102919091018101516001600160e01b03198116600090815291869052604090912054909150606081901c8062000e0f576040516337e25a9760e11b815260040160405180910390fd5b306001600160a01b0382160362000e395760405163e983573160e01b815260040160405180910390fd5b84600001516001600160a01b0316816001600160a01b03160362000e70576040516330baabf360e11b815260040160405180910390fd5b5083516001600160e01b031992909216600090815260208690526040902060609290921b6001600160601b0319166001600160601b039190911617905560010162000d99565b505050565b805160009081906001600160a01b03161562000eea57604051633ab3490960e21b815260040160405180910390fd5b600385901c6007861660005b856040015151811015620010d35760008660400151828151811062000f1f5762000f1f62001250565b6020908102919091018101516001600160e01b031981166000908152918c9052604090912054909150606081901c62000f6b576040516337e25a9760e11b815260040160405180910390fd5b30606082901c0362000f905760405163e983573160e01b815260040160405180910390fd5b600089900362000fbe57600019909401600081815260028c0160205260409020549850936007935062000fc6565b600019909301925b600584901b89901b6000806001600160e01b03198084169086161462001019576001600160e01b03198316600090815260208f90526040902080546001600160601b0319166001600160601b0386161790555b50506001600160e01b03198316600090815260208d90526040812055611fff600383901c1660e0600584901b168782146200107e57600082815260028f016020526040902080546001600160e01b031980841c19909116908516831c179055620010a2565b80836001600160e01b031916901c816001600160e01b031960001b901c198d16179b505b86600003620010c157600088815260028f01602052604081208190559b505b50506001909301925062000ef6915050565b5060039190911b1796939550929350505050565b8051156001600160a01b038316151462001114576040516326df4ccd60e01b815260040160405180910390fd5b6001600160a01b03821615620003b0576001600160a01b03821630146200115e576001600160a01b0382163b6200115e57604051633ddc5cab60e21b815260040160405180910390fd5b6000826001600160a01b0316826040516200117a9190620013d7565b600060405180830381855af49150503d8060008114620011b7576040519150601f19603f3d011682016040523d82523d6000602084013e620011bc565b606091505b505090508062000eb6573d6000803e3d6000fd5b6001600160a01b0381168114620011e657600080fd5b50565b60008060408385031215620011fd57600080fd5b82516200120a81620011d0565b60208401519092506200121d81620011d0565b809150509250929050565b6000600182016200124957634e487b7160e01b600052601160045260246000fd5b5060010190565b634e487b7160e01b600052603260045260246000fd5b634e487b7160e01b600052602160045260246000fd5b60005b83811015620012995781810151838201526020016200127f565b50506000910152565b60008151808452620012bc8160208601602086016200127c565b601f01601f19169290920160200192915050565b60006060808301818452808751808352608092508286019150828160051b8701016020808b0160005b84811015620013a557898403607f19018652815180516001600160a01b031685528381015189860190600381106200134157634e487b7160e01b600052602160045260246000fd5b868601526040918201519186018a905281519081905290840190600090898701905b808310156200138f5783516001600160e01b031916825292860192600192909201919086019062001363565b50978501979550505090820190600101620012f9565b50506001600160a01b038a16908801528681036040880152620013c98189620012a2565b9a9950505050505050505050565b60008251620013eb8184602087016200127c565b9190910192915050565b608051613c3762001411600039600061038c0152613c376000f3fe6080604052600436106101a55760003560e01c806391423765116100e1578063adfca15e1161008a578063dc9cc64511610064578063dc9cc64514610564578063e32954eb14610584578063e985e9c5146105a4578063f2fde38b146105c4576101ac565b8063adfca15e146104a5578063cdffacc6146104d2578063d700ff331461052b576101ac565b8063a4b91a01116100bb578063a4b91a0114610438578063a9784b3e14610458578063ac9650d814610478576101ac565b806391423765146103d8578063a061f093146103f8578063a22cb46514610418576101ac565b806354e7796f1161014e5780637a0ed627116101285780637a0ed627146103585780637b1039991461037a5780638ab5150a146103ae5780638da5cb5b146103c3576101ac565b806354e7796f14610303578063717dbd4c1461032357806379ba509714610343576101ac565b80633603d7581161017f5780633603d758146102a1578063485cc955146102c157806352ef6b2c146102e1576101ac565b806301ffc9a71461021f5780631f931c1c146102545780632c40805914610274576101ac565b366101ac57005b60006101b66105e4565b90506001600160a01b0381163b6101f9576040517f87c9fc3400000000000000000000000000000000000000000000000000000000815260040160405180910390fd5b3660008037600080366000845af43d6000803e808015610218573d6000f35b3d6000fd5b005b34801561022b57600080fd5b5061023f61023a366004613275565b610600565b60405190151581526020015b60405180910390f35b34801561026057600080fd5b5061021d61026f3660046132f1565b610645565b34801561028057600080fd5b506102896106cf565b6040516001600160a01b03909116815260200161024b565b3480156102ad57600080fd5b5061021d6102bc3660046133a0565b610702565b3480156102cd57600080fd5b5061021d6102dc3660046133b9565b61074f565b3480156102ed57600080fd5b506102f6610b4b565b60405161024b91906133f2565b34801561030f57600080fd5b5061021d61031e36600461344d565b610d21565b34801561032f57600080fd5b5061021d61033e36600461357f565b610d8e565b34801561034f57600080fd5b5061021d610e2f565b34801561036457600080fd5b5061036d610e8b565b60405161024b919061360b565b34801561038657600080fd5b506102897f000000000000000000000000000000000000000000000000000000000000000081565b3480156103ba57600080fd5b5061028961133a565b3480156103cf57600080fd5b50610289611344565b3480156103e457600080fd5b5061021d6103f3366004613688565b61134e565b34801561040457600080fd5b5061021d6104133660046133a0565b6113d4565b34801561042457600080fd5b5061021d6104333660046136a5565b61153b565b34801561044457600080fd5b5061021d6104533660046136c3565b611545565b34801561046457600080fd5b5061023f610473366004613705565b611555565b34801561048457600080fd5b5061049861049336600461373c565b6115b0565b60405161024b91906137ce565b3480156104b157600080fd5b506104c56104c0366004613688565b6115c5565b60405161024b9190613830565b3480156104de57600080fd5b506102896104ed366004613275565b6001600160e01b03191660009081527f177481ac65e4292921c69f62d1cc7f57541261e5d61c8175cf4e36a01c9bfc93602052604090205460601c90565b34801561053757600080fd5b5061054b6105463660046133a0565b611744565b60405167ffffffffffffffff909116815260200161024b565b34801561057057600080fd5b5061028961057f366004613275565b61174f565b34801561059057600080fd5b5061049861059f366004613843565b611844565b3480156105b057600080fd5b5061023f6105bf3660046133b9565b611851565b3480156105d057600080fd5b5061021d6105df366004613688565b6118a0565b60006105fb6000356001600160e01b03191661174f565b905090565b600061060b826118e2565b8061063f57507f4fbf0433000000000000000000000000000000000000000000000000000000006001600160e01b03198316145b92915050565b61064d6119ea565b6001600160a01b0316336001600160a01b03161461067e57604051632f7a8ee160e01b815260040160405180910390fd5b6106c861068b858761388f565b8484848080601f016020809104026020016040519081016040528093929190818152602001838380828437600092019190915250611a1d92505050565b5050505050565b60006105fb7f177481ac65e4292921c69f62d1cc7f57541261e5d61c8175cf4e36a01c9bfc96546001600160a01b031690565b8061070c81611c33565b610742576040517fd7a2ae6a00000000000000000000000000000000000000000000000000000000815260040160405180910390fd5b61074b82611d1b565b5050565b6107598282611dcc565b6001600160a01b038116610ad157604080516008808252610120820190925260009160208201610100803683370190505090506000637b10399960e01b82826107a181613978565b9350815181106107b3576107b3613992565b6001600160e01b0319909216602092830291909101909101527fa22cb4650000000000000000000000000000000000000000000000000000000082826107f881613978565b93508151811061080a5761080a613992565b6001600160e01b0319909216602092830291909101909101527fe985e9c500000000000000000000000000000000000000000000000000000000828261084f81613978565b93508151811061086157610861613992565b6001600160e01b0319909216602092830291909101909101527fa4b91a010000000000000000000000000000000000000000000000000000000082826108a681613978565b9350815181106108b8576108b8613992565b6001600160e01b0319909216602092830291909101909101527fa9784b3e0000000000000000000000000000000000000000000000000000000082826108fd81613978565b93508151811061090f5761090f613992565b6001600160e01b0319909216602092830291909101909101527fd700ff3300000000000000000000000000000000000000000000000000000000828261095481613978565b93508151811061096657610966613992565b6001600160e01b0319909216602092830291909101909101527f3603d7580000000000000000000000000000000000000000000000000000000082826109ab81613978565b9350815181106109bd576109bd613992565b6001600160e01b0319909216602092830291909101909101527fa061f093000000000000000000000000000000000000000000000000000000008282610a0281613978565b935081518110610a1457610a14613992565b6001600160e01b03199290921660209283029190910190910152604080516001808252818301909252600091816020015b60408051606080820183526000808352602083015291810191909152815260200190600190039081610a4557905050604080516060810190915230815290915060208101600081526020018481525081600081518110610aa757610aa7613992565b6020026020010181905250610acd81600060405180602001604052806000815250611a1d565b5050505b610ae3637b10399960e01b6001612478565b610b0e7fe103286b000000000000000000000000000000000000000000000000000000006001612478565b610b20637b10399960e01b6001612478565b61074b7fa061f093000000000000000000000000000000000000000000000000000000006001612478565b7f177481ac65e4292921c69f62d1cc7f57541261e5d61c8175cf4e36a01c9bfc94546060907f177481ac65e4292921c69f62d1cc7f57541261e5d61c8175cf4e36a01c9bfc939061ffff1667ffffffffffffffff811115610bae57610bae613479565b604051908082528060200260200182016040528015610bd7578160200160208202803683370190505b50915060008060005b600184015461ffff16821015610d19576000818152600285016020526040812054905b6008811015610d045783610c1681613978565b600188015490955061ffff1685119050610d0457600581901b82901b6001600160e01b0319811660009081526020889052604081205460601c90805b88811015610ca7578a8181518110610c6c57610c6c613992565b60200260200101516001600160a01b0316836001600160a01b031603610c955760019150610ca7565b80610c9f81613978565b915050610c52565b508015610cb657505050610cf2565b818a8981518110610cc957610cc9613992565b6001600160a01b039092166020928302919091019091015287610ceb81613978565b9850505050505b80610cfc81613978565b915050610c03565b50508080610d1190613978565b915050610be0565b505082525090565b7f8a22373512790c48b83a1fe2efdd2888d4a917bcdc24d0adf63e60f671680460546001600160a01b03163314610d84576040517f3058081000000000000000000000000000000000000000000000000000000000815260040160405180910390fd5b61074b8282612478565b7f8a22373512790c48b83a1fe2efdd2888d4a917bcdc24d0adf63e60f671680460546001600160a01b03163314610df1576040517f3058081000000000000000000000000000000000000000000000000000000000815260040160405180910390fd5b815160005b81811015610e2957610e21848281518110610e1357610e13613992565b602002602001015184612478565b600101610df6565b50505050565b610e37612507565b6001600160a01b0316336001600160a01b031614610e81576040517fefd1052d00000000000000000000000000000000000000000000000000000000815260040160405180910390fd5b610e8961252f565b565b7f177481ac65e4292921c69f62d1cc7f57541261e5d61c8175cf4e36a01c9bfc94546060907f177481ac65e4292921c69f62d1cc7f57541261e5d61c8175cf4e36a01c9bfc939061ffff1667ffffffffffffffff811115610eee57610eee613479565b604051908082528060200260200182016040528015610f3457816020015b604080518082019091526000815260606020820152815260200190600190039081610f0c5790505b50600182015490925060009061ffff1667ffffffffffffffff811115610f5c57610f5c613479565b604051908082528060200260200182016040528015610f85578160200160208202803683370190505b50905060008060005b600185015461ffff168210156112c8576000818152600286016020526040812054905b60088110156112b35783610fc481613978565b600189015490955061ffff16851190506112b357600581901b82901b6001600160e01b0319811660009081526020899052604081205460601c90805b8881101561114757826001600160a01b03168c828151811061102457611024613992565b6020026020010151600001516001600160a01b03160361113557838c828151811061105157611051613992565b6020026020010151602001518b838151811061106f5761106f613992565b602002602001015160ff168151811061108a5761108a613992565b60200260200101907bffffffffffffffffffffffffffffffffffffffffffffffffffffffff191690817bffffffffffffffffffffffffffffffffffffffffffffffffffffffff19168152505060ff8a82815181106110ea576110ea613992565b602002602001015160ff16106110ff57600080fd5b89818151811061111157611111613992565b602002602001018051809190611126906139be565b60ff1690525060019150611147565b8061113f81613978565b915050611000565b508015611156575050506112a1565b818b898151811061116957611169613992565b60209081029190910101516001600160a01b03909116905260018a015461ffff1667ffffffffffffffff8111156111a2576111a2613479565b6040519080825280602002602001820160405280156111cb578160200160208202803683370190505b508b89815181106111de576111de613992565b602002602001015160200181905250828b898151811061120057611200613992565b60200260200101516020015160008151811061121e5761121e613992565b60200260200101907bffffffffffffffffffffffffffffffffffffffffffffffffffffffff191690817bffffffffffffffffffffffffffffffffffffffffffffffffffffffff191681525050600189898151811061127e5761127e613992565b60ff909216602092830291909101909101528761129a81613978565b9850505050505b806112ab81613978565b915050610fb1565b505080806112c090613978565b915050610f8e565b5060005b8281101561132f5760008482815181106112e8576112e8613992565b602002602001015160ff169050600087838151811061130957611309613992565b60200260200101516020015190508181525050808061132790613978565b9150506112cc565b508185525050505090565b60006105fb612507565b60006105fb6119ea565b6113566119ea565b6001600160a01b0316336001600160a01b03161461138757604051632f7a8ee160e01b815260040160405180910390fd5b7f177481ac65e4292921c69f62d1cc7f57541261e5d61c8175cf4e36a01c9bfc96805473ffffffffffffffffffffffffffffffffffffffff19166001600160a01b03831617905550565b50565b80606081901c33146114795760405162461bcd60e51b815260206004820152604560248201527f496e76616c69642073616c74202d206669727374203230206279746573206f6660448201527f207468652073616c74206d757374206d617463682063616c6c696e672061646460648201527f726573732e000000000000000000000000000000000000000000000000000000608482015260a4015b60405180910390fd5b60006114853084612576565b6040517f485cc9550000000000000000000000000000000000000000000000000000000081523360048201523060248201529091506001600160a01b0382169063485cc95590604401600060405180830381600087803b1580156114e857600080fd5b505af11580156114fc573d6000803e3d6000fd5b50506040516001600160a01b03841692503391507f40961b548e4af03f13fc20c42826b938367a56f2a4409159d6a597f34592605190600090a3505050565b61074b8282612613565b611550838383612721565b505050565b6001600160a01b0380841660009081527f8c151f2b073b889ff2e1725375750783c091724f29d93246786f4cca8f047dbf60209081526040808320868452825280832093851683529290529081205460ff165b949350505050565b60606115be60008484612818565b9392505050565b7f177481ac65e4292921c69f62d1cc7f57541261e5d61c8175cf4e36a01c9bfc94546060907f177481ac65e4292921c69f62d1cc7f57541261e5d61c8175cf4e36a01c9bfc939061ffff1667ffffffffffffffff81111561162857611628613479565b604051908082528060200260200182016040528015611651578160200160208202803683370190505b50915060008060005b600184015461ffff1682101561173a576000818152600285016020526040812054905b6008811015611725578361169081613978565b600188015490955061ffff168511905061172557600581901b82901b6001600160e01b0319811660009081526020889052604090205460601c6001600160a01b038a160361171257808887815181106116eb576116eb613992565b6001600160e01b0319909216602092830291909101909101528561170e81613978565b9650505b508061171d81613978565b91505061167d565b5050808061173290613978565b91505061165a565b5050825250919050565b600061063f826129f1565b6001600160e01b0319811660009081527f177481ac65e4292921c69f62d1cc7f57541261e5d61c8175cf4e36a01c9bfc93602081905260409091205460601c90808261183d577f177481ac65e4292921c69f62d1cc7f57541261e5d61c8175cf4e36a01c9bfc96546001600160a01b03169250821561183d5760405163dc9cc64560e01b81526001600160e01b0319851660048201526001600160a01b0384169063dc9cc64590602401602060405180830381865afa158015611816573d6000803e3d6000fd5b505050506040513d601f19601f8201168201806040525081019061183a91906139dd565b92505b5050919050565b60606115a8848484612818565b6001600160a01b0380831660009081527f8c151f2b073b889ff2e1725375750783c091724f29d93246786f4cca8f047dbe6020908152604080832093851683529290529081205460ff166115be565b6118a86119ea565b6001600160a01b0316336001600160a01b0316146118d957604051632f7a8ee160e01b815260040160405180910390fd5b6113d181612a69565b6001600160e01b0319811660009081527ffc606c433378e3a7e0a6a531deac289b66caa1b4aa8554fd4ab2c6f1570f92d8602052604090205460ff16806119e55760006119567f177481ac65e4292921c69f62d1cc7f57541261e5d61c8175cf4e36a01c9bfc96546001600160a01b031690565b90506001600160a01b038116156119e35781806119e057506040516301ffc9a760e01b81526001600160e01b0319841660048201526001600160a01b038216906301ffc9a790602401602060405180830381865afa1580156119bc573d6000803e3d6000fd5b505050506040513d601f19601f820116820180604052508101906119e091906139fa565b91505b505b919050565b60007f8a22373512790c48b83a1fe2efdd2888d4a917bcdc24d0adf63e60f6716804605b546001600160a01b0316919050565b7f177481ac65e4292921c69f62d1cc7f57541261e5d61c8175cf4e36a01c9bfc94547f177481ac65e4292921c69f62d1cc7f57541261e5d61c8175cf4e36a01c9bfc939061ffff811690819060009060071615611a8c5750600381901c60009081526002840160205260409020545b60005b8751811015611b8a576000888281518110611aac57611aac613992565b60200260200101519050600081602001519050816040015151600003611afe576040517feb6c3aeb00000000000000000000000000000000000000000000000000000000815260040160405180910390fd5b6000816002811115611b1257611b126139a8565b03611b2d57611b2387868685612ab7565b9095509350611b80565b6001816002811115611b4157611b416139a8565b03611b5557611b508783612c14565b611b80565b6002816002811115611b6957611b696139a8565b03611b8057611b7a87868685612daa565b90955093505b5050600101611a8f565b50828214611bc3576001840180547fffffffffffffffffffffffffffffffffffffffffffffffffffffffffffff00001661ffff84161790555b6007821615611be557600382901c600090815260028501602052604090208190555b7f8faa70878671ccd212d20771b795c50af8fd3ff6cf27f4bde57e5d4de0aeb673878787604051611c1893929190613a17565b60405180910390a1611c2a8686613032565b50505050505050565b60408051336024820152604480820184905282518083039091018152606490910182526020810180517bffffffffffffffffffffffffffffffffffffffffffffffffffffffff167f25f36704000000000000000000000000000000000000000000000000000000001790529051600091829182913091611cb39190613afe565b600060405180830381855afa9150503d8060008114611cee576040519150601f19603f3d011682016040523d82523d6000602084013e611cf3565b606091505b509150915081611d07575060009392505050565b8080602001905181019061183a91906139fa565b611d2361312b565b6001600160a01b0316632d4d6ccf826040518263ffffffff1660e01b8152600401611d5091815260200190565b600060405180830381600087803b158015611d6a57600080fd5b505af1158015611d7e573d6000803e3d6000fd5b50505050807fc6621ccb8f3f5a04bb6502154b2caf6adf5983fe76dfef1cfc9c42e3579db444611dad836129f1565b60405167ffffffffffffffff909116815260200160405180910390a250565b7fb40d49f5a32ade8065d600aab18d96945a09d7fbb3e248099e22f7c4c10e01898054819060ff1615611e415760405162461bcd60e51b815260206004820152600b60248201527f496e697469616c697a65640000000000000000000000000000000000000000006044820152606401611470565b6001600160a01b0383166123575760408051600d8082526101c08201909252600091602082016101a08036833701905050905060007f2c408059000000000000000000000000000000000000000000000000000000008282611ea281613978565b935081518110611eb457611eb4613992565b6001600160e01b0319909216602092830291909101909101527f91423765000000000000000000000000000000000000000000000000000000008282611ef981613978565b935081518110611f0b57611f0b613992565b6001600160e01b03199092166020928302919091019091015263dc9cc64560e01b8282611f3781613978565b935081518110611f4957611f49613992565b6001600160e01b0319909216602092830291909101909101527f1f931c1c000000000000000000000000000000000000000000000000000000008282611f8e81613978565b935081518110611fa057611fa0613992565b6001600160e01b0319909216602092830291909101909101527f7a0ed627000000000000000000000000000000000000000000000000000000008282611fe581613978565b935081518110611ff757611ff7613992565b6001600160e01b0319909216602092830291909101909101527fadfca15e00000000000000000000000000000000000000000000000000000000828261203c81613978565b93508151811061204e5761204e613992565b6001600160e01b0319909216602092830291909101909101527f52ef6b2c00000000000000000000000000000000000000000000000000000000828261209381613978565b9350815181106120a5576120a5613992565b6001600160e01b0319909216602092830291909101909101527fcdffacc60000000000000000000000000000000000000000000000000000000082826120ea81613978565b9350815181106120fc576120fc613992565b6001600160e01b0319909216602092830291909101909101526301ffc9a760e01b828261212881613978565b93508151811061213a5761213a613992565b6001600160e01b0319909216602092830291909101909101527f8da5cb5b00000000000000000000000000000000000000000000000000000000828261217f81613978565b93508151811061219157612191613992565b6001600160e01b0319909216602092830291909101909101527f8ab5150a0000000000000000000000000000000000000000000000000000000082826121d681613978565b9350815181106121e8576121e8613992565b6001600160e01b0319909216602092830291909101909101527ff2fde38b00000000000000000000000000000000000000000000000000000000828261222d81613978565b93508151811061223f5761223f613992565b6001600160e01b0319909216602092830291909101909101527f79ba509700000000000000000000000000000000000000000000000000000000828261228481613978565b93508151811061229657612296613992565b6001600160e01b03199290921660209283029190910190910152604080516001808252818301909252600091816020015b604080516060808201835260008083526020830152918101919091528152602001906001900390816122c75790505060408051606081019091523081529091506020810160008152602001848152508160008151811061232957612329613992565b602002602001018190525061234f81600060405180602001604052806000815250611a1d565b50505061239f565b7f177481ac65e4292921c69f62d1cc7f57541261e5d61c8175cf4e36a01c9bfc96805473ffffffffffffffffffffffffffffffffffffffff19166001600160a01b0385161790555b6123b163dc9cc64560e01b6001612478565b6123dc7fbd02b73c000000000000000000000000000000000000000000000000000000006001612478565b6124077f1f931c1c000000000000000000000000000000000000000000000000000000006001612478565b6124327f48e2b093000000000000000000000000000000000000000000000000000000006001612478565b6124446301ffc9a760e01b6001612478565b61246f7f7f5828d0000000000000000000000000000000000000000000000000000000006001612478565b610e2984613196565b6001600160e01b031980831690036124bc576040517fb0a19dd500000000000000000000000000000000000000000000000000000000815260040160405180910390fd5b6001600160e01b03199190911660009081527ffc606c433378e3a7e0a6a531deac289b66caa1b4aa8554fd4ab2c6f1570f92d860205260409020805460ff1916911515919091179055565b60007f24aa1f7b31fd188a8d3ecfb06bc55c806040e59b03bd4396283442fce6617890611a0e565b61253833613196565b7f24aa1f7b31fd188a8d3ecfb06bc55c806040e59b03bd4396283442fce6617890805473ffffffffffffffffffffffffffffffffffffffff19169055565b6000763d602d80600a3d3981f3363d3d373d3d3d363d730000008360601b60e81c176000526e5af43d82803e903d91602b57fd5bf38360781b1760205281603760096000f590506001600160a01b03811661063f5760405162461bcd60e51b815260206004820152601760248201527f455243313136373a2063726561746532206661696c65640000000000000000006044820152606401611470565b6001600160a01b03821633036126915760405162461bcd60e51b815260206004820152602960248201527f455243313135353a2073657474696e6720617070726f76616c2073746174757360448201527f20666f722073656c6600000000000000000000000000000000000000000000006064820152608401611470565b60007f8c151f2b073b889ff2e1725375750783c091724f29d93246786f4cca8f047dbe336000818152602083815260408083206001600160a01b03891680855290835292819020805460ff1916881515908117909155905190815293945090927f17307eab39ab6107e8899845ad3d59bd9653f200f220920489ca2b5937696c31910160405180910390a3505050565b6001600160a01b03821633036127795760405162461bcd60e51b815260206004820181905260248201527f53657474696e672064656c65676174652073746174757320666f722073656c666044820152606401611470565b60007f8c151f2b073b889ff2e1725375750783c091724f29d93246786f4cca8f047dbe336000818152600183016020908152604080832089845282528083206001600160a01b03891680855290835292819020805460ff19168815159081179091559051938452939450909187917ff0ddb3b04746704017f9aa8bd728fcc2c1d11675041205350018915f5e4750a0910160405180910390a450505050565b60608167ffffffffffffffff81111561283357612833613479565b60405190808252806020026020018201604052801561286657816020015b60608152602001906001900390816128515790505b50905060005b828110156129e957841561293157600084848381811061288e5761288e613992565b90506020028101906128a09190613b1a565b6128af91602491600491613b7f565b6128b891613ba9565b905085811461292f5760405162461bcd60e51b815260206004820152603460248201527f6d756c746963616c6c3a20416c6c207265636f726473206d757374206861766560448201527f2061206d61746368696e67206e616d65686173680000000000000000000000006064820152608401611470565b505b6000803086868581811061294757612947613992565b90506020028101906129599190613b1a565b604051612967929190613bc7565b600060405180830381855af49150503d80600081146129a2576040519150601f19603f3d011682016040523d82523d6000602084013e6129a7565b606091505b5091509150816129b657600080fd5b808484815181106129c9576129c9613992565b6020026020010181905250505080806129e190613978565b91505061286c565b509392505050565b60006129fb61312b565b6001600160a01b031663eff94ac7836040518263ffffffff1660e01b8152600401612a2891815260200190565b602060405180830381865afa158015612a45573d6000803e3d6000fd5b505050506040513d601f19601f8201168201806040525081019061063f9190613bd7565b6113d1817f24aa1f7b31fd188a8d3ecfb06bc55c806040e59b03bd4396283442fce6617890805473ffffffffffffffffffffffffffffffffffffffff19166001600160a01b03831617905550565b805160009081906001600160a01b03163014801590612adf575082516001600160a01b03163b155b15612afd57604051633ddc5cab60e21b815260040160405180910390fd5b60005b836040015151811015612c0757600084604001518281518110612b2557612b25613992565b6020908102919091018101516001600160e01b031981166000908152918a9052604090912054909150606081901c15612b8a576040517f92474ee200000000000000000000000000000000000000000000000000000000815260040160405180910390fd5b85516001600160e01b0319838116600081815260208d90526040902060609390931b6bffffffffffffffffffffffff19168b1790925560058a901b60e090811692831c91831c19999099161797819003612bf857600389901c600090815260028b0160205260408120989098555b50505060019586019501612b00565b5093959294509192505050565b80516001600160a01b03163b612c3d57604051633ddc5cab60e21b815260040160405180910390fd5b60005b81604001515181101561155057600082604001518281518110612c6557612c65613992565b6020908102919091018101516001600160e01b03198116600090815291869052604090912054909150606081901c80612cca576040517f6fc4b52e00000000000000000000000000000000000000000000000000000000815260040160405180910390fd5b306001600160a01b03821603612d0c576040517fe983573100000000000000000000000000000000000000000000000000000000815260040160405180910390fd5b84600001516001600160a01b0316816001600160a01b031603612d5b576040517f617557e600000000000000000000000000000000000000000000000000000000815260040160405180910390fd5b5083516001600160e01b031992909216600090815260208690526040902060609290921b6bffffffffffffffffffffffff19166bffffffffffffffffffffffff91909116179055600101612c40565b805160009081906001600160a01b031615612df1576040517feacd242400000000000000000000000000000000000000000000000000000000815260040160405180910390fd5b600385901c6007861660005b85604001515181101561301e57600086604001518281518110612e2257612e22613992565b6020908102919091018101516001600160e01b031981166000908152918c9052604090912054909150606081901c612e86576040517f6fc4b52e00000000000000000000000000000000000000000000000000000000815260040160405180910390fd5b30606082901c03612ec3576040517fe983573100000000000000000000000000000000000000000000000000000000815260040160405180910390fd5b6000899003612eef57600019909401600081815260028c01602052604090205498509360079350612ef7565b600019909301925b600584901b89901b6000806001600160e01b031980841690861614612f53576001600160e01b03198316600090815260208f90526040902080546bffffffffffffffffffffffff19166bffffffffffffffffffffffff86161790555b50506001600160e01b03198316600090815260208d90526040812055611fff600383901c1660e0600584901b16878214612fb657600082815260028f016020526040902080546001600160e01b031980841c19909116908516831c179055612fef565b80837bffffffffffffffffffffffffffffffffffffffffffffffffffffffff1916901c816001600160e01b031960001b901c198d16179b505b8660000361300d57600088815260028f01602052604081208190559b505b505060019093019250612dfd915050565b5060039190911b1796939550929350505050565b8051156001600160a01b0383161514613077576040517f26df4ccd00000000000000000000000000000000000000000000000000000000815260040160405180910390fd5b6001600160a01b0382161561074b576001600160a01b03821630146130be576001600160a01b0382163b6130be57604051633ddc5cab60e21b815260040160405180910390fd5b6000826001600160a01b0316826040516130d89190613afe565b600060405180830381855af49150503d8060008114613113576040519150601f19603f3d011682016040523d82523d6000602084013e613118565b606091505b5050905080611550573d6000803e3d6000fd5b600061313561321d565b6001600160a01b0316635ea1d46a6040518163ffffffff1660e01b8152600401602060405180830381865afa158015613172573d6000803e3d6000fd5b505050506040513d601f19601f820116820180604052508101906105fb91906139dd565b7f8a22373512790c48b83a1fe2efdd2888d4a917bcdc24d0adf63e60f67168046080546040516001600160a01b038481169216907f8be0079c531659141344cd1fd0a4f28419497f9722a3daafe3b4186f6b6457e090600090a3805473ffffffffffffffffffffffffffffffffffffffff19166001600160a01b0392909216919091179055565b6000306001600160a01b0316637b1039996040518163ffffffff1660e01b8152600401602060405180830381865afa158015613172573d6000803e3d6000fd5b80356001600160e01b0319811681146119e557600080fd5b60006020828403121561328757600080fd5b6115be8261325d565b60008083601f8401126132a257600080fd5b50813567ffffffffffffffff8111156132ba57600080fd5b6020830191508360208260051b85010111156132d557600080fd5b9250929050565b6001600160a01b03811681146113d157600080fd5b60008060008060006060868803121561330957600080fd5b853567ffffffffffffffff8082111561332157600080fd5b61332d89838a01613290565b909750955060208801359150613342826132dc565b9093506040870135908082111561335857600080fd5b818801915088601f83011261336c57600080fd5b81358181111561337b57600080fd5b89602082850101111561338d57600080fd5b9699959850939650602001949392505050565b6000602082840312156133b257600080fd5b5035919050565b600080604083850312156133cc57600080fd5b82356133d7816132dc565b915060208301356133e7816132dc565b809150509250929050565b6020808252825182820181905260009190848201906040850190845b818110156134335783516001600160a01b03168352928401929184019160010161340e565b50909695505050505050565b80151581146113d157600080fd5b6000806040838503121561346057600080fd5b6134698361325d565b915060208301356133e78161343f565b634e487b7160e01b600052604160045260246000fd5b6040516060810167ffffffffffffffff811182821017156134b2576134b2613479565b60405290565b604051601f8201601f1916810167ffffffffffffffff811182821017156134e1576134e1613479565b604052919050565b600067ffffffffffffffff82111561350357613503613479565b5060051b60200190565b600082601f83011261351e57600080fd5b8135602061353361352e836134e9565b6134b8565b82815260059290921b8401810191818101908684111561355257600080fd5b8286015b84811015613574576135678161325d565b8352918301918301613556565b509695505050505050565b6000806040838503121561359257600080fd5b823567ffffffffffffffff8111156135a957600080fd5b6135b58582860161350d565b92505060208301356133e78161343f565b600081518084526020808501945080840160005b838110156136005781516001600160e01b031916875295820195908201906001016135da565b509495945050505050565b60006020808301818452808551808352604092508286019150828160051b87010184880160005b8381101561367a57888303603f19018552815180516001600160a01b03168452870151878401879052613667878501826135c6565b9588019593505090860190600101613632565b509098975050505050505050565b60006020828403121561369a57600080fd5b81356115be816132dc565b600080604083850312156136b857600080fd5b8235613469816132dc565b6000806000606084860312156136d857600080fd5b8335925060208401356136ea816132dc565b915060408401356136fa8161343f565b809150509250925092565b60008060006060848603121561371a57600080fd5b8335613725816132dc565b92506020840135915060408401356136fa816132dc565b6000806020838503121561374f57600080fd5b823567ffffffffffffffff81111561376657600080fd5b61377285828601613290565b90969095509350505050565b60005b83811015613799578181015183820152602001613781565b50506000910152565b600081518084526137ba81602086016020860161377e565b601f01601f19169290920160200192915050565b6000602080830181845280855180835260408601915060408160051b870101925083870160005b8281101561382357603f198886030184526138118583516137a2565b945092850192908501906001016137f5565b5092979650505050505050565b6020815260006115be60208301846135c6565b60008060006040848603121561385857600080fd5b83359250602084013567ffffffffffffffff81111561387657600080fd5b61388286828701613290565b9497909650939450505050565b600061389d61352e846134e9565b80848252602080830192508560051b8501368111156138bb57600080fd5b855b8181101561395657803567ffffffffffffffff808211156138de5760008081fd5b8189019150606082360312156138f45760008081fd5b6138fc61348f565b8235613907816132dc565b8152828601356003811061391b5760008081fd5b81870152604083810135838111156139335760008081fd5b61393f3682870161350d565b9183019190915250875250509382019382016138bd565b50919695505050505050565b634e487b7160e01b600052601160045260246000fd5b6000600019820361398b5761398b613962565b5060010190565b634e487b7160e01b600052603260045260246000fd5b634e487b7160e01b600052602160045260246000fd5b600060ff821660ff81036139d4576139d4613962565b60010192915050565b6000602082840312156139ef57600080fd5b81516115be816132dc565b600060208284031215613a0c57600080fd5b81516115be8161343f565b6000606080830181845280875180835260808601915060808160051b87010192506020808a016000805b84811015613ace577fffffffffffffffffffffffffffffffffffffffffffffffffffffffffffffff808a880301865282516001600160a01b0381511688528481015160038110613a9f57634e487b7160e01b84526021600452602484fd5b88860152604090810151908801899052613abb898901826135c6565b9750509483019491830191600101613a41565b5050506001600160a01b0389169087015250508381036040850152613af381866137a2565b979650505050505050565b60008251613b1081846020870161377e565b9190910192915050565b60008083357fffffffffffffffffffffffffffffffffffffffffffffffffffffffffffffffe1843603018112613b4f57600080fd5b83018035915067ffffffffffffffff821115613b6a57600080fd5b6020019150368190038213156132d557600080fd5b60008085851115613b8f57600080fd5b83861115613b9c57600080fd5b5050820193919092039150565b8035602083101561063f57600019602084900360031b1b1692915050565b8183823760009101908152919050565b600060208284031215613be957600080fd5b815167ffffffffffffffff811681146115be57600080fdfea2646970667358221220cca25c53286e6e1e31e16d1686e8eb5edf8b429871812b933c63ced80a55aa5264736f6c63430008130033",
  "linkReferences": {},
  "deployedLinkReferences": {}
}