{
  "_format": "hh-sol-artifact-1",
  "contractName": "MockNameWrapper",
  "sourceName": "contracts/diamond-resolver/MockNameWrapper.sol",
  "abi": [
    {
      "inputs": [
        {
          "internalType": "uint256",
          "name": "",
          "type": "uint256"
        }
      ],
      "name": "ownerOf",
      "outputs": [
        {
          "internalType": "address",
          "name": "",
          "type": "address"
        }
      ],
      "stateMutability": "view",
      "type": "function"
    },
    {
      "inputs": [
        {
          "internalType": "bytes4",
          "name": "interfaceId",
          "type": "bytes4"
        }
      ],
      "name": "supportsInterface",
      "outputs": [
        {
          "internalType": "bool",
          "name": "",
          "type": "bool"
        }
      ],
      "stateMutability": "view",
      "type": "function"
    }
  ],
  "bytecode": "0x608060405234801561001057600080fd5b50610175806100206000396000f3fe608060405234801561001057600080fd5b50600436106100365760003560e01c806301ffc9a71461003b5780636352211e146100a5575b600080fd5b6100906100493660046100dd565b7fffffffff00000000000000000000000000000000000000000000000000000000167fd82c42d8000000000000000000000000000000000000000000000000000000001490565b60405190151581526020015b60405180910390f35b6100b86100b3366004610126565b503290565b60405173ffffffffffffffffffffffffffffffffffffffff909116815260200161009c565b6000602082840312156100ef57600080fd5b81357fffffffff000000000000000000000000000000000000000000000000000000008116811461011f57600080fd5b9392505050565b60006020828403121561013857600080fd5b503591905056fea26469706673582212207776091c85d155d8e181dbed92015beae37b6acbe221e2f73897720aa65baa7664736f6c63430008130033",
  "linkReferences": {},
  "deployedLinkReferences": {}
}