{
  "_format": "hh-sol-artifact-1",
  "contractName": "OptiDomainsAttestationDiamond",
  "sourceName": "contracts/attestation/OptiDomainsAttestationDiamond.sol",
  "abi": [
    {
      "inputs": [
        {
          "internalType": "address",
          "name": "_owner",
          "type": "address"
        },
        {
          "internalType": "address",
          "name": "_facet",
          "type": "address"
        }
      ],
      "stateMutability": "nonpayable",
      "type": "constructor"
    },
    {
      "inputs": [],
      "name": "DiamondWritable__InvalidInitializationParameters",
      "type": "error"
    },
    {
      "inputs": [],
      "name": "DiamondWritable__RemoveTargetNotZeroAddress",
      "type": "error"
    },
    {
      "inputs": [],
      "name": "DiamondWritable__ReplaceTargetIsIdentical",
      "type": "error"
    },
    {
      "inputs": [],
      "name": "DiamondWritable__SelectorAlreadyAdded",
      "type": "error"
    },
    {
      "inputs": [],
      "name": "DiamondWritable__SelectorIsImmutable",
      "type": "error"
    },
    {
      "inputs": [],
      "name": "DiamondWritable__SelectorNotFound",
      "type": "error"
    },
    {
      "inputs": [],
      "name": "DiamondWritable__SelectorNotSpecified",
      "type": "error"
    },
    {
      "inputs": [],
      "name": "DiamondWritable__TargetHasNoCode",
      "type": "error"
    },
    {
      "inputs": [],
      "name": "ERC165Base__InvalidInterfaceId",
      "type": "error"
    },
    {
      "inputs": [],
      "name": "NotDiamondOwner",
      "type": "error"
    },
    {
      "inputs": [],
      "name": "Ownable__NotOwner",
      "type": "error"
    },
    {
      "inputs": [],
      "name": "Ownable__NotTransitiveOwner",
      "type": "error"
    },
    {
      "inputs": [],
      "name": "Proxy__ImplementationIsNotContract",
      "type": "error"
    },
    {
      "inputs": [],
      "name": "SafeOwnable__NotNomineeOwner",
      "type": "error"
    },
    {
      "anonymous": false,
      "inputs": [
        {
          "components": [
            {
              "internalType": "address",
              "name": "target",
              "type": "address"
            },
            {
              "internalType": "enum IDiamondWritableInternal.FacetCutAction",
              "name": "action",
              "type": "uint8"
            },
            {
              "internalType": "bytes4[]",
              "name": "selectors",
              "type": "bytes4[]"
            }
          ],
          "indexed": false,
          "internalType": "struct IDiamondWritableInternal.FacetCut[]",
          "name": "facetCuts",
          "type": "tuple[]"
        },
        {
          "indexed": false,
          "internalType": "address",
          "name": "target",
          "type": "address"
        },
        {
          "indexed": false,
          "internalType": "bytes",
          "name": "data",
          "type": "bytes"
        }
      ],
      "name": "DiamondCut",
      "type": "event"
    },
    {
      "anonymous": false,
      "inputs": [
        {
          "indexed": true,
          "internalType": "address",
          "name": "previousOwner",
          "type": "address"
        },
        {
          "indexed": true,
          "internalType": "address",
          "name": "newOwner",
          "type": "address"
        }
      ],
      "name": "OwnershipTransferred",
      "type": "event"
    },
    {
      "stateMutability": "payable",
      "type": "fallback"
    },
    {
      "inputs": [],
      "name": "acceptOwnership",
      "outputs": [],
      "stateMutability": "nonpayable",
      "type": "function"
    },
    {
      "inputs": [
        {
          "components": [
            {
              "internalType": "address",
              "name": "target",
              "type": "address"
            },
            {
              "internalType": "enum IDiamondWritableInternal.FacetCutAction",
              "name": "action",
              "type": "uint8"
            },
            {
              "internalType": "bytes4[]",
              "name": "selectors",
              "type": "bytes4[]"
            }
          ],
          "internalType": "struct IDiamondWritableInternal.FacetCut[]",
          "name": "facetCuts",
          "type": "tuple[]"
        },
        {
          "internalType": "address",
          "name": "target",
          "type": "address"
        },
        {
          "internalType": "bytes",
          "name": "data",
          "type": "bytes"
        }
      ],
      "name": "diamondCut",
      "outputs": [],
      "stateMutability": "nonpayable",
      "type": "function"
    },
    {
      "inputs": [
        {
          "internalType": "bytes4",
          "name": "selector",
          "type": "bytes4"
        }
      ],
      "name": "facetAddress",
      "outputs": [
        {
          "internalType": "address",
          "name": "facet",
          "type": "address"
        }
      ],
      "stateMutability": "view",
      "type": "function"
    },
    {
      "inputs": [],
      "name": "facetAddresses",
      "outputs": [
        {
          "internalType": "address[]",
          "name": "addresses",
          "type": "address[]"
        }
      ],
      "stateMutability": "view",
      "type": "function"
    },
    {
      "inputs": [
        {
          "internalType": "address",
          "name": "facet",
          "type": "address"
        }
      ],
      "name": "facetFunctionSelectors",
      "outputs": [
        {
          "internalType": "bytes4[]",
          "name": "selectors",
          "type": "bytes4[]"
        }
      ],
      "stateMutability": "view",
      "type": "function"
    },
    {
      "inputs": [],
      "name": "facets",
      "outputs": [
        {
          "components": [
            {
              "internalType": "address",
              "name": "target",
              "type": "address"
            },
            {
              "internalType": "bytes4[]",
              "name": "selectors",
              "type": "bytes4[]"
            }
          ],
          "internalType": "struct IDiamondReadable.Facet[]",
          "name": "diamondFacets",
          "type": "tuple[]"
        }
      ],
      "stateMutability": "view",
      "type": "function"
    },
    {
      "inputs": [],
      "name": "getFallbackAddress",
      "outputs": [
        {
          "internalType": "address",
          "name": "fallbackAddress",
          "type": "address"
        }
      ],
      "stateMutability": "view",
      "type": "function"
    },
    {
      "inputs": [],
      "name": "nomineeOwner",
      "outputs": [
        {
          "internalType": "address",
          "name": "",
          "type": "address"
        }
      ],
      "stateMutability": "view",
      "type": "function"
    },
    {
      "inputs": [],
      "name": "owner",
      "outputs": [
        {
          "internalType": "address",
          "name": "",
          "type": "address"
        }
      ],
      "stateMutability": "view",
      "type": "function"
    },
    {
      "inputs": [
        {
          "internalType": "address",
          "name": "fallbackAddress",
          "type": "address"
        }
      ],
      "name": "setFallbackAddress",
      "outputs": [],
      "stateMutability": "nonpayable",
      "type": "function"
    },
    {
      "inputs": [
        {
          "internalType": "bytes4[]",
          "name": "interfaceId",
          "type": "bytes4[]"
        },
        {
          "internalType": "bool",
          "name": "status",
          "type": "bool"
        }
      ],
      "name": "setMultiSupportsInterface",
      "outputs": [],
      "stateMutability": "nonpayable",
      "type": "function"
    },
    {
      "inputs": [
        {
          "internalType": "bytes4",
          "name": "interfaceId",
          "type": "bytes4"
        },
        {
          "internalType": "bool",
          "name": "status",
          "type": "bool"
        }
      ],
      "name": "setSupportsInterface",
      "outputs": [],
      "stateMutability": "nonpayable",
      "type": "function"
    },
    {
      "inputs": [
        {
          "internalType": "bytes4",
          "name": "interfaceId",
          "type": "bytes4"
        }
      ],
      "name": "supportsInterface",
      "outputs": [
        {
          "internalType": "bool",
          "name": "",
          "type": "bool"
        }
      ],
      "stateMutability": "view",
      "type": "function"
    },
    {
      "inputs": [
        {
          "internalType": "address",
          "name": "account",
          "type": "address"
        }
      ],
      "name": "transferOwnership",
      "outputs": [],
      "stateMutability": "nonpayable",
      "type": "function"
    },
    {
      "stateMutability": "payable",
      "type": "receive"
    }
  ],
  "bytecode": "0x60806040523480156200001157600080fd5b506040516200365b3803806200365b833981016040819052620000349162001358565b60408051600c8082526101a0820190925260009160208201610180803683370190505090506000632c40805960e01b8282620000708162001390565b935081518110620000855762000085620013b8565b6001600160e01b031990921660209283029190910190910152639142376560e01b8282620000b38162001390565b935081518110620000c857620000c8620013b8565b6001600160e01b031990921660209283029190910190910152620000f5632f40adcf60e21b600162000a99565b6307e4c70760e21b82826200010a8162001390565b9350815181106200011f576200011f620013b8565b6001600160e01b0319909216602092830291909101909101526200014c6307e4c70760e21b600162000a99565b637a0ed62760e01b8282620001618162001390565b935081518110620001765762000176620013b8565b6001600160e01b0319909216602092830291909101909101526356fe50af60e11b8282620001a48162001390565b935081518110620001b957620001b9620013b8565b6001600160e01b0319909216602092830291909101909101526314bbdacb60e21b8282620001e78162001390565b935081518110620001fc57620001fc620013b8565b6001600160e01b0319909216602092830291909101909101526366ffd66360e11b82826200022a8162001390565b9350815181106200023f576200023f620013b8565b6001600160e01b0319909216602092830291909101909101526200026c6348e2b09360e01b600162000a99565b6301ffc9a760e01b8282620002818162001390565b935081518110620002965762000296620013b8565b6001600160e01b031990921660209283029190910190910152620002c36301ffc9a760e01b600162000a99565b638da5cb5b60e01b8282620002d88162001390565b935081518110620002ed57620002ed620013b8565b6001600160e01b03199092166020928302919091019091015263455a8a8560e11b82826200031b8162001390565b935081518110620003305762000330620013b8565b6001600160e01b03199092166020928302919091019091015263f2fde38b60e01b82826200035e8162001390565b935081518110620003735762000373620013b8565b6001600160e01b0319909216602092830291909101909101526379ba509760e01b8282620003a18162001390565b935081518110620003b657620003b6620013b8565b6001600160e01b031990921660209283029190910190910152620003e36307f5828d60e41b600162000a99565b604080516001808252818301909252600091816020015b60408051606080820183526000808352602083015291810191909152815260200190600190039081620003fa57905050604080516060810190915230815290915060208101600081526020018481525081600081518110620004605762000460620013b8565b60200260200101819052506200048e8160006040518060200160405280600081525062000b1060201b60201c565b620004993362000d11565b50506040805160168082526102e082019092526000925090602082016102c080368337019050509050637b10399960e01b81600081518110620004e057620004e0620013b8565b6001600160e01b0319909216602092830291909101909101528051633489738760e11b90829060019081106200051a576200051a620013b8565b6001600160e01b0319909216602092830291909101909101528051638150864d60e01b9082906002908110620005545762000554620013b8565b6001600160e01b031990921660209283029190910190910152805163cf9dbeb760e01b90829060039081106200058e576200058e620013b8565b6001600160e01b03199092166020928302919091019091015280516301e6472560e01b9082906004908110620005c857620005c8620013b8565b6001600160e01b03199092166020928302919091019091015280516378c87e5f60e01b9082906005908110620006025762000602620013b8565b6001600160e01b03199092166020928302919091019091015280516356c82d6b60e01b90829060069081106200063c576200063c620013b8565b6001600160e01b031990921660209283029190910190910152805163cb81facd60e01b9082906007908110620006765762000676620013b8565b6001600160e01b0319909216602092830291909101909101528051634537bff360e11b9082906008908110620006b057620006b0620013b8565b6001600160e01b0319909216602092830291909101909101528051637c037a9560e11b9082906009908110620006ea57620006ea620013b8565b6001600160e01b0319909216602092830291909101909101528051633e57d26960e01b908290600a908110620007245762000724620013b8565b6001600160e01b0319909216602092830291909101909101528051634ac4f68160e01b908290600b9081106200075e576200075e620013b8565b6001600160e01b0319909216602092830291909101909101528051633576310b60e11b908290600c908110620007985762000798620013b8565b6001600160e01b03199092166020928302919091019091015280516313a562a560e11b908290600d908110620007d257620007d2620013b8565b6001600160e01b0319909216602092830291909101909101528051632548dc4160e11b908290600e9081106200080c576200080c620013b8565b6001600160e01b0319909216602092830291909101909101528051632d4d6ccf60e01b908290600f908110620008465762000846620013b8565b6001600160e01b031990921660209283029190910190910152805163eff94ac760e01b9082906010908110620008805762000880620013b8565b6001600160e01b031990921660209283029190910190910152805163fc031b7560e01b9082906011908110620008ba57620008ba620013b8565b6001600160e01b0319909216602092830291909101909101528051639acb041760e01b9082906012908110620008f457620008f4620013b8565b6001600160e01b0319909216602092830291909101909101528051630707fdb360e11b90829060139081106200092e576200092e620013b8565b6001600160e01b0319909216602092830291909101909101528051630aa71c7b60e21b9082906014908110620009685762000968620013b8565b6001600160e01b031990921660209283029190910190910152805163d7561abd60e01b9082906015908110620009a257620009a2620013b8565b6001600160e01b03199290921660209283029190910190910152604080516001808252818301909252600091816020015b60408051606080820183526000808352602083015291810191909152815260200190600190039081620009d35790505060408051606081019091526001600160a01b03851681529091506020810160008152602001838152508160008151811062000a425762000a42620013b8565b602002602001018190525062000a708160006040518060200160405280600081525062000b1060201b60201c565b62000a8362c6784760e21b600162000a99565b5062000a9190508262000d11565b50506200155d565b6001600160e01b0319808316900362000ac55760405163b0a19dd560e01b815260040160405180910390fd5b6001600160e01b03199190911660009081527ffc606c433378e3a7e0a6a531deac289b66caa1b4aa8554fd4ab2c6f1570f92d860205260409020805460ff1916911515919091179055565b7f177481ac65e4292921c69f62d1cc7f57541261e5d61c8175cf4e36a01c9bfc94547f177481ac65e4292921c69f62d1cc7f57541261e5d61c8175cf4e36a01c9bfc939061ffff81169081906000906007161562000b805750600381901c60009081526002840160205260409020545b60005b875181101562000c7f57600088828151811062000ba45762000ba4620013b8565b6020026020010151905060008160200151905081604001515160000362000bde5760405163eb6c3aeb60e01b815260040160405180910390fd5b600081600281111562000bf55762000bf5620013ce565b0362000c145762000c098786868562000d8b565b909550935062000c74565b600181600281111562000c2b5762000c2b620013ce565b0362000c435762000c3d878362000ed3565b62000c74565b600281600281111562000c5a5762000c5a620013ce565b0362000c745762000c6e8786868562001022565b90955093505b505060010162000b83565b5082821462000c9c5760018401805461ffff191661ffff84161790555b600782161562000cbf57600382901c600090815260028501602052604090208190555b7f8faa70878671ccd212d20771b795c50af8fd3ff6cf27f4bde57e5d4de0aeb67387878760405162000cf49392919062001438565b60405180910390a162000d0886866200124e565b50505050505050565b7f8a22373512790c48b83a1fe2efdd2888d4a917bcdc24d0adf63e60f67168046080546040516001600160a01b038481169216907f8be0079c531659141344cd1fd0a4f28419497f9722a3daafe3b4186f6b6457e090600090a380546001600160a01b0319166001600160a01b0392909216919091179055565b805160009081906001600160a01b0316301480159062000db4575082516001600160a01b03163b155b1562000dd357604051633ddc5cab60e21b815260040160405180910390fd5b60005b83604001515181101562000ec65760008460400151828151811062000dff5762000dff620013b8565b6020908102919091018101516001600160e01b031981166000908152918a9052604090912054909150606081901c1562000e4c57604051634923a77160e11b815260040160405180910390fd5b85516001600160e01b0319838116600081815260208d90526040902060609390931b6001600160601b0319168b1790925560058a901b60e090811692831c91831c1999909916179781900362000eb657600389901c600090815260028b0160205260408120989098555b5050506001958601950162000dd6565b5093959294509192505050565b80516001600160a01b03163b62000efd57604051633ddc5cab60e21b815260040160405180910390fd5b60005b8160400151518110156200101d5760008260400151828151811062000f295762000f29620013b8565b6020908102919091018101516001600160e01b03198116600090815291869052604090912054909150606081901c8062000f76576040516337e25a9760e11b815260040160405180910390fd5b306001600160a01b0382160362000fa05760405163e983573160e01b815260040160405180910390fd5b84600001516001600160a01b0316816001600160a01b03160362000fd7576040516330baabf360e11b815260040160405180910390fd5b5083516001600160e01b031992909216600090815260208690526040902060609290921b6001600160601b0319166001600160601b039190911617905560010162000f00565b505050565b805160009081906001600160a01b0316156200105157604051633ab3490960e21b815260040160405180910390fd5b600385901c6007861660005b8560400151518110156200123a57600086604001518281518110620010865762001086620013b8565b6020908102919091018101516001600160e01b031981166000908152918c9052604090912054909150606081901c620010d2576040516337e25a9760e11b815260040160405180910390fd5b30606082901c03620010f75760405163e983573160e01b815260040160405180910390fd5b60008990036200112557600019909401600081815260028c016020526040902054985093600793506200112d565b600019909301925b600584901b89901b6000806001600160e01b03198084169086161462001180576001600160e01b03198316600090815260208f90526040902080546001600160601b0319166001600160601b0386161790555b50506001600160e01b03198316600090815260208d90526040812055611fff600383901c1660e0600584901b16878214620011e557600082815260028f016020526040902080546001600160e01b031980841c19909116908516831c17905562001209565b80836001600160e01b031916901c816001600160e01b031960001b901c198d16179b505b866000036200122857600088815260028f01602052604081208190559b505b5050600190930192506200105d915050565b5060039190911b1796939550929350505050565b8051156001600160a01b03831615146200127b576040516326df4ccd60e01b815260040160405180910390fd5b6001600160a01b0382161562001337576001600160a01b0382163014620012c5576001600160a01b0382163b620012c557604051633ddc5cab60e21b815260040160405180910390fd5b6000826001600160a01b031682604051620012e191906200153f565b600060405180830381855af49150503d80600081146200131e576040519150601f19603f3d011682016040523d82523d6000602084013e62001323565b606091505b50509050806200101d573d6000803e3d6000fd5b5050565b80516001600160a01b03811681146200135357600080fd5b919050565b600080604083850312156200136c57600080fd5b62001377836200133b565b915062001387602084016200133b565b90509250929050565b600060018201620013b157634e487b7160e01b600052601160045260246000fd5b5060010190565b634e487b7160e01b600052603260045260246000fd5b634e487b7160e01b600052602160045260246000fd5b60005b8381101562001401578181015183820152602001620013e7565b50506000910152565b6000815180845262001424816020860160208601620013e4565b601f01601f19169290920160200192915050565b60006060808301818452808751808352608092508286019150828160051b8701016020808b0160005b848110156200150d57898403607f19018652815180516001600160a01b03168552838101518986019060038110620014a957634e487b7160e01b600052602160045260246000fd5b868601526040918201519186018a905281519081905290840190600090898701905b80831015620014f75783516001600160e01b0319168252928601926001929092019190860190620014cb565b5097850197955050509082019060010162001461565b50506001600160a01b038a169088015286810360408801526200153181896200140a565b9a9950505050505050505050565b6000825162001553818460208701620013e4565b9190910192915050565b6120ee806200156d6000396000f3fe6080604052600436106100e15760003560e01c80637a0ed6271161007f578063914237651161005957806391423765146102d9578063adfca15e146102f9578063cdffacc614610326578063f2fde38b1461037f576100e8565b80637a0ed6271461028d5780638ab5150a146102af5780638da5cb5b146102c4576100e8565b806352ef6b2c116100bb57806352ef6b2c1461021657806354e7796f14610238578063717dbd4c1461025857806379ba509714610278576100e8565b806301ffc9a71461015b5780631f931c1c146101c95780632c408059146101e9576100e8565b366100e857005b60006100f261039f565b90506001600160a01b0381163b610135576040517f87c9fc3400000000000000000000000000000000000000000000000000000000815260040160405180910390fd5b3660008037600080366000845af43d6000803e808015610154573d6000f35b3d6000fd5b005b34801561016757600080fd5b506101b46101763660046119fc565b6001600160e01b03191660009081527ffc606c433378e3a7e0a6a531deac289b66caa1b4aa8554fd4ab2c6f1570f92d8602052604090205460ff1690565b60405190151581526020015b60405180910390f35b3480156101d557600080fd5b506101596101e4366004611a7e565b6103ae565b3480156101f557600080fd5b506101fe610438565b6040516001600160a01b0390911681526020016101c0565b34801561022257600080fd5b5061022b61046b565b6040516101c09190611b30565b34801561024457600080fd5b50610159610253366004611b8d565b610641565b34801561026457600080fd5b50610159610273366004611cc6565b6106b2565b34801561028457600080fd5b50610159610753565b34801561029957600080fd5b506102a26107af565b6040516101c09190611d50565b3480156102bb57600080fd5b506101fe610c5e565b3480156102d057600080fd5b506101fe610c68565b3480156102e557600080fd5b506101596102f4366004611deb565b610c72565b34801561030557600080fd5b50610319610314366004611deb565b610cf8565b6040516101c09190611e06565b34801561033257600080fd5b506101fe6103413660046119fc565b6001600160e01b03191660009081527f177481ac65e4292921c69f62d1cc7f57541261e5d61c8175cf4e36a01c9bfc93602052604090205460601c90565b34801561038b57600080fd5b5061015961039a366004611deb565b610e77565b60006103a9610eb9565b905090565b6103b6610f2c565b6001600160a01b0316336001600160a01b0316146103e757604051632f7a8ee160e01b815260040160405180910390fd5b6104316103f48587611e19565b8484848080601f016020809104026020016040519081016040528093929190818152602001838380828437600092019190915250610f5f92505050565b5050505050565b60006103a97f177481ac65e4292921c69f62d1cc7f57541261e5d61c8175cf4e36a01c9bfc96546001600160a01b031690565b7f177481ac65e4292921c69f62d1cc7f57541261e5d61c8175cf4e36a01c9bfc94546060907f177481ac65e4292921c69f62d1cc7f57541261e5d61c8175cf4e36a01c9bfc939061ffff1667ffffffffffffffff8111156104ce576104ce611bc0565b6040519080825280602002602001820160405280156104f7578160200160208202803683370190505b50915060008060005b600184015461ffff16821015610639576000818152600285016020526040812054905b6008811015610624578361053681611f00565b600188015490955061ffff168511905061062457600581901b82901b6001600160e01b0319811660009081526020889052604081205460601c90805b888110156105c7578a818151811061058c5761058c611f1a565b60200260200101516001600160a01b0316836001600160a01b0316036105b557600191506105c7565b806105bf81611f00565b915050610572565b5080156105d657505050610612565b818a89815181106105e9576105e9611f1a565b6001600160a01b03909216602092830291909101909101528761060b81611f00565b9850505050505b8061061c81611f00565b915050610523565b5050808061063190611f00565b915050610500565b505082525090565b7f8a22373512790c48b83a1fe2efdd2888d4a917bcdc24d0adf63e60f671680460546001600160a01b031633146106a4576040517f3058081000000000000000000000000000000000000000000000000000000000815260040160405180910390fd5b6106ae8282611175565b5050565b7f8a22373512790c48b83a1fe2efdd2888d4a917bcdc24d0adf63e60f671680460546001600160a01b03163314610715576040517f3058081000000000000000000000000000000000000000000000000000000000815260040160405180910390fd5b815160005b8181101561074d5761074584828151811061073757610737611f1a565b602002602001015184611175565b60010161071a565b50505050565b61075b611222565b6001600160a01b0316336001600160a01b0316146107a5576040517fefd1052d00000000000000000000000000000000000000000000000000000000815260040160405180910390fd5b6107ad61124a565b565b7f177481ac65e4292921c69f62d1cc7f57541261e5d61c8175cf4e36a01c9bfc94546060907f177481ac65e4292921c69f62d1cc7f57541261e5d61c8175cf4e36a01c9bfc939061ffff1667ffffffffffffffff81111561081257610812611bc0565b60405190808252806020026020018201604052801561085857816020015b6040805180820190915260008152606060208201528152602001906001900390816108305790505b50600182015490925060009061ffff1667ffffffffffffffff81111561088057610880611bc0565b6040519080825280602002602001820160405280156108a9578160200160208202803683370190505b50905060008060005b600185015461ffff16821015610bec576000818152600286016020526040812054905b6008811015610bd757836108e881611f00565b600189015490955061ffff1685119050610bd757600581901b82901b6001600160e01b0319811660009081526020899052604081205460601c90805b88811015610a6b57826001600160a01b03168c828151811061094857610948611f1a565b6020026020010151600001516001600160a01b031603610a5957838c828151811061097557610975611f1a565b6020026020010151602001518b838151811061099357610993611f1a565b602002602001015160ff16815181106109ae576109ae611f1a565b60200260200101907bffffffffffffffffffffffffffffffffffffffffffffffffffffffff191690817bffffffffffffffffffffffffffffffffffffffffffffffffffffffff19168152505060ff8a8281518110610a0e57610a0e611f1a565b602002602001015160ff1610610a2357600080fd5b898181518110610a3557610a35611f1a565b602002602001018051809190610a4a90611f30565b60ff1690525060019150610a6b565b80610a6381611f00565b915050610924565b508015610a7a57505050610bc5565b818b8981518110610a8d57610a8d611f1a565b60209081029190910101516001600160a01b03909116905260018a015461ffff1667ffffffffffffffff811115610ac657610ac6611bc0565b604051908082528060200260200182016040528015610aef578160200160208202803683370190505b508b8981518110610b0257610b02611f1a565b602002602001015160200181905250828b8981518110610b2457610b24611f1a565b602002602001015160200151600081518110610b4257610b42611f1a565b60200260200101907bffffffffffffffffffffffffffffffffffffffffffffffffffffffff191690817bffffffffffffffffffffffffffffffffffffffffffffffffffffffff1916815250506001898981518110610ba257610ba2611f1a565b60ff9092166020928302919091019091015287610bbe81611f00565b9850505050505b80610bcf81611f00565b9150506108d5565b50508080610be490611f00565b9150506108b2565b5060005b82811015610c53576000848281518110610c0c57610c0c611f1a565b602002602001015160ff1690506000878381518110610c2d57610c2d611f1a565b602002602001015160200151905081815250508080610c4b90611f00565b915050610bf0565b508185525050505090565b60006103a9611222565b60006103a9610f2c565b610c7a610f2c565b6001600160a01b0316336001600160a01b031614610cab57604051632f7a8ee160e01b815260040160405180910390fd5b7f177481ac65e4292921c69f62d1cc7f57541261e5d61c8175cf4e36a01c9bfc96805473ffffffffffffffffffffffffffffffffffffffff19166001600160a01b03831617905550565b50565b7f177481ac65e4292921c69f62d1cc7f57541261e5d61c8175cf4e36a01c9bfc94546060907f177481ac65e4292921c69f62d1cc7f57541261e5d61c8175cf4e36a01c9bfc939061ffff1667ffffffffffffffff811115610d5b57610d5b611bc0565b604051908082528060200260200182016040528015610d84578160200160208202803683370190505b50915060008060005b600184015461ffff16821015610e6d576000818152600285016020526040812054905b6008811015610e585783610dc381611f00565b600188015490955061ffff1685119050610e5857600581901b82901b6001600160e01b0319811660009081526020889052604090205460601c6001600160a01b038a1603610e455780888781518110610e1e57610e1e611f1a565b6001600160e01b03199092166020928302919091019091015285610e4181611f00565b9650505b5080610e5081611f00565b915050610db0565b50508080610e6590611f00565b915050610d8d565b5050825250919050565b610e7f610f2c565b6001600160a01b0316336001600160a01b031614610eb057604051632f7a8ee160e01b815260040160405180910390fd5b610cf581611291565b600080356001600160e01b03191681527f177481ac65e4292921c69f62d1cc7f57541261e5d61c8175cf4e36a01c9bfc93602052604090205460601c80610f2957507f177481ac65e4292921c69f62d1cc7f57541261e5d61c8175cf4e36a01c9bfc96546001600160a01b031690565b90565b60007f8a22373512790c48b83a1fe2efdd2888d4a917bcdc24d0adf63e60f6716804605b546001600160a01b0316919050565b7f177481ac65e4292921c69f62d1cc7f57541261e5d61c8175cf4e36a01c9bfc94547f177481ac65e4292921c69f62d1cc7f57541261e5d61c8175cf4e36a01c9bfc939061ffff811690819060009060071615610fce5750600381901c60009081526002840160205260409020545b60005b87518110156110cc576000888281518110610fee57610fee611f1a565b60200260200101519050600081602001519050816040015151600003611040576040517feb6c3aeb00000000000000000000000000000000000000000000000000000000815260040160405180910390fd5b600081600281111561105457611054611f4f565b0361106f57611065878686856112df565b90955093506110c2565b600181600281111561108357611083611f4f565b0361109757611092878361143c565b6110c2565b60028160028111156110ab576110ab611f4f565b036110c2576110bc878686856115d7565b90955093505b5050600101610fd1565b50828214611105576001840180547fffffffffffffffffffffffffffffffffffffffffffffffffffffffffffff00001661ffff84161790555b600782161561112757600382901c600090815260028501602052604090208190555b7f8faa70878671ccd212d20771b795c50af8fd3ff6cf27f4bde57e5d4de0aeb67387878760405161115a93929190611fb5565b60405180910390a161116c868661185f565b50505050505050565b6001600160e01b031980831690036111b9576040517fb0a19dd500000000000000000000000000000000000000000000000000000000815260040160405180910390fd5b6001600160e01b03199190911660009081527ffc606c433378e3a7e0a6a531deac289b66caa1b4aa8554fd4ab2c6f1570f92d86020526040902080547fffffffffffffffffffffffffffffffffffffffffffffffffffffffffffffff0016911515919091179055565b60007f24aa1f7b31fd188a8d3ecfb06bc55c806040e59b03bd4396283442fce6617890610f50565b61125333611958565b7f24aa1f7b31fd188a8d3ecfb06bc55c806040e59b03bd4396283442fce6617890805473ffffffffffffffffffffffffffffffffffffffff19169055565b7f24aa1f7b31fd188a8d3ecfb06bc55c806040e59b03bd4396283442fce6617890805473ffffffffffffffffffffffffffffffffffffffff19166001600160a01b038316179055610cf58181565b805160009081906001600160a01b03163014801590611307575082516001600160a01b03163b155b1561132557604051633ddc5cab60e21b815260040160405180910390fd5b60005b83604001515181101561142f5760008460400151828151811061134d5761134d611f1a565b6020908102919091018101516001600160e01b031981166000908152918a9052604090912054909150606081901c156113b2576040517f92474ee200000000000000000000000000000000000000000000000000000000815260040160405180910390fd5b85516001600160e01b0319838116600081815260208d90526040902060609390931b6bffffffffffffffffffffffff19168b1790925560058a901b60e090811692831c91831c1999909916179781900361142057600389901c600090815260028b0160205260408120989098555b50505060019586019501611328565b5093959294509192505050565b80516001600160a01b03163b61146557604051633ddc5cab60e21b815260040160405180910390fd5b60005b8160400151518110156115d25760008260400151828151811061148d5761148d611f1a565b6020908102919091018101516001600160e01b03198116600090815291869052604090912054909150606081901c806114f2576040517f6fc4b52e00000000000000000000000000000000000000000000000000000000815260040160405180910390fd5b306001600160a01b03821603611534576040517fe983573100000000000000000000000000000000000000000000000000000000815260040160405180910390fd5b84600001516001600160a01b0316816001600160a01b031603611583576040517f617557e600000000000000000000000000000000000000000000000000000000815260040160405180910390fd5b5083516001600160e01b031992909216600090815260208690526040902060609290921b6bffffffffffffffffffffffff19166bffffffffffffffffffffffff91909116179055600101611468565b505050565b805160009081906001600160a01b03161561161e576040517feacd242400000000000000000000000000000000000000000000000000000000815260040160405180910390fd5b600385901c6007861660005b85604001515181101561184b5760008660400151828151811061164f5761164f611f1a565b6020908102919091018101516001600160e01b031981166000908152918c9052604090912054909150606081901c6116b3576040517f6fc4b52e00000000000000000000000000000000000000000000000000000000815260040160405180910390fd5b30606082901c036116f0576040517fe983573100000000000000000000000000000000000000000000000000000000815260040160405180910390fd5b600089900361171c57600019909401600081815260028c01602052604090205498509360079350611724565b600019909301925b600584901b89901b6000806001600160e01b031980841690861614611780576001600160e01b03198316600090815260208f90526040902080546bffffffffffffffffffffffff19166bffffffffffffffffffffffff86161790555b50506001600160e01b03198316600090815260208d90526040812055611fff600383901c1660e0600584901b168782146117e357600082815260028f016020526040902080546001600160e01b031980841c19909116908516831c17905561181c565b80837bffffffffffffffffffffffffffffffffffffffffffffffffffffffff1916901c816001600160e01b031960001b901c198d16179b505b8660000361183a57600088815260028f01602052604081208190559b505b50506001909301925061162a915050565b5060039190911b1796939550929350505050565b8051156001600160a01b03831615146118a4576040517f26df4ccd00000000000000000000000000000000000000000000000000000000815260040160405180910390fd5b6001600160a01b038216156106ae576001600160a01b03821630146118eb576001600160a01b0382163b6118eb57604051633ddc5cab60e21b815260040160405180910390fd5b6000826001600160a01b031682604051611905919061209c565b600060405180830381855af49150503d8060008114611940576040519150601f19603f3d011682016040523d82523d6000602084013e611945565b606091505b50509050806115d2573d6000803e3d6000fd5b7f8a22373512790c48b83a1fe2efdd2888d4a917bcdc24d0adf63e60f67168046080546040516001600160a01b038481169216907f8be0079c531659141344cd1fd0a4f28419497f9722a3daafe3b4186f6b6457e090600090a3805473ffffffffffffffffffffffffffffffffffffffff19166001600160a01b0392909216919091179055565b80356001600160e01b0319811681146119f757600080fd5b919050565b600060208284031215611a0e57600080fd5b611a17826119df565b9392505050565b80356001600160a01b03811681146119f757600080fd5b60008083601f840112611a4757600080fd5b50813567ffffffffffffffff811115611a5f57600080fd5b602083019150836020828501011115611a7757600080fd5b9250929050565b600080600080600060608688031215611a9657600080fd5b853567ffffffffffffffff80821115611aae57600080fd5b818801915088601f830112611ac257600080fd5b813581811115611ad157600080fd5b8960208260051b8501011115611ae657600080fd5b60208301975080965050611afc60208901611a1e565b94506040880135915080821115611b1257600080fd5b50611b1f88828901611a35565b969995985093965092949392505050565b6020808252825182820181905260009190848201906040850190845b81811015611b715783516001600160a01b031683529284019291840191600101611b4c565b50909695505050505050565b803580151581146119f757600080fd5b60008060408385031215611ba057600080fd5b611ba9836119df565b9150611bb760208401611b7d565b90509250929050565b634e487b7160e01b600052604160045260246000fd5b6040516060810167ffffffffffffffff81118282101715611bf957611bf9611bc0565b60405290565b604051601f8201601f1916810167ffffffffffffffff81118282101715611c2857611c28611bc0565b604052919050565b600067ffffffffffffffff821115611c4a57611c4a611bc0565b5060051b60200190565b600082601f830112611c6557600080fd5b81356020611c7a611c7583611c30565b611bff565b82815260059290921b84018101918181019086841115611c9957600080fd5b8286015b84811015611cbb57611cae816119df565b8352918301918301611c9d565b509695505050505050565b60008060408385031215611cd957600080fd5b823567ffffffffffffffff811115611cf057600080fd5b611cfc85828601611c54565b925050611bb760208401611b7d565b600081518084526020808501945080840160005b83811015611d455781516001600160e01b03191687529582019590820190600101611d1f565b509495945050505050565b60006020808301818452808551808352604092508286019150828160051b87010184880160005b83811015611ddd578883037fffffffffffffffffffffffffffffffffffffffffffffffffffffffffffffffc0018552815180516001600160a01b03168452870151878401879052611dca87850182611d0b565b9588019593505090860190600101611d77565b509098975050505050505050565b600060208284031215611dfd57600080fd5b611a1782611a1e565b602081526000611a176020830184611d0b565b6000611e27611c7584611c30565b80848252602080830192508560051b850136811115611e4557600080fd5b855b81811015611ede57803567ffffffffffffffff80821115611e685760008081fd5b818901915060608236031215611e7e5760008081fd5b611e86611bd6565b611e8f83611a1e565b81528583013560038110611ea35760008081fd5b8187015260408381013583811115611ebb5760008081fd5b611ec736828701611c54565b918301919091525087525050938201938201611e47565b50919695505050505050565b634e487b7160e01b600052601160045260246000fd5b60006000198203611f1357611f13611eea565b5060010190565b634e487b7160e01b600052603260045260246000fd5b600060ff821660ff8103611f4657611f46611eea565b60010192915050565b634e487b7160e01b600052602160045260246000fd5b60005b83811015611f80578181015183820152602001611f68565b50506000910152565b60008151808452611fa1816020860160208601611f65565b601f01601f19169290920160200192915050565b6000606080830181845280875180835260808601915060808160051b87010192506020808a016000805b8481101561206c577fffffffffffffffffffffffffffffffffffffffffffffffffffffffffffffff808a880301865282516001600160a01b038151168852848101516003811061203d57634e487b7160e01b84526021600452602484fd5b8886015260409081015190880189905261205989890182611d0b565b9750509483019491830191600101611fdf565b5050506001600160a01b03891690870152505083810360408501526120918186611f89565b979650505050505050565b600082516120ae818460208701611f65565b919091019291505056fea2646970667358221220bdc5bc7301b77270602ce4f4136eae4cb8613a5925db5e02cd0162fd61db239c64736f6c63430008130033",
  "linkReferences": {},
  "deployedLinkReferences": {}
}