{
  "_format": "hh-sol-artifact-1",
  "contractName": "OptiTownRetroToken",
  "sourceName": "contracts/boredtown/OptiTownRetroToken.sol",
  "abi": [
    {
      "inputs": [
        {
          "internalType": "address",
          "name": "op",
          "type": "address"
        }
      ],
      "stateMutability": "nonpayable",
      "type": "constructor"
    },
    {
      "anonymous": false,
      "inputs": [
        {
          "indexed": false,
          "internalType": "address",
          "name": "allower",
          "type": "address"
        },
        {
          "indexed": false,
          "internalType": "uint256",
          "name": "index",
          "type": "uint256"
        }
      ],
      "name": "AllowRedeem",
      "type": "event"
    },
    {
      "anonymous": false,
      "inputs": [
        {
          "indexed": true,
          "internalType": "address",
          "name": "owner",
          "type": "address"
        },
        {
          "indexed": true,
          "internalType": "address",
          "name": "spender",
          "type": "address"
        },
        {
          "indexed": false,
          "internalType": "uint256",
          "name": "value",
          "type": "uint256"
        }
      ],
      "name": "Approval",
      "type": "event"
    },
    {
      "anonymous": false,
      "inputs": [
        {
          "indexed": true,
          "internalType": "address",
          "name": "previousOwner",
          "type": "address"
        },
        {
          "indexed": true,
          "internalType": "address",
          "name": "newOwner",
          "type": "address"
        }
      ],
      "name": "OwnershipTransferred",
      "type": "event"
    },
    {
      "anonymous": false,
      "inputs": [
        {
          "indexed": true,
          "internalType": "address",
          "name": "redeemer",
          "type": "address"
        },
        {
          "indexed": true,
          "internalType": "address",
          "name": "pool",
          "type": "address"
        },
        {
          "indexed": false,
          "internalType": "uint256",
          "name": "amount",
          "type": "uint256"
        }
      ],
      "name": "Redeem",
      "type": "event"
    },
    {
      "anonymous": false,
      "inputs": [
        {
          "indexed": true,
          "internalType": "address",
          "name": "from",
          "type": "address"
        },
        {
          "indexed": true,
          "internalType": "address",
          "name": "to",
          "type": "address"
        },
        {
          "indexed": false,
          "internalType": "uint256",
          "name": "value",
          "type": "uint256"
        }
      ],
      "name": "Transfer",
      "type": "event"
    },
    {
      "inputs": [],
      "name": "OP_TOKEN",
      "outputs": [
        {
          "internalType": "address",
          "name": "",
          "type": "address"
        }
      ],
      "stateMutability": "view",
      "type": "function"
    },
    {
      "inputs": [
        {
          "internalType": "uint256",
          "name": "",
          "type": "uint256"
        }
      ],
      "name": "allocationIndexAmount",
      "outputs": [
        {
          "internalType": "uint256",
          "name": "",
          "type": "uint256"
        }
      ],
      "stateMutability": "view",
      "type": "function"
    },
    {
      "inputs": [
        {
          "internalType": "uint256",
          "name": "",
          "type": "uint256"
        }
      ],
      "name": "allocationIndexOwner",
      "outputs": [
        {
          "internalType": "address",
          "name": "",
          "type": "address"
        }
      ],
      "stateMutability": "view",
      "type": "function"
    },
    {
      "inputs": [
        {
          "internalType": "address",
          "name": "owner",
          "type": "address"
        },
        {
          "internalType": "address",
          "name": "spender",
          "type": "address"
        }
      ],
      "name": "allowance",
      "outputs": [
        {
          "internalType": "uint256",
          "name": "",
          "type": "uint256"
        }
      ],
      "stateMutability": "view",
      "type": "function"
    },
    {
      "inputs": [],
      "name": "allowedRedeemIndex",
      "outputs": [
        {
          "internalType": "uint256",
          "name": "",
          "type": "uint256"
        }
      ],
      "stateMutability": "view",
      "type": "function"
    },
    {
      "inputs": [
        {
          "internalType": "address",
          "name": "spender",
          "type": "address"
        },
        {
          "internalType": "uint256",
          "name": "amount",
          "type": "uint256"
        }
      ],
      "name": "approve",
      "outputs": [
        {
          "internalType": "bool",
          "name": "",
          "type": "bool"
        }
      ],
      "stateMutability": "nonpayable",
      "type": "function"
    },
    {
      "inputs": [
        {
          "internalType": "address",
          "name": "account",
          "type": "address"
        }
      ],
      "name": "balanceOf",
      "outputs": [
        {
          "internalType": "uint256",
          "name": "",
          "type": "uint256"
        }
      ],
      "stateMutability": "view",
      "type": "function"
    },
    {
      "inputs": [],
      "name": "decimals",
      "outputs": [
        {
          "internalType": "uint8",
          "name": "",
          "type": "uint8"
        }
      ],
      "stateMutability": "view",
      "type": "function"
    },
    {
      "inputs": [
        {
          "internalType": "address",
          "name": "spender",
          "type": "address"
        },
        {
          "internalType": "uint256",
          "name": "subtractedValue",
          "type": "uint256"
        }
      ],
      "name": "decreaseAllowance",
      "outputs": [
        {
          "internalType": "bool",
          "name": "",
          "type": "bool"
        }
      ],
      "stateMutability": "nonpayable",
      "type": "function"
    },
    {
      "inputs": [
        {
          "internalType": "address",
          "name": "spender",
          "type": "address"
        },
        {
          "internalType": "uint256",
          "name": "addedValue",
          "type": "uint256"
        }
      ],
      "name": "increaseAllowance",
      "outputs": [
        {
          "internalType": "bool",
          "name": "",
          "type": "bool"
        }
      ],
      "stateMutability": "nonpayable",
      "type": "function"
    },
    {
      "inputs": [
        {
          "internalType": "address",
          "name": "to",
          "type": "address"
        },
        {
          "internalType": "uint256",
          "name": "amount",
          "type": "uint256"
        },
        {
          "internalType": "uint256",
          "name": "allocationIndex",
          "type": "uint256"
        }
      ],
      "name": "mint",
      "outputs": [],
      "stateMutability": "nonpayable",
      "type": "function"
    },
    {
      "inputs": [],
      "name": "name",
      "outputs": [
        {
          "internalType": "string",
          "name": "",
          "type": "string"
        }
      ],
      "stateMutability": "view",
      "type": "function"
    },
    {
      "inputs": [
        {
          "internalType": "address",
          "name": "",
          "type": "address"
        }
      ],
      "name": "operators",
      "outputs": [
        {
          "internalType": "bool",
          "name": "",
          "type": "bool"
        }
      ],
      "stateMutability": "view",
      "type": "function"
    },
    {
      "inputs": [],
      "name": "owner",
      "outputs": [
        {
          "internalType": "address",
          "name": "",
          "type": "address"
        }
      ],
      "stateMutability": "view",
      "type": "function"
    },
    {
      "inputs": [
        {
          "internalType": "contract IERC20",
          "name": "token",
          "type": "address"
        }
      ],
      "name": "recoverERC20",
      "outputs": [],
      "stateMutability": "nonpayable",
      "type": "function"
    },
    {
      "inputs": [],
      "name": "recoverETH",
      "outputs": [],
      "stateMutability": "nonpayable",
      "type": "function"
    },
    {
      "inputs": [
        {
          "internalType": "address",
          "name": "pool",
          "type": "address"
        },
        {
          "internalType": "uint256",
          "name": "allocationIndex",
          "type": "uint256"
        }
      ],
      "name": "redeemFrom",
      "outputs": [],
      "stateMutability": "nonpayable",
      "type": "function"
    },
    {
      "inputs": [
        {
          "internalType": "uint256",
          "name": "",
          "type": "uint256"
        }
      ],
      "name": "redeemed",
      "outputs": [
        {
          "internalType": "bool",
          "name": "",
          "type": "bool"
        }
      ],
      "stateMutability": "view",
      "type": "function"
    },
    {
      "inputs": [],
      "name": "renounceOwnership",
      "outputs": [],
      "stateMutability": "nonpayable",
      "type": "function"
    },
    {
      "inputs": [
        {
          "internalType": "uint256",
          "name": "index",
          "type": "uint256"
        }
      ],
      "name": "setAllowedRedeemIndex",
      "outputs": [],
      "stateMutability": "nonpayable",
      "type": "function"
    },
    {
      "inputs": [
        {
          "internalType": "address",
          "name": "operator",
          "type": "address"
        },
        {
          "internalType": "bool",
          "name": "enabled",
          "type": "bool"
        }
      ],
      "name": "setOperator",
      "outputs": [],
      "stateMutability": "nonpayable",
      "type": "function"
    },
    {
      "inputs": [],
      "name": "symbol",
      "outputs": [
        {
          "internalType": "string",
          "name": "",
          "type": "string"
        }
      ],
      "stateMutability": "view",
      "type": "function"
    },
    {
      "inputs": [],
      "name": "totalSupply",
      "outputs": [
        {
          "internalType": "uint256",
          "name": "",
          "type": "uint256"
        }
      ],
      "stateMutability": "view",
      "type": "function"
    },
    {
      "inputs": [
        {
          "internalType": "address",
          "name": "to",
          "type": "address"
        },
        {
          "internalType": "uint256",
          "name": "amount",
          "type": "uint256"
        }
      ],
      "name": "transfer",
      "outputs": [
        {
          "internalType": "bool",
          "name": "",
          "type": "bool"
        }
      ],
      "stateMutability": "nonpayable",
      "type": "function"
    },
    {
      "inputs": [
        {
          "internalType": "address",
          "name": "from",
          "type": "address"
        },
        {
          "internalType": "address",
          "name": "to",
          "type": "address"
        },
        {
          "internalType": "uint256",
          "name": "amount",
          "type": "uint256"
        }
      ],
      "name": "transferFrom",
      "outputs": [
        {
          "internalType": "bool",
          "name": "",
          "type": "bool"
        }
      ],
      "stateMutability": "nonpayable",
      "type": "function"
    },
    {
      "inputs": [
        {
          "internalType": "address",
          "name": "newOwner",
          "type": "address"
        }
      ],
      "name": "transferOwnership",
      "outputs": [],
      "stateMutability": "nonpayable",
      "type": "function"
    }
  ],
  "bytecode": "0x60a06040526000600a553480156200001657600080fd5b5060405162001a1e38038062001a1e83398101604081905262000039916200015a565b6040518060400160405280601981526020017f2e746f776e20526574726f44726f70204f50205469636b6574000000000000008152506040518060400160405280600e81526020016d4f5054495f544f574e524554524f60901b8152508160039081620000a7919062000231565b506004620000b6828262000231565b505050620000d3620000cd6200010460201b60201c565b62000108565b620000f2738b6c27ec466923fad66ada94c78aa320ea87696962000108565b6001600160a01b0316608052620002fd565b3390565b600580546001600160a01b038381166001600160a01b0319831681179093556040519116919082907f8be0079c531659141344cd1fd0a4f28419497f9722a3daafe3b4186f6b6457e090600090a35050565b6000602082840312156200016d57600080fd5b81516001600160a01b03811681146200018557600080fd5b9392505050565b634e487b7160e01b600052604160045260246000fd5b600181811c90821680620001b757607f821691505b602082108103620001d857634e487b7160e01b600052602260045260246000fd5b50919050565b601f8211156200022c57600081815260208120601f850160051c81016020861015620002075750805b601f850160051c820191505b81811015620002285782815560010162000213565b5050505b505050565b81516001600160401b038111156200024d576200024d6200018c565b62000265816200025e8454620001a2565b84620001de565b602080601f8311600181146200029d5760008415620002845750858301515b600019600386901b1c1916600185901b17855562000228565b600085815260208120601f198616915b82811015620002ce57888601518255948401946001909101908401620002ad565b5085821015620002ed5787850151600019600388901b60f8161c191681555b5050505050600190811b01905550565b6080516116fe620003206000396000818161028c01526108f401526116fe6000f3fe608060405234801561001057600080fd5b50600436106101ae5760003560e01c80635de5773a116100ee57806395d89b4111610097578063a9059cbb11610071578063a9059cbb146103b8578063c19f7e33146103cb578063dd62ed3e146103eb578063f2fde38b1461042457600080fd5b806395d89b411461038a5780639e8c708e14610392578063a457c2d7146103a557600080fd5b80637ed0f1c1116100c85780637ed0f1c11461034357806384821201146103665780638da5cb5b1461037957600080fd5b80635de5773a146102ff57806370a0823114610312578063715018a61461033b57600080fd5b8063208b59b21161015b578063313ce56711610135578063313ce567146102c157806339509351146102d05780633d1d36d4146102e3578063558a7297146102ec57600080fd5b8063208b59b214610246578063224d7e591461028757806323b872dd146102ae57600080fd5b806313e7c9d81161018c57806313e7c9d8146101fe578063156e29f61461022157806318160ddd1461023457600080fd5b80630614117a146101b357806306fdde03146101bd578063095ea7b3146101db575b600080fd5b6101bb610437565b005b6101c5610501565b6040516101d2919061147f565b60405180910390f35b6101ee6101e93660046114c7565b610593565b60405190151581526020016101d2565b6101ee61020c3660046114f3565b60066020526000908152604090205460ff1681565b6101bb61022f366004611517565b6105ad565b6002545b6040519081526020016101d2565b61026f61025436600461154c565b6008602052600090815260409020546001600160a01b031681565b6040516001600160a01b0390911681526020016101d2565b61026f7f000000000000000000000000000000000000000000000000000000000000000081565b6101ee6102bc366004611565565b610709565b604051601281526020016101d2565b6101ee6102de3660046114c7565b61072d565b610238600a5481565b6101bb6102fa3660046115b4565b61076c565b6101bb61030d3660046114c7565b61079f565b6102386103203660046114f3565b6001600160a01b031660009081526020819052604090205490565b6101bb610962565b6101ee61035136600461154c565b60096020526000908152604090205460ff1681565b6101bb61037436600461154c565b610976565b6005546001600160a01b031661026f565b6101c56109bf565b6101bb6103a03660046114f3565b6109ce565b6101ee6103b33660046114c7565b610a80565b6101ee6103c63660046114c7565b610b2a565b6102386103d936600461154c565b60076020526000908152604090205481565b6102386103f93660046115ed565b6001600160a01b03918216600090815260016020908152604080832093909416825291909152205490565b6101bb6104323660046114f3565b610b38565b61043f610bc5565b60006104536005546001600160a01b031690565b90506000816001600160a01b03164760405160006040518083038185875af1925050503d80600081146104a2576040519150601f19603f3d011682016040523d82523d6000602084013e6104a7565b606091505b50509050806104fd5760405162461bcd60e51b815260206004820152600f60248201527f5769746864726177206661696c6564000000000000000000000000000000000060448201526064015b60405180910390fd5b5050565b6060600380546105109061161b565b80601f016020809104026020016040519081016040528092919081815260200182805461053c9061161b565b80156105895780601f1061055e57610100808354040283529160200191610589565b820191906000526020600020905b81548152906001019060200180831161056c57829003601f168201915b5050505050905090565b6000336105a1818585610c1f565b60019150505b92915050565b3360009081526006602052604090205460ff1661060c5760405162461bcd60e51b815260206004820152600f60248201527f4e6f7420616e206f70657261746f72000000000000000000000000000000000060448201526064016104f4565b600081815260076020526040902054156106685760405162461bcd60e51b815260206004820152600960248201527f416c6c6f6361746564000000000000000000000000000000000000000000000060448201526064016104f4565b600082116106b85760405162461bcd60e51b815260206004820152600b60248201527f5a65726f20616d6f756e7400000000000000000000000000000000000000000060448201526064016104f4565b6106c28383610d6f565b6000908152600760209081526040808320939093556008905220805473ffffffffffffffffffffffffffffffffffffffff19166001600160a01b0392909216919091179055565b600033610717858285610e2e565b610722858585610ec0565b506001949350505050565b3360008181526001602090815260408083206001600160a01b03871684529091528120549091906105a19082908690610767908790611655565b610c1f565b610774610bc5565b6001600160a01b03919091166000908152600660205260409020805460ff1916911515919091179055565b80600a54116107f05760405162461bcd60e51b815260206004820152600660248201527f4c6f636b6564000000000000000000000000000000000000000000000000000060448201526064016104f4565b60008181526009602052604090205460ff161561084f5760405162461bcd60e51b815260206004820152601060248201527f416c72656164792052656465656d65640000000000000000000000000000000060448201526064016104f4565b6000818152600860205260409020546001600160a01b031633146108b55760405162461bcd60e51b815260206004820152600c60248201527f496d706572736f6e61746564000000000000000000000000000000000000000060448201526064016104f4565b6000818152600760205260409020546108ce3382610f0d565b6000828152600960205260409020805460ff1916600117905561091c6001600160a01b037f000000000000000000000000000000000000000000000000000000000000000016843384611076565b6040518181526001600160a01b0384169033907fd12200efa34901b99367694174c3b0d32c99585fdf37c7c26892136ddd0836d9906020015b60405180910390a3505050565b61096a610bc5565b6109746000611127565b565b61097e610bc5565b600a81905560408051338152602081018390527ff941571374ef44f87a8944662aec097897aea52a72bb1d551dc3f51d9e7b333c910160405180910390a150565b6060600480546105109061161b565b6109d6610bc5565b610a7d6109eb6005546001600160a01b031690565b6040517f70a082310000000000000000000000000000000000000000000000000000000081523060048201526001600160a01b038416906370a0823190602401602060405180830381865afa158015610a48573d6000803e3d6000fd5b505050506040513d601f19601f82011682018060405250810190610a6c9190611676565b6001600160a01b0384169190611186565b50565b3360008181526001602090815260408083206001600160a01b038716845290915281205490919083811015610b1d5760405162461bcd60e51b815260206004820152602560248201527f45524332303a2064656372656173656420616c6c6f77616e63652062656c6f7760448201527f207a65726f00000000000000000000000000000000000000000000000000000060648201526084016104f4565b6107228286868403610c1f565b6000336105a1818585610ec0565b610b40610bc5565b6001600160a01b038116610bbc5760405162461bcd60e51b815260206004820152602660248201527f4f776e61626c653a206e6577206f776e657220697320746865207a65726f206160448201527f646472657373000000000000000000000000000000000000000000000000000060648201526084016104f4565b610a7d81611127565b6005546001600160a01b031633146109745760405162461bcd60e51b815260206004820181905260248201527f4f776e61626c653a2063616c6c6572206973206e6f7420746865206f776e657260448201526064016104f4565b6001600160a01b038316610c9a5760405162461bcd60e51b8152602060048201526024808201527f45524332303a20617070726f76652066726f6d20746865207a65726f2061646460448201527f726573730000000000000000000000000000000000000000000000000000000060648201526084016104f4565b6001600160a01b038216610d165760405162461bcd60e51b815260206004820152602260248201527f45524332303a20617070726f766520746f20746865207a65726f20616464726560448201527f737300000000000000000000000000000000000000000000000000000000000060648201526084016104f4565b6001600160a01b0383811660008181526001602090815260408083209487168084529482529182902085905590518481527f8c5be1e5ebec7d5bd14f71427d1e84f3dd0314c0f7b2291e5b200ac8c7c3b9259101610955565b6001600160a01b038216610dc55760405162461bcd60e51b815260206004820152601f60248201527f45524332303a206d696e7420746f20746865207a65726f20616464726573730060448201526064016104f4565b8060026000828254610dd79190611655565b90915550506001600160a01b038216600081815260208181526040808320805486019055518481527fddf252ad1be2c89b69c2b068fc378daa952ba7f163c4a11628f55a4df523b3ef910160405180910390a35050565b6001600160a01b038381166000908152600160209081526040808320938616835292905220546000198114610eba5781811015610ead5760405162461bcd60e51b815260206004820152601d60248201527f45524332303a20696e73756666696369656e7420616c6c6f77616e636500000060448201526064016104f4565b610eba8484848403610c1f565b50505050565b60405162461bcd60e51b815260206004820152600960248201527f536f756c626f756e64000000000000000000000000000000000000000000000060448201526064016104f4565b505050565b6001600160a01b038216610f895760405162461bcd60e51b815260206004820152602160248201527f45524332303a206275726e2066726f6d20746865207a65726f2061646472657360448201527f730000000000000000000000000000000000000000000000000000000000000060648201526084016104f4565b6001600160a01b038216600090815260208190526040902054818110156110185760405162461bcd60e51b815260206004820152602260248201527f45524332303a206275726e20616d6f756e7420657863656564732062616c616e60448201527f636500000000000000000000000000000000000000000000000000000000000060648201526084016104f4565b6001600160a01b0383166000818152602081815260408083208686039055600280548790039055518581529192917fddf252ad1be2c89b69c2b068fc378daa952ba7f163c4a11628f55a4df523b3ef910160405180910390a3505050565b6040516001600160a01b0380851660248301528316604482015260648101829052610eba9085907f23b872dd00000000000000000000000000000000000000000000000000000000906084015b60408051601f198184030181529190526020810180517bffffffffffffffffffffffffffffffffffffffffffffffffffffffff167fffffffff00000000000000000000000000000000000000000000000000000000909316929092179091526111cf565b600580546001600160a01b0383811673ffffffffffffffffffffffffffffffffffffffff19831681179093556040519116919082907f8be0079c531659141344cd1fd0a4f28419497f9722a3daafe3b4186f6b6457e090600090a35050565b6040516001600160a01b038316602482015260448101829052610f089084907fa9059cbb00000000000000000000000000000000000000000000000000000000906064016110c3565b6000611224826040518060400160405280602081526020017f5361666545524332303a206c6f772d6c6576656c2063616c6c206661696c6564815250856001600160a01b03166112b49092919063ffffffff16565b805190915015610f085780806020019051810190611242919061168f565b610f085760405162461bcd60e51b815260206004820152602a60248201527f5361666545524332303a204552433230206f7065726174696f6e20646964206e60448201527f6f7420737563636565640000000000000000000000000000000000000000000060648201526084016104f4565b60606112c384846000856112cb565b949350505050565b6060824710156113435760405162461bcd60e51b815260206004820152602660248201527f416464726573733a20696e73756666696369656e742062616c616e636520666f60448201527f722063616c6c000000000000000000000000000000000000000000000000000060648201526084016104f4565b600080866001600160a01b0316858760405161135f91906116ac565b60006040518083038185875af1925050503d806000811461139c576040519150601f19603f3d011682016040523d82523d6000602084013e6113a1565b606091505b50915091506113b2878383876113bd565b979650505050505050565b6060831561142c578251600003611425576001600160a01b0385163b6114255760405162461bcd60e51b815260206004820152601d60248201527f416464726573733a2063616c6c20746f206e6f6e2d636f6e747261637400000060448201526064016104f4565b50816112c3565b6112c383838151156114415781518083602001fd5b8060405162461bcd60e51b81526004016104f4919061147f565b60005b8381101561147657818101518382015260200161145e565b50506000910152565b602081526000825180602084015261149e81604085016020870161145b565b601f01601f19169190910160400192915050565b6001600160a01b0381168114610a7d57600080fd5b600080604083850312156114da57600080fd5b82356114e5816114b2565b946020939093013593505050565b60006020828403121561150557600080fd5b8135611510816114b2565b9392505050565b60008060006060848603121561152c57600080fd5b8335611537816114b2565b95602085013595506040909401359392505050565b60006020828403121561155e57600080fd5b5035919050565b60008060006060848603121561157a57600080fd5b8335611585816114b2565b92506020840135611595816114b2565b929592945050506040919091013590565b8015158114610a7d57600080fd5b600080604083850312156115c757600080fd5b82356115d2816114b2565b915060208301356115e2816115a6565b809150509250929050565b6000806040838503121561160057600080fd5b823561160b816114b2565b915060208301356115e2816114b2565b600181811c9082168061162f57607f821691505b60208210810361164f57634e487b7160e01b600052602260045260246000fd5b50919050565b808201808211156105a757634e487b7160e01b600052601160045260246000fd5b60006020828403121561168857600080fd5b5051919050565b6000602082840312156116a157600080fd5b8151611510816115a6565b600082516116be81846020870161145b565b919091019291505056fea2646970667358221220063551c7711b848ba215d02496307dac99bd0d79abc8b04af0d77446657105c164736f6c63430008110033",
  "linkReferences": {},
  "deployedLinkReferences": {}
}