{
  "_format": "hh-sol-artifact-1",
  "contractName": "OptiTownRetroToken",
  "sourceName": "contracts/boredtown/OptiTownRetroToken.sol",
  "abi": [
    {
      "inputs": [
        {
          "internalType": "address",
          "name": "op",
          "type": "address"
        }
      ],
      "stateMutability": "nonpayable",
      "type": "constructor"
    },
    {
      "anonymous": false,
      "inputs": [
        {
          "indexed": true,
          "internalType": "address",
          "name": "owner",
          "type": "address"
        },
        {
          "indexed": true,
          "internalType": "address",
          "name": "spender",
          "type": "address"
        },
        {
          "indexed": false,
          "internalType": "uint256",
          "name": "value",
          "type": "uint256"
        }
      ],
      "name": "Approval",
      "type": "event"
    },
    {
      "anonymous": false,
      "inputs": [
        {
          "indexed": true,
          "internalType": "address",
          "name": "previousOwner",
          "type": "address"
        },
        {
          "indexed": true,
          "internalType": "address",
          "name": "newOwner",
          "type": "address"
        }
      ],
      "name": "OwnershipTransferred",
      "type": "event"
    },
    {
      "anonymous": false,
      "inputs": [
        {
          "indexed": true,
          "internalType": "address",
          "name": "redeemer",
          "type": "address"
        },
        {
          "indexed": true,
          "internalType": "address",
          "name": "pool",
          "type": "address"
        },
        {
          "indexed": false,
          "internalType": "uint256",
          "name": "amount",
          "type": "uint256"
        }
      ],
      "name": "Redeem",
      "type": "event"
    },
    {
      "anonymous": false,
      "inputs": [
        {
          "indexed": true,
          "internalType": "address",
          "name": "from",
          "type": "address"
        },
        {
          "indexed": true,
          "internalType": "address",
          "name": "to",
          "type": "address"
        },
        {
          "indexed": false,
          "internalType": "uint256",
          "name": "value",
          "type": "uint256"
        }
      ],
      "name": "Transfer",
      "type": "event"
    },
    {
      "inputs": [],
      "name": "OP_TOKEN",
      "outputs": [
        {
          "internalType": "address",
          "name": "",
          "type": "address"
        }
      ],
      "stateMutability": "view",
      "type": "function"
    },
    {
      "inputs": [
        {
          "internalType": "uint256",
          "name": "",
          "type": "uint256"
        }
      ],
      "name": "allocationIndexAmount",
      "outputs": [
        {
          "internalType": "uint256",
          "name": "",
          "type": "uint256"
        }
      ],
      "stateMutability": "view",
      "type": "function"
    },
    {
      "inputs": [
        {
          "internalType": "uint256",
          "name": "",
          "type": "uint256"
        }
      ],
      "name": "allocationIndexOwner",
      "outputs": [
        {
          "internalType": "address",
          "name": "",
          "type": "address"
        }
      ],
      "stateMutability": "view",
      "type": "function"
    },
    {
      "inputs": [
        {
          "internalType": "address",
          "name": "owner",
          "type": "address"
        },
        {
          "internalType": "address",
          "name": "spender",
          "type": "address"
        }
      ],
      "name": "allowance",
      "outputs": [
        {
          "internalType": "uint256",
          "name": "",
          "type": "uint256"
        }
      ],
      "stateMutability": "view",
      "type": "function"
    },
    {
      "inputs": [],
      "name": "allowedRedeemIndex",
      "outputs": [
        {
          "internalType": "uint256",
          "name": "",
          "type": "uint256"
        }
      ],
      "stateMutability": "view",
      "type": "function"
    },
    {
      "inputs": [
        {
          "internalType": "address",
          "name": "spender",
          "type": "address"
        },
        {
          "internalType": "uint256",
          "name": "amount",
          "type": "uint256"
        }
      ],
      "name": "approve",
      "outputs": [
        {
          "internalType": "bool",
          "name": "",
          "type": "bool"
        }
      ],
      "stateMutability": "nonpayable",
      "type": "function"
    },
    {
      "inputs": [
        {
          "internalType": "address",
          "name": "account",
          "type": "address"
        }
      ],
      "name": "balanceOf",
      "outputs": [
        {
          "internalType": "uint256",
          "name": "",
          "type": "uint256"
        }
      ],
      "stateMutability": "view",
      "type": "function"
    },
    {
      "inputs": [],
      "name": "decimals",
      "outputs": [
        {
          "internalType": "uint8",
          "name": "",
          "type": "uint8"
        }
      ],
      "stateMutability": "view",
      "type": "function"
    },
    {
      "inputs": [
        {
          "internalType": "address",
          "name": "spender",
          "type": "address"
        },
        {
          "internalType": "uint256",
          "name": "subtractedValue",
          "type": "uint256"
        }
      ],
      "name": "decreaseAllowance",
      "outputs": [
        {
          "internalType": "bool",
          "name": "",
          "type": "bool"
        }
      ],
      "stateMutability": "nonpayable",
      "type": "function"
    },
    {
      "inputs": [
        {
          "internalType": "address",
          "name": "spender",
          "type": "address"
        },
        {
          "internalType": "uint256",
          "name": "addedValue",
          "type": "uint256"
        }
      ],
      "name": "increaseAllowance",
      "outputs": [
        {
          "internalType": "bool",
          "name": "",
          "type": "bool"
        }
      ],
      "stateMutability": "nonpayable",
      "type": "function"
    },
    {
      "inputs": [
        {
          "internalType": "address",
          "name": "to",
          "type": "address"
        },
        {
          "internalType": "uint256",
          "name": "amount",
          "type": "uint256"
        },
        {
          "internalType": "uint256",
          "name": "allocationIndex",
          "type": "uint256"
        }
      ],
      "name": "mint",
      "outputs": [],
      "stateMutability": "nonpayable",
      "type": "function"
    },
    {
      "inputs": [],
      "name": "name",
      "outputs": [
        {
          "internalType": "string",
          "name": "",
          "type": "string"
        }
      ],
      "stateMutability": "view",
      "type": "function"
    },
    {
      "inputs": [
        {
          "internalType": "address",
          "name": "",
          "type": "address"
        }
      ],
      "name": "operators",
      "outputs": [
        {
          "internalType": "bool",
          "name": "",
          "type": "bool"
        }
      ],
      "stateMutability": "view",
      "type": "function"
    },
    {
      "inputs": [],
      "name": "owner",
      "outputs": [
        {
          "internalType": "address",
          "name": "",
          "type": "address"
        }
      ],
      "stateMutability": "view",
      "type": "function"
    },
    {
      "inputs": [
        {
          "internalType": "contract IERC20",
          "name": "token",
          "type": "address"
        }
      ],
      "name": "recoverERC20",
      "outputs": [],
      "stateMutability": "nonpayable",
      "type": "function"
    },
    {
      "inputs": [],
      "name": "recoverETH",
      "outputs": [],
      "stateMutability": "nonpayable",
      "type": "function"
    },
    {
      "inputs": [
        {
          "internalType": "address",
          "name": "pool",
          "type": "address"
        },
        {
          "internalType": "uint256",
          "name": "allocationIndex",
          "type": "uint256"
        }
      ],
      "name": "redeemFrom",
      "outputs": [],
      "stateMutability": "nonpayable",
      "type": "function"
    },
    {
      "inputs": [
        {
          "internalType": "uint256",
          "name": "",
          "type": "uint256"
        }
      ],
      "name": "redeemed",
      "outputs": [
        {
          "internalType": "bool",
          "name": "",
          "type": "bool"
        }
      ],
      "stateMutability": "view",
      "type": "function"
    },
    {
      "inputs": [],
      "name": "renounceOwnership",
      "outputs": [],
      "stateMutability": "nonpayable",
      "type": "function"
    },
    {
      "inputs": [
        {
          "internalType": "address",
          "name": "operator",
          "type": "address"
        },
        {
          "internalType": "bool",
          "name": "enabled",
          "type": "bool"
        }
      ],
      "name": "setOperator",
      "outputs": [],
      "stateMutability": "nonpayable",
      "type": "function"
    },
    {
      "inputs": [],
      "name": "symbol",
      "outputs": [
        {
          "internalType": "string",
          "name": "",
          "type": "string"
        }
      ],
      "stateMutability": "view",
      "type": "function"
    },
    {
      "inputs": [],
      "name": "totalSupply",
      "outputs": [
        {
          "internalType": "uint256",
          "name": "",
          "type": "uint256"
        }
      ],
      "stateMutability": "view",
      "type": "function"
    },
    {
      "inputs": [
        {
          "internalType": "address",
          "name": "to",
          "type": "address"
        },
        {
          "internalType": "uint256",
          "name": "amount",
          "type": "uint256"
        }
      ],
      "name": "transfer",
      "outputs": [
        {
          "internalType": "bool",
          "name": "",
          "type": "bool"
        }
      ],
      "stateMutability": "nonpayable",
      "type": "function"
    },
    {
      "inputs": [
        {
          "internalType": "address",
          "name": "from",
          "type": "address"
        },
        {
          "internalType": "address",
          "name": "to",
          "type": "address"
        },
        {
          "internalType": "uint256",
          "name": "amount",
          "type": "uint256"
        }
      ],
      "name": "transferFrom",
      "outputs": [
        {
          "internalType": "bool",
          "name": "",
          "type": "bool"
        }
      ],
      "stateMutability": "nonpayable",
      "type": "function"
    },
    {
      "inputs": [
        {
          "internalType": "address",
          "name": "newOwner",
          "type": "address"
        }
      ],
      "name": "transferOwnership",
      "outputs": [],
      "stateMutability": "nonpayable",
      "type": "function"
    }
  ],
  "bytecode": "0x60a06040526000600a553480156200001657600080fd5b50604051620019b7380380620019b783398101604081905262000039916200015a565b6040518060400160405280601981526020017f2e746f776e20526574726f44726f70204f50205469636b6574000000000000008152506040518060400160405280600e81526020016d4f5054495f544f574e524554524f60901b8152508160039081620000a7919062000231565b506004620000b6828262000231565b505050620000d3620000cd6200010460201b60201c565b62000108565b620000f2738b6c27ec466923fad66ada94c78aa320ea87696962000108565b6001600160a01b0316608052620002fd565b3390565b600580546001600160a01b038381166001600160a01b0319831681179093556040519116919082907f8be0079c531659141344cd1fd0a4f28419497f9722a3daafe3b4186f6b6457e090600090a35050565b6000602082840312156200016d57600080fd5b81516001600160a01b03811681146200018557600080fd5b9392505050565b634e487b7160e01b600052604160045260246000fd5b600181811c90821680620001b757607f821691505b602082108103620001d857634e487b7160e01b600052602260045260246000fd5b50919050565b601f8211156200022c57600081815260208120601f850160051c81016020861015620002075750805b601f850160051c820191505b81811015620002285782815560010162000213565b5050505b505050565b81516001600160401b038111156200024d576200024d6200018c565b62000265816200025e8454620001a2565b84620001de565b602080601f8311600181146200029d5760008415620002845750858301515b600019600386901b1c1916600185901b17855562000228565b600085815260208120601f198616915b82811015620002ce57888601518255948401946001909101908401620002ad565b5085821015620002ed5787850151600019600388901b60f8161c191681555b5050505050600190811b01905550565b608051611697620003206000396000818161028101526108d601526116976000f3fe608060405234801561001057600080fd5b50600436106101a35760003560e01c8063558a7297116100ee57806395d89b4111610097578063a9059cbb11610071578063a9059cbb1461039a578063c19f7e33146103ad578063dd62ed3e146103cd578063f2fde38b1461040657600080fd5b806395d89b411461036c5780639e8c708e14610374578063a457c2d71461038757600080fd5b8063715018a6116100c8578063715018a6146103305780637ed0f1c1146103385780638da5cb5b1461035b57600080fd5b8063558a7297146102e15780635de5773a146102f457806370a082311461030757600080fd5b8063208b59b211610150578063313ce5671161012a578063313ce567146102b657806339509351146102c55780633d1d36d4146102d857600080fd5b8063208b59b21461023b578063224d7e591461027c57806323b872dd146102a357600080fd5b806313e7c9d81161018157806313e7c9d8146101f3578063156e29f61461021657806318160ddd1461022957600080fd5b80630614117a146101a857806306fdde03146101b2578063095ea7b3146101d0575b600080fd5b6101b0610419565b005b6101ba6104e3565b6040516101c79190611418565b60405180910390f35b6101e36101de366004611460565b610575565b60405190151581526020016101c7565b6101e361020136600461148c565b60066020526000908152604090205460ff1681565b6101b06102243660046114b0565b61058f565b6002545b6040519081526020016101c7565b6102646102493660046114e5565b6008602052600090815260409020546001600160a01b031681565b6040516001600160a01b0390911681526020016101c7565b6102647f000000000000000000000000000000000000000000000000000000000000000081565b6101e36102b13660046114fe565b6106eb565b604051601281526020016101c7565b6101e36102d3366004611460565b61070f565b61022d600a5481565b6101b06102ef36600461154d565b61074e565b6101b0610302366004611460565b610781565b61022d61031536600461148c565b6001600160a01b031660009081526020819052604090205490565b6101b0610944565b6101e36103463660046114e5565b60096020526000908152604090205460ff1681565b6005546001600160a01b0316610264565b6101ba610958565b6101b061038236600461148c565b610967565b6101e3610395366004611460565b610a19565b6101e36103a8366004611460565b610ac3565b61022d6103bb3660046114e5565b60076020526000908152604090205481565b61022d6103db366004611586565b6001600160a01b03918216600090815260016020908152604080832093909416825291909152205490565b6101b061041436600461148c565b610ad1565b610421610b5e565b60006104356005546001600160a01b031690565b90506000816001600160a01b03164760405160006040518083038185875af1925050503d8060008114610484576040519150601f19603f3d011682016040523d82523d6000602084013e610489565b606091505b50509050806104df5760405162461bcd60e51b815260206004820152600f60248201527f5769746864726177206661696c6564000000000000000000000000000000000060448201526064015b60405180910390fd5b5050565b6060600380546104f2906115b4565b80601f016020809104026020016040519081016040528092919081815260200182805461051e906115b4565b801561056b5780601f106105405761010080835404028352916020019161056b565b820191906000526020600020905b81548152906001019060200180831161054e57829003601f168201915b5050505050905090565b600033610583818585610bb8565b60019150505b92915050565b3360009081526006602052604090205460ff166105ee5760405162461bcd60e51b815260206004820152600f60248201527f4e6f7420616e206f70657261746f72000000000000000000000000000000000060448201526064016104d6565b6000818152600760205260409020541561064a5760405162461bcd60e51b815260206004820152600960248201527f416c6c6f6361746564000000000000000000000000000000000000000000000060448201526064016104d6565b6000821161069a5760405162461bcd60e51b815260206004820152600b60248201527f5a65726f20616d6f756e7400000000000000000000000000000000000000000060448201526064016104d6565b6106a48383610d08565b6000908152600760209081526040808320939093556008905220805473ffffffffffffffffffffffffffffffffffffffff19166001600160a01b0392909216919091179055565b6000336106f9858285610dc7565b610704858585610e59565b506001949350505050565b3360008181526001602090815260408083206001600160a01b038716845290915281205490919061058390829086906107499087906115ee565b610bb8565b610756610b5e565b6001600160a01b03919091166000908152600660205260409020805460ff1916911515919091179055565b80600a54116107d25760405162461bcd60e51b815260206004820152600660248201527f4c6f636b6564000000000000000000000000000000000000000000000000000060448201526064016104d6565b60008181526009602052604090205460ff16156108315760405162461bcd60e51b815260206004820152601060248201527f416c72656164792052656465656d65640000000000000000000000000000000060448201526064016104d6565b6000818152600860205260409020546001600160a01b031633146108975760405162461bcd60e51b815260206004820152600c60248201527f496d706572736f6e61746564000000000000000000000000000000000000000060448201526064016104d6565b6000818152600760205260409020546108b03382610ea6565b6000828152600960205260409020805460ff191660011790556108fe6001600160a01b037f00000000000000000000000000000000000000000000000000000000000000001684338461100f565b6040518181526001600160a01b0384169033907fd12200efa34901b99367694174c3b0d32c99585fdf37c7c26892136ddd0836d9906020015b60405180910390a3505050565b61094c610b5e565b61095660006110c0565b565b6060600480546104f2906115b4565b61096f610b5e565b610a166109846005546001600160a01b031690565b6040517f70a082310000000000000000000000000000000000000000000000000000000081523060048201526001600160a01b038416906370a0823190602401602060405180830381865afa1580156109e1573d6000803e3d6000fd5b505050506040513d601f19601f82011682018060405250810190610a05919061160f565b6001600160a01b038416919061111f565b50565b3360008181526001602090815260408083206001600160a01b038716845290915281205490919083811015610ab65760405162461bcd60e51b815260206004820152602560248201527f45524332303a2064656372656173656420616c6c6f77616e63652062656c6f7760448201527f207a65726f00000000000000000000000000000000000000000000000000000060648201526084016104d6565b6107048286868403610bb8565b600033610583818585610e59565b610ad9610b5e565b6001600160a01b038116610b555760405162461bcd60e51b815260206004820152602660248201527f4f776e61626c653a206e6577206f776e657220697320746865207a65726f206160448201527f646472657373000000000000000000000000000000000000000000000000000060648201526084016104d6565b610a16816110c0565b6005546001600160a01b031633146109565760405162461bcd60e51b815260206004820181905260248201527f4f776e61626c653a2063616c6c6572206973206e6f7420746865206f776e657260448201526064016104d6565b6001600160a01b038316610c335760405162461bcd60e51b8152602060048201526024808201527f45524332303a20617070726f76652066726f6d20746865207a65726f2061646460448201527f726573730000000000000000000000000000000000000000000000000000000060648201526084016104d6565b6001600160a01b038216610caf5760405162461bcd60e51b815260206004820152602260248201527f45524332303a20617070726f766520746f20746865207a65726f20616464726560448201527f737300000000000000000000000000000000000000000000000000000000000060648201526084016104d6565b6001600160a01b0383811660008181526001602090815260408083209487168084529482529182902085905590518481527f8c5be1e5ebec7d5bd14f71427d1e84f3dd0314c0f7b2291e5b200ac8c7c3b9259101610937565b6001600160a01b038216610d5e5760405162461bcd60e51b815260206004820152601f60248201527f45524332303a206d696e7420746f20746865207a65726f20616464726573730060448201526064016104d6565b8060026000828254610d7091906115ee565b90915550506001600160a01b038216600081815260208181526040808320805486019055518481527fddf252ad1be2c89b69c2b068fc378daa952ba7f163c4a11628f55a4df523b3ef910160405180910390a35050565b6001600160a01b038381166000908152600160209081526040808320938616835292905220546000198114610e535781811015610e465760405162461bcd60e51b815260206004820152601d60248201527f45524332303a20696e73756666696369656e7420616c6c6f77616e636500000060448201526064016104d6565b610e538484848403610bb8565b50505050565b60405162461bcd60e51b815260206004820152600960248201527f536f756c626f756e64000000000000000000000000000000000000000000000060448201526064016104d6565b505050565b6001600160a01b038216610f225760405162461bcd60e51b815260206004820152602160248201527f45524332303a206275726e2066726f6d20746865207a65726f2061646472657360448201527f730000000000000000000000000000000000000000000000000000000000000060648201526084016104d6565b6001600160a01b03821660009081526020819052604090205481811015610fb15760405162461bcd60e51b815260206004820152602260248201527f45524332303a206275726e20616d6f756e7420657863656564732062616c616e60448201527f636500000000000000000000000000000000000000000000000000000000000060648201526084016104d6565b6001600160a01b0383166000818152602081815260408083208686039055600280548790039055518581529192917fddf252ad1be2c89b69c2b068fc378daa952ba7f163c4a11628f55a4df523b3ef910160405180910390a3505050565b6040516001600160a01b0380851660248301528316604482015260648101829052610e539085907f23b872dd00000000000000000000000000000000000000000000000000000000906084015b60408051601f198184030181529190526020810180517bffffffffffffffffffffffffffffffffffffffffffffffffffffffff167fffffffff0000000000000000000000000000000000000000000000000000000090931692909217909152611168565b600580546001600160a01b0383811673ffffffffffffffffffffffffffffffffffffffff19831681179093556040519116919082907f8be0079c531659141344cd1fd0a4f28419497f9722a3daafe3b4186f6b6457e090600090a35050565b6040516001600160a01b038316602482015260448101829052610ea19084907fa9059cbb000000000000000000000000000000000000000000000000000000009060640161105c565b60006111bd826040518060400160405280602081526020017f5361666545524332303a206c6f772d6c6576656c2063616c6c206661696c6564815250856001600160a01b031661124d9092919063ffffffff16565b805190915015610ea157808060200190518101906111db9190611628565b610ea15760405162461bcd60e51b815260206004820152602a60248201527f5361666545524332303a204552433230206f7065726174696f6e20646964206e60448201527f6f7420737563636565640000000000000000000000000000000000000000000060648201526084016104d6565b606061125c8484600085611264565b949350505050565b6060824710156112dc5760405162461bcd60e51b815260206004820152602660248201527f416464726573733a20696e73756666696369656e742062616c616e636520666f60448201527f722063616c6c000000000000000000000000000000000000000000000000000060648201526084016104d6565b600080866001600160a01b031685876040516112f89190611645565b60006040518083038185875af1925050503d8060008114611335576040519150601f19603f3d011682016040523d82523d6000602084013e61133a565b606091505b509150915061134b87838387611356565b979650505050505050565b606083156113c55782516000036113be576001600160a01b0385163b6113be5760405162461bcd60e51b815260206004820152601d60248201527f416464726573733a2063616c6c20746f206e6f6e2d636f6e747261637400000060448201526064016104d6565b508161125c565b61125c83838151156113da5781518083602001fd5b8060405162461bcd60e51b81526004016104d69190611418565b60005b8381101561140f5781810151838201526020016113f7565b50506000910152565b60208152600082518060208401526114378160408501602087016113f4565b601f01601f19169190910160400192915050565b6001600160a01b0381168114610a1657600080fd5b6000806040838503121561147357600080fd5b823561147e8161144b565b946020939093013593505050565b60006020828403121561149e57600080fd5b81356114a98161144b565b9392505050565b6000806000606084860312156114c557600080fd5b83356114d08161144b565b95602085013595506040909401359392505050565b6000602082840312156114f757600080fd5b5035919050565b60008060006060848603121561151357600080fd5b833561151e8161144b565b9250602084013561152e8161144b565b929592945050506040919091013590565b8015158114610a1657600080fd5b6000806040838503121561156057600080fd5b823561156b8161144b565b9150602083013561157b8161153f565b809150509250929050565b6000806040838503121561159957600080fd5b82356115a48161144b565b9150602083013561157b8161144b565b600181811c908216806115c857607f821691505b6020821081036115e857634e487b7160e01b600052602260045260246000fd5b50919050565b8082018082111561058957634e487b7160e01b600052601160045260246000fd5b60006020828403121561162157600080fd5b5051919050565b60006020828403121561163a57600080fd5b81516114a98161153f565b600082516116578184602087016113f4565b919091019291505056fea26469706673582212205483b4a2becba9965ad274e173972849462a5dc0832bdf914e67882892b6323464736f6c63430008110033",
  "linkReferences": {},
  "deployedLinkReferences": {}
}