{
  "_format": "hh-sol-artifact-1",
  "contractName": "AxelarSampleProposalExecutable",
  "sourceName": "contracts/ethregistrar/AxelarSampleProposalExecutable.sol",
  "abi": [
    {
      "inputs": [],
      "name": "ConditionsNotFulfilled",
      "type": "error"
    },
    {
      "inputs": [
        {
          "internalType": "bytes32",
          "name": "proposalId",
          "type": "bytes32"
        },
        {
          "internalType": "bytes32",
          "name": "conditionHash",
          "type": "bytes32"
        },
        {
          "internalType": "bytes",
          "name": "data",
          "type": "bytes"
        }
      ],
      "name": "execute",
      "outputs": [],
      "stateMutability": "payable",
      "type": "function"
    }
  ],
  "bytecode": "0x608060405234801561001057600080fd5b5061016e806100206000396000f3fe60806040526004361061001e5760003560e01c80635076a83914610023575b600080fd5b6100366100313660046100b8565b610038565b005b73a8816acfb9248f9afe10132bf89f63504e0a77f93314158061007b57507f730b6865379ae0ed5f9667f5255c42811c117016b53cf2f31210ac108c8e38bc8314155b156100b2576040517f2101143c00000000000000000000000000000000000000000000000000000000815260040160405180910390fd5b50505050565b600080600080606085870312156100ce57600080fd5b8435935060208501359250604085013567ffffffffffffffff808211156100f457600080fd5b818701915087601f83011261010857600080fd5b81358181111561011757600080fd5b88602082850101111561012957600080fd5b9598949750506020019450505056fea2646970667358221220f70bd9364d427ddf4c4878bb9cc5236a663af5aa22182b704258d2759ea3952364736f6c63430008110033",
  "linkReferences": {},
  "deployedLinkReferences": {}
}