{
  "_format": "hh-sol-artifact-1",
  "contractName": "OptiDomainsSocialOracle",
  "sourceName": "contracts/attestation/OptiDomainsSocialOracle.sol",
  "abi": [
    {
      "inputs": [
        {
          "internalType": "address",
          "name": "_operator",
          "type": "address"
        },
        {
          "internalType": "contract OptiDomainsAttestation",
          "name": "_attestation",
          "type": "address"
        }
      ],
      "stateMutability": "nonpayable",
      "type": "constructor"
    },
    {
      "inputs": [],
      "name": "InvalidOperatorSignature",
      "type": "error"
    },
    {
      "inputs": [],
      "name": "Unauthorised",
      "type": "error"
    },
    {
      "anonymous": false,
      "inputs": [
        {
          "indexed": true,
          "internalType": "bytes32",
          "name": "node",
          "type": "bytes32"
        },
        {
          "indexed": false,
          "internalType": "uint64",
          "name": "newVersion",
          "type": "uint64"
        }
      ],
      "name": "VersionChanged",
      "type": "event"
    },
    {
      "inputs": [
        {
          "internalType": "bytes32",
          "name": "schema",
          "type": "bytes32"
        },
        {
          "internalType": "bytes",
          "name": "data",
          "type": "bytes"
        },
        {
          "internalType": "bytes",
          "name": "operatorSignature",
          "type": "bytes"
        }
      ],
      "name": "attest",
      "outputs": [
        {
          "internalType": "bytes32",
          "name": "",
          "type": "bytes32"
        }
      ],
      "stateMutability": "nonpayable",
      "type": "function"
    },
    {
      "inputs": [],
      "name": "attestation",
      "outputs": [
        {
          "internalType": "contract OptiDomainsAttestation",
          "name": "",
          "type": "address"
        }
      ],
      "stateMutability": "view",
      "type": "function"
    },
    {
      "inputs": [],
      "name": "operator",
      "outputs": [
        {
          "internalType": "address",
          "name": "",
          "type": "address"
        }
      ],
      "stateMutability": "view",
      "type": "function"
    },
    {
      "inputs": [
        {
          "internalType": "bytes32",
          "name": "schema",
          "type": "bytes32"
        },
        {
          "internalType": "bytes32",
          "name": "uid",
          "type": "bytes32"
        },
        {
          "internalType": "bytes",
          "name": "operatorSignature",
          "type": "bytes"
        }
      ],
      "name": "revoke",
      "outputs": [],
      "stateMutability": "nonpayable",
      "type": "function"
    },
    {
      "inputs": [
        {
          "internalType": "bytes32",
          "name": "node",
          "type": "bytes32"
        },
        {
          "internalType": "contract IOptiDomainsSocialOracle",
          "name": "oracle",
          "type": "address"
        },
        {
          "internalType": "string",
          "name": "provider",
          "type": "string"
        },
        {
          "internalType": "string",
          "name": "identity",
          "type": "string"
        },
        {
          "internalType": "bytes",
          "name": "proof",
          "type": "bytes"
        },
        {
          "internalType": "bytes",
          "name": "operatorSignature",
          "type": "bytes"
        }
      ],
      "name": "setSocialProfile",
      "outputs": [],
      "stateMutability": "nonpayable",
      "type": "function"
    },
    {
      "inputs": [
        {
          "internalType": "bytes32",
          "name": "node",
          "type": "bytes32"
        },
        {
          "internalType": "contract IOptiDomainsSocialOracle",
          "name": "oracle",
          "type": "address"
        },
        {
          "internalType": "uint256",
          "name": "coinType",
          "type": "uint256"
        },
        {
          "internalType": "bytes",
          "name": "identity",
          "type": "bytes"
        },
        {
          "internalType": "bytes",
          "name": "proof",
          "type": "bytes"
        },
        {
          "internalType": "bytes",
          "name": "operatorSignature",
          "type": "bytes"
        }
      ],
      "name": "setWalletWithVerification",
      "outputs": [],
      "stateMutability": "nonpayable",
      "type": "function"
    },
    {
      "inputs": [
        {
          "internalType": "bytes4",
          "name": "",
          "type": "bytes4"
        }
      ],
      "name": "supportsInterface",
      "outputs": [
        {
          "internalType": "bool",
          "name": "",
          "type": "bool"
        }
      ],
      "stateMutability": "view",
      "type": "function"
    }
  ],
  "bytecode": "0x60c060405234801561001057600080fd5b5060405161164138038061164183398101604081905261002f9161005e565b6001600160a01b039182166080521660a052610098565b6001600160a01b038116811461005b57600080fd5b50565b6000806040838503121561007157600080fd5b825161007c81610046565b602084015190925061008d81610046565b809150509250929050565b60805160a0516115636100de6000396000818160ef015281816104a20152818161073501526107e101526000818160b0015281816103f5015261068801526115636000f3fe608060405234801561001057600080fd5b506004361061007d5760003560e01c8063d043e7eb1161005b578063d043e7eb14610111578063d3fe631014610126578063e2440ba714610139578063fd828c6c1461015a57600080fd5b806301ffc9a714610082578063570ca735146100ab5780635ea1d46a146100ea575b600080fd5b610096610090366004610f04565b50600090565b60405190151581526020015b60405180910390f35b6100d27f000000000000000000000000000000000000000000000000000000000000000081565b6040516001600160a01b0390911681526020016100a2565b6100d27f000000000000000000000000000000000000000000000000000000000000000081565b61012461011f366004610fb0565b61016d565b005b610124610134366004611091565b61036d565b61014c6101473660046110e4565b6105d5565b6040519081526020016100a2565b61012461016836600461115e565b6109c8565b604080517f62797465733332206e6f64652c737472696e67206b65792c737472696e67207660208201527f616c7565000000000000000000000000000000000000000000000000000000009181019190915260006044820152600160f81b605882015261036190605901604051602081830303815290604052805190602001208989604051602001610200929190611220565b60408051601f1981840301815282825280516020918201207f62797465733332206e6f64652c737472696e672070726f76696465722c737472918401919091527f696e67206964656e746974792c62797465732070726f6f6600000000000000009183019190915260006058830152600160f81b606c830152906001600160a01b038d169063e2440ba790606d01604051602081830303815290604052805190602001208f8e8e8e8e8e8e6040516020016102c1979695949392919061125b565b60405160208183030381529060405288886040518563ffffffff1660e01b81526004016102f194939291906112fb565b6020604051808303816000875af1158015610310573d6000803e3d6000fd5b505050506040513d601f19601f820116820180604052508101906103349190611332565b8d8c8c8c8c60405160200161034d95949392919061134b565b604051602081830303815290604052610b88565b50505050505050505050565b6040517f19000000000000000000000000000000000000000000000000000000000000006020820152600060218201526bffffffffffffffffffffffff193060601b1660228201524660368201527f9e10ea5887e56efeb96d4464ee7be8e8f408f1a889563a625d293d9d970cc73f6056820152607681018590526096810184905261046a907f00000000000000000000000000000000000000000000000000000000000000009060b6016040516020818303038152906040528051906020012084848080601f016020809104026020016040519081016040528093929190818152602001838380828437600092019190915250610bc192505050565b6104a0576040517f4c2d491200000000000000000000000000000000000000000000000000000000815260040160405180910390fd5b7f00000000000000000000000000000000000000000000000000000000000000006001600160a01b0316638150864d6040518163ffffffff1660e01b8152600401602060405180830381865afa1580156104fe573d6000803e3d6000fd5b505050506040513d601f19601f820116820180604052508101906105229190611378565b60408051808201825286815281518083018352868152600060208281019190915280830191825292517f469262670000000000000000000000000000000000000000000000000000000081529151600483015251805160248301529091015160448201526001600160a01b0391909116906346926267906064015b600060405180830381600087803b1580156105b757600080fd5b505af11580156105cb573d6000803e3d6000fd5b5050505050505050565b6000806105e485870187611395565b9050600086866040516105f8929190611220565b6040519081900381207f19000000000000000000000000000000000000000000000000000000000000006020830152600060218301526bffffffffffffffffffffffff193060601b1660228301524660368301527f377446750a403c1b4014436073cf8d08ceadc5b156ac1c8b7b0ca41a0c9c1c546056830152607682018a90526096820181905291506106fd907f00000000000000000000000000000000000000000000000000000000000000009060b6016040516020818303038152906040528051906020012087878080601f016020809104026020016040519081016040528093929190818152602001838380828437600092019190915250610bc192505050565b610733576040517f4c2d491200000000000000000000000000000000000000000000000000000000815260040160405180910390fd5b7f00000000000000000000000000000000000000000000000000000000000000006001600160a01b0316638150864d6040518163ffffffff1660e01b8152600401602060405180830381865afa158015610791573d6000803e3d6000fd5b505050506040513d601f19601f820116820180604052508101906107b59190611378565b6001600160a01b031663f17325e760405180604001604052808b81526020016040518060c001604052807f00000000000000000000000000000000000000000000000000000000000000006001600160a01b0316637b1039996040518163ffffffff1660e01b8152600401602060405180830381865afa15801561083d573d6000803e3d6000fd5b505050506040513d601f19601f820116820180604052508101906108619190611378565b6001600160a01b0316637dd56411896040518263ffffffff1660e01b815260040161088e91815260200190565b602060405180830381865afa1580156108ab573d6000803e3d6000fd5b505050506040513d601f19601f820116820180604052508101906108cf9190611378565b6001600160a01b03168152602001600067ffffffffffffffff1681526020016001151581526020016000801b81526020018c8c8080601f016020809104026020016040519081016040528093929190818152602001838380828437600092018290525093855250505060209091015290526040517fffffffff0000000000000000000000000000000000000000000000000000000060e084901b16815261097991906004016113ae565b6020604051808303816000875af1158015610998573d6000803e3d6000fd5b505050506040513d601f19601f820116820180604052508101906109bc9190611332565b98975050505050505050565b604080517f62797465733332206e6f64652c75696e7432353620636f696e547970652c627960208201527f7465732061646472657373000000000000000000000000000000000000000000918101919091526000604b820152600160f81b605f820152610b7d9060600160408051601f1981840301815282825280516020918201207f62797465733332206e6f64652c75696e7432353620636f696e547970652c6279918401919091527f746573206964656e746974792c62797465732070726f6f6600000000000000009183019190915260006058830152600160f81b606c8301529089906001600160a01b038c169063e2440ba790606d01604051602081830303815290604052805190602001208e8d8d8d8d8d604051602001610af396959493929190611432565b60405160208183030381529060405288886040518563ffffffff1660e01b8152600401610b2394939291906112fb565b6020604051808303816000875af1158015610b42573d6000803e3d6000fd5b505050506040513d601f19601f82011682018060405250810190610b669190611332565b8c8b8b8b60405160200161034d9493929190611472565b505050505050505050565b610b90610d4b565b6001600160a01b031663f806f52a858585856040518563ffffffff1660e01b815260040161059d949392919061149c565b6000806000610bd08585610dbb565b90925090506000816004811115610be957610be96114c1565b148015610c075750856001600160a01b0316826001600160a01b0316145b15610c1757600192505050610d44565b600080876001600160a01b0316631626ba7e60e01b8888604051602401610c3f9291906114f0565b60408051601f198184030181529181526020820180517bffffffffffffffffffffffffffffffffffffffffffffffffffffffff167fffffffff00000000000000000000000000000000000000000000000000000000909416939093179092529051610caa9190611511565b600060405180830381855afa9150503d8060008114610ce5576040519150601f19603f3d011682016040523d82523d6000602084013e610cea565b606091505b5091509150818015610cfd575080516020145b8015610d3d575080517f1626ba7e0000000000000000000000000000000000000000000000000000000090610d3b9083016020908101908401611332565b145b9450505050505b9392505050565b6000610d55610e00565b6001600160a01b0316635ea1d46a6040518163ffffffff1660e01b8152600401602060405180830381865afa158015610d92573d6000803e3d6000fd5b505050506040513d601f19601f82011682018060405250810190610db69190611378565b905090565b6000808251604103610df15760208301516040840151606085015160001a610de587828585610e40565b94509450505050610df9565b506000905060025b9250929050565b6000306001600160a01b0316637b1039996040518163ffffffff1660e01b8152600401602060405180830381865afa158015610d92573d6000803e3d6000fd5b6000807f7fffffffffffffffffffffffffffffff5d576e7357a4501ddfe92f46681b20a0831115610e775750600090506003610efb565b6040805160008082526020820180845289905260ff881692820192909252606081018690526080810185905260019060a0016020604051602081039080840390855afa158015610ecb573d6000803e3d6000fd5b5050604051601f1901519150506001600160a01b038116610ef457600060019250925050610efb565b9150600090505b94509492505050565b600060208284031215610f1657600080fd5b81357fffffffff0000000000000000000000000000000000000000000000000000000081168114610d4457600080fd5b6001600160a01b0381168114610f5b57600080fd5b50565b8035610f6981610f46565b919050565b60008083601f840112610f8057600080fd5b50813567ffffffffffffffff811115610f9857600080fd5b602083019150836020828501011115610df957600080fd5b60008060008060008060008060008060c08b8d031215610fcf57600080fd5b8a359950610fdf60208c01610f5e565b985060408b013567ffffffffffffffff80821115610ffc57600080fd5b6110088e838f01610f6e565b909a50985060608d013591508082111561102157600080fd5b61102d8e838f01610f6e565b909850965060808d013591508082111561104657600080fd5b6110528e838f01610f6e565b909650945060a08d013591508082111561106b57600080fd5b506110788d828e01610f6e565b915080935050809150509295989b9194979a5092959850565b600080600080606085870312156110a757600080fd5b8435935060208501359250604085013567ffffffffffffffff8111156110cc57600080fd5b6110d887828801610f6e565b95989497509550505050565b6000806000806000606086880312156110fc57600080fd5b85359450602086013567ffffffffffffffff8082111561111b57600080fd5b61112789838a01610f6e565b9096509450604088013591508082111561114057600080fd5b5061114d88828901610f6e565b969995985093965092949392505050565b600080600080600080600080600060c08a8c03121561117c57600080fd5b8935985060208a013561118e81610f46565b975060408a0135965060608a013567ffffffffffffffff808211156111b257600080fd5b6111be8d838e01610f6e565b909850965060808c01359150808211156111d757600080fd5b6111e38d838e01610f6e565b909650945060a08c01359150808211156111fc57600080fd5b506112098c828d01610f6e565b915080935050809150509295985092959850929598565b8183823760009101908152919050565b818352818160208501375060006020828401015260006020601f19601f840116840101905092915050565b87815260806020820152600061127560808301888a611230565b8281036040840152611288818789611230565b9050828103606084015261129d818587611230565b9a9950505050505050505050565b60005b838110156112c65781810151838201526020016112ae565b50506000910152565b600081518084526112e78160208601602086016112ab565b601f01601f19169290920160200192915050565b84815260606020820152600061131460608301866112cf565b8281036040840152611327818587611230565b979650505050505050565b60006020828403121561134457600080fd5b5051919050565b858152606060208201526000611365606083018688611230565b82810360408401526109bc818587611230565b60006020828403121561138a57600080fd5b8151610d4481610f46565b6000602082840312156113a757600080fd5b5035919050565b6020815281516020820152600060208301516040808401526001600160a01b03815116606084015267ffffffffffffffff60208201511660808401526040810151151560a0840152606081015160c0840152608081015160c060e085015261141a6101208501826112cf565b905060a0820151610100850152809250505092915050565b868152856020820152608060408201526000611452608083018688611230565b8281036060840152611465818587611230565b9998505050505050505050565b848152836020820152606060408201526000611492606083018486611230565b9695505050505050565b84815283602082015282604082015260806060820152600061149260808301846112cf565b7f4e487b7100000000000000000000000000000000000000000000000000000000600052602160045260246000fd5b82815260406020820152600061150960408301846112cf565b949350505050565b600082516115238184602087016112ab565b919091019291505056fea2646970667358221220cca784e1acfdf9fd2e5149512cde20c32f385c756b095d2f2be0554d0212e85664736f6c63430008130033",
  "linkReferences": {},
  "deployedLinkReferences": {}
}