{
  "_format": "hh-sol-artifact-1",
  "contractName": "DNSRegistrar",
  "sourceName": "contracts/dnsregistrar/DNSRegistrar.sol",
  "abi": [
    {
      "inputs": [
        {
          "internalType": "address",
          "name": "_previousRegistrar",
          "type": "address"
        },
        {
          "internalType": "address",
          "name": "_resolver",
          "type": "address"
        },
        {
          "internalType": "contract DNSSEC",
          "name": "_dnssec",
          "type": "address"
        },
        {
          "internalType": "contract PublicSuffixList",
          "name": "_suffixes",
          "type": "address"
        },
        {
          "internalType": "contract ENS",
          "name": "_ens",
          "type": "address"
        }
      ],
      "stateMutability": "nonpayable",
      "type": "constructor"
    },
    {
      "inputs": [
        {
          "internalType": "bytes",
          "name": "name",
          "type": "bytes"
        }
      ],
      "name": "InvalidPublicSuffix",
      "type": "error"
    },
    {
      "inputs": [],
      "name": "NoOwnerRecordFound",
      "type": "error"
    },
    {
      "inputs": [
        {
          "internalType": "address",
          "name": "caller",
          "type": "address"
        },
        {
          "internalType": "address",
          "name": "owner",
          "type": "address"
        }
      ],
      "name": "PermissionDenied",
      "type": "error"
    },
    {
      "inputs": [],
      "name": "PreconditionNotMet",
      "type": "error"
    },
    {
      "inputs": [],
      "name": "StaleProof",
      "type": "error"
    },
    {
      "anonymous": false,
      "inputs": [
        {
          "indexed": true,
          "internalType": "bytes32",
          "name": "node",
          "type": "bytes32"
        },
        {
          "indexed": true,
          "internalType": "address",
          "name": "owner",
          "type": "address"
        },
        {
          "indexed": false,
          "internalType": "bytes",
          "name": "dnsname",
          "type": "bytes"
        },
        {
          "indexed": false,
          "internalType": "uint32",
          "name": "inception",
          "type": "uint32"
        }
      ],
      "name": "Claim",
      "type": "event"
    },
    {
      "anonymous": false,
      "inputs": [
        {
          "indexed": false,
          "internalType": "address",
          "name": "suffixes",
          "type": "address"
        }
      ],
      "name": "NewPublicSuffixList",
      "type": "event"
    },
    {
      "inputs": [
        {
          "internalType": "bytes",
          "name": "domain",
          "type": "bytes"
        }
      ],
      "name": "enableNode",
      "outputs": [
        {
          "internalType": "bytes32",
          "name": "node",
          "type": "bytes32"
        }
      ],
      "stateMutability": "nonpayable",
      "type": "function"
    },
    {
      "inputs": [],
      "name": "ens",
      "outputs": [
        {
          "internalType": "contract ENS",
          "name": "",
          "type": "address"
        }
      ],
      "stateMutability": "view",
      "type": "function"
    },
    {
      "inputs": [
        {
          "internalType": "bytes32",
          "name": "",
          "type": "bytes32"
        }
      ],
      "name": "inceptions",
      "outputs": [
        {
          "internalType": "uint32",
          "name": "",
          "type": "uint32"
        }
      ],
      "stateMutability": "view",
      "type": "function"
    },
    {
      "inputs": [],
      "name": "oracle",
      "outputs": [
        {
          "internalType": "contract DNSSEC",
          "name": "",
          "type": "address"
        }
      ],
      "stateMutability": "view",
      "type": "function"
    },
    {
      "inputs": [],
      "name": "previousRegistrar",
      "outputs": [
        {
          "internalType": "address",
          "name": "",
          "type": "address"
        }
      ],
      "stateMutability": "view",
      "type": "function"
    },
    {
      "inputs": [
        {
          "internalType": "bytes",
          "name": "name",
          "type": "bytes"
        },
        {
          "components": [
            {
              "internalType": "bytes",
              "name": "rrset",
              "type": "bytes"
            },
            {
              "internalType": "bytes",
              "name": "sig",
              "type": "bytes"
            }
          ],
          "internalType": "struct DNSSEC.RRSetWithSignature[]",
          "name": "input",
          "type": "tuple[]"
        }
      ],
      "name": "proveAndClaim",
      "outputs": [],
      "stateMutability": "nonpayable",
      "type": "function"
    },
    {
      "inputs": [
        {
          "internalType": "bytes",
          "name": "name",
          "type": "bytes"
        },
        {
          "components": [
            {
              "internalType": "bytes",
              "name": "rrset",
              "type": "bytes"
            },
            {
              "internalType": "bytes",
              "name": "sig",
              "type": "bytes"
            }
          ],
          "internalType": "struct DNSSEC.RRSetWithSignature[]",
          "name": "input",
          "type": "tuple[]"
        },
        {
          "internalType": "address",
          "name": "resolver",
          "type": "address"
        },
        {
          "internalType": "address",
          "name": "addr",
          "type": "address"
        }
      ],
      "name": "proveAndClaimWithResolver",
      "outputs": [],
      "stateMutability": "nonpayable",
      "type": "function"
    },
    {
      "inputs": [],
      "name": "resolver",
      "outputs": [
        {
          "internalType": "address",
          "name": "",
          "type": "address"
        }
      ],
      "stateMutability": "view",
      "type": "function"
    },
    {
      "inputs": [
        {
          "internalType": "contract PublicSuffixList",
          "name": "_suffixes",
          "type": "address"
        }
      ],
      "name": "setPublicSuffixList",
      "outputs": [],
      "stateMutability": "nonpayable",
      "type": "function"
    },
    {
      "inputs": [],
      "name": "suffixes",
      "outputs": [
        {
          "internalType": "contract PublicSuffixList",
          "name": "",
          "type": "address"
        }
      ],
      "stateMutability": "view",
      "type": "function"
    },
    {
      "inputs": [
        {
          "internalType": "bytes4",
          "name": "interfaceID",
          "type": "bytes4"
        }
      ],
      "name": "supportsInterface",
      "outputs": [
        {
          "internalType": "bool",
          "name": "",
          "type": "bool"
        }
      ],
      "stateMutability": "pure",
      "type": "function"
    }
  ],
  "bytecode": "0x6101006040523480156200001257600080fd5b5060405162001e3a38038062001e3a8339810160408190526200003591620000c8565b6001600160a01b0385811660c05284811660e05283811660a052600080546001600160a01b03191691841691821790556040519081527f9176b7f47e4504df5e5516c99d90d82ac7cbd49cc77e7f22ba2ac2f2e3a3eba89060200160405180910390a16001600160a01b0316608052506200014892505050565b6001600160a01b0381168114620000c557600080fd5b50565b600080600080600060a08688031215620000e157600080fd5b8551620000ee81620000af565b60208701519095506200010181620000af565b60408701519094506200011481620000af565b60608701519093506200012781620000af565b60808701519092506200013a81620000af565b809150509295509295909350565b60805160a05160c05160e051611c65620001d56000396000818160fb01528181610d070152610dbe0152600081816102320152610b6301526000818161020b01526108020152600081816101c301528181610397015281816104f8015281816106b301528181610ae301528181610bba01528181610c5d01528181610d2f0152610ded0152611c656000f3fe608060405234801561001057600080fd5b50600436106100c95760003560e01c806329d56630116100815780636f9512211161005b5780636f951221146101e55780637dc0d1d014610206578063ab14ec591461022d57600080fd5b806329d566301461019857806330349ebe146101ab5780633f15457f146101be57600080fd5b806306963218116100b257806306963218146101355780631ecfc4111461014a57806325916d411461015d57600080fd5b806301ffc9a7146100ce57806304f3bcec146100f6575b600080fd5b6100e16100dc3660046115f5565b610254565b60405190151581526020015b60405180910390f35b61011d7f000000000000000000000000000000000000000000000000000000000000000081565b6040516001600160a01b0390911681526020016100ed565b610148610143366004611837565b6102ed565b005b6101486101583660046118c0565b6104df565b61018361016b3660046118dd565b60016020526000908152604090205463ffffffff1681565b60405163ffffffff90911681526020016100ed565b6101486101a63660046118f6565b610656565b60005461011d906001600160a01b031681565b61011d7f000000000000000000000000000000000000000000000000000000000000000081565b6101f86101f336600461195a565b61072a565b6040519081526020016100ed565b61011d7f000000000000000000000000000000000000000000000000000000000000000081565b61011d7f000000000000000000000000000000000000000000000000000000000000000081565b60007fffffffff0000000000000000000000000000000000000000000000000000000082167f01ffc9a70000000000000000000000000000000000000000000000000000000014806102e757507fffffffff0000000000000000000000000000000000000000000000000000000082167f2f43542800000000000000000000000000000000000000000000000000000000145b92915050565b60008060006102fc87876107f8565b91945092509050336001600160a01b0382161461035b576040517fe03f60240000000000000000000000000000000000000000000000000000000081523360048201526001600160a01b03821660248201526044015b60405180910390fd5b6040516305ef2c7f60e41b815260048101849052602481018390526001600160a01b0382811660448301528681166064830152600060848301527f00000000000000000000000000000000000000000000000000000000000000001690635ef2c7f09060a401600060405180830381600087803b1580156103db57600080fd5b505af11580156103ef573d6000803e3d6000fd5b505050506001600160a01b038416156104d6576001600160a01b03851661042957604051633c584f1360e21b815260040160405180910390fd5b604080516020810185905290810183905260009060600160408051808303601f190181529082905280516020909101207fd5fa2b00000000000000000000000000000000000000000000000000000000008252600482018190526001600160a01b03878116602484015290925087169063d5fa2b0090604401600060405180830381600087803b1580156104bc57600080fd5b505af11580156104d0573d6000803e3d6000fd5b50505050505b50505050505050565b6040516302571be360e01b8152600060048201819052907f00000000000000000000000000000000000000000000000000000000000000006001600160a01b0316906302571be390602401602060405180830381865afa158015610547573d6000803e3d6000fd5b505050506040513d601f19601f8201168201806040525081019061056b919061198f565b90506000816001600160a01b0316638da5cb5b6040518163ffffffff1660e01b8152600401602060405180830381865afa1580156105ad573d6000803e3d6000fd5b505050506040513d601f19601f820116820180604052508101906105d1919061198f565b9050336001600160a01b038216146105e857600080fd5b600080547fffffffffffffffffffffffff0000000000000000000000000000000000000000166001600160a01b0385169081179091556040519081527f9176b7f47e4504df5e5516c99d90d82ac7cbd49cc77e7f22ba2ac2f2e3a3eba89060200160405180910390a1505050565b600080600061066585856107f8565b6040517f06ab592300000000000000000000000000000000000000000000000000000000815260048101849052602481018390526001600160a01b03828116604483015293965091945092507f0000000000000000000000000000000000000000000000000000000000000000909116906306ab5923906064016020604051808303816000875af11580156106fe573d6000803e3d6000fd5b505050506040513d601f19601f8201168201806040525081019061072291906119ac565b505050505050565b600080546040517f4f89059e0000000000000000000000000000000000000000000000000000000081526001600160a01b0390911690634f89059e90610774908590600401611a15565b602060405180830381865afa158015610791573d6000803e3d6000fd5b505050506040513d601f19601f820116820180604052508101906107b59190611a28565b6107ed57816040517f396e24b80000000000000000000000000000000000000000000000000000000081526004016103529190611a15565b6102e7826000610a35565b60008060008060007f00000000000000000000000000000000000000000000000000000000000000006001600160a01b031663bdf95fef876040518263ffffffff1660e01b815260040161084c9190611a4a565b600060405180830381865afa158015610869573d6000803e3d6000fd5b505050506040513d6000823e601f3d908101601f191682016040526108919190810190611acf565b909250905060006108a28882610e81565b60ff1690506108b388600183610ea5565b945060006108e66108c5836001611b7c565b6001848c516108d49190611b8f565b6108de9190611b8f565b8b9190610ec9565b90506108f18161072a565b965060008787604051602001610911929190918252602082015260400190565b60408051808303601f190181529181528151602092830120600081815260019093529082205490925063ffffffff16850360030b121561097d576040517f2dd6a7af00000000000000000000000000000000000000000000000000000000815260040160405180910390fd5b6000818152600160205260408120805463ffffffff191663ffffffff87161790556109a88b87610f4b565b9097509050806109e4576040517f6260f6f800000000000000000000000000000000000000000000000000000000815260040160405180910390fd5b866001600160a01b0316827f87db02a0e483e2818060eddcbb3488ce44e35aff49a70d92c2aa6c8046cf01e28d88604051610a20929190611ba2565b60405180910390a35050505050509250925092565b600080610a428484610e81565b60ff16905080600003610a595750600090506102e7565b6000610a7985610a698487611b7c565b610a74906001611b7c565b610a35565b90506000610a93610a8b866001611b7c565b879085610ea5565b604080516020810185905290810182905290915060600160408051601f198184030181529082905280516020909101206302571be360e01b82526004820181905294506000906001600160a01b037f000000000000000000000000000000000000000000000000000000000000000016906302571be390602401602060405180830381865afa158015610b2a573d6000803e3d6000fd5b505050506040513d601f19601f82011682018060405250810190610b4e919061198f565b90506001600160a01b0381161580610b9757507f00000000000000000000000000000000000000000000000000000000000000006001600160a01b0316816001600160a01b0316145b15610e4e5782610d93576040516302571be360e01b8152600060048201819052907f00000000000000000000000000000000000000000000000000000000000000006001600160a01b0316906302571be390602401602060405180830381865afa158015610c09573d6000803e3d6000fd5b505050506040513d601f19601f82011682018060405250810190610c2d919061198f565b6040517fea3a8fb40000000000000000000000000000000000000000000000000000000081526001600160a01b037f000000000000000000000000000000000000000000000000000000000000000081166004830152602482018690523060448301529192509082169063ea3a8fb490606401600060405180830381600087803b158015610cba57600080fd5b505af1158015610cce573d6000803e3d6000fd5b50506040517f1896f70a000000000000000000000000000000000000000000000000000000008152600481018990526001600160a01b037f0000000000000000000000000000000000000000000000000000000000000000811660248301527f0000000000000000000000000000000000000000000000000000000000000000169250631896f70a9150604401600060405180830381600087803b158015610d7557600080fd5b505af1158015610d89573d6000803e3d6000fd5b5050505050610e77565b6040516305ef2c7f60e41b815260048101849052602481018390523060448201526001600160a01b037f000000000000000000000000000000000000000000000000000000000000000081166064830152600060848301527f00000000000000000000000000000000000000000000000000000000000000001690635ef2c7f09060a401600060405180830381600087803b158015610e3157600080fd5b505af1158015610e45573d6000803e3d6000fd5b50505050610e77565b6001600160a01b0381163014610e7757604051633c584f1360e21b815260040160405180910390fd5b5050505092915050565b6000828281518110610e9557610e95611bca565b016020015160f81c905092915050565b8251600090610eb48385611b7c565b1115610ebf57600080fd5b5091016020012090565b8251606090610ed88385611b7c565b1115610ee357600080fd5b60008267ffffffffffffffff811115610efe57610efe611637565b6040519080825280601f01601f191660200182016040528015610f28576020820181803683370190505b50905060208082019086860101610f4082828761103c565b509095945050505050565b600080610f6b604051806040016040528060608152602001600081525090565b610f8385516005610f7c9190611b7c565b8290611092565b5060408051808201909152600581527f045f656e730000000000000000000000000000000000000000000000000000006020820152610fc3908290611109565b50610fce8186611109565b506000610fdb8582611131565b90505b8051516020820151101561102b57600080611002878460a001518560c00151611192565b92509050811561101b5794506001935061103592505050565b505061102681611205565b610fde565b5060008092509250505b9250929050565b602081106110745781518352611053602084611b7c565b9250611060602083611b7c565b915061106d602082611b8f565b905061103c565b905182516020929092036101000a6000190180199091169116179052565b6040805180820190915260608152600060208201526110b2602083611be0565b156110da576110c2602083611be0565b6110cd906020611b8f565b6110d79083611b7c565b91505b6020808401839052604051808552600081529081840101818110156110fe57600080fd5b604052509192915050565b60408051808201909152606081526000602082015261112a838384516112ed565b9392505050565b61117f6040518060e001604052806060815260200160008152602001600061ffff168152602001600061ffff168152602001600063ffffffff16815260200160008152602001600081525090565b82815260c081018290526102e781611205565b6000805b828410156111f65760006111aa8686610e81565b60ff1690506111ba600186611b7c565b94506000806111ca8888856113c3565b9250905081156111e2579350600192506111fd915050565b6111ec8388611b7c565b9650505050611196565b5060009050805b935093915050565b60c0810151602082018190528151511161121c5750565b600061123082600001518360200151611417565b826020015161123f9190611b7c565b825190915061124e9082611479565b61ffff166040830152611262600282611b7c565b82519091506112719082611479565b61ffff166060830152611285600282611b7c565b825190915061129490826114a1565b63ffffffff1660808301526112aa600482611b7c565b82519091506000906112bc9083611479565b61ffff1690506112cd600283611b7c565b60a0840181905291506112e08183611b7c565b60c0909301929092525050565b604080518082019091526060815260006020820152825182111561131057600080fd5b835151600061131f8483611b7c565b90508560200151811115611341576113418661133c836002611c02565b6114cb565b85518051838201602001916000918085111561135b578482525b505050602086015b6020861061139b578051825261137a602083611b7c565b9150611387602082611b7c565b9050611394602087611b8f565b9550611363565b51815160001960208890036101000a0190811690199190911617905250849150509392505050565b6000806113d085856114a1565b63ffffffff1663613d3078146113eb575060009050806111fd565b61140b6113f9856004611b7c565b6114038587611b7c565b8791906114e8565b91509150935093915050565b6000815b8351811061142b5761142b611c19565b60006114378583610e81565b60ff169050611447816001611b7c565b6114519083611b7c565b9150806000036114615750611467565b5061141b565b6114718382611b8f565b949350505050565b8151600090611489836002611b7c565b111561149457600080fd5b50016002015161ffff1690565b81516000906114b1836004611b7c565b11156114bc57600080fd5b50016004015163ffffffff1690565b81516114d78383611092565b506114e28382611109565b50505050565b60008060286114f78585611b8f565b1015611508575060009050806111fd565b600080611516878787611524565b909890975095505050505050565b825160009060019083111561153857600080fd5b611589565b6000603a8210602f831116156115555750602f190190565b6047821060408311161561156b57506036190190565b6067821060608311161561158157506056190190565b5060ff919050565b60208501845b848110156115eb576115a68183015160001a61153d565b6115b86001830184015160001a61153d565b60ff811460ff831417156115d1576000945050506115eb565b60049190911b1760089490941b939093179260020161158f565b5050935093915050565b60006020828403121561160757600080fd5b81357fffffffff000000000000000000000000000000000000000000000000000000008116811461112a57600080fd5b634e487b7160e01b600052604160045260246000fd5b6040805190810167ffffffffffffffff8111828210171561167057611670611637565b60405290565b604051601f8201601f1916810167ffffffffffffffff8111828210171561169f5761169f611637565b604052919050565b600067ffffffffffffffff8211156116c1576116c1611637565b50601f01601f191660200190565b600082601f8301126116e057600080fd5b81356116f36116ee826116a7565b611676565b81815284602083860101111561170857600080fd5b816020850160208301376000918101602001919091529392505050565b600082601f83011261173657600080fd5b8135602067ffffffffffffffff8083111561175357611753611637565b8260051b611762838201611676565b938452858101830193838101908886111561177c57600080fd5b84880192505b858310156118135782358481111561179a5760008081fd5b88016040818b03601f19018113156117b25760008081fd5b6117ba61164d565b87830135878111156117cc5760008081fd5b6117da8d8a838701016116cf565b8252509082013590868211156117f05760008081fd5b6117fe8c89848601016116cf565b81890152845250509184019190840190611782565b98975050505050505050565b6001600160a01b038116811461183457600080fd5b50565b6000806000806080858703121561184d57600080fd5b843567ffffffffffffffff8082111561186557600080fd5b611871888389016116cf565b9550602087013591508082111561188757600080fd5b5061189487828801611725565b93505060408501356118a58161181f565b915060608501356118b58161181f565b939692955090935050565b6000602082840312156118d257600080fd5b813561112a8161181f565b6000602082840312156118ef57600080fd5b5035919050565b6000806040838503121561190957600080fd5b823567ffffffffffffffff8082111561192157600080fd5b61192d868387016116cf565b9350602085013591508082111561194357600080fd5b5061195085828601611725565b9150509250929050565b60006020828403121561196c57600080fd5b813567ffffffffffffffff81111561198357600080fd5b611471848285016116cf565b6000602082840312156119a157600080fd5b815161112a8161181f565b6000602082840312156119be57600080fd5b5051919050565b60005b838110156119e05781810151838201526020016119c8565b50506000910152565b60008151808452611a018160208601602086016119c5565b601f01601f19169290920160200192915050565b60208152600061112a60208301846119e9565b600060208284031215611a3a57600080fd5b8151801515811461112a57600080fd5b60006020808301818452808551808352604092508286019150828160051b87010184880160005b83811015611ac157888303603f1901855281518051878552611a95888601826119e9565b91890151858303868b0152919050611aad81836119e9565b968901969450505090860190600101611a71565b509098975050505050505050565b60008060408385031215611ae257600080fd5b825167ffffffffffffffff811115611af957600080fd5b8301601f81018513611b0a57600080fd5b8051611b186116ee826116a7565b818152866020838501011115611b2d57600080fd5b611b3e8260208301602086016119c5565b809450505050602083015163ffffffff81168114611b5b57600080fd5b809150509250929050565b634e487b7160e01b600052601160045260246000fd5b808201808211156102e7576102e7611b66565b818103818111156102e7576102e7611b66565b604081526000611bb560408301856119e9565b905063ffffffff831660208301529392505050565b634e487b7160e01b600052603260045260246000fd5b600082611bfd57634e487b7160e01b600052601260045260246000fd5b500690565b80820281158282048414176102e7576102e7611b66565b634e487b7160e01b600052600160045260246000fdfea264697066735822122027e063825c4a889c0b9ee2d4476f173768d0779b36810e032783127791978f8364736f6c63430008110033",
  "linkReferences": {},
  "deployedLinkReferences": {}
}