{
  "_format": "hh-sol-artifact-1",
  "contractName": "ETHRegistrarController",
  "sourceName": "contracts/ethregistrar/ETHRegistrarController.sol",
  "abi": [
    {
      "inputs": [
        {
          "internalType": "contract BaseRegistrarImplementation",
          "name": "_base",
          "type": "address"
        },
        {
          "internalType": "contract IPriceOracle",
          "name": "_prices",
          "type": "address"
        },
        {
          "internalType": "uint256",
          "name": "_minCommitmentAge",
          "type": "uint256"
        },
        {
          "internalType": "uint256",
          "name": "_maxCommitmentAge",
          "type": "uint256"
        },
        {
          "internalType": "contract ReverseRegistrar",
          "name": "_reverseRegistrar",
          "type": "address"
        },
        {
          "internalType": "contract INameWrapper",
          "name": "_nameWrapper",
          "type": "address"
        },
        {
          "internalType": "contract ENS",
          "name": "_ens",
          "type": "address"
        }
      ],
      "stateMutability": "nonpayable",
      "type": "constructor"
    },
    {
      "inputs": [
        {
          "internalType": "bytes32",
          "name": "commitment",
          "type": "bytes32"
        }
      ],
      "name": "CommitmentTooNew",
      "type": "error"
    },
    {
      "inputs": [
        {
          "internalType": "bytes32",
          "name": "commitment",
          "type": "bytes32"
        }
      ],
      "name": "CommitmentTooOld",
      "type": "error"
    },
    {
      "inputs": [
        {
          "internalType": "uint256",
          "name": "duration",
          "type": "uint256"
        }
      ],
      "name": "DurationTooShort",
      "type": "error"
    },
    {
      "inputs": [],
      "name": "InsufficientValue",
      "type": "error"
    },
    {
      "inputs": [],
      "name": "MaxCommitmentAgeTooHigh",
      "type": "error"
    },
    {
      "inputs": [],
      "name": "MaxCommitmentAgeTooLow",
      "type": "error"
    },
    {
      "inputs": [
        {
          "internalType": "string",
          "name": "name",
          "type": "string"
        }
      ],
      "name": "NameNotAvailable",
      "type": "error"
    },
    {
      "inputs": [],
      "name": "ResolverRequiredWhenDataSupplied",
      "type": "error"
    },
    {
      "inputs": [
        {
          "internalType": "bytes32",
          "name": "commitment",
          "type": "bytes32"
        }
      ],
      "name": "UnexpiredCommitmentExists",
      "type": "error"
    },
    {
      "anonymous": false,
      "inputs": [
        {
          "indexed": false,
          "internalType": "string",
          "name": "name",
          "type": "string"
        },
        {
          "indexed": true,
          "internalType": "bytes32",
          "name": "label",
          "type": "bytes32"
        },
        {
          "indexed": true,
          "internalType": "address",
          "name": "owner",
          "type": "address"
        },
        {
          "indexed": false,
          "internalType": "uint256",
          "name": "baseCost",
          "type": "uint256"
        },
        {
          "indexed": false,
          "internalType": "uint256",
          "name": "premium",
          "type": "uint256"
        },
        {
          "indexed": false,
          "internalType": "uint256",
          "name": "expires",
          "type": "uint256"
        }
      ],
      "name": "NameRegistered",
      "type": "event"
    },
    {
      "anonymous": false,
      "inputs": [
        {
          "indexed": false,
          "internalType": "string",
          "name": "name",
          "type": "string"
        },
        {
          "indexed": true,
          "internalType": "bytes32",
          "name": "label",
          "type": "bytes32"
        },
        {
          "indexed": false,
          "internalType": "uint256",
          "name": "cost",
          "type": "uint256"
        },
        {
          "indexed": false,
          "internalType": "uint256",
          "name": "expires",
          "type": "uint256"
        }
      ],
      "name": "NameRenewed",
      "type": "event"
    },
    {
      "anonymous": false,
      "inputs": [
        {
          "indexed": true,
          "internalType": "address",
          "name": "previousOwner",
          "type": "address"
        },
        {
          "indexed": true,
          "internalType": "address",
          "name": "newOwner",
          "type": "address"
        }
      ],
      "name": "OwnershipTransferred",
      "type": "event"
    },
    {
      "inputs": [],
      "name": "MIN_REGISTRATION_DURATION",
      "outputs": [
        {
          "internalType": "uint256",
          "name": "",
          "type": "uint256"
        }
      ],
      "stateMutability": "view",
      "type": "function"
    },
    {
      "inputs": [
        {
          "internalType": "string",
          "name": "name",
          "type": "string"
        }
      ],
      "name": "available",
      "outputs": [
        {
          "internalType": "bool",
          "name": "",
          "type": "bool"
        }
      ],
      "stateMutability": "view",
      "type": "function"
    },
    {
      "inputs": [
        {
          "internalType": "bytes32",
          "name": "commitment",
          "type": "bytes32"
        }
      ],
      "name": "commit",
      "outputs": [],
      "stateMutability": "nonpayable",
      "type": "function"
    },
    {
      "inputs": [
        {
          "internalType": "bytes32",
          "name": "",
          "type": "bytes32"
        }
      ],
      "name": "commitments",
      "outputs": [
        {
          "internalType": "uint256",
          "name": "",
          "type": "uint256"
        }
      ],
      "stateMutability": "view",
      "type": "function"
    },
    {
      "inputs": [
        {
          "internalType": "string",
          "name": "name",
          "type": "string"
        },
        {
          "internalType": "address",
          "name": "owner",
          "type": "address"
        },
        {
          "internalType": "uint256",
          "name": "duration",
          "type": "uint256"
        },
        {
          "internalType": "bytes32",
          "name": "secret",
          "type": "bytes32"
        },
        {
          "internalType": "address",
          "name": "resolver",
          "type": "address"
        },
        {
          "internalType": "bytes[]",
          "name": "data",
          "type": "bytes[]"
        },
        {
          "internalType": "bool",
          "name": "reverseRecord",
          "type": "bool"
        },
        {
          "internalType": "uint16",
          "name": "ownerControlledFuses",
          "type": "uint16"
        }
      ],
      "name": "makeCommitment",
      "outputs": [
        {
          "internalType": "bytes32",
          "name": "",
          "type": "bytes32"
        }
      ],
      "stateMutability": "pure",
      "type": "function"
    },
    {
      "inputs": [],
      "name": "maxCommitmentAge",
      "outputs": [
        {
          "internalType": "uint256",
          "name": "",
          "type": "uint256"
        }
      ],
      "stateMutability": "view",
      "type": "function"
    },
    {
      "inputs": [],
      "name": "minCommitmentAge",
      "outputs": [
        {
          "internalType": "uint256",
          "name": "",
          "type": "uint256"
        }
      ],
      "stateMutability": "view",
      "type": "function"
    },
    {
      "inputs": [],
      "name": "nameWrapper",
      "outputs": [
        {
          "internalType": "contract INameWrapper",
          "name": "",
          "type": "address"
        }
      ],
      "stateMutability": "view",
      "type": "function"
    },
    {
      "inputs": [],
      "name": "owner",
      "outputs": [
        {
          "internalType": "address",
          "name": "",
          "type": "address"
        }
      ],
      "stateMutability": "view",
      "type": "function"
    },
    {
      "inputs": [],
      "name": "prices",
      "outputs": [
        {
          "internalType": "contract IPriceOracle",
          "name": "",
          "type": "address"
        }
      ],
      "stateMutability": "view",
      "type": "function"
    },
    {
      "inputs": [
        {
          "internalType": "address",
          "name": "_token",
          "type": "address"
        },
        {
          "internalType": "address",
          "name": "_to",
          "type": "address"
        },
        {
          "internalType": "uint256",
          "name": "_amount",
          "type": "uint256"
        }
      ],
      "name": "recoverFunds",
      "outputs": [],
      "stateMutability": "nonpayable",
      "type": "function"
    },
    {
      "inputs": [
        {
          "internalType": "string",
          "name": "name",
          "type": "string"
        },
        {
          "internalType": "address",
          "name": "owner",
          "type": "address"
        },
        {
          "internalType": "uint256",
          "name": "duration",
          "type": "uint256"
        },
        {
          "internalType": "bytes32",
          "name": "secret",
          "type": "bytes32"
        },
        {
          "internalType": "address",
          "name": "resolver",
          "type": "address"
        },
        {
          "internalType": "bytes[]",
          "name": "data",
          "type": "bytes[]"
        },
        {
          "internalType": "bool",
          "name": "reverseRecord",
          "type": "bool"
        },
        {
          "internalType": "uint16",
          "name": "ownerControlledFuses",
          "type": "uint16"
        }
      ],
      "name": "register",
      "outputs": [],
      "stateMutability": "payable",
      "type": "function"
    },
    {
      "inputs": [
        {
          "internalType": "string",
          "name": "name",
          "type": "string"
        },
        {
          "internalType": "uint256",
          "name": "duration",
          "type": "uint256"
        }
      ],
      "name": "renew",
      "outputs": [],
      "stateMutability": "payable",
      "type": "function"
    },
    {
      "inputs": [],
      "name": "renounceOwnership",
      "outputs": [],
      "stateMutability": "nonpayable",
      "type": "function"
    },
    {
      "inputs": [
        {
          "internalType": "string",
          "name": "name",
          "type": "string"
        },
        {
          "internalType": "uint256",
          "name": "duration",
          "type": "uint256"
        }
      ],
      "name": "rentPrice",
      "outputs": [
        {
          "components": [
            {
              "internalType": "uint256",
              "name": "base",
              "type": "uint256"
            },
            {
              "internalType": "uint256",
              "name": "premium",
              "type": "uint256"
            }
          ],
          "internalType": "struct IPriceOracle.Price",
          "name": "price",
          "type": "tuple"
        }
      ],
      "stateMutability": "view",
      "type": "function"
    },
    {
      "inputs": [],
      "name": "reverseRegistrar",
      "outputs": [
        {
          "internalType": "contract ReverseRegistrar",
          "name": "",
          "type": "address"
        }
      ],
      "stateMutability": "view",
      "type": "function"
    },
    {
      "inputs": [
        {
          "internalType": "bytes4",
          "name": "interfaceID",
          "type": "bytes4"
        }
      ],
      "name": "supportsInterface",
      "outputs": [
        {
          "internalType": "bool",
          "name": "",
          "type": "bool"
        }
      ],
      "stateMutability": "pure",
      "type": "function"
    },
    {
      "inputs": [
        {
          "internalType": "address",
          "name": "newOwner",
          "type": "address"
        }
      ],
      "name": "transferOwnership",
      "outputs": [],
      "stateMutability": "nonpayable",
      "type": "function"
    },
    {
      "inputs": [
        {
          "internalType": "string",
          "name": "name",
          "type": "string"
        }
      ],
      "name": "valid",
      "outputs": [
        {
          "internalType": "bool",
          "name": "",
          "type": "bool"
        }
      ],
      "stateMutability": "pure",
      "type": "function"
    },
    {
      "inputs": [],
      "name": "withdraw",
      "outputs": [],
      "stateMutability": "nonpayable",
      "type": "function"
    }
  ],
  "bytecode": "0x6101406040523480156200001257600080fd5b506040516200218b3803806200218b833981016040819052620000359162000222565b80336200004281620001b9565b6040516302571be360e01b81527f91d1777781884d03a6757a803996e38de2a42967fb37eeaca72729271025a9e260048201526000906001600160a01b038416906302571be390602401602060405180830381865afa158015620000aa573d6000803e3d6000fd5b505050506040513d601f19601f82011682018060405250810190620000d09190620002b6565b604051630f41a04d60e11b81526001600160a01b03848116600483015291925090821690631e83409a906024016020604051808303816000875af11580156200011d573d6000803e3d6000fd5b505050506040513d601f19601f82011682018060405250810190620001439190620002dd565b5050505084841162000168576040516307cb550760e31b815260040160405180910390fd5b428411156200018a57604051630b4319e560e21b815260040160405180910390fd5b506001600160a01b0395861660805293851660a05260c09290925260e0528216610100521661012052620002f7565b600080546001600160a01b038381166001600160a01b0319831681178455604051919092169283917f8be0079c531659141344cd1fd0a4f28419497f9722a3daafe3b4186f6b6457e09190a35050565b6001600160a01b03811681146200021f57600080fd5b50565b600080600080600080600060e0888a0312156200023e57600080fd5b87516200024b8162000209565b60208901519097506200025e8162000209565b8096505060408801519450606088015193506080880151620002808162000209565b60a0890151909350620002938162000209565b60c0890151909250620002a68162000209565b8091505092959891949750929550565b600060208284031215620002c957600080fd5b8151620002d68162000209565b9392505050565b600060208284031215620002f057600080fd5b5051919050565b60805160a05160c05160e0516101005161012051611e0c6200037f600039600081816103750152818161081d0152610c12015260008181610238015261121b0152600081816103dc01528181610df001526110420152600081816103030152610fcb0152600081816104100152610a37015260008181610a6c0152610d5f0152611e0c6000f3fe60806040526004361061015f5760003560e01c80638d839ffe116100c0578063aeb8ce9b11610074578063d3419bf311610059578063d3419bf3146103fe578063f14fcbc814610432578063f2fde38b1461045257600080fd5b8063aeb8ce9b146103aa578063ce1e09c0146103ca57600080fd5b80639791c097116100a55780639791c09714610343578063a8e5fbc014610363578063acf1a8411461039757600080fd5b80638d839ffe146102f15780638da5cb5b1461032557600080fd5b806374694a2b11610117578063839df945116100fc578063839df9451461027257806383e7f6ff1461029f5780638a95b09f146102da57600080fd5b806374694a2b14610213578063808698531461022657600080fd5b80635d3590d5116101485780635d3590d5146101b057806365a69dcf146101d0578063715018a6146101fe57600080fd5b806301ffc9a7146101645780633ccfd60b14610199575b600080fd5b34801561017057600080fd5b5061018461017f36600461145c565b610472565b60405190151581526020015b60405180910390f35b3480156101a557600080fd5b506101ae61050b565b005b3480156101bc57600080fd5b506101ae6101cb3660046114ba565b610585565b3480156101dc57600080fd5b506101f06101eb366004611627565b61061f565b604051908152602001610190565b34801561020a57600080fd5b506101ae6106bd565b6101ae61022136600461172a565b6106d1565b34801561023257600080fd5b5061025a7f000000000000000000000000000000000000000000000000000000000000000081565b6040516001600160a01b039091168152602001610190565b34801561027e57600080fd5b506101f061028d3660046117f4565b60016020526000908152604090205481565b3480156102ab57600080fd5b506102bf6102ba36600461180d565b6109ed565b60408051825181526020928301519281019290925201610190565b3480156102e657600080fd5b506101f06224ea0081565b3480156102fd57600080fd5b506101f07f000000000000000000000000000000000000000000000000000000000000000081565b34801561033157600080fd5b506000546001600160a01b031661025a565b34801561034f57600080fd5b5061018461035e366004611852565b610b40565b34801561036f57600080fd5b5061025a7f000000000000000000000000000000000000000000000000000000000000000081565b6101ae6103a5366004611887565b610b55565b3480156103b657600080fd5b506101846103c5366004611852565b610d16565b3480156103d657600080fd5b506101f07f000000000000000000000000000000000000000000000000000000000000000081565b34801561040a57600080fd5b5061025a7f000000000000000000000000000000000000000000000000000000000000000081565b34801561043e57600080fd5b506101ae61044d3660046117f4565b610dd9565b34801561045e57600080fd5b506101ae61046d3660046118d3565b610e62565b60007fffffffff0000000000000000000000000000000000000000000000000000000082167f01ffc9a700000000000000000000000000000000000000000000000000000000148061050557507fffffffff0000000000000000000000000000000000000000000000000000000082167f612e8c0900000000000000000000000000000000000000000000000000000000145b92915050565b6000806105206000546001600160a01b031690565b90506000806000803031855af19150816105815760405162461bcd60e51b815260206004820152601360248201527f4554485f5452414e534645525f4641494c45440000000000000000000000000060448201526064015b60405180910390fd5b5050565b61058d610ef2565b6040517fa9059cbb0000000000000000000000000000000000000000000000000000000081526001600160a01b0383811660048301526024820183905284169063a9059cbb906044016020604051808303816000875af11580156105f5573d6000803e3d6000fd5b505050506040513d601f19601f8201168201806040525081019061061991906118ee565b50505050565b885160208a0120600090841580159061063f57506001600160a01b038716155b15610676576040517fd3f605c400000000000000000000000000000000000000000000000000000000815260040160405180910390fd5b808a8a8a8a8a8a8a8a604051602001610697999897969594939291906119c6565b604051602081830303815290604052805190602001209150509998505050505050505050565b6106c5610ef2565b6106cf6000610f4c565b565b60006107148b8b8080601f0160208091040260200160405190810160405280939291908181526020018383808284376000920191909152508c92506109ed915050565b6020810151815191925061072791611a3e565b3410156107475760405163044044a560e21b815260040160405180910390fd5b6107ea8b8b8080601f016020809104026020016040519081016040528093929190818152602001838380828437600081840152601f19601f82011690508083019250505050505050896107e58e8e8080601f016020809104026020016040519081016040528093929190818152602001838380828437600081840152601f19601f820116905080830192505050505050508d8d8d8d8d8d8d8d61061f565b610fb4565b6040517fa40149820000000000000000000000000000000000000000000000000000000081526000906001600160a01b037f0000000000000000000000000000000000000000000000000000000000000000169063a40149829061085c908f908f908f908f908e908b90600401611a51565b6020604051808303816000875af115801561087b573d6000803e3d6000fd5b505050506040513d601f19601f8201168201806040525081019061089f9190611a9b565b905084156108ca576108ca878d8d6040516108bb929190611ab4565b60405180910390208888611136565b8315610913576109138c8c8080601f0160208091040260200160405190810160405280939291908181526020018383808284376000920191909152508b92503391506112199050565b896001600160a01b03168c8c60405161092d929190611ab4565b60405180910390207f69e37f151eb98a09618ddaa80c8cfaf1ce5996867c489f45b555b412271ebf278e8e8660000151876020015187604051610974959493929190611ac4565b60405180910390a36020820151825161098d9190611a3e565b3411156109df576020820151825133916108fc916109ab9190611a3e565b6109b59034611af5565b6040518115909202916000818181858888f193505050501580156109dd573d6000803e3d6000fd5b505b505050505050505050505050565b6040805180820190915260008082526020820152825160208401206040517fd6e4fa86000000000000000000000000000000000000000000000000000000008152600481018290527f00000000000000000000000000000000000000000000000000000000000000006001600160a01b03908116916350e9a7159187917f00000000000000000000000000000000000000000000000000000000000000009091169063d6e4fa8690602401602060405180830381865afa158015610ab5573d6000803e3d6000fd5b505050506040513d601f19601f82011682018060405250810190610ad99190611a9b565b866040518463ffffffff1660e01b8152600401610af893929190611b58565b6040805180830381865afa158015610b14573d6000803e3d6000fd5b505050506040513d601f19601f82011682018060405250810190610b389190611b7d565b949350505050565b60006003610b4d836112cd565b101592915050565b60008383604051610b67929190611ab4565b604080519182900382206020601f870181900481028401810190925285835292508291600091610bb4919088908890819084018382808284376000920191909152508892506109ed915050565b8051909150341015610bd95760405163044044a560e21b815260040160405180910390fd5b6040517fc475abff00000000000000000000000000000000000000000000000000000000815260048101839052602481018590526000907f00000000000000000000000000000000000000000000000000000000000000006001600160a01b03169063c475abff906044016020604051808303816000875af1158015610c63573d6000803e3d6000fd5b505050506040513d601f19601f82011682018060405250810190610c879190611a9b565b8251909150341115610ccf57815133906108fc90610ca59034611af5565b6040518115909202916000818181858888f19350505050158015610ccd573d6000803e3d6000fd5b505b837f3da24c024582931cfaf8267d8ed24d13a82a8068d5bd337d30ec45cea4e506ae88883485604051610d059493929190611bcc565b60405180910390a250505050505050565b80516020820120600090610d2983610b40565b8015610dd257506040517f96e494e8000000000000000000000000000000000000000000000000000000008152600481018290527f00000000000000000000000000000000000000000000000000000000000000006001600160a01b0316906396e494e890602401602060405180830381865afa158015610dae573d6000803e3d6000fd5b505050506040513d601f19601f82011682018060405250810190610dd291906118ee565b9392505050565b6000818152600160205260409020544290610e15907f000000000000000000000000000000000000000000000000000000000000000090611a3e565b10610e4f576040517f0a059d7100000000000000000000000000000000000000000000000000000000815260048101829052602401610578565b6000908152600160205260409020429055565b610e6a610ef2565b6001600160a01b038116610ee65760405162461bcd60e51b815260206004820152602660248201527f4f776e61626c653a206e6577206f776e657220697320746865207a65726f206160448201527f64647265737300000000000000000000000000000000000000000000000000006064820152608401610578565b610eef81610f4c565b50565b6000546001600160a01b031633146106cf5760405162461bcd60e51b815260206004820181905260248201527f4f776e61626c653a2063616c6c6572206973206e6f7420746865206f776e65726044820152606401610578565b600080546001600160a01b038381167fffffffffffffffffffffffff0000000000000000000000000000000000000000831681178455604051919092169283917f8be0079c531659141344cd1fd0a4f28419497f9722a3daafe3b4186f6b6457e09190a35050565b6000818152600160205260409020544290610ff0907f000000000000000000000000000000000000000000000000000000000000000090611a3e565b111561102b576040517f5320bcf900000000000000000000000000000000000000000000000000000000815260048101829052602401610578565b6000818152600160205260409020544290611067907f000000000000000000000000000000000000000000000000000000000000000090611a3e565b116110a1576040517fcb7690d700000000000000000000000000000000000000000000000000000000815260048101829052602401610578565b6110aa83610d16565b6110e257826040517f477707e80000000000000000000000000000000000000000000000000000000081526004016105789190611bf3565b6000818152600160205260408120556224ea00821015611131576040517f9a71997b00000000000000000000000000000000000000000000000000000000815260048101839052602401610578565b505050565b604080517f93cdeb708b7545dc668eb9280176169d1c33cfd8ed6f04690a0bcc88a93fc4ae602080830191909152818301869052825180830384018152606083019384905280519101207fe32954eb0000000000000000000000000000000000000000000000000000000090925285906001600160a01b0382169063e32954eb906111c990859088908890606401611c06565b6000604051808303816000875af11580156111e8573d6000803e3d6000fd5b505050506040513d6000823e601f3d908101601f191682016040526112109190810190611c29565b50505050505050565b7f00000000000000000000000000000000000000000000000000000000000000006001600160a01b0316637a806d6b3383858760405160200161125c9190611d28565b6040516020818303038152906040526040518563ffffffff1660e01b815260040161128a9493929190611d69565b6020604051808303816000875af11580156112a9573d6000803e3d6000fd5b505050506040513d601f19601f820116820180604052508101906106199190611a9b565b8051600090819081905b808210156114535760008583815181106112f3576112f3611da7565b01602001516001600160f81b03191690507f800000000000000000000000000000000000000000000000000000000000000081101561133e57611337600184611a3e565b9250611440565b7fe0000000000000000000000000000000000000000000000000000000000000006001600160f81b03198216101561137b57611337600284611a3e565b7ff0000000000000000000000000000000000000000000000000000000000000006001600160f81b0319821610156113b857611337600384611a3e565b7ff8000000000000000000000000000000000000000000000000000000000000006001600160f81b0319821610156113f557611337600484611a3e565b7ffc000000000000000000000000000000000000000000000000000000000000006001600160f81b03198216101561143257611337600584611a3e565b61143d600684611a3e565b92505b508261144b81611dbd565b9350506112d7565b50909392505050565b60006020828403121561146e57600080fd5b81357fffffffff0000000000000000000000000000000000000000000000000000000081168114610dd257600080fd5b80356001600160a01b03811681146114b557600080fd5b919050565b6000806000606084860312156114cf57600080fd5b6114d88461149e565b92506114e66020850161149e565b9150604084013590509250925092565b634e487b7160e01b600052604160045260246000fd5b604051601f8201601f1916810167ffffffffffffffff81118282101715611535576115356114f6565b604052919050565b600067ffffffffffffffff821115611557576115576114f6565b50601f01601f191660200190565b600082601f83011261157657600080fd5b81356115896115848261153d565b61150c565b81815284602083860101111561159e57600080fd5b816020850160208301376000918101602001919091529392505050565b60008083601f8401126115cd57600080fd5b50813567ffffffffffffffff8111156115e557600080fd5b6020830191508360208260051b850101111561160057600080fd5b9250929050565b8015158114610eef57600080fd5b803561ffff811681146114b557600080fd5b60008060008060008060008060006101008a8c03121561164657600080fd5b893567ffffffffffffffff8082111561165e57600080fd5b61166a8d838e01611565565b9a5061167860208d0161149e565b995060408c0135985060608c0135975061169460808d0161149e565b965060a08c01359150808211156116aa57600080fd5b506116b78c828d016115bb565b90955093505060c08a01356116cb81611607565b91506116d960e08b01611615565b90509295985092959850929598565b60008083601f8401126116fa57600080fd5b50813567ffffffffffffffff81111561171257600080fd5b60208301915083602082850101111561160057600080fd5b6000806000806000806000806000806101008b8d03121561174a57600080fd5b8a3567ffffffffffffffff8082111561176257600080fd5b61176e8e838f016116e8565b909c509a508a915061178260208e0161149e565b995060408d0135985060608d0135975061179e60808e0161149e565b965060a08d01359150808211156117b457600080fd5b506117c18d828e016115bb565b90955093505060c08b01356117d581611607565b91506117e360e08c01611615565b90509295989b9194979a5092959850565b60006020828403121561180657600080fd5b5035919050565b6000806040838503121561182057600080fd5b823567ffffffffffffffff81111561183757600080fd5b61184385828601611565565b95602094909401359450505050565b60006020828403121561186457600080fd5b813567ffffffffffffffff81111561187b57600080fd5b610b3884828501611565565b60008060006040848603121561189c57600080fd5b833567ffffffffffffffff8111156118b357600080fd5b6118bf868287016116e8565b909790965060209590950135949350505050565b6000602082840312156118e557600080fd5b610dd28261149e565b60006020828403121561190057600080fd5b8151610dd281611607565b81835281816020850137506000828201602090810191909152601f909101601f19169091010190565b81835260006020808501808196508560051b810191508460005b878110156119b95782840389528135601e1988360301811261196f57600080fd5b8701858101903567ffffffffffffffff81111561198b57600080fd5b80360382131561199a57600080fd5b6119a586828461190b565b9a87019a955050509084019060010161194e565b5091979650505050505050565b60006101008b83526001600160a01b03808c1660208501528a60408501528960608501528089166080850152508060a0840152611a068184018789611934565b94151560c0840152505061ffff9190911660e090910152979650505050505050565b634e487b7160e01b600052601160045260246000fd5b8082018082111561050557610505611a28565b60a081526000611a6560a08301888a61190b565b90506001600160a01b03808716602084015285604084015280851660608401525061ffff83166080830152979650505050505050565b600060208284031215611aad57600080fd5b5051919050565b8183823760009101908152919050565b608081526000611ad860808301878961190b565b602083019590955250604081019290925260609091015292915050565b8181038181111561050557610505611a28565b60005b83811015611b23578181015183820152602001611b0b565b50506000910152565b60008151808452611b44816020860160208601611b08565b601f01601f19169290920160200192915050565b606081526000611b6b6060830186611b2c565b60208301949094525060400152919050565b600060408284031215611b8f57600080fd5b6040516040810181811067ffffffffffffffff82111715611bb257611bb26114f6565b604052825181526020928301519281019290925250919050565b606081526000611be060608301868861190b565b6020830194909452506040015292915050565b602081526000610dd26020830184611b2c565b838152604060208201526000611c20604083018486611934565b95945050505050565b60006020808385031215611c3c57600080fd5b825167ffffffffffffffff80821115611c5457600080fd5b818501915085601f830112611c6857600080fd5b815181811115611c7a57611c7a6114f6565b8060051b611c8985820161150c565b9182528381018501918581019089841115611ca357600080fd5b86860192505b83831015611d1b57825185811115611cc15760008081fd5b8601603f81018b13611cd35760008081fd5b878101516040611ce56115848361153d565b8281528d82848601011115611cfa5760008081fd5b611d09838c8301848701611b08565b85525050509186019190860190611ca9565b9998505050505050505050565b60008251611d3a818460208701611b08565b7f2e65746800000000000000000000000000000000000000000000000000000000920191825250600401919050565b60006001600160a01b038087168352808616602084015280851660408401525060806060830152611d9d6080830184611b2c565b9695505050505050565b634e487b7160e01b600052603260045260246000fd5b600060018201611dcf57611dcf611a28565b506001019056fea2646970667358221220740748ca9780235336c1e69100e70a272fadb8db0cf3632ef35de5d85a553ec264736f6c63430008110033",
  "linkReferences": {},
  "deployedLinkReferences": {}
}