{
  "_format": "hh-sol-artifact-1",
  "contractName": "SupporterPlan",
  "sourceName": "contracts/ethregistrar/SupporterPlan.sol",
  "abi": [
    {
      "inputs": [
        {
          "internalType": "uint256",
          "name": "_basePrice",
          "type": "uint256"
        },
        {
          "internalType": "bytes32",
          "name": "_ethNode",
          "type": "bytes32"
        }
      ],
      "stateMutability": "nonpayable",
      "type": "constructor"
    },
    {
      "anonymous": false,
      "inputs": [
        {
          "indexed": true,
          "internalType": "bytes32",
          "name": "namehash",
          "type": "bytes32"
        },
        {
          "indexed": false,
          "internalType": "string",
          "name": "name",
          "type": "string"
        },
        {
          "indexed": false,
          "internalType": "uint256",
          "name": "price",
          "type": "uint256"
        }
      ],
      "name": "NewSupporter",
      "type": "event"
    },
    {
      "anonymous": false,
      "inputs": [
        {
          "indexed": true,
          "internalType": "address",
          "name": "previousOwner",
          "type": "address"
        },
        {
          "indexed": true,
          "internalType": "address",
          "name": "newOwner",
          "type": "address"
        }
      ],
      "name": "OwnershipTransferred",
      "type": "event"
    },
    {
      "anonymous": false,
      "inputs": [
        {
          "indexed": true,
          "internalType": "address",
          "name": "toggler",
          "type": "address"
        },
        {
          "indexed": false,
          "internalType": "bool",
          "name": "enabled",
          "type": "bool"
        }
      ],
      "name": "ToggleEnabled",
      "type": "event"
    },
    {
      "inputs": [],
      "name": "basePrice",
      "outputs": [
        {
          "internalType": "uint256",
          "name": "",
          "type": "uint256"
        }
      ],
      "stateMutability": "view",
      "type": "function"
    },
    {
      "inputs": [
        {
          "internalType": "string",
          "name": "name",
          "type": "string"
        }
      ],
      "name": "buy",
      "outputs": [],
      "stateMutability": "payable",
      "type": "function"
    },
    {
      "inputs": [],
      "name": "enabled",
      "outputs": [
        {
          "internalType": "bool",
          "name": "",
          "type": "bool"
        }
      ],
      "stateMutability": "view",
      "type": "function"
    },
    {
      "inputs": [],
      "name": "ethNode",
      "outputs": [
        {
          "internalType": "bytes32",
          "name": "",
          "type": "bytes32"
        }
      ],
      "stateMutability": "view",
      "type": "function"
    },
    {
      "inputs": [],
      "name": "owner",
      "outputs": [
        {
          "internalType": "address",
          "name": "",
          "type": "address"
        }
      ],
      "stateMutability": "view",
      "type": "function"
    },
    {
      "inputs": [],
      "name": "renounceOwnership",
      "outputs": [],
      "stateMutability": "nonpayable",
      "type": "function"
    },
    {
      "inputs": [
        {
          "internalType": "string",
          "name": "",
          "type": "string"
        }
      ],
      "name": "supporter",
      "outputs": [
        {
          "internalType": "bool",
          "name": "",
          "type": "bool"
        }
      ],
      "stateMutability": "view",
      "type": "function"
    },
    {
      "inputs": [
        {
          "internalType": "bytes32",
          "name": "",
          "type": "bytes32"
        }
      ],
      "name": "supporterLabelhash",
      "outputs": [
        {
          "internalType": "bool",
          "name": "",
          "type": "bool"
        }
      ],
      "stateMutability": "view",
      "type": "function"
    },
    {
      "inputs": [
        {
          "internalType": "bytes32",
          "name": "",
          "type": "bytes32"
        }
      ],
      "name": "supporterNamehash",
      "outputs": [
        {
          "internalType": "bool",
          "name": "",
          "type": "bool"
        }
      ],
      "stateMutability": "view",
      "type": "function"
    },
    {
      "inputs": [
        {
          "internalType": "bool",
          "name": "_enabled",
          "type": "bool"
        }
      ],
      "name": "toggleEnabled",
      "outputs": [],
      "stateMutability": "nonpayable",
      "type": "function"
    },
    {
      "inputs": [],
      "name": "totalSupporter",
      "outputs": [
        {
          "internalType": "uint256",
          "name": "",
          "type": "uint256"
        }
      ],
      "stateMutability": "view",
      "type": "function"
    },
    {
      "inputs": [
        {
          "internalType": "address",
          "name": "newOwner",
          "type": "address"
        }
      ],
      "name": "transferOwnership",
      "outputs": [],
      "stateMutability": "nonpayable",
      "type": "function"
    },
    {
      "inputs": [],
      "name": "withdraw",
      "outputs": [],
      "stateMutability": "nonpayable",
      "type": "function"
    }
  ],
  "bytecode": "0x60c0604052600060019081556005805460ff1916909117905534801561002457600080fd5b50604051610abe380380610abe833981016040819052610043916100aa565b61004c3361005a565b60a0919091526080526100ce565b600080546001600160a01b038381166001600160a01b0319831681178455604051919092169283917f8be0079c531659141344cd1fd0a4f28419497f9722a3daafe3b4186f6b6457e09190a35050565b600080604083850312156100bd57600080fd5b505080516020909101519092909150565b60805160a0516109bd6101016000396000818161026401526103e60152600081816101fb015261046001526109bd6000f3fe6080604052600436106100d25760003560e01c8063715018a61161007f5780638da5cb5b116100595780638da5cb5b1461021d578063c7876ea414610252578063d3cbaf6d14610286578063f2fde38b146102c157600080fd5b8063715018a6146101b457806375441fb2146101c9578063873959e7146101e957600080fd5b80633ccfd60b116100b05780633ccfd60b1461015a57806346ca2a1d14610171578063492cc769146101a157600080fd5b8063172ff74a146100d7578063238dafe0146101005780632cef6e851461012a575b600080fd5b3480156100e357600080fd5b506100ed60015481565b6040519081526020015b60405180910390f35b34801561010c57600080fd5b5060055461011a9060ff1681565b60405190151581526020016100f7565b34801561013657600080fd5b5061011a61014536600461074c565b60046020526000908152604090205460ff1681565b34801561016657600080fd5b5061016f6102e1565b005b34801561017d57600080fd5b5061011a61018c36600461074c565b60036020526000908152604090205460ff1681565b61016f6101af36600461077b565b610368565b3480156101c057600080fd5b5061016f61056e565b3480156101d557600080fd5b5061016f6101e436600461082c565b610582565b3480156101f557600080fd5b506100ed7f000000000000000000000000000000000000000000000000000000000000000081565b34801561022957600080fd5b5060005460405173ffffffffffffffffffffffffffffffffffffffff90911681526020016100f7565b34801561025e57600080fd5b506100ed7f000000000000000000000000000000000000000000000000000000000000000081565b34801561029257600080fd5b5061011a6102a136600461077b565b805160208183018101805160028252928201919093012091525460ff1681565b3480156102cd57600080fd5b5061016f6102dc366004610855565b6105d3565b60008061030360005473ffffffffffffffffffffffffffffffffffffffff1690565b90506000806000803031855af19150816103645760405162461bcd60e51b815260206004820152601360248201527f4554485f5452414e534645525f4641494c45440000000000000000000000000060448201526064015b60405180910390fd5b5050565b60055460ff166103ba5760405162461bcd60e51b815260206004820152601560248201527f4e657720737570706f727465727320636c6f7365640000000000000000000000604482015260640161035b565b6000620f4240600154670de0b6b3a76400006103d691906108a1565b6103e091906108be565b61040a907f00000000000000000000000000000000000000000000000000000000000000006108e0565b90508034101561045c5760405162461bcd60e51b815260206004820152600e60248201527f4e6f7420656e6f75676820455448000000000000000000000000000000000000604482015260640161035b565b60007f000000000000000000000000000000000000000000000000000000000000000083805190602001206040516020016104a1929190918252602082015260400190565b60405160208183030381529060405280519060200120905060016002846040516104cb9190610917565b90815260408051918290036020908101909220805493151560ff19948516179055600084815260038352818120805485166001908117909155875188850120825260049093529081208054909316821790925580549161052a83610933565b9190505550807fd41ba69811a19ce76fef4520e95b994913e090907215bef315be418e6f54e370848460405161056192919061094c565b60405180910390a2505050565b610576610670565b61058060006106d7565b565b61058a610670565b6005805460ff191682151590811790915560405190815233907f0a938cf420a97f761a9aac16e36fb7308fdb6c91da204dfc44f814e039481c5a9060200160405180910390a250565b6105db610670565b73ffffffffffffffffffffffffffffffffffffffff81166106645760405162461bcd60e51b815260206004820152602660248201527f4f776e61626c653a206e6577206f776e657220697320746865207a65726f206160448201527f6464726573730000000000000000000000000000000000000000000000000000606482015260840161035b565b61066d816106d7565b50565b60005473ffffffffffffffffffffffffffffffffffffffff1633146105805760405162461bcd60e51b815260206004820181905260248201527f4f776e61626c653a2063616c6c6572206973206e6f7420746865206f776e6572604482015260640161035b565b6000805473ffffffffffffffffffffffffffffffffffffffff8381167fffffffffffffffffffffffff0000000000000000000000000000000000000000831681178455604051919092169283917f8be0079c531659141344cd1fd0a4f28419497f9722a3daafe3b4186f6b6457e09190a35050565b60006020828403121561075e57600080fd5b5035919050565b634e487b7160e01b600052604160045260246000fd5b60006020828403121561078d57600080fd5b813567ffffffffffffffff808211156107a557600080fd5b818401915084601f8301126107b957600080fd5b8135818111156107cb576107cb610765565b604051601f8201601f19908116603f011681019083821181831017156107f3576107f3610765565b8160405282815287602084870101111561080c57600080fd5b826020860160208301376000928101602001929092525095945050505050565b60006020828403121561083e57600080fd5b8135801515811461084e57600080fd5b9392505050565b60006020828403121561086757600080fd5b813573ffffffffffffffffffffffffffffffffffffffff8116811461084e57600080fd5b634e487b7160e01b600052601160045260246000fd5b80820281158282048414176108b8576108b861088b565b92915050565b6000826108db57634e487b7160e01b600052601260045260246000fd5b500490565b808201808211156108b8576108b861088b565b60005b8381101561090e5781810151838201526020016108f6565b50506000910152565b600082516109298184602087016108f3565b9190910192915050565b6000600182016109455761094561088b565b5060010190565b604081526000835180604084015261096b8160608501602088016108f3565b602083019390935250601f91909101601f19160160600191905056fea2646970667358221220434079ef1cd4eda459f6eebd3c86f640aaccb34e33fbcc12d1d695398ac4e46a64736f6c63430008110033",
  "linkReferences": {},
  "deployedLinkReferences": {}
}