{
  "_format": "hh-sol-artifact-1",
  "contractName": "OptiDomainsAttestationV0",
  "sourceName": "contracts/attestation/OptiDomainsAttestationV0.sol",
  "abi": [
    {
      "inputs": [
        {
          "internalType": "contract INameWrapperRegistry",
          "name": "_registry",
          "type": "address"
        },
        {
          "internalType": "contract AttestationStation",
          "name": "_attestationStation",
          "type": "address"
        }
      ],
      "stateMutability": "nonpayable",
      "type": "constructor"
    },
    {
      "inputs": [
        {
          "internalType": "address",
          "name": "caller",
          "type": "address"
        },
        {
          "internalType": "address",
          "name": "resolver",
          "type": "address"
        }
      ],
      "name": "NotResolver",
      "type": "error"
    },
    {
      "anonymous": false,
      "inputs": [
        {
          "indexed": true,
          "internalType": "address",
          "name": "creator",
          "type": "address"
        },
        {
          "indexed": true,
          "internalType": "address",
          "name": "about",
          "type": "address"
        },
        {
          "indexed": true,
          "internalType": "bytes32",
          "name": "key",
          "type": "bytes32"
        },
        {
          "indexed": false,
          "internalType": "bytes",
          "name": "val",
          "type": "bytes"
        }
      ],
      "name": "AttestationCreated",
      "type": "event"
    },
    {
      "inputs": [
        {
          "internalType": "address",
          "name": "creator",
          "type": "address"
        },
        {
          "internalType": "address",
          "name": "about",
          "type": "address"
        },
        {
          "internalType": "bytes32",
          "name": "key",
          "type": "bytes32"
        }
      ],
      "name": "_readAttestation",
      "outputs": [
        {
          "internalType": "bytes",
          "name": "",
          "type": "bytes"
        }
      ],
      "stateMutability": "view",
      "type": "function"
    },
    {
      "inputs": [],
      "name": "activate",
      "outputs": [],
      "stateMutability": "nonpayable",
      "type": "function"
    },
    {
      "inputs": [
        {
          "internalType": "bytes32",
          "name": "node",
          "type": "bytes32"
        },
        {
          "internalType": "bytes32",
          "name": "key",
          "type": "bytes32"
        },
        {
          "internalType": "bytes",
          "name": "value",
          "type": "bytes"
        }
      ],
      "name": "attest",
      "outputs": [],
      "stateMutability": "nonpayable",
      "type": "function"
    },
    {
      "inputs": [],
      "name": "attestationActivated",
      "outputs": [
        {
          "internalType": "bool",
          "name": "",
          "type": "bool"
        }
      ],
      "stateMutability": "view",
      "type": "function"
    },
    {
      "inputs": [],
      "name": "attestationStation",
      "outputs": [
        {
          "internalType": "contract AttestationStation",
          "name": "",
          "type": "address"
        }
      ],
      "stateMutability": "view",
      "type": "function"
    },
    {
      "inputs": [
        {
          "internalType": "address",
          "name": "",
          "type": "address"
        },
        {
          "internalType": "address",
          "name": "",
          "type": "address"
        },
        {
          "internalType": "bytes32",
          "name": "",
          "type": "bytes32"
        }
      ],
      "name": "attestations",
      "outputs": [
        {
          "internalType": "bytes",
          "name": "",
          "type": "bytes"
        }
      ],
      "stateMutability": "view",
      "type": "function"
    },
    {
      "inputs": [
        {
          "internalType": "bytes32",
          "name": "node",
          "type": "bytes32"
        },
        {
          "internalType": "bytes32",
          "name": "key",
          "type": "bytes32"
        },
        {
          "internalType": "uint256",
          "name": "flags",
          "type": "uint256"
        },
        {
          "internalType": "bytes",
          "name": "value",
          "type": "bytes"
        }
      ],
      "name": "buildAttestationData",
      "outputs": [
        {
          "components": [
            {
              "internalType": "address",
              "name": "about",
              "type": "address"
            },
            {
              "internalType": "bytes32",
              "name": "key",
              "type": "bytes32"
            },
            {
              "internalType": "bytes",
              "name": "val",
              "type": "bytes"
            }
          ],
          "internalType": "struct AttestationStation.AttestationData[]",
          "name": "att",
          "type": "tuple[]"
        }
      ],
      "stateMutability": "view",
      "type": "function"
    },
    {
      "inputs": [
        {
          "internalType": "bytes32",
          "name": "node",
          "type": "bytes32"
        }
      ],
      "name": "increaseVersion",
      "outputs": [],
      "stateMutability": "nonpayable",
      "type": "function"
    },
    {
      "inputs": [
        {
          "internalType": "bytes32",
          "name": "node",
          "type": "bytes32"
        },
        {
          "internalType": "bytes32",
          "name": "key",
          "type": "bytes32"
        }
      ],
      "name": "readAttestation",
      "outputs": [
        {
          "internalType": "bytes",
          "name": "",
          "type": "bytes"
        }
      ],
      "stateMutability": "view",
      "type": "function"
    },
    {
      "inputs": [
        {
          "internalType": "address",
          "name": "creator",
          "type": "address"
        },
        {
          "internalType": "bytes32",
          "name": "node",
          "type": "bytes32"
        },
        {
          "internalType": "bytes32",
          "name": "key",
          "type": "bytes32"
        }
      ],
      "name": "readAttestation",
      "outputs": [
        {
          "internalType": "bytes",
          "name": "",
          "type": "bytes"
        }
      ],
      "stateMutability": "view",
      "type": "function"
    },
    {
      "inputs": [
        {
          "internalType": "address",
          "name": "creator",
          "type": "address"
        },
        {
          "internalType": "bytes32",
          "name": "node",
          "type": "bytes32"
        },
        {
          "internalType": "bytes32",
          "name": "key",
          "type": "bytes32"
        }
      ],
      "name": "readAttestationNV",
      "outputs": [
        {
          "internalType": "bytes",
          "name": "",
          "type": "bytes"
        }
      ],
      "stateMutability": "view",
      "type": "function"
    },
    {
      "inputs": [
        {
          "internalType": "bytes32",
          "name": "node",
          "type": "bytes32"
        }
      ],
      "name": "readVersion",
      "outputs": [
        {
          "internalType": "uint64",
          "name": "",
          "type": "uint64"
        }
      ],
      "stateMutability": "view",
      "type": "function"
    },
    {
      "inputs": [],
      "name": "registry",
      "outputs": [
        {
          "internalType": "contract INameWrapperRegistry",
          "name": "",
          "type": "address"
        }
      ],
      "stateMutability": "view",
      "type": "function"
    }
  ],
  "bytecode": "0x60c06040523480156200001157600080fd5b5060405162001a2f38038062001a2f83398101604081905262000034916200007f565b6001600160a01b0391821660805290811660a0526000805460ff1916913b63ffffffff161515919091179055620000be565b6001600160a01b03811681146200007c57600080fd5b50565b600080604083850312156200009357600080fd5b8251620000a08162000066565b6020840151909250620000b38162000066565b809150509250929050565b60805160a0516118fe620001316000396000818161013d015281816101a5015281816102fd01526111c20152600081816101f7015281816104e201528181610643015281816107e60152818161094201528181610b7101528181610c7f01528181610fe901526110a501526118fe6000f3fe608060405234801561001057600080fd5b50600436106100df5760003560e01c80636f7f26f01161008c5780639cc08aa6116100665780639cc08aa61461022c578063eb50798c1461024c578063ec55b67514610269578063eff94ac71461027c57600080fd5b80636f7f26f0146101df5780637b103999146101f25780637fadb0971461021957600080fd5b80632d4d6ccf116100bd5780632d4d6ccf1461017a5780633e57d2691461018d57806365a0aee2146101a057600080fd5b80630361d39d146100e45780630f15f4c01461010d57806329b42cb514610167575b600080fd5b6100f76100f2366004611312565b6102a8565b60405161010491906113a3565b60405180910390f35b610165600080547fffffffffffffffffffffffffffffffffffffffffffffffffffffffffffffff001663ffffffff7f00000000000000000000000000000000000000000000000000000000000000003b161515179055565b005b6100f7610175366004611312565b610433565b6101656101883660046113b6565b6104de565b61016561019b366004611494565b6107e2565b6101c77f000000000000000000000000000000000000000000000000000000000000000081565b6040516001600160a01b039091168152602001610104565b6100f76101ed3660046114e4565b610b37565b6101c77f000000000000000000000000000000000000000000000000000000000000000081565b6100f7610227366004611506565b610b4d565b61023f61023a36600461153b565b610c5b565b6040516101049190611595565b6000546102599060ff1681565b6040519015158152602001610104565b6100f7610277366004611506565b610fc5565b61028f61028a3660046113b6565b611080565b60405167ffffffffffffffff9091168152602001610104565b60005460609060ff1615610373576040517f29b42cb50000000000000000000000000000000000000000000000000000000081526001600160a01b0385811660048301528481166024830152604482018490527f000000000000000000000000000000000000000000000000000000000000000016906329b42cb590606401600060405180830381865afa158015610344573d6000803e3d6000fd5b505050506040513d6000823e601f3d908101601f1916820160405261036c919081019061163b565b905061042c565b6001600160a01b038085166000908152600160209081526040808320938716835292815282822085835290522080546103ab906116a9565b80601f01602080910402602001604051908101604052809291908181526020018280546103d7906116a9565b80156104245780601f106103f957610100808354040283529160200191610424565b820191906000526020600020905b81548152906001019060200180831161040757829003601f168201915b505050505090505b9392505050565b60016020908152600093845260408085208252928452828420905282529020805461045d906116a9565b80601f0160208091040260200160405190810160405280929190818152602001828054610489906116a9565b80156104d65780601f106104ab576101008083540402835291602001916104d6565b820191906000526020600020905b8154815290600101906020018083116104b957829003601f168201915b505050505081565b60007f00000000000000000000000000000000000000000000000000000000000000006001600160a01b0316633f15457f6040518163ffffffff1660e01b8152600401602060405180830381865afa15801561053e573d6000803e3d6000fd5b505050506040513d601f19601f8201168201806040525081019061056291906116e3565b6001600160a01b0316630178b8bf836040518263ffffffff1660e01b815260040161058f91815260200190565b602060405180830381865afa1580156105ac573d6000803e3d6000fd5b505050506040513d601f19601f820116820180604052508101906105d091906116e3565b9050336001600160a01b0382161461062a576040517f5616a3900000000000000000000000000000000000000000000000000000000081523360048201526001600160a01b03821660248201526044015b60405180910390fd5b604051637dd5641160e01b8152600481018390526000907f00000000000000000000000000000000000000000000000000000000000000006001600160a01b031690637dd5641190602401602060405180830381865afa158015610692573d6000803e3d6000fd5b505050506040513d601f19601f820116820180604052508101906106b691906116e3565b905060006106c48285611112565b60408051600180825281830190925291925060009190816020015b604080516060808201835260008083526020830152918101919091528152602001906001900390816106df5790505090506040518060600160405280846001600160a01b03168152602001867f9a80e7657ea10abdcccf23b8c937883af263d07b25ceeca613c24610c6fb3540604051602001610766929190918252602082015260400190565b60408051601f19818403018152919052805160209182012082520161078c846001611716565b6040805167ffffffffffffffff909216602083015201604051602081830303815290604052815250816000815181106107c7576107c761173e565b60200260200101819052506107db81611187565b5050505050565b60007f00000000000000000000000000000000000000000000000000000000000000006001600160a01b0316633f15457f6040518163ffffffff1660e01b8152600401602060405180830381865afa158015610842573d6000803e3d6000fd5b505050506040513d601f19601f8201168201806040525081019061086691906116e3565b6001600160a01b0316630178b8bf856040518263ffffffff1660e01b815260040161089391815260200190565b602060405180830381865afa1580156108b0573d6000803e3d6000fd5b505050506040513d601f19601f820116820180604052508101906108d491906116e3565b9050336001600160a01b03821614610929576040517f5616a3900000000000000000000000000000000000000000000000000000000081523360048201526001600160a01b0382166024820152604401610621565b604051637dd5641160e01b8152600481018590526000907f00000000000000000000000000000000000000000000000000000000000000006001600160a01b031690637dd5641190602401602060405180830381865afa158015610991573d6000803e3d6000fd5b505050506040513d601f19601f820116820180604052508101906109b591906116e3565b905060006109c38287611112565b6040805160028082526060820190925291925060009190816020015b604080516060808201835260008083526020830152918101919091528152602001906001900390816109df5790505090506040518060600160405280846001600160a01b031681526020018888604051602001610a46929190918252602082015260400190565b6040516020818303038152906040528051906020012081526020018681525081600081518110610a7857610a7861173e565b60200260200101819052506040518060600160405280846001600160a01b03168152602001888885604051602001610ae893929190928352602083019190915260c01b7fffffffffffffffff00000000000000000000000000000000000000000000000016604082015260480190565b6040516020818303038152906040528051906020012081526020018681525081600181518110610b1a57610b1a61173e565b6020026020010181905250610b2e81611187565b50505050505050565b6060610b44308484610b4d565b90505b92915050565b604051637dd5641160e01b8152600481018390526060906000906001600160a01b037f00000000000000000000000000000000000000000000000000000000000000001690637dd5641190602401602060405180830381865afa158015610bb8573d6000803e3d6000fd5b505050506040513d601f19601f82011682018060405250810190610bdc91906116e3565b90506000610bea8286611112565b60408051602081018890529081018690527fffffffffffffffff00000000000000000000000000000000000000000000000060c083901b166060820152909150610c5190879084906068015b604051602081830303815290604052805190602001206102a8565b9695505050505050565b604051637dd5641160e01b8152600481018590526060906000906001600160a01b037f00000000000000000000000000000000000000000000000000000000000000001690637dd5641190602401602060405180830381865afa158015610cc6573d6000803e3d6000fd5b505050506040513d601f19601f82011682018060405250810190610cea91906116e3565b9050600084118015610cfc5750600884105b610d62576040517f08c379a000000000000000000000000000000000000000000000000000000000815260206004820152600d60248201527f496e76616c696420666c616773000000000000000000000000000000000000006044820152606401610621565b600184161515600285161515600080610d7c600489611754565b11905082820181018067ffffffffffffffff811115610d9d57610d9d6113cf565b604051908082528060200260200182016040528015610dea57816020015b60408051606080820183526000808352602083015291810191909152815260200190600190039081610dbb5790505b50955060008415610e72576040518060600160405280876001600160a01b031681526020018c8c604051602001610e2b929190918252602082015260400190565b60408051601f1981840301815291905280516020918201208252018990528782610e5481611776565b935081518110610e6657610e6661173e565b60200260200101819052505b8315610f33576000610e84878d611112565b90506040518060600160405280886001600160a01b031681526020018d8d84604051602001610eeb93929190928352602083019190915260c01b7fffffffffffffffff00000000000000000000000000000000000000000000000016604082015260480190565b60408051601f1981840301815291905280516020918201208252018a90528883610f1481611776565b945081518110610f2657610f2661173e565b6020026020010181905250505b8215610fb757604051806060016040528060006001600160a01b031681526020018c8c604051602001610f70929190918252602082015260400190565b60408051601f1981840301815291905280516020918201208252018990528782610f9981611776565b935081518110610fab57610fab61173e565b60200260200101819052505b505050505050949350505050565b604051637dd5641160e01b8152600481018390526060906000906001600160a01b037f00000000000000000000000000000000000000000000000000000000000000001690637dd5641190602401602060405180830381865afa158015611030573d6000803e3d6000fd5b505050506040513d601f19601f8201168201806040525081019061105491906116e3565b905061107785828686604051602001610c36929190918252602082015260400190565b95945050505050565b604051637dd5641160e01b815260048101829052600090610b47906001600160a01b037f00000000000000000000000000000000000000000000000000000000000000001690637dd5641190602401602060405180830381865afa1580156110ec573d6000803e3d6000fd5b505050506040513d601f19601f8201168201806040525081019061111091906116e3565b835b6000806111563085857f9a80e7657ea10abdcccf23b8c937883af263d07b25ceeca613c24610c6fb3540604051602001610c36929190918252602082015260400190565b9050805160000361116b576000915050610b47565b8080602001905181019061117f9190611790565b949350505050565b60005460ff1615611225576040517f5eb5ea100000000000000000000000000000000000000000000000000000000081526001600160a01b037f00000000000000000000000000000000000000000000000000000000000000001690635eb5ea10906111f7908490600401611595565b600060405180830381600087803b15801561121157600080fd5b505af11580156107db573d6000803e3d6000fd5b805160005b818110156112705760008382815181106112465761124661173e565b60200260200101519050611267816000015182602001518360400151611276565b5060010161122a565b50505b50565b3060009081526001602090815260408083206001600160a01b0387168452825280832085845290915290206112ab8282611808565b5081836001600160a01b0316306001600160a01b03167f28710dfecab43d1e29e02aa56b2e1e610c0bae19135c9cf7a83a1adb6df96d85846040516112f091906113a3565b60405180910390a4505050565b6001600160a01b038116811461127357600080fd5b60008060006060848603121561132757600080fd5b8335611332816112fd565b92506020840135611342816112fd565b929592945050506040919091013590565b60005b8381101561136e578181015183820152602001611356565b50506000910152565b6000815180845261138f816020860160208601611353565b601f01601f19169290920160200192915050565b602081526000610b446020830184611377565b6000602082840312156113c857600080fd5b5035919050565b634e487b7160e01b600052604160045260246000fd5b604051601f8201601f1916810167ffffffffffffffff8111828210171561140e5761140e6113cf565b604052919050565b600067ffffffffffffffff821115611430576114306113cf565b50601f01601f191660200190565b600082601f83011261144f57600080fd5b813561146261145d82611416565b6113e5565b81815284602083860101111561147757600080fd5b816020850160208301376000918101602001919091529392505050565b6000806000606084860312156114a957600080fd5b8335925060208401359150604084013567ffffffffffffffff8111156114ce57600080fd5b6114da8682870161143e565b9150509250925092565b600080604083850312156114f757600080fd5b50508035926020909101359150565b60008060006060848603121561151b57600080fd5b8335611526816112fd565b95602085013595506040909401359392505050565b6000806000806080858703121561155157600080fd5b843593506020850135925060408501359150606085013567ffffffffffffffff81111561157d57600080fd5b6115898782880161143e565b91505092959194509250565b60006020808301818452808551808352604092508286019150828160051b87010184880160005b8381101561162d578883037fffffffffffffffffffffffffffffffffffffffffffffffffffffffffffffffc0018552815180516001600160a01b031684528781015188850152860151606087850181905261161981860183611377565b9689019694505050908601906001016115bc565b509098975050505050505050565b60006020828403121561164d57600080fd5b815167ffffffffffffffff81111561166457600080fd5b8201601f8101841361167557600080fd5b805161168361145d82611416565b81815285602083850101111561169857600080fd5b611077826020830160208601611353565b600181811c908216806116bd57607f821691505b6020821081036116dd57634e487b7160e01b600052602260045260246000fd5b50919050565b6000602082840312156116f557600080fd5b815161042c816112fd565b634e487b7160e01b600052601160045260246000fd5b67ffffffffffffffff81811683821601908082111561173757611737611700565b5092915050565b634e487b7160e01b600052603260045260246000fd5b60008261177157634e487b7160e01b600052601260045260246000fd5b500690565b6000600019820361178957611789611700565b5060010190565b6000602082840312156117a257600080fd5b815167ffffffffffffffff8116811461042c57600080fd5b601f82111561127057600081815260208120601f850160051c810160208610156117e15750805b601f850160051c820191505b81811015611800578281556001016117ed565b505050505050565b815167ffffffffffffffff811115611822576118226113cf565b6118368161183084546116a9565b846117ba565b602080601f83116001811461186b57600084156118535750858301515b600019600386901b1c1916600185901b178555611800565b600085815260208120601f198616915b8281101561189a5788860151825594840194600190910190840161187b565b50858210156118b85787850151600019600388901b60f8161c191681555b5050505050600190811b0190555056fea2646970667358221220e3f94864a62413020ba03127871c1dc8474e15422208924c9c9d73e66093c90264736f6c63430008130033",
  "linkReferences": {},
  "deployedLinkReferences": {}
}