{
  "_format": "hh-sol-artifact-1",
  "contractName": "OptiDomainsAttestationFacet",
  "sourceName": "contracts/attestation/OptiDomainsAttestationFacet.sol",
  "abi": [
    {
      "inputs": [
        {
          "internalType": "contract INameWrapperRegistry",
          "name": "_registry",
          "type": "address"
        },
        {
          "internalType": "address",
          "name": "_activationController",
          "type": "address"
        }
      ],
      "stateMutability": "nonpayable",
      "type": "constructor"
    },
    {
      "inputs": [
        {
          "internalType": "address",
          "name": "caller",
          "type": "address"
        },
        {
          "internalType": "address",
          "name": "resolver",
          "type": "address"
        }
      ],
      "name": "NotResolver",
      "type": "error"
    },
    {
      "anonymous": false,
      "inputs": [
        {
          "indexed": true,
          "internalType": "bytes32",
          "name": "node",
          "type": "bytes32"
        },
        {
          "indexed": true,
          "internalType": "bytes32",
          "name": "schema",
          "type": "bytes32"
        },
        {
          "indexed": true,
          "internalType": "bytes32",
          "name": "key",
          "type": "bytes32"
        },
        {
          "indexed": false,
          "internalType": "bytes32",
          "name": "uid",
          "type": "bytes32"
        },
        {
          "indexed": false,
          "internalType": "bytes32",
          "name": "ref",
          "type": "bytes32"
        },
        {
          "indexed": false,
          "internalType": "address",
          "name": "owner",
          "type": "address"
        },
        {
          "indexed": false,
          "internalType": "address",
          "name": "resolver",
          "type": "address"
        },
        {
          "indexed": false,
          "internalType": "address",
          "name": "origin",
          "type": "address"
        },
        {
          "indexed": false,
          "internalType": "bytes",
          "name": "data",
          "type": "bytes"
        }
      ],
      "name": "Attest",
      "type": "event"
    },
    {
      "anonymous": false,
      "inputs": [
        {
          "indexed": true,
          "internalType": "bytes32",
          "name": "node",
          "type": "bytes32"
        },
        {
          "indexed": true,
          "internalType": "address",
          "name": "owner",
          "type": "address"
        },
        {
          "indexed": false,
          "internalType": "uint256",
          "name": "version",
          "type": "uint256"
        }
      ],
      "name": "IncreaseVersion",
      "type": "event"
    },
    {
      "anonymous": false,
      "inputs": [
        {
          "indexed": true,
          "internalType": "bytes32",
          "name": "node",
          "type": "bytes32"
        },
        {
          "indexed": true,
          "internalType": "bytes32",
          "name": "schema",
          "type": "bytes32"
        },
        {
          "indexed": true,
          "internalType": "bytes32",
          "name": "key",
          "type": "bytes32"
        },
        {
          "indexed": false,
          "internalType": "bytes32",
          "name": "uid",
          "type": "bytes32"
        },
        {
          "indexed": false,
          "internalType": "address",
          "name": "owner",
          "type": "address"
        },
        {
          "indexed": false,
          "internalType": "address",
          "name": "origin",
          "type": "address"
        }
      ],
      "name": "Revoke",
      "type": "event"
    },
    {
      "inputs": [
        {
          "components": [
            {
              "internalType": "contract EAS",
              "name": "eas",
              "type": "address"
            },
            {
              "internalType": "uint256",
              "name": "priority",
              "type": "uint256"
            },
            {
              "internalType": "uint256",
              "name": "chainId",
              "type": "uint256"
            }
          ],
          "internalType": "struct OptiDomainsAttestationFacet.ActivationRule[]",
          "name": "rules",
          "type": "tuple[]"
        }
      ],
      "name": "activate",
      "outputs": [],
      "stateMutability": "nonpayable",
      "type": "function"
    },
    {
      "inputs": [],
      "name": "activationController",
      "outputs": [
        {
          "internalType": "address",
          "name": "",
          "type": "address"
        }
      ],
      "stateMutability": "view",
      "type": "function"
    },
    {
      "inputs": [
        {
          "internalType": "bytes32",
          "name": "schema",
          "type": "bytes32"
        },
        {
          "internalType": "bytes32",
          "name": "key",
          "type": "bytes32"
        },
        {
          "internalType": "bytes",
          "name": "data",
          "type": "bytes"
        }
      ],
      "name": "attest",
      "outputs": [],
      "stateMutability": "nonpayable",
      "type": "function"
    },
    {
      "inputs": [
        {
          "internalType": "bytes32",
          "name": "schema",
          "type": "bytes32"
        },
        {
          "internalType": "bytes32",
          "name": "key",
          "type": "bytes32"
        },
        {
          "internalType": "bytes32",
          "name": "ref",
          "type": "bytes32"
        },
        {
          "internalType": "bool",
          "name": "toDomain",
          "type": "bool"
        },
        {
          "internalType": "bytes",
          "name": "data",
          "type": "bytes"
        }
      ],
      "name": "attest",
      "outputs": [],
      "stateMutability": "nonpayable",
      "type": "function"
    },
    {
      "inputs": [
        {
          "internalType": "bytes32",
          "name": "schema",
          "type": "bytes32"
        },
        {
          "internalType": "bytes32",
          "name": "key",
          "type": "bytes32"
        },
        {
          "internalType": "bytes32",
          "name": "ref",
          "type": "bytes32"
        },
        {
          "internalType": "bytes",
          "name": "data",
          "type": "bytes"
        }
      ],
      "name": "attest",
      "outputs": [],
      "stateMutability": "nonpayable",
      "type": "function"
    },
    {
      "inputs": [
        {
          "internalType": "bytes32",
          "name": "schema",
          "type": "bytes32"
        },
        {
          "internalType": "bytes32",
          "name": "key",
          "type": "bytes32"
        },
        {
          "internalType": "bytes32",
          "name": "ref",
          "type": "bytes32"
        },
        {
          "internalType": "address",
          "name": "target",
          "type": "address"
        },
        {
          "internalType": "bytes",
          "name": "data",
          "type": "bytes"
        }
      ],
      "name": "attestToOther",
      "outputs": [],
      "stateMutability": "nonpayable",
      "type": "function"
    },
    {
      "inputs": [
        {
          "internalType": "bytes32",
          "name": "node",
          "type": "bytes32"
        },
        {
          "internalType": "bytes32",
          "name": "schema",
          "type": "bytes32"
        },
        {
          "internalType": "bytes32",
          "name": "ref",
          "type": "bytes32"
        },
        {
          "internalType": "bool",
          "name": "toDomain",
          "type": "bool"
        },
        {
          "internalType": "bytes",
          "name": "data",
          "type": "bytes"
        }
      ],
      "name": "buildAttestation",
      "outputs": [
        {
          "components": [
            {
              "internalType": "bytes32",
              "name": "schema",
              "type": "bytes32"
            },
            {
              "components": [
                {
                  "internalType": "address",
                  "name": "recipient",
                  "type": "address"
                },
                {
                  "internalType": "uint64",
                  "name": "expirationTime",
                  "type": "uint64"
                },
                {
                  "internalType": "bool",
                  "name": "revocable",
                  "type": "bool"
                },
                {
                  "internalType": "bytes32",
                  "name": "refUID",
                  "type": "bytes32"
                },
                {
                  "internalType": "bytes",
                  "name": "data",
                  "type": "bytes"
                },
                {
                  "internalType": "uint256",
                  "name": "value",
                  "type": "uint256"
                }
              ],
              "internalType": "struct AttestationRequestData",
              "name": "data",
              "type": "tuple"
            }
          ],
          "internalType": "struct AttestationRequest",
          "name": "",
          "type": "tuple"
        }
      ],
      "stateMutability": "view",
      "type": "function"
    },
    {
      "inputs": [],
      "name": "eas",
      "outputs": [
        {
          "internalType": "contract EAS",
          "name": "",
          "type": "address"
        }
      ],
      "stateMutability": "view",
      "type": "function"
    },
    {
      "inputs": [
        {
          "internalType": "bytes32",
          "name": "node",
          "type": "bytes32"
        }
      ],
      "name": "increaseVersion",
      "outputs": [],
      "stateMutability": "nonpayable",
      "type": "function"
    },
    {
      "inputs": [
        {
          "internalType": "bytes32",
          "name": "node",
          "type": "bytes32"
        },
        {
          "internalType": "bytes32",
          "name": "schema",
          "type": "bytes32"
        },
        {
          "internalType": "bytes32",
          "name": "key",
          "type": "bytes32"
        },
        {
          "internalType": "bool",
          "name": "toDomain",
          "type": "bool"
        }
      ],
      "name": "read",
      "outputs": [
        {
          "internalType": "bytes",
          "name": "result",
          "type": "bytes"
        }
      ],
      "stateMutability": "view",
      "type": "function"
    },
    {
      "inputs": [
        {
          "internalType": "bytes32",
          "name": "node",
          "type": "bytes32"
        },
        {
          "internalType": "bytes32",
          "name": "schema",
          "type": "bytes32"
        },
        {
          "internalType": "bytes32",
          "name": "key",
          "type": "bytes32"
        }
      ],
      "name": "read",
      "outputs": [
        {
          "internalType": "bytes",
          "name": "",
          "type": "bytes"
        }
      ],
      "stateMutability": "view",
      "type": "function"
    },
    {
      "inputs": [
        {
          "internalType": "bytes32",
          "name": "node",
          "type": "bytes32"
        },
        {
          "internalType": "bytes32",
          "name": "schema",
          "type": "bytes32"
        },
        {
          "internalType": "bytes32",
          "name": "key",
          "type": "bytes32"
        },
        {
          "internalType": "bool",
          "name": "toDomain",
          "type": "bool"
        }
      ],
      "name": "readRaw",
      "outputs": [
        {
          "components": [
            {
              "internalType": "bytes32",
              "name": "uid",
              "type": "bytes32"
            },
            {
              "internalType": "bytes32",
              "name": "schema",
              "type": "bytes32"
            },
            {
              "internalType": "uint64",
              "name": "time",
              "type": "uint64"
            },
            {
              "internalType": "uint64",
              "name": "expirationTime",
              "type": "uint64"
            },
            {
              "internalType": "uint64",
              "name": "revocationTime",
              "type": "uint64"
            },
            {
              "internalType": "bytes32",
              "name": "refUID",
              "type": "bytes32"
            },
            {
              "internalType": "address",
              "name": "recipient",
              "type": "address"
            },
            {
              "internalType": "address",
              "name": "attester",
              "type": "address"
            },
            {
              "internalType": "bool",
              "name": "revocable",
              "type": "bool"
            },
            {
              "internalType": "bytes",
              "name": "data",
              "type": "bytes"
            }
          ],
          "internalType": "struct Attestation",
          "name": "",
          "type": "tuple"
        }
      ],
      "stateMutability": "view",
      "type": "function"
    },
    {
      "inputs": [
        {
          "internalType": "bytes32",
          "name": "node",
          "type": "bytes32"
        },
        {
          "internalType": "bytes32",
          "name": "schema",
          "type": "bytes32"
        },
        {
          "internalType": "bytes32",
          "name": "key",
          "type": "bytes32"
        },
        {
          "internalType": "address",
          "name": "target",
          "type": "address"
        }
      ],
      "name": "readRawToOther",
      "outputs": [
        {
          "components": [
            {
              "internalType": "bytes32",
              "name": "uid",
              "type": "bytes32"
            },
            {
              "internalType": "bytes32",
              "name": "schema",
              "type": "bytes32"
            },
            {
              "internalType": "uint64",
              "name": "time",
              "type": "uint64"
            },
            {
              "internalType": "uint64",
              "name": "expirationTime",
              "type": "uint64"
            },
            {
              "internalType": "uint64",
              "name": "revocationTime",
              "type": "uint64"
            },
            {
              "internalType": "bytes32",
              "name": "refUID",
              "type": "bytes32"
            },
            {
              "internalType": "address",
              "name": "recipient",
              "type": "address"
            },
            {
              "internalType": "address",
              "name": "attester",
              "type": "address"
            },
            {
              "internalType": "bool",
              "name": "revocable",
              "type": "bool"
            },
            {
              "internalType": "bytes",
              "name": "data",
              "type": "bytes"
            }
          ],
          "internalType": "struct Attestation",
          "name": "",
          "type": "tuple"
        }
      ],
      "stateMutability": "view",
      "type": "function"
    },
    {
      "inputs": [
        {
          "internalType": "bytes32",
          "name": "node",
          "type": "bytes32"
        },
        {
          "internalType": "bytes32",
          "name": "schema",
          "type": "bytes32"
        },
        {
          "internalType": "bytes32",
          "name": "key",
          "type": "bytes32"
        },
        {
          "internalType": "bool",
          "name": "toDomain",
          "type": "bool"
        }
      ],
      "name": "readRef",
      "outputs": [
        {
          "components": [
            {
              "internalType": "bytes32",
              "name": "uid",
              "type": "bytes32"
            },
            {
              "internalType": "bytes32",
              "name": "schema",
              "type": "bytes32"
            },
            {
              "internalType": "uint64",
              "name": "time",
              "type": "uint64"
            },
            {
              "internalType": "uint64",
              "name": "expirationTime",
              "type": "uint64"
            },
            {
              "internalType": "uint64",
              "name": "revocationTime",
              "type": "uint64"
            },
            {
              "internalType": "bytes32",
              "name": "refUID",
              "type": "bytes32"
            },
            {
              "internalType": "address",
              "name": "recipient",
              "type": "address"
            },
            {
              "internalType": "address",
              "name": "attester",
              "type": "address"
            },
            {
              "internalType": "bool",
              "name": "revocable",
              "type": "bool"
            },
            {
              "internalType": "bytes",
              "name": "data",
              "type": "bytes"
            }
          ],
          "internalType": "struct Attestation",
          "name": "",
          "type": "tuple"
        }
      ],
      "stateMutability": "view",
      "type": "function"
    },
    {
      "inputs": [
        {
          "internalType": "bytes32",
          "name": "node",
          "type": "bytes32"
        },
        {
          "internalType": "bytes32",
          "name": "schema",
          "type": "bytes32"
        },
        {
          "internalType": "bytes32",
          "name": "key",
          "type": "bytes32"
        },
        {
          "internalType": "address",
          "name": "target",
          "type": "address"
        }
      ],
      "name": "readRefToOther",
      "outputs": [
        {
          "components": [
            {
              "internalType": "bytes32",
              "name": "uid",
              "type": "bytes32"
            },
            {
              "internalType": "bytes32",
              "name": "schema",
              "type": "bytes32"
            },
            {
              "internalType": "uint64",
              "name": "time",
              "type": "uint64"
            },
            {
              "internalType": "uint64",
              "name": "expirationTime",
              "type": "uint64"
            },
            {
              "internalType": "uint64",
              "name": "revocationTime",
              "type": "uint64"
            },
            {
              "internalType": "bytes32",
              "name": "refUID",
              "type": "bytes32"
            },
            {
              "internalType": "address",
              "name": "recipient",
              "type": "address"
            },
            {
              "internalType": "address",
              "name": "attester",
              "type": "address"
            },
            {
              "internalType": "bool",
              "name": "revocable",
              "type": "bool"
            },
            {
              "internalType": "bytes",
              "name": "data",
              "type": "bytes"
            }
          ],
          "internalType": "struct Attestation",
          "name": "",
          "type": "tuple"
        }
      ],
      "stateMutability": "view",
      "type": "function"
    },
    {
      "inputs": [
        {
          "internalType": "bytes32",
          "name": "node",
          "type": "bytes32"
        },
        {
          "internalType": "bytes32",
          "name": "schema",
          "type": "bytes32"
        },
        {
          "internalType": "bytes32",
          "name": "key",
          "type": "bytes32"
        },
        {
          "internalType": "address",
          "name": "target",
          "type": "address"
        }
      ],
      "name": "readToOther",
      "outputs": [
        {
          "internalType": "bytes",
          "name": "result",
          "type": "bytes"
        }
      ],
      "stateMutability": "view",
      "type": "function"
    },
    {
      "inputs": [
        {
          "internalType": "bytes32",
          "name": "node",
          "type": "bytes32"
        }
      ],
      "name": "readVersion",
      "outputs": [
        {
          "internalType": "uint64",
          "name": "",
          "type": "uint64"
        }
      ],
      "stateMutability": "view",
      "type": "function"
    },
    {
      "inputs": [
        {
          "internalType": "bytes32",
          "name": "node",
          "type": "bytes32"
        }
      ],
      "name": "records",
      "outputs": [
        {
          "internalType": "bytes32",
          "name": "",
          "type": "bytes32"
        }
      ],
      "stateMutability": "view",
      "type": "function"
    },
    {
      "inputs": [],
      "name": "registry",
      "outputs": [
        {
          "internalType": "contract INameWrapperRegistry",
          "name": "",
          "type": "address"
        }
      ],
      "stateMutability": "view",
      "type": "function"
    },
    {
      "inputs": [
        {
          "internalType": "bytes32",
          "name": "node",
          "type": "bytes32"
        },
        {
          "internalType": "bytes32",
          "name": "schema",
          "type": "bytes32"
        },
        {
          "internalType": "bytes32",
          "name": "key",
          "type": "bytes32"
        },
        {
          "internalType": "bool",
          "name": "toDomain",
          "type": "bool"
        }
      ],
      "name": "revoke",
      "outputs": [],
      "stateMutability": "nonpayable",
      "type": "function"
    },
    {
      "inputs": [
        {
          "internalType": "bytes32",
          "name": "node",
          "type": "bytes32"
        },
        {
          "internalType": "bytes32",
          "name": "schema",
          "type": "bytes32"
        },
        {
          "internalType": "bytes32",
          "name": "key",
          "type": "bytes32"
        },
        {
          "internalType": "address",
          "name": "target",
          "type": "address"
        }
      ],
      "name": "revokeToOther",
      "outputs": [],
      "stateMutability": "nonpayable",
      "type": "function"
    },
    {
      "inputs": [
        {
          "internalType": "bytes32",
          "name": "node",
          "type": "bytes32"
        },
        {
          "internalType": "address",
          "name": "owner",
          "type": "address"
        }
      ],
      "name": "versions",
      "outputs": [
        {
          "internalType": "uint64",
          "name": "",
          "type": "uint64"
        }
      ],
      "stateMutability": "view",
      "type": "function"
    }
  ],
  "bytecode": "0x60c06040523480156200001157600080fd5b506040516200285b3803806200285b833981016040819052620000349162000065565b6001600160a01b039182166080521660a052620000a4565b6001600160a01b03811681146200006257600080fd5b50565b600080604083850312156200007957600080fd5b825162000086816200004c565b602084015190925062000099816200004c565b809150509250929050565b60805160a051612736620001256000396000818161029f015261185601526000818161030401528181610596015281816108b5015281816109fd01528181610bc401528181610cb001528181610e5c01528181610fa3015281816111ed01528181611334015281816113c80152818161154d015261161301526127366000f3fe608060405234801561001057600080fd5b50600436106101825760003560e01c806378c87e5f116100d8578063cb81facd1161008c578063eff94ac711610066578063eff94ac71461041a578063f806f52a1461042d578063fc031b751461044057600080fd5b8063cb81facd1461037c578063cf9dbeb71461038f578063d7561abd1461040757600080fd5b80638150864d116100bd5780638150864d146103265780638a6f7fe6146103565780639acb04171461036957600080fd5b806378c87e5f146102ec5780637b103999146102ff57600080fd5b80633e57d2691161013a57806356c82d6b1161011457806356c82d6b1461027a5780636912e70e1461029a5780636aec6216146102d957600080fd5b80633e57d269146102415780634a91b882146102545780634ac4f6811461026757600080fd5b8063274ac54a1161016b578063274ac54a146101f95780632a9c71ec146102195780632d4d6ccf1461022c57600080fd5b806301e64725146101875780630e0ffb66146101d9575b600080fd5b6101c6610195366004611f1f565b60009081527f631167d431657b3b0bd7ab93a8644d8b57f952a348b4d93041ec686e33077779602052604090205490565b6040519081526020015b60405180910390f35b6101ec6101e7366004611f50565b610453565b6040516101d09190611fe1565b61020c6102073660046120be565b610577565b6040516101d091906120f4565b61020c610227366004611f50565b61061a565b61023f61023a366004611f1f565b61088c565b005b61023f61024f366004612157565b610b35565b61020c6102623660046121aa565b610b4a565b6101ec6102753660046120be565b610b59565b61028d6102883660046121d6565b610c4c565b6040516101d09190612249565b6102c17f000000000000000000000000000000000000000000000000000000000000000081565b6040516001600160a01b0390911681526020016101d0565b6101ec6102e73660046120be565b610d45565b61023f6102fa3660046122cd565b610df6565b6102c17f000000000000000000000000000000000000000000000000000000000000000081565b7f631167d431657b3b0bd7ab93a8644d8b57f952a348b4d93041ec686e33077777546001600160a01b03166102c1565b61023f6103643660046121d6565b610e48565b6101ec610377366004611f50565b61103a565b61023f61038a3660046120be565b6111e9565b6103ee61039d366004612342565b60009182527f631167d431657b3b0bd7ab93a8644d8b57f952a348b4d93041ec686e33077778602090815260408084206001600160a01b0393909316845291905290205467ffffffffffffffff1690565b60405167ffffffffffffffff90911681526020016101d0565b61023f610415366004611f50565b6113c4565b6103ee610428366004611f1f565b611505565b61023f61043b366004612372565b6115f0565b61023f61044e3660046123d3565b6115ff565b604080516101408101825260008082526020820181905291810182905260608082018390526080820183905260a0820183905260c0820183905260e082018390526101008201929092526101208101919091527f631167d431657b3b0bd7ab93a8644d8b57f952a348b4d93041ec686e33077777547f631167d431657b3b0bd7ab93a8644d8b57f952a348b4d93041ec686e33077775906001600160a01b031663a3112a646105048888888861103a565b60a001516040518263ffffffff1660e01b815260040161052691815260200190565b600060405180830381865afa158015610543573d6000803e3d6000fd5b505050506040513d6000823e601f3d908101601f1916820160405261056b9190810190612507565b9150505b949350505050565b606060008261060e57604051637dd5641160e01b8152600481018790527f00000000000000000000000000000000000000000000000000000000000000006001600160a01b031690637dd5641190602401602060405180830381865afa1580156105e5573d6000803e3d6000fd5b505050506040513d601f19601f8201168201806040525081019061060991906125fe565b610610565b855b905061056b868686845b7f631167d431657b3b0bd7ab93a8644d8b57f952a348b4d93041ec686e330777775460008581527f631167d431657b3b0bd7ab93a8644d8b57f952a348b4d93041ec686e33077778602090815260408083206001600160a01b03868116855290835281842054825160c091821b7fffffffffffffffff0000000000000000000000000000000000000000000000001681860152602881018b9052606088811b6bffffffffffffffffffffffff19166048830152605c82018b9052607c8083018b905285518084039091018152609c830180875281519188019190912088527f631167d431657b3b0bd7ab93a8644d8b57f952a348b4d93041ec686e33077779909652938620547fa3112a640000000000000000000000000000000000000000000000000000000090955260a081019490945291947f631167d431657b3b0bd7ab93a8644d8b57f952a348b4d93041ec686e33077775949391169163a3112a649101600060405180830381865afa158015610798573d6000803e3d6000fd5b505050506040513d6000823e601f3d908101601f191682016040526107c09190810190612507565b60e08101519091506001600160a01b0316301415806107f55750836001600160a01b03168160c001516001600160a01b031614155b80610804575085816020015114155b8061083557506000816060015167ffffffffffffffff16118015610835575042816060015167ffffffffffffffff16105b8061084d5750608081015167ffffffffffffffff1615155b8061085f575060208161012001515111155b1561087d57604051806020016040528060008152509250505061056f565b61012001519695505050505050565b60007f631167d431657b3b0bd7ab93a8644d8b57f952a348b4d93041ec686e33077775905060007f00000000000000000000000000000000000000000000000000000000000000006001600160a01b0316633f15457f6040518163ffffffff1660e01b8152600401602060405180830381865afa158015610911573d6000803e3d6000fd5b505050506040513d601f19601f8201168201806040525081019061093591906125fe565b6001600160a01b0316630178b8bf846040518263ffffffff1660e01b815260040161096291815260200190565b602060405180830381865afa15801561097f573d6000803e3d6000fd5b505050506040513d601f19601f820116820180604052508101906109a391906125fe565b9050336001600160a01b038216146109e4576040516305616a3960e41b81523360048201526001600160a01b03821660248201526044015b60405180910390fd5b604051637dd5641160e01b8152600481018490526000907f00000000000000000000000000000000000000000000000000000000000000006001600160a01b031690637dd5641190602401602060405180830381865afa158015610a4c573d6000803e3d6000fd5b505050506040513d601f19601f82011682018060405250810190610a7091906125fe565b600085815260038501602090815260408083206001600160a01b03851684529091528120805492935067ffffffffffffffff9092169190610ab08361261b565b82546101009290920a67ffffffffffffffff818102199093169183160217909155600086815260038601602090815260408083206001600160a01b038716808552908352928190205490519316835290925086917fad223ad5ece7f0f4bf7f6d0cb29d8fe55362076b13b904ec59b2a50cb2b32e49910160405180910390a350505050565b610b4484846000808686610e48565b50505050565b606061056f8484846000610577565b604080516101408101825260008082526020820181905291810182905260608082018390526080820183905260a0820183905260c0820183905260e0820183905261010082018390526101208201529082610c3c57604051637dd5641160e01b8152600481018790527f00000000000000000000000000000000000000000000000000000000000000006001600160a01b031690637dd5641190602401602060405180830381865afa158015610c13573d6000803e3d6000fd5b505050506040513d601f19601f82011682018060405250810190610c3791906125fe565b610c3e565b855b905061056b8686868461103a565b610c936040805180820182526000808252825160c08101845281815260208181018390529381018290526060808201839052608082015260a0810191909152909182015290565b600084610d2857604051637dd5641160e01b8152600481018990527f00000000000000000000000000000000000000000000000000000000000000006001600160a01b031690637dd5641190602401602060405180830381865afa158015610cff573d6000803e3d6000fd5b505050506040513d601f19601f82011682018060405250810190610d2391906125fe565b610d2a565b875b9050610d398188888787611757565b98975050505050505050565b604080516101408101825260008082526020820181905291810182905260608082018390526080820183905260a0820183905260c0820183905260e082018390526101008201929092526101208101919091527f631167d431657b3b0bd7ab93a8644d8b57f952a348b4d93041ec686e33077777547f631167d431657b3b0bd7ab93a8644d8b57f952a348b4d93041ec686e33077775906001600160a01b031663a3112a6461050488888888610b59565b8060005b81811015610b445736848483818110610e1557610e15612650565b606002919091019150610e3f9050610e306020830183612666565b82602001358360400135611833565b50600101610dfa565b6000610e5682840184611f1f565b905060007f00000000000000000000000000000000000000000000000000000000000000006001600160a01b0316633f15457f6040518163ffffffff1660e01b8152600401602060405180830381865afa158015610eb8573d6000803e3d6000fd5b505050506040513d601f19601f82011682018060405250810190610edc91906125fe565b6001600160a01b0316630178b8bf836040518263ffffffff1660e01b8152600401610f0991815260200190565b602060405180830381865afa158015610f26573d6000803e3d6000fd5b505050506040513d601f19601f82011682018060405250810190610f4a91906125fe565b9050336001600160a01b03821614610f86576040516305616a3960e41b81523360048201526001600160a01b03821660248201526044016109db565b60008561101b57604051637dd5641160e01b8152600481018490527f00000000000000000000000000000000000000000000000000000000000000006001600160a01b031690637dd5641190602401602060405180830381865afa158015610ff2573d6000803e3d6000fd5b505050506040513d601f19601f8201168201806040525081019061101691906125fe565b61101d565b825b905061102f8989898686868b8b611a17565b505050505050505050565b60408051610140810182526000808252602080830182905282840182905260608084018390526080840183905260a080850184905260c080860185905260e08601859052610100860185905261012086018390527f631167d431657b3b0bd7ab93a8644d8b57f952a348b4d93041ec686e33077777548b86527f631167d431657b3b0bd7ab93a8644d8b57f952a348b4d93041ec686e3307777885528786206001600160a01b038a8116885290865288872054895190841b7fffffffffffffffff0000000000000000000000000000000000000000000000001681880152602881018e9052948a901b6bffffffffffffffffffffffff19166048860152605c85018c9052607c8086018c905289518087039091018152609c8601808b5281519188019190912088527f631167d431657b3b0bd7ab93a8644d8b57f952a348b4d93041ec686e3307777990965297909520547fa3112a64000000000000000000000000000000000000000000000000000000009094529082019290925292937f631167d431657b3b0bd7ab93a8644d8b57f952a348b4d93041ec686e330777759392169163a3112a649101610526565b60007f00000000000000000000000000000000000000000000000000000000000000006001600160a01b0316633f15457f6040518163ffffffff1660e01b8152600401602060405180830381865afa158015611249573d6000803e3d6000fd5b505050506040513d601f19601f8201168201806040525081019061126d91906125fe565b6001600160a01b0316630178b8bf866040518263ffffffff1660e01b815260040161129a91815260200190565b602060405180830381865afa1580156112b7573d6000803e3d6000fd5b505050506040513d601f19601f820116820180604052508101906112db91906125fe565b9050336001600160a01b03821614611317576040516305616a3960e41b81523360048201526001600160a01b03821660248201526044016109db565b6000826113ac57604051637dd5641160e01b8152600481018790527f00000000000000000000000000000000000000000000000000000000000000006001600160a01b031690637dd5641190602401602060405180830381865afa158015611383573d6000803e3d6000fd5b505050506040513d601f19601f820116820180604052508101906113a791906125fe565b6113ae565b855b90506113bc86868684611d12565b505050505050565b60007f00000000000000000000000000000000000000000000000000000000000000006001600160a01b0316633f15457f6040518163ffffffff1660e01b8152600401602060405180830381865afa158015611424573d6000803e3d6000fd5b505050506040513d601f19601f8201168201806040525081019061144891906125fe565b6001600160a01b0316630178b8bf866040518263ffffffff1660e01b815260040161147591815260200190565b602060405180830381865afa158015611492573d6000803e3d6000fd5b505050506040513d601f19601f820116820180604052508101906114b691906125fe565b9050336001600160a01b038216146114f2576040516305616a3960e41b81523360048201526001600160a01b03821660248201526044016109db565b6114fe85858585611d12565b5050505050565b6000807f631167d431657b3b0bd7ab93a8644d8b57f952a348b4d93041ec686e33077775604051637dd5641160e01b8152600481018590529091506000906001600160a01b037f00000000000000000000000000000000000000000000000000000000000000001690637dd5641190602401602060405180830381865afa158015611594573d6000803e3d6000fd5b505050506040513d601f19601f820116820180604052508101906115b891906125fe565b60009485526003909201602090815260408086206001600160a01b039094168652929052509091205467ffffffffffffffff16919050565b6114fe85858560008686610e48565b600061160d82840184611f1f565b905060007f00000000000000000000000000000000000000000000000000000000000000006001600160a01b0316633f15457f6040518163ffffffff1660e01b8152600401602060405180830381865afa15801561166f573d6000803e3d6000fd5b505050506040513d601f19601f8201168201806040525081019061169391906125fe565b6001600160a01b0316630178b8bf836040518263ffffffff1660e01b81526004016116c091815260200190565b602060405180830381865afa1580156116dd573d6000803e3d6000fd5b505050506040513d601f19601f8201168201806040525081019061170191906125fe565b9050336001600160a01b0382161461173d576040516305616a3960e41b81523360048201526001600160a01b03821660248201526044016109db565b61174d88888885858a8a8a611a17565b5050505050505050565b61179e6040805180820182526000808252825160c08101845281815260208181018390529381018290526060808201839052608082015260a0810191909152909182015290565b60405180604001604052808681526020016040518060c00160405280896001600160a01b03168152602001600067ffffffffffffffff16815260200160011515815260200187815260200186868080601f016020809104026020016040519081016040528093929190818152602001838380828437600092018290525093855250505060209091015290529695505050505050565b7f631167d431657b3b0bd7ab93a8644d8b57f952a348b4d93041ec686e330777757f00000000000000000000000000000000000000000000000000000000000000006001600160a01b03163314806118fc57506001600160a01b038416600090815260208290526040902054158015906118c457506001600160a01b03841660009081526020829052604090205483145b80156118e957506001600160a01b038416600090815260018201602052604090205482145b80156118fc5750814614806118fc575081155b611962576040517f08c379a000000000000000000000000000000000000000000000000000000000815260206004820152600960248201527f466f7262696464656e000000000000000000000000000000000000000000000060448201526064016109db565b6001600160a01b038416600090815260208281526040808320869055600184019091529020829055833b63ffffffff16151580156119a75750814614806119a7575081155b15610b445760028101546001600160a01b039081166000908152602083905260408082205492871682529020541115610b44576002810180546001600160a01b0386167fffffffffffffffffffffffff000000000000000000000000000000000000000090911617905550505050565b60008581527f631167d431657b3b0bd7ab93a8644d8b57f952a348b4d93041ec686e33077778602090815260408083206001600160a01b0387168452825280832054815160c09190911b7fffffffffffffffff000000000000000000000000000000000000000000000000168184015260288101899052606087901b6bffffffffffffffffffffffff19166048820152605c81018c9052607c8082018c905282518083039091018152609c90910182528051908301208084527f631167d431657b3b0bd7ab93a8644d8b57f952a348b4d93041ec686e33077779909252909120547f631167d431657b3b0bd7ab93a8644d8b57f952a348b4d93041ec686e3307777591908015611c205760028301546040805180820182528d815281518083018352848152600060208083019190915280830191825292517f469262670000000000000000000000000000000000000000000000000000000081529151600483015251805160248301529091015160448201526001600160a01b0390911690634692626790606401600060405180830381600087803b158015611bb957600080fd5b505af1158015611bcd573d6000803e3d6000fd5b5050604080518481526001600160a01b038a166020820152328183015290518d93508e92508b917ff1cabdc51f2729e7c6b5936b6d0b309a6e43847dcbab43ff3c998fd8bce188d3919081900360600190a45b5060028201546000906001600160a01b031663f17325e7611c44888e8d8a8a611757565b6040518263ffffffff1660e01b8152600401611c609190612249565b6020604051808303816000875af1158015611c7f573d6000803e3d6000fd5b505050506040513d601f19601f82011682018060405250810190611ca39190612683565b90508083600401600084815260200190815260200160002081905550898b897f88dff2875629931e9f73aabe70a18f5b66863b24b0f6c023e6b25cbc3ec74160848d8b8d328d8d604051611cfd979695949392919061269c565b60405180910390a45050505050505050505050565b60008481527f631167d431657b3b0bd7ab93a8644d8b57f952a348b4d93041ec686e33077778602090815260408083206001600160a01b0385168452825280832054815160c09190911b7fffffffffffffffff000000000000000000000000000000000000000000000000168184015260288101889052606085901b6bffffffffffffffffffffffff19166048820152605c8101879052607c80820187905282518083039091018152609c909101825280519083012083527f631167d431657b3b0bd7ab93a8644d8b57f952a348b4d93041ec686e330777799091529020547f631167d431657b3b0bd7ab93a8644d8b57f952a348b4d93041ec686e330777759080156113bc57600282015460408051808201825287815281518083018352848152600060208083019190915280830191825292517f469262670000000000000000000000000000000000000000000000000000000081529151600483015251805160248301529091015160448201526001600160a01b0390911690634692626790606401600060405180830381600087803b158015611eb157600080fd5b505af1158015611ec5573d6000803e3d6000fd5b5050604080518481526001600160a01b03871660208201523281830152905187935088925089917ff1cabdc51f2729e7c6b5936b6d0b309a6e43847dcbab43ff3c998fd8bce188d3919081900360600190a4505050505050565b600060208284031215611f3157600080fd5b5035919050565b6001600160a01b0381168114611f4d57600080fd5b50565b60008060008060808587031215611f6657600080fd5b8435935060208501359250604085013591506060850135611f8681611f38565b939692955090935050565b60005b83811015611fac578181015183820152602001611f94565b50506000910152565b60008151808452611fcd816020860160208601611f91565b601f01601f19169290920160200192915050565b60208152815160208201526020820151604082015260006040830151612013606084018267ffffffffffffffff169052565b50606083015167ffffffffffffffff8116608084015250608083015167ffffffffffffffff811660a08401525060a083015160c083015260c083015161206460e08401826001600160a01b03169052565b5060e0830151610100612081818501836001600160a01b03169052565b84015190506101206120968482018315159052565b84015161014084810152905061056f610160840182611fb5565b8015158114611f4d57600080fd5b600080600080608085870312156120d457600080fd5b8435935060208501359250604085013591506060850135611f86816120b0565b6020815260006121076020830184611fb5565b9392505050565b60008083601f84011261212057600080fd5b50813567ffffffffffffffff81111561213857600080fd5b60208301915083602082850101111561215057600080fd5b9250929050565b6000806000806060858703121561216d57600080fd5b8435935060208501359250604085013567ffffffffffffffff81111561219257600080fd5b61219e8782880161210e565b95989497509550505050565b6000806000606084860312156121bf57600080fd5b505081359360208301359350604090920135919050565b60008060008060008060a087890312156121ef57600080fd5b863595506020870135945060408701359350606087013561220f816120b0565b9250608087013567ffffffffffffffff81111561222b57600080fd5b61223789828a0161210e565b979a9699509497509295939492505050565b6020815281516020820152600060208301516040808401526001600160a01b03815116606084015267ffffffffffffffff60208201511660808401526040810151151560a0840152606081015160c0840152608081015160c060e08501526122b5610120850182611fb5565b905060a0820151610100850152809250505092915050565b600080602083850312156122e057600080fd5b823567ffffffffffffffff808211156122f857600080fd5b818501915085601f83011261230c57600080fd5b81358181111561231b57600080fd5b86602060608302850101111561233057600080fd5b60209290920196919550909350505050565b6000806040838503121561235557600080fd5b82359150602083013561236781611f38565b809150509250929050565b60008060008060006080868803121561238a57600080fd5b853594506020860135935060408601359250606086013567ffffffffffffffff8111156123b657600080fd5b6123c28882890161210e565b969995985093965092949392505050565b60008060008060008060a087890312156123ec57600080fd5b863595506020870135945060408701359350606087013561220f81611f38565b634e487b7160e01b600052604160045260246000fd5b604051610140810167ffffffffffffffff811182821017156124465761244661240c565b60405290565b805167ffffffffffffffff8116811461246457600080fd5b919050565b805161246481611f38565b8051612464816120b0565b600082601f83011261249057600080fd5b815167ffffffffffffffff808211156124ab576124ab61240c565b604051601f8301601f19908116603f011681019082821181831017156124d3576124d361240c565b816040528381528660208588010111156124ec57600080fd5b6124fd846020830160208901611f91565b9695505050505050565b60006020828403121561251957600080fd5b815167ffffffffffffffff8082111561253157600080fd5b90830190610140828603121561254657600080fd5b61254e612422565b82518152602083015160208201526125686040840161244c565b60408201526125796060840161244c565b606082015261258a6080840161244c565b608082015260a083015160a08201526125a560c08401612469565b60c08201526125b660e08401612469565b60e08201526101006125c9818501612474565b9082015261012083810151838111156125e157600080fd5b6125ed8882870161247f565b918301919091525095945050505050565b60006020828403121561261057600080fd5b815161210781611f38565b600067ffffffffffffffff80831681810361264657634e487b7160e01b600052601160045260246000fd5b6001019392505050565b634e487b7160e01b600052603260045260246000fd5b60006020828403121561267857600080fd5b813561210781611f38565b60006020828403121561269557600080fd5b5051919050565b87815286602082015260006001600160a01b038088166040840152808716606084015280861660808401525060c060a08301528260c0830152828460e0840137600060e0848401015260e0601f19601f85011683010190509897505050505050505056fea264697066735822122021c61daf01cdb10ed2650100adb4bd55adc36c9205a3fb34b5aa5a20c23ea49b64736f6c63430008130033",
  "linkReferences": {},
  "deployedLinkReferences": {}
}