{
  "_format": "hh-sol-artifact-1",
  "contractName": "OptiDomainsAttestationFacetFix1",
  "sourceName": "contracts/attestation/OptiDomainsAttestationFacetFix1.sol",
  "abi": [
    {
      "inputs": [
        {
          "internalType": "contract INameWrapperRegistry",
          "name": "_registry",
          "type": "address"
        },
        {
          "internalType": "address",
          "name": "_activationController",
          "type": "address"
        }
      ],
      "stateMutability": "nonpayable",
      "type": "constructor"
    },
    {
      "inputs": [
        {
          "internalType": "address",
          "name": "caller",
          "type": "address"
        },
        {
          "internalType": "address",
          "name": "resolver",
          "type": "address"
        }
      ],
      "name": "NotResolver",
      "type": "error"
    },
    {
      "anonymous": false,
      "inputs": [
        {
          "indexed": true,
          "internalType": "bytes32",
          "name": "node",
          "type": "bytes32"
        },
        {
          "indexed": true,
          "internalType": "bytes32",
          "name": "schema",
          "type": "bytes32"
        },
        {
          "indexed": true,
          "internalType": "bytes32",
          "name": "key",
          "type": "bytes32"
        },
        {
          "indexed": false,
          "internalType": "bytes32",
          "name": "uid",
          "type": "bytes32"
        },
        {
          "indexed": false,
          "internalType": "bytes32",
          "name": "ref",
          "type": "bytes32"
        },
        {
          "indexed": false,
          "internalType": "address",
          "name": "owner",
          "type": "address"
        },
        {
          "indexed": false,
          "internalType": "address",
          "name": "resolver",
          "type": "address"
        },
        {
          "indexed": false,
          "internalType": "address",
          "name": "origin",
          "type": "address"
        },
        {
          "indexed": false,
          "internalType": "bytes",
          "name": "data",
          "type": "bytes"
        }
      ],
      "name": "Attest",
      "type": "event"
    },
    {
      "anonymous": false,
      "inputs": [
        {
          "indexed": true,
          "internalType": "bytes32",
          "name": "node",
          "type": "bytes32"
        },
        {
          "indexed": true,
          "internalType": "bytes32",
          "name": "schema",
          "type": "bytes32"
        },
        {
          "indexed": true,
          "internalType": "bytes32",
          "name": "key",
          "type": "bytes32"
        },
        {
          "indexed": false,
          "internalType": "bytes32",
          "name": "uid",
          "type": "bytes32"
        },
        {
          "indexed": false,
          "internalType": "address",
          "name": "owner",
          "type": "address"
        },
        {
          "indexed": false,
          "internalType": "address",
          "name": "origin",
          "type": "address"
        }
      ],
      "name": "Revoke",
      "type": "event"
    },
    {
      "inputs": [],
      "name": "activationController",
      "outputs": [
        {
          "internalType": "address",
          "name": "",
          "type": "address"
        }
      ],
      "stateMutability": "view",
      "type": "function"
    },
    {
      "inputs": [
        {
          "internalType": "bytes32",
          "name": "schema",
          "type": "bytes32"
        },
        {
          "internalType": "bytes32",
          "name": "key",
          "type": "bytes32"
        },
        {
          "internalType": "bytes",
          "name": "data",
          "type": "bytes"
        }
      ],
      "name": "attest",
      "outputs": [],
      "stateMutability": "nonpayable",
      "type": "function"
    },
    {
      "inputs": [
        {
          "internalType": "bytes32",
          "name": "schema",
          "type": "bytes32"
        },
        {
          "internalType": "bytes32",
          "name": "key",
          "type": "bytes32"
        },
        {
          "internalType": "bytes32",
          "name": "ref",
          "type": "bytes32"
        },
        {
          "internalType": "bool",
          "name": "toDomain",
          "type": "bool"
        },
        {
          "internalType": "bytes",
          "name": "data",
          "type": "bytes"
        }
      ],
      "name": "attest",
      "outputs": [],
      "stateMutability": "nonpayable",
      "type": "function"
    },
    {
      "inputs": [
        {
          "internalType": "bytes32",
          "name": "schema",
          "type": "bytes32"
        },
        {
          "internalType": "bytes32",
          "name": "key",
          "type": "bytes32"
        },
        {
          "internalType": "bytes32",
          "name": "ref",
          "type": "bytes32"
        },
        {
          "internalType": "bytes",
          "name": "data",
          "type": "bytes"
        }
      ],
      "name": "attest",
      "outputs": [],
      "stateMutability": "nonpayable",
      "type": "function"
    },
    {
      "inputs": [
        {
          "internalType": "bytes32",
          "name": "schema",
          "type": "bytes32"
        },
        {
          "internalType": "bytes32",
          "name": "key",
          "type": "bytes32"
        },
        {
          "internalType": "bytes32",
          "name": "ref",
          "type": "bytes32"
        },
        {
          "internalType": "address",
          "name": "target",
          "type": "address"
        },
        {
          "internalType": "bytes",
          "name": "data",
          "type": "bytes"
        }
      ],
      "name": "attestToOther",
      "outputs": [],
      "stateMutability": "nonpayable",
      "type": "function"
    },
    {
      "inputs": [],
      "name": "eas",
      "outputs": [
        {
          "internalType": "contract EAS",
          "name": "",
          "type": "address"
        }
      ],
      "stateMutability": "view",
      "type": "function"
    },
    {
      "inputs": [
        {
          "internalType": "bytes32",
          "name": "node",
          "type": "bytes32"
        }
      ],
      "name": "records",
      "outputs": [
        {
          "internalType": "bytes32",
          "name": "",
          "type": "bytes32"
        }
      ],
      "stateMutability": "view",
      "type": "function"
    },
    {
      "inputs": [],
      "name": "registry",
      "outputs": [
        {
          "internalType": "contract INameWrapperRegistry",
          "name": "",
          "type": "address"
        }
      ],
      "stateMutability": "view",
      "type": "function"
    },
    {
      "inputs": [
        {
          "internalType": "bytes32",
          "name": "node",
          "type": "bytes32"
        },
        {
          "internalType": "bytes32",
          "name": "schema",
          "type": "bytes32"
        },
        {
          "internalType": "bytes32",
          "name": "key",
          "type": "bytes32"
        },
        {
          "internalType": "bool",
          "name": "toDomain",
          "type": "bool"
        }
      ],
      "name": "revoke",
      "outputs": [],
      "stateMutability": "nonpayable",
      "type": "function"
    },
    {
      "inputs": [
        {
          "internalType": "bytes32",
          "name": "node",
          "type": "bytes32"
        },
        {
          "internalType": "bytes32",
          "name": "schema",
          "type": "bytes32"
        },
        {
          "internalType": "bytes32",
          "name": "key",
          "type": "bytes32"
        },
        {
          "internalType": "address",
          "name": "target",
          "type": "address"
        }
      ],
      "name": "revokeToOther",
      "outputs": [],
      "stateMutability": "nonpayable",
      "type": "function"
    },
    {
      "inputs": [
        {
          "internalType": "bytes32",
          "name": "node",
          "type": "bytes32"
        },
        {
          "internalType": "address",
          "name": "owner",
          "type": "address"
        }
      ],
      "name": "versions",
      "outputs": [
        {
          "internalType": "uint64",
          "name": "",
          "type": "uint64"
        }
      ],
      "stateMutability": "view",
      "type": "function"
    }
  ],
  "bytecode": "0x60c060405234801561001057600080fd5b506040516114b53803806114b583398101604081905261002f9161005e565b6001600160a01b039182166080521660a052610098565b6001600160a01b038116811461005b57600080fd5b50565b6000806040838503121561007157600080fd5b825161007c81610046565b602084015190925061008d81610046565b809150509250929050565b60805160a0516113ce6100e7600039600061013a015260008181610179015281816102cb01528181610430015281816104cb0152818161062b015281816106bf015261081f01526113ce6000f3fe608060405234801561001057600080fd5b50600436106100c95760003560e01c80638a6f7fe611610081578063d7561abd1161005b578063d7561abd14610269578063f806f52a1461027c578063fc031b751461028f57600080fd5b80638a6f7fe6146101cb578063cb81facd146101de578063cf9dbeb7146101f157600080fd5b80636912e70e116100b25780636912e70e146101355780637b103999146101745780638150864d1461019b57600080fd5b806301e64725146100ce5780633e57d26914610120575b600080fd5b61010d6100dc366004610fa5565b60009081527f631167d431657b3b0bd7ab93a8644d8b57f952a348b4d93041ec686e33077779602052604090205490565b6040519081526020015b60405180910390f35b61013361012e366004611007565b6102a2565b005b61015c7f000000000000000000000000000000000000000000000000000000000000000081565b6040516001600160a01b039091168152602001610117565b61015c7f000000000000000000000000000000000000000000000000000000000000000081565b7f631167d431657b3b0bd7ab93a8644d8b57f952a348b4d93041ec686e33077777546001600160a01b031661015c565b6101336101d936600461106f565b6102b7565b6101336101ec3660046110e0565b6104c7565b6102506101ff366004611137565b60009182527f631167d431657b3b0bd7ab93a8644d8b57f952a348b4d93041ec686e33077778602090815260408084206001600160a01b0393909316845291905290205467ffffffffffffffff1690565b60405167ffffffffffffffff9091168152602001610117565b610133610277366004611167565b6106bb565b61013361028a3660046111a8565b6107fc565b61013361029d366004611209565b61080b565b6102b1848460008086866102b7565b50505050565b60006102c582840184610fa5565b905060007f00000000000000000000000000000000000000000000000000000000000000006001600160a01b0316633f15457f6040518163ffffffff1660e01b8152600401602060405180830381865afa158015610327573d6000803e3d6000fd5b505050506040513d601f19601f8201168201806040525081019061034b9190611242565b6001600160a01b0316630178b8bf836040518263ffffffff1660e01b815260040161037891815260200190565b602060405180830381865afa158015610395573d6000803e3d6000fd5b505050506040513d601f19601f820116820180604052508101906103b99190611242565b9050336001600160a01b038216146103fa576040516305616a3960e41b81523360048201526001600160a01b03821660248201526044015b60405180910390fd5b6000856104a8576040517f7dd56411000000000000000000000000000000000000000000000000000000008152600481018490527f00000000000000000000000000000000000000000000000000000000000000006001600160a01b031690637dd5641190602401602060405180830381865afa15801561047f573d6000803e3d6000fd5b505050506040513d601f19601f820116820180604052508101906104a39190611242565b6104aa565b825b90506104bc8989898686868b8b610963565b505050505050505050565b60007f00000000000000000000000000000000000000000000000000000000000000006001600160a01b0316633f15457f6040518163ffffffff1660e01b8152600401602060405180830381865afa158015610527573d6000803e3d6000fd5b505050506040513d601f19601f8201168201806040525081019061054b9190611242565b6001600160a01b0316630178b8bf866040518263ffffffff1660e01b815260040161057891815260200190565b602060405180830381865afa158015610595573d6000803e3d6000fd5b505050506040513d601f19601f820116820180604052508101906105b99190611242565b9050336001600160a01b038216146105f5576040516305616a3960e41b81523360048201526001600160a01b03821660248201526044016103f1565b6000826106a3576040517f7dd56411000000000000000000000000000000000000000000000000000000008152600481018790527f00000000000000000000000000000000000000000000000000000000000000006001600160a01b031690637dd5641190602401602060405180830381865afa15801561067a573d6000803e3d6000fd5b505050506040513d601f19601f8201168201806040525081019061069e9190611242565b6106a5565b855b90506106b386868684610c8d565b505050505050565b60007f00000000000000000000000000000000000000000000000000000000000000006001600160a01b0316633f15457f6040518163ffffffff1660e01b8152600401602060405180830381865afa15801561071b573d6000803e3d6000fd5b505050506040513d601f19601f8201168201806040525081019061073f9190611242565b6001600160a01b0316630178b8bf866040518263ffffffff1660e01b815260040161076c91815260200190565b602060405180830381865afa158015610789573d6000803e3d6000fd5b505050506040513d601f19601f820116820180604052508101906107ad9190611242565b9050336001600160a01b038216146107e9576040516305616a3960e41b81523360048201526001600160a01b03821660248201526044016103f1565b6107f585858585610c8d565b5050505050565b6107f5858585600086866102b7565b600061081982840184610fa5565b905060007f00000000000000000000000000000000000000000000000000000000000000006001600160a01b0316633f15457f6040518163ffffffff1660e01b8152600401602060405180830381865afa15801561087b573d6000803e3d6000fd5b505050506040513d601f19601f8201168201806040525081019061089f9190611242565b6001600160a01b0316630178b8bf836040518263ffffffff1660e01b81526004016108cc91815260200190565b602060405180830381865afa1580156108e9573d6000803e3d6000fd5b505050506040513d601f19601f8201168201806040525081019061090d9190611242565b9050336001600160a01b03821614610949576040516305616a3960e41b81523360048201526001600160a01b03821660248201526044016103f1565b61095988888885858a8a8a610963565b5050505050505050565b60008581527f631167d431657b3b0bd7ab93a8644d8b57f952a348b4d93041ec686e33077778602090815260408083206001600160a01b0387168452825280832054815160c09190911b7fffffffffffffffff000000000000000000000000000000000000000000000000168184015260288101899052606087901b6bffffffffffffffffffffffff19166048820152605c81018c9052607c8082018c905282518083039091018152609c90910182528051908301208084527f631167d431657b3b0bd7ab93a8644d8b57f952a348b4d93041ec686e33077779909252909120547f631167d431657b3b0bd7ab93a8644d8b57f952a348b4d93041ec686e3307777591908015610b9b5760028301546040805180820182528d815281518083018352848152600060208083019190915280830191825292517f469262670000000000000000000000000000000000000000000000000000000081529151600483015251805160248301529091015160448201526001600160a01b0390911690634692626790606401600060405180830381600087803b158015610b0557600080fd5b505af1925050508015610b16575060015b610b4c573d808015610b44576040519150601f19603f3d011682016040523d82523d6000602084013e610b49565b606091505b50505b604080518281526001600160a01b0388166020820152328183015290518b918d918b917ff1cabdc51f2729e7c6b5936b6d0b309a6e43847dcbab43ff3c998fd8bce188d3919081900360600190a45b5060028201546000906001600160a01b031663f17325e7610bbf888e8d8a8a610ec9565b6040518263ffffffff1660e01b8152600401610bdb9190611266565b6020604051808303816000875af1158015610bfa573d6000803e3d6000fd5b505050506040513d601f19601f82011682018060405250810190610c1e919061131b565b90508083600401600084815260200190815260200160002081905550898b897f88dff2875629931e9f73aabe70a18f5b66863b24b0f6c023e6b25cbc3ec74160848d8b8d328d8d604051610c789796959493929190611334565b60405180910390a45050505050505050505050565b60008481527f631167d431657b3b0bd7ab93a8644d8b57f952a348b4d93041ec686e33077778602090815260408083206001600160a01b0385168452825280832054815160c09190911b7fffffffffffffffff000000000000000000000000000000000000000000000000168184015260288101889052606085901b6bffffffffffffffffffffffff19166048820152605c8101879052607c80820187905282518083039091018152609c909101825280519083012083527f631167d431657b3b0bd7ab93a8644d8b57f952a348b4d93041ec686e330777799091529020547f631167d431657b3b0bd7ab93a8644d8b57f952a348b4d93041ec686e330777759080156106b357600282015460408051808201825287815281518083018352848152600060208083019190915280830191825292517f469262670000000000000000000000000000000000000000000000000000000081529151600483015251805160248301529091015160448201526001600160a01b0390911690634692626790606401600060405180830381600087803b158015610e2c57600080fd5b505af1925050508015610e3d575060015b610e73573d808015610e6b576040519150601f19603f3d011682016040523d82523d6000602084013e610e70565b606091505b50505b604080518281526001600160a01b0385166020820152328183015290518591879189917ff1cabdc51f2729e7c6b5936b6d0b309a6e43847dcbab43ff3c998fd8bce188d3919081900360600190a4505050505050565b610f106040805180820182526000808252825160c08101845281815260208181018390529381018290526060808201839052608082015260a0810191909152909182015290565b60405180604001604052808681526020016040518060c00160405280896001600160a01b03168152602001600067ffffffffffffffff16815260200160011515815260200187815260200186868080601f016020809104026020016040519081016040528093929190818152602001838380828437600092018290525093855250505060209091015290529695505050505050565b600060208284031215610fb757600080fd5b5035919050565b60008083601f840112610fd057600080fd5b50813567ffffffffffffffff811115610fe857600080fd5b60208301915083602082850101111561100057600080fd5b9250929050565b6000806000806060858703121561101d57600080fd5b8435935060208501359250604085013567ffffffffffffffff81111561104257600080fd5b61104e87828801610fbe565b95989497509550505050565b8035801515811461106a57600080fd5b919050565b60008060008060008060a0878903121561108857600080fd5b8635955060208701359450604087013593506110a66060880161105a565b9250608087013567ffffffffffffffff8111156110c257600080fd5b6110ce89828a01610fbe565b979a9699509497509295939492505050565b600080600080608085870312156110f657600080fd5b8435935060208501359250604085013591506111146060860161105a565b905092959194509250565b6001600160a01b038116811461113457600080fd5b50565b6000806040838503121561114a57600080fd5b82359150602083013561115c8161111f565b809150509250929050565b6000806000806080858703121561117d57600080fd5b843593506020850135925060408501359150606085013561119d8161111f565b939692955090935050565b6000806000806000608086880312156111c057600080fd5b853594506020860135935060408601359250606086013567ffffffffffffffff8111156111ec57600080fd5b6111f888828901610fbe565b969995985093965092949392505050565b60008060008060008060a0878903121561122257600080fd5b86359550602087013594506040870135935060608701356110a68161111f565b60006020828403121561125457600080fd5b815161125f8161111f565b9392505050565b60006020808352835181840152808401516040808501526001600160a01b03815116606085015267ffffffffffffffff828201511660808501526040810151151560a0850152606081015160c0850152608081015160c060e086015280518061012087015260005b818110156112eb57828101850151878201610140015284016112ce565b5060008682016101409081019190915260a09390930151610100870152601f01601f191690940101949350505050565b60006020828403121561132d57600080fd5b5051919050565b87815286602082015260006001600160a01b038088166040840152808716606084015280861660808401525060c060a08301528260c0830152828460e0840137600060e0848401015260e0601f19601f85011683010190509897505050505050505056fea264697066735822122034b692ca6417412f038fa15021f7827c265e7028e88a698e56cc9b290a84dcef64736f6c63430008130033",
  "linkReferences": {},
  "deployedLinkReferences": {}
}