{
  "_format": "hh-sol-artifact-1",
  "contractName": "SimplePublicSuffixList",
  "sourceName": "contracts/dnsregistrar/SimplePublicSuffixList.sol",
  "abi": [
    {
      "anonymous": false,
      "inputs": [
        {
          "indexed": true,
          "internalType": "address",
          "name": "previousOwner",
          "type": "address"
        },
        {
          "indexed": true,
          "internalType": "address",
          "name": "newOwner",
          "type": "address"
        }
      ],
      "name": "OwnershipTransferred",
      "type": "event"
    },
    {
      "inputs": [
        {
          "internalType": "bytes[]",
          "name": "names",
          "type": "bytes[]"
        }
      ],
      "name": "addPublicSuffixes",
      "outputs": [],
      "stateMutability": "nonpayable",
      "type": "function"
    },
    {
      "inputs": [
        {
          "internalType": "bytes",
          "name": "name",
          "type": "bytes"
        }
      ],
      "name": "isPublicSuffix",
      "outputs": [
        {
          "internalType": "bool",
          "name": "",
          "type": "bool"
        }
      ],
      "stateMutability": "view",
      "type": "function"
    },
    {
      "inputs": [],
      "name": "owner",
      "outputs": [
        {
          "internalType": "address",
          "name": "",
          "type": "address"
        }
      ],
      "stateMutability": "view",
      "type": "function"
    },
    {
      "inputs": [],
      "name": "renounceOwnership",
      "outputs": [],
      "stateMutability": "nonpayable",
      "type": "function"
    },
    {
      "inputs": [
        {
          "internalType": "address",
          "name": "newOwner",
          "type": "address"
        }
      ],
      "name": "transferOwnership",
      "outputs": [],
      "stateMutability": "nonpayable",
      "type": "function"
    }
  ],
  "bytecode": "0x608060405234801561001057600080fd5b5061001a3361001f565b61006f565b600080546001600160a01b038381166001600160a01b0319831681178455604051919092169283917f8be0079c531659141344cd1fd0a4f28419497f9722a3daafe3b4186f6b6457e09190a35050565b6105e28061007e6000396000f3fe608060405234801561001057600080fd5b50600436106100675760003560e01c8063715018a611610050578063715018a6146100a95780638da5cb5b146100b1578063f2fde38b146100d957600080fd5b80634f89059e1461006c5780636329cdfc14610094575b600080fd5b61007f61007a366004610321565b6100ec565b60405190151581526020015b60405180910390f35b6100a76100a23660046103da565b61011b565b005b6100a761018f565b60005460405173ffffffffffffffffffffffffffffffffffffffff909116815260200161008b565b6100a76100e73660046104f3565b6101a3565b600060018383604051610100929190610530565b9081526040519081900360200190205460ff16905092915050565b610123610245565b60005b815181101561018b5760018083838151811061014457610144610540565b60200260200101516040516101599190610556565b908152604051908190036020019020805491151560ff199092169190911790558061018381610585565b915050610126565b5050565b610197610245565b6101a160006102ac565b565b6101ab610245565b73ffffffffffffffffffffffffffffffffffffffff81166102395760405162461bcd60e51b815260206004820152602660248201527f4f776e61626c653a206e6577206f776e657220697320746865207a65726f206160448201527f646472657373000000000000000000000000000000000000000000000000000060648201526084015b60405180910390fd5b610242816102ac565b50565b60005473ffffffffffffffffffffffffffffffffffffffff1633146101a15760405162461bcd60e51b815260206004820181905260248201527f4f776e61626c653a2063616c6c6572206973206e6f7420746865206f776e65726044820152606401610230565b6000805473ffffffffffffffffffffffffffffffffffffffff8381167fffffffffffffffffffffffff0000000000000000000000000000000000000000831681178455604051919092169283917f8be0079c531659141344cd1fd0a4f28419497f9722a3daafe3b4186f6b6457e09190a35050565b6000806020838503121561033457600080fd5b823567ffffffffffffffff8082111561034c57600080fd5b818501915085601f83011261036057600080fd5b81358181111561036f57600080fd5b86602082850101111561038157600080fd5b60209290920196919550909350505050565b634e487b7160e01b600052604160045260246000fd5b604051601f8201601f1916810167ffffffffffffffff811182821017156103d2576103d2610393565b604052919050565b600060208083850312156103ed57600080fd5b823567ffffffffffffffff8082111561040557600080fd5b8185019150601f868184011261041a57600080fd5b82358281111561042c5761042c610393565b8060051b61043b8682016103a9565b918252848101860191868101908a84111561045557600080fd5b87870192505b838310156104e5578235868111156104735760008081fd5b8701603f81018c136104855760008081fd5b8881013560408882111561049b5761049b610393565b6104ac828901601f19168c016103a9565b8281528e828486010111156104c15760008081fd5b828285018d83013760009281018c019290925250835250918701919087019061045b565b9a9950505050505050505050565b60006020828403121561050557600080fd5b813573ffffffffffffffffffffffffffffffffffffffff8116811461052957600080fd5b9392505050565b8183823760009101908152919050565b634e487b7160e01b600052603260045260246000fd5b6000825160005b81811015610577576020818601810151858301520161055d565b506000920191825250919050565b6000600182016105a557634e487b7160e01b600052601160045260246000fd5b506001019056fea2646970667358221220f28dfbed1b6a43dc386137d8665f28e78db1bb9df360324664b9f9313f9a488164736f6c63430008110033",
  "linkReferences": {},
  "deployedLinkReferences": {}
}